:100000000C94AE000C94D6000C94D6000C94D60040
:100010000C94D6000C94D6000C94D6000C94882630
:100020000C94D6000C94D6000C94D6000C94D726D1
:100030000C94D6000C94D6000C9432270C94D60065
:100040000C94E6250C94D6000C9456260C9430267D
:100050000C94D6000C94D6000C94D6000C94D600C8
:100060000C948D270C94D600496E636F7272656391
:100070007420536F6E6720466F726D6174210002A9
:10008000010053746F7020546573740054656D7073
:100090002E2073656E736F72206E6F7420666F759D
:1000A0006E642E0053746172742054657374004E34
:1000B00043533331342D384320485720322E782093
:1000C000485635313232206F72204856353232323E
:1000D000004669726D776172652076657273696F2B
:1000E0006E3A20004661756C747920445333323384
:1000F0003121004453333233315F543D000000005E
:1001000000240027002A0000000000250028002B02
:1001100000000000080002010000030407000000C6
:100120000000000000000000002300260029000459
:10013000040404040404040202020202020303038E
:100140000303030102040810204080010204081088
:100150002001020408102000E528872E11241FBE6C
:10016000CFEFD8E0DEBFCDBF27E0A2E1B4E001C011
:100170001D92A032B207E1F714E0A0E0B1E0EAE698
:10018000F7E602C005900D92A231B107D9F710E051
:10019000CDEAD0E004C02197FE010E949431CC3A10
:1001A000D107C9F70E9470290C94A8330C94000061
:1001B0008CBD9DBD089580910807E0910907F091DD
:1001C0000A07F8949181982B91832281382F3095DA
:1001D00023232283A7E0B0E01197F1F791819323C5
:1001E0009183A3E2B0E01197F1F790817894EFEC5E
:1001F000F0E03197F1F7982381E009F480E0089569
:1002000090910807E0910907F0910A07292F20959E
:1002100080FF14C0F8948281822382838181892B9C
:100220008183A3E2B0E01197F1F78281982B92834A
:10023000789487ED90E00197F1F70895F894828122
:10024000822382838181892B8183AFEFB0E0119774
:10025000F1F78281982B928378948FE090E0EBCF36
:100260000F931F93CF93DF93082FC8E0D0E011E0E6
:1002700081E0902F912309F480E00E940001110F8A
:100280002197B1F7F894E0910907F0910A0791815D
:1002900080910807809598239183E0910907F09158
:1002A0000A079281892382837894DF91CF911F91ED
:1002B0000F91089580910807E0910907F0910A07CE
:1002C000F8949181282F20959223918378943DE78B
:1002D00043E050E0315029F1DA011197F1F79081B4
:1002E0009823C1F3F8949281922392839181982B61
:1002F00091837894ABE7B7E01197F1F7F894918187
:1003000092239183A3E1B1E01197F1F790819823B3
:1003100081E009F080E07894E3E6F6E03197F1F7C8
:10032000089580E00895833081F028F4813099F0B9
:100330008230A9F008958730A9F08830C9F0843060
:10034000B1F4809180008F7D03C0809180008F7711
:1003500080938000089584B58F7784BD089584B517
:100360008F7DFBCF8091B0008F778093B000089590
:100370008091B0008F7DF9CFCF93DF93282F30E0AD
:10038000F901EF5EFE4F8491F901ED5BFE4FD491D0
:10039000F901E15DFE4FC491CC23A1F081110E94CF
:1003A0009301EC2FF0E0EE0FFF1FEB5DFE4FA591E8
:1003B000B491EC91ED2381E090E009F480E0DF91CD
:1003C000CF91089580E090E0FACF1F93CF93DF9311
:1003D000282F30E0F901EF5EFE4F8491F901ED5BCB
:1003E000FE4FD491F901E15DFE4FC491CC23A9F0F9
:1003F000162F81110E949301EC2FF0E0EE0FFF1FEA
:10040000E95FFE4FA591B4918FB7F894EC9111116B
:1004100008C0D095DE23DC938FBFDF91CF911F9171
:100420000895DE2BF8CFCF93DF9390E0FC01ED5BD6
:10043000FE4F2491815D9E4FFC0184918823C9F079
:1004400090E0880F991FFC01E350FF4FA591B491F4
:10045000FC01E95FFE4FC591D49161110DC09FB7BA
:10046000F8948C91209582238C938881282328836B
:100470009FBFDF91CF910895623051F49FB7F894F8
:100480003C91822F809583238C93E8812E2BEFCF94
:100490008FB7F894EC912E2B2C938FBFEACF4F920D
:1004A0005F926F927F928F929F92AF92BF92CF9204
:1004B000DF92EF92FF920F931F93CF93DF9300D0C1
:1004C00000D01F92CDB7DEB720910D0627FD2CC1BD
:1004D00049835A836B837C838C0161E080910C0695
:1004E0000E94130280910D068D834801B12CA12C2E
:1004F0008D7F09F031C160E072E18AE790E0A501EB
:1005000098010E94753129013A017A01690191E04F
:10051000C91AD108E108F108AFEFCA16D104E10405
:10052000F10409F00CF4C7C060E472E48FE090E0DD
:10053000A50198010E94753169017A01B1E0CB1AD9
:10054000D108E108F1088D81823009F06AC082E0AB
:100550009FEFC916D104E104F10409F00CF45EC167
:1005600060E970ED83E090E0A50198010E9475318B
:1005700069017A01A1E0CA1AD108E108F10883E013
:10058000BFEFCB16D104E104F10409F00CF446C12D
:1005900068E478EE81E090E0A50198010E94753151
:1005A00069017A0181E0C81AD108E108F10884E004
:1005B0009FEFC916D104E104F10409F00CF42EC137
:1005C00064E274EF80E090E0A50194010E9475312F
:1005D00069017A01B1E0CB1AD108E108F10885E0A0
:1005E0009FEFC916D104E104F10409F008F416C123
:1005F00062E17AE780E090E0A50194010E94753104
:1006000069017A01B1E0CB1AD108E108F1088FEF56
:10061000C816D104E104F10411F008F0F0C086E03E
:10062000FDC08FEFC816D104E104F10409F00CF409
:1006300091C068E478EE81E090E0A50198010E9405
:10064000753169017A0191E0C91AD108E108F10810
:10065000AD8184E0A111C4CF83E0AFEFCA16D1040D
:10066000E104F10461F15CF162E17AE780E090E09D
:10067000A50194010E94753169017A0181E0C81ACF
:10068000D108E108F10884E09FEFC916D104E10424
:10069000F104A9F0A0F0730162019AE0F594E794E7
:1006A000D794C7949A95D1F7A1E0CA1AD108E10866
:1006B000F10885E004C081E0AD81A111AFC095B51E
:1006C000987F892B85BD89819A81AB81BC812FEF71
:1006D0003FEFA901892B8A2B8B2B79F0D801AA0F28
:1006E000BB1F29813A814B815C810E943A3028EE00
:1006F00033E040E050E00E9453319D81913009F495
:100700005CC0923009F46BC091110EC0C7BC20933D
:1007100008063093090640930A0650930B06809111
:100720006E00826080936E000F900F900F900F907C
:100730000F90DF91CF911F910F91FF90EF90DF907D
:10074000CF90BF90AF909F908F907F906F905F9071
:100750004F90089582E0B0CF60E072E18AE790E0C8
:10076000A50198010E94753169017A01B1E0CB1AA7
:10077000D108E108F10891E0C114D10481E0E80654
:10078000F10484F068E478EE81E090E0A50198013E
:100790000E94753169017A0191E0C91AD108E10816
:1007A000F10893E0AD81A13009F08DCF80918100F7
:1007B000887F892B8093810086CFD0928900C09258
:1007C0008800209304063093050640930606509354
:1007D000070680916F00826080936F00A5CFC09262
:1007E000B300209300063093010640930206509315
:1007F00003068091700082608093700095CF730132
:1008000062018AE0F594E794D794C7948A95D1F76A
:10081000B1E0CB1AD108E108F10887E09091B1006E
:10082000987F892B8093B1004ECF1F93CF93DF9396
:10083000182FEB0161E00E941302209739F460E069
:10084000812FDF91CF911F910C94E501CF3FD1050E
:1008500011F461E0F5CFE12FF0E0EF5EFE4FE4919F
:10086000E33031F140F4E130B1F0E230E1F0C03892
:10087000D1057CF7E4CFE73029F1E83059F1E430D5
:10088000B1F780918000806280938000D0938B00CC
:10089000C0938A0004C084B5806884BDC7BDDF9161
:1008A000CF911F91089584B5806284BDC8BDF7CFF4
:1008B00080918000806880938000D0938900C093ED
:1008C0008800EDCF8091B00080688093B000C09325
:1008D000B300E5CF8091B00080628093B000C093F8
:1008E000B400DDCF3FB7F89480918C0590918D05D1
:1008F000A0918E05B0918F0526B5A89B05C02F3F0E
:1009000019F00196A11DB11D3FBFBA2FA92F982F35
:100910008827BC01CD01620F711D811D911D42E030
:10092000660F771F881F991F4A95D1F708958F92F8
:100930009F92AF92BF92CF92DF92EF92FF924B01C4
:100940005C010E9472046B017C010E9472046C19AC
:100950007D098E099F09683E734081059105A8F3C2
:1009600021E0821A9108A108B10888EEC80E83E040
:10097000D81EE11CF11C81149104A104B10429F7D3
:10098000FF90EF90DF90CF90BF90AF909F908F90AF
:1009900008952FB7F894609188057091890580912A
:1009A0008A0590918B052FBF0895089508950895A5
:1009B000AF92BF92CF92DF92EF92FF920F931F936D
:1009C000CF93DF936C017B018B01040F151FEB01AB
:1009D0005E01AE18BF08C017D10759F06991D60162
:1009E000ED91FC910190F081E02DC6010995892BD4
:1009F00079F7C501DF91CF911F910F91FF90EF9093
:100A0000DF90CF90BF90AF900895FC01538D448D3F
:100A1000252F30E0842F90E0821B930B541710F0A9
:100A2000CF96089501970895FC01918D828D9817B6
:100A300061F0A28DAE0FBF2FB11D5D968C91928D8E
:100A40009F5F9F73928F90E008958FEF9FEF0895BF
:100A5000FC01918D828D981731F0828DE80FF11D88
:100A6000858D90E008958FEF9FEF0895FC01918DA3
:100A7000228D892F90E0805C9F4F821B91098F739C
:100A8000992708958EE096E00E94360521E0892B93
:100A900009F420E0822F089580E090E0892B29F06E
:100AA0000E94420581110C9400000895FC01A48D60
:100AB000A80FB92FB11DA35ABF4F2C91848D90E080
:100AC00001968F739927848FA689B7892C93A08963
:100AD000B1898C91837080648C93938D848D9813ED
:100AE00006C00288F389E02D80818F7D8083089580
:100AF000EF92FF920F931F93CF93DF93EC0181E06E
:100B0000888F9B8D8C8D98131AC0E889F989808114
:100B100085FF15C09FB7F894EE89FF896083E88947
:100B2000F98980818370806480839FBF81E090E039
:100B3000DF91CF911F910F91FF90EF900895F62EC6
:100B40000B8D10E00F5F1F4F0F731127E02E8C8D60
:100B50008E110CC00FB607FCFACFE889F9898081A5
:100B600085FFF5CFCE010E945605F1CFEB8DEC0F3E
:100B7000FD2FF11DE35AFF4FF0829FB7F8940B8FC2
:100B8000EA89FB8980818062CFCF0F931F93CF9337
:100B9000DF938C01D0E0C0E0F801EC0FFD1F649101
:100BA000662341F08EE096E00E947805892B11F0D3
:100BB0002196F2CFCE01DF91CF911F910F91089531
:100BC000CF93DF93EC01888D8823B9F0AA89BB8984
:100BD000E889F9898C9185FD03C0808186FD0DC06F
:100BE0000FB607FCF7CF8C9185FFF2CF808185FF90
:100BF000EDCFCE010E945605E9CFDF91CF91089548
:100C0000609351057093520580935305909354055A
:100C1000645D7E4F8F4F9F4F60934D0570934E05DF
:100C200080934F059093500582E090E090934C059F
:100C300080934B050E94C904609347057093480553
:100C40008093490590934A0508952F923F924F92C1
:100C50005F926F927F928F929F92AF92BF92CF924C
:100C6000DF92EF92FF920F931F93CF93DF93382E73
:100C7000962E842E222E84E6E816F1040CF459C038
:100C800092EBE91A97E0F90AE0925B0500935A05A6
:100C9000209259053092570590925605809255053D
:100CA000AE2DB0E020E833E341EE51E00E943A304F
:100CB0002B013C0122EB37E0FF24E4E6F0E0C0E941
:100CC000D1E0C901825B97408E159F05B4F19EE487
:100CD000E91A98EFF90AC70164E670E00E943F3113
:100CE0006C01C70160E971E00E943F315C01CFED0A
:100CF000D2E0E1E0F0E0112783E0E822FF24E017F2
:100D0000F1070CF042C0E230F10591F5E114F10475
:100D100079F5C114D10419F4A114B10449F580E89E
:100D2000480E8BE3581E86E2681E711C3196219690
:100D3000E6CF8EE1E80EF11CA7CFC9018370992799
:100D4000892B99F4C901BF010E943F31892B31F4ED
:100D5000C901BE010E943F31892B39F490E8490E48
:100D600091E5591E91E0691E711C2F5F3F4FA9CF7D
:100D7000A881B0E020E831E541E050E00E943A303F
:100D8000460E571E681E791ED1CF292D30E0ACE3E8
:100D9000B0E00E947C306B017C01C80CD11CE11CCE
:100DA000F11C232D30E0A0E1BEE00E947C30C60E95
:100DB000D71EE81EF91E822D8150990BDC0120E818
:100DC00031E541E050E00E949A316C0D7D1D8E1D91
:100DD0009F1D640D751D861D971DDF91CF911F917D
:100DE0000F91FF90EF90DF90CF90BF90AF909F90CA
:100DF0008F907F906F905F904F903F902F900C94CA
:100E00000006CF92DF92EF92FF920F931F930E9402
:100E1000C9048B019C01C0904705D0904805E09023
:100E20004905F0904A0560915105709152058091F5
:100E30005305909154050C191D092E093F09083ED0
:100E4000134021053105E0F0DC01CB010196A11D25
:100E5000B11D8093510590935205A0935305B09313
:100E60005405B701A60148515C4F6F4F7F4F409327
:100E70004705509348056093490570934A05C7CFCD
:100E80001F910F91FF90EF90DF90CF9008954F92B8
:100E90005F926F927F928F929F92AF92BF92CF920A
:100EA000DF92EF92FF920F931F93CF93DF934B014B
:100EB0005C018091430590914405A0914505B09156
:100EC000460588159905AA05BB0509F4C6C08CE33B
:100ED000C82ED12CE12CF12CC501A70196010E944E
:100EE000533160935505CA01B901A70196010E94CB
:100EF000533160935605C501B40120E13EE040E066
:100F000050E00E945331CA01B90128E130E040E0CD
:100F100050E00E94533160935705C501B40120E8A9
:100F200031E541E050E00E94533169017A01CA0184
:100F3000B9016C5F7F4F8F4F9F4F27E030E040E05B
:100F400050E00E9453316F5F60935805412C512C43
:100F5000320140E004E610E0C0E9D1E0242F30E0A7
:100F60002E54384FF901E370FF273097F9F4C90187
:100F7000B8010E943F31892B31F4C901BE010E94A2
:100F80003F31892B99F48EE691E0A0E0B0E0480E65
:100F9000591E6A1E7B1ED301C201AA27BB27C81691
:100FA000D906EA06FB0638F04F5FD8CF8DE691E010
:100FB000A0E0B0E0ECCF40935B05C90164E670E0CF
:100FC0000E943F31EC01C90160E971E00E943F31AC
:100FD000309721F42097D9F40097C9F04DE651E0FD
:100FE00060E070E0441A550A660A770AC418D5080A
:100FF000E608F708AFEDB2E020E0213069F4309761
:10100000E9F5209711F40097C9F54DE106C04EE6C9
:1010100051E060E070E0E6CF4C9150E070E060E0BD
:1010200031E0320FC416D506E606F70640F0C41AC2
:10103000D50AE60AF70A1196232F3C30F1F62F5F06
:1010400020935A05C394C09259058092430590920B
:101050004405A0924505B0924605DF91CF911F91BE
:101060000F91FF90EF90DF90CF90BF90AF909F9047
:101070008F907F906F905F904F9008954CE1CDCF0F
:101080000E9401070E94470780915B0590E08E5403
:10109000984F08950E9401070E94470780915A05C2
:1010A00090E008950E9401070E944707809159052A
:1010B00090E008950E9401070E944707809155051E
:1010C00090E008950E9401070E944707809156050D
:1010D00090E008950E9401070E94470780915705FC
:1010E00090E00895CF92DF92EF92FF92CF93DF933B
:1010F000EC010E94C9046B017C018F850E94BC0138
:101100009C0181E02115310509F480E0898B8889F3
:10111000811105C091E0232B09F090E0998B29897A
:101120008A89281721F0CD8ADE8AEF8AF88E8D8988
:101130009E89AF89B88DB701A601481B590B6A0B70
:101140007B0BDB01CA01CB80DC80ED80FE80C81602
:10115000D906EA06FB0664F43A81231749F02A838C
:10116000222349F04B895C894F5F5F4F5C8B4B8B2F
:101170003A81311117C0CF80D884E984FA84C81627
:10118000D906EA06FB0634F48B899C899983888307
:101190001C8A1B8A2A8BDF91CF91FF90EF90DF9002
:1011A000CF900895CB84DC84ED84FE84C816D906E4
:1011B000EA06FB067CF78B899C89919581959109BC
:1011C000E5CF20912005260F3327331F213231052B
:1011D000ECF42091D605FC0190E080E0243069F029
:1011E00082E00895A09120052191AC0140505B4F11
:1011F000A40FB52FB11D2C930196861798F38091FB
:101200002005680F6093200580E0089581E008952F
:101210001092D60581E08093D5051092B00561E06B
:1012200082E10E94E50161E083E10E94E501E9EBD2
:10123000F0E080818E7F808380818D7F808388E451
:101240008093B80085E48093BC000895CF93DF932A
:1012500091E09093FF048823B9F0C091B800D09139
:10126000BA008091BC008A7B8093BC0060E082E180
:101270000E94E50160E083E10E94E5010E94080907
:10128000D093BA00C093B800DF91CF910895CF9268
:10129000DF92EF92FF920F931F93CF93DF93D09142
:1012A000FF0581E0D13208F09CC0C091FE050E948C
:1012B00072046B017C018091D60581116CC082E0C3
:1012C0008093D60581E08093D5058FEF8093D40578
:1012D0001092D305D093D205AEEDB5E0E2EBF5E088
:1012E00080E0D8138DC01092B1058091B105CC0F6C
:1012F000C82BC093B1058091B005813009F084C03E
:101300001092B0050E9472046B017C018091B105BE
:101310008093BB008091D8059091D905A091DA0502
:10132000B091DB05892B8A2B8B2BA1F00E947204D4
:101330000091D8051091D9052091DA053091DB058F
:101340006C197D098E099F090617170728073907A9
:1013500008F442C08091BC0083FDD8CF85EC809317
:10136000BC000E9472046B017C018091D605823022
:1013700009F44CC08091D4058F3F09F469C0809175
:10138000D405803209F466C08091D405803309F415
:1013900063C084E026C08091D8059091D905A091C2
:1013A000DA05B091DB05892B8A2B8B2B09F483CFCF
:1013B0000E9472040091D8051091D9052091DA0598
:1013C0003091DB056C197D098E099F0906171707F7
:1013D0002807390708F06FCF8091D7050E942609AA
:1013E00085E01092DD051092FF051092DC05DF917B
:1013F000CF911F910F91FF90EF90DF90CF900895C4
:101400009D9191938F5F6DCF85EEA9CF8091D80587
:101410009091D905A091DA05B091DB05892B8A2B33
:101420008B2B09F4A2CF0E9472040091D805109171
:10143000D9052091DA053091DB056C197D098E09FB
:101440009F09061717072807390708F08ECFC4CF62
:1014500080E0C7CF82E0C5CF83E0C3CFCF92DF92D9
:10146000EF92FF920F931F93CF93DF93D82FC62F46
:10147000613208F098C00E9472046B017C01809177
:10148000D60581116BC081E08093D6058093D50588
:101490009FEF9093D4051092D3059C0F9093D205A3
:1014A0008093B1058091B105DD0FD82BD093B105A4
:1014B0008091B005813009F078C01092B0050E948B
:1014C00072046B017C018091B1058093BB00809117
:1014D000D8059091D905A091DA05B091DB05892B4B
:1014E0008A2B8B2BA1F00E9472040091D8051091D9
:1014F000D9052091DA053091DB056C197D098E093B
:101500009F09061717072807390708F448C0809174
:10151000BC0083FDD8CF85EC8093BC000E94720490
:101520006B017C018091D605813009F440C0809127
:10153000D3058C1710F4C091D305E2EBF5E0A0E9D8
:10154000B5E080E08C1355C08C2FDF91CF911F91B7
:101550000F91FF90EF90DF90CF9008958091D80584
:101560009091D905A091DA05B091DB05892B8A2BE2
:101570008B2B09F484CF0E9472040091D80510913E
:10158000D9052091DA053091DB056C197D098E09AA
:101590009F09061717072807390708F070CF8091B1
:1015A000D7050E942609C0E0CFCF85EEB5CF809148
:1015B000D8059091D905A091DA05B091DB05892B6A
:1015C0008A2B8B2B09F4AECF0E9472040091D805B0
:1015D0001091D9052091DA053091DB056C197D0950
:1015E0008E099F09061717072807390708F09ACFB1
:1015F000D6CF91919D938F5FA5CF0895E091780507
:1016000080917705E81730F4F0E0E057FA4F8081D9
:1016100090E008958FEF9FEF089590917805809165
:1016200077052FEF3FEF981748F4E92FF0E0E057E8
:10163000FA4F208130E09F5F90937805C9010895AB
:101640008091770590917805891B990B0895CF9229
:10165000DF92EF92FF920F931F93CF93DF937C0162
:10166000CB018A012091DC05222389F0EB016B017B
:10167000C40ED51ECC15DD0569F06991D701ED9139
:10168000FC910190F081E02DC7010995F3CF642F03
:101690000E94E108C801DF91CF911F910F91FF9047
:1016A000EF90DF90CF900895CF93DF931F92CDB747
:1016B000DEB769832091DC052223F9F02091FF0534
:1016C000203258F021E030E0FC013383228390E0A7
:1016D00080E00F90DF91CF9108958091DD05E82F94
:1016E000F0E0E252FA4F998190838F5F8093DD059D
:1016F0008093FF0581E090E0ECCF61E0CE010196A0
:101700000E94E108F7CF90E080E00895CF92DF9249
:10171000EF92FF920F931F93CF93DF939091FE046C
:1017200091110BC08FEF9FEFDF91CF911F910F9120
:10173000FF90EF90DF90CF9008959091FD04992352
:1017400089F3082FC091FC04D0E08091F40481114A
:101750000DC00E94C9046093F0047093F10480935B
:10176000F2049093F30481E08093F4040E94C9048E
:10177000C090F004D090F104E090F204F090F304F3
:101780006C197D098E099F096D32714081059105A3
:10179000B0F01091EF040E94C9046093F0047093BC
:1017A000F1048093F2049093F30491E091279093D5
:1017B000EF04992331F11092EE041092ED04209180
:1017C000ED043091EE04209530958091EC042823AF
:1017D00026FF1CC081E08093EB0427FF1AC081E044
:1017E0008093EA048091EF04882309F49BCF02C020
:1017F000D595C7950A95E2F7C0FF94CF80E09CE3AA
:1018000093CFD093EE04C093ED04D9CF1092EB04A4
:10181000E4CF1092EA04E6CFEF92FF920F931F936A
:10182000CF93DF93182F8091C40481110DC00E94C3
:10183000C9046093C0047093C1048093C204909360
:10184000C30481E08093C404C091BE04D091BF045E
:10185000C930D10508F075C0FE01EF5CF34F0C9460
:1018600094313A0C460C4A0C580C3A0C460C7D0C40
:101870007F0C900C0E945A012196CA30D10509F0C4
:1018800091C01092BF041092BE0428C08CEC0E943C
:101890003001F2CF84E40E9430010E94C9046093B9
:1018A000C0047093C1048093C2049093C304E4CF36
:1018B0000E94C9040091C0041091C1042091C20487
:1018C0003091C304601B710B820B930BC4E0D0E01A
:1018D0006E3E72408105910508F064C06091BA04C3
:1018E0007091BB048091BC049091BD04DF91CF91B5
:1018F0001F910F91FF90EF9008958EEBC8CF98E065
:10190000E92EF12C10E001E00E94DB008111102B88
:10191000000F81E0E81AF108B9F71093B804ACCFD2
:1019200088E0E82EF12C10E001E00E94DB0081113C
:10193000102B000F21E0E21AF108B9F71093B90457
:101940009BCFC930D10509F097CF6091B804709151
:10195000B9046F3F760711F470E060E0072E000CC9
:10196000880B990B0E94072F20E030E040E85DE3F0
:101970000E94662F111109C06093BA047093BB04D2
:101980008093BC049093BD0477CF26E636E646EEFE
:101990005FE30E94662F20E030E040E052E40E94C6
:1019A0008C30EACFD093BF04C093BE0497CF0F937F
:1019B0001F938091570190915801892B09F449C0D8
:1019C0008091A3048823A9F00E94C90400919F0478
:1019D0001091A0042091A1043091A204601B710B0E
:1019E000820B930B693E73408105910590F1109233
:1019F000A3040E946A08209151013091520182177C
:101A0000930739F50E9462082091530130915401E7
:101A100082179307F1F40E945A08209155013091E2
:101A2000560182179307A9F40E94C90460939F048A
:101A30007093A0048093A1049093A20481E080930A
:101A4000A30480910C0190910D01909376058093F1
:101A500075051F910F910895CF93DF93EC012196A7
:101A6000FC0120812A33C9F42181243609F522960C
:101A700030E020E06AE0899190ED980F9A3078F498
:101A8000629FA001639F500D1124082E000C990B3A
:101A9000C0979A01280F391FEECFCE01DFCF3093C8
:101AA0009704209396042115310511F020930B0122
:101AB00088818F3689F48A81082E000C990B9C014D
:101AC000205331093093970420939604C3970597C8
:101AD00010F420930A01249688818236F1F422962C
:101AE00030E020E06AE0899190ED980F9A3068F438
:101AF000629FA001639F500D1124082E000C990BCA
:101B0000C0979A01280F391FEECF30939704209386
:101B10009604309309012093080120910801309127
:101B20000901032E000C440B550B60E67AEE80E0B1
:101B300090E00E94753182E0220F331F441F551F31
:101B40008A95D1F7209392043093930440939404A0
:101B500050939504CE01DF91CF9108958EBD000082
:101B60000DB407FEFDCF8EB50895CF9381E080932D
:101B7000DC0588E68093FE051092DD051092FF05D6
:101B800060E08BEA96E00E94540B0E94470967E0F0
:101B900088E60E942E0A10927805809377058BEADA
:101BA00096E00E940D0B982F92959F70CAE08F705F
:101BB0009C9F800D112490E090938505809384056F
:101BC0008BEA96E00E940D0B982F92959F708F7074
:101BD0009C9F800D112490E090937C0580937B0561
:101BE0008BEA96E00E940D0B982F929593708F7060
:101BF0009C9F800D112490E090937A058093790545
:101C00008BEA96E00E940D0B8BEA96E00E940D0B8A
:101C1000982F92959F708F709C9F800D112490E05B
:101C200090937E0580937D058BEA96E00E940D0BD4
:101C3000982F92959F708F709C9F800D112490E03B
:101C40009093800580937F058BEA96E00E940D0BB0
:101C5000982F92959F708F709C9F800D112490E01B
:101C60008053984F9093820580938105CF9108957A
:101C70008F929F92AF92BF920F931F93CF93DF9358
:101C8000CDB7DEB7A1970FB6F894DEBF0FBECDBFBC
:101C900019A2423008F44AE08E010F5D1F4F842ED6
:101CA000912CB12CA12CA50194010E945331E62F57
:101CB000B901CA01EA3044F5E05DD801EE938D0127
:101CC000232B242B252B79F790E080E0109769F0E7
:101CD000FD0101900020E9F73197AF014A1B5B0B32
:101CE000BD018EE096E00E94D804A1960FB6F8944C
:101CF000DEBF0FBECDBFDF91CF911F910F91BF907F
:101D0000AF909F908F900895E95CD7CF42E050E06C
:101D10006FE073E08EE096E00C94D804CF93DF93ED
:101D20000E94C505EC010E94860E8C0F9D1FDF915D
:101D3000CF910895FC0180819181009711F00C945E
:101D40008F2E60E070E0CB0108954F925F926F920A
:101D50007F928F929F92AF92BF92CF92DF92EF923B
:101D6000FF92CF93DF93CDB7DEB72D970FB6F894E0
:101D7000DEBF0FBECDBF0E947204C090E604D090BB
:101D8000E704E090E804F090E9046C197D098E09FD
:101D90009F096A3171448105910508F457C20E9478
:101DA00072046093E6047093E7048093E8049093D0
:101DB000E90482E097E00E949A0E69837A838B831C
:101DC0009C8360E08AE00E94E501FAE0CF2ED12CEE
:101DD000E12CF12C69817A818B819C81A70196018C
:101DE0000E94753149015A01660F771F65537D4F77
:101DF000DB014D905C9087E090E00E94860B3C01F7
:101E0000C501B401A70196010E947531660F771FC5
:101E100065537D4FFB018080918087E090E00E94B8
:101E2000860B5C0169817A818B819C8124E630E09C
:101E300040E050E00E947531CA01B901A701960146
:101E40000E947531660F771F65537D4FDB01ED9062
:101E5000FC9086E090E00E94860B46205720712C73
:101E6000612C24E1440C551C661C771C2A95D1F783
:101E70008E219F21B0E0A0E073016201C82AD92A17
:101E8000EA2AFB2A8A209B20B12CA12C3AE0880C5C
:101E9000991CAA1CBB1C3A95D1F7C828D928EA2856
:101EA000FB2869817A818B819C8128EE33E040E0B8
:101EB00050E00E94753129013A018091EB0488239A
:101EC00009F491C16894F6F88091EA04882309F432
:101ED0008DC16894F7F8B0916B05BD878F2D992758
:101EE000AA27BB278D839E83AF83B8874701AA2487
:101EF000BB24BB27AF2D9E2D8D2D89879A87AB875D
:101F0000BC879D85992309F474C18C2D0E94AE0D68
:101F100089850E94AE0D882D0E94AE0D8D810E9494
:101F2000AE0D8AE0882E912CA12CB12CC301B201F8
:101F3000A50194010E947531660F771F65537D4F8F
:101F4000DB01CD90DC9085E090E00E94860B7C0167
:101F500069817A818B819C8120E137E240E050E009
:101F60000E947531CA01B901A50194010E94753121
:101F7000660F771F65537D4FFB016080718084E0A1
:101F800090E00E94860BCE20DF20F12CE12C34E182
:101F9000CC0CDD1CEE1CFF1C3A95D1F78621972155
:101FA000B0E0A0E04AE0880F991FAA1FBB1F4A9526
:101FB000D1F7C82AD92AEA2AFB2A69817A818B813A
:101FC0009C8120EA36E841E050E00E947531CA0168
:101FD000B901A50194010E947531660F771F655301
:101FE0007D4FDB01AD90BC9083E090E00E94860BBA
:101FF0008A219B21B0E0A0E0C82AD92AEA2AFB2A3C
:1020000069817A818B819C8120E432E44FE050E049
:102010000E94753129013A018091EB04882309F46B
:10202000F3C06894F6F88091EA04882309F4EFC0BD
:102030006894F7F88F2D9927AA27BB278D839E8355
:10204000AF83B8874701AA24BB24BB27AF2D9E2DA1
:102050008D2D89879A87AB87BC879D85992309F445
:10206000D9C08C2D0E94AE0D89850E94AE0D882DA1
:102070000E94AE0D8D810E94AE0D3AE0832E912C10
:10208000A12CB12CC301B201A50194010E947531AC
:10209000660F771F65537D4FDB01CD90DC9082E0AA
:1020A00090E00E94860B7C0169817A818B819C8102
:1020B00020E836E948E950E00E947531CA01B901CB
:1020C000A50194010E947531660F771F65537D4FFE
:1020D000FB016080718081E090E00E94860BCE2041
:1020E000DF20F12CE12C64E1CC0CDD1CEE1CFF1C8C
:1020F0006A95D1F786219721B0E0A0E07AE0880FB9
:10210000991FAA1FBB1F7A95D1F7C82AD92AEA2A94
:10211000FB2A69817A818B819C8120E031EE45EF39
:1021200055E00E947531CA01B901A50194010E94D0
:102130007531660F771F65537D4FDB01AD90BC9005
:1021400090E080E00E94860B8A219B21B0E0A0E015
:102150008C299D29AE29BF292091EB046C017D01BA
:10216000222309F462C06894F6F88091EA04882377
:1021700009F45EC06894F7F84F2C55246624772440
:102180004701AA24BB24BB27AF2D9E2D8D2D89830B
:102190009A83AB83BC839D85992309F44CC08C2D15
:1021A0000E94AE0D89810E94AE0D882D0E94AE0D59
:1021B000842D0E94AE0D61E08AE02D960FB6F89452
:1021C000DEBF0FBECDBFDF91CF91FF90EF90DF90CC
:1021D000CF90BF90AF909F908F907F906F905F90C7
:1021E0004F900C94E501E894F6F86ECEE894F7F879
:1021F00072CE8D810E94AE0D882D0E94AE0D898514
:102200000E94AE0D8C2D8BCEE894F6F80CCFE8949E
:10221000F7F810CF8D810E94AE0D882D0E94AE0D73
:1022200089850E94AE0D8C2D26CFE894F6F89DCFBF
:10223000E894F7F8A1CF842D0E94AE0D882D0E945E
:10224000AE0D89810E94AE0D8C2DB3CF2D960FB6A9
:10225000F894DEBF0FBECDBFDF91CF91FF90EF901E
:10226000DF90CF90BF90AF909F908F907F906F90B6
:102270005F904F9008950F931F93CF93DF938C013E
:10228000EB01FC01808191810097E1F06881798107
:1022900061157105A9F0428153812C813D8142175E
:1022A000530770F00E94A1338C819D81F8019583C2
:1022B00084831D821C82DF91CF911F910F9108951D
:1022C0000E94523288819981F801918380838A81AA
:1022D0009B81938382838C819D81958384831982E2
:1022E00018821B821A82E5CFCF93DF93EC0188819D
:1022F0009981009711F00E945232198218821D8232
:102300001C821B821A82DF91CF910895FC0180818B
:102310009181009711F00C94523208950F931F93FE
:10232000CF93DF93EC0188819981009759F02A813E
:102330003B812617370730F081E0DF91CF911F9165
:102340000F9108958B016F5F7F4F0E94DB320097E2
:1023500059F0998388831B830A832C813D81232B29
:1023600059F7FC011082E8CF80E0E7CFEF92FF92AF
:102370000F931F93CF93DF936115710541F480E0B4
:10238000DF91CF911F910F91FF90EF90089541152C
:102390005105B1F07B01EC010C811D81040F151F6B
:1023A000B8010E948E11882351F3288139818C81D4
:1023B0009D81B701820F931F0E94A1331D830C835F
:1023C00081E0DECF0F931F93CF93DF9300D0CDB783
:1023D000DEB78C0169831A8241E050E0BE016F5F75
:1023E0007F4F0E94B611811103C0C8010E94741171
:1023F000C8010F900F90DF91CF911F910F91089519
:10240000CF93DF93EC01FB0101900020E9F73197B6
:10241000AF01461B570B0E94B611811103C0CE01BC
:102420000E947411CE01DF91CF910895CF93DF9375
:10243000EC01FB0144815581608171810E94B611DC
:10244000811103C0CE010E947411CE01DF91CF91A2
:102450000895EF92FF920F931F93CF93DF93EC01B8
:102460007B018A01BA010E948E1181110BC0CE013D
:102470000E947411CE01DF91CF911F910F91FF90B7
:10248000EF9008951D830C83B701888199810E9484
:10249000A133F0CFFB0101900020E9F73197AF01A4
:1024A000461B570B0C9429120F931F93CF93DF9366
:1024B000CDB7DEB762970FB6F894DEBF0FBECDBFC3
:1024C0008C01CB01F80111821082138212821582D5
:1024D00014824AE0BE016F5F7F4F0E94B62EBE019C
:1024E0006F5F7F4FC8010E944A1262960FB6F89440
:1024F000DEBF0FBECDBFDF91CF911F910F91089529
:10250000CF93DF93EC01FB018617970749F06081B9
:1025100071816115710541F0448155810E94291234
:10252000CE01DF91CF9108950E947411F9CFFC0183
:102530001182108213821282158214820C948012EE
:10254000FC01118210821382128215821482FB0117
:1025500001900020E9F73197AF01461B570B0C940F
:102560002912AF92BF92CF92DF92EF92FF920F9318
:102570001F93CF93DF936C015B017A0189012417CC
:10258000350720F48F2D7901042F182F61E173E0B6
:10259000C6010E94A012D5011496CD91DC91EC16D3
:1025A000FD06E0F40C171D0708F4E801D501ED91D4
:1025B000FC911197EC0FFD1F108110826D917C91A1
:1025C0006E0D7F1DC60161157105A1F00E944A12B2
:1025D000F50180819181C80FD91F1883C601DF9151
:1025E000CF911F910F91FF90EF90DF90CF90BF9010
:1025F000AF9008950E947411EBCF4F925F926F924B
:102600007F928F929F92AF92BF92CF92DF92EF9282
:10261000FF920F931F93CF93DF9300D000D000D091
:10262000CDB7DEB77C014B015A018091B70481110F
:102630003AC081E08093B7049EEA692E94E0792E37
:1026400025EA422E24E0522E10E000E00F5F1F4FDB
:10265000680181E0C81AD1089801A601B401CE0131
:1026600001960E94B112CE0101960E949A0ED301EA
:102670006D933D01CE0101960E9486119801A6013D
:10268000B501CE0101960E94B112CE0101960E94C1
:102690009A0EF20161932F01CE0101960E948611DC
:1026A0000930110599F69091A4048EEAC82E84E0B1
:1026B000D82EE5EAF4E08601A801D8018C919A3081
:1026C00008F04DC08F5F8C930F5F1F4FDA018C9124
:1026D0008A3019F4D80111971C923196B4E0073B67
:1026E0001B0751F79F5F943109F43FC09093A404F6
:1026F00061E173E0C7010E94A012FE0131965F0103
:10270000D6018D916D014AE0B50190E00E94B62E90
:10271000F50101900020E9F73197AF014A195B09F3
:10272000B501C7010E94B6110C151D0549F7C70177
:1027300026960FB6F894DEBF0FBECDBFDF91CF91C6
:102740001F910F91FF90EF90DF90CF90BF90AF90CF
:102750009F908F907F906F905F904F900895208111
:10276000281709F4B1CF8F5FAECF1092A404109256
:10277000B704BECFCF92DF92EF92FF921F93CF9319
:10278000DF93CDB7DEB72C970FB6F894DEBF0FBE40
:10279000CDBF182F69E473E0CE0107960E94A01206
:1027A00022E030E050E040E0133081F024E030E0FF
:1027B00042E050E01C3051F026E030E0103321F0D0
:1027C000103FA9F428E030E044E050E062E077E018
:1027D000CE0101960E94B112BE016F5F7F4FCE0104
:1027E00007960E943B11CE0101960E948611CE01F0
:1027F00007960E949A0E6B01CE0107960E948611E1
:10280000C6012C960FB6F894DEBF0FBECDBFDF9188
:10281000CF911F91FF90EF90DF90CF900895EF92AE
:10282000FF920F931F93CF93DF93CDB7DEB76297DD
:102830000FB6F894DEBF0FBECDBF7C018B0177FFD2
:1028400003C0119501951109B801C7010E945412E6
:10285000083E83E018070CF082C0B801CE010D9647
:102860000E9454126FE373E0CE0101960E94A01201
:10287000BE016F5F7F4FCE0107960E949712BE0187
:10288000635F7F4FCE0107960E941612BC01C701FD
:102890000E948012CE0107960E948611CE010196F9
:1028A0000E948611CE010D960E94861104361105F4
:1028B0000CF055C0B801CE010D960E9454126EE383
:1028C00073E0CE0101960E94A012BE016F5F7F4FA0
:1028D000CE0107960E949712BE01635F7F4FCE0123
:1028E00007960E941612BC01C7010E948012CE01F9
:1028F00007960E948611CE0101960E948611CE0194
:102900000D960E9486110A3011054CF5B801CE01D2
:102910000D960E9454126DE373E0CE0101960E9461
:10292000A012BE016F5F7F4FCE0107960E949712E3
:10293000BE01635F7F4FCE0107960E941612BC0155
:10294000C7010E948012CE0107960E948611CE0117
:1029500001960E948611CE010D960E948611C70134
:1029600062960FB6F894DEBF0FBECDBFDF91CF9158
:102970001F910F91FF90EF9008950F931F93CF93A6
:10298000DF93CDB7DEB762970FB6F894DEBF0FBE08
:10299000CDBF8C0177FF03C07195619571096A30D5
:1029A0007105A4F5CE010D960E9454126FE373E0F9
:1029B000CE0101960E94A012BE016F5F7F4FCE0133
:1029C00007960E949712BE01635F7F4FCE01079664
:1029D0000E941612BC01C8010E949712CE010796F0
:1029E0000E948611CE0101960E948611CE010D969D
:1029F0000E948611C80162960FB6F894DEBF0FBE22
:102A0000CDBFDF91CF911F910F910895C8010E9412
:102A10005412F0CF0F931F93CF93DF93CDB7DEB750
:102A200068970FB6F894DEBF0FBECDBF8B01833021
:102A3000D9F5209106073091070742E050E062E0A7
:102A400077E0CE010D960E94B112B801CE01019639
:102A50000E94BD14BE016F5F7F4FCE0107960E949A
:102A60009712BE01635F7F4FCE0107960E94161238
:102A7000BC0182E097E00E948012CE0107960E947E
:102A80008611CE0101960E948611CE010D960E94FC
:102A9000861168960FB6F894DEBF0FBECDBFDF91EA
:102AA000CF911F910F9108958C3009F042C0209171
:102AB00006073091070744E050E062E077E0CE017E
:102AC00043960E94B112B801CE010D960E94BD142A
:102AD00022E030E050E040E062E077E0CE01019695
:102AE0000E94B112BE016F5F7F4FCE0107960E9418
:102AF0009712BE01635F7F4FCE0107960E941612A8
:102B0000BE016D5E7F4F0E941612BC0182E097E00D
:102B10000E948012CE0107960E948611CE01019676
:102B20000E948611CE010D960E948611CE01439619
:102B3000AECF209106073091070746E050E0803382
:102B400049F0803F09F0A5CF209106073091070793
:102B500048E050E062E077E0CE0143960E94B11277
:102B6000B801CE010D960E94BD1424E030E0B2CF32
:102B70000E94C90460939B0470939C0480939D04FD
:102B800090939E0480919A04882309F44FC0209169
:102B9000980430919904C901880F991F213131059A
:102BA000A1F1FC01E95CFE4F408151814150510986
:102BB00051834083DC01A95CBE4F6D917C911197DC
:102BC000FC01E15AFE4F40815181641775073CF4C6
:102BD000FC01E957FE4F408151814D935C932031B8
:102BE000310509F520915701309158012130310507
:102BF000B9F420E82093EC04895C9E4FFC016081CD
:102C000071818091FC040C940A15409159015091F6
:102C10005A014C50510950935A0140935901CACF5F
:102C20001092EC04E9CF2930310531F708950E9464
:102C3000C90460939B0470939C0480939D049093BB
:102C40009E0480919A04882309F444C0209198043A
:102C500030919904C901880F991F2131310561F123
:102C6000FC01E95CFE4F408151814F5F5F4F518312
:102C70004083DC01A95CBE4F6D917C911197FC01F2
:102C8000E957FE4F40815181461757073CF4FC013C
:102C9000E15AFE4F408151814D935C9320313105C3
:102CA000B1F41092EC04895C9E4FFC01608171814B
:102CB0008091FC040C940A154091590150915A01DD
:102CC000445F5F4F50935A0140935901D2CF29304E
:102CD000310549F708950F931F93CF93DF93CDB735
:102CE000DEB768970FB6F894DEBF0FBECDBF8C017C
:102CF0008091590190915A01489709F048C00E946B
:102D00005A08BC01CE0143960E94BD140E9462087D
:102D1000BC01CE010D960E94BD140E946A08BC0140
:102D2000CE0101960E94BD14BE016F5F7F4FCE01A0
:102D300007960E949712BE01635F7F4FCE010796F0
:102D40000E941612BE016D5E7F4F0E941612BC01DA
:102D5000C8010E949712CE0107960E948611CE01EB
:102D600001960E948611CE010D960E948611CE0119
:102D700043960E948611C80168960FB6F894DEBF8C
:102D80000FBECDBFDF91CF911F910F9108950E948B
:102D90005A08BC01CE0143960E94BD140E946208ED
:102DA000BC01CE010D960E94BD140E9401070E9435
:102DB0004707809157056CE070E0882309F4B0CF95
:102DC000682F70E08D3008F4ABCF6C507109A8CF3C
:102DD0008F929F92AF92BF92CF92DF92EF92FF922B
:102DE0000F931F93CF93DF93CDB7DEB72C970FB61A
:102DF000F894DEBF0FBECDBF8C016A017B018091CC
:102E0000DE04811111C00E94C904645B7B4F8F4FA7
:102E10009F4F6093DA047093DB048093DC049093FB
:102E2000DD0481E08093DE048091D204811109C029
:102E30006AE373E08CEC94E00E94A01281E080933E
:102E4000D2040E94C9048090DA049090DB04A09020
:102E5000DC04B090DD04681979098A099B09693E90
:102E600073408105910508F4FDC00E94C904609378
:102E7000DA047093DB048093DC049093DD0420E09B
:102E800030E040E251E4C701B6010E94662F6B01B9
:102E90007C0120E030E0A9010E942E3120E030E0EA
:102EA00040E05FE387FDF7C0C701B6010E948C30A8
:102EB0000E94F8307B0177FF04C0EE24FF24E61A5D
:102EC000F70A5B0139E1A31A3CEFB30A80915B0179
:102ED00090915C019B012D593F4F69012A553109A1
:102EE0004901B701892B09F0DBC0CE0107960E948A
:102EF00054126FE373E0CE0101960E94A012BE014E
:102F0000695F7F4FCE0101960E9416126FE373E056
:102F10000E940012BC018CEC94E00E948012CE0151
:102F200001960E948611CE0107960E9486113FEC01
:102F3000A31637E0B30618F5B701CE0107960E9435
:102F400054126EE373E0CE0101960E94A012BE01FE
:102F5000695F7F4FCE0101960E9416126FE373E006
:102F60000E940012BC018CEC94E00E948012CE0101
:102F700001960E948611CE0107960E94861187EC69
:102F8000C816D10418F5B701CE0107960E94541255
:102F90006DE373E0CE0101960E94A012BE01695F4D
:102FA0007F4FCE0101960E9416126FE373E00E94DC
:102FB0000012BC018CEC94E00E948012CE010196BC
:102FC0000E948611CE0107960E94861123E1821687
:102FD000910418F5B701CE0107960E9454126CE3D4
:102FE00073E0CE0101960E94A012BE01695F7F4F7F
:102FF000CE0101960E9416126FE373E00E94001248
:10300000BC018CEC94E00E948012CE0101960E94DB
:103010008611CE0107960E94861180915B019091E6
:103020005C01892B09F0D3C097E3F92E61E173E0CD
:10303000CE0101960E94A0126CEC74E0CE010196C4
:103040000E9416126EE373E00E9400126F2D0E9420
:10305000E211BC018CEC94E00E948012CE0101963A
:103060000E9486116CEC74E0C8010E949712C8019E
:103070002C960FB6F894DEBF0FBECDBFDF91CF9177
:103080001F910F91FF90EF90DF90CF90BF90AF9086
:103090009F908F900895C701B6010E948B3008CF92
:1030A000CE0107960E9454126FE373E0CE010196A1
:1030B0000E94A012BE01695F7F4FCE0101960E945F
:1030C00016126FE373E00E940012BC018CEC94E0D6
:1030D0000E948012CE0101960E948611CE010796B1
:1030E0000E9486113FECA31637E0B30638F5C701FE
:1030F0006AE070E00E943F31CE0107960E945412B0
:103100006EE373E0CE0101960E94A012BE01695FDA
:103110007F4FCE0101960E9416126EE373E00E946B
:103120000012BC018CEC94E00E948012CE0101964A
:103130000E948611CE0107960E94861187ECC81660
:10314000D10438F5C7016AE070E00E943F31CE013A
:1031500007960E9454126DE373E0CE0101960E941F
:10316000A012BE01695F7F4FCE0101960E94161228
:103170006EE373E00E940012BC018CEC94E00E94AC
:103180008012CE0101960E948611CE0107960E9400
:10319000861123E18216910408F03FCFC7016AE04F
:1031A00070E00E943F31CE0107960E9454126CE3FA
:1031B00073E0CE0101960E94A012BE01695F7F4FAD
:1031C000CE0101960E9416126EE373E017CF82E3E0
:1031D000F82E2CCF85ED8093BC008091D80590917E
:1031E000D905A091DA05B091DB050796A11DB11DA7
:1031F00023E0B695A795979587952A95D1F72091C5
:10320000BC0024FD03C01092D60508954091D80556
:103210005091D9056091DA057091DB05452B462B5D
:10322000472B69F30097A105B10541F02AE22A95E1
:10323000F1F700C00197A109B109E1CF8091D7054D
:103240000C9426090C942C300C94243088E090E0E7
:103250000E942419682F70E089E00E94150489E01B
:1032600090E00E942419682F70E086E00E94150407
:103270008AE090E00E942419682F70E083E00C94AB
:1032800015048F929F92AF92BF92CF92DF92EF92EE
:10329000FF920F931F93CF93DF93CDB7DEB7EC97D9
:1032A0000FB6F894DEBF0FBECDBF0E94C90420E167
:1032B00037E240E050E00E945331672B682B692BC6
:1032C00001F5809183058823E1F00E94B50DE0901F
:1032D0008105F090820500917F0510918005209175
:1032E0007D0530917E054091840550918505609162
:1032F0007B0570917C058091790590917A050E94FB
:103300002506109291041092900410928F0410924E
:103310008E0410928D0410928C040091750510910A
:103320007605F8018081882309F409C10E94C90447
:10333000C0901804D0901904E0901A04F0901B0477
:103340006C197D098E099F09C0901404D090150452
:10335000E0901604F0901704C616D706E806F906A2
:1033600008F0EDC00E94C9044B015C018092180472
:1033700090921904A0921A04B0921B04680130E0E4
:1033800020E04AE0F801F1908F0180ED8F0D8A3046
:1033900070F4429FC001439F900D11242F2DFF0C0C
:1033A000330B20533109280F391F6F01EBCF3093B6
:1033B00097042093960460919204709193048091F5
:1033C0009404909195042115310501F1032E000C10
:1033D000440B550B0E94753120931404309315044F
:1033E0004093160450931704EFE9EF0DE730A0F473
:1033F0000E2E000CFF0BE150F64E0C949431891DFB
:103400008B1D7D1D811D831D851D871D20910B0139
:1034100030E050E040E0DECF10921304F6018181ED
:10342000833241F4809113048F5F809313048601EB
:103430000E5F1F4FF80180818E32F1F4C0901404AA
:10344000D0901504E0901604F0901704C701B6015F
:1034500022E030E040E050E00E947531C20ED31E01
:10346000E41EF51EC0921404D0921504E0921604D6
:10347000F09217040F5F1F4FF801808180538A304C
:1034800008F04BC3809312040F5F1F4FF801808137
:103490008C3211F40F5F1F4FE0911304EE2309F4F7
:1034A0004EC0C0901404D0901504E0901604F09023
:1034B0001704809112048450990B4CE0489F9001AE
:1034C000499F300D1124E20FF32FF11DEE0FFF1F66
:1034D000E353FE4FB701A601808191810E944F0204
:1034E0000E94C904681979098A099B09C616D7067A
:1034F000E806F90620F50E94C90460931804709349
:10350000190480931A0490931B0480910D06813056
:1035100009F408C3823009F40BC3811105C08091FE
:103520006E008D7F80936E0060E080910C060E949B
:10353000E50188E690E00E948E0E10E000E0109316
:103540007605009375050E94C904009188041091C6
:10355000890420918A0430918B04601B710B820BCB
:10356000930B6630710581059105E8F080910E019D
:103570008111E4C270E060E089E00E94150470E00F
:1035800060E086E00E94150470E060E083E00E9445
:1035900015040E94C9046093880470938904809381
:1035A0008A0490938B048091980490919904892BBC
:1035B00021F0809187048111DBC180919A048111EF
:1035C000D7C18091320481110DC00E94C90460935B
:1035D0002E0470932F04809330049093310481E083
:1035E000809332048091260481110DC00E94C90489
:1035F0006093220470932304809324049093250401
:1036000081E0809326040E94C90400912E04109149
:103610002F042091300430913104601B710B820B18
:10362000930B009100011091010120910201309152
:103630000301061717072807390708F04DC00E9435
:10364000C90460932E0470932F04809330049093E8
:1036500031048091200490912104009709F0DAC28E
:1036600081E090E0909399048093980488E893E136
:10367000A0E0B0E08093000190930101A0930201CB
:10368000B093030180912004909121048230910530
:1036900081F4109299041092980440E65AEE60E08A
:1036A00070E0409300015093010160930201709318
:1036B00003010196833091050CF0CCC29093210454
:1036C0008093200480918704882321F0109299042C
:1036D00010929804109287040E94C90400912E044D
:1036E00010912F042091300430913104601B710B34
:1036F000820B930B603D77408105910508F07CC3F8
:103700000E94C904009122041091230420912404F2
:1037100030912504601B710B820B930B653671058C
:103720008105910508F424C10E94C9046093220414
:10373000709323048093240490932504809198042B
:103740009091990420916C05222309F488C2892B59
:1037500089F5CE0149960E946B1681E020915B01AC
:1037600030915C01232B09F480E00E940C0CAB012A
:10377000BC01CE0101960E94E816AE01475E5F4F84
:10378000BE016F5F7F4FCE014F960E94FD12BE01BA
:10379000615E7F4F82E097E00E943B11CE014F9621
:1037A0000E948611CE0101960E948611CE01499693
:1037B0000E9486118091980490919904019709F0D4
:1037C00062C00E94400868EE73E00E943F31BC0175
:1037D000CE018B960E94BD140E944A08BC01CE0106
:1037E00085960E94BD140E945208BC01CE014996E4
:1037F0000E94BD14BE01675E7F4FCE014F960E94AE
:103800009712BE016B5D7F4FCE014F960E9416123C
:10381000BE01655D7F4F0E941612BC01CE01C196AC
:103820000E949712CE0101960E946B16AE014F5C6A
:103830005F4FBE016F5F7F4FCE01C7960E94FD12A2
:10384000BE01695C7F4F82E097E00E943B11CE0190
:10385000C7960E948611CE0101960E948611CE0164
:10386000C1960E948611CE014F960E948611CE010C
:1038700049960E948611CE0185960E948611CE013E
:103880008B960E94861180919804909199040497D8
:1038900009F06EC081E020915B0130915C01232B27
:1038A00009F480E00E940C0CAB01BC01CE01C19672
:1038B0000E94E8160E94400868EE73E00E943F31C3
:1038C000BC01CE0185960E94BD140E944A08BC012D
:1038D000CE014F960E94BD140E945208BC01CE0139
:1038E00001960E94BD14BE016F5F7F4FCE014996C5
:1038F0000E949712BE01615E7F4FCE0149960E94E1
:103900001612BE016B5D7F4F0E941612BC01CE01E4
:103910008B960E949712AE014F5C5F4FBE01655DB2
:103920007F4FCE01C7960E94FD12BE01695C7F4F9A
:1039300082E097E00E943B11CE01C7960E9486115B
:10394000CE018B960E948611CE0149960E94861167
:10395000CE0101960E948611CE014F960E948611DB
:10396000CE0185960E948611CE01C1960E948611D5
:103970000E94A50E89EE96E00E94720880ED96E006
:103980000E94720887EB96E00E94720880919A0468
:10399000811135C21092FC048091E9069091EA06EB
:1039A000181619063CF080919004909191040197AB
:1039B00009F068C381E08093870410927605109225
:1039C000750544E650E060E070E088EE93E00E9408
:1039D0004F020E94C90460939B0470939C048093DF
:1039E0009D0490939E04809198049091990401966F
:1039F0008530910509F430C290939904809398041E
:103A00008091980490919904069721F4109299045A
:103A10001092980420919804309199048901000F24
:103A2000111FF801E15FFE4F80818093FC04D901F2
:103A30001197FD01EE0FFF1FE558FD4F6081718169
:103A40006115710509F40FC3AB0141505109FA0129
:103A5000EE0FFF1FED5AFD4F0190F081E02DAE17E4
:103A6000BF0709F000C36230710509F0F8C188E1B1
:103A7000E5EBF1E0DE01119601900D928A95E1F7F8
:103A800080914F019091500183709927892B21F4E7
:103A90008DE190E09C838B8380914D0190914E014C
:103AA0000197880F991FE1E0F0E0EC0FFD1F8E0FEA
:103AB0009F1F20914B0130914C01FC01808191812D
:103AC000821793070CF0CBC18AE090E090939904A1
:103AD00080939804EC960FB6F894DEBF0FBECDBF6E
:103AE000DF91CF911F910F91FF90EF90DF90CF90DA
:103AF000BF90AF909F908F90089581E080931304C2
:103B00008DCC83E0FBCF85E0F9CF86E0F7CF88E06E
:103B1000F5CF8AE0F3CF8CE0F1CF80910A0180935A
:103B20001204B4CC80916F008D7F80936F00FCCC29
:103B3000809170008D7F80937000F6CC8091860517
:103B4000811127CD00911E0410911F04F801EE0F82
:103B5000FF1FE00FF11FDF01AA0FBB1FA15DBD4FCB
:103B60008D919C916091060170910701680F791FFA
:103B70007093070160930601DF01AA0FBB1FAF5CC2
:103B8000BD4FCD90DC9080917D0490917E04C80E55
:103B9000D91ED0927E04C0927D04EE0FFF1FED5C13
:103BA000FD4FE080F18080917B0490917C04E80ED1
:103BB000F91EF0927C04E0927B0489E00E941504D7
:103BC000B60186E00E941504B70183E00E94150447
:103BD00080911C0490911D04019690931D04809384
:103BE0001C048F3F910551F40F5F1F4F10931F046A
:103BF00000931E0410921D0410921C0480911E0458
:103C000090911F0406970CF4C4CC10921F041092DC
:103C10001E04BFCC019709F035CD84E090E090936D
:103C200099048093980488E893E1A0E0B0E0809341
:103C3000000190930101A0930201B09303018091D0
:103C40006C058111BFC782E090E0909321048093BE
:103C5000200418CD109221041092200433CD892B1A
:103C600009F062C0CE01C1960E946B160E94400806
:103C700068EE73E00E943F31BC01CE0185960E9440
:103C8000BD140E944A08BC01CE014F960E94BD148B
:103C90000E945208BC01CE0101960E94BD14BE01D3
:103CA0006F5F7F4FCE0149960E949712BE01615E01
:103CB0007F4FCE0149960E941612BE016B5D7F4F69
:103CC0000E941612BC01CE018B960E949712AE0183
:103CD0004F5C5F4FBE01655D7F4FCE01C7960E946E
:103CE000FD12BE01695C7F4F82E097E00E943B11AC
:103CF000CE01C7960E948611CE018B960E94861136
:103D0000CE0149960E948611CE0101960E9486112D
:103D1000CE014F960E948611CE0185960E94861193
:103D2000CE01C1960E9486118091980490919904C9
:103D3000019709F01DCE0E94400868EE73E00E94D2
:103D40003F31BC01CE018B960E94BD140E944A08EF
:103D5000BC01CE0185960E94BD140E945208BC0190
:103D6000CE0149960E94BD14BE01675E7F4FCE0111
:103D70004F960E949712BE016B5D7F4FCE014F960A
:103D80000E941612BE01655D7F4F0E941612BC0193
:103D9000CE01C1960E949712CE0101960E946B1629
:103DA000AE014F5C5F4FBE016F5F7F4FCE01C79684
:103DB0000E94FD12BE01695C7F4F82E097E00E9485
:103DC0003B11CE01C7960E948611CE0101960E943A
:103DD0008611CE01C1960E948611CE014F960E9497
:103DE0008611CE0149960E948611CE0185960E94C9
:103DF0008611CE018B96BACD1092B704B9CD0E9430
:103E0000C90400919B0410919C0420919D04309161
:103E10009E04601B710B820B930B61367A4E8105F9
:103E2000910508F4B9CD10929A04E0919804F091AC
:103E30009904EE0FFF1FED55FD4F80819181909306
:103E4000990480939804880F991FFC01E15FFE4F4D
:103E500080818093FC04A0CD86E090E0CDCD1092CF
:103E60009A045093990440939804452BB9F40E9406
:103E700040087C010E944A088C010E94520840912F
:103E800047015091480160914501709146019C01A4
:103E900080914301909144010E94250680919804ED
:103EA000909199040197F9F4E0904F01F09050013E
:103EB00000914D0110914E0180904B0190904C016A
:103EC0000E945A085C010E9462086C010E946A0804
:103ED0009401A501B6010E942506609149018DE07B
:103EE00090E00E9422198091980490919904029781
:103EF000C1F46091510182E090E00E94221960912A
:103F0000530183E090E00E9422196091550184E002
:103F100090E00E9422196091570186E090E00E9493
:103F200022198091980490919904039731F460913B
:103F3000590181E090E00E942219809198049091AB
:103F40009904049731F460915B018BE090E00E944A
:103F500022198091980490919904059749F46091F1
:103F60005D0180918501681B8CE090E00E94221920
:103F70000E94400868EE73E00E943F31082F0E94C3
:103F80004A08F82E0E945208E82E0E945A08B82EBD
:103F90000E946208C82E0E946A08D82E81E0809391
:103FA000DC0588E68093FE051092DD051092FF0582
:103FB00060E08BEA96E00E94540B1AE08B2D612F93
:103FC0000E9433318295807F682F690F8BEA96E0DB
:103FD0000E94540B8C2D612F0E9433318295807F7B
:103FE000682F690F8BEA96E00E94540B8D2D612F8C
:103FF0000E9433318295807F682F690F8BEA96E0AB
:104000000E94540B61E08BEA96E00E94540B8E2DC7
:10401000612F0E9433318295807F682F690F8BEA70
:1040200096E00E94540B8F2D612F0E9433318295B0
:10403000807F682F690F8BEA96E00E94540B802FD7
:10404000612F0E9433318295807F682F690F8BEA40
:1040500096E00E94540B60E08BEA96E00E94540BBD
:104060000E94470937CD2331310561F029503109CC
:104070002230310538F00E94BA13F801E95CFE4F96
:10408000918380838091E9069091EA0697FD07C0AD
:104090008091900490919104019609F0F4C044E657
:1040A00050E060E070E088EE93E00E944F02809163
:1040B0009A04811152C000919804109199040E94B1
:1040C000C90460939B0470939C0480939D04909317
:1040D0009E04012B09F041C00E945A08BC01CE0188
:1040E00085960E94BD140E946208BC01CE014F96C5
:1040F0000E94BD140E946A08BC01CE0101960E9474
:10410000BD14BE016F5F7F4FCE0149960E9497128A
:10411000BE01615E7F4FCE0149960E941612BE011C
:104120006B5D7F4F0E94161266E173E00E940012E1
:10413000BC0182E097E00E948012CE0149960E9465
:104140008611CE0101960E948611CE014F960E94E3
:104150008611CE0185960E948611809198049091D7
:104160009904019709F056C00E94520890934C019F
:1041700080934B010E944A0890934E0180934D0119
:104180000E944008BC019093500180934F018091A0
:10419000490190914A01892B09F099C1CE01859678
:1041A0000E94BD1460914D0170914E01CE014F9659
:1041B0000E94BD1460914B0170914C01CE0101969B
:1041C0000E94BD14BE016F5F7F4FCE0149960E94D1
:1041D0009712BE01615E7F4FCE0149960E94161272
:1041E000BE016B5D7F4F0E941612BC0182E097E01A
:1041F0000E948012CE0149960E948611CE0101963E
:104200000E948611CE014F960E948611CE0185969E
:104210000E948611E0919804F0919904EE0FFF1F1F
:10422000ED55FD4F208131813093990420939804FE
:104230002D30310549F481E090E09093580180934E
:10424000570180E88093EC0480919A0491E08927DB
:1042500080939A048901000F111FF801E15FFE4F5E
:1042600080818093FC04A9014251510942305105DB
:1042700050F02930310539F00E94BA13F801E95C99
:10428000FE4F918380838091D0069091D106009754
:1042900009F02EC180918E0490918F040197E1F472
:1042A00081E080938704109276051092750544E6AC
:1042B00050E060E070E088EE93E00E944F020E94C0
:1042C000171680919A04811107C01092860560E04C
:1042D00087E090E00E9422198091850490918604E5
:1042E000019609F00EC18091D206882309F409C114
:1042F0001092FE0480919A048823F9F00E94C90468
:1043000000918104109182042091830430918404EF
:10431000601B710B820B930B673971058105910549
:1043200060F00E94C90460938104709382048093BA
:104330008304909384040E9417168091B70690918D
:10434000B806009709F0E1C080918C0490918D042B
:10435000019771F511E01093870410927605109281
:10436000750544E650E060E070E088EE93E00E945E
:104370004F020E94B81580919A04811119C01093C0
:10438000860561E087E090E00E94221960910601B5
:1043900088E090E00E94221960917D0489E090E01D
:1043A0000E94221960917B048AE090E00E94221909
:1043B00080917F0490918004019609F0AFC08091B4
:1043C000B906882309F4AAC080919A041092FD04CA
:1043D000882321F10E94C904009177041091780488
:1043E0002091790430917A04601B710B820B930B3E
:1043F000673971058105910508F449C00E94C90417
:1044000060937704709378048093790490937A048E
:104410000E94B81580919A04811139C08091D0060C
:104420009091D10697FD06C080918E0490918F04E3
:10443000019691F444E650E060E070E088EE93E08D
:104440000E944F0281E080930E0161E090E080E0E5
:104450000E9422190E9426198091B7069091B806F1
:1044600097FD06C080918C0490918D04019679F49B
:1044700044E650E060E070E088EE93E00E944F0276
:1044800010920E0160E090E080E00E942219E0911D
:104490009804F0919904E431F10508F01BCBED5A32
:1044A000FD4D0C949431922277236F24BB24E62493
:1044B0002A256A1D6A1D6A1D5B258425842584259D
:1044C0006A1D6A1D6A1D6A1D6A1DE6242A25CE0121
:1044D00085960E94BD1460914B0170914C01CE01F4
:1044E0004F960E94BD1460914D0170914E0166CEB1
:1044F0009093860480938504181619060CF4D0CE88
:10450000C9CE81E08093FE0418CF909380048093FD
:104510007F04181619060CF41DCF16CF81E0809386
:10452000FD0478CF8091B7048111CBC00E945A0856
:1045300020910401309105018217930709F4D0C03E
:104540000E945A08909305018093040100915B0139
:1045500010915C0181E00115110509F480E00E94D1
:104560000C0C6B017C0180914C04811111C00E94E4
:10457000C904645B7B4F8F4F9F4F609348047093D7
:10458000490480934A0490934B0481E080934C0447
:1045900080914004811109C061E173E08AE394E0F5
:1045A0000E94A01281E0809340040E94C904809080
:1045B000480490904904A0904A04B0904B046819B4
:1045C00079098A099B09693E73408105910508F4C0
:1045D00044C00E94C90460934804709349048093C6
:1045E0004A0490934B04012B09F073C017E320E0B9
:1045F00030E0A901C701B6010E942E3120E030E071
:1046000040E05FE387FD67C0C701B6010E948C30C0
:104610000E94F83024E630E040E050E00E9475311E
:10462000CE0149960E94BD14BE01675E7F4FCE0148
:1046300001960E949712612FCE0101960E94E2110D
:10464000BC018AE394E00E948012CE0101960E9490
:104650008611CE0149960E9486116AE374E0CE016C
:1046600001960E949712CE014F960E946B16BE01D2
:10467000615E7F4FCE0149960E949712BE016F5F27
:104680007F4FCE0149960E941612BC01CE0185963D
:104690000E949712CE0149960E948611CE014F9634
:1046A0000E948611CE0101960E948611BE016B5DAB
:1046B0007F4F82E097E00E943B11CE0185960E94D9
:1046C00086110E945A0880FD7CC180EC8093EC0426
:1046D0007AC112E38CCFC701B6010E948B3098CF0C
:1046E00062E077E0CE0185960E949712DFCF80913D
:1046F000B7048111E1C080916F04811111C00E9443
:10470000C90467517C4F8F4F9F4F60936B04709328
:104710006C0480936D0490936E0481E080936F0429
:1047200080916304811144C00E94400868EE73E0E8
:104730000E943F31BC01CE0101960E94BD140E942F
:104740004A08BC01CE0149960E94BD140E9452083D
:10475000BC01CE0185960E94BD14BE016B5D7F4FEA
:10476000CE014F960E949712BE01675E7F4FCE0129
:104770004F960E941612BE016F5F7F4F0E94161265
:10478000BC018DE594E00E94971281E08093630460
:10479000CE014F960E948611CE0185960E94861109
:1047A000CE0149960E948611CE0101960E94861183
:1047B0000091490110914A0180915504811105C071
:1047C0000093540481E0809355040E94C904C09072
:1047D0006B04D0906C04E0906D04F0906E046C1942
:1047E0007D098E099F09693E73408105910530F46A
:1047F000809154048017110609F44DC00E94C90429
:1048000060936B0470936C0480936D0490936E04BA
:10481000012B09F053C00E944008BC01CE01019653
:104820000E94BD140E944A08BC01CE0149960E9414
:10483000BD140E945208BC01CE0185960E94BD1491
:10484000BE016B5D7F4FCE014F960E949712BE0155
:10485000675E7F4FCE014F960E941612BE016F5FBA
:104860007F4F0E94161269E30E94E211BC018DE5A0
:1048700094E00E948012CE014F960E948611CE01D4
:1048800085960E948611CE0149960E948611CE011E
:1048900001960E9486116DE574E0CE0101960E949A
:1048A0009712BE016F5F7F4F82E097E00E943B113D
:1048B000CE0101960E94861180E408CF0E94400834
:1048C000BC01CE0101960E94BD140E945208BC0199
:1048D000CE0149960E94BD140E944A08ACCF609157
:1048E000550170915601CE0185960E94BD146091CC
:1048F000530170915401CE014F960E94BD146091F6
:10490000510170915201CE0101960E94BD14BE0169
:104910006F5F7F4FCE0149960E949712BE01615E84
:104920007F4FCE0149960E941612BE016B5D7F4FEC
:104930000E94161266E173E00E940012BC0182E040
:1049400097E00E948012CE0149960E948611CE0106
:1049500001960E948611CE014F960E948611CE01CB
:1049600085960E9486118091570190915801019778
:1049700041F580E8ABCE6091590170915A01CE01AA
:1049800049960E9454126EE373E0CE0101960E9494
:10499000A012BE01675E7F4FCE0101960E941612E3
:1049A00064E173E00E940012BC0182E097E00E9483
:1049B0008012CE0101960E948611CE0149960E9476
:1049C00086111092EC040E94D70C84C88091B70421
:1049D000811124C081E020915B0130915C01232B87
:1049E00009F480E00E940C0CAB01BC01CE010196E1
:1049F0000E94E816BE016F5F7F4F82E097E00E9441
:104A00003B11CE0101960E94861180915B0190912D
:104A10005C01892BD1F480E48093EC0481E0209147
:104A20005B0130915C01232B09F480E00E940C0CA7
:104A30001091EC0420E030E0A9010E94002F87FFD4
:104A400007C010681093EC0445C81092EC04E6CF40
:104A50001F77F8CF60915D0170915E01CE010196E4
:104A60000E94BD14BE016F5F7F4FCE0149960E9428
:104A7000971262E173E0CE0149960E940012BC01D8
:104A800082E097E00E948012CE0149960E94861132
:104A9000CE0101960E94861180915D0190915E0188
:104AA00097FD04C01092EC040C946A1D80E880937A
:104AB000EC040C946A1D8091490190914A01892B64
:104AC000A1F46AE173E082E097E00E944A1283E079
:104AD00090E090932401809323018CE090E09093E8
:104AE0002601809325010C946A1D64E273E082E044
:104AF00097E00E944A128CE090E09093240180930A
:104B0000230183E090E0EBCF60914F017091500161
:104B10008091490190914A01892B09F042C0CE0150
:104B200085960E940F1460914D0170914E01CE0147
:104B30004F960E94BD1460914B0170914C01CE01C3
:104B400001960E94BD14BE016F5F7F4FCE01499652
:104B50000E949712BE01615E7F4FCE0149960E946E
:104B60001612BE016B5D7F4F0E94161268E173E062
:104B70000E940012BC0182E097E00E948012CE01E8
:104B800049960E948611CE0101960E948611CE019F
:104B90004F960E948611CE0185960E9486110C9434
:104BA0006A1DCE0185960E940F1460914B01709191
:104BB0004C01CE014F960E94BD1460914D01709141
:104BC0004E01BDCF81E090E00C94591B1F920F92D3
:104BD0000FB60F9211242F933F938F939F93AF9310
:104BE000BF938091880590918905A0918A05B09125
:104BF0008B053091870523E0230F2D3758F501965B
:104C0000A11DB11D20938705809388059093890588
:104C1000A0938A05B0938B0580918C0590918D05AA
:104C2000A0918E05B0918F050196A11DB11D8093B5
:104C30008C0590938D05A0938E05B0938F05BF9141
:104C4000AF919F918F913F912F910F900FBE0F9039
:104C50001F90189526E8230F0296A11DB11DD2CFF3
:104C60001F920F920FB60F9211242F933F934F93E1
:104C70005F936F937F938F939F93AF93BF93EF93C4
:104C8000FF938EE096E00E945605FF91EF91BF9151
:104C9000AF919F918F917F916F915F914F913F91D4
:104CA0002F910F900FBE0F901F9018951F920F928B
:104CB0000FB60F9211242F938F939F93EF93FF932F
:104CC000E0911E06F0911F068081E0912406F0918C
:104CD000250682FD1BC09081809127068F5F8F7310
:104CE00020912806821741F0E0912706F0E0E25F6C
:104CF000F94F958F80932706FF91EF919F918F91A8
:104D00002F910F900FBE0F901F9018958081F4CFB8
:104D10001F920F920FB60F9211242F933F938F93F0
:104D20009F93AF93BF93EF93FF9380910006909171
:104D30000106A0910206B09103060097A105B105F6
:104D400031F130916005E0916105F09162052081BB
:104D500023272083181619061A061B061CF4019730
:104D6000A109B1098093000690930106A093020661
:104D7000B0930306FF91EF91BF91AF919F918F91F7
:104D80003F912F910F900FBE0F901F90189520917B
:104D900070002D7F2093700020916005E0916105E7
:104DA000F09162053081209523232083DBCF1F9271
:104DB0000F920FB60F9211248F939F93AF93BF93CF
:104DC000EF93FF938091040690910506A09106064B
:104DD000B0910706892B8A2B8B2BA1F1909163054B
:104DE000E0916405F0916505808189278083809139
:104DF000040690910506A0910606B09107061816C4
:104E000019061A061B069CF480910406909105066B
:104E1000A0910606B09107060197A109B1098093F8
:104E2000040690930506A0930606B0930706FF912B
:104E3000EF91BF91AF919F918F910F900FBE0F9007
:104E40001F90189580916F008D7F80936F008091E7
:104E50006305E0916405F091650590818095892353
:104E60008083E5CF1F920F920FB60F9211248F937C
:104E70009F93AF93BF93EF93FF9380910806909118
:104E80000906A0910A06B0910B06892B8A2B8B2B61
:104E9000A1F190916605E0916705F0916805808128
:104EA000892780838091080690910906A0910A06BF
:104EB000B0910B06181619061A061B069CF4809171
:104EC000080690910906A0910A06B0910B06019779
:104ED000A109B1098093080690930906A0930A06D8
:104EE000B0930B06FF91EF91BF91AF919F918F917E
:104EF0000F900FBE0F901F90189580916E008D7FC0
:104F000080936E0080916605E0916705F0916805D9
:104F10009081809589238083E5CF1F920F920FB6F1
:104F20000F9211242F933F934F935F936F937F932F
:104F30008F939F93AF93BF93EF93FF938091B900AB
:104F4000887F803609F44AC0F0F5883209F4A7C09A
:104F500018F5803109F49BC0B8F4882309F4F9C02E
:104F6000883009F494C0FF91EF91BF91AF919F9168
:104F70008F917F916F915F914F913F912F910F9002
:104F80000FBE0F901F901895883109F488C08032A9
:104F900051F78093D40514C0803409F49DC040F4C7
:104FA0008033B9F38833F9F68093D40585ECB0C02B
:104FB000803509F485C0883509F496C0883499F69F
:104FC0000E94EA18D0CF883909F48CC038F58837A8
:104FD00029F050F4883611F0803729F683E0809369
:104FE000D6051092420557C0883809F47BC0803935
:104FF00019F0803809F0B7CF80914205803208F06F
:1050000071C0E091420581E08E0F8093420580914E
:10501000BB00F0E0EE5DFA4F80833DC0803B39F08D
:10502000E0F4803A09F479C0883A09F09CCF84E032
:105030008093D6051092210510922005E0915E051F
:10504000F0915F0509958091200581110FC081E0E5
:10505000809320051092000509C0803C09F4A6CF7A
:10506000883C09F4A3CF883B09F07DCFE09121056E
:1050700081E08E0F80932105F0E0E050FB4F8081AE
:105080008093BB00909121058091200529C08091DB
:10509000B1058093BB0085EC8093BC0064CF9091F8
:1050A000D3058091D205981758F5E091D30581E09A
:1050B0008E0F8093D305F0E0EE54FA4F8081E9CF54
:1050C000E091D30581E08E0F8093D3058091BB00E2
:1050D000F0E0EE54FA4F80839091D3058091D20591
:1050E0009817C8F285E8D8CFE091D30581E08E0FFC
:1050F0008093D3058091BB00F0E0EE54FA4F80839B
:105100008091D50581115CCF81E08093B00584EA60
:105110008093BC001092D60526CF85EC8093BC000E
:105120001092D60580914205803230F4E09142051C
:10513000F0E0EE5DFA4F10826091420570E0E09180
:105140005C05F0915D0582E295E0099510924205BB
:105150000ACF1092D40534CFCF93DF93EC01862F82
:105160006F87188A91E0998B9A8B1C8A1B8A198207
:1051700018821A821D8A1E8A1F8A188E44E150E006
:1051800060E070E04B835C836D837E834AEF50E088
:1051900060E070E04F83588769877A8748EE53E074
:1051A00060E070E04B875C876D877E8760E00E94DF
:1051B00013028889811106C061E08F85DF91CF914C
:1051C0000C94E501DF91CF910895EEE0F6E01382B3
:1051D000128288EE93E0A0E0B0E084839583A683FA
:1051E000B7832FEE32E03183208325EC30E0358722
:1051F000248724EC30E03787268720EC30E0318BA1
:10520000208B21EC30E0338B228B22EC30E0358B8D
:10521000248B26EC30E0378B268B118E128E138E6A
:10522000148EEBEAF6E01382128284839583A683C0
:10523000B78381E093E0918380836EE273E086E13F
:1052400097E00E94A01260E087E00E941302EAE467
:10525000F1E0E491A8E0B7E0EC93E6E3F1E0E4915B
:10526000F0E0EE0FFF1FEB5DFE4F859194911296DB
:105270009C938E9311971B961C921B971D961C92C4
:105280001D971C961C921C971A961C921A97199699
:105290001C92199718961C92189717961C9217979C
:1052A00016961C92169715961C92159714961C929A
:1052B000149713961C926AE373E082E097E00E94D1
:1052C000A0126EE089EE96E00E94AC2860E180EDCD
:1052D00096E00E94AC286FE087EB96E00C94AC2837
:1052E000CF93DF93CDB7DEB7CE54D1090FB6F89484
:1052F000DEBF0FBECDBF789484B5826084BD84B517
:10530000816084BD85B5826085BD85B5816085BDC0
:1053100080916E00816080936E0010928100809178
:105320008100826080938100809181008160809300
:105330008100809180008160809380008091B10025
:1053400084608093B1008091B00081608093B00050
:1053500080917A00846080937A0080917A008260E4
:1053600080937A0080917A00816080937A008091A6
:105370007A00806880937A001092C10010927805BC
:10538000109277051092DD051092FF050E94080922
:1053900085ED94E090935F0580935E0586ED94E043
:1053A00090935D0580935C05E0911E06F0911F06C9
:1053B00082E08083E0911A06F0911B061082E09152
:1053C0001C06F0911D0680E1808310922606E09174
:1053D0002206F091230686E08083E0912006F0917A
:1053E0002106808180618083E0912006F091210672
:1053F000808188608083E0912006F0912106808181
:1054000080688083E0912006F091210680818F7D65
:10541000808383E398E09093A00180939F0181EEC5
:1054200097E0909378018093770190935001809357
:105430004F0180EF90E0909328018093270181E055
:1054400090E00E9424198C3009F4A2C188E190E018
:1054500090935A018093590190E080E00E942419B2
:10546000882309F498C181E080930E0182E090E0E6
:105470000E9424198F3F09F091C11092520110929D
:10548000510183E090E00E9424198F3F09F08CC104
:10549000109254011092530184E090E00E9424196C
:1054A0008F3F09F087C1109256011092550186E096
:1054B00090E00E9424198F3F09F082C11092580198
:1054C0001092570187E090E00E9424198F3F09F065
:1054D0007DC1109286058BE090E00E9424198F3FD9
:1054E00009F07BC110925C0110925B018CE090E0AE
:1054F0000E9424198F3F59F0209185013091860137
:10550000820F932F911D90935E0180935D018DE03A
:1055100090E00E9424198F3F29F090E090934A0177
:105520008093490161E089E00E94130261E086E016
:105530000E94130261E083E00E94130280916905DA
:10554000833008F0BFC192E090930C06E82FF0E0A2
:10555000E158FF4FE491E0930D068F5F809369055A
:10556000E13009F461C108F43EC1E23009F483C1BD
:1055700080910C0190910D010E942C0D90930D01D2
:1055800080930C0161E08AE00E94130262E088E0EF
:105590000E94130288E00E94BC0121E0892B09F0DF
:1055A00020E020936B051FB7F89480916A05811164
:1055B00027C0E9E3F1E08491EDE4F1E09491E82F74
:1055C000F0E0EE0FFF1FE350FF4FA591B491EC9177
:1055D000E92321F461E08AE00E94E50161E08AE0CC
:1055E0000E9413028CB580618CBD8CB580648CBD2B
:1055F00061E08DE00E94130261E08BE00E941302E3
:1056000080916A058F5F80936A051FBF80916B054B
:10561000882309F45BC189E791E00E94D80062E029
:105620008EE00E94130262E080E10E94130262E0B9
:105630008FE00E94130261E082E00E94130204E105
:1056400010E020E030E00093EC061093ED0620938C
:10565000EE063093EF064EE150E060E070E04093DC
:10566000F0065093F1066093F2067093F30680ED16
:1056700097E0A0E0B0E08093F4069093F506A09345
:10568000F606B093F7060093D3061093D406209342
:10569000D5063093D6064093D7065093D80660932C
:1056A000D9067093DA068093DB069093DC06A0930C
:1056B000DD06B093DE060093BA061093BB06209376
:1056C000BC063093BD064093BE065093BF06609360
:1056D000C0067093C1068093C2069093C306A09340
:1056E000C406B093C50681ED90E00E94C50525E093
:1056F00030E042E050E066E177E0CE0101967C01C7
:105700000E94B11222E030E041E050E066E177E033
:10571000CE01875B9F4F0E94B112BE01675B7F4F36
:10572000CE018D5B9F4F0E94971265E373E0CE011F
:105730008D5B9F4F0E940012B7010E941612FC0160
:1057400044815581608171818EE096E00E94D80489
:105750000E94860ECE018D5B9F4F0E948611CE0166
:10576000875B9F4F0E948611C7010E9486110FEA36
:1057700010E042E2D42EDA94DD2009F4A9C0F80149
:1057800064918EE096E00E9478050F5F1F4FF3CF83
:105790008CE090E05DCE10920E0168CE90E0909388
:1057A0005201809351016DCE90E09093540180930B
:1057B000530172CE90E0909356018093550177CEBD
:1057C00090E090935801809357017CCE91E0811135
:1057D00001C090E0909386057ECE90E090935C01AE
:1057E00080935B0183CE14BC15BC84B5826084BDFC
:1057F00085B5816085BD80910C0690E0FC01E15D7E
:10580000FE4FE491F0E0EE0FFF1FE95FFE4F2591A0
:1058100034913093680520936705FC01ED5BFE4FE2
:10582000E491E0936605A4CE10928000109281006E
:1058300080918100886080938100809181008160E7
:105840008093810080910C0690E0FC01E15DFE4FA9
:10585000E491F0E0EE0FFF1FE95FFE4F25913491D8
:105860003093650520936405FC01ED5BFE4FE491E8
:10587000E09363057DCE1092B0001092B10080914C
:10588000B00082608093B0008091B100816080930D
:10589000B10080910C0690E0FC01E15DFE4FE491C7
:1058A000F0E0EE0FFF1FE95FFE4F2591349130933A
:1058B000620520936105FC01ED5BFE4FE491E093EE
:1058C000600556CE8FEF80930D0652CE89E5A4CEAB
:1058D0000E94860E84EA90E00E948E0E80910C0158
:1058E00090910D0190937605809375050E942C0D83
:1058F0006FEF70E089E00E94150468EE73E080E0CD
:1059000090E00E94970470E060E089E00E94150436
:105910006FEF70E086E00E94150468EE73E080E0AF
:1059200090E00E94970470E060E086E00E94150419
:105930006FEF70E083E00E94150468EE73E080E092
:1059400090E00E94970470E060E083E00E941504FC
:1059500067E373E0C7010E94A01261E473E0CE0127
:1059600007960E94A0126BE473E0CE010D960E9490
:10597000A01265E573E0CE0143960E94A0126FE588
:1059800073E0CE0149960E94A01269E673E0CE0151
:105990004F960E94A01263E773E0CE0185960E94A5
:1059A000A0126DE773E0CE018B960E94A01267E80B
:1059B00073E0CE01C1960E94A01261E973E0CE01AE
:1059C000C7960E94A01261E173E0CE01CD960E94BD
:1059D000A01266E177E0CE018D5B9F4F0E94971287
:1059E0006EE373E0CE018D5B9F4F0E940012BC01FD
:1059F000CE01CD960E948012CE018D5B9F4F0E94FA
:105A000086110E94C9042B013C01F8EE4F0EF3E011
:105A10005F1E611C711C912C1FEF94EFC92EDD24B9
:105A2000D39426E0822E3BE3A32E3FE1B32E8FE0FA
:105A30000E94BC01892B11F49924939480E10E9467
:105A4000BC01892B09F4912C0E94C90464197509C1
:105A50008609970996010D2C000C440B550B01E0AB
:105A60002617370748075907C0F40E94C9042B01BD
:105A70003C01911001C01F5F1A3009F4DDC008F02D
:105A8000E0C001E0B701189D600D711D112482E096
:105A900097E00E9480120E94A50EC5010197F1F7C0
:105AA0000111C5CFC0901507C11004C00E945A0152
:105AB0008111CAC010921307109215071092140793
:105AC0008CE890E00E948E0E82E890E00E948E0E9C
:105AD0008E010D5B1F4F06501109C8010E948611EF
