:020000040000FA
:100000000C94AE000C94D6000C94D6000C94D60040
:100010000C94D6000C94D6000C94D6000C941526A3
:100020000C94D6000C94D6000C94D6000C94642644
:100030000C94D6000C94D6000C94BF260C94D600D9
:100040000C94CB250C94D6000C9499250C94732514
:100050000C94D6000C94D6000C94D6000C94D600C8
:100060000C941A270C94D600496E636F7272656304
:100070007420536F6E6720466F726D6174210000AB
:100080000000080002010000030407000000000057
:1000900000000000000000250028002B00020100E5
:1000A00000000000240027002A0053746F702054C1
:1000B0006573740054656D702E2073656E736F7276
:1000C000206E6F7420666F756E642E0053746172BB
:1000D000742054657374004E43533331342D3843C8
:1000E00020485720322E7820485635313232206F42
:1000F0007220485635323232004669726D7761722D
:10010000652076657273696F6E3A20004661756C82
:100110007479204453333233312100445333323322
:10012000315F543D00000000002300260029000438
:10013000040404040404040202020202020303038E
:100140000303030102040810204080010204081088
:1001500020010204081020007228142E11241FBE52
:10016000CFEFD8E0DEBFCDBF27E0A2E1B4E001C011
:100170001D92AC30B207E1F714E0A0E0B1E0E4E892
:10018000F6E602C005900D92A231B107D9F710E052
:10019000CDEAD0E004C02197FE010E942131CC3A83
:1001A000D107C9F70E94FD280C9435330C94000048
:1001B0008CBD9DBD08958091F406E091F506F09107
:1001C000F606F8949181982B91832281382F3095EF
:1001D00023232283A7E0B0E01197F1F791819323C5
:1001E0009183A3E2B0E01197F1F790817894EFEC5E
:1001F000F0E03197F1F7982381E009F480E0089569
:100200009091F406E091F506F091F606292F2095DD
:1002100080FF14C0F8948281822382838181892B9C
:100220008183A3E2B0E01197F1F78281982B92834A
:10023000789487ED90E00197F1F70895F894828122
:10024000822382838181892B8183AFEFB0E0119774
:10025000F1F78281982B928378948FE090E0EBCF36
:100260000F931F93CF93DF93082FC8E0D0E011E0E6
:1002700081E0902F912309F480E00E940001110F8A
:100280002197B1F7F894E091F506F091F606918187
:100290008091F406809598239183E091F506F09182
:1002A000F6069281892382837894DF91CF911F9102
:1002B0000F9108958091F406E091F506F091F6060D
:1002C000F8949181282F20959223918378943DE78B
:1002D00043E050E0315029F1DA011197F1F79081B4
:1002E0009823C1F3F8949281922392839181982B61
:1002F00091837894ABE7B7E01197F1F7F894918187
:1003000092239183A3E1B1E01197F1F790819823B3
:1003100081E009F080E07894E3E6F6E03197F1F7C8
:10032000089580E00895089508950895AF92BF92CA
:10033000CF92DF92EF92FF920F931F93CF93DF93B1
:100340006C017B018B01040F151FEB015E01AE18E0
:10035000BF08C017D10759F06991D601ED91FC9102
:100360000190F081E02DC6010995892B79F7C5012F
:10037000DF91CF911F910F91FF90EF90DF90CF9081
:10038000BF90AF900895FC01538D448D252F30E030
:10039000842F90E0821B930B541710F0CF96089592
:1003A00001970895FC01918D828D981761F0A28DBF
:1003B000AE0FBF2FB11D5D968C91928D9F5F9F7385
:1003C000928F90E008958FEF9FEF0895FC01918D3B
:1003D000828D981731F0828DE80FF11D858D90E0A8
:1003E00008958FEF9FEF0895FC01918D228D892F45
:1003F00090E0805C9F4F821B91098F73992708952D
:100400008AEF95E00E94F40121E0892B09F420E0B5
:10041000822F089580E090E0892B29F00E9400024D
:1004200081110C9400000895FC01A48DA80FB92F30
:10043000B11DA35ABF4F2C91848D90E001968F730C
:100440009927848FA689B7892C93A089B1898C912B
:10045000837080648C93938D848D981306C002887A
:10046000F389E02D80818F7D80830895EF92FF9244
:100470000F931F93CF93DF93EC0181E0888F9B8DC7
:100480008C8D98131AC0E889F989808185FF15C081
:100490009FB7F894EE89FF896083E889F9898081A4
:1004A0008370806480839FBF81E090E0DF91CF9173
:1004B0001F910F91FF90EF900895F62E0B8D10E095
:1004C0000F5F1F4F0F731127E02E8C8D8E110CC004
:1004D0000FB607FCFACFE889F989808185FFF5CF4F
:1004E000CE010E941402F1CFEB8DEC0FFD2FF11D18
:1004F000E35AFF4FF0829FB7F8940B8FEA89FB898C
:1005000080818062CFCF0F931F93CF93DF938C01B5
:10051000D0E0C0E0F801EC0FFD1F6491662341F0CC
:100520008AEF95E00E943602892B11F02196F2CFD6
:10053000CE01DF91CF911F910F910895CF93DF935B
:10054000EC01888D8823B9F0AA89BB89E889F989EB
:100550008C9185FD03C0808186FD0DC00FB607FC20
:10056000F7CF8C9185FFF2CF808185FFEDCFCE0153
:100570000E941402E9CFDF91CF910895833081F07A
:1005800028F4813099F08230A9F008958730A9F0DD
:100590008830C9F08430B1F4809180008F7D03C031
:1005A000809180008F7780938000089584B58F7745
:1005B00084BD089584B58F7DFBCF8091B0008F7787
:1005C0008093B00008958091B0008F7DF9CFCF93D4
:1005D000DF93282F30E0F901E158FF4F8491F901B2
:1005E000ED5BFE4FD491F901E15DFE4FC491CC2348
:1005F000A1F081110E94BE02EC2FF0E0EE0FFF1F70
:10060000EB5DFE4FA591B491EC91ED2381E090E07C
:1006100009F480E0DF91CF91089580E090E0FACF77
:100620001F93CF93DF93282F30E0F901E158FF4F5C
:100630008491F901ED5BFE4FD491F901E15DFE4F2C
:10064000C491CC23A9F0162F81110E94BE02EC2F79
:10065000F0E0EE0FFF1FED56FF4FA591B4918FB75D
:10066000F894EC91111108C0D095DE23DC938FBF74
:10067000DF91CF911F910895DE2BF8CFCF93DF93B9
:1006800090E0FC01ED5BFE4F2491815D9E4FFC01EB
:1006900084918823C9F090E0880F991FFC01E056EF
:1006A000FF4FA591B491FC01ED56FF4FC591D49138
:1006B00061110DC09FB7F8948C91209582238C9383
:1006C0008881282328839FBFDF91CF9108956230CE
:1006D00051F49FB7F8943C91822F809583238C939B
:1006E000E8812E2BEFCF8FB7F894EC912E2B2C9323
:1006F0008FBFEACF4F925F926F927F928F929F92BD
:10070000AF92BF92CF92DF92EF92FF920F931F931F
:10071000CF93DF9300D000D01F92CDB7DEB72091EA
:10072000F90527FD2CC149835A836B837C838C0197
:1007300061E08091F8050E943E038091F9058D8368
:100740004801B12CA12C8D7F09F031C160E072E12C
:100750008AE790E0A50198010E94023129013A013F
:100760007A01690191E0C91AD108E108F108AFEFF7
:10077000CA16D104E104F10409F00CF4C7C060E426
:1007800072E48FE090E0A50198010E9402316901B6
:100790007A01B1E0CB1AD108E108F1088D818230ED
:1007A00009F06AC082E09FEFC916D104E104F104A8
:1007B00009F00CF45EC160E970ED83E090E0A50102
:1007C00098010E94023169017A01A1E0CA1AD10898
:1007D000E108F10883E0BFEFCB16D104E104F10496
:1007E00009F00CF446C168E478EE81E090E0A501E0
:1007F00098010E94023169017A0181E0C81AD1088A
:10080000E108F10884E09FEFC916D104E104F10486
:1008100009F00CF42EC164E274EF80E090E0A501D1
:1008200094010E94023169017A01B1E0CB1AD1082A
:10083000E108F10885E09FEFC916D104E104F10455
:1008400009F008F416C162E17AE780E090E0A501C2
:1008500094010E94023169017A01B1E0CB1AD108FA
:10086000E108F1088FEFC816D104E104F10411F09A
:1008700008F0F0C086E0FDC08FEFC816D104E10497
:10088000F10409F00CF491C068E478EE81E090E0A6
:10089000A50198010E94023169017A0191E0C91A0B
:1008A000D108E108F108AD8184E0A111C4CF83E053
:1008B000AFEFCA16D104E104F10461F15CF162E129
:1008C0007AE780E090E0A50194010E94023169017D
:1008D0007A0181E0C81AD108E108F10884E09FEFAD
:1008E000C916D104E104F104A9F0A0F0730162017A
:1008F0009AE0F594E794D794C7949A95D1F7A1E03C
:10090000CA1AD108E108F10885E004C081E0AD8190
:10091000A111AFC095B5987F892B85BD89819A813A
:10092000AB81BC812FEF3FEFA901892B8A2B8B2B49
:1009300079F0D801AA0FBB1F29813A814B815C81D4
:100940000E94C72F28EE33E040E050E00E94E030E4
:100950009D81913009F45CC0923009F46BC0911113
:100960000EC0C7BC2093F4053093F5054093F605FF
:100970005093F70580916E00826080936E000F9017
:100980000F900F900F900F90DF91CF911F910F91CB
:10099000FF90EF90DF90CF90BF90AF909F908F909F
:1009A0007F906F905F904F90089582E0B0CF60E0AD
:1009B00072E18AE790E0A50198010E940231690185
:1009C0007A01B1E0CB1AD108E108F10891E0C11435
:1009D000D10481E0E806F10484F068E478EE81E077
:1009E00090E0A50198010E94023169017A0191E02D
:1009F000C91AD108E108F10893E0AD81A13009F0EE
:100A00008DCF80918100887F892B8093810086CF54
:100A1000D0928900C09288002093F0053093F105B0
:100A20004093F2055093F30580916F0082608093AC
:100A30006F00A5CFC092B3002093EC053093ED0575
:100A40004093EE055093EF05809170008260809393
:100A5000700095CF730162018AE0F594E794D79412
:100A6000C7948A95D1F7B1E0CB1AD108E108F10813
:100A700087E09091B100987F892B8093B1004ECF91
:100A80001F93CF93DF93182FEB0161E00E943E0389
:100A9000209739F460E0812FDF91CF911F910C9462
:100AA0001003CF3FD10511F461E0F5CFE12FF0E065
:100AB000E158FF4FE491E33031F140F4E130B1F01F
:100AC000E230E1F0C038D1057CF7E4CFE73029F11E
:100AD000E83059F1E430B1F7809180008062809372
:100AE0008000D0938B00C0938A0004C084B58068D6
:100AF00084BDC7BDDF91CF911F91089584B58062F9
:100B000084BDC8BDF7CF809180008068809380004D
:100B1000D0938900C0938800EDCF8091B0008068A9
:100B20008093B000C093B300E5CF8091B0008062A5
:100B30008093B000C093B400DDCF3FB7F8948091AC
:100B40004D0590914E05A0914F05B091500526B5E9
:100B5000A89B05C02F3F19F00196A11DB11D3FBFF5
:100B6000BA2FA92F982F8827BC01CD01620F711DC4
:100B7000811D911D42E0660F771F881F991F4A95BE
:100B8000D1F708958F929F92AF92BF92CF92DF924A
:100B9000EF92FF924B015C010E949D056B017C016D
:100BA0000E949D056C197D098E099F09683E73405E
:100BB00081059105A8F321E0821A9108A108B108E6
:100BC00088EEC80E83E0D81EE11CF11C811491044C
:100BD000A104B10429F7FF90EF90DF90CF90BF9070
:100BE000AF909F908F9008952FB7F894609149052A
:100BF00070914A0580914B0590914C052FBF089547
:100C000060933D0570933E0580933F0590934005AA
:100C1000645D7E4F8F4F9F4F6093390570933A0507
:100C200080933B0590933C0582E090E090933805DB
:100C3000809337050E94F405609333057093340563
:100C4000809335059093360508952F923F924F92E9
:100C50005F926F927F928F929F92AF92BF92CF924C
:100C6000DF92EF92FF920F931F93CF93DF93382E73
:100C7000962E842E222E84E6E816F1040CF459C038
:100C800092EBE91A97E0F90AE092470500934605CE
:100C9000209245053092430590924205809241058D
:100CA000AE2DB0E020E833E341EE51E00E94C72FC3
:100CB0002B013C0122EB37E0FF24E4E6F0E0C0E941
:100CC000D1E0C901825B97408E159F05B4F19EE487
:100CD000E91A98EFF90AC70164E670E00E94CC3087
:100CE0006C01C70160E971E00E94CC305C01CFED7E
:100CF000D2E0E1E0F0E0112783E0E822FF24E017F2
:100D0000F1070CF042C0E230F10591F5E114F10475
:100D100079F5C114D10419F4A114B10449F580E89E
:100D2000480E8BE3581E86E2681E711C3196219690
:100D3000E6CF8EE1E80EF11CA7CFC9018370992799
:100D4000892B99F4C901BF010E94CC30892B31F461
:100D5000C901BE010E94CC30892B39F490E8490EBC
:100D600091E5591E91E0691E711C2F5F3F4FA9CF7D
:100D7000A881B0E020E831E541E050E00E94C72FB3
:100D8000460E571E681E791ED1CF292D30E0ACE3E8
:100D9000B0E00E9409306B017C01C80CD11CE11C41
:100DA000F11C232D30E0A0E1BEE00E940930C60E08
:100DB000D71EE81EF91E822D8150990BDC0120E818
:100DC00031E541E050E00E9427316C0D7D1D8E1D04
:100DD0009F1D640D751D861D971DDF91CF911F917D
:100DE0000F91FF90EF90DF90CF90BF90AF909F90CA
:100DF0008F907F906F905F904F903F902F900C94CA
:100E00000006CF92DF92EF92FF920F931F930E9402
:100E1000F4058B019C01C0903305D0903405E0901F
:100E20003505F090360560913D0570913E05809145
:100E30003F05909140050C191D092E093F09083EF8
:100E4000134021053105E0F0DC01CB010196A11D25
:100E5000B11D80933D0590933E05A0933F05B0934F
:100E60004005B701A60148515C4F6F4F7F4F40933B
:100E70003305509334056093350570933605C7CF1D
:100E80001F910F91FF90EF90DF90CF9008954F92B8
:100E90005F926F927F928F929F92AF92BF92CF920A
:100EA000DF92EF92FF920F931F93CF93DF934B014B
:100EB0005C0180912F0590913005A0913105B09192
:100EC000320588159905AA05BB0509F4C6C08CE34F
:100ED000C82ED12CE12CF12CC501A70196010E944E
:100EE000E03060934105CA01B901A70196010E9453
:100EF000E03060934205C501B40120E13EE040E0EE
:100F000050E00E94E030CA01B90128E130E040E041
:100F100050E00E94E03060934305C501B40120E831
:100F200031E541E050E00E94E03069017A01CA01F8
:100F3000B9016C5F7F4F8F4F9F4F27E030E040E05B
:100F400050E00E94E0306F5F60934405412C512CCB
:100F5000320140E004E610E0C0E9D1E0242F30E0A7
:100F60002E54384FF901E370FF273097F9F4C90187
:100F7000B8010E94CC30892B31F4C901BE010E9416
:100F8000CC30892B99F48EE691E0A0E0B0E0480ED9
:100F9000591E6A1E7B1ED301C201AA27BB27C81691
:100FA000D906EA06FB0638F04F5FD8CF8DE691E010
:100FB000A0E0B0E0ECCF40934705C90164E670E0E3
:100FC0000E94CC30EC01C90160E971E00E94CC3094
:100FD000309721F42097D9F40097C9F04DE651E0FD
:100FE00060E070E0441A550A660A770AC418D5080A
:100FF000E608F708AFEDB2E020E0213069F4309761
:10100000E9F5209711F40097C9F54DE106C04EE6C9
:1010100051E060E070E0E6CF4C9150E070E060E0BD
:1010200031E0320FC416D506E606F70640F0C41AC2
:10103000D50AE60AF70A1196232F3C30F1F62F5F06
:1010400020934605C394C092450580922F05909247
:101050003005A0923105B0923205DF91CF911F91FA
:101060000F91FF90EF90DF90CF90BF90AF909F9047
:101070008F907F906F905F904F9008954CE1CDCF0F
:101080000E9401070E9447078091470590E08E5417
:10109000984F08950E9401070E94470780914605D6
:1010A00090E008950E9401070E944707809145053E
:1010B00090E008950E9401070E9447078091410532
:1010C00090E008950E9401070E9447078091420521
:1010D00090E008950E9401070E9447078091430510
:1010E00090E00895CF92DF92EF92FF92CF93DF933B
:1010F000EC010E94F4056B017C018F850E94E702E0
:101100009C0181E02115310509F480E0898B8889F3
:10111000811105C091E0232B09F090E0998B29897A
:101120008A89281721F0CD8ADE8AEF8AF88E8D8988
:101130009E89AF89B88DB701A601481B590B6A0B70
:101140007B0BDB01CA01CB80DC80ED80FE80C81602
:10115000D906EA06FB0664F43A81231749F02A838C
:10116000222349F04B895C894F5F5F4F5C8B4B8B2F
:101170003A81311117C0CF80D884E984FA84C81627
:10118000D906EA06FB0634F48B899C899983888307
:101190001C8A1B8A2A8BDF91CF91FF90EF90DF9002
:1011A000CF900895CB84DC84ED84FE84C816D906E4
:1011B000EA06FB067CF78B899C89919581959109BC
:1011C000E5CF20910C05260F3327331F213231053F
:1011D000ECF42091C205FC0190E080E0243069F03D
:1011E00082E00895A0910C052191AC0144515B4F20
:1011F000A40FB52FB11D2C930196861798F38091FB
:101200000C05680F60930C0580E0089581E0089557
:101210001092C20581E08093C10510929C0561E0A7
:1012200082E10E94100361E083E10E941003E9EB78
:10123000F0E080818E7F808380818D7F808388E451
:101240008093B80085E48093BC000895CF93DF932A
:1012500091E09093EB048823B9F0C091B800D0914D
:10126000BA008091BC008A7B8093BC0060E082E180
:101270000E94100360E083E10E9410030E940809AD
:10128000D093BA00C093B800DF91CF910895CF9268
:10129000DF92EF92FF920F931F93CF93DF93D09142
:1012A000EB0581E0D13208F09CC0C091EA050E94B4
:1012B0009D056B017C018091C20581116CC082E0AB
:1012C0008093C20581E08093C1058FEF8093C005B4
:1012D0001092BF05D093BE05AAECB5E0EEE9F5E0AB
:1012E00080E0D8138DC010929D0580919D05CC0F94
:1012F000C82BC0939D0580919C05813009F084C066
:1013000010929C050E949D056B017C0180919D05BA
:101310008093BB008091C4059091C505A091C6053E
:10132000B091C705892B8A2B8B2BA1F00E949D05BC
:101330000091C4051091C5052091C6053091C705DF
:101340006C197D098E099F090617170728073907A9
:1013500008F442C08091BC0083FDD8CF85EC809317
:10136000BC000E949D056B017C018091C20582300A
:1013700009F44CC08091C0058F3F09F469C0809189
:10138000C005803209F466C08091C005803309F43D
:1013900063C084E026C08091C4059091C505A091EA
:1013A000C605B091C705892B8A2B8B2B09F483CFF7
:1013B0000E949D050091C4051091C5052091C605A8
:1013C0003091C7056C197D098E099F09061717070B
:1013D0002807390708F06FCF8091C3050E942609BE
:1013E00085E01092C9051092EB051092C805DF91B7
:1013F000CF911F910F91FF90EF90DF90CF900895C4
:101400009D9191938F5F6DCF85EEA9CF8091C4059B
:101410009091C505A091C605B091C705892B8A2B6F
:101420008B2B09F4A2CF0E949D050091C405109159
:10143000C5052091C6053091C7056C197D098E0937
:101440009F09061717072807390708F08ECFC4CF62
:1014500080E0C7CF82E0C5CF83E0C3CFCF92DF92D9
:10146000EF92FF920F931F93CF93DF93D82FC62F46
:10147000613208F098C00E949D056B017C0180914B
:10148000C20581116BC081E08093C2058093C105C4
:101490009FEF9093C0051092BF059C0F9093BE05DF
:1014A00080939D0580919D05DD0FD82BD0939D05E0
:1014B00080919C05813009F078C010929C050E94B3
:1014C0009D056B017C0180919D058093BB008091FF
:1014D000C4059091C505A091C605B091C705892B9B
:1014E0008A2B8B2BA1F00E949D050091C4051091C1
:1014F000C5052091C6053091C7056C197D098E0977
:101500009F09061717072807390708F448C0809174
:10151000BC0083FDD8CF85EC8093BC000E949D0564
:101520006B017C018091C205813009F440C080913B
:10153000BF058C1710F4C091BF05EEE9F5E0ACE7EC
:10154000B5E080E08C1355C08C2FDF91CF911F91B7
:101550000F91FF90EF90DF90CF9008958091C40598
:101560009091C505A091C605B091C705892B8A2B1E
:101570008B2B09F484CF0E949D050091C405109126
:10158000C5052091C6053091C7056C197D098E09E6
:101590009F09061717072807390708F070CF8091B1
:1015A000C3050E942609C0E0CFCF85EEB5CF80915C
:1015B000C4059091C505A091C605B091C705892BBA
:1015C0008A2B8B2B09F4AECF0E949D050091C40598
:1015D0001091C5052091C6053091C7056C197D098C
:1015E0008E099F09061717072807390708F09ACFB1
:1015F000D6CF91919D938F5FA5CF0895E0916D0512
:1016000080916C05E81730F4F0E0E458FA4F8081DF
:1016100090E008958FEF9FEF089590916D05809170
:101620006C052FEF3FEF981748F4E92FF0E0E458EE
:10163000FA4F208130E09F5F90936D05C9010895B6
:1016400080916C0590916D05891B990B0895CF923F
:10165000DF92EF92FF920F931F93CF93DF937C0162
:10166000CB018A012091C805222389F0EB016B018F
:10167000C40ED51ECC15DD0569F06991D701ED9139
:10168000FC910190F081E02DC7010995F3CF642F03
:101690000E94E108C801DF91CF911F910F91FF9047
:1016A000EF90DF90CF900895CF93DF931F92CDB747
:1016B000DEB769832091C8052223F9F02091EB055C
:1016C000203258F021E030E0FC013383228390E0A7
:1016D00080E00F90DF91CF9108958091C905E82FA8
:1016E000F0E0E653FA4F998190838F5F8093C905AC
:1016F0008093EB0581E090E0ECCF61E0CE010196B4
:101700000E94E108F7CF90E080E00895CF92DF9249
:10171000EF92FF920F931F93CF93DF939091EA0480
:1017200091110BC08FEF9FEFDF91CF911F910F9120
:10173000FF90EF90DF90CF9008959091E904992366
:1017400089F3082FC091E804D0E08091E004811172
:101750000DC00E94F4056093DC047093DD04809357
:10176000DE049093DF0481E08093E0040E94F4059E
:10177000C090DC04D090DD04E090DE04F090DF0443
:101780006C197D098E099F096D32714081059105A3
:10179000B0F01091DB040E94F4056093DC047093B8
:1017A000DD048093DE049093DF0491E09127909311
:1017B000DB04992331F11092DA041092D9042091BC
:1017C000D9043091DA04209530958091D8042823EB
:1017D00026FF1CC081E08093D70427FF1AC081E058
:1017E0008093D6048091DB04882309F49BCF02C048
:1017F000D595C7950A95E2F7C0FF94CF80E09CE3AA
:1018000093CFD093DA04C093D904D9CF1092D704E0
:10181000E4CF1092D604E6CFEF92FF920F931F937E
:10182000CF93DF93E82E0E945A018CEC0E94300186
:1018300084E40E9430010E945A018CEC0E94300125
:101840008EEB0E94300108E010E0D0E0C1E00E9481
:10185000DB008111DC2BCC0F01501109C1F708E02E
:1018600010E0C0E0FF24F3940E94DB008111CF2937
:10187000FF0C01501109C1F77C2F6D2F6F3F7607C8
:1018800011F470E060E0072E000C880B990B0E94A9
:10189000942E20E030E040E85DE30E94F32EEE203D
:1018A00061F026E636E646EE5FE30E94F32E20E086
:1018B00030E040E052E40E941930DF91CF911F9157
:1018C0000F91FF90EF9008950F931F938091570110
:1018D00090915801892B09F449C08091A304882371
:1018E000A9F00E94F40500919F041091A00420919A
:1018F000A1043091A204601B710B820B930B693E13
:1019000073408105910590F11092A3040E946A082A
:1019100020915101309152018217930739F50E94AD
:101920006208209153013091540182179307F1F41A
:101930000E945A0820915501309156018217930751
:10194000A9F40E94F40560939F047093A00480930F
:10195000A1049093A20481E08093A30480910C01E0
:1019600090910D0190936B0580936A051F910F91E3
:101970000895CF93DF93EC012196FC0120812A3357
:10198000C9F42181243609F5229630E020E06AE08E
:10199000899190ED980F9A3078F4629FA001639F2F
:1019A000500D1124082E000C990BC0979A01280F96
:1019B000391FEECFCE01DFCF3093970420939604EA
:1019C0002115310511F020930B0188818F3689F4A0
:1019D0008A81082E000C990B9C0120533109309309
:1019E000970420939604C397059710F420930A0157
:1019F000249688818236F1F4229630E020E06AE075
:101A0000899190ED980F9A3068F4629FA001639FCE
:101A1000500D1124082E000C990BC0979A01280F25
:101A2000391FEECF30939704209396043093090129
:101A3000209308012091080130910901032E000C28
:101A4000440B550B60E67AEE80E090E00E94023194
:101A500082E0220F331F441F551F8A95D1F7209330
:101A60009204309393044093940450939504CE01D0
:101A7000DF91CF9108958EBD00000DB407FEFDCF1C
:101A80008EB50895CF9381E08093C80588E6809352
:101A9000EA051092C9051092EB0560E087E996E02F
:101AA0000E94540B0E94470967E088E60E942E0AB4
:101AB00010926D0580936C0587E996E00E940D0BEE
:101AC000982F92959F70CAE08F709C9F800D112473
:101AD00090E090937A058093790587E996E00E94DB
:101AE0000D0B982F92959F708F709C9F800D1124E5
:101AF00090E0909371058093700587E996E00E94CD
:101B00000D0B982F929593708F709C9F800D1124D0
:101B100090E090936F0580936E0587E996E00E94B0
:101B20000D0B87E996E00E940D0B982F92959F7000
:101B30008F709C9F800D112490E09093730580938B
:101B4000720587E996E00E940D0B982F92959F7081
:101B50008F709C9F800D112490E090937505809369
:101B6000740587E996E00E940D0B982F92959F705F
:101B70008F709C9F800D112490E08053984F90931C
:101B8000770580937605CF9108958F929F92AF92BB
:101B9000BF920F931F93CF93DF93CDB7DEB7A1977B
:101BA0000FB6F894DEBF0FBECDBF19A2423008F4C5
:101BB0004AE08E010F5D1F4F842E912CB12CA12C79
:101BC000A50194010E94E030E62FB901CA01EA3074
:101BD00044F5E05DD801EE938D01232B242B252BBA
:101BE00079F790E080E0109769F0FD010190002006
:101BF000E9F73197AF014A1B5B0BBD018AEF95E016
:101C00000E949601A1960FB6F894DEBF0FBECDBF1D
:101C1000DF91CF911F910F91BF90AF909F908F90C8
:101C20000895E95CD7CF42E050E06FE073E08AEFBF
:101C300095E00C949601CF93DF930E948302EC0110
:101C40000E94130E8C0F9D1FDF91CF910895FC0110
:101C500080819181009711F00C941C2E60E070E05F
:101C6000CB0108954F925F926F927F928F929F92D5
:101C7000AF92BF92CF92DF92EF92FF92CF93DF931A
:101C8000CDB7DEB72D970FB6F894DEBF0FBECDBF30
:101C90000E949D05C090D204D090D304E090D4045B
:101CA000F090D5046C197D098E099F096A31714441
:101CB0008105910508F457C20E949D056093D204E6
:101CC0007093D3048093D4049093D5048EEE96E061
:101CD0000E94270E69837A838B839C8360E08AE06D
:101CE0000E941003FAE0CF2ED12CE12CF12C698157
:101CF0007A818B819C81A70196010E940231490162
:101D00005A01660F771F65537D4FDB014D905C9044
:101D100087E090E00E94860B3C01C501B401A70159
:101D200096010E940231660F771F65537D4FFB01BC
:101D30008080918087E090E00E94860B5C01698141
:101D40007A818B819C8124E630E040E050E00E9463
:101D50000231CA01B901A70196010E940231660F42
:101D6000771F65537D4FDB01ED90FC9086E090E09E
:101D70000E94860B46205720712C612C24E1440CD4
:101D8000551C661C771C2A95D1F78E219F21B0E047
:101D9000A0E073016201C82AD92AEA2AFB2A8A2014
:101DA0009B20B12CA12C3AE0880C991CAA1CBB1CCE
:101DB0003A95D1F7C828D928EA28FB2869817A8181
:101DC0008B819C8128EE33E040E050E00E9402319C
:101DD00029013A018091D704882309F491C16894BC
:101DE000F6F88091D604882309F48DC16894F7F839
:101DF000B0916005BD878F2D9927AA27BB278D83BA
:101E00009E83AF83B8874701AA24BB24BB27AF2D8D
:101E10009E2D8D2D89879A87AB87BC879D859923B9
:101E200009F474C18C2D0E943B0D89850E943B0DE5
:101E3000882D0E943B0D8D810E943B0D8AE0882EEB
:101E4000912CA12CB12CC301B201A50194010E94D7
:101E50000231660F771F65537D4FDB01CD90DC901B
:101E600085E090E00E94860B7C0169817A818B81FC
:101E70009C8120E137E240E050E00E940231CA013B
:101E8000B901A50194010E940231660F771F6553C5
:101E90007D4FFB016080718084E090E00E94860BA2
:101EA000CE20DF20F12CE12C34E1CC0CDD1CEE1C2B
:101EB000FF1C3A95D1F786219721B0E0A0E04AE0D7
:101EC000880F991FAA1FBB1F4A95D1F7C82AD92A84
:101ED000EA2AFB2A69817A818B819C8120EA36E893
:101EE00041E050E00E940231CA01B901A50194010C
:101EF0000E940231660F771F65537D4FDB01AD9065
:101F0000BC9083E090E00E94860B8A219B21B0E088
:101F1000A0E0C82AD92AEA2AFB2A69817A818B8122
:101F20009C8120E432E44FE050E00E94023129011C
:101F30003A018091D704882309F4F3C06894F6F835
:101F40008091D604882309F4EFC06894F7F88F2DA8
:101F50009927AA27BB278D839E83AF83B887470124
:101F6000AA24BB24BB27AF2D9E2D8D2D89879A8750
:101F7000AB87BC879D85992309F4D9C08C2D0E941D
:101F80003B0D89850E943B0D882D0E943B0D8D8164
:101F90000E943B0D3AE0832E912CA12CB12CC30161
:101FA000B201A50194010E940231660F771F6553AB
:101FB0007D4FDB01CD90DC9082E090E00E94860BAB
:101FC0007C0169817A818B819C8120E836E948E92E
:101FD00050E00E940231CA01B901A50194010E949A
:101FE0000231660F771F65537D4FFB016080718062
:101FF00081E090E00E94860BCE20DF20F12CE12CC6
:1020000064E1CC0CDD1CEE1CFF1C6A95D1F7862127
:102010009721B0E0A0E07AE0880F991FAA1FBB1FAC
:102020007A95D1F7C82AD92AEA2AFB2A69817A81C6
:102030008B819C8120E031EE45EF55E00E9402311A
:10204000CA01B901A50194010E940231660F771FF0
:1020500065537D4FDB01AD90BC9090E080E00E9425
:10206000860B8A219B21B0E0A0E08C299D29AE2916
:10207000BF292091D7046C017D01222309F462C09D
:102080006894F6F88091D604882309F45EC06894B9
:10209000F7F84F2C5524662477244701AA24BB2443
:1020A000BB27AF2D9E2D8D2D89839A83AB83BC8357
:1020B0009D85992309F44CC08C2D0E943B0D89818C
:1020C0000E943B0D882D0E943B0D842D0E943B0DEC
:1020D00061E08AE02D960FB6F894DEBF0FBECDBF4B
:1020E000DF91CF91FF90EF90DF90CF90BF90AF90B6
:1020F0009F908F907F906F905F904F900C94100303
:10210000E894F6F86ECEE894F7F872CE8D810E94CE
:102110003B0D882D0E943B0D89850E943B0D8C2D27
:102120008BCEE894F6F80CCFE894F7F810CF8D81B9
:102130000E943B0D882D0E943B0D89850E943B0D1E
:102140008C2D26CFE894F6F89DCFE894F7F8A1CF30
:10215000842D0E943B0D882D0E943B0D89810E9499
:102160003B0D8C2DB3CF2D960FB6F894DEBF0FBE6E
:10217000CDBFDF91CF91FF90EF90DF90CF90BF90D8
:10218000AF909F908F907F906F905F904F90089549
:102190000F931F93CF93DF938C01EB01FC018081A0
:1021A00091810097E1F06881798161157105A9F04D
:1021B000428153812C813D814217530770F00E9468
:1021C0002E338C819D81F801958384831D821C822E
:1021D000DF91CF911F910F9108950E94DF31888187
:1021E0009981F801918380838A819B819383828383
:1021F0008C819D8195838483198218821B821A8227
:10220000E5CFCF93DF93EC0188819981009711F09E
:102210000E94DF31198218821D821C821B821A8261
:10222000DF91CF910895FC0180819181009711F099
:102230000C94DF3108950F931F93CF93DF93EC013C
:1022400088819981009759F02A813B8126173707A9
:1022500030F081E0DF91CF911F910F9108958B01B4
:102260006F5F7F4F0E946832009759F0998388838F
:102270001B830A832C813D81232B59F7FC0110829B
:10228000E8CF80E0E7CFEF92FF920F931F93CF93B9
:10229000DF936115710541F480E0DF91CF911F91CB
:1022A0000F91FF90EF90089541155105B1F07B011A
:1022B000EC010C811D81040F151FB8010E941B1138
:1022C000882351F3288139818C819D81B701820F48
:1022D000931F0E942E331D830C8381E0DECF0F936A
:1022E0001F93CF93DF9300D0CDB7DEB78C01698306
:1022F0001A8241E050E0BE016F5F7F4F0E944311A0
:10230000811103C0C8010E940111C8010F900F90F4
:10231000DF91CF911F910F910895CF93DF93EC013F
:10232000FB0101900020E9F73197AF01461B570BE5
:102330000E944311811103C0CE010E940111CE0100
:10234000DF91CF910895CF93DF93EC01FB0144819E
:102350005581608171810E944311811103C0CE01BA
:102360000E940111CE01DF91CF910895EF92FF926B
:102370000F931F93CF93DF93EC017B018A01BA0186
:102380000E941B1181110BC0CE010E940111CE01D0
:10239000DF91CF911F910F91FF90EF9008951D83D2
:1023A0000C83B701888199810E942E33F0CFFB0105
:1023B00001900020E9F73197AF01461B570B0C94B1
:1023C000B6110F931F93CF93DF93CDB7DEB762970C
:1023D0000FB6F894DEBF0FBECDBF8C01CB01F80164
:1023E0001182108213821282158214824AE0BE0189
:1023F0006F5F7F4F0E94432EBE016F5F7F4FC8010A
:102400000E94D71162960FB6F894DEBF0FBECDBF03
:10241000DF91CF911F910F910895CF93DF93EC013E
:10242000FB018617970749F060817181611571057D
:1024300041F0448155810E94B611CE01DF91CF91C8
:1024400008950E940111F9CFFC01118210821382BC
:102450001282158214820C940D12FC0111821082DA
:102460001382128215821482FB0101900020E9F789
:102470003197AF01461B570B0C94B611AF92BF9228
:10248000CF92DF92EF92FF920F931F93CF93DF9340
:102490006C015B017A0189012417350720F48F2D27
:1024A0007901042F182F61E173E0C6010E942D12FB
:1024B000D5011496CD91DC91EC16FD06E0F40C17D5
:1024C0001D0708F4E801D501ED91FC911197EC0F7F
:1024D000FD1F108110826D917C916E0D7F1DC601D4
:1024E00061157105A1F00E94D711F50180819181DC
:1024F000C80FD91F1883C601DF91CF911F910F918B
:10250000FF90EF90DF90CF90BF90AF9008950E9422
:102510000111EBCF4F925F926F927F928F929F92B9
:10252000AF92BF92CF92DF92EF92FF920F931F93E1
:10253000CF93DF9300D000D000D0CDB7DEB77C01C1
:102540004B015A018091B70481113AC081E0809318
:10255000B7049EEA692E94E0792E25EA422E24E003
:10256000522E10E000E00F5F1F4F680181E0C81A93
:10257000D1089801A601B401CE0101960E943E1235
:10258000CE0101960E94270ED3016D933D01CE012D
:1025900001960E9413119801A601B501CE01019682
:1025A0000E943E12CE0101960E94270EF201619315
:1025B0002F01CE0101960E9413110930110599F6E1
:1025C0009091A4048EEAC82E84E0D82EE5EAF4E0C7
:1025D0008601A801D8018C919A3008F04DC08F5F18
:1025E0008C930F5F1F4FDA018C918A3019F4D80158
:1025F00011971C923196B4E0073B1B0751F79F5F80
:10260000943109F43FC09093A40461E173E0C701E1
:102610000E942D12FE0131965F01D6018D916D0150
:102620004AE0B50190E00E94432EF50101900020A0
:10263000E9F73197AF014A195B09B501C7010E945B
:1026400043110C151D0549F7C70126960FB6F894DE
:10265000DEBF0FBECDBFDF91CF911F910F91FF90D5
:10266000EF90DF90CF90BF90AF909F908F907F9032
:102670006F905F904F9008952081281709F4B1CF93
:102680008F5FAECF1092A4041092B704BECFCF924A
:10269000DF92EF92FF921F93CF93DF93CDB7DEB718
:1026A0002C970FB6F894DEBF0FBECDBF182F69E48C
:1026B00073E0CE0107960E942D1222E030E050E038
:1026C00040E0133081F024E030E042E050E01C3084
:1026D00051F026E030E0103321F0103FA9F428E05B
:1026E00030E044E050E06EEE76E0CE0101960E94CC
:1026F0003E12BE016F5F7F4FCE0107960E94C81049
:10270000CE0101960E941311CE0107960E94270E5A
:102710006B01CE0107960E941311C6012C960FB6CD
:10272000F894DEBF0FBECDBFDF91CF911F91FF9018
:10273000EF90DF90CF900895EF92FF920F931F9349
:10274000CF93DF93CDB7DEB762970FB6F894DEBFB5
:102750000FBECDBF7C018B0177FF03C011950195A2
:102760001109B801C7010E94E111083E83E0180772
:102770000CF082C0B801CE010D960E94E1116FE30A
:1027800073E0CE0101960E942D12BE016F5F7F4F54
:10279000CE0107960E942412BE01635F7F4FCE01D7
:1027A00007960E94A311BC01C7010E940D12CE0121
:1027B00007960E941311CE0101960E941311CE01BB
:1027C0000D960E941311043611050CF055C0B80186
:1027D000CE010D960E94E1116EE373E0CE010196E9
:1027E0000E942D12BE016F5F7F4FCE0107960E949F
:1027F0002412BE01635F7F4FCE0107960E94A31192
:10280000BC01C7010E940D12CE0107960E94131150
:10281000CE0101960E941311CE010D960E94131154
:102820000A3011054CF5B801CE010D960E94E11158
:102830006DE373E0CE0101960E942D12BE016F5F21
:102840007F4FCE0107960E942412BE01635F7F4F27
:10285000CE0107960E94A311BC01C7010E940D1270
:10286000CE0107960E941311CE0101960E9413110A
:10287000CE010D960E941311C70162960FB6F8940F
:10288000DEBF0FBECDBFDF91CF911F910F91FF90A3
:10289000EF9008950F931F93CF93DF93CDB7DEB7DB
:1028A00062970FB6F894DEBF0FBECDBF8C0177FFE5
:1028B00003C07195619571096A307105A4F5CE0167
:1028C0000D960E94E1116FE373E0CE0101960E9424
:1028D0002D12BE016F5F7F4FCE0107960E9424121A
:1028E000BE01635F7F4FCE0107960E94A311BC011A
:1028F000C8010E942412CE0107960E941311CE0136
:1029000001960E941311CE010D960E941311C80169
:1029100062960FB6F894DEBF0FBECDBFDF91CF91A8
:102920001F910F910895C8010E94E111F0CF0F93FC
:102930001F93CF93DF93CDB7DEB768970FB6F894A8
:10294000DEBF0FBECDBF8B018330D9F52091F206DB
:102950003091F30642E050E06EEE76E0CE010D9647
:102960000E943E12B801CE0101960E944A14BE0197
:102970006F5F7F4FCE0107960E942412BE01635FF6
:102980007F4FCE0107960E94A311BC018EEE96E008
:102990000E940D12CE0107960E941311CE010196DE
:1029A0000E941311CE010D960E94131168960FB666
:1029B000F894DEBF0FBECDBFDF91CF911F910F9175
:1029C00008958C3009F042C02091F2063091F30650
:1029D00044E050E06EEE76E0CE0143960E943E1257
:1029E000B801CE010D960E944A1422E030E050E07A
:1029F00040E06EEE76E0CE0101960E943E12BE01EE
:102A00006F5F7F4FCE0107960E942412BE01635F65
:102A10007F4FCE0107960E94A311BE016D5E7F4FCE
:102A20000E94A311BC018EEE96E00E940D12CE0111
:102A300007960E941311CE0101960E941311CE0138
:102A40000D960E941311CE014396AECF2091F2064F
:102A50003091F30646E050E0803349F0803F09F0C2
:102A6000A5CF2091F2063091F30648E050E06EEEDB
:102A700076E0CE0143960E943E12B801CE010D963B
:102A80000E944A1424E030E0B2CF0E94F405609323
:102A90009B0470939C0480939D0490939E0480916A
:102AA0009A04882309F44FC0209198043091990426
:102AB000C901880F991F21313105A1F1FC01E95CA1
:102AC000FE4F408151814150510951834083DC01C7
:102AD000A95CBE4F6D917C911197FC01E15AFE4FAC
:102AE00040815181641775073CF4FC01E957FE4FA2
:102AF000408151814D935C932031310509F520913E
:102B000057013091580121303105B9F420E8209364
:102B1000D804895C9E4FFC01608171818091E8043A
:102B20000C9497144091590150915A014C505109FD
:102B300050935A0140935901CACF1092D804E9CF5B
:102B40002930310531F708950E94F40560939B0404
:102B500070939C0480939D0490939E0480919A04AA
:102B6000882309F444C02091980430919904C90144
:102B7000880F991F2131310561F1FC01E95CFE4F9D
:102B8000408151814F5F5F4F51834083DC01A95CDD
:102B9000BE4F6D917C911197FC01E957FE4F40812A
:102BA0005181461757073CF4FC01E15AFE4F408122
:102BB00051814D935C9320313105B1F41092D804CA
:102BC000895C9E4FFC01608171818091E8040C94C6
:102BD00097144091590150915A01445F5F4F5093AF
:102BE0005A0140935901D2CF2930310549F7089550
:102BF0000F931F93CF93DF93CDB7DEB768970FB6D0
:102C0000F894DEBF0FBECDBF8C0180915901909129
:102C10005A01489709F048C00E945A08BC01CE01E9
:102C200043960E944A140E946208BC01CE010D9690
:102C30000E944A140E946A08BC01CE0101960E94BB
:102C40004A14BE016F5F7F4FCE0107960E94241287
:102C5000BE01635F7F4FCE0107960E94A311BE01A4
:102C60006D5E7F4F0E94A311BC01C8010E94241217
:102C7000CE0107960E941311CE0101960E941311F6
:102C8000CE010D960E941311CE0143960E9413119E
:102C9000C80168960FB6F894DEBF0FBECDBFDF91B6
:102CA000CF911F910F9108950E945A08BC01CE0147
:102CB00043960E944A140E946208BC01CE010D9600
:102CC0000E944A140E9401070E9447078091430511
:102CD0006CE070E0882309F4B0CF682F70E08D308D
:102CE00008F4ABCF6C507109A8CF8F929F92AF922E
:102CF000BF92CF92DF92EF92FF920F931F93CF93E9
:102D0000DF93CDB7DEB72C970FB6F894DEBF0FBEBA
:102D1000CDBF8C016A017B018091CA04811111C071
:102D20000E94F405645B7B4F8F4F9F4F6093C604F6
:102D30007093C7048093C8049093C90481E0809382
:102D4000CA048091BE04811109C06AE373E088EB74
:102D500094E00E942D1281E08093BE040E94F4054D
:102D60008090C6049090C704A090C804B090C90495
:102D7000681979098A099B09693E734081059105A3
:102D800008F4FDC00E94F4056093C6047093C70464
:102D90008093C8049093C90420E030E040E251E4FD
:102DA000C701B6010E94F32E6B017C0120E030E0E8
:102DB000A9010E94BB3020E030E040E05FE387FDE6
:102DC000F7C0C701B6010E9419300E9485307B010F
:102DD00077FF04C0EE24FF24E61AF70A5B0139E10D
:102DE000A31A3CEFB30A80915B0190915C019B01B7
:102DF0002D593F4F69012A5531094901B701892BE6
:102E000009F0DBC0CE0107960E94E1116FE373E089
:102E1000CE0101960E942D12BE01695F7F4FCE0147
:102E200001960E94A3116FE373E00E948D11BC0113
:102E300088EB94E00E940D12CE0101960E941311BE
:102E4000CE0107960E9413113FECA31637E0B3069C
:102E500018F5B701CE0107960E94E1116EE373E009
:102E6000CE0101960E942D12BE01695F7F4FCE01F7
:102E700001960E94A3116FE373E00E948D11BC01C3
:102E800088EB94E00E940D12CE0101960E9413116E
:102E9000CE0107960E94131187ECC816D10418F5CD
:102EA000B701CE0107960E94E1116DE373E0CE01F8
:102EB00001960E942D12BE01695F7F4FCE010196DF
:102EC0000E94A3116FE373E00E948D11BC0188EB97
:102ED00094E00E940D12CE0101960E941311CE01C2
:102EE00007960E94131123E18216910418F5B70189
:102EF000CE0107960E94E1116CE373E0CE010196CA
:102F00000E942D12BE01695F7F4FCE0101960E9483
:102F1000A3116FE373E00E948D11BC0188EB94E074
:102F20000E940D12CE0101960E941311CE01079648
:102F30000E94131180915B0190915C01892B09F033
:102F4000D3C097E3F92E61E173E0CE0101960E94B0
:102F50002D1268EB74E0CE0101960E94A3116EE37E
:102F600073E00E948D116F2D0E946F11BC0188EBE0
:102F700094E00E940D12CE0101960E94131168EB9D
:102F800074E0C8010E942412C8012C960FB6F89470
:102F9000DEBF0FBECDBFDF91CF911F910F91FF908C
:102FA000EF90DF90CF90BF90AF909F908F9008955B
:102FB000C701B6010E94183008CFCE0107960E94C3
:102FC000E1116FE373E0CE0101960E942D12BE0164
:102FD000695F7F4FCE0101960E94A3116FE373E0FA
:102FE0000E948D11BC0188EB94E00E940D12CE016D
:102FF00001960E941311CE0107960E9413113FEC17
:10300000A31637E0B30638F5C7016AE070E00E9406
:10301000CC30CE0107960E94E1116EE373E0CE0141
:1030200001960E942D12BE01695F7F4FCE0101966D
:103030000E94A3116EE373E00E948D11BC0188EB26
:1030400094E00E940D12CE0101960E941311CE0150
:1030500007960E94131187ECC816D10438F5C701F2
:103060006AE070E00E94CC30CE0107960E94E11128
:103070006DE373E0CE0101960E942D12BE01695FDF
:103080007F4FCE0101960E94A3116EE373E00E9470
:103090008D11BC0188EB94E00E940D12CE010196C7
:1030A0000E941311CE0107960E94131123E182168C
:1030B000910408F03FCFC7016AE070E00E94CC3075
:1030C000CE0107960E94E1116CE373E0CE010196F8
:1030D0000E942D12BE01695F7F4FCE0101960E94B2
:1030E000A3116EE373E017CF82E3F82E2CCF85EDAA
:1030F0008093BC008091C4059091C505A091C60540
:10310000B091C7050796A11DB11D23E0B695A795FF
:10311000979587952A95D1F72091BC0024FD03C08F
:103120001092C20508954091C4055091C505609163
:10313000C6057091C705452B462B472B69F30097B1
:10314000A105B10541F025E32A95F1F700000197AB
:10315000A109B109E1CF8091C3050C9426090C9413
:10316000B92F0C94B12F88E090E00E94B118682F1D
:1031700070E089E00E94400589E090E00E94B1186B
:10318000682F70E086E00E9440058AE090E00E948F
:10319000B118682F70E083E00C9440058F929F92E5
:1031A000AF92BF92CF92DF92EF92FF920F931F9355
:1031B000CF93DF93CDB7DEB7EC970FB6F894DEBFB1
:1031C0000FBECDBF0E94F40520E137E240E050E0A1
:1031D0000E94E030672B682B692B01F58091780500
:1031E0008823E1F00E94420DE0907605F09077058B
:1031F0000091740510917505209172053091730549
:103200004091790550917A05609170057091710532
:1032100080916E0590916F050E9425061092910491
:103220001092900410928F0410928E0410928D04CC
:1032300010928C0400916A0510916B05F801808151
:10324000882309F409C10E94F405C0901804D090A5
:103250001904E0901A04F0901B046C197D098E0982
:103260009F09C0901404D0901504E0901604F090CB
:103270001704C616D706E806F90608F0EDC00E9446
:10328000F4054B015C018092180490921904A092FD
:103290001A04B0921B04680130E020E04AE0F80113
:1032A000F1908F0180ED8F0D8A3070F4429FC00144
:1032B000439F900D11242F2DFF0C330B2053310908
:1032C000280F391F6F01EBCF30939704209396049A
:1032D000609192047091930480919404909195046C
:1032E0002115310501F1032E000C440B550B0E94F2
:1032F0000231209314043093150440931604509324
:103300001704EFE9EF0DE730A0F40E2E000CFF0BD1
:10331000E457F64E0C942131161D181D0A1D0E1D82
:10332000101D121D141D20910B0130E050E040E0F3
:10333000DECF10921304F6018181833241F4809133
:1033400013048F5F8093130486010E5F1F4FF801F3
:1033500080818E32F1F4C0901404D0901504E09076
:103360001604F0901704C701B60122E030E040E0F7
:1033700050E00E940231C20ED31EE41EF51EC09220
:103380001404D0921504E0921604F09217040F5F13
:103390001F4FF801808180538A3008F04BC380931F
:1033A00012040F5F1F4FF80180818C3211F40F5F00
:1033B0001F4FE0911304EE2309F44EC0C090140493
:1033C000D0901504E0901604F09017048091120438
:1033D0008450990B4CE0489F9001499F300D112477
:1033E000E20FF32FF11DEE0FFF1FE353FE4FB70166
:1033F000A601808191810E947A030E94F4056819D8
:1034000079098A099B09C616D706E806F90620F548
:103410000E94F405609318047093190480931A04B1
:1034200090931B048091F905813009F408C3823020
:1034300009F40BC3811105C080916E008D7F8093CC
:103440006E0060E08091F8050E94100388E690E02D
:103450000E941B0E10E000E010936B0500936A05BC
:103460000E94F405009188041091890420918A0437
:1034700030918B04601B710B820B930B66307105CE
:1034800081059105E8F080910E018111E4C270E0A0
:1034900060E089E00E94400570E060E086E00E9404
:1034A000400570E060E083E00E9440050E94F40562
:1034B000609388047093890480938A0490938B04AA
:1034C0008091980490919904892B21F08091870430
:1034D0008111DBC180919A048111D7C1809132049E
:1034E00081110DC00E94F40560932E0470932F0487
:1034F000809330049093310481E080933204809172
:10350000260481110DC00E94F4056093220470937B
:103510002304809324049093250481E0809326045F
:103520000E94F40500912E0410912F042091300484
:1035300030913104601B710B820B930B00910001E1
:103540001091010120910201309103010617170724
:103550002807390708F04DC00E94F40560932E0437
:1035600070932F0480933004909331048091200451
:1035700090912104009709F0DAC281E090E09093E5
:1035800099048093980488E893E1A0E0B0E08093E8
:10359000000190930101A0930201B0930301809177
:1035A0002004909121048230910581F410929904B5
:1035B0001092980440E65AEE60E070E040930001FB
:1035C00050930101609302017093030101968330CF
:1035D00091050CF0CCC2909321048093200480913B
:1035E0008704882321F01092990410929804109275
:1035F00087040E94F40500912E0410912F0420915D
:10360000300430913104601B710B820B930B603DD1
:1036100077408105910508F07CC30E94F405009174
:103620002204109123042091240430912504601B6E
:10363000710B820B930B653671058105910508F4BA
:1036400024C10E94F40560932204709323048093A4
:1036500024049093250480919804909199042091DA
:103660006105222309F488C2892B89F5CE01499688
:103670000E94F81581E020915B0130915C01232BC1
:1036800009F480E00E940C0CAB01BC01CE01019654
:103690000E947516AE01475E5F4FBE016F5F7F4FA0
:1036A000CE014F960E948A12BE01615E7F4F8EEE60
:1036B00096E00E94C810CE014F960E941311CE01D1
:1036C00001960E941311CE0149960E941311809118
:1036D000980490919904019709F062C00E944008F3
:1036E00068EE73E00E94CC30BC01CE018B960E9444
:1036F0004A140E944A08BC01CE0185960E944A14D1
:103700000E945208BC01CE0149960E944A14BE0193
:10371000675E7F4FCE014F960E942412BE016B5D03
:103720007F4FCE014F960E94A311BE01655D7F4F72
:103730000E94A311BC01CE01C1960E942412CE01A9
:1037400001960E94F815AE014F5C5F4FBE016F5F9E
:103750007F4FCE01C7960E948A12BE01695C7F4FDF
:103760008EEE96E00E94C810CE01C7960E941311FB
:10377000CE0101960E941311CE01C1960E94131131
:10378000CE014F960E941311CE0149960E9413114B
:10379000CE0185960E941311CE018B960E941311C3
:1037A0008091980490919904049709F06EC081E08B
:1037B00020915B0130915C01232B09F480E00E9491
:1037C0000C0CAB01BC01CE01C1960E9475160E9483
:1037D000400868EE73E00E94CC30BC01CE018596B3
:1037E0000E944A140E944A08BC01CE014F960E94D2
:1037F0004A140E945208BC01CE0101960E944A144C
:10380000BE016F5F7F4FCE0149960E942412BE0118
:10381000615E7F4FCE0149960E94A311BE016B5D90
:103820007F4F0E94A311BC01CE018B960E942412EF
:10383000AE014F5C5F4FBE01655D7F4FCE01C79605
:103840000E948A12BE01695C7F4F8EEE96E00E9454
:10385000C810CE01C7960E941311CE018B960E940C
:103860001311CE0149960E941311CE0101960E94B8
:103870001311CE014F960E941311CE0185960E941E
:103880001311CE01C1960E9413110E94320E85EDD4
:1038900096E00E9472088CEB96E00E94720883EA20
:1038A00096E00E94720880919A04811135C21092AC
:1038B000E8048091D5069091D606181619063CF0BA
:1038C0008091900490919104019709F068C381E080
:1038D0008093870410926B0510926A0544E650E0CD
:1038E00060E070E088EE93E00E947A030E94F405A5
:1038F00060939B0470939C0480939D0490939E041A
:10390000809198049091990401968530910509F46D
:1039100030C2909399048093980480919804909178
:103920009904069721F4109299041092980420911A
:103930009804309199048901000F111FF801E15F8B
:10394000FE4F80818093E804D9011197FD01EE0FAD
:10395000FF1FE558FD4F608171816115710509F404
:103960000FC3AB0141505109FA01EE0FFF1FED5A91
:10397000FD4F0190F081E02DAE17BF0709F000C3A5
:103980006230710509F0F8C188E1E5EBF1E0DE0194
:10399000119601900D928A95E1F780914F019091D7
:1039A000500183709927892B21F48DE190E09C834D
:1039B0008B8380914D0190914E010197880F991F43
:1039C000E1E0F0E0EC0FFD1F8E0F9F1F20914B01F7
:1039D00030914C01FC0180819181821793070CF09A
:1039E000CBC18AE090E09093990480939804EC9680
:1039F0000FB6F894DEBF0FBECDBFDF91CF911F9100
:103A00000F91FF90EF90DF90CF90BF90AF909F907D
:103A10008F90089581E0809313048DCC83E0FBCFD9
:103A200085E0F9CF86E0F7CF88E0F5CF8AE0F3CFE5
:103A30008CE0F1CF80910A0180931204B4CC809184
:103A40006F008D7F80936F00FCCC809170008D7F24
:103A500080937000F6CC80917B05811127CD009179
:103A60001E0410911F04F801EE0FFF1FE00FF11F5D
:103A7000DF01AA0FBB1FA15DBD4F8D919C9160918D
:103A8000060170910701680F791F70930701609319
:103A90000601DF01AA0FBB1FAF5CBD4FCD90DC90CC
:103AA00080917D0490917E04C80ED91ED0927E0430
:103AB000C0927D04EE0FFF1FED5CFD4FE080F180B2
:103AC00080917B0490917C04E80EF91EF0927C04B6
:103AD000E0927B0489E00E944005B60186E00E94E6
:103AE0004005B70183E00E94400580911C0490913D
:103AF0001D04019690931D0480931C048F3F910533
:103B000051F40F5F1F4F10931F0400931E04109277
:103B10001D0410921C0480911E0490911F040697AE
:103B20000CF4C4CC10921F0410921E04BFCC019759
:103B300009F035CD84E090E0909399048093980447
:103B400088E893E1A0E0B0E0809300019093010148
:103B5000A0930201B0930301809161058111BFC759
:103B600082E090E0909321048093200418CD10927D
:103B700021041092200433CD892B09F062C0CE01BC
:103B8000C1960E94F8150E94400868EE73E00E94FA
:103B9000CC30BC01CE0185960E944A140E944A088E
:103BA000BC01CE014F960E944A140E945208BC01EB
:103BB000CE0101960E944A14BE016F5F7F4FCE0175
:103BC00049960E942412BE01615E7F4FCE01499644
:103BD0000E94A311BE016B5D7F4F0E94A311BC0127
:103BE000CE018B960E942412AE014F5C5F4FBE0146
:103BF000655D7F4FCE01C7960E948A12BE01695C47
:103C00007F4F8EEE96E00E94C810CE01C7960E94AC
:103C10001311CE018B960E941311CE0149960E947A
:103C20001311CE0101960E941311CE014F960E94EE
:103C30001311CE0185960E941311CE01C1960E94E8
:103C400013118091980490919904019709F01DCE69
:103C50000E94400868EE73E00E94CC30BC01CE01A7
:103C60008B960E944A140E944A08BC01CE01859698
:103C70000E944A140E945208BC01CE0149960E943B
:103C80004A14BE01675E7F4FCE014F960E942412F8
:103C9000BE016B5D7F4FCE014F960E94A311BE0106
:103CA000655D7F4F0E94A311BC01CE01C1960E94A9
:103CB0002412CE0101960E94F815AE014F5C5F4FB1
:103CC000BE016F5F7F4FCE01C7960E948A12BE0170
:103CD000695C7F4F8EEE96E00E94C810CE01C796B9
:103CE0000E941311CE0101960E941311CE01C196BC
:103CF0000E941311CE014F960E941311CE014996D6
:103D00000E941311CE0185960E941311CE018B964D
:103D1000BACD1092B704B9CD0E94F40500919B046E
:103D200010919C0420919D0430919E04601B710BA6
:103D3000820B930B61367A4E8105910508F4B9CD5B
:103D400010929A04E0919804F0919904EE0FFF1FED
:103D5000ED55FD4F80819181909399048093980453
:103D6000880F991FFC01E15FFE4F80818093E8047A
:103D7000A0CD86E090E0CDCD10929A0450939904A6
:103D800040939804452BB9F40E9440087C010E949E
:103D90004A088C010E945208409147015091480105
:103DA00060914501709146019C0180914301909181
:103DB00044010E94250680919804909199040197EE
:103DC000F9F4E0904F01F090500100914D011091F5
:103DD0004E0180904B0190904C010E945A085C016A
:103DE0000E9462086C010E946A089401A501B60154
:103DF0000E942506609149018DE090E00E94AF1875
:103E000080919804909199040297C1F460915101B6
:103E100082E090E00E94AF186091530183E090E04F
:103E20000E94AF186091550184E090E00E94AF18A5
:103E30006091570186E090E00E94AF18809198044D
:103E400090919904039731F46091590181E090E0D9
:103E50000E94AF188091980490919904049731F4CE
:103E600060915B018BE090E00E94AF188091980414
:103E700090919904059749F460915D0180918501C5
:103E8000681B8CE090E00E94AF180E94400868EE2A
:103E900073E00E94CC30082F0E944A08F82E0E943E
:103EA0005208E82E0E945A08B82E0E946208C82EB6
:103EB0000E946A08D82E81E08093C80588E6809326
:103EC000EA051092C9051092EB0560E087E996E0DB
:103ED0000E94540B1AE08B2D612F0E94C0308295F6
:103EE000807F682F690F87E996E00E94540B8C2D24
:103EF000612F0E94C0308295807F682F690F87E90B
:103F000096E00E94540B8D2D612F0E94C030829547
:103F1000807F682F690F87E996E00E94540B61E06B
:103F200087E996E00E94540B8E2D612F0E94C030CD
:103F30008295807F682F690F87E996E00E94540B75
:103F40008F2D612F0E94C0308295807F682F690F6E
:103F500087E996E00E94540B802F612F0E94C030A9
:103F60008295807F682F690F87E996E00E94540B45
:103F700060E087E996E00E94540B0E94470937CD24
:103F80002331310561F0295031092230310538F0F3
:103F90000E944713F801E95CFE4F91838083809172
:103FA000D5069091D60697FD07C080919004909118
:103FB0009104019609F0F4C044E650E060E070E03E
:103FC00088EE93E00E947A0380919A04811152C096
:103FD00000919804109199040E94F40560939B0449
:103FE00070939C0480939D0490939E04012B09F090
:103FF00041C00E945A08BC01CE0185960E944A1415
:104000000E946208BC01CE014F960E944A140E9491
:104010006A08BC01CE0101960E944A14BE016F5F7E
:104020007F4FCE0149960E942412BE01615E7F4FF0
:10403000CE0149960E94A311BE016B5D7F4F0E9485
:10404000A31166E173E00E948D11BC018EEE96E033
:104050000E940D12CE0149960E941311CE010196C5
:104060000E941311CE014F960E941311CE01859626
:104070000E9413118091980490919904019709F07E
:1040800056C00E94520890934C0180934B010E94AD
:104090004A0890934E0180934D010E944008BC0154
:1040A0009093500180934F018091490190914A0172
:1040B000892B09F099C1CE0185960E944A1460911E
:1040C0004D0170914E01CE014F960E944A146091AD
:1040D0004B0170914C01CE0101960E944A14BE0121
:1040E0006F5F7F4FCE0149960E942412BE01615E30
:1040F0007F4FCE0149960E94A311BE016B5D7F4F99
:104100000E94A311BC018EEE96E00E940D12CE011A
:1041100049960E941311CE0101960E941311CE01FF
:104120004F960E941311CE0185960E941311E091C3
:104130009804F0919904EE0FFF1FED55FD4F20817B
:10414000318130939904209398042D30310549F43E
:1041500081E090E0909358018093570180E880932C
:10416000D80480919A0491E0892780939A04890168
:10417000000F111FF801E15FFE4F80818093E8047A
:10418000A901425151094230510550F02930310501
:1041900039F00E944713F801E95CFE4F9183808358
:1041A0008091BC069091BD06009709F02EC18091C8
:1041B0008E0490918F040197E1F481E0809387044D
:1041C00010926B0510926A0544E650E060E070E0E2
:1041D00088EE93E00E947A030E94A41580919A04CD
:1041E000811107C010927B0560E087E090E00E949B
:1041F000AF188091850490918604019609F00EC154
:104200008091BE06882309F409C11092EA048091C6
:104210009A048823F9F00E94F4050091810410911A
:1042200082042091830430918404601B710B820B03
:10423000930B673971058105910560F00E94F405C3
:104240006093810470938204809383049093840428
:104250000E94A4158091A3069091A406009709F0EE
:10426000E1C080918C0490918D04019771F511E06B
:104270001093870410926B0510926A0544E650E093
:1042800060E070E088EE93E00E947A030E9445159A
:1042900080919A04811119C010937B0561E087E039
:1042A00090E00E94AF186091060188E090E00E94C3
:1042B000AF1860917D0489E090E00E94AF18609192
:1042C0007B048AE090E00E94AF1880917F04909177
:1042D0008004019609F0AFC08091A506882309F4F7
:1042E000AAC080919A041092E904882321F10E94C7
:1042F000F4050091770410917804209179043091AD
:104300007A04601B710B820B930B67397105810571
:10431000910508F449C00E94F405609377047093F6
:1043200078048093790490937A040E9445158091D3
:104330009A04811139C08091BC069091BD0697FD09
:1043400006C080918E0490918F04019691F444E60A
:1043500050E060E070E088EE93E00E947A0381E034
:1043600080930E0161E090E080E00E94AF180E940F
:10437000B3188091A3069091A40697FD06C0809182
:104380008C0490918D04019679F444E650E060E04D
:1043900070E088EE93E00E947A0310920E0160E0D4
:1043A00090E080E00E94AF18E0919804F0919904A9
:1043B000E431F10508F01BCBE052FE4D0C942131A5
:1043C0001F220423FC2348247324B724F71CF71C62
:1043D000F71CE824112511251125F71CF71CF71CE3
:1043E000F71CF71C7324B724CE0185960E944A144B
:1043F00060914B0170914C01CE014F960E944A147E
:1044000060914D0170914E0166CE90938604809329
:104410008504181619060CF4D0CEC9CE81E080931D
:10442000EA0418CF9093800480937F04181619062D
:104430000CF41DCF16CF81E08093E90478CF8091F2
:10444000B7048111CBC00E945A0820910401309119
:1044500005018217930709F4D0C00E945A0890936F
:1044600005018093040100915B0110915C0181E0E2
:104470000115110509F480E00E940C0C6B017C0110
:1044800080914C04811111C00E94F405645B7B4F44
:104490008F4F9F4F609348047093490480934A0460
:1044A00090934B0481E080934C04809140048111EF
:1044B00009C061E173E08AE394E00E942D1281E07B
:1044C000809340040E94F405809048049090490431
:1044D000A0904A04B0904B04681979098A099B0995
:1044E000693E73408105910508F444C00E94F405BB
:1044F000609348047093490480934A0490934B045A
:10450000012B09F073C017E320E030E0A901C701D7
:10451000B6010E94BB3020E030E040E05FE387FD61
:1045200067C0C701B6010E9419300E94853024E699
:1045300030E040E050E00E940231CE0149960E94F6
:104540004A14BE01675E7F4FCE0101960E9424127D
:10455000612FCE0101960E946F11BC018AE394E0A5
:104560000E940D12CE0101960E941311CE014996B0
:104570000E9413116AE374E0CE0101960E94241296
:10458000CE014F960E94F815BE01615E7F4FCE01AD
:1045900049960E942412BE016F5F7F4FCE0149965B
:1045A0000E94A311BC01CE0185960E942412CE0167
:1045B00049960E941311CE014F960E941311CE010D
:1045C00001960E941311BE016B5D7F4F8EEE96E047
:1045D0000E94C810CE0185960E9413110E945A08AD
:1045E00080FD7CC180EC8093D8047AC112E38CCF2B
:1045F000C701B6010E94183098CF6EEE76E0CE016A
:1046000085960E942412DFCF8091B7048111E1C00A
:1046100080916F04811111C00E94F40567517C4F95
:104620008F4F9F4F60936B0470936C0480936D0465
:1046300090936E0481E080936F04809163048111F4
:1046400044C00E94400868EE73E00E94CC30BC0178
:10465000CE0101960E944A140E944A08BC01CE0174
:1046600049960E944A140E945208BC01CE018596C8
:104670000E944A14BE016B5D7F4FCE014F960E948F
:104680002412BE01675E7F4FCE014F960E94A31198
:10469000BE016F5F7F4F0E94A311BC018DE594E0C6
:1046A0000E94241281E080936304CE014F960E9401
:1046B0001311CE0185960E941311CE0149960E94D6
:1046C0001311CE0101960E9413110091490110911E
:1046D0004A0180915504811105C00093540481E082
:1046E000809355040E94F405C0906B04D0906C0434
:1046F000E0906D04F0906E046C197D098E099F099D
:10470000693E73408105910530F48091540480170F
:10471000110609F44DC00E94F40560936B04709378
:104720006C0480936D0490936E04012B09F053C0C8
:104730000E944008BC01CE0101960E944A140E94CA
:104740004A08BC01CE0149960E944A140E945208B0
:10475000BC01CE0185960E944A14BE016B5D7F4F5D
:10476000CE014F960E942412BE01675E7F4FCE019C
:104770004F960E94A311BE016F5F7F4F0E94A3114D
:1047800069E30E946F11BC018DE594E00E940D1257
:10479000CE014F960E941311CE0185960E941311EF
:1047A000CE0149960E941311CE0101960E94131169
:1047B0006DE574E0CE0101960E942412BE016F5F88
:1047C0007F4F8EEE96E00E94C810CE0101960E94A7
:1047D000131180E408CF0E944008BC01CE0101966D
:1047E0000E944A140E945208BC01CE0149960E94C0
:1047F0004A140E944A08ACCF60915501709156014D
:10480000CE0185960E944A14609153017091540123
:10481000CE014F960E944A1460915101709152014D
:10482000CE0101960E944A14BE016F5F7F4FCE01F8
:1048300049960E942412BE01615E7F4FCE014996C7
:104840000E94A311BE016B5D7F4F0E94A31166E120
:1048500073E00E948D11BC018EEE96E00E940D1255
:10486000CE0149960E941311CE0101960E941311A8
:10487000CE014F960E941311CE0185960E9413110E
:104880008091570190915801019741F580E8ABCE96
:104890006091590170915A01CE0149960E94E1112F
:1048A0006EE373E0CE0101960E942D12BE01675E99
:1048B0007F4FCE0101960E94A31164E173E00E9434
:1048C0008D11BC018EEE96E00E940D12CE01019674
:1048D0000E941311CE0149960E9413111092D80420
:1048E0000E94640C84C88091B704811124C081E0C7
:1048F00020915B0130915C01232B09F480E00E9440
:104900000C0CAB01BC01CE0101960E947516BE01D4
:104910006F5F7F4F8EEE96E00E94C810CE01019629
:104920000E94131180915B0190915C01892BD1F45D
:1049300080E48093D80481E020915B0130915C0198
:10494000232B09F480E00E940C0C1091D80420E085
:1049500030E0A9010E948D2E87FF07C010681093D8
:10496000D80445C81092D804E6CF1F77F8CF6091DD
:104970005D0170915E01CE0101960E944A14BE0154
:104980006F5F7F4FCE0149960E94241262E173E06F
:10499000CE0149960E948D11BC018EEE96E00E94D8
:1049A0000D12CE0149960E941311CE0101960E946C
:1049B000131180915D0190915E0197FD04C01092EA
:1049C000D8040C94F71C80E88093D8040C94F71C4E
:1049D0008091490190914A01892BA1F46AE173E029
:1049E0008EEE96E00E94D71183E090E09093240130
:1049F000809323018CE090E0909326018093250121
:104A00000C94F71C64E273E08EEE96E00E94D711DE
:104A10008CE090E0909324018093230183E090E068
:104A2000EBCF60914F0170915001809149019091BD
:104A30004A01892B09F042C0CE0185960E949C1341
:104A400060914D0170914E01CE014F960E944A1423
:104A500060914B0170914C01CE0101960E944A1465
:104A6000BE016F5F7F4FCE0149960E942412BE01A6
:104A7000615E7F4FCE0149960E94A311BE016B5D1E
:104A80007F4F0E94A31168E173E00E948D11BC0169
:104A90008EEE96E00E940D12CE0149960E941311EF
:104AA000CE0101960E941311CE014F960E94131160
:104AB000CE0185960E9413110C94F71CCE018596A9
:104AC0000E949C1360914B0170914C01CE014F9656
:104AD0000E944A1460914D0170914E01BDCF81E05A
:104AE00090E00C94E61A1F920F920FB60F921124C9
:104AF0002F933F934F935F936F937F938F939F93E6
:104B0000AF93BF93EF93FF938AEF95E00E94140257
:104B1000FF91EF91BF91AF919F918F917F916F9195
:104B20005F914F913F912F910F900FBE0F901F906B
:104B300018951F920F920FB60F9211242F938F93F7
:104B40009F93EF93FF93E0910A06F0910B0680810B
:104B5000E0911006F091110682FD1BC090818091BA
:104B600013068F5F8F7320911406821741F0E09136
:104B70001306F0E0E650FA4F958F80931306FF91ED
:104B8000EF919F918F912F910F900FBE0F901F90DB
:104B900018958081F4CF1F920F920FB60F921124B7
:104BA0002F933F938F939F93AF93BF93809149052A
:104BB00090914A05A0914B05B0914C053091480564
:104BC00023E0230F2D3758F50196A11DB11D209329
:104BD00048058093490590934A05A0934B05B093EF
:104BE0004C0580914D0590914E05A0914F05B091D7
:104BF00050050196A11DB11D80934D0590934E0562
:104C0000A0934F05B0935005BF91AF919F918F91A5
:104C10003F912F910F900FBE0F901F90189526E88F
:104C2000230F0296A11DB11DD2CF1F920F920FB676
:104C30000F9211242F933F938F939F93AF93BF9322
:104C4000EF93FF938091EC059091ED05A091EE0517
:104C5000B091EF050097A105B10531F130915505EF
:104C6000E0915605F09157052081232720831816DF
:104C700019061A061B061CF40197A109B1098093B5
:104C8000EC059093ED05A093EE05B093EF05FF9131
:104C9000EF91BF91AF919F918F913F912F910F9085
:104CA0000FBE0F901F901895209170002D7F2093BC
:104CB000700020915505E0915605F091570530811F
:104CC000209523232083DBCF1F920F920FB60F92E4
:104CD00011248F939F93AF93BF93EF93FF93809192
:104CE000F0059091F105A091F205B091F305892BA3
:104CF0008A2B8B2BA1F190915805E0915905F091E9
:104D00005A058081892780838091F0059091F10573
:104D1000A091F205B091F305181619061A061B06A4
:104D20009CF48091F0059091F105A091F205B0916D
:104D3000F3050197A109B1098093F0059093F1055E
:104D4000A093F205B093F305FF91EF91BF91AF915E
:104D50009F918F910F900FBE0F901F90189580918B
:104D60006F008D7F80936F0080915805E091590509
:104D7000F0915A059081809589238083E5CF1F9219
:104D80000F920FB60F9211248F939F93AF93BF93FF
:104D9000EF93FF938091F4059091F505A091F605AE
:104DA000B091F705892B8A2B8B2BA1F190915B0594
:104DB000E0915C05F0915D05808189278083809179
:104DC000F4059091F505A091F605B091F705181638
:104DD00019061A061B069CF48091F4059091F505BE
:104DE000A091F605B091F7050197A109B10980934B
:104DF000F4059093F505A093F605B093F705FF91A0
:104E0000EF91BF91AF919F918F910F900FBE0F9037
:104E10001F90189580916E008D7F80936E00809119
:104E20005B05E0915C05F0915D059081809589239B
:104E30008083E5CF1F920F920FB60F9211242F930C
:104E40003F934F935F936F937F938F939F93AF9312
:104E5000BF93EF93FF938091B900887F803609F468
:104E60004AC0F0F5883209F4A7C018F5803109F47A
:104E70009BC0B8F4882309F4F9C0883009F494C0C1
:104E8000FF91EF91BF91AF919F918F917F916F9122
:104E90005F914F913F912F910F900FBE0F901F90F8
:104EA0001895883109F488C0803251F78093C00585
:104EB00014C0803409F49DC040F48033B9F38833C2
:104EC000F9F68093C00585ECB0C0803509F485C043
:104ED000883509F496C0883499F60E947718D0CFA7
:104EE000883909F48CC038F5883729F050F48836B1
:104EF00011F0803729F683E08093C20510922E05C9
:104F000057C0883809F47BC0803919F0803809F01F
:104F1000B7CF80912E05803208F071C0E0912E0548
:104F200081E08E0F80932E058091BB00F0E0E25F60
:104F3000FA4F80833DC0803B39F0E0F4803A09F4B9
:104F400079C0883A09F09CCF84E08093C205109222
:104F50000D0510920C05E0915305F091540509954B
:104F600080910C0581110FC081E080930C05109297
:104F7000EC0409C0803C09F4A6CF883C09F4A3CF17
:104F8000883B09F07DCFE0910D0581E08E0F809385
:104F90000D05F0E0E451FB4F80818093BB009091C0
:104FA0000D0580910C0529C080919D058093BB0063
:104FB00085EC8093BC0064CF9091BF058091BE05C5
:104FC000981758F5E091BF0581E08E0F8093BF05DB
:104FD000F0E0E256FA4F8081E9CFE091BF0581E031
:104FE0008E0F8093BF058091BB00F0E0E256FA4F30
:104FF00080839091BF058091BE059817C8F285E81F
:10500000D8CFE091BF0581E08E0F8093BF058091DE
:10501000BB00F0E0E256FA4F80838091C105811118
:105020005CCF81E080939C0584EA8093BC00109261
:10503000C20526CF85EC8093BC001092C2058091FA
:105040002E05803230F4E0912E05F0E0E25FFA4F59
:10505000108260912E0570E0E0915105F0915205AB
:105060008EE095E0099510922E050ACF1092C005AA
:1050700034CFCF93DF93EC01862F6F87188A91E0AE
:10508000998B9A8B1C8A1B8A198218821A821D8A14
:105090001E8A1F8A188E44E150E060E070E04B8366
:1050A0005C836D837E834AEF50E060E070E04F8365
:1050B000588769877A8748EE53E060E070E04B8755
:1050C0005C876D877E8760E00E943E03888981113E
:1050D00006C061E08F85DF91CF910C941003DF91C2
:1050E000CF910895EAEFF5E01382128288EE93E003
:1050F000A0E0B0E084839583A683B7832FEE32E0EF
:105100003183208325EC30E03587248724EC30E0A0
:105110003787268720EC30E0318B208B21EC30E084
:10512000338B228B22EC30E0358B248B26EC30E065
:10513000378B268B118E128E138E148EE7E9F6E0D4
:105140001382128284839583A683B78381E093E0E0
:10515000918380836EE273E082E097E00E942D12DB
:1051600060E087E00E943E03EAE4F1E0E491A4EF0E
:10517000B6E0EC93E6E3F1E0E491F0E0EE0FFF1F20
:10518000EB5DFE4F8591949112969C938E931197AF
:105190001B961C921B971D961C921D971C961C9289
:1051A0001C971A961C921A9719961C921997189682
:1051B0001C92189717961C92179716961C92169782
:1051C00015961C92159714961C92149713961C9280
:1051D0006AE373E08EEE96E00E942D126EE085ED9C
:1051E00096E00E94392860E18CEB96E00E94392815
:1051F0006FE083EA96E00C943928CF93DF93CDB724
:10520000DEB7CE54D1090FB6F894DEBF0FBECDBFC6
:10521000789484B5826084BD84B5816084BD85B591
:10522000826085BD85B5816085BD80916E0081609D
:1052300080936E0010928100809181008260809343
:105240008100809181008160809381008091800045
:105250008160809380008091B10084608093B10070
:105260008091B00081608093B00080917A0084606A
:1052700080937A0080917A00826080937A00809196
:105280007A00816080937A0080917A0080688093B0
:105290007A001092C10010926D0510926C05109268
:1052A000C9051092EB050E94080983E991E09093EB
:1052B00054058093530584E991E0909352058093BF
:1052C0005105E0910A06F0910B0682E08083E0919F
:1052D0000606F09107061082E0910806F091090693
:1052E00080E1808310921206E0910E06F0910F0685
:1052F00086E08083E0910C06F0910D06808180614C
:105300008083E0910C06F0910D0680818860808397
:10531000E0910C06F0910D06808180688083E09119
:105320000C06F0910D0680818F7D808383E398E0E9
:105330009093A00180939F0181EE97E09093780174
:10534000809377019093500180934F0180EF90E01C
:10535000909328018093270181E090E00E94B1188A
:105360008C3009F4A2C188E190E090935A018093B7
:10537000590190E080E00E94B118882309F498C197
:1053800081E080930E0182E090E00E94B1188F3F8F
:1053900009F091C1109252011092510183E090E006
:1053A0000E94B1188F3F09F08CC1109254011092E5
:1053B000530184E090E00E94B1188F3F09F087C14B
:1053C000109256011092550186E090E00E94B118AB
:1053D0008F3F09F082C1109258011092570187E067
:1053E00090E00E94B1188F3F09F07DC110927B05BB
:1053F0008BE090E00E94B1188F3F09F07BC11092C2
:105400005C0110925B018CE090E00E94B1188F3F2C
:1054100059F02091850130918601820F932F911DC3
:1054200090935E0180935D018DE090E00E94B11841
:105430008F3F29F090E090934A018093490161E009
:1054400089E00E943E0361E086E00E943E0361E045
:1054500083E00E943E0380915E05833008F0BFC167
:1054600092E09093F805E82FF0E0E356FF4FE491C7
:10547000E093F9058F5F80935E05E13009F461C127
:1054800008F43EC1E23009F483C180910C0190918F
:105490000D010E94B90C90930D0180930C0161E005
:1054A0008AE00E943E0362E088E00E943E0388E0BA
:1054B0000E94E70221E0892B09F020E0209360059B
:1054C0001FB7F89480915F05811127C0E9E3F1E0EF
:1054D0008491EDE4F1E09491E82FF0E0EE0FFF1FEE
:1054E000E056FF4FA591B491EC91E92321F461E0DE
:1054F0008AE00E94100361E08AE00E943E038CB5BE
:1055000080618CBD8CB580648CBD61E08DE00E94B3
:105510003E0361E08BE00E943E0380915F058F5F58
:1055200080935F051FBF80916005882309F45BC1EC
:1055300089E791E00E94D80062E08EE00E943E037D
:1055400062E080E10E943E0362E08FE00E943E0341
:1055500061E082E00E943E0304E110E020E030E0E0
:105560000093D8061093D9062093DA063093DB0611
:105570004EE150E060E070E04093DC065093DD06C1
:105580006093DE067093DF0680ED97E0A0E0B0E068
:105590008093E0069093E106A093E206B093E306C1
:1055A0000093BF061093C0062093C1063093C20635
:1055B0004093C3065093C4066093C5067093C60615
:1055C0008093C7069093C806A093C906B093CA06F5
:1055D0000093A6061093A7062093A8063093A90669
:1055E0004093AA065093AB066093AC067093AD0649
:1055F0008093AE069093AF06A093B006B093B10629
:1056000089EF90E00E94830225E030E042E050E024
:1056100062E077E0CE0101967C010E943E1222E01A
:1056200030E041E050E062E077E0CE01875B9F4FE1
:105630000E943E12BE01675B7F4FCE018D5B9F4F84
:105640000E94241265E373E0CE018D5B9F4F0E94A0
:105650008D11B7010E94A311FC0144815581608125
:1056600071818AEF95E00E9496010E94130ECE018F
:105670008D5B9F4F0E941311CE01875B9F4F0E944D
:105680001311C7010E94131107ED10E042E2D42E5E
:10569000DA94DD2009F4A9C0F80164918AEF95E05D
:1056A0000E9436020F5F1F4FF3CF8CE090E05DCE7B
:1056B00010920E0168CE90E09093520180935101B8
:1056C0006DCE90E0909354018093530172CE90E0A0
:1056D000909356018093550177CE90E090935801B6
:1056E000809357017CCE91E0811101C090E09093AE
:1056F0007B057ECE90E090935C0180935B0183CE2E
:1057000014BC15BC84B5826084BD85B5816085BD3F
:105710008091F80590E0FC01E15DFE4FE491F0E03E
:10572000EE0FFF1FED56FF4F2591349130935D052D
:1057300020935C05FC01ED5BFE4FE491E0935B057B
:10574000A4CE109280001092810080918100886028
:10575000809381008091810081608093810080919D
:10576000F80590E0FC01E15DFE4FE491F0E0EE0F02
:10577000FF1FED56FF4F2591349130935A0520932A
:105780005905FC01ED5BFE4FE491E09358057DCE99
:105790001092B0001092B1008091B00082608093AE
:1057A000B0008091B10081608093B1008091F805D4
:1057B00090E0FC01E15DFE4FE491F0E0EE0FFF1F91
:1057C000ED56FF4F259134913093570520935605A0
:1057D000FC01ED5BFE4FE491E093550556CE8FEF53
:1057E0008093F90552CE89E5A4CE0E94130E8CEC6D
:1057F00090E00E941B0E80910C0190910D019093FE
:105800006B0580936A050E94B90C6FEF70E089E028
:105810000E94400568EE73E080E090E00E94C205BF
:1058200070E060E089E00E9440056FEF70E086E084
:105830000E94400568EE73E080E090E00E94C2059F
:1058400070E060E086E00E9440056FEF70E083E06A
:105850000E94400568EE73E080E090E00E94C2057F
:1058600070E060E083E00E94400567E373E0C701F9
:105870000E942D1261E473E0CE0107960E942D1262
:105880006BE473E0CE010D960E942D1265E573E086
:10589000CE0143960E942D126FE573E0CE0149962A
:1058A0000E942D1269E673E0CE014F960E942D12E0
:1058B00063E773E0CE0185960E942D126DE773E0D9
:1058C000CE018B960E942D1267E873E0CE01C1963F
:1058D0000E942D1261E973E0CE01C7960E942D123D
:1058E00061E173E0CE01CD960E942D1262E077E077
:1058F000CE018D5B9F4F0E9424126EE373E0CE01B8
:105900008D5B9F4F0E948D11BC01CE01CD960E94F0
:105910000D12CE018D5B9F4F0E9413110E94F40562
:105920002B013C01F8EE4F0EF3E05F1E611C711C71
:10593000912C1FEF94EFC92EDD24D39426E0822E04
:105940003BE3A32E3FE1B32E8FE00E94E702892BB9
:1059500011F49924939480E10E94E702892B09F4C1
:10596000912C0E94F405641975098609970996011E
:105970000D2C000C440B550B01E026173707480788
:105980005907C0F40E94F4052B013C01911001C09D
:105990001F5F1A3009F4DDC008F0E0C001E0B70174
:1059A000189D600D711D11248EEE96E00E940D125F
:1059B0000E94320EC5010197F1F70111C5CFC090C9
:1059C0000107C11004C00E945A018111CAC010927F
:1059D000FF06109201071092000784EB90E00E94EE
:1059E0001B0E8AEA90E00E941B0E8E010D5B1F4F7A
:1059F00006501109C8010E941311E016F106C1F703
:105A000081E08093C80588E68093EA051092C90575
:105A10001092EB0561E187E996E00E94540B0E9429
:105A2000470962E088E60E942E0A10926D05809375
:105A30006C0587E996E00E940D0B182F8BE191E031
:105A40000E948302C12E012E000CDD08EE08FF0823
:105A50004AE0C701B601F7FE0DC06DE28AEF95E09E
:105A60000E94360266277727CB016C197D098E09C3
:105A70009F094AE00E94C50D0E94130E15501D3368
:105A8000B8F08CE091E00E941B0E05E010E048EEBB
:105A900053E060E070E088EE93E00E947A0360EDEE
:105AA00077E080E090E00E94C2050150110979F78B
:105AB00080917B0581110E94B3180E94420D0091D4
:105AC000790510917A050E94F4056B017C0181E053
:105AD0008093780511278091790590917A050817B0
