:100000000C9427020C9458020C9458020C94580239
:100010000C9458020C9458020C9458020C945802F8
:100020000C9458020C9458020C9458020C945802E8
:100030000C9458020C94582E0C9458020C945802AC
:100040000C9458020C94AB2E0C9458020C94580249
:100050000C9458020C940A2F0C9458020C948E2C79
:100060000C9458020C94622D0C94382D0C94580268
:100070000C9458020C9458020C9458020C94580298
:100080000C9458020C9458020C9458020C94580288
:100090000C94022D0C94D82C0C9458020C94692FBB
:1000A0000C9458020C9458020C9458020C94580268
:1000B0000C9458020C9458020C9458020C94982DED
:1000C0000C9458020C9458020C9458020C94580248
:1000D0000C9458020C9458020C9458020C94580238
:1000E0000C9458020C9452030C945C030C94120769
:1000F0000C94740D0C94340F0C9488240C941007F9
:100100000C9480240C94730D0C9466060C94A70632
:100110000C948E240C94960D0C9486240C946724D5
:100120000C9462070C942C2C0C940F070C948A24CA
:100130000C94B2070C9474030C94222A0C94912B07
:100140000C949D0D0C944E030C944E070C94460F8A
:100150000C945C060C9478030C94280F0C941A08E9
:100160000C9440060C9462370C946F0E0C941A0693
:100170000C94662B0C9424060C947E0F0C9458035C
:100180000C946A030C9473030C946E030C943F0755
:100190000C9415060C949D060C940D060C941A2BC9
:1001A0000C9439030C9475060C943D290C94660349
:1001B0000C947F060C9484240C9445030C94CA0D73
:1001C0000C9448060C94D52B0C9438060C946003C0
:1001D0000C948C240C94C6300C943D030C9448036E
:1001E0000C94830D0C94380F0C9452060C948906D1
:1001F0000C946B0F0C94042C0C942E060C94930608
:100200000C9441030C9470070C9433030C946D0F01
:100210005570646174696E672074696D652E2E2E49
:1002200000496E636F727265637420536F6E67204E
:10023000466F726D61742100416C6C20617474654D
:100240006D707473207765726520756E7375636366
:1002500065737366756C2E00417474656D707420DF
:10026000746F2073796E63207769746820475053E8
:100270002E0044617465206F722054696D65206E94
:100280006F7420696E2072616E6765000201005311
:10029000746F7020546573740054656D702E2073F4
:1002A000656E736F72206E6F7420666F756E642E4C
:1002B00000475053204E4F54206465746563746545
:1002C000642100475053206465746563746564005D
:1002D00053746172742054657374004E4353333108
:1002E000342D384320485720322E78204856353157
:1002F0003232206F722048563532323200466972EF
:100300006D776172652076657273696F6E3A200051
:100310004661756C74792044533332333121004483
:1003200053333233315F543D000000210024002755
:10033000002A002D003000330001010000040107F5
:10034000010A0100002200250028002B002E0031A8
:1003500000340002010000050108010B0100000A41
:100360000B02090C0D0E0807030401000000000039
:10037000000000000000000000000000000000007D
:10038000000000000000000000121110000000003A
:10039000000000000000000000000000000000005D
:1003A000000000000020002300260029002C002F60
:1003B00000320000010000030106010901050505E6
:1003C00005070508080808020202020A0A080804CC
:1003D00004040401010101010101010303030303FA
:1003E000030303040707070C0C0C0C0C0C0C0C0289
:1003F00002020206060606060606060B0B0B0B0B90
:100400000B0B0B0102102020080810204010204088
:1004100080020102010804020101020408102040C8
:1004200080804020100804020180040201804020E6
:10043000100804020108040201010204081020400F
:1004400080010204081020408000C6306237112469
:100450001FBECFEFD1E2DEBFCDBF00E00CBF2AE070
:10046000A4E2B5E001C01D92A634B207E1F715E0A1
:10047000A0E0B2E0E6E3F9E700E00BBF02C00790BE
:100480000D92A432B107D9F712E0C6E2D2E000E043
:1004900006C021970109802FFE010E94483AC5320B
:1004A000D10780E00807A9F70E94B5310C94893C78
:1004B0000C9400008CBD9DBD08958091FB09E091D6
:1004C000FC09F091FD09F8949181982B9183228188
:1004D000382F309523232283A7E0B0E01197F1F75E
:1004E000918193239183A3E2B0E01197F1F790817A
:1004F0007894EFECF0E03197F1F7982381E009F47C
:1005000080E008959091FB09E091FC09F091FD09CC
:10051000292F209580FF14C0F89482818223828342
:100520008181892B8183A3E2B0E01197F1F7828169
:10053000982B9283789487ED90E00197F1F70895D6
:10054000F8948281822382838181892B8183AFEF1A
:10055000B0E01197F1F78281982B928378948FE025
:1005600090E0EBCF0F931F93CF93DF93082FC8E05A
:10057000D0E011E081E0902F912309F480E00E9407
:100580008202110F2197B1F7F894E091FC09F091E4
:10059000FD0991818091FB09809598239183E091D9
:1005A000FC09F091FD099281892382837894DF917F
:1005B000CF911F910F9108958091FB09E091FC0963
:1005C000F091FD09F8949181282F20959223918331
:1005D00078943DE743E050E0315029F1DA0111977A
:1005E000F1F790819823C1F3F8949281922392833A
:1005F0009181982B91837894ABE7B7E01197F1F74D
:10060000F894918192239183A3E1B1E01197F1F7DE
:100610009081982381E009F080E07894E3E6F6E0A9
:100620003197F1F7089580E008958150823108F004
:100630005AC0E82FF0E08827EF5DFC4F8F4F0C94F5
:10064000483A41034503330339033D037303480329
:100650004E03520358035C03600366036A0373038B
:100660006E0374037803809180008F7780938000FD
:100670000895809180008F7DF9CF80918000877FE1
:10068000F5CF84B58F7784BD089584B58F7DFBCF7A
:100690008091B0008F778093B00008958091B00072
:1006A0008F7DF9CF809190008F778093900008958F
:1006B000809190008F7DF9CF80919000877FF5CF5A
:1006C0008091A0008F778093A00008958091A00072
:1006D0008F7DF9CF8091A000877FF5CF8091200199
:1006E0008F77809320010895809120018F7DF9CF2D
:1006F00080912001877FF5CFCF93DF93282F30E0C3
:10070000F901E35AFC4F8491F901ED5FFB4FD4915D
:10071000F901E354FC4FC491CC23A1F081110E9454
:100720001503EC2FF0E0EE0FFF1FED55FC4FA591E8
:10073000B491EC91ED2381E090E009F480E0DF9149
:10074000CF91089580E090E0FACF1F93CF93DF938D
:10075000282F30E0F901E35AFC4F8491F901ED5F55
:10076000FB4FD491F901E354FC4FC491CC23A9F081
:10077000162F81110E941503EC2FF0E0EE0FFF1FE2
:10078000ED5BFC4FA591B4918FB7F894EC911111EA
:1007900008C0D095DE23DC938FBFDF91CF911F91EE
:1007A0000895DE2BF8CFCF93DF9390E0FC01ED5F4F
:1007B000FB4F249183549C4FFC0184918823C9F002
:1007C00090E0880F991FFC01E75DFC4FA591B49163
:1007D000FC01ED5BFC4FC591D49161110DC09FB739
:1007E000F8948C91209582238C93888128232883E8
:1007F0009FBFDF91CF910895623051F49FB7F89475
:100800003C91822F809583238C93E8812E2BEFCF10
:100810008FB7F894EC912E2B2C938FBFEACF4F9289
:100820005F926F927F928F929F92AF92BF92CF9280
:10083000DF92EF92FF920F931F93CF93DF9300D03D
:100840001F921F92CDB7DEB72091910727FD2CC1D3
:1008500049835A836B837C838C0161E0809190078C
:100860000E94D303809191078D834801B12CA12C64
:100870008D7F09F031C160E072E18AE790E0A50167
:1008800098010E94293A29013A017A01690191E00F
:10089000C91AD108E108F108AFEFCA16D104E10482
:1008A000F10409F00CF4C7C060E472E48FE090E05A
:1008B000A50198010E94293A69017A01B1E0CB1A99
:1008C000D108E108F1088D81823009F06AC082E028
:1008D0009FEFC916D104E104F10409F00CF45EC1E4
:1008E00060E970ED83E090E0A50198010E94293A4B
:1008F00069017A01A1E0CA1AD108E108F10883E090
:10090000BFEFCB16D104E104F10409F00CF446C1A9
:1009100068E478EE81E090E0A50198010E94293A10
:1009200069017A0181E0C81AD108E108F10884E080
:100930009FEFC916D104E104F10409F00CF42EC1B3
:1009400064E274EF80E090E0A50194010E94293AEE
:1009500069017A01B1E0CB1AD108E108F10885E01C
:100960009FEFC916D104E104F10409F008F416C19F
:1009700062E17AE780E090E0A50194010E94293AC3
:1009800069017A01B1E0CB1AD108E108F1088FEFD3
:10099000C816D104E104F10411F008F0F0C086E0BB
:1009A000FDC08FEFC816D104E104F10409F00CF486
:1009B00091C068E478EE81E090E0A50198010E9482
:1009C000293A69017A0191E0C91AD108E108F108D0
:1009D000AD8184E0A111C4CF83E0AFEFCA16D1048A
:1009E000E104F10461F15CF162E17AE780E090E01A
:1009F000A50194010E94293A69017A0181E0C81A8F
:100A0000D108E108F10884E09FEFC916D104E104A0
:100A1000F104A9F0A0F0730162019AE0F594E79463
:100A2000D794C7949A95D1F7A1E0CA1AD108E108E2
:100A3000F10885E004C081E0AD81A111AFC095B59A
:100A4000987F892B85BD89819A81AB81BC812FEFED
:100A50003FEFA901892B8A2B8B2B79F0D801AA0FA4
:100A6000BB1F29813A814B815C810E94153928EE98
:100A700033E040E050E00E94073A9D81913009F454
:100A80005CC0923009F46BC091110EC0C7BC2093BA
:100A90008C0730938D0740938E0750938F0780917A
:100AA0006E00826080936E000F900F900F900F90F9
:100AB0000F90DF91CF911F910F91FF90EF90DF90FA
:100AC000CF90BF90AF909F908F907F906F905F90EE
:100AD0004F90089582E0B0CF60E072E18AE790E045
:100AE000A50198010E94293A69017A01B1E0CB1A67
:100AF000D108E108F10891E0C114D10481E0E806D1
:100B0000F10484F068E478EE81E090E0A5019801BA
:100B10000E94293A69017A0191E0C91AD108E108D5
:100B2000F10893E0AD81A13009F08DCF8091810073
:100B3000887F892B8093810086CFD0928900C092D4
:100B40008800209388073093890740938A07509341
:100B50008B0780916F00826080936F00A5CFC09259
:100B6000B300209384073093850740938607509302
:100B700087078091700082608093700095CF730129
:100B800062018AE0F594E794D794C7948A95D1F7E7
:100B9000B1E0CB1AD108E108F10887E09091B100EB
:100BA000987F892B8093B1004ECF1F93CF93DF9313
:100BB000182FEB0161E00E94D303209739F460E025
:100BC000812FDF91CF911F910C94A503CF3FD105C9
:100BD00011F461E0F5CFE12FF0E0E35AFC4FE4912E
:100BE000E150E23108F0B3C0F0E08827E550FA4F59
:100BF0008F4F0C94483A0D0615061A0624062E0649
:100C0000A70638064006480652065C0666067506C4
:100C10007F06A706890693069D0684B5806884BD75
:100C2000C7BDDF91CF911F91089584B5806284BDC7
:100C3000C8BDF7CF80918000806880938000D093FA
:100C40008900C0938800EDCF8091800080628093FE
:100C50008000D0938B00C0938A00E3CF8091800006
:100C6000886080938000D0938D00C0938C00D9CF92
:100C70008091B00080688093B000C093B300D1CF62
:100C80008091B00080628093B000C093B400C9CF5F
:100C900080919000806880939000D0939900C093D9
:100CA0009800BFCF80919000806280939000D09395
:100CB0009B00C0939A00B5CF80919000886080938C
:100CC0009000D0939D00C0939C00ABCF8091A0007A
:100CD00080688093A0008091A0008F7B8093A0000B
:100CE000D093A900C093A8009CCF8091A0008062FF
:100CF0008093A000D093AB00C093AA0092CF8091C4
:100D0000A00088608093A000D093AD00C093AC0099
:100D100088CF80912001806880932001D0932901A1
:100D2000C09328017ECF80912001806280932001B2
:100D3000D0932B01C0932A0174CF80912001886049
:100D400080932001D0932D01C0932C016ACFC0382D
:100D5000D1050CF03ECF33CF3FB7F8948091100708
:100D600090911107A0911207B091130726B5A89B87
:100D700005C02F3F19F00196A11DB11D3FBFBA2F2D
:100D8000A92F982F8827BC01CD01620F711D811DED
:100D9000911D42E0660F771F881F991F4A95D1F772
:100DA00008958F929F92AF92BF92CF92DF92EF926F
:100DB000FF924B015C010E94AC066B017C010E941A
:100DC000AC066C197D098E099F09683E7340810548
:100DD0009105A8F321E0821A9108A108B10888EED4
:100DE000C80E83E0D81EE11CF11C81149104A104FB
:100DF000B10429F7FF90EF90DF90CF90BF90AF90B4
:100E00009F908F9008952FB7F89460910C07709180
:100E10000D0780910E0790910F072FBF0895089539
:100E200008950895AF92BF92CF92DF92EF92FF9212
:100E30000F931F93CF93DF936C017B018B01040F02
:100E4000151FEB015E01AE18BF08C017D10759F09E
:100E50006991D601ED91FC910190F081E02DC601E0
:100E60001995892B79F7C501DF91CF911F910F91CA
:100E7000FF90EF90DF90CF90BF90AF900895FC016E
:100E8000538D448D252F30E0842F90E0821B930BEF
:100E9000541710F0CF96089501970895FC01918D95
:100EA000828D981761F0A28DAE0FBF2FB11D5D9698
:100EB0008C91928D9F5F9F73928F90E008958FEF3A
:100EC0009FEF0895FC01918D828D981731F0828DEE
:100ED000E80FF11D858D90E008958FEF9FEF089545
:100EE000FC01918D228D892F90E0805C9F4F821BA9
:100EF00091098F739927089582E997E00E947007FE
:100F000021E0892B09F420E0822F08958FE298E0F8
:100F10000E94700721E0892B09F420E0822F0895B8
:100F2000FC01A48DA80FB92FB11DA35ABF4F2C915E
:100F3000848D90E001968F739927848FA689B78955
:100F40002C93A089B1898C91837080648C93938D4C
:100F5000848D981306C00288F389E02D80818F7DEF
:100F600080830895EF92FF920F931F93CF93DF93A7
:100F7000EC0181E0888F9B8D8C8D98131AC0E889D5
:100F8000F989808185FF15C09FB7F894EE89FF89A4
:100F90006083E889F98980818370806480839FBF42
:100FA00081E090E0DF91CF911F910F91FF90EF9042
:100FB0000895F62E0B8D10E00F5F1F4F0F73112752
:100FC000E02E8C8D8E110CC00FB607FCFACFE8898D
:100FD000F989808185FFF5CFCE010E949007F1CF7E
:100FE000EB8DEC0FFD2FF11DE35AFF4FF0829FB701
:100FF000F8940B8FEA89FB8980818062CFCF0F93B1
:101000001F93CF93DF938C01D0E0C0E0F801EC0F89
:10101000FD1F6491662341F08FE298E00E94B207C1
:10102000892B11F02196F2CFCE01DF91CF911F9144
:101030000F910895CF93DF93EC01888D8823B9F049
:10104000AA89BB89E889F9898C9185FD03C08081D3
:1010500086FD0DC00FB607FCF7CF8C9185FFF2CF50
:10106000808185FFEDCFCE010E949007E9CFDF910F
:10107000CF91089580E090E0892B29F00E948607A7
:1010800081110E94000080E090E0892B29F00E94ED
:101090007C0781110E94000080E090E0892B49F0DC
:1010A00080E090E0892B29F00E94000081110E94CD
:1010B000000080E090E0892B49F080E090E0892BEF
:1010C00029F00E94000081110C94000008956093A3
:1010D000D5067093D6068093D7069093D806645DA4
:1010E0007E4F8F4F9F4F6093D1067093D2068093AF
:1010F000D3069093D40682E090E09093D00680933C
:10110000CF060E9403076093CB067093CC068093B2
:10111000CD069093CE060895CF92DF92EF92FF9284
:101120000F931F930E9403078B019C01C090CB0675
:10113000D090CC06E090CD06F090CE066091D5061A
:101140007091D6068091D7069091D8060C191D098A
:101150002E093F09083E134021053105E0F0DC016E
:10116000CB010196A11DB11D8093D5069093D606A3
:10117000A093D706B093D806B701A60148515C4F9B
:101180006F4F7F4F4093CB065093CC066093CD06B4
:101190007093CE06C7CF1F910F91FF90EF90DF9015
:1011A000CF9008954F925F926F927F928F929F920D
:1011B000AF92BF92CF92DF92EF92FF920F931F9365
:1011C000CF93DF93FC011681A12FB0E020E833E339
:1011D00041EE51E00E9415394B015C01C2EBD7E0B2
:1011E0009D0104E610E080E9E82EFF24F394CE018F
:1011F000825B9740821793079CF14580512C2E54B7
:10120000384FC90164E670E00E94F3397C01C901DE
:1012100060E971E00E94F3396C010FED13E0C1E069
:10122000D0E0390183E068227724C415D5050CF09D
:1012300040C0C230D10571F56114710459F5E11453
:10124000F10419F4C114D10429F5B0E88B0EBBE305
:101250009B1EB6E2AB1EB11C21960F5F1F4FE5CF60
:10126000CE0183709927892B99F4CE01B8010E9491
:10127000F339892B31F4CE01B7010E94F339892B60
:1012800039F4A0E88A0EA1E59A1EA1E0AA1EB11CBD
:101290002196ADCFD8018C91A82FB0E020E831E5A0
:1012A00041E050E00E941539860E971EA81EB91E17
:1012B000D3CF228130E0A0E1BEE00E9420396B0153
:1012C0007C01218130E0ACE3B0E00E942039C60E01
:1012D000D71EE81EF91E8081C80ED11CE11CF11C2E
:1012E000A481A150BB0B20E831E541E050E00E9411
:1012F000573A6C0D7D1D8E1D9F1D680D791D8A1D31
:101300009B1DDF91CF911F910F91FF90EF90DF9088
:10131000CF90BF90AF909F908F907F906F905F9095
:101320004F900895EF92FF920F9394E6E916F1041F
:10133000CCF092EBE91A97E0F90AE092DF0600930D
:10134000DE062093DD068093DB066093DA06409389
:10135000D90689ED96E00E94D2080F91FF90EF9098
:101360000C9467089EE1E90EF11CE7CF6F927F9223
:101370008F929F92AF92BF92CF92DF92EF92FF92A5
:101380000F931F93CF93DF936B017C01EA018CE3F2
:10139000882E912CA12CB12CC701A50194010E948B
:1013A000073A6883CA01B901A50194010E94073A6E
:1013B0006983C701B60120E13EE040E050E00E94B1
:1013C000073ACA01B90128E130E040E050E00E944C
:1013D000073A6A83C701B60120E831E541E050E0F1
:1013E0000E94073A69017A01CA01B9016C5F7F4F17
:1013F0008F4F9F4F27E030E040E050E00E94073AD7
:101400006F5F6B83812C912C540140E094E6692E30
:10141000712C00E911E0242F30E02E54384FF901EF
:10142000E370FF273097F9F4C901B3010E94F33943
:10143000892B31F4C901B8010E94F339892B99F441
:101440008EE691E0A0E0B0E0880E991EAA1EBB1EB9
:10145000D501C401AA27BB27C816D906EA06FB0690
:1014600038F04F5FD8CF8DE691E0A0E0B0E0ECCF50
:101470004E83C90164E670E00E94F3398C01C90112
:1014800060E971E00E94F339309729F401151105E4
:10149000E1F40097D1F04DE651E060E070E0841A8D
:1014A000950AA60AB70AC818D908EA08FB08AFEDDA
:1014B000B3E020E0213071F4309791F5011511056A
:1014C00011F4009769F54DE106C04EE651E060E089
:1014D00070E0E5CF4C9150E070E060E031E0320F19
:1014E000C416D506E606F70640F0C41AD50AE60A81
:1014F000F70A1196232F3C30E9F62F5F2D83C39412
:10150000CC82DF91CF911F910F91FF90EF90DF90F0
:10151000CF90BF90AF909F908F907F906F900895E5
:101520004CE1D9CFCF92DF92EF92FF92C090C706E5
:10153000D090C806E090C906F090CA06C616D70635
:10154000E806F90671F06B017C0149ED56E00E9456
:10155000B609C092C706D092C806E092C906F092BA
:10156000CA06FF90EF90DF90CF9008950E948C08FC
:101570000E94920A8091DF0690E08E54984F089561
:101580000E948C080E94920A8091DE0690E00895E5
:101590000E948C080E94920A8091DD0690E00895D6
:1015A0000E948C080E94920A8091D90690E00895CA
:1015B0000E948C080E94920A8091DA0690E00895B9
:1015C0000E948C080E94920A8091DB0690E00895A8
:1015D000CF92DF92EF92FF92CF93DF93EC010E94C4
:1015E00003076B017C018F850E947C039C0181E0D5
:1015F0002115310509F480E0898B8889811105C0A6
:1016000091E0232B09F090E0998B29898A8928178A
:1016100021F0CD8ADE8AEF8AF88E8D899E89AF8986
:10162000B88DB701A601481B590B6A0B7B0BDB0178
:10163000CA01CB80DC80ED80FE80C816D906EA06A0
:10164000FB0664F43A81231749F02A83222349F0E8
:101650004B895C894F5F5F4F5C8B4B8B3A813111BB
:1016600017C0CF80D884E984FA84C816D906EA0660
:10167000FB0634F48B899C89998388831C8A1B8A96
:101680002A8BDF91CF91FF90EF90DF90CF9008955C
:10169000CB84DC84ED84FE84C816D906EA06FB06FA
:1016A0007CF78B899C89919581959109E5CF209153
:1016B000A406260F3327331F21323105ECF4209185
:1016C0005A07FC0190E080E0243069F082E0089540
:1016D000A091A4062191AC014C57594FA40FB52FEE
:1016E000B11D2C930196861798F38091A406680F7C
:1016F0006093A40680E0089581E0089510925A074F
:1017000081E0809359071092340761E084E10E94E0
:10171000A50361E085E10E94A503E9EBF0E080818B
:101720008E7F808380818D7F808388E48093B80062
:1017300085E48093BC000895CF93DF9391E090936C
:1017400083068823B9F0C091B800D091BA00809187
:10175000BC008A7B8093BC0060E084E10E94A5030A
:1017600060E085E10E94A5030E947E0BD093BA0041
:10177000C093B800DF91CF910895CF92DF92EF929E
:10178000FF920F931F93CF93DF93D091830781E054
:10179000D13208F09CC0C09182070E94AC066B0158
:1017A0007C0180915A0781116CC082E080935A07B6
:1017B00081E0809359078FEF809358071092570765
:1017C000D0935607A2E6B7E0E6E3F7E080E0D8134F
:1017D0008DC01092350780913507CC0FC82BC09370
:1017E000350780913407813009F084C010923407A6
:1017F0000E94AC066B017C01809135078093BB0091
:1018000080915C0790915D07A0915E07B0915F07A2
:10181000892B8A2B8B2BA1F00E94AC0600915C07D0
:1018200010915D0720915E0730915F076C197D096B
:101830008E099F09061717072807390708F442C0C1
:101840008091BC0083FDD8CF85EC8093BC000E94C2
:10185000AC066B017C0180915A07823009F44CC0C0
:10186000809158078F3F09F469C0809158078032F2
:1018700009F466C080915807803309F463C084E09E
:1018800026C080915C0790915D07A0915E07B091A2
:101890005F07892B8A2B8B2B09F483CF0E94AC0620
:1018A00000915C0710915D0720915E0730915F0702
:1018B0006C197D098E099F09061717072807390734
:1018C00008F06FCF80915B070E949C0B85E010921F
:1018D00061071092830710926007DF91CF911F91EB
:1018E0000F91FF90EF90DF90CF9008959D9191938D
:1018F0008F5F6DCF85EEA9CF80915C0790915D07DA
:10190000A0915E07B0915F07892B8A2B8B2B09F47E
:10191000A2CF0E94AC0600915C0710915D07209158
:101920005E0730915F076C197D098E099F090617C4
:1019300017072807390708F08ECFC4CF80E0C7CF3C
:1019400082E0C5CF83E0C3CFCF92DF92EF92FF92C8
:101950000F931F93CF93DF93D82FC62F613208F0D8
:1019600098C00E94AC066B017C0180915A078111DE
:101970006BC081E080935A07809359079FEF909343
:101980005807109257079C0F90935607809335077E
:1019900080913507DD0FD82BD09335078091340720
:1019A000813009F078C0109234070E94AC066B01B8
:1019B0007C01809135078093BB0080915C079091FA
:1019C0005D07A0915E07B0915F07892B8A2B8B2B57
:1019D000A1F00E94AC0600915C0710915D07209178
:1019E0005E0730915F076C197D098E099F09061704
:1019F00017072807390708F448C08091BC0083FD09
:101A0000D8CF85EC8093BC000E94AC066B017C01B2
:101A100080915A07813009F440C0809157078C1794
:101A200010F4C0915707E6E3F7E0A4E1B7E080E0E7
:101A30008C1355C08C2FDF91CF911F910F91FF9088
:101A4000EF90DF90CF90089580915C0790915D07B3
:101A5000A0915E07B0915F07892B8A2B8B2B09F42D
:101A600084CF0E94AC0600915C0710915D07209125
:101A70005E0730915F076C197D098E099F09061773
:101A800017072807390708F070CF80915B070E947D
:101A90009C0BC0E0CFCF85EEB5CF80915C079091D5
:101AA0005D07A0915E07B0915F07892B8A2B8B2B76
:101AB00009F4AECF0E94AC0600915C0710915D075F
:101AC00020915E0730915F076C197D098E099F098F
:101AD000061717072807390708F09ACFD6CF919134
:101AE0009D938F5FA5CF0895E091FC068091FB0642
:101AF000E81730F4F0E0EC5EF84F808190E0089554
:101B00008FEF9FEF08959091FC068091FB062FEFD9
:101B10003FEF981748F4E92FF0E0EC5EF84F208192
:101B200030E09F5F9093FC06C90108958091FB0609
:101B30009091FC06891B990B0895CF92DF92EF924A
:101B4000FF920F931F93CF93DF937C01CB018A0108
:101B500020916007222389F0EB016B01C40ED51E92
:101B6000CC15DD0569F06991D701ED91FC910190EB
:101B7000F081E02DC7011995F3CF642F0E94570B18
:101B8000C801DF91CF911F910F91FF90EF90DF90EF
:101B9000CF900895CF93DF931F92CDB7DEB76983BF
:101BA000209160072223F9F020918307203258F01A
:101BB00021E030E0FC013383228390E080E00F904D
:101BC000DF91CF91089580916107E82FF0E0EE5901
:101BD000F84F998190838F5F80936107809383078B
:101BE00081E090E0ECCF61E0CE0101960E94570BBE
:101BF000F7CFDF92EF92FF920F931F93CF93DF9374
:101C0000182FF62ED42ED22F81E08093600788E61D
:101C100080938207109261071092830760E08CEC3A
:101C200098E00E94CA0DCAE08D2D6C2F0E94E73902
:101C30008295807F682F690F8CEC98E00E94CA0D16
:101C40008F2D6C2F0E94E7398295807F682F690F56
:101C50008CEC98E00E94CA0D812F6C2F0E94E7390E
:101C60008295807F682F690F8CEC98E00E94CA0DE6
:101C700061E08CEC98E00E94CA0D8D2F6C2F0E94C1
:101C8000E7398295807F682F690F8CEC98E00E947D
:101C9000CA0D802F6C2F0E94E7398295807F682FB4
:101CA000690F8CEC98E00E94CA0D8E2D6C2F0E945B
:101CB000E7398295807F682F690F8CEC98E00E944D
:101CC000CA0D60E08CEC98E00E94CA0DDF91CF91C4
:101CD0001F910F91FF90EF90DF900C94BD0B90E05F
:101CE00080E00895CF92DF92EF92FF920F931F93BF
:101CF000CF93DF939091820691110BC08FEF9FEFEE
:101D0000DF91CF911F910F91FF90EF90DF90CF90D7
:101D1000089590918106992389F3082FC091800638
:101D2000D0E08091780681110DC00E940307609376
:101D3000740670937506809376069093770681E01B
:101D4000809378060E940307C0907406D0907506B1
:101D5000E0907606F09077066C197D098E099F0950
:101D60006D32714081059105B0F0109173060E94AB
:101D700003076093740670937506809376069093BC
:101D8000770691E0912790937306992331F1109291
:101D9000720610927106209171063091720620959C
:101DA000309580917006282326FF1CC081E0809327
:101DB0006F0627FF1AC081E080936E06809173063C
:101DC000882309F49BCF02C0D595C7950A95E2F701
:101DD000C0FF94CF80E09CE393CFD0937206C09372
:101DE0007106D9CF10926F06E4CF10926E06E6CF3F
:101DF000EF92FF920F931F93CF93DF93182F809151
:101E0000480681110DC00E94030760934406709339
:101E10004506809346069093470681E080934806E6
:101E2000C0914206D0914306C930D10508F077C071
:101E3000FE018827E15EF04F8F4F0C94483A280F3F
:101E4000340F380F460F280F340F6B0F6D0F7E0FB6
:101E50000E94DC022196CA30D10509F091C010928F
:101E600043061092420628C08CEC0E94B202F2CFC8
:101E700084E40E94B2020E940307609344067093B8
:101E800045068093460690934706E4CF0E940307D9
:101E90000091440610914506209146063091470670
:101EA000601B710B820B930BC4E0D0E06E3E72405E
:101EB0008105910508F064C060913E0670913F066F
:101EC0008091400690914106DF91CF911F910F9133
:101ED000FF90EF9008958EEBC8CF98E0E92EF12C9B
:101EE00010E001E00E945D028111102B000F81E0E3
:101EF000E81AF108B9F710933C06ACCF88E0E82E59
:101F0000F12C10E001E00E945D028111102B000F06
:101F100021E0E21AF108B9F710933D069BCFC930D2
:101F2000D10509F097CF60913C0670913D066F3F57
:101F3000760711F470E060E0072E000C880B990B17
:101F40000E94E23720E030E040E85DE30E94413843
:101F5000111109C060933E0670933F0680934006BE
:101F60009093410677CF26E636E646EE5FE30E9481
:101F7000413820E030E040E052E40E943039EACFBE
:101F8000D0934306C093420697CF0F931F9380913F
:101F9000570290915802892B09F449C08091270675
:101FA0008823A9F00E9403070091230610912406BC
:101FB0002091250630912606601B710B820B930B36
:101FC000693E73408105910590F1109227060E94A9
:101FD000E00A20915102309152028217930739F59D
:101FE0000E94D80A2091530230915402821793071D
:101FF000F1F40E94D00A20915502309156028217C6
:102000009307A9F40E9403076093230670932406A4
:10201000809325069093260681E080932706809181
:102020000C0290910D029093FA068093F9061F918D
:102030000F910895CF93DF93EC012196FC0120814D
:102040002A33C9F42181243609F5229630E020E0B4
:102050006AE0899190ED980F9A3078F4629FA00120
:10206000639F500D1124082E000C990BC0979A0104
:10207000280F391FEECFCE01DFCF30931B06209300
:102080001A062115310511F020930B0288818F3635
:1020900089F48A81082E000C990B9C012053310988
:1020A00030931B0620931A06C397059710F42093CC
:1020B0000A02249688818236F1F4229630E020E0EC
:1020C0006AE0899190ED980F9A3068F4629FA001C0
:1020D000639F500D1124082E000C990BC0979A0194
:1020E000280F391FEECF30931B0620931A0630932A
:1020F0000902209308022091080230910902032E60
:10210000000C440B550B60E67AEE80E090E00E94F4
:10211000293A82E0220F331F441F551F8A95D1F7B9
:10212000209316063093170640931806509319060D
:10213000CE01DF91CF910895CF92DF92EF92FF927F
:102140000F931F93CF93DF93EC018B010E94030742
:10215000CE80DF80E884F984AB01BC014C195D09B5
:102160006E097F0988819981092E000CAA0BBB0B8F
:1021700084179507A607B707A0F48A85882389F0F6
:102180001A868D811C821D82823060F181E090E090
:10219000DF91CF911F910F91FF90EF90DF90CF9043
:1021A00008958B859C8580179107C9F481E08C8305
:1021B0008D818F5F8D830E9403076E837F83888765
:1021C000998781E08A872D818A819B81281719064A
:1021D0004CF01C821D821A868FEF9FEFD9CF8C8125
:1021E000811103C090E080E0D3CF0F3F1F4FD1F7A4
:1021F000DFCF8EBD00000DB407FEFDCF8EB5089574
:10220000CF9381E08093600788E6809382071092E5
:1022100061071092830760E08CEC98E00E94CA0D81
:102220000E94BD0B67E088E60E94A40C1092FC0699
:102230008093FB068CEC98E00E94830D982F92957A
:102240009F70CAE08F709C9F800D112490E0909346
:102250000907809308078CEC98E00E94830D982F63
:1022600092959F708F709C9F800D112490E09093A9
:1022700000078093FF068CEC98E00E94830D982F56
:10228000929593708F709C9F800D112490E0909395
:10229000FE068093FD068CEC98E00E94830D8CEC8A
:1022A00098E00E94830D982F92959F708F709C9F4D
:1022B000800D112490E090930207809301078CEC2D
:1022C00098E00E94830D982F92959F708F709C9F2D
:1022D000800D112490E090930407809303078CEC09
:1022E00098E00E94830D982F92959F708F709C9F0D
:1022F000800D112490E08053984F909306078093AF
:102300000507CF910895FC0101900020E9F731976E
:10231000AF01481B590BBC018FE298E00C941207E7
:102320008FE094E00C948311CF93DF930E94FF071A
:10233000EC010E9490118C0F9D1FDF91CF910895A9
:102340008F929F92AF92BF920F931F93CF93DF9381
:10235000CDB7DEB7A1970FB6F894DEBF0FBECDBFE5
:1023600019A2423008F44AE08E010F5D1F4F842EFF
:10237000912CB12CA12CA50194010E94073AE62FC3
:10238000B901CA01EA30F4F4E05DD801EE938D01A1
:10239000232B242B252B79F790E080E0109719F060
:1023A000CD010E948311A1960FB6F894DEBF0FBE37
:1023B000CDBFDF91CF911F910F91BF90AF909F90B4
:1023C0008F900895E95CE1CFCF93DF93682F70E0A1
:1023D00090E080E04AE00E94A011EC010E94901180
:1023E0008C0F9D1FDF91CF910895FC018081918119
:1023F000009711F00C946A3760E070E0CB0108950B
:102400004F925F926F927F928F929F92AF92BF9204
:10241000CF92DF92EF92FF92CF93DF93CDB7DEB7EB
:102420002D970FB6F894DEBF0FBECDBF0E94AC064D
:10243000C0906A06D0906B06E0906C06F0906D0636
:102440006C197D098E099F096A31714481059105D6
:1024500008F457C20E94AC0660936A0670936B063C
:1024600080936C0690936D0685EF99E00E94F511BC
:1024700069837A838B839C8360E08AE00E94A50352
:10248000FAE0CF2ED12CE12CF12C69817A818B815D
:102490009C81A70196010E94293A49015A01660FC1
:1024A000771F65537C4FDB014D905C9087E090E097
:1024B0000E94720E3C01C501B401A70196010E9461
:1024C000293A660F771F65537C4FFB01808091800E
:1024D00087E090E00E94720E5C0169817A818B81B5
:1024E0009C8124E630E040E050E00E94293ACA0195
:1024F000B901A70196010E94293A660F771F65531B
:102500007C4FDB01ED90FC9086E090E00E94720E23
:1025100046205720712C612C24E1440C551C661C6C
:10252000771C2A95D1F78E219F21B0E0A0E073019E
:102530006201C82AD92AEA2AFB2A8A209B20B12CC8
:10254000A12C3AE0880C991CAA1CBB1C3A95D1F727
:10255000C828D928EA28FB2869817A818B819C8147
:1025600028EE33E040E050E00E94293A29013A0188
:1025700080916F06882309F491C16894F6F88091E0
:102580006E06882309F48DC16894F7F8B091EF06C0
:10259000BD878F2D9927AA27BB278D839E83AF8365
:1025A000B8874701AA24BB24BB27AF2D9E2D8D2DB4
:1025B00089879A87AB87BC879D85992309F474C165
:1025C0008C2D0E94F91089850E94F910882D0E9497
:1025D000F9108D810E94F9108AE0882E912CA12C8F
:1025E000B12CC301B201A50194010E94293A660FE2
:1025F000771F65537C4FDB01CD90DC9085E090E048
:102600000E94720E7C0169817A818B819C8120E11C
:1026100037E240E050E00E94293ACA01B901A50121
:1026200094010E94293A660F771F65537C4FFB0186
:102630006080718084E090E00E94720ECE20DF20E6
:10264000F12CE12C34E1CC0CDD1CEE1CFF1C3A9586
:10265000D1F786219721B0E0A0E04AE0880F991FCA
:10266000AA1FBB1F4A95D1F7C82AD92AEA2AFB2AF2
:1026700069817A818B819C8120EA36E841E050E0D3
:102680000E94293ACA01B901A50194010E94293A80
:10269000660F771F65537C4FDB01AD90BC9083E0E4
:1026A00090E00E94720E8A219B21B0E0A0E0C82A2F
:1026B000D92AEA2AFB2A69817A818B819C8120E4CC
:1026C00032E44FE050E00E94293A29013A0180911A
:1026D0006F06882309F4F3C06894F6F880916E06BB
:1026E000882309F4EFC06894F7F88F2D9927AA275B
:1026F000BB278D839E83AF83B8874701AA24BB2461
:10270000BB27AF2D9E2D8D2D89879A87AB87BC87E0
:102710009D85992309F4D9C08C2D0E94F9108985D3
:102720000E94F910882D0E94F9108D810E94F910E5
:102730003AE0832E912CA12CB12CC301B201A5014A
:1027400094010E94293A660F771F65537C4FDB0185
:10275000CD90DC9082E090E00E94720E7C01698155
:102760007A818B819C8120E836E948E950E00E941B
:10277000293ACA01B901A50194010E94293A660FBC
:10278000771F65537C4FFB016080718081E090E092
:102790000E94720ECE20DF20F12CE12C64E1CC0CE3
:1027A000DD1CEE1CFF1C6A95D1F786219721B0E055
:1027B000A0E07AE0880F991FAA1FBB1F7A95D1F776
:1027C000C82AD92AEA2AFB2A69817A818B819C81CD
:1027D00020E031EE45EF55E00E94293ACA01B901E7
:1027E000A50194010E94293A660F771F65537C4F1B
:1027F000DB01AD90BC9090E080E00E94720E8A21D7
:102800009B21B0E0A0E08C299D29AE29BF29209111
:102810006F066C017D01222309F462C06894F6F80A
:1028200080916E06882309F45EC06894F7F84F2CF7
:102830005524662477244701AA24BB24BB27AF2D47
:102840009E2D8D2D89839A83AB83BC839D8599238F
:1028500009F44CC08C2D0E94F91089810E94F91056
:10286000882D0E94F910842D0E94F91061E08AE001
:102870002D960FB6F894DEBF0FBECDBFDF91CF917E
:10288000FF90EF90DF90CF90BF90AF909F908F9090
:102890007F906F905F904F900C94A503E894F6F8AA
:1028A0006ECEE894F7F872CE8D810E94F910882DD3
:1028B0000E94F91089850E94F9108C2D8BCEE89426
:1028C000F6F80CCFE894F7F810CF8D810E94F9103C
:1028D000882D0E94F91089850E94F9108C2D26CF31
:1028E000E894F6F89DCFE894F7F8A1CF842D0E94E4
:1028F000F910882D0E94F91089810E94F9108C2D01
:10290000B3CF2D960FB6F894DEBF0FBECDBFDF91CB
:10291000CF91FF90EF90DF90CF90BF90AF909F90BE
:102920008F907F906F905F904F9008950F931F93BB
:10293000CF93DF938C01EB01FC01808191810097A3
:10294000E1F06881798161157105A9F042815381B7
:102950002C813D814217530770F00E94823C8C818C
:102960009D81F801958384831D821C82DF91CF9124
:102970001F910F9108950E940F3B88819981F80162
:10298000918380838A819B81938382838C819D81C3
:1029900095838483198218821B821A82E5CFCF9394
:1029A000DF93EC0188819981009711F00E940F3B21
:1029B000198218821D821C821B821A82DF91CF919C
:1029C0000895FC0180819181009711F00C940F3BD8
:1029D00008950F931F93CF93DF93EC018881998122
:1029E000009759F02A813B812617370730F081E0A4
:1029F000DF91CF911F910F9108958B016F5F7F4FF2
:102A00000E94983B009759F0998388831B830A831F
:102A10002C813D81232B59F7FC011082E8CF80E007
:102A2000E7CFEF92FF920F931F93CF93DF93611540
:102A3000710541F480E0DF91CF911F910F91FF90DC
:102A4000EF90089541155105B1F07B01EC010C8127
:102A50001D81040F151FB8010E94E914882351F34A
:102A6000288139818C819D81B701820F931F0E943B
:102A7000823C1D830C8381E0DECF0F931F93CF93A5
:102A8000DF931F921F92CDB7DEB78C0169831A8244
:102A900041E050E0BE016F5F7F4F0E941115811130
:102AA00003C0C8010E94CF14C8010F900F90DF919E
:102AB000CF911F910F910895CF93DF93EC01FB010C
:102AC00001900020E9F73197AF01461B570B0E9498
:102AD0001115811103C0CE010E94CF14CE01DF91E8
:102AE000CF910895CF93DF93EC01FB014481558191
:102AF000608171810E941115811103C0CE010E9475
:102B0000CF14CE01DF91CF910895EF92FF920F93F2
:102B10001F93CF93DF93EC017B018A01BA010E94DE
:102B2000E91481110BC0CE010E94CF14CE01DF91B8
:102B3000CF911F910F91FF90EF9008951D830C830B
:102B4000B701888199810E94823CF0CFFB010190FE
:102B50000020E9F73197AF01461B570B0C94851500
:102B60000F931F93CF93DF93CDB7DEB762970FB666
:102B7000F894DEBF0FBECDBF8C01CB01F8011182EE
:102B8000108213821282158214824AE0BE016F5FA6
:102B90007F4F0E949137BE016F5F7F4FC8010E9437
:102BA000A61562960FB6F894DEBF0FBECDBFDF91BB
:102BB000CF911F910F910895CF93DF93EC01FB010B
:102BC0008617970749F0608171816115710541F0A1
:102BD000448155810E948515CE01DF91CF910895E2
:102BE0000E94CF14F9CFFC0111821082138212824D
:102BF000158214820C94DC15FC0111821082138260
:102C0000128215821482FB0101900020E9F73197AE
:102C1000AF01461B570B0C948515AF92BF92CF9214
:102C2000DF92EF92FF920F931F93CF93DF936C018C
:102C30005B017A0189012417350720F48F2D790172
:102C4000042F182F61E174E0C6010E94FC15D50124
:102C50001496CD91DC91EC16FD06E0F40C171D07DF
:102C600008F4E801D501ED91FC911197EC0FFD1FDF
:102C7000108110826D917C916E0D7F1DC6016115D2
:102C80007105A1F00E94A615F50180819181C80F00
:102C9000D91F1883C601DF91CF911F910F91FF902B
:102CA000EF90DF90CF90BF90AF9008950E94CF1427
:102CB000EBCF4F925F926F927F928F929F92AF92E3
:102CC000BF92CF92DF92EF92FF920F931F93CF9319
:102CD000DF9300D000D0CDB7DEB77C014B015A01A5
:102CE00080913B0681113AC081E080933B0692E3DC
:102CF000692E96E0792E29E2422E26E0522E10E02F
:102D000000E00F5F1F4F680181E0C81AD1089801E9
:102D1000A601B401CE0101960E940D16CE010196C6
:102D20000E94F511D3016D933D01CE0101960E94E1
:102D3000E1149801A601B501CE0101960E940D167D
:102D4000CE0101960E94F511F20161932F01CE018F
:102D500001960E94E1140930110599F69091280618
:102D600082E3C82E86E0D82EE9E2F6E08601A801CB
:102D7000D8018C919A3008F04DC08F5F8C930F5F13
:102D80001F4FDA018C918A3019F4D80111971C92E7
:102D90003196B6E00B331B0751F79F5F943109F46E
:102DA0003FC09093280661E174E0C7010E94FC15C2
:102DB000FE0131965F01D6018D916D014AE0B501AA
:102DC00090E00E949137F50101900020E9F73197DA
:102DD000AF014A195B09B501C7010E9411150C1515
:102DE0001D0549F7C70126960FB6F894DEBF0FBE42
:102DF000CDBFDF91CF911F910F91FF90EF90DF90AA
:102E0000CF90BF90AF909F908F907F906F905F908A
:102E10004F9008952081281709F4B1CF8F5FAECF6E
:102E20001092280610923B06BECFCF92DF92EF920F
:102E3000FF921F93CF93DF93CDB7DEB72C970FB6DA
:102E4000F894DEBF0FBECDBF182F6BE574E0CE0146
:102E500007960E94FC1522E030E050E040E013307D
:102E600081F024E030E042E050E01C3051F026E0F8
:102E700030E0103321F0103FA9F428E030E044E0C6
:102E800050E065EF79E0CE0101960E940D16BE017B
:102E90006F5F7F4FCE0107960E949614CE01019678
:102EA0000E94E114CE0107960E94F5116B01CE013C
:102EB00007960E94E114C6012C960FB6F894DEBF67
:102EC0000FBECDBFDF91CF911F91FF90EF90DF90AC
:102ED000CF900895EF92FF920F931F93CF93DF93BC
:102EE000CDB7DEB762970FB6F894DEBF0FBECDBF89
:102EF0007C018B0177FF03C0119501951109B80181
:102F0000C7010E94B015083E83E018070CF082C08C
:102F1000B801CE010D960E94B01561E574E0CE01B6
:102F200001960E94FC15BE016F5F7F4FCE01079690
:102F30000E94F315BE01635F7F4FCE0107960E948A
:102F40007215BC01C7010E94DC15CE0107960E94D4
:102F5000E114CE0101960E94E114CE010D960E946B
:102F6000E114043611050CF055C0B801CE010D96E0
:102F70000E94B01560E574E0CE0101960E94FC1538
:102F8000BE016F5F7F4FCE0107960E94F315BE0111
:102F9000635F7F4FCE0107960E947215BC01C70187
:102FA0000E94DC15CE0107960E94E114CE01019625
:102FB0000E94E114CE010D960E94E1140A30110521
:102FC0004CF5B801CE010D960E94B0156FE474E087
:102FD000CE0101960E94FC15BE016F5F7F4FCE01AE
:102FE00007960E94F315BE01635F7F4FCE010796DF
:102FF0000E947215BC01C7010E94DC15CE01079624
:103000000E94E114CE0101960E94E114CE010D96BA
:103010000E94E114C70162960FB6F894DEBF0FBE9E
:10302000CDBFDF91CF911F910F91FF90EF90089549
:103030000F931F93CF93DF93CDB7DEB762970FB691
:10304000F894DEBF0FBECDBF8C0177FF03C0719532
:10305000619571096A307105A4F5CE010D960E9443
:10306000B01561E574E0CE0101960E94FC15BE0129
:103070006F5F7F4FCE0107960E94F315BE01635F1D
:103080007F4FCE0107960E947215BC01C8010E94B5
:10309000F315CE0107960E94E114CE0101960E941D
:1030A000E114CE010D960E94E114C80162960FB69C
:1030B000F894DEBF0FBECDBFDF91CF911F910F916E
:1030C0000895C8010E94B015F0CF0F931F93CF93BE
:1030D000DF93CDB7DEB768970FB6F894DEBF0FBEAB
:1030E000CDBF8B018330D9F52091F9093091FA09D0
:1030F00042E050E065EF79E0CE010D960E940D169A
:10310000B801CE0101960E941818BE016F5F7F4F73
:10311000CE0107960E94F315BE01635F7F4FCE017B
:1031200007960E947215BC0185EF99E00E94DC159C
:10313000CE0107960E94E114CE0101960E94E1148F
:10314000CE010D960E94E11468960FB6F894DEBF8A
:103150000FBECDBFDF91CF911F910F9108958C309D
:1031600009F042C02091F9093091FA0944E050E099
:1031700065EF79E0CE0143960E940D16B801CE01AD
:103180000D960E94181822E030E050E040E065EF14
:1031900079E0CE0101960E940D16BE016F5F7F4F50
:1031A000CE0107960E94F315BE01635F7F4FCE01EB
:1031B00007960E947215BE016D5E7F4F0E947215C8
:1031C000BC0185EF99E00E94DC15CE0107960E94B4
:1031D000E114CE0101960E94E114CE010D960E94E9
:1031E000E114CE014396AECF2091F9093091FA094E
:1031F00046E050E0803349F0803F09F0A5CF2091B0
:10320000F9093091FA0948E050E065EF79E0CE0124
:1032100043960E940D16B801CE010D960E94181813
:1032200024E030E0B2CF0E94030760931F06709342
:103230002006809321069093220680911E06882303
:1032400009F44FC020911C0630911D06C901880F5A
:10325000991F21313105A1F1FC01E95CFD4F40814D
:1032600051814150510951834083DC01A95CBD4F1C
:103270006D917C911197FC01E15AFD4F4081518184
:10328000641775073CF4FC01E957FD4F40815181FB
:103290004D935C932031310509F52091570230910F
:1032A000580221303105B9F420E820937006895C7A
:1032B0009D4FFC0160817181809180060C9465189E
:1032C0004091590250915A024C50510950935A0260
:1032D00040935902CACF10927006E9CF29303105C8
:1032E00031F708950E94030760931F06709320062C
:1032F000809321069093220680911E06882309F46C
:1033000044C020911C0630911D06C901880F991FE9
:103310002131310561F1FC01E95CFD4F40815181B2
:103320004F5F5F4F51834083DC01A95CBD4F6D91BE
:103330007C911197FC01E957FD4F4081518146175F
:1033400057073CF4FC01E15AFD4F408151814D93F8
:103350005C9320313105B1F410927006895C9D4F69
:10336000FC0160817181809180060C946518409108
:10337000590250915A02445F5F4F50935A02409352
:103380005902D2CF2930310549F708950F931F9381
:10339000CF93DF93CDB7DEB768970FB6F894DEBF53
:1033A0000FBECDBF8C018091590290915A0248976F
:1033B00009F048C00E94D00ABC01CE0143960E9489
:1033C00018180E94D80ABC01CE010D960E94181848
:1033D0000E94E00ABC01CE0101960E941818BE01AD
:1033E0006F5F7F4FCE0107960E94F315BE01635FAA
:1033F0007F4FCE0107960E947215BE016D5E7F4F12
:103400000E947215BC01C8010E94F315CE010796F7
:103410000E94E114CE0101960E94E114CE010D96A6
:103420000E94E114CE0143960E94E114C8016896FF
:103430000FB6F894DEBF0FBECDBFDF91CF911F91C5
:103440000F9108950E94D00ABC01CE0143960E94BC
:1034500018180E94D80ABC01CE010D960E941818B7
:103460000E948C080E94920A8091DB066CE070E05A
:10347000882309F4B0CF682F70E08D3008F4ABCF0B
:103480006C507109A8CF8F929F92AF92BF92CF924A
:10349000DF92EF92FF920F931F93CF93DF93CDB7FD
:1034A000DEB72C970FB6F894DEBF0FBECDBF8C01F0
:1034B0006A017B0180916206811111C00E9403079D
:1034C000645B7B4F8F4F9F4F60935E0670935F06E8
:1034D000809360069093610681E0809362068091FC
:1034E0005606811109C06CE474E080E596E00E9404
:1034F000FC1581E0809356060E94030780905E06CB
:1035000090905F06A0906006B090610668197909F6
:103510008A099B09693E73408105910508F4FDC045
:103520000E94030760935E0670935F0680936006B7
:103530009093610620E030E040E251E4C701B6011B
:103540000E9441386B017C0120E030E0A9010E941B
:10355000D23920E030E040E05FE387FDF7C0C701EB
:10356000B6010E9430390E949C397B0177FF04C06C
:10357000EE24FF24E61AF70A5B0139E1A31A3CEFB7
:10358000B30A80915B0290915C029B012D593F4FE1
:1035900069012A5531094901B701892B09F0DBC0BE
:1035A000CE0107960E94B01561E574E0CE01019648
:1035B0000E94FC15BE01695F7F4FCE0101960E94FB
:1035C000721561E574E00E945C15BC0180E596E02F
:1035D0000E94DC15CE0101960E94E114CE010796EF
:1035E0000E94E1143FECA31637E0B30618F5B701CB
:1035F000CE0107960E94B01560E574E0CE010196F9
:103600000E94FC15BE01695F7F4FCE0101960E94AA
:10361000721561E574E00E945C15BC0180E596E0DE
:103620000E94DC15CE0101960E94E114CE0107969E
:103630000E94E11487ECC816D10418F5B701CE0139
:1036400007960E94B0156FE474E0CE0101960E94C7
:10365000FC15BE01695F7F4FCE0101960E94721575
:1036600061E574E00E945C15BC0180E596E00E9473
:10367000DC15CE0101960E94E114CE0107960E944E
:10368000E11423E18216910418F5B701CE010796E3
:103690000E94B0156EE474E0CE0101960E94FC1504
:1036A000BE01695F7F4FCE0101960E94721561E5F0
:1036B00074E00E945C15BC0180E596E00E94DC1578
:1036C000CE0101960E94E114CE0107960E94E114FA
:1036D00080915B0290915C02892B09F0D3C097E343
:1036E000F92E61E174E0CE0101960E94FC1560E5BF
:1036F00076E0CE0101960E94721560E574E00E94AA
:103700005C156F2D0E943D15BC0180E596E00E947E
:10371000DC15CE0101960E94E11460E576E0C80157
:103720000E94F315C8012C960FB6F894DEBF0FBEA9
:10373000CDBFDF91CF911F910F91FF90EF90DF9060
:10374000CF90BF90AF909F908F900895C701B60122
:103750000E942F3908CFCE0107960E94B01561E56F
:1037600074E0CE0101960E94FC15BE01695F7F4F97
:10377000CE0101960E94721561E574E00E945C150D
:10378000BC0180E596E00E94DC15CE0101960E9406
:10379000E114CE0107960E94E1143FECA31637E036
:1037A000B30638F5C7016AE070E00E94F339CE0134
:1037B00007960E94B01560E574E0CE0101960E9464
:1037C000FC15BE01695F7F4FCE0101960E94721504
:1037D00060E574E00E945C15BC0180E596E00E9403
:1037E000DC15CE0101960E94E114CE0107960E94DD
:1037F000E11487ECC816D10438F5C7016AE070E01F
:103800000E94F339CE0107960E94B0156FE474E070
:10381000CE0101960E94FC15BE01695F7F4FCE016B
:1038200001960E94721560E574E00E945C15BC016F
:1038300080E596E00E94DC15CE0101960E94E1141D
:10384000CE0107960E94E11423E18216910408F04C
:103850003FCFC7016AE070E00E94F339CE010796BE
:103860000E94B0156EE474E0CE0101960E94FC1532
:10387000BE01695F7F4FCE0101960E94721560E51F
:1038800074E017CF82E3F82E2CCF85ED8093BC0037
:1038900080915C0790915D07A0915E07B0915F07F2
:1038A0000796A11DB11D23E0B695A795979587951D
:1038B0002A95D1F72091BC0024FD03C010925A072D
:1038C000089540915C0750915D0760915E0770918B
:1038D0005F07452B462B472B69F30097A105B105E0
:1038E00041F02AE22A95F1F700C00197A109B10938
:1038F000E1CF80915B070C949C0B0C9407390C94DE
:10390000FF3888E090E00E947F1C682F70E089E01B
:103910000E94D50589E090E00E947F1C682F70E02E
:1039200086E00E94D5058AE090E00E947F1C682F07
:1039300070E083E00C94D5052F923F924F925F92F6
:103940006F927F928F929F92AF92BF92CF92DF92AF
:10395000EF92FF920F931F93CF93DF93CDB7DEB714
:10396000EE970FB6F894DEBF0FBECDBF0E940307DF
:1039700020E137E240E050E00E94073A672B682BD5
:10398000692B01F5809107078823E1F00E9400115F
:10399000E0900507F09006070091030710910407D7
:1039A00020910107309102074091080750910907C3
:1039B0006091FF06709100078091FD069091FE06D0
:1039C0000E9492090E9403076093120670931306E7
:1039D000809314069093150600910E0610910F0621
:1039E0002091100630911106601B710B820B930B16
:1039F00061367A4E81059105E0F180910D068111C5
:103A000007C088E592E00E94941181E080930D0642
:103A100082E997E00E947007892B59F182E997E0CB
:103A20000E944E0790917C05E92FF0E0E75DFA4F88
:103A300080839F5F923509F40AC190937C058A3098
:103A4000C1F4E0917C05F0E0E75DFA4F108210923E
:103A50007C05EAE2F5E021E030E040E05191C90167
:103A600001965A3209F4F6C045279C018335910529
:103A7000A9F78091120690911306A0911406B091B7
:103A8000150640910E0650910F0660911006709138
:103A900011068C019D01041B150B260B370BB90178
:103AA000A801413C544D6140710570F080930E06B1
:103AB00090930F06A0931006B093110688E392E04E
:103AC0000E94941110920D061092010610920206A7
:103AD00010920306109204068FED98E0909308066A
:103AE000809307060091DC0810E010930A0600930B
:103AF00009068091A90990E090930C0680930B062B
:103B00008091D8088530A1F58091DC088A3108F4CD
:103B1000B3C28091DF089091E008843F914008F0A3
:103B20007CC210920606109205068FEF9FEFDC0113
:103B30008093010690930206A0930306B0930406B7
:103B40008BE090E09093FE058093FD056091010667
:103B500070910206809103069091040640E10E9454
:103B6000A0110E94901182E08093D8081092DC0886
:103B700060910106709102068FE29AE00E949C100B
:103B80009093FC058093FB056091010670910206FD
:103B900082E29AE00E949C109093FA058093F905C6
:103BA000609101067091020685E19AE00E949C10E6
:103BB0009093F8058093F7050091F9061091FA06A5
:103BC000F8018081882309F4C1C30E940307C090D3
:103BD0008305D0908405E0908505F09086056C19EA
:103BE0007D098E099F09C0907F05D0908005E090E7
:103BF0008105F0908205C616D706E806F90608F09A
:103C0000A5C30E9403074B015C018092830590923B
:103C10008405A0928505B0928605780130E020E009
:103C20004AE0F801D1908F0180ED8D0D8A3008F0C7
:103C3000C3C2429FC001439F900D11242D2DDD0C66
:103C4000330B20533109280F391F7F01EACF10921F
:103C50007C05F5CE875D9A4FFC01808181340CF0A4
:103C600087538295807F275D3A4FF9019281913485
:103C70008CF19753890F4813FCCE8091290584322B
:103C800009F0F7CE80912C05823509F0F2CE8091B3
:103C90002D058D3409F0EDCE80912E05833409F089
:103CA000E8CEA5E3B5E090E080E0ECE0F0E02D9117
:103CB0002C3209F091C101968130910569F42C9163
:103CC000213409F489C182E194E00E9483110E94A9
:103CD0009011CFCE9053CECF8830910509F07CC1A2
:103CE000EF5FA090300590903105B0903205609064
:103CF00033057090340540903505F0E0E75DFA4FEC
:103D0000C080D1808281082E000C990BC0971AE0E8
:103D1000189F7001199FF00C11248381E80EF11C8B
:103D200087FDFA9400E3E01AF108048155804CE025
:103D300050E061E070E0C7010E945437882309F425
:103D400098CE8C2DCC0C990BC097189F9001199F81
:103D5000300D1124C9018D0D911DD7FC9A956C0170
:103D600090E3C91AD1084FE150E061E070E0C6016C
:103D70000E945437882309F47CCE8A2DAA0C990B13
:103D8000C097189F9001199F300D1124F901E90D7A
:103D9000F11D97FCFA954F01F0E38F1A910847E166
:103DA00050E070E060E0C4010E945437882309F4B9
:103DB00060CE8B2DBB0C990BC097189F5001199F9B
:103DC000B00C1124A60CB11C67FCBA9420E3A21A13
:103DD000B1084BE350E070E060E0C5010E94543749
:103DE000882309F446CE872D770C990BC097189F2E
:103DF0003001199F700C1124640C711C47FC7A94DB
:103E000030E3631A71084BE350E070E060E0C301F7
:103E10000E945437882309F42CCE202F000F330B37
:103E200020533109129FC001139F900D11248C0162
:103E30000053184F050D111D57FC1A950053110919
:103E4000063E87E01807C4F46982AA828B82CD827D
:103E5000EE82025B0F83CE0101960E94D20886514A
:103E60009B4DAE014F5F5F4F0E94B6090F8110E07E
:103E70000E54184FEE80CD8046EF57E062EE77E0AB
:103E8000C8010E945437882309F4F3CD8092090AAF
:103E9000A0920A0A60920B0AC0920C0AE0920D0AE4
:103EA00010930F0A00930E0A0E9403076B017C0116
:103EB000C092110AD092120AE092130AF092140AE8
:103EC0008091280581118FC00E9403076C197D091C
:103ED0008E099F09693B7B408105910508F0C9CD9A
:103EE00080E192E00E9494118091090A0E94E411FD
:103EF00080910A0A0E94E41180910B0A0E94E41149
:103F000080910E0A90910F0A18EEC12E13E0D12E67
:103F1000B6010E94F3397C0100910D0A10E0209156
:103F20000C0A30E040910B0A50E060910A0A70E000
:103F30008091090A90E00E949209A0915D02B091DF
:103F40005E0220E13EE00E94503A0091D5061091B9
:103F5000D6062091D7063091D806DC01CB01800F20
:103F6000911FA21FB31F8093D5069093D606A093EE
:103F7000D706B093D8060E948C0849ED56E00E94FF
:103F8000B6090E94B60A4C010E94C00A082F0E947E
:103F9000C80AB82E0E94D00AF82E0E94D80A182FFC
:103FA0000E94E00A382FC401B6010E94F339E82EBE
:103FB0002B2D4F2D612F832F0E94F90D81E08093CF
:103FC00028050E94030760932405709325058093BC
:103FD0002605909327054DCD3196E335F10509F07F
:103FE00066CEE0E07ECE0E9403070091240510918A
:103FF00025052091260530912705601B710B820B4A
:10400000930B613477478B41910518F01092280586
:1040100030CD81E0809328052CCD8091E1089091EE
:10402000E20885974B9740F5E8EDF8E082E090E0F4
:1040300040E050E0BA01DC0111962091DC082A171B
:104040001B0609F00CF48EC02385348527503109F6
:104050002730310508F085C0258536852351310983
:104060002F30310508F470C0258536852A50310976
:104070002930310508F470C0063011050CF473CDF9
:1040800088ED98E09EAF8DAF43E0242E312C55ECA7
:10409000C52E5DE9D52E5CE1E52E51E8F52E201602
:1040A00031060CF078C0EDADFEAD65857685A18456
:1040B000B28490E080E00E94E0372B013C01B50122
:1040C00090E080E00E94E0374B015C012DEC3CEC7D
:1040D0004CE45FE30E9441389B01AC01C301B20193
:1040E0000E94DB37F0E0E0E087FD14C02DEC3CECF3
:1040F0004CE45FE3C301B2010E9441389B01AC0173
:10410000C501B4010E94DB37E2E0F0E087FD02C0A8
:10411000E1E0F0E0A701960163E971E080E091E061
:104120000E94D7396F01FF0FEE08FF08C626D72679
:10413000E826F926FFEF2F1A3F0A2DAD3EAD2E5F80
:104140003F4F3EAF2DAFABCF440F551F661F771FBC
:104150004160029634966FCF440F551F661F771F3C
:10416000F8CFCD010197959587959093060680939A
:1041700005060C972CF410920606109205067CCFCB
:104180004093010650930206609303067093040661
:1041900084E090E0D7CCC0920106D0920206E09273
:1041A0000306F092040680E290E090930606809366
:1041B00005068FEF9FEFC6CC30931B0620931A069F
:1041C0006091160670911706809118069091190655
:1041D0002115310511F1032E000C440B550B0E94E3
:1041E000293A20937F0530938005409381055093B1
:1041F0008205EFE9ED0DE730B0F40E2E000CFF0B59
:104200008827EA5FFE4D8F4F0C94483A8C248E2409
:1042100080248424862488248A2420910B0230E080
:1042200050E040E0DCCF10927E05F70181818332BF
:1042300041F480917E058F5F80937E0587010E5F3C
:104240001F4FF80180818E32F1F4C0907F05D0902D
:104250008005E0908105F0908205C701B60122E05B
:1042600030E040E050E00E94293AC20ED31EE41E26
:10427000F51EC0927F05D0928005E0928105F092F4
:1042800082050F5F1F4FF801808180538A3008F04C
:1042900047C380937D050F5F1F4FF80180818C32EB
:1042A00011F40F5F1F4FE0917E05EE2309F44EC01D
:1042B000C0907F05D0908005E0908105F090820548
:1042C00080917D058450990B4CE0489F9001499F57
:1042D000300D1124E20FF32FF11DEE0FFF1FE353FA
:1042E000FD4FB701A601808191810E940F040E94B9
:1042F0000307681979098A099B09C616D706E806D3
:10430000F90620F50E9403076093830570938405E6
:10431000809385059093860580919107813009F4FB
:1043200004C3823009F407C3811105C080916E0077
:104330008D7F80936E0060E0809190070E94A503BE
:1043400081E292E00E94941110E000E01093FA06DE
:104350000093F9060E9403070091F3051091F405FC
:104360002091F5053091F605601B710B820B930BC4
:104370006630710581059105E8F080910E0281118A
:10438000E0C270E060E089E00E94D50570E060E086
:1043900086E00E94D50570E060E083E00E94D505CC
:1043A0000E9403076093F3057093F4058093F5056D
:1043B0009093F60580911C0690911D06892B21F0A3
:1043C0008091F2058111DBC180911E068111D7C158
:1043D00080919D0581110DC00E940307609399058E
:1043E00070939A0580939B0590939C0581E0809340
:1043F0009D058091910581110DC00E940307609376
:104400008D0570938E0580938F059093900581E0C4
:10441000809391050E9403070091990510919A05D8
:1044200020919B0530919C05601B710B820B930BB7
:1044300000910002109101022091020230910302CA
:10444000061717072807390708F04DC00E94030711
:104450006093990570939A0580939B0590939C05B2
:1044600080918B0590918C05009709F0D6C281E070
:1044700090E090931D0680931C0688E893E1A0E0ED
:10448000B0E08093000290930102A0930202B093E7
:10449000030280918B0590918C058230910581F407
:1044A00010921D0610921C0640E65AEE60E070E085
:1044B0004093000250930102609302027093030242
:1044C0000196833091050CF0C8C290938C058093BF
:1044D0008B058091F205882321F010921D06109221
:1044E0001C061092F2050E94030700919905109195
:1044F0009A0520919B0530919C05601B710B820BE6
:10450000930B603D77408105910508F078C30E94C8
:10451000030700918D0510918E0520918F05309134
:104520009005601B710B820B930B6536710581053D
:10453000910508F424C10E94030760938D057093D0
:104540008E0580938F059093900580911C06909125
:104550001D062091F006222309F484C2892B89F5D7
:10456000CE0149960E94C61981E020915B023091EC
:104570005C02232B09F480E00E94F80EAB01BC0121
:10458000CE0101960E94431AAE01475E5F4FBE0105
:104590006F5F7F4FCE014F960E945916BE01615E3C
:1045A0007F4F85EF99E00E949614CE014F960E94AE
:1045B000E114CE0101960E94E114CE0149960E94B9
:1045C000E11480911C0690911D06019709F062C0CC
:1045D0000E94B60A68EE73E00E94F339BC01CE0176
:1045E0008B960E9418180E94C00ABC01CE018596C5
:1045F0000E9418180E94C80ABC01CE0149960E9468
:104600001818BE01675E7F4FCE014F960E94F315CA
:10461000BE016B5D7F4FCE014F960E947215BE01A9
:10462000655D7F4F0E947215BC01CE01C1960E944C
:10463000F315CE0101960E94C619AE014F5C5F4F83
:10464000BE016F5F7F4FCE01C7960E945916BE0113
:10465000695C7F4F85EF99E00E949614CE01C79662
:104660000E94E114CE0101960E94E114CE01C19690
:104670000E94E114CE014F960E94E114CE014996AA
:104680000E94E114CE0185960E94E114CE018B9622
:104690000E94E11480911C0690911D06049709F078
:1046A0006EC081E020915B0230915C02232B09F403
:1046B00080E00E94F80EAB01BC01CE01C1960E94C1
:1046C000431A0E94B60A68EE73E00E94F339BC01F7
:1046D000CE0185960E9418180E94C00ABC01CE0126
:1046E0004F960E9418180E94C80ABC01CE0101967C
:1046F0000E941818BE016F5F7F4FCE0149960E943D
:10470000F315BE01615E7F4FCE0149960E9472157E
:10471000BE016B5D7F4F0E947215BC01CE018B966E
:104720000E94F315AE014F5C5F4FBE01655D7F4F88
:10473000CE01C7960E945916BE01695C7F4F85EF76
:1047400099E00E949614CE01C7960E94E114CE0112
:104750008B960E94E114CE0149960E94E114CE018D
:1047600001960E94E114CE014F960E94E114CE0101
:1047700085960E94E114CE01C1960E94E1140E9428
:1047800000128CED99E00E94E80A83EC99E00E9407
:10479000E80A8AEA99E00E94E80A80911E068111DF
:1047A00031C2109280068091DC099091DD091816C3
:1047B00019063CF08091FB059091FC05019709F0EA
:1047C0000AC381E08093F2051092FA061092F9066E
:1047D00044E650E060E070E088EE93E00E940F0451
:1047E0000E94030760931F067093200680932106A2
:1047F0009093220680911C0690911D0601968630AA
:10480000910509F42CC290931D0680931C062091FB
:104810001C0630911D068901000F111FF801E15F90
:10482000FD4F808180938006D9011197FD01EE0F25
:10483000FF1FE558FC4F608171816115710509F416
:10484000BBC2AB0141505109FA01EE0FFF1FED5AF7
:10485000FC4F0190F081E02DAE17BF0709F0ACC20C
:104860006230710509F000C288E1E5EBF2E0DE019B
:10487000119601900D928A95E1F780914F029091E7
:10488000500283709927892B21F48DE190E09C835D
:104890008B8380914D0290914E020197880F991F52
:1048A00021E030E02C0F3D1F820F931F20914B021F
:1048B00030914C02FC0180819181821793070CF0AA
:1048C000D3C18AE090E090931D0680931C06EE967B
:1048D0000FB6F894DEBF0FBECDBFDF91CF911F9111
:1048E0000F91FF90EF90DF90CF90BF90AF909F908F
:1048F0008F907F906F905F904F903F902F90089592
:1049000081E080937E0591CC83E0FBCF85E0F9CFF9
:1049100086E0F7CF88E0F5CF8AE0F3CF8CE0F1CFE7
:1049200080910A0280937D05B8CC80916F008D7FC5
:1049300080936F0000CD809170008D7F8093700018
:10494000FACC80910A0781112BCD00918905109135
:104950008A05F801EE0FFF1FE00FF11FDF01AA0F1C
:10496000BB1FA15DBC4F8D919C916091060270911F
:104970000702680F791F7093070260930602DF0138
:10498000AA0FBB1FAF5CBC4FCD90DC908091E805B7
:104990009091E905C80ED91ED092E905C092E805AC
:1049A000EE0FFF1FED5CFC4FE080F1808091E6058B
:1049B0009091E705E80EF91EF092E705E092E60512
:1049C00089E00E94D505B60186E00E94D505B701B1
:1049D00083E00E94D5058091870590918805019616
:1049E00090938805809387058F3F910551F40F5F61
:1049F0001F4F10938A050093890510928805109225
:104A000087058091890590918A0506970CF4C8CC9A
:104A100010928A0510928905C3CC019709F039CD0F
:104A200084E090E090931D0680931C0688E893E153
:104A3000A0E0B0E08093000290930102A0930202F4
:104A4000B09303028091F006811164C782E090E088
:104A500090938C0580938B051CCD10928C05109241
:104A60008B0537CD892B09F062C0CE01C1960E941B
:104A7000C6190E94B60A68EE73E00E94F339BC01C1
:104A8000CE0185960E9418180E94C00ABC01CE0172
:104A90004F960E9418180E94C80ABC01CE010196C8
:104AA0000E941818BE016F5F7F4FCE0149960E9489
:104AB000F315BE01615E7F4FCE0149960E947215CB
:104AC000BE016B5D7F4F0E947215BC01CE018B96BB
:104AD0000E94F315AE014F5C5F4FBE01655D7F4FD5
:104AE000CE01C7960E945916BE01695C7F4F85EFC3
:104AF00099E00E949614CE01C7960E94E114CE015F
:104B00008B960E94E114CE0149960E94E114CE01D9
:104B100001960E94E114CE014F960E94E114CE014D
:104B200085960E94E114CE01C1960E94E114809105
:104B30001C0690911D06019709F021CE0E94B60A2D
:104B400068EE73E00E94F339BC01CE018B960E949F
:104B500018180E94C00ABC01CE0185960E94181840
:104B60000E94C80ABC01CE0149960E941818BE01D5
:104B7000675E7F4FCE014F960E94F315BE016B5DBD
:104B80007F4FCE014F960E947215BE01655D7F4F2B
:104B90000E947215BC01CE01C1960E94F315CE0190
:104BA00001960E94C619AE014F5C5F4FBE016F5F58
:104BB0007F4FCE01C7960E945916BE01695C7F4F98
:104BC00085EF99E00E949614CE01C7960E94E114E9
:104BD000CE0101960E94E114CE01C1960E94E1141B
:104BE000CE014F960E94E114CE0149960E94E11435
:104BF000CE0185960E94E114CE018B96BECD109217
:104C00003B06BDCD0E94030700911F0610912006B0
:104C10002091210630912206601B710B820B930BB1
:104C200061367A4E8105910508F4BDCD10921E06BD
:104C3000E0911C06F0911D06EE0FFF1FED55FC4F95
:104C40008081918190931D0680931C06880F991F87
:104C5000FC01E15FFD4F808180938006A4CD10921E
:104C60001D0610921C06D3CD10921E0650931D06F1
:104C700040931C06452BB9F40E94B60A7C010E94A1
:104C8000C00A8C010E94C80A409147025091480214
:104C900060914502709146029C018091430290917F
:104CA00044020E94920980911C0690911D06019772
:104CB000F9F4E0904F02F090500200914D021091F3
:104CC0004E0280904B0290904C020E94D00A5C01F0
:104CD0000E94D80A6C010E94E00A9401A501B60165
:104CE0000E949209609149028DE090E00E947D1C33
:104CF00080911C0690911D060297C1F460915102AB
:104D000082E090E00E947D1C6091530283E090E07D
:104D10000E947D1C6091550284E090E00E947D1C01
:104D20006091570286E090E00E947D1C80911C06F5
:104D300090911D06039731F46091590281E090E053
:104D40000E947D1C80911C0690911D06049731F4F1
:104D500060915B028BE090E00E947D1C80911C06BC
:104D600090911D06059749F460915D02809185023E
:104D7000681B8CE090E00E947D1C0E94B60A5C01DA
:104D80000E94C00A082F0E94C80AD82E0E94D00A8A
:104D9000F82E0E94D80A182F0E94E00A382FC50169
:104DA00068EE73E00E94F339E82E2D2D4F2D612F10
:104DB000832F0E94F90D8BCD2331310561F02950ED
:104DC00031092230310538F00E941517F801E95CED
:104DD000FD4F918380838091DC099091DD0997FDDF
:104DE00007C08091FB059091FC05019609F0F4C085
:104DF00044E650E060E070E088EE93E00E940F042B
:104E000080911E06811152C000911C0610911D0652
:104E10000E94030760931F0670932006809321066B
:104E200090932206012B09F041C00E94D00ABC01D8
:104E3000CE0185960E9418180E94D80ABC01CE01A6
:104E40004F960E9418180E94E00ABC01CE010196FC
:104E50000E941818BE016F5F7F4FCE0149960E94D5
:104E6000F315BE01615E7F4FCE0149960E94721517
:104E7000BE016B5D7F4F0E94721568E274E00E9474
:104E80005C15BC0185EF99E00E94DC15CE014996C6
:104E90000E94E114CE0101960E94E114CE014F96CA
:104EA0000E94E114CE0185960E94E11480911C06B7
:104EB00090911D06019709F056C00E94C80A909370
:104EC0004C0280934B020E94C00A90934E02809342
:104ED0004D020E94B60ABC019093500280934F028B
:104EE0008091490290914A02892B09F09BC1CE0121
:104EF00085960E94181860914D0270914E02CE0165
:104F00004F960E94181860914B0270914C02CE018E
:104F100001960E941818BE016F5F7F4FCE0149961F
:104F20000E94F315BE01615E7F4FCE0149960E943B
:104F30007215BE016B5D7F4F0E947215BC0185EF3B
:104F400099E00E94DC15CE0149960E94E114CE0141
:104F500001960E94E114CE014F960E94E114CE0109
:104F600085960E94E114E0911C06F0911D06EE0F5B
:104F7000FF1FED55FC4F2081318130931D0620939A
:104F80001C062D30310549F481E090E090935802E1
:104F90008093570280E88093700680911E0691E00E
:104FA000892780931E068901000F111FF801E15F18
:104FB000FD4F808180938006A90142515109423002
:104FC000510550F02930310539F00E941517F801CC
:104FD000E95CFD4F918380838091C3099091C4095E
:104FE000009709F030C18091F9059091FA05019779
:104FF000E1F481E08093F2051092FA061092F9062E
:1050000044E650E060E070E088EE93E00E940F0418
:105010000E94721980911E06811107C010920A0722
:1050200060E087E090E00E947D1C8091F005909107
:10503000F105019609F010C18091C509882309F492
:105040000BC11092820680911E068823F9F00E94FF
:1050500003070091EC051091ED052091EE053091CC
:10506000EF05601B710B820B930B6739710581058E
:10507000910560F00E9403076093EC057093ED05C5
:105080008093EE059093EF050E9472198091AA0912
:105090009091AB09009709F0E3C08091F7059091DA
:1050A000F805019771F511E01093F2051092FA06D8
:1050B0001092F90644E650E060E070E088EE93E07C
:1050C0000E940F040E94131980911E06811119C0BD
:1050D00010930A0761E087E090E00E947D1C6091D8
:1050E000060288E090E00E947D1C6091E80589E05E
:1050F00090E00E947D1C6091E6058AE090E00E94AD
:105100007D1C8091EA059091EB05019609F0B1C0F4
:105110008091AC09882309F4ACC080911E061092DE
:105120008106882321F10E9403070091E205109176
:10513000E3052091E4053091E505601B710B820BBE
:10514000930B673971058105910508F449C00E94E8
:1051500003076093E2057093E3058093E405909361
:10516000E5050E94131980911E06811139C08091B6
:10517000C3099091C40997FD06C08091F9059091EB
:10518000FA05019691F444E650E060E070E088EEA4
:1051900093E00E940F0481E080930E0261E090E0B2
:1051A00080E00E947D1C0E94811C8091AA09909140
:1051B000AB0997FD06C08091F7059091F80501961F
:1051C00079F444E650E060E070E088EE93E00E94FD
:1051D0000F0410920E0260E090E080E00E947D1CBF
:1051E000E0911C06F0911D06E431F10508F06FCB4B
:1051F0008827E250F74D8F4F0C94483A3D29222AD8
:105200001A2B662B912BD52B672467246724042C3B
:105210002C2C2C2C2C2C67246724672467246724CF
:10522000912BD52BCE0185960E94181860914B02C8
:1052300070914C02CE014F960E94181860914D0259
:1052400070914E0264CE9093F1058093F00518168C
:1052500019060CF4CECEC7CE81E08093820616CF1D
:105260009093EB058093EA05181619060CF41BCFF2
:1052700014CF81E08093810676CF80913B06811127
:10528000CBC00E94D00A20910402309105028217FF
:10529000930709F4D0C00E94D00A9093050280932E
:1052A000040200915B0210915C0281E0011511057E
:1052B00009F480E00E94F80E6B017C018091B70533
:1052C000811111C00E940307645B7B4F8F4F9F4F7A
:1052D0006093B3057093B4058093B5059093B605BC
:1052E00081E08093B7058091AB05811109C061E130
:1052F00074E085EA95E00E94FC1581E08093AB059F
:105300000E9403078090B3059090B405A090B50566
:10531000B090B605681979098A099B09693E7340FE
:105320008105910508F444C00E9403076093B3050A
:105330007093B4058093B5059093B605012B09F0E1
:1053400073C017E320E030E0A901C701B6010E9455
:10535000D23920E030E040E05FE387FD67C0C7015D
:10536000B6010E9430390E949C3924E630E040E0CA
:1053700050E00E94293ACE0149960E941818BE01B9
:10538000675E7F4FCE0101960E94F315612FCE011B
:1053900001960E943D15BC0185EA95E00E94DC154E
:1053A000CE0101960E94E114CE0149960E94E114BB
:1053B00065EA75E0CE0101960E94F315CE014F9685
:1053C0000E94C619BE01615E7F4FCE0149960E94C0
:1053D000F315BE016F5F7F4FCE0149960E94721593
:1053E000BC01CE0185960E94F315CE0149960E941C
:1053F000E114CE014F960E94E114CE0101960E9465
:10540000E114BE016B5D7F4F85EF99E00E94961419
:10541000CE0185960E94E1140E94D00A80FD7CC1D5
:1054200080EC809370067AC112E38CCFC701B6017D
:105430000E942F3998CF65EF79E0CE0185960E94C2
:10544000F315DFCF80913B068111E1C08091DA0531
:10545000811111C00E94030767517C4F8F4F9F4FEE
:105460006093D6057093D7058093D8059093D9059E
:1054700081E08093DA058091CE05811144C00E94BD
:10548000B60A68EE73E00E94F339BC01CE010196C2
:105490000E9418180E94C00ABC01CE0149960E94C1
:1054A00018180E94C80ABC01CE0185960E941818DF
:1054B000BE016B5D7F4FCE014F960E94F315BE017A
:1054C000675E7F4FCE014F960E947215BE016F5FDF
:1054D0007F4F0E947215BC0188EC95E00E94F31585
:1054E00081E08093CE05CE014F960E94E114CE015B
:1054F00085960E94E114CE0149960E94E114CE01E6
:1055000001960E94E1140091490210914A02809193
:10551000C005811105C00093BF0581E08093C005DF
:105520000E940307C090D605D090D705E090D8051B
:10553000F090D9056C197D098E099F09693E734069
:105540008105910530F48091BF058017110609F49B
:105550004DC00E9403076093D6057093D7058093D2
:10556000D8059093D905012B09F053C00E94B60AC3
:10557000BC01CE0101960E9418180E94C00ABC010D
:10558000CE0149960E9418180E94C80ABC01CE019B
:1055900085960E941818BE016B5D7F4FCE014F9615
:1055A0000E94F315BE01675E7F4FCE014F960E94A9
:1055B0007215BE016F5F7F4F0E94721569E30E94F2
:1055C0003D15BC0188EC95E00E94DC15CE014F969C
:1055D0000E94E114CE0185960E94E114CE01499605
:1055E0000E94E114CE0101960E94E11468EC75E07E
:1055F000CE0101960E94F315BE016F5F7F4F85EFCC
:1056000099E00E949614CE0101960E94E11480E474
:1056100008CF0E94B60ABC01CE0101960E9418185C
:105620000E94C80ABC01CE0149960E9418180E9427
:10563000C00AACCF6091550270915602CE0185969A
:105640000E9418186091530270915402CE014F9637
:105650000E9418186091510270915202CE01019679
:105660000E941818BE016F5F7F4FCE0149960E94BD
:10567000F315BE01615E7F4FCE0149960E947215FF
:10568000BE016B5D7F4F0E94721568E274E00E945C
:105690005C15BC0185EF99E00E94DC15CE014996AE
:1056A0000E94E114CE0101960E94E114CE014F96B2
:1056B0000E94E114CE0185960E94E1148091570268
:1056C00090915802019741F580E8ABCE6091590264
:1056D00070915A02CE0149960E94B01560E574E0BF
:1056E000CE0101960E94FC15BE01675E7F4FCE0180
:1056F00001960E94721566E274E00E945C15BC017E
:1057000085EF99E00E94DC15CE0101960E94E1141C
:10571000CE0149960E94E114109270060E94C50FB6
:10572000D6C880913B06811124C081E020915B02A4
:1057300030915C02232B09F480E00E94F80EAB014B
:10574000BC01CE0101960E94431ABE016F5F7F4FDC
:1057500085EF99E00E949614CE0101960E94E11413
:1057600080915B0290915C02892BD1F480E480935C
:10577000700681E020915B0230915C02232B09F4DA
:1057800080E00E94F80E1091700620E030E0A90140
:105790000E94DB3787FF07C010681093700697C818
:1057A00010927006E6CF1F77F8CF60915D0270917E
:1057B0005E02CE0101960E941818BE016F5F7F4FF6
:1057C000CE0149960E94F31564E274E0CE01499639
:1057D0000E945C15BC0185EF99E00E94DC15CE01AA
:1057E00049960E94E114CE0101960E94E114809135
:1057F0005D0290915E0297FD03C01092700667C82B
:1058000080E88093700663C88091490290914A02B3
:10581000892B99F46CE274E085EF99E00E94A6155B
:1058200083E090E090932402809323028CE090E048
:1058300090932602809325024AC866E374E085EFC0
:1058400099E00E94A6158CE090E09093240280934A
:10585000230283E090E0ECCF60914F027091500200
:105860008091490290914A02892B09F042C0CE01F1
:1058700085960E946A1760914D0270914E02CE018A
:105880004F960E94181860914B0270914C02CE0105
:1058900001960E941818BE016F5F7F4FCE01499696
:1058A0000E94F315BE01615E7F4FCE0149960E94B2
:1058B0007215BE016B5D7F4F0E9472156AE274E043
:1058C0000E945C15BC0185EF99E00E94DC15CE01B9
:1058D00049960E94E114CE0101960E94E114CE0186
:1058E0004F960E94E114CE0185960E94E1140C941B
:1058F0006724CE0185960E946A1760914B027091D1
:105900004C02CE014F960E94181860914D02709182
:105910004E02BDCF81E090E00C9460221F920F9266
:105920000FB60F9211242F933F938F939F93AF93B2
:10593000BF9380910C0790910D07A0910E07B09135
:105940000F0730910B0723E0230F2D3758F50196F1
:10595000A11DB11D20930B0780930C0790930D0799
:10596000A0930E07B0930F07809110079091110735
:10597000A0911207B09113070196A11DB11D80934C
:10598000100790931107A0931207B0931307BF91CC
:10599000AF919F918F913F912F910F900FBE0F90DC
:1059A0001F90189526E8230F0296A11DB11DD2CF96
:1059B0001F920F920FB60F9211240BB60F922F93D6
:1059C0003F934F935F936F937F938F939F93AF9387
:1059D000BF93EF93FF9382E997E00E949007FF91B6
:1059E000EF91BF91AF919F918F917F916F915F9157
:1059F0004F913F912F910F900BBE0F900FBE0F90C4
:105A00001F9018951F920F920FB60F9211240BB68C
:105A10000F922F938F939F93EF93FF93E091A207A1
:105A2000F091A3078081E091A807F091A90782FD7A
:105A30001DC090818091AB078F5F8F732091AC0761
:105A4000821741F0E091AB07F0E0EE56F84F958FEA
:105A50008093AB07FF91EF919F918F912F910F90C2
:105A60000BBE0F900FBE0F901F9018958081F2CF44
:105A70001F920F920FB60F9211240BB60F922F9315
:105A80003F934F935F936F937F938F939F93AF93C6
:105A9000BF93EF93FF938FE298E00E949007FF91EE
:105AA000EF91BF91AF919F918F917F916F915F9196
:105AB0004F913F912F910F900BBE0F900FBE0F9003
:105AC0001F9018951F920F920FB60F9211240BB6CC
:105AD0000F922F938F939F93EF93FF93E0913F0843
