:100000007CC10000ABC10000A9C10000A7C1000075
:10001000A5C10000A3C10000A1C100009FC1000054
:100020009DC100009BC1000099C1000097C1000064
:1000300095C100000C94671C91C100008FC10000A5
:100040008DC100000C94C61C89C1000087C100004E
:1000500085C100000C942F1D81C100000C945F1B12
:100060007DC100000C942B250C94022577C1000063
:1000700075C1000073C1000071C100006FC10000B4
:100080006DC100006BC1000069C1000067C10000C4
:100090000C94D9240C94B02461C100000C94F51F79
:1000A0005DC100005BC1000059C1000057C10000E4
:1000B00055C1000053C1000051C100000C94A91BA0
:1000C0004DC100004BC1000049C1000047C1000004
:1000D00045C1000043C1000041C100003FC1000014
:1000E0003DC10000A904AB049F04A104A304A5041E
:1000F000A704F50BE10CDB0D2D0E5F0EAC0E3811D5
:1001000038113811E10E090F090F090F3811381194
:100110003811381138115F0EAC0E19231C230B2334
:100120000F2315235323202324232A232E23322372
:1001300038233C234023532346234A234E230E26B1
:100140001326182622262C26A52636263E264626A7
:1001500050265A26642673267D26A52687269126B4
:100160009B26496E636F727265637420536F6E676E
:1001700020466F726D617421000000220025002866
:10018000002B002E003100340002010000050108A0
:10019000010B0102010000002100240027002A00B9
:1001A0002D003000330001010000040107010A01A5
:1001B00053746F7020546573740054656D702E20F5
:1001C00073656E736F72206E6F7420666F756E64E8
:1001D0002E00537461727420546573740046697202
:1001E0006D776172652076657273696F6E3A200073
:1001F0004661756C747920445333323331210044A5
:1002000053333233315F543D0000000A0B02090CB6
:100210000D0E0807030401000000000000000000AC
:1002200000000000000000000000000000000000CE
:10023000000000000012111000000000000000008B
:1002400000000000000000000000000000000000AE
:100250000020002300260029002C002F003200007F
:100260000100000301060109010505050507050850
:10027000080808020202020A0A0808040404040129
:10028000010101010101010303030303030303044B
:100290000707070C0C0C0C0C0C0C0C0202020206DB
:1002A000060606060606060B0B0B0B0B0B0B0B01CB
:1002B0000210202008081020401020408002010277
:1002C000010804020101020408102040808040203F
:1002D000100804020180040201804020100804027A
:1002E00001080402010102040810204080010204F8
:1002F0000810204080005833503311241FBECFEF28
:10030000D1E2DEBFCDBF00E00CBF2AE0A8E2B5E03D
:1003100001C01D92AD32B207E1F715E0A0E0B2E0F6
:10032000E4E5F3E700E00BBF02C007900D92A832AE
:10033000B107D9F711E0CCE7D1E000E006C0219782
:100340000109802FFE010E945237CB37D10780E090
:100350000807A9F70E94C82D0C94993951CE2F9205
:100360003F924F925F926F927F928F929F92AF9245
:10037000BF92CF92DF92EF92FF920F931F93CF9392
:10038000DF93CDB7DEB7C054D1090FB6F894DEBF06
:100390000FBECDBF0E942D1B20E137E240E050E0B0
:1003A0000E941437672B682B692B29F480916F0604
:1003B00081110C94650F88E797E00E942522892B14
:1003C00009F445C088E797E00E94032290917B05DD
:1003D000E92FF0E0E85DFA4F80839F5F923519F0D6
:1003E00090937B0502C010927B058A3081F5E091E5
:1003F0007B05F0E0E85DFA4F108210927B0581E00A
:1004000090E020E0FC01E85DFA4F30813A3231F0B3
:100410002327019683359105A9F719C0818181347D
:100420000CF087538295807F9281913414F097531A
:1004300001C09053890F82130AC08091280584322D
:1004400031F480912B05823511F40C94830F0E94B6
:100450002D1B21E137E240E050E00E941437672B6A
:10046000682B692B09F0AAC08091800581118BC08F
:100470000E942D1B0091F7091091F8092091F909AC
:100480003091FA09DC01CB01801B910BA20BB30B5D
:10049000893B9B40A105B10508F090C08091F4090B
:1004A0009091F509F8EECF2EF3E0DF2EB6010E9411
:1004B00001377C010091F30910E02091F20930E04E
:1004C0004091F10950E06091F00970E08091EF09EE
:1004D00090E00E94981D40915D0250915E0220E1E3
:1004E0003EE0429FC001439F900D529F900D11240A
:1004F000092E000CAA0BBB0B409183065091840679
:100500006091850670918606840F951FA61FB71F00
:100510008093830690938406A0938506B093860605
:100520000E94731E0E94FE280E941D1F7C010E94D3
:10053000251F082F0E942B1F21968FAF21970E9405
:10054000311F8FAF0E94371F182F0E943D1F382F79
:10055000C701B6010E940137E82E21962FAD2197E1
:100560004FAD612F832F0E94752B81E08093800512
:100570000E942D1B60937C0570937D0580937E0502
:1005800090937F051BC00E942D1B00917C0510914C
:100590007D0520917E0530917F05DC01CB01801B1C
:1005A000910BA20BB30B81349747AB41B10518F007
:1005B0001092800503C081E08093800510920506AB
:1005C00010920606109207061092080685EC98E035
:1005D00090930C0680930B068091C208282E312C34
:1005E00030920E0620920D0680918F0990E0909334
:1005F000100680930F068091BE08853009F0F2C086
:100600008091C2088A3108F46BC08091C50890912E
:10061000C608843F914090F410920A061092090691
:100620008FEF9FEFDC018093050690930606A09361
:100630000706B09308068BE090E03EC08091C708A3
:100640009091C80885974B9708F04AC0EBECF8E00A
:1006500082E090E040E050E0BA018C010F5F1F4F54
:100660002091C20830E00217130774F49F01225052
:100670003109D9012D913C9127503109273031059D
:1006800010F40C945D10C80101979595879590938F
:100690000A06809309060C972CF410920A06109211
:1006A00009061EC040930506509306066093070690
:1006B0007093080684E090E0909302068093010610
:1006C00060910506709106068091070690910806D4
:1006D00040E10E94D82980E394E00E94C0287DC0B8
:1006E000B6E02B1631040CF478C00BEC18E0E3E014
:1006F000F0E0FEAFEDAF55ECC52E5DE9D52E5CE127
:10070000E52E51E8F52E8DAD9EAD821593050CF0CA
:1007100053C0D8016D917C91F8013497A080B180CD
:1007200080E090E00E9408352B013C01B50180E09B
:1007300090E00E9408354B015C012DEC3CEC4CE450
:100740005FE30E9469359B01AC01C301B2010E94C5
:10075000043587FD17C02DEC3CEC4CE45FE3C3018E
:10076000B2010E9469359B01AC01C501B4010E9430
:100770000435E82F880FFF0BEE27FF0FEE1FFF2732
:10078000319602C0E0E0F0E0A701960163E971E074
:1007900080E091E00E94E6366F01FF0FEE08FF084F
:1007A000C626D726E826F926EDADFEAD3196FEAF7A
:1007B000EDAF0E5F1F4FA7CFC0920506D092060681
:1007C000E0920706F092080680E290E090930A0615
:1007D000809309068FEF9FEF6FCF82E08093BE0872
:1007E0001092C208609105067091060685E19AE0B4
:1007F0000E945F2D909300068093FF05609105068F
:100800007091060688E09AE00E945F2D9093FE05A5
:100810008093FD0560910506709106068BEF99E0C7
:100820000E945F2D9093FC058093FB050091630669
:1008300010916406D8018C91882309F435C10E9477
:100840002D1BC0908705D0908805E0908905F09019
:100850008A05DC01CB018C199D09AE09BF09C09046
:100860008305D0908405E0908505F0908605C81634
:10087000D906EA06FB0608F017C10E942D1B6B0182
:100880007C01609387057093880580938905909318
:100890008A051092160610921506A8016AE08A01D0
:1008A000FA01B0804F5F5F4F80ED8B0D20911506F0
:1008B000309116068A3080F4629FF001639FF00D3C
:1008C00011248B2DBB0C990BC0978E0F9F1F9093FB
:1008D000160680931506E3CF6091110670911206FB
:1008E00080911306909114062115310529F0032EED
:1008F000000C440B550B05C020910B0230E040E08A
:1009000050E00E943637209383053093840540934E
:100910008505509386058B2DBB0C990BAA0BBB0B41
:10092000FC01E156F109E730F10530F48827EE5873
:10093000FF4F8F4F0C945237109282050FC081E009
:100940000BC083E009C085E007C086E005C088E0F1
:1009500003C08AE001C08CE080938205D801119623
:100960008C91833219F00F5F1F4F07C08091820571
:100970008F5F809382050E5F1F4FF80180818E325A
:1009800001F58090830590908405A0908505B09036
:100990008605C501B40122E030E040E050E00E944D
:1009A0003637D501C401820F931FA41FB51F809352
:1009B000830590938405A0938505B09386050F5F0A
:1009C0001F4FD8018C9180538A3028F48093810581
:1009D0000F5F1F4F04C080910A02809381058091B0
:1009E0008105F80190819C3211F40F5F1F4F209117
:1009F0008205222309F458C08090830590908405D5
:100A0000A0908505B090860590E004973CE0389F63
:100A1000F001399FF00D1124E20FF11DEE0FFF1FC1
:100A2000E353FD4FB501A401808191810E94E82626
:100A30000E942D1BDC01CB018C199D09AE09BF0959
:100A400088169906AA06BB0678F50E942D1B6093AE
:100A50008705709388058093890590938A05809116
:100A60007707813051F0823071F0811111C080918F
:100A70006E008D7F80936E000BC080916F008D7F24
:100A800080936F0005C0809170008D7F809370000F
:100A900060E0809176070E947C2582E691E00E94CA
:100AA000F22890E080E002C0902F812F909363069F
:100AB000809364060E942D1B0091F7051091F805A4
:100AC0002091F9053091FA05DC01CB01801B910BD7
:100AD000A20BB30B0697A105B10508F489C080915C
:100AE0000E02811110C060E070E089E00E94E725ED
:100AF00060E070E086E00E94E72560E070E083E05F
:100B00000E94E7256BC080917206811167C0009139
:100B10008D0510918E05C801880F991F800F911FB8
:100B2000FC01EE0FFF1FE15DFC4F6091060270912A
:100B3000070220813181620F731F70930702609357
:100B40000602FC01EE0FFF1FEF5CFC4FC090EC05AE
:100B5000D090ED0520813181C20ED31ED092ED05DB
:100B6000C092EC05880F991FFC01ED5CFC4FE090F2
:100B7000EA05F090EB0580819181E80EF91EF09274
:100B8000EB05E092EA0589E00E94E725B60186E0E0
:100B90000E94E725B70183E00E94E72580918B053D
:100BA00090918C05019690938C0580938B058F3FD7
:100BB000910551F4C801019690938E0580938D059F
:100BC00010928C0510928B0580918D0590918E0569
:100BD000069724F010928E0510928D050E942D1B11
:100BE0006093F7057093F8058093F9059093FA05E3
:100BF0008091170690911806892B21F08091F605B7
:100C00008111D3C2809119068111CFC28091A105B3
:100C100081110DC00E942D1B60939D0570939E0550
:100C200080939F059093A00581E08093A10580911A
:100C3000950581110DC00E942D1B60939105709345
:100C40009205809393059093940581E08093950598
:100C50000E942D1B00919D0510919E0520919F05DE
:100C60003091A005DC01CB01801B910BA20BB30BD3
:100C700000910002109101022091020230910302C2
:100C8000081719072A073B0708F06FC00E942D1BA1
:100C900060939D0570939E0580939F059093A0059A
:100CA00080918F0590919005009799F481E090E0F4
:100CB000909318068093170688E893E1A0E0B0E0CF
:100CC0008093000290930102A0930202B09303026A
:100CD0001EC00197E1F484E090E0909318068093A1
:100CE000170688E893E1A0E0B0E0809300029093BB
:100CF0000102A0930202B093030280916206811167
:100D000006C082E090E09093900580938F058091DB
:100D10008F05909190058230910581F4109218060C
:100D20001092170640E65AEE60E070E04093000231
:100D30005093010260930202709303020196833084
:100D400091052CF49093900580938F0504C0109228
:100D5000900510928F058091F605882321F010925E
:100D60001806109217061092F6050E942D1B00918E
:100D70009D0510919E0520919F053091A005DC01F5
:100D8000CB01801B910BA20BB30B803D9740A105BB
:100D9000B10508F008C20E942D1B00919105109129
:100DA00092052091930530919405DC01CB01801BC5
:100DB000910BA20BB30B85369105A105B10508F483
:100DC000F4C10E942D1B609391057093920580934E
:100DD0009305909394052091620680911706909157
:100DE0001806222309F410C1892B89F5CE014996F2
:100DF0000E94E92C81E020915B0230915C02232B60
:100E000009F480E00E943416AB01BC01CE010196CA
:100E10000E942814AE01475E5F4FBE016F5F7F4F97
:100E2000CE014F960E948E16BE01615E7F4F8BED04
:100E300099E00E94A823CE014F960E946424CE011F
:100E400001960E946424CE0149960E9464248091F8
:100E5000170690911806019709F062C00E941D1FA5
:100E600068EE73E00E940137BC01CE018B960E94B0
:100E70009B2C0E94251FBC01CE0185960E949B2CB5
:100E80000E942B1FBC01CE0149960E949B2CBE01E3
:100E9000675E7F4FCE014F960E949424BE016B5D2A
:100EA0007F4FCE014F960E940A24BE01655D7F4FA1
:100EB0000E940A24BC01CE01C1960E949424CE0156
:100EC00001960E94E92CAE014F5C5F4FBE016F5F3F
:100ED0007F4FCE01C7960E948E16BE01695C7F4F80
:100EE0008BED99E00E94A823CE01C7960E9464244E
:100EF000CE0101960E946424CE01C1960E94642412
:100F0000CE014F960E946424CE0149960E9464242B
:100F1000CE0185960E946424CE018B960E946424A3
:100F20008091170690911806049709F03EC181E060
:100F300020915B0230915C02232B09F480E00E9437
:100F40003416AB01BC01CE01C1960E9428140E9448
:100F50001D1F68EE73E00E940137BC01CE0185962B
:100F60000E949B2C0E94251FBC01CE014F960E941F
:100F70009B2C0E942B1FBC01CE0101960E949B2C32
:100F8000BE016F5F7F4FCE0149960E949424BE013F
:100F9000615E7F4FCE0149960E940A24BE016B5DBF
:100FA0007F4F0E940A24BC01CE018B960E9494249C
:100FB000AE014F5C5F4FBE01655D7F4FCE01C796AE
:100FC0000E948E16BE01695C7F4F8BED99E00E94F6
:100FD000A823CE01C7960E946424CE018B960E945E
:100FE0006424CE0149960E946424CE0101960E9499
:100FF0006424CE014F960E946424CE0185960E94FF
:101000006424CE01C196CCC0892B09F062C0CE0108
:10101000C1960E94E92C0E941D1F68EE73E00E9499
:101020000137BC01CE0185960E949B2C0E94251F92
:10103000BC01CE014F960E949B2C0E942B1FBC012D
:10104000CE0101960E949B2CBE016F5F7F4FCE01A7
:1010500049960E949424BE01615E7F4FCE0149965D
:101060000E940A24BE016B5D7F4F0E940A24BC01CE
:10107000CE018B960E949424AE014F5C5F4FBE015F
:10108000655D7F4FCE01C7960E948E16BE01695CDA
:101090007F4F8BED99E00E94A823CE01C7960E9456
:1010A0006424CE018B960E946424CE0149960E944E
:1010B0006424CE0101960E946424CE014F960E94C2
:1010C0006424CE0185960E946424CE01C1960E94BC
:1010D00064248091170690911806019709F065C065
:1010E0000E941D1F68EE73E00E940137BC01CE0113
:1010F0008B960E949B2C0E94251FBC01CE018596D9
:101100000E949B2C0E942B1FBC01CE0149960E947D
:101110009B2CBE01675E7F4FCE014F960E949424A8
:10112000BE016B5D7F4FCE014F960E940A24BE0127
:10113000655D7F4F0E940A24BC01CE01C1960E94CA
:101140009424CE0101960E94E92CAE014F5C5F4FC2
:10115000BE016F5F7F4FCE01C7960E948E16BE0103
:10116000695C7F4F8BED99E00E94A823CE01C79662
:101170000E946424CE0101960E946424CE01C1968F
:101180000E946424CE014F960E946424CE014996A9
:101190000E946424CE0185960E946424CE018B9621
:1011A0000E94642402C0109220060E94001282EC69
:1011B00099E00E94431F89EA99E00E94431F80E959
:1011C00099E00E94431F80911906811103C010927B
:1011D00080062DC00E942D1B00911A0610911B063F
:1011E00020911C0630911D06DC01CB01801B910B68
:1011F000A20BB30B81369A4EA105B105C0F0109237
:101200001906E0911706F0911806EE0FFF1FED5535
:10121000FC4F808191819093180680931706880F68
:10122000991FFC01E15FFD4F8081809380068091D2
:10123000C2099091C309181619063CF08091FF0568
:1012400090910006019709F098C081E08093F6051F
:10125000109264061092630644E650E060E070E08D
:1012600088EE93E00E94E8260E942D1B60931A06E8
:1012700070931B0680931C0690931D0680911706A1
:101280009091180601968630910529F090931806E2
:101290008093170604C0109218061092170620912A
:1012A0001706309118068901000F111FF801E15F40
:1012B000FD4F808180938006D9011197FD01EE0FCB
:1012C000FF1FE558FC4F608171816115710509F4BC
:1012D00045C0AB0141505109FA01EE0FFF1FED5A15
:1012E000FC4F0190F081E02DEA17FB07B9F5623061
:1012F000710509F000C788E1E5EBF2E0DE01119627
:1013000001900D928A95E1F780914F0290915002E1
:1013100083709927892B21F48DE190E09C838B8346
:1013200020914B0230914C02E0914D02F0914E021F
:101330003197EE0FFF1F81E090E08C0F9D1FE80FAB
:10134000F91F80819181821793070CF0D4C68AE03F
:1013500090E090931806809317068AC723313105D1
:1013600061F0295031092230310538F00E94F61819
:10137000F801E95CFD4F918380838091C2099091CF
:10138000C30997FD07C08091FF0590910006019663
:1013900009F004C144E650E060E070E088EE93E0BC
:1013A0000E94E82680911906811152C00E942D1BCF
:1013B00060931A0670931B0680931C0690931D067B
:1013C0008091170690911806892B09F041C00E9460
:1013D000311FBC01CE0185960E949B2C0E94371FB5
:1013E000BC01CE014F960E949B2C0E943D1FBC0168
:1013F000CE0101960E949B2CBE016F5F7F4FCE01F4
:1014000049960E949424BE01615E7F4FCE014996A9
:101410000E940A24BE016B5D7F4F0E940A2468E18E
:1014200074E00E94F323BC018BED99E00E944F24ED
:10143000CE0149960E946424CE0101960E94642444
:10144000CE014F960E946424CE0185960E946424AA
:101450008091170690911806019709F066C00E94C6
:101460002B1F90934C0280934B020E94251F909358
:101470004E0280934D020E941D1FBC0190935002AA
:1014800080934F028091490290914A02892B89F4FE
:10149000CE0185960E949B2C60914D0270914E0268
:1014A000CE014F960E949B2C60914B0270914C0292
:1014B00010C0CE0185960E949B2C60914B027091CA
:1014C0004C02CE014F960E949B2C60914D02709170
:1014D0004E02CE0101960E949B2CBE016F5F7F4F92
:1014E000CE0149960E949424BE01615E7F4FCE01D9
:1014F00049960E940A24BE016B5D7F4F0E940A2418
:10150000BC018BED99E00E944F24CE0149960E94C8
:101510006424CE0101960E946424CE014F960E945D
:101520006424CE0185960E946424E0911706F09110
:101530001806EE0FFF1FED55FC4F208131813093CF
:101540001806209317062D30310549F481E090E00C
:10155000909358028093570280E880937F06909181
:10156000190681E08927809319068901000F111F50
:10157000F801E15FFD4F808180938006A90142510F
:1015800051094230510550F02930310539F00E949F
:10159000F618F801E95CFD4F918380838091A909D9
:1015A0009091AA09009739F48091FD059091FE056C
:1015B000019721F507C09093F5058093F40518165F
:1015C000190694F781E08093F60510926406109254
:1015D000630644E650E060E070E088EE93E00E942D
:1015E000E8260E94121880911906811107C01092F6
:1015F000720660E087E090E00E9426218091F40569
:101600009091F505019661F58091AB09882341F130
:101610001092820680911906882329F10E942D1BC1
:101620000091F0051091F1052091F2053091F3053C
:10163000DC01CB01801B910BA20BB30B8739910509
:10164000A105B10580F00E942D1B6093F0057093F9
:10165000F1058093F2059093F3050E94121803C0E0
:1016600081E0809382068091900990919109009782
:1016700039F48091FB059091FC050197B1F507C005
:101680009093EF058093EE051816190694F711E074
:101690001093F605109264061092630644E650E03B
:1016A00060E070E088EE93E00E94E8260E94B417A4
:1016B00080911906811119C01093720661E087E0CC
:1016C00090E00E9426216091060288E090E00E944E
:1016D00026216091EC0589E090E00E94262160912E
:1016E000EA058AE090E00E9426218091EE05909123
:1016F000EF05019661F580919209882341F11092DE
:10170000810680911906882329F10E942D1B0091E2
:10171000E6051091E7052091E8053091E905DC0127
:10172000CB01801B910BA20BB30B87399105A1054F
:10173000B10580F00E942D1B6093E6057093E705CC
:101740008093E8059093E9050E94B41703C081E0F7
:101750008093810680911906811139C08091A90971
:101760009091AA0997FD06C08091FD059091FE0514
:10177000019691F444E650E060E070E088EE93E07A
:101780000E94E82681E080930E0261E080E090E014
:101790000E9426210E944117809190099091910901
:1017A00097FD06C08091FB059091FC05019679F4A8
:1017B00044E650E060E070E088EE93E00E94E826A6
:1017C00010920E0260E080E090E00E942621E091FD
:1017D0001706F0911806E431F10508F049C588278D
:1017E000E758FF4F8F4F0C9452378091200681119C
:1017F000DFC00E94311F2091040230910502821740
:10180000930709F4C4C00E94311F9093050280938E
:10181000040281E020915B0230915C02232B09F4E9
:1018200080E00E9434166B017C018091BB05811120
:1018300013C00E942D1BDC01CB01845B9B4FAF4F7B
:10184000BF4F8093B7059093B805A093B905B093A7
:10185000BA0581E08093BB058091AF05811109C075
:1018600062E374E089EA95E00E949C2481E0809321
:10187000AF050E942D1B0091B7051091B80520916E
:10188000B9053091BA05DC01CB01801B910BA20B8D
:10189000B30B893E9340A105B10508F44EC00E94E8
:1018A0002D1B6093B7057093B8058093B90590938D
:1018B000BA0580915B0290915C02892B11F012E3D2
:1018C00001C017E320E030E0A901C701B6010E9482
:1018D000E23620E030E040E05FE387FD05C0C7016D
:1018E000B6010E944D3604C0C701B6010E944C36B5
:1018F0000E94B13624E630E040E050E00E943637E6
:10190000CE0149960E949B2CBE01675E7F4FCE019F
:1019100001960E949424612FCE0101960E942A1AFA
:10192000BC0189EA95E00E944F24CE0101960E94F5
:101930006424CE0149960E94642469EA75E0CE01D0
:1019400001960E949424CE014F960E94E92CBE017C
:10195000615E7F4FCE0149960E949424BE016F5F65
:101960007F4FCE0149960E940A24BC01CE01859684
:101970000E949424CE0149960E946424CE014F9681
:101980000E946424CE0101960E94642406C06BED7F
:1019900079E0CE0185960E949424BE016B5D7F4F55
:1019A0008BED99E00E94A823CE0185960E946424C5
:1019B0000E94311F80FD02C080ECF4C010927F06AF
:1019C000F3C0809120068111ECC08091DE05811169
:1019D00013C00E942D1BDC01CB0187519C4FAF4FE0
:1019E000BF4F8093DA059093DB05A093DC05B0939D
:1019F000DD0581E08093DE058091D205811144C030
:101A00000E941D1F68EE73E00E940137BC01CE01E9
:101A100001960E949B2C0E94251FBC01CE01499675
:101A20000E949B2C0E942B1FBC01CE0185960E9418
:101A30009B2CBE016B5D7F4FCE014F960E9494247C
:101A4000BE01675E7F4FCE014F960E940A24BE0101
:101A50006F5F7F4F0E940A24BC018CEC95E00E94CE
:101A6000942481E08093D205CE014F960E94642495
:101A7000CE0185960E946424CE0149960E9464247A
:101A8000CE0101960E9464248091C405811107C093
:101A9000809149028093C30581E08093C4050E9430
:101AA0002D1B0091DA051091DB052091DC053091AA
:101AB000DD05DC01CB01801B910BA20BB30B893E32
:101AC0009340A105B10558F48091C30590E02091A1
:101AD000490230914A028217930709F451C00E94CB
:101AE0002D1B6093DA057093DB058093DC059093E2
:101AF000DD058091490290914A02892B09F0A7C324
:101B00000E941D1FBC01CE0101960E949B2C0E94C9
:101B1000251FBC01CE0149960E949B2C0E942B1FC1
:101B2000BC01CE0185960E949B2CBE016B5D7F4F50
:101B3000CE014F960E949424BE01675E7F4FCE0176
:101B40004F960E940A24BE016F5F7F4F0E940A24B5
:101B500069E30E942A1ABC018CEC95E00E944F2494
:101B6000CE014F960E946424CE0185960E94642483
:101B7000CE0149960E946424CE0101960E946424FD
:101B80006CEC75E0CE0101960E949424BE016F5F5B
:101B90007F4F8BED99E00E94A823CE0101960E9411
:101BA000642480E480937F060E945C1710921F06D5
:101BB00010921E065DC36091550270915602CE01CF
:101BC00085960E949B2C6091530270915402CE0125
:101BD0004F960E949B2C6091510270915202CE014F
:101BE00001960E949B2CBE016F5F7F4FCE014996EC
:101BF0000E949424BE01615E7F4FCE0149960E94EF
:101C00000A24BE016B5D7F4F0E940A2468E174E0E4
:101C10000E94F323BC018BED99E00E944F24CE017A
:101C200049960E946424CE0101960E946424CE014C
:101C30004F960E946424CE0185960E9464241092DF
:101C40001F0610921E06809157029091580201972C
:101C500089F580E880937F062FC0609159027091CA
:101C60005A024AE0CE0149960E9469246DE474E06C
:101C7000CE0101960E949C24BE01675E7F4FCE017B
:101C800001960E940A2466E174E00E94F323BC01DD
:101C90008BED99E00E944F24CE0101960E946424AE
:101CA000CE0149960E94642483E390E090931F063E
:101CB00080931E0610927F060E945C17D9C2809105
:101CC0002006811131C081E020915B0230915C02DD
:101CD000232B09F480E0C8D7AB01BC01CE010196EB
:101CE000B7D5BE016F5F7F4F8BED99E00E94A823AF
:101CF000CE0101960E94642480915B0290915C0267
:101D0000892B51F481E390E090931F0680931E0687
:101D100080E480937F0608C083E290E090931F06E2
:101D200080931E0610927F0681E020915B02309125
:101D30005C02232B09F480E097D720E030E0A90172
:101D40000E94043590917F0687FF02C0906801C011
:101D50009F7790937F068CC260915D0270915E02C6
:101D6000CE0101960E949B2CBE016F5F7F4FCE017A
:101D700049960E94942464E174E0CE0149960E9441
:101D8000F323BC018BED99E00E944F24CE014996CC
:101D90000E946424CE0101960E9464248FE090E0AA
:101DA00090931F0680931E0680915D0290915E02C3
:101DB00097FD03C010927F065BC280E880937F0688
:101DC00057C28091490290914A02892B79F46CE1C3
:101DD00074E08BED99E00E943A2483E090E09093C8
:101DE0002402809323028CE090E00EC066E274E04F
:101DF0008BED99E00E943A248CE090E090932402CD
:101E00008093230283E090E0909326028093250242
:101E10002FC28091490290914A0260914F027091C5
:101E20005002892B89F4CE0185960E94F92B60918E
:101E30004D0270914E02CE014F960E949B2C6091F4
:101E40004B0270914C0210C0CE0185960E94F92B76
:101E500060914B0270914C02CE014F960E949B2CD8
:101E600060914D0270914E02CE0101960E949B2C12
:101E7000BE016F5F7F4FCE0149960E949424BE0140
:101E8000615E7F4FCE0149960E940A24BE016B5DC0
:101E90007F4F0E940A246AE174E00E94F323BC0190
:101EA0008BED99E00E944F24CE0149960E94642454
:101EB000CE0101960E946424CE014F960E946424B4
:101EC000CE0185960E946424D3C10E944D19E090F2
:101ED0006D06F0906E0600916B0610916C062091D5
:101EE000690630916A0640917006509171066091C2
:101EF00067067091680680916506909166060E945B
:101F0000981D0C94DB0180912C058D3411F00C94FC
:101F1000270280912D05833411F00C9427025091F3
:101F20002F0510913005B0903105A0903205E0905A
:101F30003305F090340580E090E0ECE0F0E09F01A4
:101F4000285D3A4FD9012C912C3231F4019688301A
:101F5000910511F4EF5F05C03196E335F10579F78E
:101F6000E0E0F0E0E85DFA4F208101813281D3802A
:101F70006481062E000C770B605371094AE0469F7E
:101F8000C001479F900D11248053984F6581860FA3
:101F9000911D67FD9A95BC016251784065317105CC
:101FA00010F00C942702E32F330FFF0BF0974E9F96
:101FB000B0014F9F700D11246D0D711DD7FC7A95E6
:101FC000FB01F1973C9710F00C942702E22F220FAF
:101FD000FF0BF0974E9F90014F9F300D1124200F63
:101FE000311D07FD3A95F901F1977F9710F00C9498
:101FF0002702C52E550FDD08B0E3CB1AD1084C9D42
:10200000F0014D9DF00D11246F01C10ED11C17FD83
:10201000DA948601005311090831110510F00C946F
:102020002702CB2CBB0CDD0850E3C51AD1084C9D10
:10203000F0014D9DF00D1124DF01AA0DB11DA7FC8B
:10204000BA95D097AC33B10510F00C942702CE2C82
:10205000EE0CDD08E0E3CE1AD1084C9DF0014D9D59
:10206000F00D1124AF014F0D511DF7FC5A9540534F
:1020700051094C33510510F00C9427020093EF09DD
:10208000A093F0094093F109205331092093F209FC
:10209000605371096093F309C0979093F509809399
:1020A000F4090E942D1B6093F7097093F80980933F
:1020B000F9099093FA090C94270220813181235168
:1020C00031092F30310548F4440F551F661F771F23
:1020D0004160029634960C942D03208131812A5060
:1020E00031092930310510F00C947003440F551F4D
:1020F000661F771FEECF1092190650931806409373
:102100001706452BB9F40E941D1F7C010E94251F54
:102110008C010E942B1F9C01409147025091480264
:102120006091450270914602809143029091440271
:102130000E94981D80911706909118060197F9F456
:10214000E0904F02F090500200914D0210914E022B
:1021500080904B0290904C020E94311F5C010E94C3
:10216000371F6C010E943D1F9401A501B6010E941A
:10217000981D609149028DE090E00E942621809197
:102180001706909118060297C1F46091510282E0FF
:1021900090E00E9426216091530283E090E00E942B
:1021A00026216091550284E090E00E9426216091F2
:1021B000570286E090E00E942621809117069091B8
:1021C0001806039731F46091590281E090E00E9473
:1021D00026218091170690911806049731F460919A
:1021E0005B028BE090E00E9426218091170690917F
:1021F0001806059749F460915D0280918502681B7D
:102200008CE090E00E9426210E941D1F7C010E940C
:10221000251F082F0E942B1F21968FAF21970E9408
:10222000311F8FAF0E94371F182F0E943D1F382F7C
:10223000C70168EE73E00E940137E82E21962FADAA
:1022400021974FAD612F832F0E94752B11C00E94E3
:102250001D1FBC01CE0101960E949B2C0E942B1FCA
:10226000BC01CE0149960E949B2C0E94251F58CC90
:10227000C05CDF4F0FB6F894DEBF0FBECDBFDF915D
:10228000CF911F910F91FF90EF90DF90CF90BF9073
:10229000AF909F908F907F906F905F904F903F9006
:1022A0002F9008950F931F93CF93DF93CDB7DEB791
:1022B00068970FB6F894DEBF0FBECDBF8B01833099
:1022C00079F52091DF093091E00942E050E06BEDB3
:1022D00079E0CE010D960E94E419B801CE01019675
:1022E0000E949B2CBE016F5F7F4FCE0107960E941C
:1022F0009424BE01635F7F4FCE0107960E940A249B
:10230000BC018BED99E00E944F24CE0107960E94FC
:102310006424CE0101960E946424CE010D9663C010
:102320008C30A1F42091DF093091E00944E050E0C5
:102330006BED79E0CE0143960E94E419B801CE011D
:102340000D960E949B2C22E030E01FC0803339F4B0
:102350002091DF093091E00946E050E009C0803F5C
:1023600009F043C02091DF093091E00948E050E0D6
:102370006BED79E0CE0143960E94E419B801CE01DD
:102380000D960E949B2C24E030E040E050E06BED85
:1023900079E0CE0101960E94E419BE016F5F7F4F84
:1023A000CE0107960E949424BE01635F7F4FCE0149
:1023B00007960E940A24BE016D5E7F4F0E940A2488
:1023C000BC018BED99E00E944F24CE0107960E943C
:1023D0006424CE0101960E946424CE010D960E94D1
:1023E0006424CE0143960E94642468960FB6F89444
:1023F000DEBF0FBECDBFDF91CF911F910F9108952A
:102400002F923F924F925F926F927F928F929F9204
:10241000AF92BF92CF92DF92EF92FF920F931F93F2
:10242000CF93DF9300D01F92CDB7DEB70E94081B79
:102430000091550610915606209157063091580686
:10244000DC01CB01801B910BA20BB30B8A319144B1
:10245000A105B10508F4E5C10E94081B609355066B
:102460007093560680935706909358068BED99E02B
:10247000A0D76B017C0160E08AE00E947C258AE0A5
:10248000482E512C612C712CC701B601A301920179
:102490000E943637CB01880F991FFC01E253FC4F95
:1024A000C080D18087E090E029833A834B835C83AE
:1024B0000E942A211C0129813A814B815C81CA0139
:1024C000B901A30192010E943637660F771FFB0105
:1024D000E253FC4FA080B18087E090E029833A83EB
:1024E0004B835C830E942A217C0129813A814B81A4
:1024F0005C81CA01B901A30192010E94363729010A
:102500003A01660F771FFB01E253FC4F00811181F6
:1025100086E090E00E942A2145018E209F20A12C78
:10252000B12CAAE0880C991CAA1CBB1CAA95D1F757
:1025300080239123AC0160E070E0D501C401842BBD
:10254000952BA62BB72BC220D320A60160E070E00C
:1025500014E1440F551F661F771F1A95D1F76C01C0
:102560007D01C42AD52AE62AF72A80917E0688238F
:1025700019F06894F6F802C0E894F6F880917D06A8
:10258000882319F06894F7F802C0E894F7F88F2DC3
:102590000E94C12D8E2D0E94C12D8D2D0E94C12D16
:1025A0008C2D0E94C12D8AE0882E912CA12CB12C5B
:1025B000C301B201A50194010E943637CB01880FF7
:1025C000991FFC01E253FC4F0081118185E090E0EE
:1025D00029833A834B835C830E942A216C012981E1
:1025E0003A814B815C81CA01B901A50194010E9425
:1025F0003637660F771FFB01E253FC4F6080718016
:1026000084E090E029833A834B835C830E942A21F3
:10261000C022D122E12CF12CF4E1CC0CDD1CEE1C0B
:10262000FF1CFA95D1F786219721A0E0B0E01AE0CF
:10263000880F991FAA1FBB1F1A95D1F7C82AD92A3C
:10264000EA2AFB2A29813A814B815C81CA01B901BE
:10265000A50194010E943637660F771FFB01E253F4
:10266000FC4F0081118183E090E029833A834B8302
:102670005C830E942A2180239123A0E0B0E0C82A35
:10268000D92AEA2AFB2A80917E0629813A814B8148
:102690005C81882319F06894F6F802C0E894F6F893
:1026A00080917D06882319F06894F7F802C0E894B9
:1026B000F7F88F2D29833A834B835C830E94C12DC9
:1026C0008E2D0E94C12D8D2D0E94C12D8C2D0E941A
:1026D000C12D8AE0482E512C612C712C29813A8120
:1026E0004B815C81CA01B901A30192010E94363776
:1026F000CB01880F991FFC01E253FC4F008111812F
:1027000082E090E029833A834B835C830E942A21F4
:102710006C0129813A814B815C81CA01B901A30115
:1027200092010E943637660F771FFB01E253FC4F80
:10273000A080B18081E090E029833A834B835C8361
:102740000E942A21C022D122E12CF12CF4E1CC0CF0
:10275000DD1CEE1CFF1CFA95D1F78A219B21A0E01D
:10276000B0E01AE0880F991FAA1FBB1F1A95D1F776
:10277000C82AD92AEA2AFB2A29813A814B815C811D
:10278000CA01B901A30192010E943637660F771F73
:10279000FB01E253FC4F0081118180E090E00E9438
:1027A0002A2180239123A0E0B0E0C82AD92AEA2A6E
:1027B000FB2A80917E06882319F06894F6F802C0FF
:1027C000E894F6F880917D06882319F06894F7F86C
:1027D00002C0E894F7F88F2D0E94C12D8E2D0E9423
:1027E000C12D8D2D0E94C12D8C2D0E94C12D61E027
:1027F0008AE00F900F900F900F90DF91CF911F9173
:102800000F91FF90EF90DF90CF90BF90AF909F908F
:102810008F907F906F905F904F903F902F900C948F
:102820007C250F900F900F900F90DF91CF911F910B
:102830000F91FF90EF90DF90CF90BF90AF909F905F
:102840008F907F906F905F904F903F902F90089562
:102850008F929F92AF92BF92CF92DF92EF92FF92B0
:102860000F931F93CF93DF93CDB7DEB72D970FB69E
:10287000F894DEBF0FBECDBF8C016A017B01809151
:102880004D06811112C0E9D6DC01CB01845B9B4F60
:10289000AF4FBF4F8093490690934A06A0934B06D3
:1028A000B0934C0681E080934D06809141068111E2
:1028B00009C069E474E08BE396E00E949C2481E007
:1028C00080934106CAD68090490690904A06A0900F
:1028D0004B06B0904C06DC01CB0188199909AA0976
:1028E000BB09893E9340A105B10508F4A4C1B5D642
:1028F0006093490670934A0680934B0690934C066A
:1029000020E030E040E251E4C701B6010E946935A1
:102910006B017C0120E030E0A9010E94E23620E05A
:1029200030E040E05FE387FD05C0C701B6010E94CB
:102930004D3604C0C701B6010E944C360E94B13624
:1029400080915B0290915C029B0129513C4F4901AF
:102950002458334059012A55310969017B01892BDB
:1029600009F095C077FF03C0F194E194F1084AE0C3
:10297000B701CE0107960E9469246EE474E0CE018F
:1029800001960E949C24BE01695F7F4FCE01019693
:102990000E940A246EE474E00E94F323BC018BE3DE
:1029A00096E00E944F24CE0101960E946424CE013D
:1029B00007960E9464243FEC831637E0930620F5C7
:1029C0004AE0B701CE0107960E9469246DE474E0E5
:1029D000CE0101960E949C24BE01695F7F4FCE010B
:1029E00001960E940A246EE474E00E94F323BC0165
:1029F0008BE396E00E944F24CE0101960E9464244E
:102A0000CE0107960E94642487ECA816B10420F535
:102A10004AE0B701CE0107960E9469246CE474E095
:102A2000CE0101960E949C24BE01695F7F4FCE01BA
:102A300001960E940A246EE474E00E94F323BC0114
:102A40008BE396E00E944F24CE0101960E946424FD
:102A5000CE0107960E94642423E1C216D10408F037
:102A6000C4C04AE0B701CE0107960E9469246BE416
:102A700074E0CE0101960E949C24BE01695F7F4FE5
:102A8000CE0101960E940A246EE474E09FC077FF95
:102A900003C0F194E194F1084AE0B701CE01079632
:102AA0000E9469246EE474E0CE0101960E949C2489
:102AB000BE01695F7F4FCE0101960E940A246EE439
:102AC00074E00E94F323BC018BE396E00E944F2444
:102AD000CE0101960E946424CE0107960E946424D0
:102AE0003FEC831637E0930640F5C7016AE070E0DB
:102AF0000E9401374AE0CE0107960E9469246DE4E6
:102B000074E0CE0101960E949C24BE01695F7F4F54
:102B1000CE0101960E940A246DE474E00E94F32322
:102B2000BC018BE396E00E944F24CE0101960E94E7
:102B30006424CE0107960E94642487ECA816B10491
:102B400040F5C7016AE070E00E9401374AE0CE011B
:102B500007960E9469246CE474E0CE0101960E94FD
:102B60009C24BE01695F7F4FCE0101960E940A241A
:102B70006DE474E00E94F323BC018BE396E00E94B5
:102B80004F24CE0101960E946424CE0107960E9434
:102B9000642423E1C216D10440F5C7016AE070E065
:102BA0000E9401374AE0CE0107960E9469246BE437
:102BB00074E0CE0101960E949C24BE01695F7F4FA4
:102BC000CE0101960E940A246DE474E00E94F32372
:102BD000BC018BE396E00E944F24CE0101960E9437
:102BE0006424CE0107960E94642480915B02909138
:102BF0005C02892B11F022E301C027E362E374E059
:102C0000CE0101962D870E949C246BE376E0CE01D5
:102C100001960E940A246DE474E00E94F3232D853E
:102C2000622F18D4BC018BE396E00E944F24CE01A2
:102C300001960E9464246BE376E0C8010E9494240C
:102C4000C8012D960FB6F894DEBF0FBECDBFDF9141
:102C5000CF911F910F91FF90EF90DF90CF90BF9099
:102C6000AF909F908F900895EF92FF920F931F93D4
:102C7000CF93DF93E82E0E943E2B8CEC0E94152B05
:102C800084E40E94152B0E943E2B8CEC0E94152B95
:102C90008EEB0E94152B08E010E0D1E0C0E00E940E
:102CA000BE2A8111CD2BDD0F01501109C1F708E0BB
:102CB00010E0FF24F394D0E00E94BE2A8111DF29A6
:102CC000FF0C01501109C1F76C2F70E07D2B6F3F95
:102CD0008FEF780711F460E070E0072E000C880B8E
:102CE000990B0E940A3520E030E040E85DE30E9445
:102CF0006935EE2061F026E636E646EE5FE30E9497
:102D0000693520E030E040E052E40E944D36DF912A
:102D1000CF911F910F91FF90EF9008954F925F9286
:102D20006F927F928F929F92AF92BF92CF92DF92DB
:102D3000EF92FF920F931F93CF93DF9300D000D0B9
:102D4000CDB7DEB77C014B015A0180912006882364
:102D500041F08091280602E316E0A9E2B6E0F8010E
:102D600048C081E08093200610921F0610921E0634
:102D700082E3682E86E0782E99E2492E96E0592E5D
:102D800000E010E00F5F1F4F680181E0C81AD10812
:102D90009801A601B401CE01019616D3CE01019689
:102DA00008D3F30161933F01CE0101960E94642490
:102DB0009801A601B501CE01019606D3CE01019678
:102DC000F8D2F20161932F01CE0101960E94642492
:102DD00009301105B9F6BDCF2C9192130DC0908129
:102DE0009A3009F410823196119696E0EB33F90788
:102DF00031F090818A3080F79F5F9083F0CF8F5FB2
:102E0000843119F08093280604C01092280610928D
:102E1000200662E374E0C7010E949C24FE01319603
:102E20006F01F80181918F014AE0B60190E00E94A4
:102E3000BC34F60101900020E9F73197AF014C193D
:102E40005D09B601C7010E947B23F6E00B331F0723
:102E500041F7C70126960FB6F894DEBF0FBECDBF6F
:102E6000DF91CF911F910F91FF90EF90DF90CF9066
:102E7000BF90AF909F908F907F906F905F904F909A
:102E8000089588E090E00E942821682F70E089E092
:102E90000E94E72589E090E00E942821682F70E0D9
:102EA00086E00E94E7258AE090E00E942821682FB2
:102EB00070E083E00C94E7250F931F9380915702F5
:102EC00090915802892B09F44CC0809127068823E1
:102ED000A1F0C3D30091230610912406209125066A
:102EE00030912606DC01CB01801B910BA20BB30BAA
:102EF000893E9340A105B10588F58091270681118F
:102F000030C0BBD7209151023091520282179307F3
:102F100041F5ADD7209153023091540282179307A7
:102F200001F59FD7209155023091560282179307E1
:102F3000C1F493D3609323067093240680932506EF
:102F40009093260681E08093270680910C02909151
:102F50000D02909364068093630603C010922706C7
:102F6000CCCF1F910F91089578D360931A06709378
:102F70001B0680931C0690931D06809119068823DA
:102F800009F44FC02091170630911806C901880F27
:102F9000991F2131310551F0FC01E95CFD4F408161
:102FA000518141505109518340830AC040915902D7
:102FB00050915A024C50510950935A024093590271
:102FC000DC01A95CBD4F6D917C911197FC01E15A28
:102FD000FD4F40815181641775073CF4FC01E957AE
:102FE000FD4F408151814D935C932031310571F447
:102FF00020915702309158022130310521F420E808
:1030000020937F0606C010927F0603C02930310549
:1030100041F0FC01E95CFD4F608171818091800687
:1030200041C908951AD360931A0670931B068093C2
:103030001C0690931D0680911906882309F444C04C
:103040002091170630911806C901880F991F213168
:10305000310551F0FC01E95CFD4F408151814F5F2A
:103060005F4F518340830AC04091590250915A02E8
:10307000445F5F4F50935A0240935902DC01A95CB0
:10308000BD4F6D917C911197FC01E957FD4F408137
:103090005181461757073CF4FC01E15AFD4F40812E
:1030A00051814D935C932031310519F410927F06C4
:1030B00003C02930310541F0FC01E95CFD4F60811E
:1030C000718180918006EEC80895CF93DF93EC0163
:1030D000019628812A33D9F78981843639F51092EF
:1030E00016061092150623964AE0FE018881219665
:1030F00090ED980F20911506309116069A3080F4C5
:10310000429FB001439F700D1124082E000C990BB3
:10311000C097860F971F9093160680931506E5CFEC
:103120001216130614F420930B02EF0121968881E6
:103130008F3689F48A81082E000C990B9C0120534C
:1031400031093093160620931506C397059710F49E
:1031500020930A0224968881823629F51092160659
:1031600010921506FE0132964AE0819190ED980F7B
:1031700020911506309116069A3080F4429FB001D6
:10318000439F700D1124082E000C990BC097860FD9
:10319000971F9093160680931506E7CF3093090288
:1031A00020930802EF012091080230910902032EBA
:1031B000000C440B550B60E67AEE80E090E00E9434
:1031C0003637DA01C90122E0880F991FAA1FBB1FF9
:1031D0002A95D1F78093110690931206A0931306B7
:1031E000B0931406CE01DF91CF910895CF92DF9274
:1031F000EF92FF921F93CF93DF93CDB7DEB72C975B
:103200000FB6F894DEBF0FBECDBF182F68E574E08F
:10321000CE0101960E949C24133029F422E030E074
:1032200040E050E012C01C3029F424E030E042E0DD
:1032300050E00BC0103319F426E030E004C0103F1A
:10324000A1F428E030E044E050E06BED79E0CE01FD
:103250000796BAD0BE01695F7F4FCE0101960E94EA
:10326000A823CE0107960E946424CE010196A1D026
:103270006B017C01CE0101960E946424C6012C964C
:103280000FB6F894DEBF0FBECDBFDF91CF911F9177
:10329000FF90EF90DF90CF90089581E08093F60645
:1032A00088E6809318071092F7061092190760E0DD
:1032B00082EB98E07BD10E94612A87E090E00E9437
:1032C000182A82EB98E027D1982F92959F708F70E3
:1032D0002AE0929F800D112490E0909371068093D4
:1032E000700682EB98E017D1982F92959F708F709F
:1032F0002AE0929F800D112490E0909368068093BD
:10330000670682EB98E007D1982F9695969596954B
:103310009670292F220F220F920F8F70890F90E045
:10332000909366068093650682EB98E0F4D0982F20
:1033300092959F708F702AE0929F800D112490E0EB
:10334000909322068093210682EB98E0E4D0982F98
:1033500092959F708F702AE0929F800D112490E0CB
:1033600090936A068093690682EB98E0D4D0982FF8
:1033700092959F708F702AE0929F800D112490E0AB
:1033800090936C0680936B0682EB98E0C4D0982FE4
:1033900092959F708F702AE0929F800D112490E08B
:1033A0008053984F90936E0680936D0608950E9407
:1033B0008539FC0180819181009711F00C948C3447
:1033C00060E070E0CB010895BF92CF92DF92EF9260
:1033D000FF920F931F93CF93DF937C016B018A01C0
:1033E000E9012417350720F4812F8901C42FD82F34
:1033F00062E374E0C7010E949C24D60114968D916B
:103400009C91159708171907D0F48C179D0708F49D
:10341000EC01D601ED91FC911197EC0FFD1FB080EE
:1034200010824D915C91BA01600F711FC7010E941B
:103430003A24D601ED91FC91EC0FFD1FB082C7013B
:10344000DF91CF911F910F91FF90EF90DF90CF9080
:10345000BF9008950F931F93CF93DF931F921F92F6
:10346000CDB7DEB78C0169831A8241E050E0BE011E
:103470006F5F7F4F0E947B23811103C0C8010E94B0
:10348000E123C8010F900F90DF91CF911F910F9111
:10349000089585ED8093BC008091BC0084FDFCCF35
:1034A0001092400708954091B806262F30E0240F6F
:1034B000311D21323105DCF4209140072430C9F45C
:1034C000FC0180E090E0861758F43091B806219115
:1034D000DC01AA56B94FA30FB11D2C930196F3CF6F
:1034E0008091B806680F6093B80680E0089581E087
:1034F000089582E008950895E09142078091410780
:10350000E81730F4F0E0ED5BF84F808190E008952B
:103510008FEF9FEF08959091420780914107981790
:1035200050F4E92FF0E0ED5BF84F208130E09F5F31
:103530009093420702C02FEF3FEFC9010895809199
:10354000410790E020914207821B91090895CF9294
:10355000DF92EF92FF920F931F93CF93DF937C0143
:10356000262F972F8A018091F606882391F0C62F87
:10357000D72F6E01C40ED51ECC15DD0569F06991FB
:10358000D701ED91FC910190F081E02DC7011995D3
:10359000F3CF642F822F87DFC801DF91CF911F9176
:1035A0000F91FF90EF90DF90CF900895CF93DF932E
:1035B0001F92CDB7DEB769832091F6062223D1F0A2
:1035C00020911907203240F021E030E0FC013383E4
:1035D000228380E090E014C08091F706E82FF0E0AD
:1035E000E850F94F998190838F5F8093F70680931D
:1035F000190704C061E0CE01019655DF81E090E03B
:103600000F90DF91CF910895089580E090E00895A4
:103610003FB7F8948091F2069091F306A091F406DA
:10362000B091F50626B5A89B05C02F3F19F001966D
:10363000A11DB11D3FBFBA2FA92F982F8827820F38
:10364000911DA11DB11DBC01CD0142E0660F771F88
:10365000881F991F4A95D1F708952FB7F894609164
:10366000EE067091EF068091F0069091F1062FBF63
:1036700008956093830670938406809385069093E3
:103680008606DC01CB01845D9E4FAF4FBF4F809318
:10369000E9069093EA06A093EB06B093EC0682E06D
:1036A00090E09093E8068093E706D7DF6093E30607
:1036B0007093E4068093E5069093E60608951F92C2
:1036C0000F920FB60F9211242F933F938F939F93D6
:1036D000AF93BF938091EE069091EF06A091F00614
:1036E000B091F1063091ED0623E0230F2D3720F441
:1036F0000196A11DB11D05C026E8230F0296A11D4C
:10370000B11D2093ED068093EE069093EF06A093F3
:10371000F006B093F1068091F2069091F306A09125
:10372000F406B091F5060196A11DB11D8093F20635
:103730009093F306A093F406B093F506BF91AF9172
:103740009F918F913F912F910F900FBE0F901F90DF
:1037500018951F920F920FB60F9211240BB60F926D
:103760002F933F934F935F936F937F938F939F9389
:10377000AF93BF93EF93FF938091BF080E945425AE
:103780002091C3083091C4082F5F3F4F3093C40885
:103790002093C3089091C208953618F096E0909354
:1037A000BE089091BE089430C9F128F4923069F0B7
:1037B0009330D1F05EC0953009F451C0963009F0D5
:1037C00058C091E090938F0951C0811152C020914F
:1037D000C3083091C4082436310508F442C0109261
:1037E0008F091092C2081CC0813009F042C0E091DC
:1037F000C20891E09E0F9093C208F0E02091C308A8
:103800003091C408EE0FFF1FE254F74F3087278333
:103810001092C4081092C30894E029C0811117C007
:10382000E091C20891E09E0F9093C208F0E02091D1
:10383000C3083091C408EE0FFF1FE254F74F3087E2
:1038400027831092C4081092C30893E010C02091FF
:10385000C3083091C4082536310558F007C08111DE
:1038600008C01092C4081092C30803C095E090935A
:10387000BE089091C1089923B9F081110AC08091C6
:10388000C008882321F08091C00861E009C02F9A08
:103890000BC08091C008882331F08091C00860E09F
:1038A0000E947C2501C02F98FF91EF91BF91AF91AD
:1038B0009F918F917F916F915F914F913F912F9148
:1038C0000F900BBE0F900FBE0F901F9018951F9278
:1038D0000F920FB60F9211240BB60F922F933F93B6
:1038E0004F935F936F937F938F939F93EF93FF9388
:1038F00040916A0750916B0760916C0770916D075A
:10390000411551056105710599F080915906E091C5
:103910005A06F0915B06908189278083141615065C
:1039200016061706D4F4415051096109710915C0F2
:10393000809170008D7F8093700090915906E09186
:103940005A06F0915B068081282F30E0892F90E0A5
:103950008095909582239323808340936A075093A8
:103960006B0760936C0770936D07FF91EF919F91C8
:103970008F917F916F915F914F913F912F910F9018
:103980000BBE0F900FBE0F901F9018951F920F92B5
:103990000FB60F9211240BB60F922F933F938F9374
:1039A0009F93AF93BF93EF93FF9380916E07909196
:1039B0006F07A0917007B0917107892B8A2B8B2B11
:1039C00051F180915C06E0915D06F0915E06908178
:1039D0008927808380916E0790916F07A09170076F
:1039E000B0917107181619061A061B064CF580913E
:1039F0006E0790916F07A0917007B09171070197C2
:103A0000A109B10980936E0790936F07A093700787
:103A1000B093710715C080916F008D7F80936F0008
:103A200090915C06E0915D06F0915E068081282F02
:103A300030E0892F90E080959095822393238083B6
:103A4000FF91EF91BF91AF919F918F913F912F91F6
:103A50000F900BBE0F900FBE0F901F9018951F92E6
:103A60000F920FB60F9211240BB60F922F933F9324
:103A70008F939F93AF93BF93EF93FF9380917207C0
:103A800090917307A0917407B0917507892B8A2BC9
:103A90008B2B51F180915F06E0916006F0916106F9
:103AA0009081892780838091720790917307A091FC
:103AB0007407B0917507181619061A061B064CF5FF
:103AC0008091720790917307A0917407B091750768
:103AD0000197A109B1098093720790937307A0938E
:103AE0007407B093750715C080916E008D7F809329
:103AF0006E0090915F06E0916006F0916106808112
:103B0000282F30E0892F90E0809590958223932391
:103B10008083FF91EF91BF91AF919F918F913F91E2
:103B20002F910F900BBE0F900FBE0F901F90189506
:103B30003F924F925F926F927F928F929F92AF923D
:103B4000BF92CF92DF92EF92FF920F931F93CF938A
:103B5000DF93382E962E842EF90184E6E816F104C0
:103B60002CF082EBE81A87E0F80A03C08EE1E80E39
:103B7000F11CE092690700936807E09367073092B1
:103B800065079092640780926307AE2DB0E020E84D
:103B900033E341EE51E00E9433362B013C0122EB2E
:103BA00037E0FF2484E6C82ED12CC0E9D1E0C9015A
:103BB000825B97408E159F05DCF4C90183709927BD
:103BC000892B99F4C901B6010E940137892B31F480
:103BD000C901BE010E940137892B39F480E8480EE3
:103BE00081E5581E81E0681E711C2F5F3F4FDFCFBB
:103BF0008EE4E81A88EFF80AC70164E670E00E94D4
:103C000001376C01C70160E971E00E9401375C0176
:103C1000C1E0D0E0112783E0E822FF24C017D107DC
:103C20002CF5C230D10589F4E114F10471F4C1140A
:103C3000D10419F4A114B10441F480E8480E8BE3D7
:103C4000581E86E2681E711C0FC0DE01AF51BC4FCA
:103C5000AC91B0E020E831E541E050E00E9433361D
:103C6000460E571E681E791E2196D8CF292D30E0AA
:103C7000ACE3B0E00E943D366B017C01C80CD11C66
:103C8000E11CF11C232D30E0A0E1BEE00E943D3696
:103C9000C60ED71EE81EF91EDF01BB27119720E8CC
:103CA00031E541E050E00E945A37DC01CB018C0D38
:103CB0009D1DAE1DBF1DBC01CD01640D751D861D72
:103CC000971DDF91CF911F910F91FF90EF90DF90A3
:103CD000CF90BF90AF909F908F907F906F905F90AC
:103CE0004F903F90C6CCCF92DF92EF92FF920F930E
:103CF0001F93B3DCC090E306D090E406E090E506A5
:103D0000F090E6068B019C010C191D092E093F0954
:103D10008091830690918406A0918506B0918606D5
:103D2000083E134021053105D0F00196A11DB11DBB
:103D30008093830690938406A0938506B0938606AD
:103D4000B701A60148515C4F6F4F7F4F4093E30688
:103D50005093E4066093E5067093E606CACF40915F
:103D6000E9065091EA066091EB067091EC06841723
:103D70009507A607B70780F1E091E106F091E2060A
:103D8000309751F11995611571058105910511F073
:103D900070DC22C08091830690918406A0918506F4
:103DA000B0918606845D9E4FAF4FBF4F8093E9066A
:103DB0009093EA06A093EB06B093EC0681E090E0C6
:103DC0002091E7063091E806232B11F480E090E083
:103DD0009093E8068093E7066091830670918406CD
:103DE00080918506909186061F910F91FF90EF902C
:103DF000DF90CF900895CF92DF92EF92FF92C09024
:103E0000DD06D090DE06E090DF06F090E0066C154F
:103E10007D058E059F0561F06B017C010E94FE28E7
:103E2000C092DD06D092DE06E092DF06F092E00658
:103E3000FF90EF90DF90CF90089555DFDCDF809109
:103E4000690790E08E54984F08954DDFD4DF80913C
:103E5000680790E0089547DFCEDF8091670790E024
:103E6000089541DFC8DF8091630790E008953BDF4C
:103E7000C2DF8091640790E0089535DFBCDF809158
:103E8000650790E00895CF92DF92EF92FF92CF9373
:103E9000DF93EC01E2DB6B017C018F8505D621E02D
:103EA000892B09F420E0298B8889811103C081E0E6
:103EB0008227898B29898A89281721F0CD8ADE8A71
:103EC000EF8AF88E8D899E89AF89B88DB701A601DA
:103ED000481B590B6A0B7B0BDB01CA01CB80DC80D2
:103EE000ED80FE80C416D506E606F70664F43A8136
:103EF000231749F02A83222331F04B895C894F5FD5
:103F00005F4F5C8B4B8B3A8131110CC0CF80D884D2
:103F1000E984FA84C816D906EA06FB06ACF48B8954
:103F20009C890EC0CB84DC84ED84FE84C816D9063F
:103F3000EA06FB064CF48B899C8991958195910941
:103F4000998388831C8A1B8A2A8BDF91CF91FF90EB
:103F5000EF90DF90CF9008950F931F93CF93DF934F
:103F60001F92CDB7DEB78C01862FF8016787408B93
:103F700091E04927418B428B148A138A1182108267
:103F80001282158A168A178A108E44E150E060E08A
:103F900070E043835483658376834AEF50E060E0AA
:103FA00070E0478350876187728748EE53E060E096
:103FB00070E0438754876587768760E02983CBD597
:103FC000F8018089298181110AC0222341F061E032
:103FD00087850F90DF91CF911F910F918DC50F9025
:103FE000DF91CF911F910F9108951F920F920FB6FD
:103FF0000F9211240BB60F922F933F934F935F9321
:104000006F937F938F939F93AF93BF93EF93FF93A0
:104010008091B900887F803609F49CC068F58832A9
:1040200009F45BC090F4803109F454C038F488235B
:1040300009F4F6C0883009F44DC0F5C0883109F4A0
:104040004CC0803209F45DC0EEC0803409F468C011
:1040500048F4803309F455C0883309F0E4C08093F4
:104060003E07D8C0803509F44FC0883509F45DC0DB
:10407000883409F0D8C0D6C0883909F4C7C0A8F47C
:10408000883709F467C038F4883609F463C080378C
:1040900009F460C0C8C0883809F4B8C0803909F490
:1040A0005FC0803809F0BFC05BC0803B09F486C0A8
:1040B00038F4803A09F466C0883A09F47FC0B3C086
:1040C000803C09F4A7C0883C09F4A4C0883B09F4EB
:1040D0008AC0A9C080913B0710C090913D07809194
:1040E0003C07981770F5E0913D0781E08E0F8093B3
:1040F0003D07F0E0E65EF84F80818093BB0085ECE1
:1041000086C080933E078EC0E0913D0781E08E0F10
:1041100080933D078091BB00F0E0E65EF84F80831E
:1041200090913D0780913C076EC0E0913D0781E092
:104130008E0F80933D078091BB00F0E0E65EF84F64
:10414000808380913F0781116DC081E080933A07A1
:1041500084EA61C083E0809340071092DC06CFCFF1
:104160008091DC06803208F051C0E091DC0681E0ED
:104170008E0F8093DC068091BB00F0E0E454F94F91
:104180008083BDCF85EC8093BC0010924007809166
:10419000DC06803230F4E091DC06F0E0E454F94FC4
:1041A00010826091DC0670E0E091BA06F091BB06E7
:1041B0008CEB96E019951092DC0635C084E0809374
:1041C00040071092B9061092B806E091B606F09139
:1041D000B70619958091B806811105C081E08093DA
:1041E000B80610929606E091B90681E08E0F809392
:1041F000B906F0E0EA56F94F80818093BB009091B8
:10420000B9068091B806981708F479CF85E88093AD
:10421000BC0009C085EC8093BC001092400703C02D
:1042200010923E0736D9FF91EF91BF91AF919F91C8
:104230008F917F916F915F914F913F912F910F904F
:104240000BBE0F900FBE0F901F9018950C94253643
:104250000C941D36CF92DF92EF92FF921F93CF9373
:10426000DF9390918206911103C08FEF9FEF6FC093
:10427000909181069923C9F3182FC0918006D0E050
:1042800080918E0681110CC0E8D960938A067093E4
:104290008B0680938C0690938D0681E080938E062A
:1042A000DCD9C0908A06D0908B06E0908C06F09006
:1042B0008D06DC01CB018C199D09AE09BF098D3239
:1042C0009140A105B105D0F0C8D960938A067093DA
:1042D0008B0680938C0690938D068091890691E0E1
:1042E000982790938906992329F0109288061092B6
:1042F000870604C0D0938806C0938706209187065E
:10430000309188062095309540917F0650E0242317
:10431000352326FF04C081E080937E0602C0109200
:104320007E0627FF04C081E080937D0602C01092C4
:104330007D0680918906882309F497CF02C0D59520
:10434000C7951A95E2F7C0FF90CF80E09CE3DF911C
:10435000CF911F91FF90EF90DF90CF900895089537
:10436000CF92DF92EF92FF920F931F93CF93DF9341
:104370006C017A018B01C0E0D0E0CE15DF0589F039
:10438000D8016D918D01D601ED91FC910190F081E4
:10439000E02DC6011995892B11F47E0102C02196EA
:1043A000ECCFC701DF91CF911F910F91FF90EF905C
:1043B000DF90CF900895FC01A089B1898C91A689E6
:1043C000B78982FD0FC09C91818D8F5F8F73228D85
:1043D000821749F0218DDF01A20FB11D5D969C93DC
:1043E000818F08958C910895FC01538D448D252F64
:1043F00030E0842F90E0821B930B541710F0CF967F
:10440000089501970895FC01918D828D981761F0B0
:10441000828DDF01A80FB11D5D968C91928D9F5FFB
:104420009F73928F90E008958FEF9FEF0895FC01A6
:10443000918D828D981731F0828DE80FF11D858D59
:1044400090E008958FEF9FEF0895FC01918D228DEC
:10445000892F90E0805C9F4F821B91098F73992771
:10446000089588E797E0F1DF21E0892B09F420E047
:10447000822F089585E198E0E8DF21E0892B09F497
:1044800020E0822F0895FC01848DDF01A80FB11D6B
:10449000A35ABF4F2C91848D90E001968F7399277A
:1044A000848FA689B7892C93A089B1898C91806467
:1044B0008C93938D848D981306C00288F389E02D28
:1044C00080818F7D80830895EF92FF920F931F93D9
:1044D000CF93DF93EC0181E0888F9B8D8C8D9813B7
:1044E00005C0E889F989808185FD23C0F62E0B8DF2
:1044F00010E00F5F1F4F0F731127E02E8C8DE81215
:104500000BC00FB607FCFACFE889F989808185FFD7
:10451000F5CFCE01B8DFF2CF8B8DFE01E80FF11D94
:10452000E35AFF4FF0820B8FEA89FB89808180621A
:1045300007C0EE89FF896083E889F98980818064FA
:10454000808381E090E0DF91CF911F910F91FF90E8
:10455000EF900895CF93DF93EC01888D8823C1F00D
:10456000EA89FB89808185FD05C0A889B9898C917C
:1045700086FD0EC00FB607FCF5CF808185FFF2CF18
:10458000A889B9898C9185FFEDCFCE017CDFE8CF7A
:10459000DF91CF91089580E090E0892B19F06ADFD8
:1045A000811120C080E090E0892B19F05ADF811141
:1045B0001CC080E090E0892B41F080E090E0892BE6
:1045C00021F00E940000811113C080E090E0892B4F
:1045D000A1F080E090E0892B81F00E940000811121
:1045E0000AC008950E940000DDCF0E940000E1CFC4
:1045F0000E940000EACF0C940000089590E0FC01B6
:104600003197E231F10508F04EC08827E357FF4F9C
:104610008F4F0C945237809180008F7703C0809128
:1046200080008F7D80938000089580918000877F37
:10463000F9CF84B58F7702C084B58F7D84BD08958E
:104640008091B0008F7703C08091B0008F7D809300
:10465000B0000895809190008F7707C080919000FE
:104660008F7D03C080919000877F80939000089594
:104670008091A0008F7707C08091A0008F7D03C03C
:104680008091A000877F8093A000089580912001F1
:104690008F7707C0809120018F7D03C0809120011A
:1046A000877F8093200108950F931F93CF93DF930B
:1046B000EC0188819981009729F02A813B81261796
:1046C000370788F48B016F5F7F4F0E94A1380097F6
:1046D00061F0998388831B830A832C813D81232B7E
:1046E00011F4FC01108281E001C080E0DF91CF91E4
:1046F0001F910F910895EF92FF920F931F93CF9305
:10470000DF93FC01248135816115710511F480E08E
:1047100018C041155105A1F07B01EC018A01020F7F
:10472000131FB801C1DF882391F3288139818C815F
:104730009D81B701820F931F0E9492391D830C83C4
:1047400081E0DF91CF911F910F91FF90EF9008953D
:104750000F931F93CF93DF938C01EB01FC018081BA
:1047600091810097B1F0688179816115710579F0C7
:10477000428153812C813D814217530740F00E94B2
:1047800092398C819D81F8019583848313C00E94A6
:10479000093888819981F801918380838A819B817E
:1047A000938382838C819D8195838483198218826F
:1047B0001B821A821D821C82DF91CF911F910F9163
:1047C0000895CF93DF93EC0188819981009711F0D0
:1047D0000E940938198218821D821C821B821A824B
:1047E000DF91CF910895CF93DF93EC0161157105AF
:1047F00059F0FB0101900020E9F73197AF01461B0A
:10480000570B79DF811102C0CE01DBDFCE01DF91D2
:10481000CF910895CF93DF93EC01FB014481558143
:104820006081718168DF811102C0CE01CADFCE01D3
:10483000DF91CF910895EF92FF920F931F93CF9343
:10484000DF93EC017B018A01BA012EDF811103C0E5
:10485000CE01B7DF07C01D830C83B7018881998122
:104860000E949239CE01DF91CF911F910F91FF905D
:10487000EF900895CF93DF93EC016115710551F02E
:10488000FB0101900020E9F73197AF01461B570B60
:10489000D2DF01C096DFCE01DF91CF910895CF9393
:1048A000DF93EC01FB018617970751F0608171815E
:1048B0006115710521F044815581BDDF01C081DFA3
:1048C000CE01DF91CF910895FC01808191810C94FC
:1048D00009380F931F93CF93DF93CDB7DEB762975D
:1048E0000FB6F894DEBF0FBECDBF8C01CB01F8012F
:1048F00011821082138212821582148250E0BE014E
:104900006F5F7F4F0E94B234BE016F5F7F4FC8015F
:10491000B1DF62960FB6F894DEBF0FBECDBFDF9158
:10492000CF911F910F910895FC0111821082138283
:10493000128215821482B3CFFC011182108213827D
:104940001282158214826115710549F0FB010190F4
:104950000020E9F73197AF01461B570B6CCF089544
:104960001F920F920FB60F9211240BB60F922F9336
:104970003F934F935F936F937F938F939F93AF93E7
:10498000BF93EF93FF9388E797E07DDDFF91EF9171
:10499000BF91AF919F918F917F916F915F914F9157
:1049A0003F912F910F900BBE0F900FBE0F901F9055
:1049B00018951F920F920FB60F9211240BB60F92FB
:1049C0002F933F934F935F936F937F938F939F9317
:1049D000AF93BF93EF93FF9388E797E0ECDCFF91F1
:1049E000EF91BF91AF919F918F917F916F915F9167
:1049F0004F913F912F910F900BBE0F900FBE0F90D4
:104A00001F9018951F920F920FB60F9211240BB69C
:104A10000F922F933F934F935F936F937F938F9357
:104A20009F93AF93BF93EF93FF9385E198E02BDDC6
:104A3000FF91EF91BF91AF919F918F917F916F9176
:104A40005F914F913F912F910F900BBE0F900FBE32
:104A50000F901F9018951F920F920FB60F9211246E
:104A60000BB60F922F933F934F935F936F937F9368
:104A70008F939F93AF93BF93EF93FF9385E198E05C
:104A80009ADCFF91EF91BF91AF919F918F917F91B0
:104A90006F915F914F913F912F910F900BBE0F90AF
:104AA0000FBE0F901F901895CF93DF93282F30E003
:104AB000F901E75FFD4F8491F901E155FD4FD49174
:104AC000F901E759FD4FC491CC2389F0811196DD9E
:104AD000EC2FF0E0EE0FFF1FE15BFD4FA591B491CD
:104AE000EC91ED2381E090E021F480E002C080E0D1
:104AF00090E0DF91CF9108951F93CF93DF93282FFC
:104B000030E0F901E75FFD4F8491F901E155FD4F78
:104B1000D491F901E759FD4FC491CC23C1F0162F70
:104B200081116CDDEC2FF0E0EE0FFF1FE758FE4F18
:104B3000A591B4918FB7F894111105C09C91ED2FF8
:104B4000E095E92302C0EC91ED2BEC938FBFDF9150
:104B5000CF911F910895CF93DF9390E0FC01E15531
:104B6000FD4F2491FC01E759FD4F8491882361F1A9
:104B700090E0880F991FFC01EA56FE4FC591D49131
:104B8000FC01E758FE4FA591B491611109C09FB790
:104B9000F8948881209582238883EC912E230BC082
:104BA000623061F49FB7F8943881822F8095832317
:104BB0008883EC912E2B2C939FBF06C08FB7F8945F
:104BC000E8812E2B28838FBFDF91CF9108951F930B
:104BD000CF93DF93182FEB0161E0BDDF209711F435
:104BE00060E004C0CF3FD10531F461E0812FDF9157
:104BF000CF911F9181CFE12FF0E0E75FFD4FE4916E
:104C00004E2F50E0FA013197E231F10508F09DC0D6
:104C10008827E156FF4F8F4F0C94523784B5806838
:104C200084BDC7BD97C084B5806284BDC8BD92C035
:104C300080918000806880938000D0938900C09329
:104C4000880088C080918000806280938000D0932B
:104C50008B00C0938A007EC0809180008860809322
:104C60008000D0938D00C0938C0074C08091B00000
:104C700080688093B000C093B3006CC08091B00096
:104C800080628093B000C093B40064C080919000B3
:104C9000806880939000D0939900C09398005AC088
:104CA00080919000806280939000D0939B00C0938D
:104CB0009A0050C080919000886080939000D093BB
:104CC0009D00C0939C0046C08091A00080688093A6
:104CD000A0008091A0008F7B8093A000D093A900BA
:104CE000C093A80037C08091A00080628093A0008C
:104CF000D093AB00C093AA002DC08091A000886023
:104D00008093A000D093AD00C093AC0023C08091ED
:104D10002001806880932001D0932901C09328014D
:104D200019C080912001806280932001D0932B01D3
:104D3000C0932A010FC080912001886080932001D8
:104D4000D0932D01C0932C0105C0C038D1050CF0C3
:104D50004CCF46CFDF91CF911F9108958F929F92B4
:104D6000AF92BF92CF92DF92EF92FF926B017C01E4
:104D70000E94081B4B015C01C114D104E104F10441
:104D8000F1F00E94081BDC01CB0188199909AA09DE
:104D9000BB09883E9340A105B10570F321E0C21A1A
:104DA000D108E108F10888EE880E83E0981EA11C66
:104DB000B11CC114D104E104F10419F7DDCFFF9057
:104DC000EF90DF90CF90BF90AF909F908F9008951D
:104DD0003F924F925F926F927F928F929F92AF928B
:104DE000BF92CF92DF92EF92FF920F931F93CF93D8
:104DF000DF9300D01F92CDB7DEB72091770727FD54
:104E0000A9C149835A836B837C838C0161E08091C3
:104E10007607A1DE30907707832D8D7F4801A12C86
:104E2000B12C09F0B7C060E072E18AE790E0A5011B
:104E300094010E94363729013A0169017A0121E083
:104E4000C21AD108E108F1088FEFC816D104E104B5
:104E5000F10409F008F44CC060E472E48FE090E0E3
:104E6000A50194010E94363769017A0191E0C91ABF
:104E7000D108E108F108A2E03A1220C0BFEFCB163A
:104E8000D104E104F10409F008F462C160E970EDB5
:104E900083E090E0A50194010E94363769017A0110
:104EA000E1E0CE1AD108E108F108FFEFCF16D104F6
:104EB000E104F10409F0C0F583E065C02FEFC216EC
:104EC000D104E104F104B1F0A8F068E478EE81E0E7
:104ED00090E0A50194010E94363769017A0181E0D2
:104EE000C81AD108E108F108332009F4D9C027C154
:104EF00081E001C082E0332091F045C0D301C201BE
:104F00002AE0B595A795979587952A95D1F76C01D5
:104F10007D01E1E0CE1AD108E108F10885E095B500
:104F2000987F892B85BD66C068E478EE81E090E0CB
:104F3000A50194010E94363769017A01B1E0CB1ACC
:104F4000D108E108F108EFEFCE16D104E104F10435
:104F500009F008F4A3C064E274EF80E090E0A501DA
:104F600094010E94363769017A0191E0C91AD1088B
:104F7000E108F108AFEFCA16D104E104F10411F021
:104F800008F0B0C085E09091B100987F892B8093A4
:104F9000B10030C060E072E18AE790E0A5019401C1
:104FA0000E94363769017A01F1E0CF1AD108E10891
:104FB000F108C114D10421E0E206F10488F068E4AC
:104FC00078EE81E090E0A50194010E9436376901F6
:104FD0007A0181E0C81AD108E108F10893E001C024
:104FE00091E0A1E03A1206C080918100887F892B70
:104FF0008093810089819A81AB81BC81892B8A2B26
:105000008B2B81F0D801AA0FBB1F29813A814B81DC
:105010005C810E94333628EE33E040E050E00E948D
:10502000143703C02FEF3FEFA90191E03916A1F02B
:10503000A2E03A1619F131108DC0C7BC2093720757
:1050400030937307409374075093750780916E00F7
:10505000826080936E007EC0D0928900C0928800EA
:1050600020936E0730936F0740937007509371073A
:1050700080916F00826080936F006CC0C092B3001B
:1050800020936A0730936B0740936C0750936D072A
:10509000809170008260809370005CC084E073CF68
:1050A0008FEFC816D104E104F104D1F0C8F062E139
:1050B0007AE780E090E0A50194010E94363769010B
:1050C0007A01F1E0CF1AD108E108F1082FEFC216FA
:1050D000D104E104F10411F008F010CF84E01FCFF7
:1050E00083E01DCF62E17AE780E090E0A5019401C2
:1050F0000E94363769017A0191E0C91AD108E108A6
:10510000F108AFEFCA16D104E104F104B1F0A8F040
:10511000D301C2014AE0B595A795979587954A9521
:10512000D1F76C017D01E1E0CE1AD108E108F10868
:10513000332009F4F3CE87E026CF86E0DCCEBFEF44
:10514000CB16D104E104F10409F060F684E0D3CE7B
:1051500082E019CF0F900F900F900F90DF91CF91B9
:105160001F910F91FF90EF90DF90CF90BF90AF9085
:105170009F908F907F906F905F904F903F90089599
:10518000009761F0FC0101900020E9F73197AF0131
:10519000481B590BBC0185E198E0E2C880E090E033
:1051A00008950F931F93CF93DF938C01C0E0D0E05D
:1051B000F801EC0FFD1F6491662371F0E091150872
:1051C000F09116080190F081E02D85E198E01995A5
:1051D000892B11F02196ECCFCE01DF91CF911F9159
:1051E0000F910895CF93DF93DCDFEC0180E394E02F
:1051F000C7DF8C0F9D1FDF91CF9108954F925F9273
:105200006F927F928F929F92CF92DF92EF92FF9256
:105210000F931F93CF93DF932CE3C22ED12CE12C5D
:10522000F12CA70196010E94143760936307CA010D
:10523000B901A70196010E94143760936407CA015F
:10524000B90128E130E040E050E00E941437290124
:105250003A0160936507CA01B9016C5F7F4F8F4FB8
:105260009F4F27E030E040E050E00E9414376F5F2E
:1052700060936607C12CD12C760120E004E610E093
:1052800030E9832E99249394E22FF0E0EE54F84F06
:10529000EF01C370DD27209789F4CF01B8010E9488
:1052A0000137892B31F4CF01B4010E940137892BDA
:1052B00029F48EE691E0A0E0B0E004C08DE691E034
:1052C000A0E0B0E0C80ED91EEA1EFB1ED701C60141
:1052D000AA27BB27481659066A067B0610F02F5FDF
:1052E000D3CF20936907209799F4CF0164E670E04B
:1052F0000E940137892B39F4CF0160E971E00E94E7
:105300000137892B29F48EE691E0A0E0B0E004C0DB
:105310008DE691E0A0E0B0E0C81AD90AEA0AFB0ADB
:10532000930182010C191D092E093F09CF0164E682
:1053300070E00E9401377C01CF0160E971E00E94BA
:105340000137E2EEF3E0A0E0A13041F4209751F400
:10535000E114F10429F4009729F402C0408103C04C
:105360004DE101C04CE150E060E070E0041715072A
:105370002607370740F0041B150B260B370BAF5FD2
:105380003196AC3009F7AF5FA09368070F5F0093C9
:105390006707DF91CF911F910F91FF90EF90DF9002
:1053A000CF909F908F907F906F905F904F900895D7
:1053B0008F929F92AF92BF920F931F93CF93DF93E1
:1053C000CDB7DEB7A1970FB6F894DEBF0FBECDBF45
:1053D00019A2423008F44AE08E010F5D1F4F842E5F
:1053E000912CA12CB12CA50194010E941437E62F19
:1053F000B901CA0101501109EA3014F4E05D01C09D
:10540000E95CD801EC93232B242B252B61F7C801F1
:10541000B7DEA1960FB6F894DEBF0FBECDBFDF9109
:10542000CF911F910F91BF90AF909F908F90089553
:10543000909140079111FCCF813208F080E291E019
:105440009093400790933F072FEF20933E071092D1
:105450003D07280F20933C0790933B0790913B0713
:10546000906D90933B0790913A07913061F41092C0
:105470003A0790913B079093BB009091BC0093FD3D
:10548000F8CF95EC01C095EE9093BC009091400749
:105490009130E1F390913D07981710F480913D070A
:1054A000AAE1B7E023E437E0F9019E2F921B981799
:1054B00018F49D919193F9CF109242078093410780
:1054C00008952091190790911807213208F04AC0D9
:1054D000809140078111FCCF32E03093400731E0EA
:1054E00030933F073FEF30933E0710923D072093E4
:1054F0003C07A8EFB6E04AE157E0FA013E2F341B23
:10550000321718F43D913193F9CF10923B07209157
:105510003B07990F922B90933B0790913A0791305C
:1055200061F410923A0790913B079093BB009091E1
:10553000BC0093FDF8CF95EC01C095EE9093BC00B4
:10554000909140079230E1F390913E079F3F79F0B0
:1055500080913E07803241F080913E07803331F0E8
:1055600084E005C081E003C082E001C083E01092C6
:10557000F706109219071092F60608958091E10936
:10558000E091E209F091E309F8949181982B9183DD
:105590002281982F909529232283A7E0B0E01197CC
:1055A000F1F7218192239183A3E2B0E01197F1F703
:1055B00090817894EFECF0E03197F1F7982381E057
:1055C00009F480E008959091E109E091E209F091F9
:1055D000E309392F309580FF13C0F8942281832F7F
:1055E000822382838181892B8183A3E2B0E011979A
:1055F000F1F78281982B9283789487ED90E012C026
:10560000F8942281832F822382838181892B818355
:10561000AFEFB0E01197F1F78281982B92837894E5
:105620008FE090E00197F1F708950F931F93CF93C8
:10563000DF93082FC8E0D0E011E081E0912F9023A4
:1056400009F480E0C0DF110F2197B9F7F894E091D9
:10565000E209F091E30991818091E1098095982315
:105660009183E091E209F091E30992818923828399
:105670007894DF91CF911F910F9108959091E10956
:10568000E091E209F091E309F8948181292F2095B6
:105690008223818378948DE743E050E0815021F1AB
:1056A000DA011197F1F730813923C1F3F89482813F
:1056B000822382838181892B81837894ABE7B7E051
:1056C0001197F1F7F894818128232183A3E1B1E0B8
:1056D0001197F1F78081982381E009F080E07894B8
:1056E000E3E6F6E03197F1F70895DF92EF92FF924B
:1056F0000F931F93CF93DF931F921F92CDB7DEB707
:10570000F82E162F81E08093F60688E6809318071E
:105710001092F7061092190760E082EB98E02A8356
:1057200049830E94D61A8AE0D82E4981842F6D2D94
:105730000E94F536692F30E1839F600D112482EBC2
:1057400098E00E94D61A812F6D2D0E94F536692FA0
:1057500030E1839F600D112482EB98E00E94D61AFD
:105760008F2D6D2D0E94F536692F30E1839F600DDE
:10577000112482EB98E00E94D61A61E082EB98E057
:105780000E94D61A2A81822F6D2D0E94F536692F2C
:1057900020E1829F600D112482EB98E00E94D61ACE
:1057A000802F6D2D0E94F536692F30E1839F600DAB
:1057B000112482EB98E00E94D61A8E2D6D2D0E9446
:1057C000F536692F20E1829F600D112482EB98E06D
:1057D0000E94D61A60E082EB98E00E94D61A0F90E1
:1057E0000F90DF91CF911F910F91FF90EF90DF907D
:1057F00068CEEF92FF920F931F93CF93DF93CDB7B5
:10580000DEB762970FB6F894DEBF0FBECDBF7C0146
:105810008B0177FF03C01195019511094AE0B8018A
:10582000C70157D8083E83E018070CF076C04AE05D
:10583000B801CE010D964DD86EE474E0CE0101960C
:105840007BD8BE016F5F7F4FCE0107966DD8BE013A
:10585000635F7F4FCE0107960E940A24BC01C701F7
:105860001ED8CE01079630D8CE0101962DD8CE0194
:105870000D962AD8043611050CF04FC04AE0B80145
:10588000CE010D9626D86DE474E0CE01019654D871
:10589000BE016F5F7F4FCE01079646D8BE01635FA2
:1058A0007F4FCE0107960E940A24BC01C7010E94C7
:1058B0004F24CE01079608D8CE01019605D8CE0117
:1058C0000D9602D80A30110544F54AE0B801CE0120
:1058D0000D960E9469246CE474E0CE0101962CD8E8
:1058E000BE016F5F7F4FCE0107961ED8BE01635F7A
:1058F0007F4FCE0107960E940A24BC01C7010E9477
:105900004F24CE0107960E946424CE0101960E9486
:105910006424CE010D960E946424C70162960FB6DE
:10592000F894DEBF0FBECDBFDF91CF911F910F91D5
:10593000FF90EF9008950F931F93CF93DF93CDB710
:10594000DEB762970FB6F894DEBF0FBECDBF8C01F5
:1059500077FF03C07195619571094AE06A3071055E
:105960004CF5CE010D960E9469246EE474E0CE01E0
:1059700001960E949C24BE016F5F7F4FCE01079667
:105980000E949424BE01635F7F4FCE0107960E9460
:105990000A24BC01C8010E949424CE0107960E94EB
:1059A0006424CE0101960E946424CE010D960E94CB
:1059B000642403C0C8010E946924C80162960FB61E
:1059C000F894DEBF0FBECDBFDF91CF911F910F9135
:1059D00008950F931F93CF93DF93CDB7DEB76897EA
:1059E0000FB6F894DEBF0FBECDBF8C018091590277
:1059F00090915A02489781F40E94311FBC01CE0158
:105A0000439699DF0E94371FBC01CE010D9693DFAC
:105A10000E943D1FBC011DC00E94311FBC01CE0170
:105A2000439689DF0E94371FBC01CE010D9683DFAC
:105A30000E94731E0E94FB1E80916507882339F027
:105A4000682F70E08D3028F06C50710902C06CE056
:105A500070E0CE0101966FDFBE016F5F7F4FCE0118
:105A600007960E949424BE01635F7F4FCE01079684
:105A70000E940A24BE016D5E7F4F0E940A24BC0171
:105A8000C8010E949424CE0107960E946424CE018E
:105A900001960E946424CE010D960E946424CE01DA
:105AA00043960E946424C80168960FB6F894DEBF3E
:105AB0000FBECDBFDF91CF911F910F910895CF926F
:105AC000DF92EF92FF920F931F93CF93DF93EC013E
:105AD0008B010E942D1BCE80DF80E884F984AB010E
