:100000000C94A7000C94CF000C94CF000C94CF005C
:100010000C94CF000C94CF000C94CF000C940127CB
:100020000C94CF000C94CF000C94CF000C9450276C
:100030000C94CF000C94CF000C94AB270C94CF0001
:100040000C945F260C94CF000C94CF260C94A92618
:100050000C94CF000C94CF000C94CF000C94CF00E4
:100060000C9406280C94CF00496E636F727265631E
:100070007420536F6E6720466F726D6174210002A9
:10008000010053746F7020546573740054656D7073
:100090002E2073656E736F72206E6F7420666F759D
:1000A0006E642E0053746172742054657374004E34
:1000B00043533331342D384320485720322E782093
:1000C000485635313232206F72204856353232323E
:1000D000004669726D776172652076657273696F2B
:1000E0006E3A20004661756C7479205254432100A9
:1000F00000000000240027002A0000000000250066
:1001000028002B0000000008000201000003040783
:100110000000000000000000000000002300260096
:10012000290004040404040404040202020202027A
:1001300003030303030301020408102040800102AB
:10014000040810200102040810205E295C2F1124ED
:100150001FBECFEFD8E0DEBFCDBF27E0A4E4B4E000
:1001600001C01D92AD35B207E1F714E0A0E0B1E0A7
:10017000E4E1F9E602C005900D92A434B107D9F785
:1001800010E0C6EAD0E004C02197FE010E94693267
:10019000C53AD107C9F70E94E9290C947D340C9423
:1001A00000008CBD9DBD089580914507E0914607F4
:1001B000F0914707F8949181982B91832281382FF1
:1001C000309523232283A7E0B0E01197F1F79181C6
:1001D00093239183A3E2B0E01197F1F79081789493
:1001E000EFECF0E03197F1F7982381E009F480E03B
:1001F000089590914507E0914607F0914707292F10
:10020000209580FF14C0F8948281822382838181AB
:10021000892B8183A3E2B0E01197F1F78281982BBB
:100220009283789487ED90E00197F1F70895F89420
:100230008281822382838181892B8183AFEFB0E029
:100240001197F1F78281982B928378948FE090E058
:10025000EBCF0F931F93CF93DF93082FC8E0D0E02D
:1002600011E081E0902F912309F480E00E94F900D1
:10027000110F2197B1F7F894E0914607F0914707E5
:10028000918180914507809598239183E09146075D
:10029000F09147079281892382837894DF91CF91EF
:1002A0001F910F91089580914507E0914607F091C5
:1002B0004707F8949181282F209592239183789471
:1002C0003DE743E050E0315029F1DA011197F1F7B1
:1002D00090819823C1F3F894928192239283918123
:1002E000982B91837894ABE7B7E01197F1F7F894E6
:1002F000918192239183A3E1B1E01197F1F790816D
:10030000982381E009F080E07894E3E6F6E0319705
:10031000F1F7089580E0089591E090931906809395
:100320003B0610921A0610923C060895833081F025
:1003300028F4813099F08230A9F008958730A9F02F
:100340008830C9F08430B1F4809180008F7D03C083
:10035000809180008F7780938000089584B58F7797
:1003600084BD089584B58F7DFBCF8091B0008F77D9
:100370008093B00008958091B0008F7DF9CFCF9326
:10038000DF93282F30E0F901EC5FFE4F8491F901F3
:10039000EA5CFE4FD491F901EE5DFE4FC491CC238F
:1003A000A1F081110E949601EC2FF0E0EE0FFF1FEB
:1003B000E85EFE4FA591B491EC91ED2381E090E0D1
:1003C00009F480E0DF91CF91089580E090E0FACFCA
:1003D0001F93CF93DF93282F30E0F901EC5FFE4F9E
:1003E0008491F901EA5CFE4FD491F901EE5DFE4F74
:1003F000C491CC23A9F0162F81110E949601EC2FF5
:10040000F0E0EE0FFF1FE650FF4FA591B4918FB7BC
:10041000F894EC91111108C0D095DE23DC938FBFC6
:10042000DF91CF911F910895DE2BF8CFCF93DF930B
:1004300090E0FC01EA5CFE4F24918E5D9E4FFC0132
:1004400084918823C9F090E0880F991FFC01E05146
:10045000FF4FA591B491FC01E650FF4FC591D49197
:1004600061110DC09FB7F8948C91209582238C93D5
:100470008881282328839FBFDF91CF910895623020
:1004800051F49FB7F8943C91822F809583238C93ED
:10049000E8812E2BEFCF8FB7F894EC912E2B2C9375
:1004A0008FBFEACF4F925F926F927F928F929F920F
:1004B000AF92BF92CF92DF92EF92FF920F931F9372
:1004C000CF93DF9300D000D01F92CDB7DEB720913D
:1004D0004A0627FD2CC149835A836B837C838C0198
:1004E00061E0809149060E94160280914A068D8340
:1004F0004801B12CA12C8D7F09F031C160E072E17F
:100500008AE790E0A50198010E944A3229013A0148
:100510007A01690191E0C91AD108E108F108AFEF49
:10052000CA16D104E104F10409F00CF4C7C060E478
:1005300072E48FE090E0A50198010E944A326901BF
:100540007A01B1E0CB1AD108E108F1088D8182303F
:1005500009F06AC082E09FEFC916D104E104F104FA
:1005600009F00CF45EC160E970ED83E090E0A50154
:1005700098010E944A3269017A01A1E0CA1AD108A1
:10058000E108F10883E0BFEFCB16D104E104F104E8
:1005900009F00CF446C168E478EE81E090E0A50132
:1005A00098010E944A3269017A0181E0C81AD10893
:1005B000E108F10884E09FEFC916D104E104F104D9
:1005C00009F00CF42EC164E274EF80E090E0A50124
:1005D00094010E944A3269017A01B1E0CB1AD10834
:1005E000E108F10885E09FEFC916D104E104F104A8
:1005F00009F008F416C162E17AE780E090E0A50115
:1006000094010E944A3269017A01B1E0CB1AD10803
:10061000E108F1088FEFC816D104E104F10411F0EC
:1006200008F0F0C086E0FDC08FEFC816D104E104E9
:10063000F10409F00CF491C068E478EE81E090E0F8
:10064000A50198010E944A3269017A0191E0C91A14
:10065000D108E108F108AD8184E0A111C4CF83E0A5
:10066000AFEFCA16D104E104F10461F15CF162E17B
:100670007AE780E090E0A50194010E944A32690186
:100680007A0181E0C81AD108E108F10884E09FEFFF
:10069000C916D104E104F104A9F0A0F073016201CC
:1006A0009AE0F594E794D794C7949A95D1F7A1E08E
:1006B000CA1AD108E108F10885E004C081E0AD81E3
:1006C000A111AFC095B5987F892B85BD89819A818D
:1006D000AB81BC812FEF3FEFA901892B8A2B8B2B9C
:1006E00079F0D801AA0FBB1F29813A814B815C8127
:1006F0000E940F3128EE33E040E050E00E942832A3
:100700009D81913009F45CC0923009F46BC0911165
:100710000EC0C7BC2093450630934606409347065B
:100720005093480680916E00826080936E000F9017
:100730000F900F900F900F90DF91CF911F910F911D
:10074000FF90EF90DF90CF90BF90AF909F908F90F1
:100750007F906F905F904F90089582E0B0CF60E0FF
:1007600072E18AE790E0A50198010E944A3269018E
:100770007A01B1E0CB1AD108E108F10891E0C11487
:10078000D10481E0E806F10484F068E478EE81E0C9
:1007900090E0A50198010E944A3269017A0191E036
:1007A000C91AD108E108F10893E0AD81A13009F040
:1007B0008DCF80918100887F892B8093810086CFA7
:1007C000D0928900C092880020934106309342065F
:1007D000409343065093440680916F00826080935B
:1007E0006F00A5CFC092B30020933D0630933E0624
:1007F00040933F0650934006809170008260809342
:10080000700095CF730162018AE0F594E794D79464
:10081000C7948A95D1F7B1E0CB1AD108E108F10865
:1008200087E09091B100987F892B8093B1004ECFE3
:100830001F93CF93DF93182FEB0161E00E94160204
:10084000209739F460E0812FDF91CF911F910C94B4
:10085000E801CF3FD10511F461E0F5CFE12FF0E0E1
:10086000EC5FFE4FE491E33031F140F4E130B1F060
:10087000E230E1F0C038D1057CF7E4CFE73029F170
:10088000E83059F1E430B1F78091800080628093C4
:100890008000D0938B00C0938A0004C084B5806828
:1008A00084BDC7BDDF91CF911F91089584B580624B
:1008B00084BDC8BDF7CF80918000806880938000A0
:1008C000D0938900C0938800EDCF8091B0008068FC
:1008D0008093B000C093B300E5CF8091B0008062F8
:1008E0008093B000C093B400DDCF3FB7F8948091FF
:1008F000C7059091C805A091C905B091CA0526B554
:10090000A89B05C02F3F19F00196A11DB11D3FBF47
:10091000BA2FA92F982F8827BC01CD01620F711D16
:10092000811D911D42E0660F771F881F991F4A9510
:10093000D1F708958F929F92AF92BF92CF92DF929C
:10094000EF92FF924B015C010E9475046B017C01E8
:100950000E9475046C197D098E099F09683E7340D9
:1009600081059105A8F321E0821A9108A108B10838
:1009700088EEC80E83E0D81EE11CF11C811491049E
:10098000A104B10429F7FF90EF90DF90CF90BF90C2
:10099000AF909F908F9008952FB7F8946091C30502
:1009A0007091C4058091C5059091C6052FBF08952B
:1009B000089508950895AF92BF92CF92DF92EF927B
:1009C000FF920F931F93CF93DF936C017B018B01F9
:1009D000040F151FEB015E01AE18BF08C017D10749
:1009E00059F06991D601ED91FC910190F081E02DD3
:1009F000C6010995892B79F7C501DF91CF911F9128
:100A00000F91FF90EF90DF90CF90BF90AF9008953F
:100A100042E050E06AE373E08BE496E00C94DB0480
:100A2000FC01538D448D252F30E0842F90E0821BF4
:100A3000930B541710F0CF96089501970895FC0179
:100A4000918D828D981761F0A28DAE0FBF2FB11DD1
:100A50005D968C91928D9F5F9F73928F90E0089529
:100A60008FEF9FEF0895FC01918D828D981731F0E3
:100A7000828DE80FF11D858D90E008958FEF9FEF37
:100A80000895FC01918D228D892F90E0805C9F4F0D
:100A9000821B91098F73992708958BE496E00E9439
:100AA000410521E0892B09F420E0822F089580E0A0
:100AB00090E0892B29F00E944D0581110C940000D3
:100AC0000895FC01A48DA80FB92FB11DA35ABF4FE3
:100AD0002C91848D90E001968F739927848FA6893D
:100AE000B7892C93A089B1898C91837080648C9391
:100AF000938D848D981306C00288F389E02D808140
:100B00008F7D80830895EF92FF920F931F93CF9371
:100B1000DF93EC0181E0888F9B8D8C8D98131AC038
:100B2000E889F989808185FF15C09FB7F894EE891F
:100B3000FF896083E889F98980818370806480837C
:100B40009FBF81E090E0DF91CF911F910F91FF90C7
:100B5000EF900895F62E0B8D10E00F5F1F4F0F736F
:100B60001127E02E8C8D8E110CC00FB607FCFACF2A
:100B7000E889F989808185FFF5CFCE010E94610562
:100B8000F1CFEB8DEC0FFD2FF11DE35AFF4FF082FB
:100B90009FB7F8940B8FEA89FB8980818062CFCF61
:100BA0000F931F93CF93DF938C01D0E0C0E0F80147
:100BB000EC0FFD1F6491662341F08BE496E00E94E8
:100BC0008305892B11F02196F2CFCE01DF91CF91D1
:100BD0001F910F910895CF93DF930E94D005EC01F0
:100BE0000E9408058C0F9D1FDF91CF910895CF9330
:100BF000DF93EC01888D8823B9F0AA89BB89E88945
:100C0000F9898C9185FD03C0808186FD0DC00FB6EA
:100C100007FCF7CF8C9185FFF2CF808185FFEDCF68
:100C2000CE010E946105E9CFDF91CF9108956093D5
:100C30008E0570938F058093900590939105645D68
:100C40007E4F8F4F9F4F60938A0570938B058093E3
:100C50008C0590938D0582E090E0909389058093B8
:100C600088050E94CC046093840570938505809369
:100C700086059093870508952F923F924F925F9239
:100C80006F927F928F929F92AF92BF92CF92DF929C
:100C9000EF92FF920F931F93CF93DF93382E962EF0
:100CA000842E222E84E6E816F1040CF459C092EB4F
:100CB000E91A97E0F90AE0929805009397052092C7
:100CC0009605309294059092930580929205AE2DF0
:100CD000B0E020E833E341EE51E00E940F312B01F8
:100CE0003C0122EB37E0FF24E4E6F0E0C0E9D1E08C
:100CF000C901825B97408E159F05B4F19EE4E91A05
:100D000098EFF90AC70164E670E00E9414326C01A2
:100D1000C70160E971E00E9414325C01CAE0D3E0CF
:100D2000E1E0F0E0112783E0E822FF24E017F1077B
:100D30000CF042C0E230F10591F5E114F10479F5CF
:100D4000C114D10419F4A114B10449F580E8480E86
:100D50008BE3581E86E2681E711C31962196E6CF01
:100D60008EE1E80EF11CA7CFC90183709927892B6A
:100D700099F4C901BF010E941432892B31F4C901D1
:100D8000BE010E941432892B39F490E8490E91E596
:100D9000591E91E0691E711C2F5F3F4FA9CFA8819A
:100DA000B0E020E831E541E050E00E940F31460E0E
:100DB000571E681E791ED1CF292D30E0ACE3B0E07C
:100DC0000E9451316B017C01C80CD11CE11CF11C4B
:100DD000232D30E0A0E1BEE00E945131C60ED71EA7
:100DE000E81EF91E822D8150990BDC0120E831E5C7
:100DF00041E050E00E946F326C0D7D1D8E1D9F1DE5
:100E0000640D751D861D971DDF91CF911F910F9168
:100E1000FF90EF90DF90CF90BF90AF909F908F901A
:100E20007F906F905F904F903F902F900C9417069B
:100E3000CF92DF92EF92FF920F931F930E94CC0408
:100E40008B019C01C0908405D0908505E0908605BB
:100E5000F090870560918E0570918F0580919005C7
:100E6000909191050C191D092E093F09083E134068
:100E700021053105E0F0DC01CB010196A11DB11D7A
:100E800080938E0590938F05A0939005B093910564
:100E9000B701A60148515C4F6F4F7F4F40938405C7
:100EA000509385056093860570938705C7CF1F9182
:100EB0000F91FF90EF90DF90CF9008954F925F9247
:100EC0006F927F928F929F92AF92BF92CF92DF925A
:100ED000EF92FF920F931F93CF93DF934B015C012F
:100EE0008091800590918105A0918205B091830544
:100EF00088159905AA05BB0509F4C6C08CE3C82E60
:100F0000D12CE12CF12CC501A70196010E942832B9
:100F100060939205CA01B901A70196010E94283287
:100F200060939305C501B40120E13EE040E050E04C
:100F30000E942832CA01B90128E130E040E050E0C7
:100F40000E94283260939405C501B40120E831E580
:100F500041E050E00E94283269017A01CA01B901DA
:100F60006C5F7F4F8F4F9F4F27E030E040E050E0B5
:100F70000E9428326F5F60939505412C512C3201FD
:100F800040E004E610E0C0E9D1E0242F30E02E5428
:100F9000384FF901E370FF273097F9F4C901B80120
:100FA0000E941432892B31F4C901BE010E9414320F
:100FB000892B99F48EE691E0A0E0B0E0480E591E2E
:100FC0006A1E7B1ED301C201AA27BB27C816D906F9
:100FD000EA06FB0638F04F5FD8CF8DE691E0A0E03F
:100FE000B0E0ECCF40939805C90164E670E00E9440
:100FF0001432EC01C90160E971E00E9414323097AB
:1010000021F42097D9F40097C9F04DE651E060E053
:1010100070E0441A550A660A770AC418D508E6082B
:10102000F708AAE0B3E020E0213069F43097E9F551
:10103000209711F40097C9F54DE106C04EE651E046
:1010400060E070E0E6CF4C9150E070E060E031E0AD
:10105000320FC416D506E606F70640F0C41AD50AC4
:10106000E60AF70A1196232F3C30F1F62F5F209302
:101070009705C394C0929605809280059092810551
:10108000A0928205B0928305DF91CF911F910F91BD
:10109000FF90EF90DF90CF90BF90AF909F908F9098
:1010A0007F906F905F904F9008954CE1CDCF0E945C
:1010B00018070E945E078091980590E08E54984F23
:1010C00008950E9418070E945E078091970590E09E
:1010D00008950E9418070E945E078091960590E08F
:1010E00008950E9418070E945E078091920590E083
:1010F00008950E9418070E945E078091930590E072
:1011000008950E9418070E945E078091940590E060
:101110000895CF92DF92EF92FF92CF93DF93EC018D
:101120000E94CC046B017C018F850E94BF019C0151
:1011300081E02115310509F480E0898B88898111CE
:1011400005C091E0232B09F090E0998B29898A89C9
:10115000281721F0CD8ADE8AEF8AF88E8D899E8944
:10116000AF89B88DB701A601481B590B6A0B7B0BE1
:10117000DB01CA01CB80DC80ED80FE80C816D90679
:10118000EA06FB0664F43A81231749F02A832223F6
:1011900049F04B895C894F5F5F4F5C8B4B8B3A8189
:1011A000311117C0CF80D884E984FA84C816D906D3
:1011B000EA06FB0634F48B899C89998388831C8A10
:1011C0001B8A2A8BDF91CF91FF90EF90DF90CF9019
:1011D0000895CB84DC84ED84FE84C816D906EA0623
:1011E000FB067CF78B899C89919581959109E5CFC8
:1011F00020915D05260F3327331F21323105ECF492
:1012000020911306FC0190E080E0243069F082E038
:101210000895A0915D052191AC01435C5A4FA40F44
:10122000B52FB11D2C930196861798F380915D051B
:10123000680F60935D0580E0089581E00895109245
:10124000130681E0809312061092ED0561E082E1C1
:101250000E94E80161E083E10E94E801E9EBF0E02F
:1012600080818E7F808380818D7F808388E48093DE
:10127000B80085E48093BC000895CF93DF9391E09C
:1012800090933C058823B9F0C091B800D091BA0082
:101290008091BC008A7B8093BC0060E082E10E9468
:1012A000E80160E083E10E94E8010E941F09D093F9
:1012B000BA00C093B800DF91CF910895CF92DF922A
:1012C000EF92FF920F931F93CF93DF93D0913C0641
:1012D00081E0D13208F09CC0C0913B060E947504A9
:1012E0006B017C018091130681116CC082E08093B8
:1012F000130681E0809312068FEF809311061092FF
:101300001006D0930F06ABE1B6E0EFEEF5E080E01B
:10131000D8138DC01092EE058091EE05CC0FC82B2E
:10132000C093EE058091ED05813009F084C01092E4
:10133000ED050E9475046B017C018091EE058093A0
:10134000BB008091150690911606A0911706B091EA
:101350001806892B8A2B8B2BA1F00E947504009113
:1013600015061091160620911706309118066C1973
:101370007D098E099F09061717072807390708F402
:1013800042C08091BC0083FDD8CF85EC8093BC0027
:101390000E9475046B017C0180911306823009F470
:1013A0004CC0809111068F3F09F469C080911106ED
:1013B000803209F466C080911106803309F463C05D
:1013C00084E026C08091150690911606A09117061C
:1013D000B0911806892B8A2B8B2B09F483CF0E949E
:1013E000750400911506109116062091170630918C
:1013F00018066C197D098E099F090617170728071B
:10140000390708F06FCF809114060E943D0985E0EE
:1014100010921A0610923C0610921906DF91CF9195
:101420001F910F91FF90EF90DF90CF9008959D91C5
:1014300091938F5F6DCF85EEA9CF80911506909126
:101440001606A0911706B0911806892B8A2B8B2BB4
:1014500009F4A2CF0E94750400911506109116069A
:1014600020911706309118066C197D098E099F0985
:10147000061717072807390708F08ECFC4CF80E07A
:10148000C7CF82E0C5CF83E0C3CF0895E091CC05FC
:101490008091CB05E81730F4F0E0E353FA4F8081F8
:1014A00090E008958FEF9FEF08959091CC05809183
:1014B000CB052FEF3FEF981748F4E92FF0E0E35307
:1014C000FA4F208130E09F5F9093CC05C9010895C9
:1014D0008091CB059091CC05891B990B0895CF92F3
:1014E000DF92EF92FF920F931F93CF93DF937C01D4
:1014F000CB018A0120911906222389F0EB016B01AF
:10150000C40ED51ECC15DD0569F06991D701ED91AA
:10151000FC910190F081E02DC7010995F3CF642F74
:101520000E94F808C801DF91CF911F910F91FF90A1
:10153000EF90DF90CF900895CF93DF931F92CDB7B8
:10154000DEB76983209119062223F9F020913C0629
:10155000203258F021E030E0FC013383228390E018
:1015600080E00F90DF91CF91089580911A06E82FC7
:10157000F0E0E55EF94F998190838F5F80931A06C2
:1015800080933C0681E090E0ECCF61E0CE010196D3
:101590000E94F808F7CF682F88EE96E00C949C0A1A
:1015A00090E080E00895CF92DF92EF92FF920F9348
:1015B0001F93CF93DF9390913B0591110BC08FEF59
:1015C0009FEFDF91CF911F910F91FF90EF90DF90F0
:1015D000CF90089590913A05992389F3082FC091EF
:1015E0003905D0E08091310581110DC00E94CC04F5
:1015F00060932D0570932E0580932F0590933005F1
:1016000081E0809331050E94CC04C0902D05D090DC
:101610002E05E0902F05F09030056C197D098E099C
:101620009F096D32714081059105B0F010912C0534
:101630000E94CC0460932D0570932E0580932F0596
:101640009093300591E0912790932C05992331F1E7
:1016500010922B0510922A0520912A0530912B0516
:101660002095309580912905282326FF1CC081E014
:101670008093280527FF1AC081E080932705809179
:101680002C05882309F49BCF02C0D595C7950A95F0
:10169000E2F7C0FF94CF80E09CE393CFD0932B057B
:1016A000C0932A05D9CF10922805E4CF10922705C0
:1016B000E6CFEF92FF920F931F93CF93DF93182FF4
:1016C0008091FF0481110DC00E94CC046093FB0443
:1016D0007093FC048093FD049093FE0481E080935A
:1016E000FF04C091F904D091FA04C930D10508F083
:1016F00075C0FE01E258F44F0C946932870B930BCE
:10170000970BA50B870B930BCA0BCC0BDD0B0E9421
:1017100053012196CA30D10509F091C01092FA0404
:101720001092F90428C08CEC0E942901F2CF84E4C5
:101730000E9429010E94CC046093FB047093FC0476
:101740008093FD049093FE04E4CF0E94CC040091AA
:10175000FB041091FC042091FD043091FE04601BF9
:10176000710B820B930BC4E0D0E06E3E724081059A
:10177000910508F064C06091F5047091F6048091C1
:10178000F7049091F804DF91CF911F910F91FF9092
:10179000EF9008958EEBC8CF98E0E92EF12C10E081
:1017A00001E00E94D4008111102B000F81E0E81AA3
:1017B000F108B9F71093F304ACCF88E0E82EF12CD0
:1017C00010E001E00E94D4008111102B000F21E0F5
:1017D000E21AF108B9F71093F4049BCFC930D10590
:1017E00009F097CF6091F3047091F4046F3F76078E
:1017F00011F470E060E0072E000C880B990B0E943A
:10180000DC2F20E030E040E85DE30E943B30111126
:1018100009C06093F5047093F6048093F7049093E5
:10182000F80477CF26E636E646EE5FE30E943B30CB
:1018300020E030E040E052E40E946131EACFD093F2
:10184000FA04C093F90497CFCF93DF93EC0121966C
:10185000FC0120812A33C9F42181243609F522961E
:1018600030E020E06AE0899190ED980F9A3078F4AA
:10187000629FA001639F500D1124082E000C990B4C
:10188000C0979A01280F391FEECFCE01DFCF3093DA
:10189000D2042093D1042115310511F020930B01BE
:1018A00088818F3689F48A81082E000C990B9C015F
:1018B000205331093093D2042093D104C397059764
:1018C00010F420930A01249688818236F1F422963E
:1018D00030E020E06AE0899190ED980F9A3068F44A
:1018E000629FA001639F500D1124082E000C990BDC
:1018F000C0979A01280F391FEECF3093D20420935E
:10190000D1043093090120930801209108013091FE
:101910000901032E000C440B550B60E67AEE80E0C3
:1019200090E00E944A3282E0220F331F441F551F6D
:101930008A95D1F72093CD043093CE044093CF0401
:101940005093D004CE01DF91CF9108958EBD000059
:101950000DB407FEFDCF8EB508958F929F92AF9282
:10196000BF92CF92DF92EF92FF920F931F93CF938C
:10197000DF937C01D62F0E9475044B015C0180919E
:101980001306811167C0CD2F81E0809313068093E9
:1019900012069FEF90931106109210069D0F9093E0
:1019A0000F068093EE058091EE05EE0CFF1C8E294C
:1019B0008093EE058091ED05813009F083C010928F
:1019C000ED050E9475046B017C018091EE0580930A
:1019D000BB008091150690911606A0911706B09154
:1019E0001806892B8A2B8B2BA1F00E9475048090FE
:1019F000150690901606A0901706B09018066C1960
:101A00007D098E099F0986169706A806B90608F46F
:101A100042C08091BC0083FDD8CF85EC8093BC0090
:101A20000E9475046B017C0180911306813009F4DA
:101A30004BC0809110068D1710F4C0911006EFEE88
:101A4000F5E0ADECB5E080E08C1751F191919D93FC
:101A50008F5FFACF8091150690911606A091170618
:101A6000B0911806892B8A2B8B2B09F488CF0E9402
:101A700075040091150610911606209117063091F5
:101A80001806681979098A099B0906171707280794
:101A9000390708F074CF809114060E943D09C0E018
:101AA0001092CC05C093CB058C2FDF91CF911F9165
:101AB0000F91FF90EF90DF90CF90BF90AF909F90ED
:101AC0008F90089585EEAACF809115069091160605
:101AD000A0911706B0911806892B8A2B8B2B09F43D
:101AE000A3CF0E9475048090150690901606A090D2
:101AF0001706B09018066C197D098E099F09861685
:101B00009706A806B90608F08FCFC5CFCF93C0912E
:101B10000C018C2F0E948C0160E088EE96E00E9400
:101B20009C0A0E945E0967E070E08C2F90E00E94A2
:101B3000AD0C88EE96E00E94550A982F92959F7002
:101B4000CAE08F709C9F800D112490E09093C00597
:101B50008093BF0588EE96E00E94550A982F9295D3
:101B60009F708F709C9F800D112490E09093B7051B
:101B70008093B60588EE96E00E94550A982F9295BC
:101B800093708F709C9F800D112490E09093B50509
:101B90008093B40588EE96E00E94550A88EE96E0A0
:101BA0000E94550A982F92959F708F709C9F800D70
:101BB000112490E09093B9058093B80588EE96E0E3
:101BC0000E94550A982F92959F708F709C9F800D50
:101BD000112490E09093BB058093BA0588EE96E0BF
:101BE0000E94550A982F92959F708F709C9F800D30
:101BF000112490E08053984F9093BD058093BC05CD
:101C0000CF910895FC0180819181009711F00C948F
:101C1000642F60E070E0CB0108954F925F926F9265
:101C20007F928F929F92AF92BF92CF92DF92EF926C
:101C3000FF92CF93DF93CDB7DEB72D970FB6F89411
:101C4000DEBF0FBECDBF0E947504C0902305D090AB
:101C50002405E0902505F09026056C197D098E0974
:101C60009F096A3171448105910508F478C20E9488
:101C70007504609323057093240580932505909344
:101C80002605809122058823A1F180E00E94A60C00
:101C900080E00E94A60C80E00E94A60C80E00E94DA
:101CA000A60C80E00E94A60C80E00E94A60C80E0BA
:101CB0000E94A60C80E00E94A60C61E08AE00E94CF
:101CC000E80160E08AE02D960FB6F894DEBF0FBE03
:101CD000CDBFDF91CF91FF90EF90DF90CF90BF907D
:101CE000AF909F908F907F906F905F904F900C94EB
:101CF000E8018FE397E00E94020E69837A838B8369
:101D00009C8360E08AE00E94E801FAE0CF2ED12CAB
:101D1000E12CF12C69817A818B819C81A70196014C
:101D20000E944A3249015A01660F771F6A507D4F5F
:101D3000DB014D905C9087E090E00E94D30A3C016B
:101D4000C501B401A70196010E944A32660F771FB0
:101D50006A507D4FFB018080918087E090E00E9477
:101D6000D30A5C0169817A818B819C8124E630E011
:101D700040E050E00E944A32CA01B901A701960131
:101D80000E944A32660F771F6A507D4FDB01ED904B
:101D9000FC9086E090E00E94D30A46205720712CE8
:101DA000612C24E1440C551C661C771C2A95D1F744
:101DB0008E219F21B0E0A0E073016201C82AD92AD8
:101DC000EA2AFB2A8A209B20B12CA12C3AE0880C1D
:101DD000991CAA1CBB1C3A95D1F7C828D928EA2817
:101DE000FB2869817A818B819C8128EE33E040E079
:101DF00050E00E944A3229013A0180912805882347
:101E000009F47AC16894F6F880912705882309F4CB
:101E100076C16894F7F8B091A805BD878F2D9927F2
:101E2000AA27BB278D839E83AF83B8874701AA2447
:101E3000BB24BB27AF2D9E2D8D2D89879A87AB871D
:101E4000BC879D85992309F45DC18C2D0E94A60C49
:101E500089850E94A60C882D0E94A60C8D810E9467
:101E6000A60C8AE0882E912CA12CB12CC301B201C2
:101E7000A50194010E944A32660F771F6A507D4F78
:101E8000DB01CD90DC9085E090E00E94D30A7C01DC
:101E900069817A818B819C8120E137E240E050E0CA
:101EA0000E944A32CA01B901A50194010E944A3236
:101EB000660F771F6A507D4FFB016080718084E060
:101EC00090E00E94D30ACE20DF20F12CE12C34E1F7
:101ED000CC0CDD1CEE1CFF1C3A95D1F78621972116
:101EE000B0E0A0E04AE0880F991FAA1FBB1F4A95E7
:101EF000D1F7C82AD92AEA2AFB2A69817A818B81FB
:101F00009C8120EA36E841E050E00E944A32CA0152
:101F1000B901A50194010E944A32660F771F6A50E9
:101F20007D4FDB01AD90BC9083E090E00E94D30A2E
:101F30008A219B21B0E0A0E0C82AD92AEA2AFB2AFC
:101F400069817A818B819C8120E432E44FE050E00A
:101F50000E944A3229013A0180912805882309F418
:101F6000DCC06894F6F880912705882309F4D8C06E
:101F70006894F7F88F2D9927AA27BB278D839E8316
:101F8000AF83B8874701AA24BB24BB27AF2D9E2D62
:101F90008D2D89879A87AB87BC879D85992309F406
:101FA000C2C08C2D0E94A60C89850E94A60C882D8B
:101FB0000E94A60C8D810E94A60C3AE0832E912CE3
:101FC000A12CB12CC301B201A50194010E944A3297
:101FD000660F771F6A507D4FDB01CD90DC9082E069
:101FE00090E00E94D30A7C0169817A818B819C8177
:101FF00020E836E948E950E00E944A32CA01B901B6
:10200000A50194010E944A32660F771F6A507D4FE6
:10201000FB016080718081E090E00E94D30ACE20B5
:10202000DF20F12CE12C64E1CC0CDD1CEE1CFF1C4C
:102030006A95D1F786219721B0E0A0E07AE0880F79
:10204000991FAA1FBB1F7A95D1F7C82AD92AEA2A55
:10205000FB2A69817A818B819C8120E031EE45EFFA
:1020600055E00E944A32CA01B901A50194010E94BB
:102070004A32660F771F6A507D4FDB01AD90BC90EE
:1020800090E080E00E94D30A8A219B21B0E0A0E08A
:102090008C299D29AE29BF29209128056C017D013D
:1020A000222309F44BC06894F6F880912705882311
:1020B00009F447C06894F7F84F2C55246624772418
:1020C0004701AA24BB24BB27AF2D9E2D8D2D8983CC
:1020D0009A83AB83BC839D859923B1F18C2D0E949B
:1020E000A60C89810E94A60C882D0E94A60C842D26
:1020F0000E94A60C61E0E6CDE894F6F885CEE8945F
:10210000F7F889CE8D810E94A60C882D0E94A60C1E
:1021100089850E94A60C8C2DA2CEE894F6F823CFD8
:10212000E894F7F827CF8D810E94A60C882D0E9495
:10213000A60C89850E94A60C8C2D3DCFE894F6F85C
:10214000B4CFE894F7F8B8CF842D0E94A60C882D60
:102150000E94A60C89810E94A60C8C2DC9CF2D96B9
:102160000FB6F894DEBF0FBECDBFDF91CF91FF90C9
:10217000EF90DF90CF90BF90AF909F908F907F9027
:102180006F905F904F9008950F931F93CF93DF93BD
:102190008C01EB01FC01808191810097E1F0688165
:1021A000798161157105A9F0428153812C813D81AE
:1021B0004217530770F00E9476348C819D81F8019C
:1021C000958384831D821C82DF91CF911F910F9193
:1021D00008950E94273388819981F8019183808333
:1021E0008A819B81938382838C819D819583848363
:1021F000198218821B821A82E5CFCF93DF93EC01FC
:1022000088819981009711F00E94273319821882E2
:102210001D821C821B821A82DF91CF910895FC01DE
:1022200080819181009711F00C94273308950F93CA
:102230001F93CF93DF93EC0188819981009759F028
:102240002A813B812617370730F081E0DF91CF915B
:102250001F910F9108958B016F5F7F4F0E94B033E4
:10226000009759F0998388831B830A832C813D81D1
:10227000232B59F7FC011082E8CF80E0E7CFEF92E3
:10228000FF920F931F93CF93DF936115710541F474
:1022900080E0DF91CF911F910F91FF90EF90089513
:1022A00041155105B1F07B01EC010C811D81040F3A
:1022B000151FB8010E941711882351F32881398115
:1022C0008C819D81B701820F931F0E9476341D83FC
:1022D0000C8381E0DECF0F931F93CF93DF9300D069
:1022E000CDB7DEB78C0169831A8241E050E0BE01B0
:1022F0006F5F7F4F0E943F11811103C0C8010E9490
:10230000FD10C8010F900F90DF91CF911F910F9199
:102310000895CF93DF93EC01FB0101900020E9F7D2
:102320003197AF01461B570B0E943F11811103C02B
:10233000CE010E94FD10CE01DF91CF910895CF9381
:10234000DF93EC01FB0144815581608171810E9422
:102350003F11811103C0CE010E94FD10CE01DF911B
:10236000CF910895EF92FF920F931F93CF93DF9336
:10237000EC017B018A01BA010E94171181110BC087
:10238000CE010E94FD10CE01DF91CF911F910F91E0
:10239000FF90EF9008951D830C83B7018881998188
:1023A0000E947634F0CFFB0101900020E9F73197CD
:1023B000AF01461B570B0C94B2110F931F93CF9391
:1023C000DF93CDB7DEB762970FB6F894DEBF0FBECE
:1023D000CDBF8C01CB01F8011182108213821282D1
:1023E000158214824AE0BE016F5F7F4F0E948B2FDF
:1023F000BE016F5F7F4FC8010E94D31162960FB676
:10240000F894DEBF0FBECDBFDF91CF911F910F912A
:102410000895CF93DF93EC01FB018617970749F0EE
:10242000608171816115710541F0448155810E947F
:10243000B211CE01DF91CF9108950E94FD10F9CF26
:10244000FC011182108213821282158214820C9474
:102450000912FC01118210821382128215821482E9
:10246000FB0101900020E9F73197AF01461B570BA4
:102470000C94B211AF92BF92CF92DF92EF92FF9283
:102480000F931F93CF93DF936C015B017A01890156
:102490002417350720F48F2D7901042F182F6CE3B2
:1024A00073E0C6010E942912D5011496CD91DC91EA
:1024B000EC16FD06E0F40C171D0708F4E801D50141
:1024C000ED91FC911197EC0FFD1F108110826D9121
:1024D0007C916E0D7F1DC60161157105A1F00E94F2
:1024E000D311F50180819181C80FD91F1883C601CE
:1024F000DF91CF911F910F91FF90EF90DF90CF90E0
:10250000BF90AF9008950E94FD10EBCF4F925F9265
:102510006F927F928F929F92AF92BF92CF92DF92F3
:10252000EF92FF920F931F93CF93DF9300D000D0D1
:1025300000D0CDB7DEB77C014B015A018091F20487
:1025400081113AC081E08093F20499EE692E94E003
:10255000792E20EE422E24E0522E10E000E00F5F94
:102560001F4F680181E0C81AD1089801A601B40183
:10257000CE0101960E943A12CE0101960E94020EEF
:10258000D3016D933D01CE0101960E940F11980178
:10259000A601B501CE0101960E943A12CE01019624
:1025A0000E94020EF20161932F01CE0101960E945A
:1025B0000F110930110599F69091DF0489EEC82EAC
:1025C00084E0D82EE0EEF4E08601A801D8018C91D9
:1025D0009A3008F04DC08F5F8C930F5F1F4FDA0168
:1025E0008C918A3019F4D80111971C923196B4E07D
:1025F000023F1B0751F79F5F943109F43FC090934E
:10260000DF046CE373E0C7010E942912FE013196DA
:102610005F01D6018D916D014AE0B50190E00E9405
:102620008B2FF50101900020E9F73197AF014A198E
:102630005B09B501C7010E943F110C151D0549F743
:10264000C70126960FB6F894DEBF0FBECDBFDF914F
:10265000CF911F910F91FF90EF90DF90CF90BF909F
:10266000AF909F908F907F906F905F904F90089564
:102670002081281709F4B1CF8F5FAECF1092DF040D
:102680001092F204BECFCF92DF92EF92FF921F938F
:10269000CF93DF93CDB7DEB72C970FB6F894DEBF9C
:1026A0000FBECDBF182F6AE773E0CE0107960E94D8
:1026B000291222E030E050E040E0133081F024E0C5
:1026C00030E042E050E01C3051F026E030E01033C2
:1026D00021F0103FA9F428E030E044E050E06FE33F
:1026E00077E0CE0101960E943A12BE016F5F7F4FE4
:1026F000CE0107960E94C410CE0101960E940F11D0
:10270000CE0107960E94020E6B01CE0107960E9431
:102710000F11C6012C960FB6F894DEBF0FBECDBFC9
:10272000DF91CF911F91FF90EF90DF90CF900895B0
:10273000EF92FF920F931F93CF93DF93CDB7DEB746
:1027400062970FB6F894DEBF0FBECDBF7C018B0140
:1027500077FF03C0119501951109B801C7010E94C7
:10276000DD11083E83E018070CF082C0B801CE01ED
:102770000D960E94DD1160E773E0CE0101960E9484
:102780002912BE016F5F7F4FCE0107960E94201273
:10279000BE01635F7F4FCE0107960E949F11BC016F
:1027A000C7010E940912CE0107960E940F11CE01A7
:1027B00001960E940F11CE010D960E940F11043652
:1027C00011050CF055C0B801CE010D960E94DD1127
:1027D0006FE673E0CE0101960E942912BE016F5F81
:1027E0007F4FCE0107960E942012BE01635F7F4F8C
:1027F000CE0107960E949F11BC01C7010E940912D9
:10280000CE0107960E940F11CE0101960E940F1172
:10281000CE010D960E940F110A3011054CF5B8013A
:10282000CE010D960E94DD116EE673E0CE01019699
:102830000E942912BE016F5F7F4FCE0107960E9452
:102840002012BE01635F7F4FCE0107960E949F1149
:10285000BC01C7010E940912CE0107960E940F1108
:10286000CE0101960E940F11CE010D960E940F110C
:10287000C70162960FB6F894DEBF0FBECDBFDF91E1
:10288000CF911F910F91FF90EF9008950F931F9399
:10289000CF93DF93CDB7DEB762970FB6F894DEBF64
:1028A0000FBECDBF8C0177FF03C071956195710993
:1028B0006A307105A4F5CE010D960E94DD1160E726
:1028C00073E0CE0101960E942912BE016F5F7F4F17
:1028D000CE0107960E942012BE01635F7F4FCE019A
:1028E00007960E949F11BC01C8010E942012CE01D0
:1028F00007960E940F11CE0101960E940F11CE0182
:102900000D960E940F11C80162960FB6F894DEBFB3
:102910000FBECDBFDF91CF911F910F910895C801D8
:102920000E94DD11F0CF0F931F93CF93DF93CDB7AC
:10293000DEB768970FB6F894DEBF0FBECDBF8B0130
:102940008330D9F5209143073091440742E050E0AD
:102950006FE377E0CE010D960E943A12B801CE01E6
:1029600001960E944614BE016F5F7F4FCE0107960D
:102970000E942012BE01635F7F4FCE0107960E9426
:102980009F11BC018FE397E00E940912CE010796C8
:102990000E940F11CE0101960E940F11CE010D96DB
:1029A0000E940F1168960FB6F894DEBF0FBECDBF20
:1029B000DF91CF911F910F9108958C3009F042C0A3
:1029C000209143073091440744E050E06FE377E003
:1029D000CE0143960E943A12B801CE010D960E9494
:1029E000461422E030E050E040E06FE377E0CE01B3
:1029F00001960E943A12BE016F5F7F4FCE0107968B
:102A00000E942012BE01635F7F4FCE0107960E9495
:102A10009F11BE016D5E7F4F0E949F11BC018FE32D
:102A200097E00E940912CE0107960E940F11CE0175
:102A300001960E940F11CE010D960E940F11CE013A
:102A40004396AECF209143073091440746E050E0D3
:102A5000803349F0803F09F0A5CF209143073091A2
:102A6000440748E050E06FE377E0CE0143960E94D0
:102A70003A12B801CE010D960E94461424E030E0CF
:102A8000B2CF0E94CC046093D6047093D704809395
:102A9000D8049093D9048091D504882309F44FC0B9
:102AA0002091D3043091D404C901880F991F223199
:102AB0003105A1F1FC01E25CFE4F408151814150A2
:102AC000510951834083DC01A25CBE4F6D917C9122
:102AD0001197FC01E459FE4F40815181641775073D
:102AE0003CF4FC01E656FE4F408151814D935C93CE
:102AF0002131310509F520916001309161012130CA
:102B00003105B9F420E820932905825C9E4FFC0131
:102B100060817181809139050C9493144091620118
:102B2000509163014C5051095093630140936201ED
:102B3000CACF10922905E9CF2A30310531F708951F
:102B40000E94CC046093D6047093D7048093D80479
:102B50009093D9048091D504882309F444C020912E
:102B6000D3043091D404C901880F991F2231310553
:102B700061F1FC01E25CFE4F408151814F5F5F4F8C
:102B800051834083DC01A25CBE4F6D917C91119713
:102B9000FC01E656FE4F40815181461757073CF431
:102BA000FC01E459FE4F408151814D935C932131EA
:102BB0003105B1F410922905825C9E4FFC016081C1
:102BC0007181809139050C94931440916201509168
:102BD0006301445F5F4F5093630140936201D2CF22
:102BE0002A30310549F708950F931F93CF93DF9350
:102BF000CDB7DEB768970FB6F894DEBF0FBECDBF76
:102C00008C018091620190916301489709F048C05E
:102C10000E947108BC01CE0143960E9446140E9496
:102C20007908BC01CE010D960E9446140E948108CD
:102C3000BC01CE0101960E944614BE016F5F7F4F1A
:102C4000CE0107960E942012BE01635F7F4FCE0126
:102C500007960E949F11BE016D5E7F4F0E949F11DB
:102C6000BC01C8010E942012CE0107960E940F11DC
:102C7000CE0101960E940F11CE010D960E940F11F8
:102C8000CE0143960E940F11C80168960FB6F894C2
:102C9000DEBF0FBECDBFDF91CF911F910F91089581
:102CA0000E947108BC01CE0143960E9446140E9406
:102CB0007908BC01CE010D960E9446140E941807A7
:102CC0000E945E07809194056CE070E0882309F40F
:102CD000B0CF682F70E08D3008F4ABCF6C50710925
:102CE000A8CF8F929F92AF92BF92CF92DF92EF9236
:102CF000FF920F931F93CF93DF93CDB7DEB72C973F
:102D00000FB6F894DEBF0FBECDBF8C016A017B0108
:102D100080911905811111C00E94CC04645B7B4F26
:102D20008F4F9F4F6093150570931605809317057D
:102D30009093180581E08093190580910D0581110C
:102D400009C06BE673E087E095E00E94291281E0FC
:102D500080930D050E94CC04809015059090160577
:102D6000A0901705B0901805681979098A099B0980
:102D7000693E73408105910508F4FDC00E94CC04B2
:102D800060931505709316058093170590931805A9
:102D900020E030E040E251E4C701B6010E943B3040
:102DA0006B017C0120E030E0A9010E94033220E0A9
:102DB00030E040E05FE387FDF7C0C701B6010E9445
:102DC00061310E94CD317B0177FF04C0EE24FF24E6
:102DD000E61AF70A5B0139E1A31A3CEFB30A8091C6
:102DE0006401909165019B012D593F4F69012A555E
:102DF00031094901B701892B09F0DBC0CE010796E3
:102E00000E94DD1160E773E0CE0101960E94291255
:102E1000BE01695F7F4FCE0101960E949F1160E75E
:102E200073E00E948911BC0187E095E00E940912BD
:102E3000CE0101960E940F11CE0107960E940F113C
:102E40003FECA31637E0B30618F5B701CE0107969D
:102E50000E94DD116FE673E0CE0101960E942912F7
:102E6000BE01695F7F4FCE0101960E949F1160E70E
:102E700073E00E948911BC0187E095E00E9409126D
:102E8000CE0101960E940F11CE0107960E940F11EC
:102E900087ECC816D10418F5B701CE0107960E9439
:102EA000DD116EE673E0CE0101960E942912BE018B
:102EB000695F7F4FCE0101960E949F1160E773E02A
:102EC0000E948911BC0187E095E00E940912CE01A1
:102ED00001960E940F11CE0107960E940F1123E167
:102EE0008216910418F5B701CE0107960E94DD11F4
:102EF0006DE673E0CE0101960E942912BE01695F62
:102F00007F4FCE0101960E949F1160E773E00E94FF
:102F10008911BC0187E095E00E940912CE0101965B
:102F20000E940F11CE0107960E940F11809164013B
:102F300090916501892B09F0D3C097E3F92E6CE3DA
:102F400073E0CE0101960E94291267E075E0CE0180
:102F500001960E949F116FE673E00E9489116F2D08
:102F60000E946B11BC0187E095E00E940912CE011E
:102F700001960E940F1167E075E0C8010E942012BF
:102F8000C8012C960FB6F894DEBF0FBECDBFDF91FF
:102F9000CF911F910F91FF90EF90DF90CF90BF9056
:102FA000AF909F908F900895C701B6010E94603145
:102FB00008CFCE0107960E94DD1160E773E0CE01D5
:102FC00001960E942912BE01695F7F4FCE010196D2
:102FD0000E949F1160E773E00E948911BC0187E0A5
:102FE00095E00E940912CE0101960E940F11CE01B8
:102FF00007960E940F113FECA31637E0B30638F591
:10300000C7016AE070E00E941432CE0107960E9468
:10301000DD116FE673E0CE0101960E942912BE0118
:10302000695F7F4FCE0101960E949F116FE673E0AA
:103030000E948911BC0187E095E00E940912CE012F
:1030400001960E940F11CE0107960E940F1187EC86
:10305000C816D10438F5C7016AE070E00E94143246
:10306000CE0107960E94DD116EE673E0CE01019657
:103070000E942912BE01695F7F4FCE0101960E9416
:103080009F116FE673E00E948911BC0187E095E013
:103090000E940912CE0101960E940F11CE010796DF
:1030A0000E940F1123E18216910408F03FCFC7015F
:1030B0006AE070E00E941432CE0107960E94DD1192
:1030C0006DE673E0CE0101960E942912BE01695F90
:1030D0007F4FCE0101960E949F116FE673E017CFDC
:1030E00082E3F82E2CCF85ED8093BC0080911506ED
:1030F00090911606A0911706B09118060796A11D8B
:10310000B11D23E0B695A795979587952A95D1F798
:103110002091BC0024FD03C0109213060895409135
:103120001506509116066091170670911806452BEA
:10313000462B472B69F30097A105B10541F02AE220
:103140002A95F1F700C00197A109B109E1CF80915B
:1031500014060C943D090C9401310C94F93088E06C
:1031600090E00E94AD18682F70E089E00E9418047A
:1031700089E090E00E94AD18682F70E086E00E9420
:1031800018048AE090E00E94AD18682F70E083E098
:103190000C94180480912205882341F01092220596
:1031A0008091210580930F010C94AF1808950F931F
:1031B0001F938091600190916101892B09F44BC0AC
:1031C0008091DE048823A9F00E94CC040091DA04E7
:1031D0001091DB042091DC043091DD04601B710B45
:1031E000820B930B693E734081059105A0F110920B
:1031F000DE040E94810820915A0130915B01821700
:10320000930749F50E94790820915C0130915D0196
:103210008217930701F50E94710820915E01309199
:103220005F0182179307B9F40E94CA180E94CC0468
:103230006093DA047093DB048093DC049093DD04E4
:1032400081E08093DE0480910D0190910E019093B6
:10325000B3058093B2051F910F9108958F929F92AD
:10326000AF92BF92CF92DF92EF92FF920F931F9394
:10327000CF93DF93CDB7DEB7EC970FB6F894DEBFF0
:103280000FBECDBF80914504811107C00E94810807
:103290008093440481E0809345048091D50481119A
:1032A00029C00091440410E00E9481080817190702
:1032B00009F10E948108809344040E9481082091B2
:1032C0006801309169018217930749F481E0809386
:1032D000220580910F018093210510920F010E9419
:1032E000810820916A0130916B018217930711F4D4
:1032F0000E94CA180E94CC0420E137E240E050E06E
:103300000E942832672B682B692B01F58091BE053E
:103310008823E1F00E94860DE090BC05F090BD0589
:103320000091BA051091BB052091B8053091B905FF
:103330004091BF055091C0056091B6057091B705E9
:103340008091B4059091B5050E943C061092CC0482
:103350001092CB041092CA041092C9041092C804AF
:103360001092C7040091B2051091B305F801808155
:10337000882309F409C10E94CC04C0905304D09062
:103380005404E0905504F09056046C197D098E09A0
:103390009F09C0904F04D0905004E0905104F090E9
:1033A0005204C616D706E806F90608F0EDC00E94DA
:1033B000CC044B015C018092530490925404A0927F
:1033C0005504B0925604680130E020E04AE0F8016C
:1033D000F1908F0180ED8F0D8A3070F4429FC00113
:1033E000439F900D11242F2DFF0C330B20533109D7
:1033F000280F391F6F01EBCF3093D2042093D104F3
:103400006091CD047091CE048091CF049091D0044E
:103410002115310501F1032E000C440B550B0E94C0
:103420004A3220934F0430935004409351045093F8
:103430005204EFE9EF0DE730A0F40E2E000CFF0B65
:10344000EC5DF54E0C946932341D361D281D2C1D83
:103450002E1D301D321D20910B0130E050E040E068
:10346000DECF10924E04F6018181833241F48091C7
:103470004E048F5F80934E0486010E5F1F4FF8014C
:1034800080818E32F1F4C0904F04D0905004E090CF
:103490005104F0905204C701B60122E030E040E050
:1034A00050E00E944A32C20ED31EE41EF51EC092A6
:1034B0004F04D0925004E0925104F09252040F5FF6
:1034C0001F4FF801808180538A3008F0D1C2809369
:1034D0004D040F5F1F4FF80180818C3211F40F5F94
:1034E0001F4FE0914E04EE2309F44EC0C0904F04EC
:1034F000D0905004E0905104F090520480914D041B
:103500008450990B4CE0489F9001499F300D112445
:10351000E20FF32FF11DEE0FFF1FEA51FE4FB7012F
:10352000A601808191810E9452020E94CC046819F8
:1035300079098A099B09C616D706E806F90620F517
:103540000E94CC04609353047093540480935504F8
:103550009093560480914A06813009F48EC28230DD
:1035600009F491C2811105C080916E008D7F809316
:103570006E0060E0809149060E94E80188E690E0D4
:103580000E94EB0510E000E01093B3050093B20534
:103590000E94CC040091C3041091C4042091C5047E
:1035A0003091C604601B710B820B930B6630710562
:1035B00081059105E8F080910F0181116AC270E0E8
:1035C00060E089E00E94180470E060E086E00E94FC
:1035D000180470E060E083E00E9418040E94CC04AC
:1035E0006093C3047093C4048093C5049093C6048D
:1035F0008091D3049091D404892B21F08091C2044E
:103600008111DBC18091D5048111D7C180916D04F6
:1036100081110DC00E94CC046093690470936A0408
:1036200080936B0490936C0481E080936D0480918F
:10363000610481110DC00E94CC0460935D047093FD
:103640005E0480935F049093600481E08093610442
:103650000E94CC040091690410916A0420916B04CB
:1036600030916C04601B710B820B930B0091000175
:1036700010910101209102013091030106171707F3
:103680002807390708F04DC00E94CC0460936904F4
:1036900070936A0480936B0490936C0480915B0434
:1036A00090915C04009709F060C281E090E09093F3
:1036B000D4048093D30488E893E1A0E0B0E0809341
:1036C000000190930101A0930201B0930301809146
:1036D0005B0490915C048230910581F41092D404D3
:1036E0001092D30440E65AEE60E070E0409300018F
:1036F000509301016093020170930301019683309E
:1037000091050CF053C290935C0480935B0480910C
:10371000C204882321F01092D4041092D304109292
:10372000C2040E94CC040091690410916A042091A3
:103730006B0430916C04601B710B820B930B603D2A
:1037400077408105910508F003C30E94CC040091E5
:103750005D0410915E0420915F0430916004601B51
:10376000710B820B930B653671058105910508F489
:1037700024C10E94CC0460935D0470935E04809326
:103780005F04909360048091D3049091D4042091BD
:10379000A905222309F40FC2892B89F5CE01499688
:1037A0000E94F41581E02091640130916501232B82
:1037B00009F480E00E94590BAB01BC01CE010196D7
:1037C0000E947116AE01475E5F4FBE016F5F7F4F73
:1037D000CE014F960E948612BE01615E7F4F8FE33D
:1037E00097E00E94C410CE014F960E940F11CE01A7
:1037F00001960E940F11CE0149960E940F118091EF
:10380000D3049091D404019709F062C00E94570834
:1038100068EE73E00E941432BC01CE018B960E94C8
:1038200046140E946108BC01CE0185960E94461490
:103830000E946908BC01CE0149960E944614BE014F
:10384000675E7F4FCE014F960E942012BE016B5DD6
:103850007F4FCE014F960E949F11BE01655D7F4F45
:103860000E949F11BC01CE01C1960E942012CE0180
:1038700001960E94F415AE014F5C5F4FBE016F5F71
:103880007F4FCE01C7960E948612BE01695C7F4FB2
:103890008FE397E00E94C410CE01C7960E940F11DB
:1038A000CE0101960E940F11CE01C1960E940F1108
:1038B000CE014F960E940F11CE0149960E940F1122
:1038C000CE0185960E940F11CE018B960E940F119A
:1038D0008091D3049091D404049709F06EC081E0E4
:1038E0002091640130916501232B09F480E00E944E
:1038F000590BAB01BC01CE01C1960E9471160E940A
:10390000570868EE73E00E941432BC01CE01859620
:103910000E9446140E946108BC01CE014F960E948D
:1039200046140E946908BC01CE0101960E9446140B
:10393000BE016F5F7F4FCE0149960E942012BE01EB
:10394000615E7F4FCE0149960E949F11BE016B5D63
:103950007F4F0E949F11BC01CE018B960E942012C6
:10396000AE014F5C5F4FBE01655D7F4FCE01C796D4
:103970000E948612BE01695C7F4F8FE397E00E9430
:10398000C410CE01C7960E940F11CE018B960E94E3
:103990000F11CE0149960E940F11CE0101960E948F
:1039A0000F11CE014F960E940F11CE0185960E94F5
:1039B0000F11CE01C1960E940F110E940D0E86E2DA
:1039C00097E00E9489088DE097E00E94890884EFC3
:1039D00096E00E9489088091D5048111BCC11092A3
:1039E00039058091260790912707181619063CF093
:1039F0008091CB049091CC04019709F07BC381E0C6
:103A00008093C2041092B3051092B20544E650E0D0
:103A100060E070E088EE93E00E94520280912205FF
:103A2000882309F4C5C10E94CA18EC960FB6F89411
:103A3000DEBF0FBECDBFDF91CF911F910F91FF90E1
:103A4000EF90DF90CF90BF90AF909F908F900895B0
:103A500081E080934E0407CD83E0FBCF85E0F9CF72
:103A600086E0F7CF88E0F5CF8AE0F3CF8CE0F1CFA6
:103A700080910A0180934D042ECD80916F008D7F3F
:103A800080936F0076CD809170008D7F8093700061
:103A900070CD8091C1058111A1CD00915904109183
:103AA0005A04F801EE0FFF1FE00FF11FDF01AA0F0C
:103AB000BB1FA85BBD4F8D919C91609106017091D9
:103AC0000701680F791F7093070160930601DF01FA
:103AD000AA0FBB1FA65BBD4FCD90DC908091B804B0
:103AE0009091B904C80ED91ED092B904C092B804FE
:103AF000EE0FFF1FE45BFD4FE080F1808091B60484
:103B00009091B704E80EF91EF092B704E092B60463
:103B100089E00E941804B60186E00E941804B701EB
:103B200083E00E94180480915704909158040196F4
:103B300090935804809357048F3F910551F40F5F81
:103B40001F4F10935A040093590410925804109276
:103B500057048091590490915A0406970CF43ECD75
:103B600010925A041092590439CD019709F0AFCD43
:103B700084E090E09093D4048093D30488E893E1A8
:103B8000A0E0B0E08093000190930101A0930201B6
:103B9000B09303018091A90581110C945B2682E00A
:103BA00090E090935C0480935B0491CD10925C0450
:103BB00010925B04ACCD892B09F062C0CE01C19696
:103BC0000E94F4150E94570868EE73E00E941432B8
:103BD000BC01CE0185960E9446140E946108BC017A
:103BE000CE014F960E9446140E946908BC01CE0186
:103BF00001960E944614BE016F5F7F4FCE01499629
:103C00000E942012BE01615E7F4FCE0149960E9444
:103C10009F11BE016B5D7F4F0E949F11BC01CE01C1
:103C20008B960E942012AE014F5C5F4FBE01655D16
:103C30007F4FCE01C7960E948612BE01695C7F4FFE
:103C40008FE397E00E94C410CE01C7960E940F1127
:103C5000CE018B960E940F11CE0149960E940F1142
:103C6000CE0101960E940F11CE014F960E940F11B6
:103C7000CE0185960E940F11CE01C1960E940F11B0
:103C80008091D3049091D404019709F096CE0E94BC
:103C9000570868EE73E00E941432BC01CE018B9687
:103CA0000E9446140E946108BC01CE0185960E94C4
:103CB00046140E946908BC01CE0149960E94461430
:103CC000BE01675E7F4FCE014F960E942012BE015B
:103CD0006B5D7F4FCE014F960E949F11BE01655DC7
:103CE0007F4F0E949F11BC01CE01C1960E942012FD
:103CF000CE0101960E94F415AE014F5C5F4FBE01EC
:103D00006F5F7F4FCE01C7960E948612BE01695C2D
:103D10007F4F8FE397E00E94C410CE01C7960E94A8
:103D20000F11CE0101960E940F11CE01C1960E9483
:103D30000F11CE014F960E940F11CE0149960E949D
:103D40000F11CE0185960E940F11CE018B9633CEB6
:103D50001092F20432CE0E94CC040091D60410914D
:103D6000D7042091D8043091D904601B710B820BC9
:103D7000930B61367A4E8105910508F432CE10928C
:103D8000D504E091D304F091D404EE0FFF1FE85363
:103D9000FD4F808191819093D4048093D304880F48
:103DA000991FFC01E05FFE4F80818093390519CE99
:103DB0000E94CC046093D6047093D7048093D804F7
:103DC0009093D9048091D3049091D40401968530C6
:103DD000910509F46DC09093D4048093D30480912D
:103DE000D3049091D404079721F41092D404109234
:103DF000D3042091D3043091D4048901000F111F02
:103E0000F801E05FFE4F808180933905D901119759
:103E1000FD01EE0FFF1FE656FD4F608171816115B8
:103E2000710509F458C1AB0141505109FA01EE0F77
:103E3000FF1FE459FD4F0190F081E02DAE17BF0741
:103E400009F049C162307105B1F588E1EEECF1E0AD
:103E5000DE01119601900D928A95E1F7809158014B
:103E60009091590183709927892B21F48DE190E07D
:103E70009C838B8380915601909157010197880F05
:103E8000991FE1E0F0E0EC0FFD1F8E0F9F1F2091C6
:103E9000540130915501FC01808191818217930773
:103EA00054F48BE090E09093D4048093D304BDCD80
:103EB00086E090E090CF1092D5045093D4044093C4
:103EC000D304452BB9F40E9457087C010E94610875
:103ED0008C010E94690840915001509151016091FC
:103EE0004E0170914F019C0180914C0190914D01C8
:103EF0000E943C068091D3049091D4040197F9F478
:103F0000E0905801F090590100915601109157012D
:103F100080905401909055010E9471085C010E94AC
:103F200079086C010E9481089401A501B6010E94E4
:103F30003C06609152018DE090E00E94AB188091A8
:103F4000D3049091D4040297C1F460915A0182E0A5
:103F500090E00E94AB1860915C0183E090E00E94C9
:103F6000AB1860915E0184E090E00E94AB18609114
:103F7000600186E090E00E94AB188091D30490919C
:103F8000D404039731F46091620181E090E00E94D3
:103F9000AB188091D3049091D404049731F46091CC
:103FA00064018BE090E00E94AB188091D304909163
:103FB000D404059749F46091660180919401681BCF
:103FC0008CE090E00E94AB188091D3049091D404CF
:103FD000069761F4609168018EE090E00E94AB1852
:103FE00060916A018FE090E00E94AB180E94570830
:103FF00068EE73E00E941432082F0E946108F82EC8
:104000000E946908E82E0E947108B82E0E94790863
:10401000C82E0E948108D82E80910C010E948C012C
:1040200060E088EE96E00E949C0A1AE08B2D612FDA
:104030000E9408328295807F682F690F88EE96E093
:104040000E949C0A8C2D612F0E9408328295807FED
:10405000682F690F88EE96E00E949C0A8D2D612FD3
:104060000E9408328295807F682F690F88EE96E063
:104070000E949C0A61E088EE96E00E949C0A8E2DC8
:10408000612F0E9408328295807F682F690F88EE29
:1040900096E00E949C0A8F2D612F0E940832829523
:1040A000807F682F690F88EE96E00E949C0A802F1F
:1040B000612F0E9408328295807F682F690F88EEF9
:1040C00096E00E949C0A60E088EE96E00E949C0ABE
:1040D0000E945E09AACC2431310561F02A503109D1
:1040E0002230310538F00E944313F801E25CFE4FA4
:1040F00091838083809126079091270797FD07C0C1
:104100008091CB049091CC04019609F0F4C044E670
:1041100050E060E070E088EE93E00E9452028091EF
:10412000D504811152C00091D3041091D4040E948F
:10413000CC046093D6047093D7048093D8049093F2
:10414000D904012B09F041C00E947108BC01CE01C5
:1041500085960E9446140E947908BC01CE014F96B4
:104160000E9446140E948108BC01CE0101960E9463
:104170004614BE016F5F7F4FCE0149960E94201208
:10418000BE01615E7F4FCE0149960E949F11BE0124
:104190006B5D7F4F0E949F1161E473E00E94891163
:1041A000BC018FE397E00E940912CE0149960E945C
:1041B0000F11CE0101960E940F11CE014F960E9461
:1041C0000F11CE0185960E940F118091D30490911A
:1041D000D404019709F056C00E94690890935501D4
:1041E000809354010E946108909357018093560177
:1041F0000E945708BC019093590180935801809107
:10420000520190915301892B09F0A4C1CE018596EA
:104210000E9446146091560170915701CE014F964D
:104220000E9446146091540170915501CE0101968F
:104230000E944614BE016F5F7F4FCE0149960E94D7
:104240002012BE01615E7F4FCE0149960E949F11F0
:10425000BE016B5D7F4F0E949F11BC018FE397E011
:104260000E940912CE0149960E940F11CE010196BB
:104270000E940F11CE014F960E940F11CE0185961C
:104280000E940F11E091D304F091D404EE0FFF1FB0
:10429000E853FD4F208131813093D4042093D3041F
:1042A0002E30310549F481E090E0909361018093D4
:1042B000600180E8809329058091D50491E08927E9
:1042C0008093D5048901000F111FF801E05FFE4FB4
:1042D000808180933905A90143515109423051052C
:1042E00050F02A30310539F00E944313F801E25CA6
:1042F000FE4F9183808380910D0790910E07009768
:1043000009F039C18091C9049091CA04019701F55F
:1043100081E08093C2041092B3051092B20544E686
:1043200050E060E070E088EE93E00E9452028091DD
:104330002205811178CB0E94A0158091D5048111AE
:1043400007C01092C10560E087E090E00E94AB18C2
:104350008091C0049091C104019609F015C180912B
:104360000F07882309F410C110923B058091D504F2
:104370008823F9F00E94CC040091BC041091BD0484
:104380002091BE043091BF04601B710B820B930B14
:10439000673971058105910560F00E94CC04609336
:1043A000BC047093BD048093BE049093BF040E942C
:1043B000A0158091F4069091F506009709F0E8C0E9
:1043C0008091C7049091C804019791F511E0109372
:1043D000C2041092B3051092B20544E650E060E0CA
:1043E00070E088EE93E00E945202809122058111D4
:1043F0001ACB0E9441158091D504811119C01093E8
:10440000C10561E087E090E00E94AB186091060171
:1044100088E090E00E94AB186091B80489E090E0D9
:104420000E94AB186091B6048AE090E00E94AB183D
:104430008091BA049091BB04019609F0B2C08091BA
:10444000F606882309F4ADC08091D50410923A0590
:10445000882321F10E94CC040091B2041091B3048E
:104460002091B4043091B504601B710B820B930B47
:10447000673971058105910508F449C00E94CC0493
:104480006093B2047093B3048093B4049093B50422
:104490000E9441158091D504811139C080910D078A
:1044A00090910E0797FD06C08091C9049091CA04AF
:1044B000019691F444E650E060E070E088EE93E00D
:1044C0000E94520281E080930F0161E090E080E061
:1044D0000E94AB180E94AF188091F4069091F506E7
:1044E00097FD06C08091C7049091C804019679F4A5
:1044F00044E650E060E070E088EE93E00E945202F3
:1045000010920F0160E090E080E00E94AB18E09113
:10451000D304F091D404E731F10508F086CAED56D2
:10452000FD4D0C946932D522BA23B224FE242A25EB
:104530006F252726151D151D151DA025C925C92563
:10454000C925151D151D151D151D151D2A256F25A0
:1045500027262726CE0185960E9446146091540195
:1045600070915501CE014F960E94461460915601FC
:10457000709157015BCE9093C1048093C0041816CC
:1045800019060CF4C5CEBECE81E080933B0511CF59
:104590009093BB048093BA04181619060CF416CF36
:1045A0000FCF81E080933A0575CF8091F20481119D
:1045B000CBC00E947108209104013091050182173F
:1045C000930709F4D0C00E9471089093050180936D
:1045D0000401009164011091650181E0011511054C
:1045E00009F480E00E94590B6B017C0180918704E3
:1045F000811111C00E94CC04645B7B4F8F4F9F4F91
:10460000609383047093840480938504909386045C
:1046100081E08093870480917B04811109C06CE361
:1046200073E085E794E00E94291281E080937B0487
:104630000E94CC048090830490908404A090850410
:10464000B0908604681979098A099B09693E73400C
:104650008105910508F444C00E94CC046093830452
:10466000709384048093850490938604012B09F051
:1046700073C017E320E030E0A901C701B6010E9432
:10468000033220E030E040E05FE387FD67C0C70110
:10469000B6010E9461310E94CD3124E630E040E055
:1046A00050E00E944A32CE0149960E944614BE0153
:1046B000675E7F4FCE0101960E942012612FCE01CE
:1046C00001960E946B11BC0185E794E00E940912DB
:1046D000CE0101960E940F11CE0149960E940F1142
:1046E00065E774E0CE0101960E942012CE014F963C
:1046F0000E94F415BE01615E7F4FCE0149960E9473
:104700002012BE016F5F7F4FCE0149960E949F111C
:10471000BC01CE0185960E942012CE0149960E94CE
:104720000F11CE014F960E940F11CE0101960E94EB
:104730000F11BE016B5D7F4F8FE397E00E94C410A5
:10474000CE0185960E940F110E94710880FD7CC1E8
:1047500080EC809329057AC112E38CCFC701B601A2
:104760000E94603198CF6FE377E0CE0185960E947A
:104770002012DFCF8091F2048111E1C08091AA0460
:10478000811111C00E94CC0467517C4F8F4F9F4F05
:104790006093A6047093A7048093A8049093A9043F
:1047A00081E08093AA0480919E04811144C00E94FC
:1047B000570868EE73E00E941432BC01CE010196E6
:1047C0000E9446140E946108BC01CE0149960E94D5
:1047D00046140E946908BC01CE0185960E944614C9
:1047E000BE016B5D7F4FCE014F960E942012BE012D
:1047F000675E7F4FCE014F960E949F11BE016F5F93
:104800007F4F0E949F11BC0188E994E00E94201212
:1048100081E080939E04CE014F960E940F11CE013D
:1048200085960E940F11CE0149960E940F11CE016C
:1048300001960E940F110091520110915301809135
:104840009004811105C000938F0481E0809390044F
:104850000E94CC04C090A604D090A704E090A804C5
:10486000F090A9046C197D098E099F09693E734077
:104870008105910530F480918F048017110609F4A9
:104880004DC00E94CC046093A6047093A70480934B
:10489000A8049093A904012B09F053C00E94570863
:1048A000BC01CE0101960E9446140E946108BC0121
:1048B000CE0149960E9446140E946908BC01CE01AF
:1048C00085960E944614BE016B5D7F4FCE014F96C8
:1048D0000E942012BE01675E7F4FCE014F960E945C
:1048E0009F11BE016F5F7F4F0E949F1169E30E947D
:1048F0006B11BC0188E994E00E940912CE014F9629
:104900000E940F11CE0185960E940F11CE0149968B
:104910000E940F11CE0101960E940F1168E974E008
:10492000CE0101960E942012BE016F5F7F4F8FE380
:1049300097E00E94C410CE0101960E940F1180E4FE
:1049400008CF0E945708BC01CE0101960E94461470
:104950000E946908BC01CE0149960E9446140E943B
:104960006108ACCF60915E0170915F01CE018596C8
:104970000E94461460915C0170915D01CE014F96DA
:104980000E94461460915A0170915B01CE0101961C
:104990000E944614BE016F5F7F4FCE0149960E9470
:1049A0002012BE01615E7F4FCE0149960E949F1189
:1049B000BE016B5D7F4F0E949F1161E473E00E9416
:1049C0008911BC018FE397E00E940912CE0149963C
:1049D0000E940F11CE0101960E940F11CE014F9639
:1049E0000E940F11CE0185960E940F1180916001E7
:1049F00090916101019741F580E8ABCE6091620131
:104A000070916301CE0149960E94DD116FE673E05B
:104A1000CE0101960E942912BE01675E7F4FCE0132
:104A200001960E949F116FE373E00E948911BC01FF
:104A30008FE397E00E940912CE0101960E940F11A8
:104A4000CE0149960E940F11109229050E94D71895
:104A50000C94151D8091F204811124C081E02091F5
:104A6000640130916501232B09F480E00E94590B09
:104A7000AB01BC01CE0101960E947116BE016F5FB1
:104A80007F4F8FE397E00E94C410CE0101960E94F1
:104A90000F118091640190916501892BD9F480E414
:104AA0008093290581E02091640130916501232BD9
:104AB00009F480E00E94590B1091290520E030E0B4
:104AC000A9010E94D52F87FF08C0106810932905FF
:104AD0000C94151D10922905E5CF1F77F7CF609133
:104AE000660170916701CE0101960E944614BE01D5
:104AF0006F5F7F4FCE0149960E9420126DE373E0F5
:104B0000CE0149960E948911BC018FE397E00E9473
:104B10000912CE0149960E940F11CE0101960E9402
:104B20000F11809166019091670197FD04C010926A
:104B300029050C94151D80E8809329050C94151DFA
:104B40008091520190915301892BA1F465E473E0A7
:104B50008FE397E00E94D31183E090E090932701C8
:104B6000809326018CE090E09093290180932801A6
:104B70000C94151D6FE473E08FE397E00E94D3114E
:104B80008CE090E0909327018093260183E090E0F1
:104B9000EBCF609158017091590180915201909131
:104BA0005301892B09F042C0CE0185960E949813CB
:104BB0006091560170915701CE014F960E944614A4
:104BC0006091540170915501CE0101960E944614E6
:104BD000BE016F5F7F4FCE0149960E942012BE0139
:104BE000615E7F4FCE0149960E949F11BE016B5DB1
:104BF0007F4F0E949F1163E473E00E948911BC0102
:104C00008FE397E00E940912CE0149960E940F118E
:104C1000CE0101960E940F11CE014F960E940F11F6
:104C2000CE0185960E940F110C94151DCE0185961C
:104C30000E9498136091540170915501CE014F96D6
:104C40000E9446146091560170915701BDCF60914A
:104C50006A0170916B01CE014F960E9446146091DB
:104C6000680170916901CE0101960E944614BE014F
:104C70006F5F7F4FCE0149960E942012BE01615E98
:104C80007F4FCE0149960E949F1169E573E00E9413
:104C90008911BC018FE397E00E940912CE01499669
:104CA0000E940F11CE0101960E940F11CE014F9666
:104CB0000E940F113CCF81E090E00C947E1B1F926C
:104CC0000F920FB60F9211242F933F938F939F93C0
:104CD000AF93BF938091C3059091C405A091C50582
:104CE000B091C6053091C20523E0230F2D3758F54A
:104CF0000196A11DB11D2093C2058093C305909319
:104D0000C405A093C505B093C6058091C7059091D1
:104D1000C805A091C905B091CA050196A11DB11D94
:104D20008093C7059093C805A093C905B093CA05A1
:104D3000BF91AF919F918F913F912F910F900FBE97
:104D40000F901F90189526E8230F0296A11DB11D04
:104D5000D2CF1F920F920FB60F9211242F933F9331
:104D60004F935F936F937F938F939F93AF93BF9373
:104D7000EF93FF938BE496E00E946105FF91EF9122
:104D8000BF91AF919F918F917F916F915F914F9163
:104D90003F912F910F900FBE0F901F9018951F926B
:104DA0000F920FB60F9211242F938F939F93EF932F
:104DB000FF93E0915B06F0915C068081E0916106D3
:104DC000F091620682FD1BC09081809164068F5F26
:104DD0008F7320916506821741F0E0916406F0E040
:104DE000E55BF94F958F80936406FF91EF919F915A
:104DF0008F912F910F900FBE0F901F90189580816B
:104E0000F4CF1F920F920FB60F9211242F933F935E
:104E10008F939F93AF93BF93EF93FF9380913D0642
:104E200090913E06A0913F06B09140060097A105E3
:104E3000B10531F130919D05E0919E05F0919F05FE
:104E4000208123272083181619061A061B061CF436
:104E50000197A109B10980933D0690933E06A09366
:104E60003F06B0934006FF91EF91BF91AF919F91A4
:104E70008F913F912F910F900FBE0F901F9018951B
:104E8000209170002D7F2093700020919D05E0916E
:104E90009E05F0919F053081209523232083DBCF51
:104EA0001F920F920FB60F9211248F939F93AF937F
:104EB000BF93EF93FF938091410690914206A0919A
:104EC0004306B0914406892B8A2B8B2BA1F190913C
:104ED000A005E091A105F091A2058081892780833A
:104EE0008091410690914206A0914306B0914406FC
:104EF000181619061A061B069CF48091410690911B
:104F00004206A0914306B09144060197A109B10958
:104F10008093410690934206A0934306B0934406C3
:104F2000FF91EF91BF91AF919F918F910F900FBE25
:104F30000F901F90189580916F008D7F80936F0068
:104F40008091A005E091A105F091A2059081809546
:104F500089238083E5CF1F920F920FB60F92112401
:104F60008F939F93AF93BF93EF93FF9380914506E9
:104F700090914606A0914706B0914806892B8A2B4E
:104F80008B2BA1F19091A305E091A405F091A505CB
:104F90008081892780838091450690914606A09163
:104FA0004706B0914806181619061A061B069CF407
:104FB0008091450690914606A0914706B09148061B
:104FC0000197A109B1098093450690934606A093E5
:104FD0004706B0934806FF91EF91BF91AF919F9123
:104FE0008F910F900FBE0F901F90189580916E00BB
:104FF0008D7F80936E008091A305E091A405F091D0
:10500000A5059081809589238083E5CF1F920F921B
:105010000FB60F9211242F933F934F935F936F938B
:105020007F938F939F93AF93BF93EF93FF93809161
:10503000B900887F803609F44AC0F0F5883209F457
:10504000A7C018F5803109F49BC0B8F4882309F48F
:10505000F9C0883009F494C0FF91EF91BF91AF91EE
:105060009F918F917F916F915F914F913F912F9180
:105070000F900FBE0F901F901895883109F488C0CB
:10508000803251F78093110614C0803409F49DC01A
:1050900040F48033B9F38833F9F68093110685EC38
:1050A000B0C0803509F485C0883509F496C08834CD
:1050B00099F60E947318D0CF883909F48CC038F55E
:1050C000883729F050F4883611F0803729F683E0CC
:1050D0008093130610927F0557C0883809F47BC06F
:1050E000803919F0803809F0B7CF80917F05803280
:1050F00008F071C0E0917F0581E08E0F80937F05FD
:105100008091BB00F0E0E15AFA4F80833DC0803BC4
:1051100039F0E0F4803A09F479C0883A09F09CCF7C
:1051200084E08093130610925E0510925D05E09175
:105130009B05F0919C05099580915D0581110FC03B
:1051400081E080935D0510923D0509C0803C09F423
:10515000A6CF883C09F4A3CF883B09F07DCFE0912E
:105160005E0581E08E0F80935E05F0E0E35CFA4F10
:1051700080818093BB0090915E0580915D0529C080
:105180008091EE058093BB0085EC8093BC0064CFDA
:105190009091100680910F06981758F5E09110062F
:1051A00081E08E0F80931006F0E0E151FA4F80818C
:1051B000E9CFE091100681E08E0F80931006809178
:1051C000BB00F0E0E151FA4F80839091100680918E
:1051D0000F069817C8F285E8D8CFE091100681E055
:1051E0008E0F809310068091BB00F0E0E151FA4FE2
:1051F00080838091120681115CCF81E08093ED0560
:1052000084EA8093BC001092130626CF85EC80932D
:10521000BC001092130680917F05803230F4E0913B
:105220007F05F0E0E15AFA4F108260917F0570E04F
:10523000E0919905F0919A058FE595E00995109216
:105240007F050ACF1092110634CFCF93DF93EC0184
:10525000862F6F87188A91E0998B9A8B1C8A1B8AFC
:10526000198218821A821D8A1E8A1F8A188E44E1AA
:1052700050E060E070E04B835C836D837E834AEF97
:1052800050E060E070E04F83588769877A8748EE86
:1052900053E060E070E04B875C876D877E8760E05D
:1052A0000E9416028889811106C061E08F85DF9116
:1052B000CF910C94E801DF91CF910895EBE4F6E0F3
:1052C0001382128288EE93E0A0E0B0E0848395839D
:1052D000A683B7832AE133E03183208325EC30E0D5
:1052E0003587248724EC30E03787268720EC30E0B0
:1052F000318B208B21EC30E0338B228B22EC30E0A1
:10530000358B248B26EC30E0378B268B118E128E5A
:10531000138E148EE8EEF6E0138212828483958356
:10532000A683B7838CE293E0918380836FE573E07B
:1053300083E597E00E94291260E087E00E94160250
:10534000EDE3F1E0E491A5E4B7E0EC93E9E2F1E00C
:10535000E491F0E0EE0FFF1FE85EFE4F859194911F
:1053600012969C938E9311971B961C921B971D96D9
:105370001C921D971C961C921C971A961C921A97A9
:1053800019961C92199718961C92189717961C92AA
:10539000179716961C92169715961C9215971496A9
:1053A0001C92149713961C926BE673E08FE397E0C0
:1053B0000E9429126EE086E297E00E94252960E1B2
:1053C0008DE097E00E9425296FE084EF96E00C9431
:1053D0002529CF93DF93CDB7DEB7CE54D1090FB6D1
:1053E000F894DEBF0FBECDBF789484B5826084BDD3
:1053F00084B5816084BD85B5826085BD85B58160D9
:1054000085BD80916E00816080936E001092810056
:105410008091810082608093810080918100816011
:1054200080938100809180008160809380008091D2
:10543000B10084608093B1008091B000816080935E
:10544000B00080917A00846080937A0080917A0025
:10545000826080937A0080917A00816080937A00E4
:1054600080917A00806880937A001092C100109237
:10547000CC051092CB0510921A0610923C060E94A1
:105480001F0988ED94E090939C0580939B0589ED1E
:1054900094E090939A0580939905E0915B06F091D2
:1054A0005C0682E08083E0915706F09158061082F6
:1054B000E0915906F0915A0680E1808310926306CC
:1054C000E0915F06F091600686E08083E0915D06E2
:1054D000F0915E06808180618083E0915D06F091AD
:1054E0005E06808188608083E0915D06F0915E06B3
:1054F000808180688083E0915D06F0915E06808106
:105500008F7D808383E398E09093B5018093B4010D
:1055100081EE97E0909387018093860190935901E3
:105520008093580180EF90E090932B0180932A01A3
:1055300081E090E00E94AD188C3009F4B8C188E198
:1055400090E0909363018093620190E080E00E947C
:10555000AD18882309F4AEC181E080930F0182E089
:1055600090E00E94AD188F3F09F0A7C110925B0137
:1055700010925A0183E090E00E94AD188F3F09F02D
:10558000A2C110925D0110925C0184E090E00E9443
:10559000AD188F3F09F09DC110925F0110925E011E
:1055A00086E090E00E94AD188F3F09F098C11092FC
:1055B00061011092600187E090E00E94AD188F3F7A
:1055C00009F093C11092C1058BE090E00E94AD18E4
:1055D0008F3F09F091C110926501109264018CE037
:1055E00090E00E94AD188F3F59F0209194013091C6
:1055F0009501820F932F911D90936701809366010F
:105600008DE090E00E94AD188F3F29F090E09093DC
:105610005301809352018EE090E00E94AD188F3FBD
:1056200029F090E090936901809368018FE090E009
:105630000E94AD188F3F29F090E090936B0180930A
:105640006A0161E089E00E94160261E086E00E9442
:10565000160261E083E00E9416028091A605833065
:1056600008F0BFC192E090934906E82FF0E0E158BE
:10567000FF4FE491E0934A068F5F8093A605E130E7
:1056800009F461C108F43EC1E23009F483C180919C
:105690000D0190910E010E94240C90930E018093B5
:1056A0000D0161E08AE00E94160262E088E00E943B
:1056B000160288E00E94BF0121E0892B09F020E05A
:1056C0002093A8051FB7F8948091A705811127C0E2
:1056D000ECE2F1E08491E0E4F1E09491E82FF0E075
:1056E000EE0FFF1FE051FF4FA591B491EC91E9231C
:1056F00021F461E08AE00E94E80161E08AE00E9412
:1057000016028CB580618CBD8CB580648CBD61E067
:105710008DE00E94160261E08BE00E9416028091EB
:10572000A7058F5F8093A7051FBF8091A8058823D9
:1057300009F45BC189E791E00E94D10062E08EE04C
:105740000E94160262E080E10E94160262E08FE091
:105750000E94160261E082E00E94160204E110E05D
:1057600020E030E00093290710932A0720932B07AD
:1057700030932C074EE150E060E070E040932D073D
:1057800050932E0760932F077093300780ED97E0BA
:10579000A0E0B0E08093310790933207A0933307E5
:1057A000B09334070093100710931107209312074A
:1057B000309313074093140750931507609316070F
:1057C000709317078093180790931907A0931A07EF
:1057D000B0931B070093F7061093F8062093F90681
:1057E0003093FA064093FB065093FC066093FD0647
:1057F0007093FE068093FF0690930007A093010725
:10580000B093020781ED90E00E94D00525E030E0E2
:1058100042E050E063E577E0CE0101967C010E9412
:105820003A1222E030E041E050E063E577E0CE015B
:10583000875B9F4F0E943A12BE01675B7F4FCE018C
:105840008D5B9F4F0E94201266E673E0CE018D5B58
:105850009F4F0E948911B7010E949F11FC01448152
:105860005581608171818BE496E00E94DB040E9487
:105870000805CE018D5B9F4F0E940F11CE01875B03
:105880009F4F0E940F11C7010E940F110FEA10E0F5
:1058900042E2D42EDA94DD2009F4A9C0F801649123
:1058A0008BE496E00E9483050F5F1F4FF3CF8CE0DF
:1058B00090E047CE10920F0152CE90E090935B01A2
:1058C00080935A0157CE90E090935D0180935C01E4
:1058D0005CCE90E090935F0180935E0161CE90E09A
:1058E000909361018093600166CE91E0811101C0C7
:1058F00090E09093C10568CE90E09093650180930D
:1059000064016DCE14BC15BC84B5826084BD85B5C0
:10591000816085BD8091490690E0FC01EE5DFE4FFF
:10592000E491F0E0EE0FFF1FE650FF4F2591349118
:105930003093A5052093A405FC01EA5CFE4FE49199
:10594000E093A305A4CE1092800010928100809174
:1059500081008860809381008091810081608093C4
:1059600081008091490690E0FC01EE5DFE4FE491DC
:10597000F0E0EE0FFF1FE650FF4F2591349130937A
:10598000A2052093A105FC01EA5CFE4FE491E0939F
:10599000A0057DCE1092B0001092B1008091B000B1
:1059A00082608093B0008091B10081608093B100EB
:1059B0008091490690E0FC01EE5DFE4FE491F0E03D
:1059C000EE0FFF1FE650FF4F2591349130939F0556
:1059D00020939E05FC01EA5CFE4FE491E0939D0557
:1059E00056CE8FEF80934A0652CE89E5A4CE0E9410
:1059F000080584EA90E00E94EB0580910D019091EA
:105A00000E019093B3058093B2050E94240C6FEFB2
:105A100070E089E00E94180468EE73E080E090E096
:105A20000E949A0470E060E089E00E9418046FEF21
:105A300070E086E00E94180468EE73E080E090E079
:105A40000E949A0470E060E086E00E9418046FEF04
:105A500070E083E00E94180468EE73E080E090E05C
:105A60000E949A0470E060E083E00E94180468E6F7
:105A700073E0C7010E94291262E773E0CE01079626
:105A80000E9429126CE773E0CE010D960E94291244
:105A900066E873E0CE0143960E94291260E973E044
:105AA000CE0149960E9429126AE973E0CE014F9611
:105AB0000E94291264EA73E0CE0185960E942912A1
:105AC0006EEA73E0CE018B960E94291268EB73E0B8
:105AD000CE01C1960E94291262EC73E0CE01C796F6
