:100000000C94B8000C94E0000C94E0000C94E00018
:100010000C94E0000C94E0000C94E0000C94662139
:100020000C94E0000C94E0000C94E0000C94C121CE
:100030000C94E0000C94E0000C9426220C94E00058
:100040000C941C210C94E0000C94641F0C943E1F33
:100050000C94E0000C94E0000C94E0000C94E000A0
:100060000C9475120C94E000A401A6019A019C0165
:100070009E01A001A201FA08E609E00A320B640B16
:10008000B40BA60DA60DA60DE90B110C110C110C4D
:10009000A60DA60DA60DA60DA60D640BB40B496EFC
:1000A000636F727265637420536F6E6720466F7260
:1000B0006D6174210000000000250028002B000263
:1000C000010000000000240027002A0053746F7014
:1000D00020546573740054656D702E2073656E73C3
:1000E0006F72206E6F7420666F756E642E0053748D
:1000F0006172742054657374004669726D77617221
:10010000652076657273696F6E3A20004661756C82
:100110007479204453333233312100445333323322
:10012000315F543D0000000008000201000003049C
:10013000070000000000000000000000002300266F
:10014000002900040404040404040402020202025C
:10015000020303030303030102040810204080018B
:10016000020408102001020408102000AF2CA72C64
:1001700011241FBECFEFD8E0DEBFCDBF27E0A4E241
:10018000B4E001C01D92A932B207E1F714E0A0E08B
:10019000B1E0EAE2F5E602C005900D92A432B107A3
:1001A000D9F710E0C7EBD0E004C02197FE010E9410
:1001B0005A30C63BD107C9F70E9469270C94883290
:1001C0000C9400008F929F92AF92BF92CF92DF92D9
:1001D000EF92FF920F931F93CF93DF93CDB7DEB7CC
:1001E000EC970FB6F894DEBF0FBECDBF0E94E9209A
:1001F00020E137E240E050E00E941930672B682B85
:10020000692B29F48091BA0481110C946D0C109221
:10021000A3041092A2041092A1041092A0041092C0
:100220009F0410929E040091AE041091AF04F80157
:100230008081882309F432C10E94E920C0902A04F9
:10024000D0902B04E0902C04F0902D04DC01CB0125
:100250008C199D09AE09BF09C0902604D0902704CF
:10026000E0902804F0902904C816D906EA06FB0697
:1002700008F014C10E94E9206B017C0160932A04FC
:1002800070932B0480932C0490932D0410924B05B3
:1002900010924A05A8016AE08A01FA01B0804F5F16
:1002A0005F4F80ED8B0D20914A0530914B058A30D0
:1002B00080F4629FF001639FF00D11248B2DBB0C25
:1002C000990BC0978E0F9F1F90934B0580934A0503
:1002D000E3CF609146057091470580914805909164
:1002E00049052115310529F0032E000C440B550B4F
:1002F00005C02091AE0130E040E050E00E943B306C
:100300002093260430932704409328045093290413
:100310008B2DBB0C990BAA0BBB0BFC01E156F10911
:10032000E730F10520F4EC5CFF4F0C945A3010924A
:1003300025040FC081E00BC083E009C085E007C041
:1003400086E005C088E003C08AE001C08CE08093AD
:100350002504F8018181833219F00F5F1F4F07C018
:10036000809125048F5F809325040E5F1F4FF80155
:1003700080818E3201F58090260490902704A09011
:100380002804B0902904C501B40122E030E040E027
:1003900050E00E943B30D501C401820F931FA41F7F
:1003A000B51F8093260490932704A0932804B0934C
:1003B00029040F5F1F4FF801808180538A3028F491
:1003C000809324040F5F1F4F04C08091AD01809380
:1003D000240480912404F80190819C3211F40F5F71
:1003E0001F4F20912504222309F458C08090260431
:1003F00090902704A0902804B090290490E00497DE
:100400003CE0389FF001399FF00D1124E20FF11DFF
:10041000EE0FFF1FE353FE4FB501A40180819181D0
:100420000E94F1230E94E920DC01CB018C199D0977
:10043000AE09BF0988169906AA06BB0678F50E9480
:10044000E92060932A0470932B0480932C049093EA
:100450002D0480910A06813051F0823071F08111B3
:1004600011C080916E008D7F80936E000BC08091D3
:100470006F008D7F80936F0005C0809170008D7F2D
:100480008093700060E0809109060E94BF1F8EE992
:1004900090E00E94FD2590E080E002C0902F812F27
:1004A0009093AE048093AF040E94E92000919A04D7
:1004B00010919B0420919C0430919D04DC01CB01A0
:1004C000801B910BA20BB30B0697A105B10508F495
:1004D00089C080910A01811110C060E070E089E05C
:1004E0000E942B2060E070E086E00E942B2060E0FC
:1004F00070E083E00E942B206BC08091BD048111CD
:1005000067C00091300410913104C801880F991F11
:10051000800F911FFC01EE0FFF1FE15DFD4F609109
:1005200006017091070120813181620F731F709362
:10053000070160930601FC01EE0FFF1FEF5CFD4F0A
:10054000C0908F04D090900420813181C20ED31EC0
:10055000D0929004C0928F04880F991FFC01ED5C2B
:10056000FD4FE0908D04F0908E0480819181E80E23
:10057000F91EF0928E04E0928D0489E00E942B20F7
:10058000B60186E00E942B20B70183E00E942B2059
:1005900080912E0490912F04019690932F048093C4
:1005A0002E048F3F910551F4C801019690933104B8
:1005B0008093300410922F0410922E048091300406
:1005C00090913104069724F0109231041092300477
:1005D0000E94E92060939A0470939B0480939C048A
:1005E00090939D0480914C0590914D05892B21F0AD
:1005F000809199048111D3C280914E058111CFC29F
:100600008091440481110DC00E94E9206093400450
:1006100070934104809342049093430481E080935B
:1006200044048091380481110DC00E94E920609338
:10063000340470933504809336049093370481E03A
:10064000809338040E94E9200091400410914104F5
:100650002091420430914304DC01CB01801B910BBB
:10066000A20BB30B00910001109101012091020136
:1006700030910301081719072A073B0708F06FC0DC
:100680000E94E920609340047093410480934204E7
:10069000909343048091320490913304009799F42D
:1006A00081E090E090934D0580934C0588E893E1BC
:1006B000A0E0B0E08093000190930101A0930201BB
:1006C000B09303011EC00197E1F484E090E09093A1
:1006D0004D0580934C0588E893E1A0E0B0E080935D
:1006E000000190930101A0930201B0930301809156
:1006F000AD04811106C082E090E0909333048093B2
:10070000320480913204909133048230910581F457
:1007100010924D0510924C0540E65AEE60E070E0F4
:100720004093000150930101609302017093030113
:100730000196833091052CF4909333048093320416
:1007400004C01092330410923204809199048823DB
:1007500021F010924D0510924C05109299040E94C0
:10076000E92000914004109141042091420430910D
:100770004304DC01CB01801B910BA20BB30B803D2A
:100780009740A105B10508F008C20E94E920009138
:100790003404109135042091360430913704DC0183
:1007A000CB01801B910BA20BB30B85369105A105E4
:1007B000B10508F4F4C10E94E920609334047093F9
:1007C000350480933604909337042091AD048091D2
:1007D0004C0590914D05222309F410C1892B89F510
:1007E000CE0149960E94491D81E020915701309128
:1007F0005801232B09F480E00E94E017AB01BC01F3
:10080000CE0101960E94D015AE01475E5F4FBE013A
:100810006F5F7F4FCE014F960E943A18BE01615E16
:100820007F4F8FEF96E00E947E0ECE014F960E9482
:100830004C0FCE0101960E944C0FCE0149960E94AA
:100840004C0F80914C0590914D05019709F062C0C5
:100850000E948D1168EE73E00E940530BC01CE014C
:100860008B960E94981B0E949711BC01CE01859621
:100870000E94981B0E949F11BC01CE0149960E94C4
:10088000981BBE01675E7F4FCE014F960E94201FCE
:10089000BE016B5D7F4FCE014F960E946B0EBE0175
:1008A000655D7F4F0E946B0EBC01CE01C1960E9418
:1008B000201FCE0101960E94491DAE014F5C5F4F83
:1008C000BE016F5F7F4FCE01C7960E943A18BE01EE
:1008D000695C7F4F8FEF96E00E947E0ECE01C79637
:1008E0000E944C0FCE0101960E944C0FCE01C19682
:1008F0000E944C0FCE014F960E944C0FCE0149969C
:100900000E944C0FCE0185960E944C0FCE018B9613
:100910000E944C0F80914C0590914D05049709F071
:100920003EC181E02091570130915801232B09F4F9
:1009300080E00E94E017AB01BC01CE01C1960E948D
:10094000D0150E948D1168EE73E00E940530BC0145
:10095000CE0185960E94981B0E949711BC01CE0182
:100960004F960E94981B0E949F11BC01CE010196D8
:100970000E94981BBE016F5F7F4FCE0149960E9477
:10098000201FBE01615E7F4FCE0149960E946B0E13
:10099000BE016B5D7F4F0E946B0EBC01CE018B963A
:1009A0000E94201FAE014F5C5F4FBE01655D7F4F0F
:1009B000CE01C7960E943A18BE01695C7F4F8FEF47
:1009C00096E00E947E0ECE01C7960E944C0FCE018B
:1009D0008B960E944C0FCE0149960E944C0FCE017F
:1009E00001960E944C0FCE014F960E944C0FCE01F3
:1009F00085960E944C0FCE01C196CCC0892B09F080
:100A000062C0CE01C1960E94491D0E948D1168EE00
:100A100073E00E940530BC01CE0185960E94981BB0
:100A20000E949711BC01CE014F960E94981B0E9414
:100A30009F11BC01CE0101960E94981BBE016F5F01
:100A40007F4FCE0149960E94201FBE01615E7F4FFD
:100A5000CE0149960E946B0EBE016B5D7F4F0E94D6
:100A60006B0EBC01CE018B960E94201FAE014F5C25
:100A70005F4FBE01655D7F4FCE01C7960E943A1859
:100A8000BE01695C7F4F8FEF96E00E947E0ECE0123
:100A9000C7960E944C0FCE018B960E944C0FCE0140
:100AA00049960E944C0FCE0101960E944C0FCE0138
:100AB0004F960E944C0FCE0185960E944C0FCE019E
:100AC000C1960E944C0F80914C0590914D05019765
:100AD00009F065C00E948D1168EE73E00E94053038
:100AE000BC01CE018B960E94981B0E949711BC01FD
:100AF000CE0185960E94981B0E949F11BC01CE01D9
:100B000049960E94981BBE01675E7F4FCE014F96AB
:100B10000E94201FBE016B5D7F4FCE014F960E9449
:100B20006B0EBE01655D7F4F0E946B0EBC01CE0156
:100B3000C1960E94201FCE0101960E94491DAE0160
:100B40004F5C5F4FBE016F5F7F4FCE01C7960E9423
:100B50003A18BE01695C7F4F8FEF96E00E947E0ECF
:100B6000CE01C7960E944C0FCE0101960E944C0FF9
:100B7000CE01C1960E944C0FCE014F960E944C0FA1
:100B8000CE0149960E944C0FCE0185960E944C0FD3
:100B9000CE018B960E944C0F02C0109255050E9408
:100BA000A71386EE96E00E94BF118DEC96E00E949E
:100BB000BF1184EB96E00E94BF1180914E05811118
:100BC00003C01092C9042DC00E94E92000914F0576
:100BD000109150052091510530915205DC01CB0157
:100BE000801B910BA20BB30B81369A4EA105B10568
:100BF000C0F010924E05E0914C05F0914D05EE0FBE
:100C0000FF1FED55FD4F8081918190934D0580939D
:100C10004C05880F991FFC01E55FFE4F8081809392
:100C2000C9048091E6069091E706181619063CF073
:100C30008091A2049091A304019709F0A5C081E0DE
:100C4000809399041092AF041092AE0444E650E0F1
:100C500060E070E088EE93E00E94F1230E94E920BA
:100C600060934F0570935005809351059093520502
:100C700080914C0590914D059C012F5F3F4F253091
:100C8000310529F030934D0520934C0505C002969F
:100C900090934D0580934C0580914C0590914D05A6
:100CA000069721F410924D0510924C0520914C05A9
:100CB00030914D058901000F111FF801E55FFE4FCE
:100CC00080818093C904D9011197FD01EE0FFF1FA8
:100CD000E558FD4F608171816115710509F445C0CA
:100CE000AB0141505109FA01EE0FFF1FED5AFD4FC4
:100CF0000190F081E02DEA17FB07B9F5623071052C
:100D000009F009C688E1E5EBF1E0DE0111960190FA
:100D10000D928A95E1F780914B0190914C0183707F
:100D20009927892B21F48DE190E09C838B8320917E
:100D3000470130914801E0914901F0914A01319712
:100D4000EE0FFF1F81E090E08C0F9D1FE80FF91F51
:100D500080819181821793070CF0DDC58AE090E0D5
:100D600090934D0580934C05F1C62331310561F018
:100D7000295031092230310538F00E94FB19F80161
:100D8000ED5CFE4F918380838091E6069091E706AB
:100D900097FD07C08091A2049091A304019609F0E9
:100DA00004C144E650E060E070E088EE93E00E9409
:100DB000F12380914E05811152C00E94E920609379
:100DC0004F05709350058093510590935205809183
:100DD0004C0590914D05892B09F041C00E94A71147
:100DE000BC01CE0185960E94981B0E94AF11BC01E8
:100DF000CE014F960E94981B0E94B711BC01CE01F4
:100E000001960E94981BBE016F5F7F4FCE014996ED
:100E10000E94201FBE01615E7F4FCE0149960E9455
:100E20006B0EBE016B5D7F4F0E946B0E63E173E042
:100E30000E94520EBC018FEF96E00E94350FCE014A
:100E400049960E944C0FCE0101960E944C0FCE0194
:100E50004F960E944C0FCE0185960E944C0F8091B8
:100E60004C0590914D05019709F066C00E949F11B5
:100E700090934801809347010E94971190934A01F3
:100E8000809349010E948D11BC0190934C01809385
:100E90004B018091450190914601892B89F4CE0147
:100EA00085960E94981B6091490170914A01CE017C
:100EB0004F960E94981B609147017091480110C0A5
:100EC000CE0185960E94981B609147017091480160
:100ED000CE014F960E94981B6091490170914A0182
:100EE000CE0101960E94981BBE016F5F7F4FCE011D
:100EF00049960E94201FBE01615E7F4FCE01499638
:100F00000E946B0EBE016B5D7F4F0E946B0EBC0199
:100F10008FEF96E00E94350FCE0149960E944C0F4C
:100F2000CE0101960E944C0FCE014F960E944C0FAD
:100F3000CE0185960E944C0FE0914C05F0914D0535
:100F4000EE0FFF1FED55FD4F2081318130934D0590
:100F500020934C052D30310549F481E090E09093C9
:100F600054018093530180E88093C80490914E050A
:100F700081E0892780934E058901000F111FF80138
:100F8000E55FFE4F80818093C904A9014251510958
:100F90004230510550F02930310539F00E94FB19DB
:100FA000F801ED5CFE4F918380838091CD06909196
:100FB000CE06009739F48091A0049091A104019786
:100FC00021F507C09093980480939704181619068A
:100FD00094F781E0809399041092AF041092AE04CC
:100FE00044E650E060E070E088EE93E00E94F12378
:100FF0000E94F41C80914E05811107C01092BD041F
:1010000060E087E090E00E94A313809197049091A4
:101010009804019661F58091CF06882341F11092E2
:10102000CB0480914E05882329F10E94E92000918C
:101030009304109194042091950430919604DC015E
:10104000CB01801B910BA20BB30B87399105A10536
:10105000B10580F00E94E92060939304709394049A
:1010600080939504909396040E94F41C03C081E041
:101070008093CB048091B4069091B506009739F423
:1010800080919E0490919F040197B1F507C09093C1
:101090009204809391041816190694F711E01093A6
:1010A00099041092AF041092AE0444E650E060E060
:1010B00070E088EE93E00E94F1230E94941C8091DE
:1010C0004E05811119C01093BD0461E087E090E0E6
:1010D0000E94A3136091060188E090E00E94A31390
:1010E00060918F0489E090E00E94A31360918D04C9
:1010F0008AE090E00E94A313809191049091920461
:10110000019661F58091B606882341F11092CA04D8
:1011100080914E05882329F10E94E92000918904DD
:1011200010918A0420918B0430918C04DC01CB0156
:10113000801B910BA20BB30B87399105A105B1055B
:1011400080F00E94E9206093890470938A04809360
:101150008B0490938C040E94941C03C081E08093C4
:10116000CA0480914E05811139C08091CD069091BD
:10117000CE0697FD06C08091A0049091A10401962F
:1011800091F444E650E060E070E088EE93E00E9465
:10119000F12381E080930A0161E080E090E00E9409
:1011A000A3130E94F2188091B4069091B50697FDA2
:1011B00006C080919E0490919F04019679F444E6C4
:1011C00050E060E070E088EE93E00E94F12310921E
:1011D0000A0160E080E090E00E94A313E0914C05DA
:1011E000F0914D05E431F10508F0B0C4E55CFF4F26
:1011F0000C945A30809155058111DFC00E94A711CF
:1012000020910401309105018217930709F4C4C0AD
:101210000E94A711909305018093040181E0209121
:10122000570130915801232B09F480E00E94E01708
:101230006B017C0180915E04811113C00E94E92042
:10124000DC01CB01845B9B4FAF4FBF4F80935A04AF
:1012500090935B04A0935C04B0935D0481E0809361
:101260005E0480915204811109C06FE273E08CE446
:1012700094E00E94291F81E0809352040E94E9209B
:1012800000915A0410915B0420915C0430915D043C
:10129000DC01CB01801B910BA20BB30B893E934069
:1012A000A105B10508F44EC00E94E92060935A04DC
:1012B00070935B0480935C0490935D04809157016C
:1012C00090915801892B11F012E301C017E320E03F
:1012D00030E0A901C701B6010E94F42F20E030E000
:1012E00040E05FE387FD05C0C701B6010E94522FB1
:1012F00004C0C701B6010E94512F0E94BE2F24E6F0
:1013000030E040E050E00E943B30CE0149960E9420
:10131000981BBE01675E7F4FCE0101960E94201F81
:10132000612FCE0101960E94340EBC018CE494E042
:101330000E94350FCE0101960E944C0FCE014996B6
:101340000E944C0F6CE474E0CE0101960E94201FB5
:10135000CE014F960E94491DBE01615E7F4FCE01B6
:1013600049960E94201FBE016F5F7F4FCE014996B4
:101370000E946B0EBC01CE0185960E94201FCE01FB
:1013800049960E944C0FCE014F960E944C0FCE0101
:1013900001960E944C0F06C06FEF76E0CE01859655
:1013A0000E94201FBE016B5D7F4F8FEF96E00E9471
:1013B0007E0ECE0185960E944C0F0E94A71180FDE3
:1013C00002C080ECF4C01092C804F3C080915505AF
:1013D0008111ECC080918104811113C00E94E92029
:1013E000DC01CB0187519C4FAF4FBF4F80937D04F1
:1013F00090937E04A0937F04B093800481E0809357
:10140000810480917504811144C00E948D1168EEA1
:1014100073E00E940530BC01CE0101960E94981B2A
:101420000E949711BC01CE0149960E94981B0E9410
:101430009F11BC01CE0185960E94981BBE016B5D79
:101440007F4FCE014F960E94201FBE01675E7F4FE7
:10145000CE014F960E946B0EBE016F5F7F4F0E94C0
:101460006B0EBC018FE694E00E94201F81E0809308
:101470007504CE014F960E944C0FCE0185960E94B6
:101480004C0FCE0149960E944C0FCE0101960E944E
:101490004C0F80916704811107C0809145018093B2
:1014A000660481E0809367040E94E92000917D0436
:1014B00010917E0420917F0430918004DC01CB01E7
:1014C000801B910BA20BB30B893E9340A105B10584
:1014D00058F48091660490E02091450130914601D6
:1014E0008217930709F451C00E94E92060937D049C
:1014F00070937E0480937F049093800480914501D3
:1015000090914601892B09F010C30E948D11BC01F6
:10151000CE0101960E94981B0E949711BC01CE013A
:1015200049960E94981B0E949F11BC01CE0185968E
:101530000E94981BBE016B5D7F4FCE014F960E94AB
:10154000201FBE01675E7F4FCE014F960E946B0E3B
:10155000BE016F5F7F4F0E946B0E69E30E94340EE5
:10156000BC018FE694E00E94350FCE014F960E9499
:101570004C0FCE0185960E944C0FCE0149960E94D9
:101580004C0FCE0101960E944C0F6FE674E0CE0125
:1015900001960E94201FBE016F5F7F4F8FEF96E084
:1015A0000E947E0ECE0101960E944C0F80E4809333
:1015B000C8040E940D191092540510925305C6C21A
:1015C0006091510170915201CE0185960E94981B45
:1015D00060914F0170915001CE014F960E94981B6F
:1015E00060914D0170914E01CE0101960E94981BB1
:1015F000BE016F5F7F4FCE0149960E94201FBE0142
:10160000615E7F4FCE0149960E946B0EBE016B5DFD
:101610007F4F0E946B0E63E173E00E94520EBC018B
:101620008FEF96E00E94350FCE0149960E944C0F35
:10163000CE0101960E944C0FCE014F960E944C0F96
:10164000CE0185960E944C0F1092540510925305BE
:101650008091530190915401019789F580E880931E
:10166000C8042FC060915501709156014AE0CE0127
:1016700049960E94F41E68E473E0CE0101960E9430
:10168000291FBE01675E7F4FCE0101960E946B0E3F
:1016900061E173E00E94520EBC018FEF96E00E9460
:1016A000350FCE0101960E944C0FCE0149960E9443
:1016B0004C0F83E390E09093540580935305109270
:1016C000C8040E940D1942C280915505811133C092
:1016D00081E02091570130915801232B09F480E0DB
:1016E0000E94E017AB01BC01CE0101960E94D0150B
:1016F000BE016F5F7F4F8FEF96E00E947E0ECE019E
:1017000001960E944C0F8091570190915801892BAE
:1017100051F481E390E0909354058093530580E465
:101720008093C80408C083E290E0909354058093AE
:1017300053051092C80481E020915701309158015F
:10174000232B09F480E00E94E01720E030E0A9019B
:101750000E94C62D9091C80487FF02C0906801C006
:101760009F779093C804F2C16091590170915A011A
:10177000CE0101960E94981BBE016F5F7F4FCE0184
:1017800049960E94201F6FE073E0CE0149960E94A7
:10179000520EBC018FEF96E00E94350FCE014996A4
:1017A0000E944C0FCE0101960E944C0F8FE090E0FA
:1017B00090935405809353058091590190915A015B
:1017C00097FD03C01092C804C1C180E88093C8048B
:1017D000BDC18091450190914601892B79F467E163
:1017E00073E08FEF96E00E94D80E83E090E0909334
:1017F000200180931F018CE090E00EC061E273E055
:101800008FEF96E00E94D80E8CE090E0909320013C
:1018100080931F0183E090E0909322018093210147
:1018200095C1809145019091460160914B01709165
:101830004C01892B89F4CE0185960E94E61A6091AD
:10184000490170914A01CE014F960E94981B609108
:1018500047017091480110C0CE0185960E94E61A9A
:101860006091470170914801CE014F960E94981BEC
:101870006091490170914A01CE0101960E94981B26
:10188000BE016F5F7F4FCE0149960E94201FBE01AF
:10189000615E7F4FCE0149960E946B0EBE016B5D6B
:1018A0007F4F0E946B0E65E173E00E94520EBC01F7
:1018B0008FEF96E00E94350FCE0149960E944C0FA3
:1018C000CE0101960E944C0FCE014F960E944C0F04
:1018D000CE0185960E944C0F39C10E94541AE090A7
:1018E000B804F090B9040091B6041091B7042091A7
:1018F000B4043091B5044091BB045091BC04609194
:10190000B2047091B3048091B0049091B1040E942C
:101910008B220C94070110924E0550934D05409375
:101920004C05452BB9F40E948D117C010E94971142
:101930008C010E949F119C014091430150914401F0
:10194000609141017091420180913F01909140016D
:101950000E948B2280914C0590914D050197F9F4DE
:10196000E0904B01F0904C010091490110914A0127
:1019700080904701909048010E94A7115C010E944D
:10198000AF116C010E94B7119401A501B6010E942C
:101990008B22609145018DE090E00E94A31380911D
:1019A0004C0590914D050297C1F460914D0182E084
:1019B00090E00E94A31360914F0183E090E00E94A9
:1019C000A3136091510184E090E00E94A313609101
:1019D000530186E090E00E94A31380914C05909102
:1019E0004D05039731F46091550181E090E00E942C
:1019F000A31380914C0590914D05049731F46091AB
:101A000057018BE090E00E94A31380914C059091C8
:101A10004D05059749F46091590180918101681B3A
:101A20008CE090E00E94A3130E948D1168EE73E099
:101A30000E940530082F0E949711F82E0E949F11D6
:101A4000E82E0E94A711B82E0E94AF11C82E0E9446
:101A5000B711D82E81E08093900588E68093B20577
:101A6000109291051092B30560E088EA96E00E941A
:101A7000DF0F1AE08B2D612F0E94F92F692FE0E113
:101A80008E9F600D112488EA96E00E94DF0F8C2D56
:101A9000612F0E94F92F692FF0E18F9F600D1124B3
:101AA00088EA96E00E94DF0F8D2D612F0E94F92FAA
:101AB000692F20E1829F600D112488EA96E00E9440
:101AC000DF0F61E088EA96E00E94DF0F8E2D612F24
:101AD0000E94F92F692FE0E18E9F600D112488EAA2
:101AE00096E00E94DF0F8F2D612F0E94F92F692F42
:101AF000F0E18F9F600D112488EA96E00E94DF0FCD
:101B0000802F612F0E94F92F692F20E1829F600DA5
:101B1000112488EA96E00E94DF0F60E088EA96E0F0
:101B20000E94DF0F0E94542611C00E948D11BC013B
:101B3000CE0101960E94981B0E949F11BC01CE010C
:101B400049960E94981B0E949711EFCCEC960FB615
:101B5000F894DEBF0FBECDBFDF91CF911F910F91E3
:101B6000FF90EF90DF90CF90BF90AF909F908F90BD
:101B700008958EBD00000DB407FEFDCF8EB508950B
:101B80000E947332CF93DF93EC0188819981009793
:101B900011F00E941131198218821D821C821B8251
:101BA0001A82DF91CF9108950F931F93CF93DF9304
:101BB000EC0188819981009729F02A813B812617C1
:101BC000370788F48B016F5F7F4F0E94A931009720
:101BD00061F0998388831B830A832C813D81232BA9
:101BE00011F4FC01108281E001C080E0DF91CF910F
:101BF0001F910F910895FC0180819181009711F050
:101C00000C944A2D60E070E0CB010895EF92FF92B2
:101C10000F931F93CF93DF93FC01248135816115CE
:101C2000710511F480E019C041155105A9F07B013F
:101C3000EC018A01020F131FB8010E94D40D882302
:101C400089F3288139818C819D81B701820F931F8F
:101C50000E9481321D830C8381E0DF91CF911F911F
:101C60000F91FF90EF9008950F931F93CF93DF9301
:101C700000D0CDB7DEB78C0169831A8241E050E015
:101C8000BE016F5F7F4F0E94060E811103C0C80125
:101C90000E94C20DC8010F900F90DF91CF911F914C
:101CA0000F910895CF93DF93EC016115710561F0F9
:101CB000FB0101900020E9F73197AF01461B570B5C
:101CC0000E94060E811103C0CE010E94C20DCE01FA
:101CD000DF91CF910895CF93DF93EC01FB01448115
:101CE0005581608171810E94060E811103C0CE0171
:101CF0000E94C20DCE01DF91CF9108950F931F93E3
:101D0000CF93DF938C01EB01FC01808191810097DF
:101D1000B1F0688179816115710579F04281538153
:101D20002C813D814217530740F00E9481328C8103
:101D30009D81F8019583848313C00E9411318881AD
:101D40009981F801918380838A819B819383828327
:101D50008C819D8195838483198218821B821A82CB
:101D60001D821C82DF91CF911F910F910895EF92F8
:101D7000FF920F931F93CF93DF93EC017B018A01B6
:101D8000BA010E94D40D811104C0CE010E94C20D7F
:101D900007C01D830C83B701888199810E9481321D
:101DA000CE01DF91CF911F910F91FF90EF90089599
:101DB000CF93DF93EC016115710559F0FB010190A0
:101DC0000020E9F73197AF01461B570B0E94B70E71
:101DD00002C00E94C20DCE01DF91CF910895BF9243
:101DE000CF92DF92EF92FF920F931F93CF93DF93E7
:101DF0007C016B018A01E9012417350720F4812F4A
:101E00008901C42FD82F6FE273E0C7010E94291FF8
:101E1000D60114968D919C91159708171907D0F447
:101E20008C179D0708F4EC01D601ED91FC911197F8
:101E3000EC0FFD1FB08010824D915C91BA01600FD4
:101E4000711FC7010E94D80ED601ED91FC91EC0FD5
:101E5000FD1FB082C701DF91CF911F910F91FF90BD
:101E6000EF90DF90CF90BF900895CF93DF93EC0178
:101E7000FB018617970761F060817181611571051B
:101E800029F0448155810E94B70E02C00E94C20D04
:101E9000CE01DF91CF910895FC01808191810C9456
:101EA000113185ED8093BC008091BC0084FDFCCF96
:101EB0001092DA05089540911D05262F30E0240F79
:101EC000311D21323105DCF42091DA052430C9F4CA
:101ED000FC0180E090E0861758F430911D052191B7
:101EE000DC01A550BB4FA30FB11D2C930196F3CF7E
:101EF00080911D05680F60931D0580E0089581E0C5
:101F0000089582E008950895E091DC058091DB0555
:101F1000E81730F4F0E0E352FA4F808190E0089542
:101F20008FEF9FEF08959091DC058091DB05981766
:101F300050F4E92FF0E0E352FA4F208130E09F5F48
:101F40009093DC0502C02FEF3FEFC9010895809107
:101F5000DB0590E02091DC05821B91090895CF926A
:101F6000DF92EF92FF920F931F93CF93DF937C0149
:101F7000262F972F8A0180919005882391F0C62FF4
:101F8000D72F6E01C40ED51ECC15DD0571F06991F9
:101F9000D701ED91FC910190F081E02DC7010995E9
:101FA000F3CF642F822F0E945B0FC801DF91CF9186
:101FB0001F910F91FF90EF90DF90CF900895CF93F6
:101FC000DF931F92CDB7DEB769832091900522235E
:101FD000D1F02091B305203240F021E030E0FC0147
:101FE0003383228380E090E015C080919105E82F33
:101FF000F0E0EE56FA4F998190838F5F80939105C0
:102000008093B30505C061E0CE0101960E945B0F8D
:1020100081E090E00F90DF91CF910895089580E0E6
:1020200090E00895CF92DF92EF92FF921F93CF93AB
:10203000DF939091CB04911103C08FEF9FEF72C09B
:102040009091CA049923C9F3182FC091C904D0E014
:102050008091F30481110DC00E94E9206093EF0488
:102060007093F0048093F1049093F20481E08093E4
:10207000F3040E94E920C090EF04D090F004E090B7
:10208000F104F090F204DC01CB018C199D09AE093A
:10209000BF098D329140A105B105D8F00E94E92019
:1020A0006093EF047093F0048093F1049093F20432
:1020B0008091EE0491E098279093EE04992329F003
:1020C0001092ED041092EC0404C0D093ED04C09380
:1020D000EC042091EC043091ED0420953095409172
:1020E000C80450E02423352326FF04C081E08093F8
:1020F000EB0402C01092EB0427FF04C081E0809340
:10210000EA0402C01092EA048091EE04882309F4E4
:1021100094CF02C0D595C7951A95E2F7C0FF8DCF31
:1021200080E09CE3DF91CF911F91FF90EF90DF90D3
:10213000CF9008954F925F926F927F928F929F926D
:10214000AF92BF92CF92DF92EF92FF920F931F93C5
:10215000CF93DF934B015C01809142059091430541
:10216000A0914405B091450588169906AA06BB06BC
:1021700009F4C2C08CE3C82ED12CE12CF12CC5018E
:10218000B401A70196010E94193060937005CA013D
:10219000B901A70196010E94193060937105CA0127
:1021A000B90128E130E040E050E00E9419306901B7
:1021B0007A0160937205CA01B9016C5F7F4F8F4F3E
:1021C0009F4F27E030E040E050E00E9419306F5F01
:1021D00060937305412C512C320140E004E610E07D
:1021E000C0E9D1E0242F30E02E54384FF901E370DC
:1021F000FF27309789F4C901B8010E940530892B67
:1022000031F4C901BE010E940530892B29F48EE604
:1022100091E0A0E0B0E004C08DE691E0A0E0B0E085
:10222000480E591E6A1E7B1ED301C201AA27BB2776
:10223000C816D906EA06FB0610F04F5FD3CF4093CD
:102240007605309799F4C90164E670E00E94053084
:10225000892B39F4C90160E971E00E940530892BAE
:1022600029F48EE691E0A0E0B0E004C08DE691E0B4
:10227000A0E0B0E0481A590A6A0A7B0AC418D508D7
:10228000E608F708C90164E670E00E940530EC0139
:10229000C90160E971E00E940530AFEDB2E020E0D5
:1022A000213039F4309749F4209729F4009729F424
:1022B00002C04C9103C04DE101C04CE150E060E030
:1022C00070E0C416D506E606F70640F0C41AD50A33
:1022D000E60AF70A2F5F11962C3011F72F5F209333
:1022E0007505C394C092740580924205909243058F
:1022F000A0924405B0924505DF91CF911F910F91B7
:10230000FF90EF90DF90CF90BF90AF909F908F9015
:102310007F906F905F904F9008950E9467230E9476
:102320009A108091760590E08E54984F08950E94FF
:1023300067230E949A108091750590E008950E948D
:1023400067230E949A108091740590E008950E947E
:1023500067230E949A108091700590E008950E9472
:1023600067230E949A108091710590E008950E9461
:1023700067230E949A108091720590E00895CF9291
:10238000DF92EF92FF92CF93DF93EC010E94E9205E
:102390006B017C018F850E94961F21E0892B09F437
:1023A00020E0298B8889811103C081E08227898BF5
:1023B00029898A89281721F0CD8ADE8AEF8AF88E4A
:1023C0008D899E89AF89B88DB701A601481B590B2D
:1023D0006A0B7B0BDB01CA01CB80DC80ED80FE80C9
:1023E000C416D506E606F70664F43A81231749F0C9
:1023F0002A83222331F04B895C894F5F5F4F5C8BCE
:102400004B8B3A8131110CC0CF80D884E984FA8497
:10241000C816D906EA06FB06ACF48B899C890EC067
:10242000CB84DC84ED84FE84C816D906EA06FB065C
:102430004CF48B899C899195819591099983888326
:102440001C8A1B8A2A8BDF91CF91FF90EF90DF903F
:10245000CF9008950F931F93CF93DF931F92CDB723
:10246000DEB78C01862FF8016787408B91E0492702
:10247000418B428B148A138A118210821282158A30
:10248000168A178A108E44E150E060E070E04383C2
:102490005483658376834AEF50E060E070E04783C1
:1024A00050876187728748EE53E060E070E04387B1
:1024B00054876587768760E029830E94EF1FF801C3
:1024C0008089298181110BC0222349F061E0878531
:1024D0000F90DF91CF911F910F910C94BF1F0F9020
:1024E000DF91CF911F910F9108951F920F920FB618
:1024F0000F9211242F933F934F935F936F937F938A
:102500008F939F93AF93BF93EF93FF938091B90005
:10251000887F803609F49CC068F5883209F45BC076
:1025200090F4803109F454C038F4882309F4F6C0DB
:10253000883009F44DC0F6C0883109F44CC08032AF
:1025400009F45DC0EFC0803409F468C048F48033FA
:1025500009F455C0883309F0E5C08093D805D8C088
:10256000803509F44FC0883509F45DC0883409F01E
:10257000D9C0D6C0883909F4C7C0A8F4883709F48F
:1025800067C038F4883609F463C0803709F460C046
:10259000C9C0883809F4B8C0803909F45FC08038F0
:1025A00009F0C0C05BC0803B09F486C038F4803AB3
:1025B00009F466C0883A09F47FC0B4C0803C09F4CD
:1025C000A7C0883C09F4A4C0883B09F48AC0AAC00B
:1025D0008091D50510C09091D7058091D6059817A8
:1025E00070F5E091D70581E08E0F8093D705F0E07C
:1025F000EC54FA4F80818093BB0085EC86C08093B9
:10260000D8058EC0E091D70581E08E0F8093D70565
:102610008091BB00F0E0EC54FA4F80839091D70595
:102620008091D6056EC0E091D70581E08E0F809332
:10263000D7058091BB00F0E0EC54FA4F8083809185
:10264000D90581116DC081E08093D40584EA61C011
:1026500083E08093DA0510924105CFCF8091410548
:10266000803208F051C0E091410581E08E0F8093E7
:1026700041058091BB00F0E0EF5DFA4F8083BDCF54
:1026800085EC8093BC001092DA0580914105803280
:1026900030F4E0914105F0E0EF5DFA4F1082609177
:1026A000410570E0E0911F05F091200581E295E081
:1026B00009951092410536C084E08093DA051092A6
:1026C0001E0510921D05E0911B05F0911C05099552
:1026D00080911D05811105C081E080931D05109238
:1026E000FB04E0911E0581E08E0F80931E05F0E053
:1026F000E550FB4F80818093BB0090911E05809137
:102700001D05981708F479CF85E88093BC000AC0AE
:1027100085EC8093BC001092DA0504C01092D805B5
:102720000E94510FFF91EF91BF91AF919F918F91B7
:102730007F916F915F914F913F912F910F900FBEBD
:102740000F901F9018950C94F22E0C94EA2E2F9255
:102750003F924F925F926F927F928F929F92AF9231
:10276000BF92CF92DF92EF92FF920F931F93CF937E
:10277000DF9300D000D0CDB7DEB70E948A20009151
:10278000E6041091E7042091E8043091E904DC01AB
:10279000CB01801B910BA20BB30B8A319144A10595
:1027A000B10508F4E6C10E948A206093E6047093A4
:1027B000E7048093E8049093E9048FEF96E00E9489
:1027C000FB0D6B017C0160E08AE00E94BF1F8AE084
:1027D000482E512C612C712CC701B601A301920126
:1027E0000E943B30CB01880F991FFC01E553FD4F40
:1027F000C080D18087E090E029833A834B835C835B
:102800000E9412101C0129813A814B815C81CA010E
:10281000B901A30192010E943B30660F771FFB01B3
:10282000E553FD4FA080B18087E090E029833A8393
:102830004B835C830E9412107C0129813A814B8179
:102840005C81CA01B901A30192010E943B302901B8
:102850003A01660F771FFB01E553FD4F008111819F
:1028600086E090E00E94121045018E209F20A12C4E
:10287000B12CAAE0880C991CAA1CBB1CAA95D1F704
:1028800080239123AC0160E070E0D501C401842B6A
:10289000952BA62BB72BC220D320A60160E070E0B9
:1028A00014E1440F551F661F771F1A95D1F76C016D
:1028B0007D01C42AD52AE62AF72A8091EB048823D1
:1028C00019F06894F6F802C0E894F6F88091EA04EA
:1028D000882319F06894F7F802C0E894F7F88F2D70
:1028E0000E94B90D8E2D0E94B90D8D2D0E94B90D3B
:1028F0008C2D0E94B90D8AE0882E912CA12CB12C30
:10290000C301B201A50194010E943B30CB01880FA5
:10291000991FFC01E553FD4F0081118185E090E096
:1029200029833A834B835C830E9412106C012981B6
:102930003A814B815C81CA01B901A50194010E94D1
:102940003B30660F771FFB01E553FD4F60807180C0
:1029500084E090E029833A834B835C830E941210C9
:10296000C022D122E12CF12CF4E1CC0CDD1CEE1CB8
:10297000FF1CFA95D1F786219721A0E0B0E01AE07C
:10298000880F991FAA1FBB1F1A95D1F7C82AD92AE9
:10299000EA2AFB2A29813A814B815C81CA01B9016B
:1029A000A50194010E943B30660F771FFB01E553A0
:1029B000FD4F0081118183E090E029833A834B83AE
:1029C0005C830E94121080239123A0E0B0E0C82A0B
:1029D000D92AEA2AFB2A8091EB0429813A814B818A
:1029E0005C81882319F06894F6F802C0E894F6F840
:1029F0008091EA04882319F06894F7F802C0E894FB
:102A0000F7F88F2D29833A834B835C830E94B90D9D
:102A10008E2D0E94B90D8D2D0E94B90D8C2D0E9416
:102A2000B90D8AE0482E512C612C712C29813A81F4
:102A30004B815C81CA01B901A30192010E943B3024
:102A4000CB01880F991FFC01E553FD4F00811181D7
:102A500082E090E029833A834B835C830E941210CA
:102A60006C0129813A814B815C81CA01B901A301C2
:102A700092010E943B30660F771FFB01E553FD4F2B
:102A8000A080B18081E090E029833A834B835C830E
:102A90000E941210C022D122E12CF12CF4E1CC0CC6
:102AA000DD1CEE1CFF1CFA95D1F78A219B21A0E0CA
:102AB000B0E01AE0880F991FAA1FBB1F1A95D1F723
:102AC000C82AD92AEA2AFB2A29813A814B815C81CA
:102AD000CA01B901A30192010E943B30660F771F22
:102AE000FB01E553FD4F0081118180E090E00E94E1
:102AF000121080239123A0E0B0E0C82AD92AEA2A44
:102B0000FB2A8091EB04882319F06894F6F802C040
:102B1000E894F6F88091EA04882319F06894F7F8AD
:102B200002C0E894F7F88F2D0E94B90D8E2D0E94F7
:102B3000B90D8D2D0E94B90D8C2D0E94B90D61E04B
:102B40008AE00F900F900F900F90DF91CF911F911F
:102B50000F91FF90EF90DF90CF90BF90AF909F903C
:102B60008F907F906F905F904F903F902F900C943C
:102B7000BF1F0F900F900F900F90DF91CF911F917B
:102B80000F91FF90EF90DF90CF90BF90AF909F900C
:102B90008F907F906F905F904F903F902F9008950F
:102BA0008F929F92AF92BF92CF92DF92EF92FF925D
:102BB0000F931F93CF93DF93CDB7DEB72D970FB64B
:102BC000F894DEBF0FBECDBF8C016A017B018091FE
:102BD000DE04811113C00E94E920DC01CB01845B7B
:102BE0009B4FAF4FBF4F8093DA049093DB04A093C9
:102BF000DC04B093DD0481E08093DE048091D20494
:102C0000811109C064E473E08CEC94E00E94291FF8
:102C100081E08093D2040E94E9208090DA049090B1
:102C2000DB04A090DC04B090DD04DC01CB0188194A
:102C30009909AA09BB09893E9340A105B10508F489
:102C4000A6C10E94E9206093DA047093DB048093AC
:102C5000DC049093DD0420E030E040E251E4C70161
:102C6000B6010E942C2E6B017C0120E030E0A9010E
:102C70000E94F42F20E030E040E05FE387FD05C0D4
:102C8000C701B6010E94522F04C0C701B6010E94BD
:102C9000512F0E94BE2F80915701909158019B01A6
:102CA00029513C4F49012458334059012A553109D3
:102CB00069017B01892B09F095C077FF03C0F1946E
:102CC000E194F1084AE0B701CE0107960E94F41E94
:102CD00069E473E0CE0101960E94291FBE01695F7D
:102CE0007F4FCE0101960E946B0E69E473E00E9453
:102CF000520EBC018CEC94E00E94350FCE0101967F
:102D00000E944C0FCE0107960E944C0F3FEC831699
:102D100037E0930620F54AE0B701CE0107960E94FE
:102D2000F41E68E473E0CE0101960E94291FBE01E3
:102D3000695F7F4FCE0101960E946B0E69E473E0DC
:102D40000E94520EBC018CEC94E00E94350FCE0123
:102D500001960E944C0FCE0107960E944C0F87EC03
:102D6000A816B10420F54AE0B701CE0107960E94EB
:102D7000F41E67E473E0CE0101960E94291FBE0194
:102D8000695F7F4FCE0101960E946B0E69E473E08C
:102D90000E94520EBC018CEC94E00E94350FCE01D3
:102DA00001960E944C0FCE0107960E944C0F23E122
:102DB000C216D10408F0C4C04AE0B701CE0107969C
:102DC0000E94F41E66E473E0CE0101960E94291F62
:102DD000BE01695F7F4FCE0101960E946B0E69E4D0
:102DE00073E09FC077FF03C0F194E194F1084AE0DB
:102DF000B701CE0107960E94F41E69E473E0CE018C
:102E000001960E94291FBE01695F7F4FCE01019686
:102E10000E946B0E69E473E00E94520EBC018CECC0
:102E200094E00E94350FCE0101960E944C0FCE0116
:102E300007960E944C0F3FEC831637E0930640F54F
:102E4000C7016AE070E00E9405304AE0CE010796B3
:102E50000E94F41E68E473E0CE0101960E94291FCF
:102E6000BE01695F7F4FCE0101960E946B0E68E440
:102E700073E00E94520EBC018CEC94E00E94350F6E
:102E8000CE0101960E944C0FCE0107960E944C0F76
:102E900087ECA816B10440F5C7016AE070E00E9413
:102EA00005304AE0CE0107960E94F41E67E473E005
:102EB000CE0101960E94291FBE01695F7F4FCE019E
:102EC00001960E946B0E68E473E00E94520EBC01F2
:102ED0008CEC94E00E94350FCE0101960E944C0FBD
:102EE000CE0107960E944C0F23E1C216D10440F593
:102EF000C7016AE070E00E9405304AE0CE01079603
:102F00000E94F41E66E473E0CE0101960E94291F20
:102F1000BE01695F7F4FCE0101960E946B0E68E48F
:102F200073E00E94520EBC018CEC94E00E94350FBD
:102F3000CE0101960E944C0FCE0107960E944C0FC5
:102F40008091570190915801892B11F022E301C023
:102F500027E36FE273E0CE0101962D870E94291FBF
:102F60006CEC74E0CE0101960E946B0E68E473E095
:102F70000E94520E2D85622F0E94340EBC018CECF3
:102F800094E00E94350FCE0101960E944C0F6CEC2C
:102F900074E0C8010E94201FC8012D960FB6F89456
:102FA000DEBF0FBECDBFDF91CF911F910F91FF907C
:102FB000EF90DF90CF90BF90AF909F908F9008954B
:102FC000EF92FF920F931F93CF93DF93E82E0E940F
:102FD00032278CEC0E94082784E40E9408270E9474
:102FE00032278CEC0E9408278EEB0E94082708E00D
:102FF00010E0D1E0C0E00E94B1268111CD2BDD0FA1
:1030000001501109C1F708E010E0FF24F394D0E06B
:103010000E94B1268111DF29FF0C01501109C1F76F
:103020006C2F70E07D2B6F3F8FEF780711F460E01D
:1030300070E0072E000C880B990B0E94CD2D20E02C
:1030400030E040E85DE30E942C2EEE2061F026E6A1
:1030500036E646EE5FE30E942C2E20E030E040E0B2
:1030600052E40E94522FDF91CF911F910F91FF9058
:10307000EF9008954F925F926F927F928F929F92FE
:10308000AF92BF92CF92DF92EF92FF920F931F9376
:10309000CF93DF9300D000D000D0CDB7DEB77C0156
:1030A0004B015A0180915505882341F080915D05BF
:1030B00007E615E0AEE5B5E0F8014CC081E080938D
:1030C0005505109254051092530587E6682E85E049
:1030D000782E9EE5492E95E0592E00E010E00F5F16
:1030E0001F4F680181E0C81AD1089801A601B401F8
:1030F000CE0101960E94EF0ECE0101960E94FB0DBB
:10310000F30161933F01CE0101960E944C0F98019B
:10311000A601B501CE0101960E94EF0ECE010196E7
:103120000E94FB0DF20161932F01CE0101960E94D6
:103130004C0F0930110599F6B9CF2C9192130DC09F
:1031400090819A3009F410823196119695E0E0371B
:10315000F90731F090818A3080F79F5F9083F0CF3C
:103160008F5F843119F080935D0504C010925D0576
:10317000109255056FE273E0C7010E94291FFE01FE
:1031800031966F01F80181918F014AE0B60190E01C
:103190000E947C2DF60101900020E9F73197AF01E4
:1031A0004C195D09B601C7010E94060EF5E0003713
:1031B0001F0741F7C70126960FB6F894DEBF0FBE72
:1031C000CDBFDF91CF911F910F91FF90EF90DF90D6
:1031D000CF90BF90AF909F908F907F906F905F90B7
:1031E0004F90089588E090E00E94A513682F70E04A
:1031F00089E00E942B2089E090E00E94A513682FAF
:1032000070E086E00E942B208AE090E00E94A513E7
:10321000682F70E083E00C942B200F931F93809114
:10322000530190915401892B09F451C080915C05A0
:103230008823A9F00E94E9200091580510915905B2
:1032400020915A0530915B05DC01CB01801B910B6D
:10325000A20BB30B893E9340A105B105A8F580915F
:103260005C05811134C00E94B71120914D0130914D
:103270004E018217930759F50E94AF1120914F011B
:10328000309150018217930711F50E94A7112091E8
:1032900051013091520182179307C9F40E94E9202D
:1032A000609358057093590580935A0590935B0578
:1032B00081E080935C0580910801909109019093D1
:1032C000AF048093AE0403C010925C05C8CF1F9179
:1032D0000F910895CF93DF93EC01019628812A3353
:1032E000D9F78981843639F510924B0510924A0539
:1032F00023964AE0FE018881219690ED980F209157
:103300004A0530914B059A3080F4429FB001439FAB
:10331000700D1124082E000C990BC097860F971F73
:1033200090934B0580934A05E5CF1216130614F4CB
:103330002093AE01EF01219688818F3689F48A812E
:10334000082E000C990B9C012053310930934B053A
:1033500020934A05C397059710F42093AD01249656
:103360008881823629F510924B0510924A05FE019C
:1033700032964AE0819190ED980F20914A05309164
:103380004B059A3080F4429FB001439F700D112489
:10339000082E000C990BC097860F971F90934B0532
:1033A00080934A05E7CF3093AC012093AB01EF0146
:1033B0002091AB013091AC01032E000C440B550B56
:1033C00060E67AEE80E090E00E943B30DA01C901CD
:1033D00022E0880F991FAA1FBB1F2A95D1F780935F
:1033E000460590934705A0934805B0934905CE0143
:1033F000DF91CF910895CF92DF92EF92FF921F93CA
:10340000CF93DF93CDB7DEB72C970FB6F894DEBF1E
:103410000FBECDBF182F63E573E0CE0101960E9469
:10342000291F133029F422E030E040E050E012C0C0
:103430001C3029F424E030E042E050E00BC01033AF
:1034400019F426E030E004C0103FA9F428E030E091
:1034500044E050E06FEF76E0CE0107960E94EF0E59
:10346000BE01695F7F4FCE0101960E947E0ECE01A4
:1034700007960E944C0FCE0101960E94FB0D6B0136
:103480007C01CE0101960E944C0FC6012C960FB60E
:10349000F894DEBF0FBECDBFDF91CF911F91FF909B
:1034A000EF90DF90CF90089581E08093900588E6BB
:1034B0008093B205109291051092B30560E088EAFE
:1034C00096E00E94DF0F0E94542687E090E00E9461
:1034D0000B2688EA96E00E94930F982F92959F7092
:1034E0008F702AE0929F800D112490E09093BC048D
:1034F0008093BB0488EA96E00E94930F982F9295E0
:103500009F708F702AE0929F800D112490E090931D
:10351000B3048093B20488EA96E00E94930F982F38
:103520009695969596959670292F220F220F920FB9
:103530008F70890F90E09093B1048093B00488EA73
:1035400096E00E94930F982F92959F708F702AE0BB
:10355000929F800D112490E090935705809356051B
:1035600088EA96E00E94930F982F92959F708F7033
:103570002AE0929F800D112490E09093B5048093EF
:10358000B40488EA96E00E94930F982F92959F705A
:103590008F702AE0929F800D112490E09093B704E1
:1035A0008093B60488EA96E00E94930F982F929534
:1035B0009F708F702AE0929F800D112490E08053BD
:1035C000984F9093B9048093B8040895EF92FF92B6
:1035D0000F931F93CF93DF93CDB7DEB762970FB6EC
:1035E000F894DEBF0FBECDBF7C018B0177FF03C017
:1035F0001195019511094AE0B801C7010E94F41E16
:10360000083E83E018070CF085C04AE0B801CE01FF
:103610000D960E94F41E69E473E0CE0101960E94AB
:10362000291FBE016F5F7F4FCE0107960E94201FAA
:10363000BE01635F7F4FCE0107960E946B0EBC01F7
:10364000C7010E94350FCE0107960E944C0FCE0194
:1036500001960E944C0FCE010D960E944C0F04362D
:1036600011050CF057C04AE0B801CE010D960E943A
:10367000F41E68E473E0CE0101960E94291FBE018A
:103680006F5F7F4FCE0107960E94201FBE01635FD0
:103690007F4FCE0107960E946B0EBC01C7010E94AE
:1036A000350FCE0107960E944C0FCE0101960E9465
:1036B0004C0FCE010D960E944C0F0A30110554F5A7
:1036C0004AE0B801CE010D960E94F41E67E473E053
:1036D000CE0101960E94291FBE016F5F7F4FCE0170
:1036E00007960E94201FBE01635F7F4FCE010796A1
:1036F0000E946B0EBC01C7010E94350FCE010796D8
:103700000E944C0FCE0101960E944C0FCE010D96E7
:103710000E944C0FC70162960FB6F894DEBF0FBE31
:10372000CDBFDF91CF911F910F91FF90EF90089542
:103730000F931F93CF93DF93CDB7DEB762970FB68A
:10374000F894DEBF0FBECDBF8C0177FF03C071952B
:10375000619571094AE06A3071054CF5CE010D960C
:103760000E94F41E69E473E0CE0101960E94291FB5
:10377000BE016F5F7F4FCE0107960E94201FBE01E2
:10378000635F7F4FCE0107960E946B0EBC01C8019C
:103790000E94201FCE0107960E944C0FCE01019679
:1037A0000E944C0FCE010D960E944C0F03C0C80121
:1037B0000E94F41EC80162960FB6F894DEBF0FBED9
:1037C000CDBFDF91CF911F910F9108950F931F935C
:1037D000CF93DF93CDB7DEB768970FB6F894DEBF0F
:1037E0000FBECDBF8B01833079F520910307309157
:1037F000040742E050E06FEF76E0CE010D960E94A4
:10380000EF0EB801CE0101960E94981BBE016F5FBA
:103810007F4FCE0107960E94201FBE01635F7F4F3E
:10382000CE0107960E946B0EBC018FEF96E00E94BE
:10383000350FCE0107960E944C0FCE0101960E94D3
:103840004C0FCE010D9663C08C30A1F4209103077C
:103850003091040744E050E06FEF76E0CE014396EC
:103860000E94EF0EB801CE010D960E94981B22E037
:1038700030E01FC0803339F42091030730910407F2
:1038800046E050E009C0803F09F043C020910307A3
:103890003091040748E050E06FEF76E0CE014396A8
:1038A0000E94EF0EB801CE010D960E94981B24E0F5
:1038B00030E040E050E06FEF76E0CE0101960E94EC
:1038C000EF0EBE016F5F7F4FCE0107960E94201F53
:1038D000BE01635F7F4FCE0107960E946B0EBE0153
:1038E0006D5E7F4F0E946B0EBC018FEF96E00E94D1
:1038F000350FCE0107960E944C0FCE0101960E9413
:103900004C0FCE010D960E944C0FCE0143960E94A3
:103910004C0F68960FB6F894DEBF0FBECDBFDF9197
:10392000CF911F910F9108950E94E92060934F0558
:1039300070935005809351059093520580914E05E8
:10394000882309F450C020914C0530914D05C901E0
:10395000880F991F2131310551F0FC01ED5CFE4FBC
:103960004081518141505109518340830AC04091A7
:103970005501509156014C505109509356014093B6
:103980005501DC01AD5CBE4F6D917C911197FC013E
:10399000E55AFE4F40815181641775073CF4FC01E4
:1039A000ED57FE4F408151814D935C93203131059D
:1039B00071F420915301309154012130310521F4EB
:1039C00020E82093C80406C01092C80403C0293020
:1039D000310549F0FC01ED5CFE4F60817181809101
:1039E000C9040C94E61B08950E94E92060934F05DA
:1039F00070935005809351059093520580914E0528
:103A0000882309F445C020914C0530914D05C9012A
:103A1000880F991F2131310551F0FC01ED5CFE4FFB
:103A2000408151814F5F5F4F518340830AC0409175
:103A3000550150915601445F5F4F5093560140939A
:103A40005501DC01AD5CBE4F6D917C911197FC017D
:103A5000ED57FE4F40815181461757073CF4FC015A
:103A6000E55AFE4F408151814D935C9320313105E1
:103A700019F41092C80403C02930310549F0FC0143
:103A8000ED5CFE4F608171818091C9040C94E61B4E
:103A900008950F931F93CF93DF93CDB7DEB7689749
:103AA0000FB6F894DEBF0FBECDBF8C0180915501DB
:103AB00090915601489791F40E94A711BC01CE0144
:103AC00043960E94981B0E94AF11BC01CE010D9637
:103AD0000E94981B0E94B711BC011FC00E94A71131
:103AE000BC01CE0143960E94981B0E94AF11BC01FD
:103AF000CE010D960E94981B0E9467230E949A1087
:103B000080917205882339F0682F70E08D3028F09D
:103B10006C50710902C06CE070E0CE0101960E9409
:103B2000981BBE016F5F7F4FCE0107960E94201F3A
:103B3000BE01635F7F4FCE0107960E946B0EBE01F0
:103B40006D5E7F4F0E946B0EBC01C8010E94201F5A
:103B5000CE0107960E944C0FCE0101960E944C0F99
:103B6000CE010D960E944C0FCE0143960E944C0F41
:103B7000C80168960FB6F894DEBF0FBECDBFDF91C7
:103B8000CF911F910F9108950895CF92DF92EF92F8
:103B9000FF920F931F93CF93DF936C017A018B01F8
:103BA000C0E0D0E0CE15DF0589F0D8016D918D0120
:103BB000D601ED91FC910190F081E02DC6010995AF
:103BC000892B11F47E0102C02196ECCFC701DF9151
:103BD000CF911F910F91FF90EF90DF90CF900895BC
:103BE000FC01538D448D252F30E0842F90E0821B03
:103BF000930B541710F0CF96089501970895FC0188
:103C0000918D828D981761F0828DDF01A80FB11D13
:103C10005D968C91928D9F5F9F73928F90E0089537
:103C20008FEF9FEF0895FC01918D828D981731F0F1
:103C3000828DE80FF11D858D90E008958FEF9FEF45
:103C40000895FC01918D228D892F90E0805C9F4F1B
:103C5000821B91098F73992708958BE096E00E944B
:103C6000211E21E0892B09F420E0822F0895FC0118
:103C7000848DDF01A80FB11DA35ABF4F2C91848DF5
:103C800090E001968F739927848FA689B7892C932A
:103C9000A089B1898C9180648C93938D848D9813C5
:103CA00006C00288F389E02D80818F7D808308958E
:103CB000EF92FF920F931F93CF93DF93EC0181E07C
:103CC000888F9B8D8C8D981305C0E889F989808138
:103CD00085FD24C0F62E0B8D10E00F5F1F4F0F7374
:103CE0001127E02E8C8DE8120CC00FB607FCFACF1E
:103CF000E889F989808185FFF5CFCE010E94371EC2
:103D0000F1CF8B8DFE01E80FF11DE35AFF4FF082DA
:103D10000B8FEA89FB898081806207C0EE89FF8969
:103D20006083E889F98980818064808381E090E004
:103D3000DF91CF911F910F91FF90EF900895CF9356
:103D4000DF93EC01888D8823C9F0EA89FB898081A3
:103D500085FD05C0A889B9898C9186FD0FC00FB675
:103D600007FCF5CF808185FFF2CFA889B9898C91B6
:103D700085FFEDCFCE010E94371EE7CFDF91CF91B7
:103D8000089580E090E0892B29F00E942D1E81117A
:103D90000C9400000895833081F028F4813099F06C
:103DA0008230A1F008958730A9F08830B9F08430CE
:103DB000D1F4809180008F7D03C0809180008F7747
:103DC00080938000089584B58F7702C084B58F7D7D
:103DD00084BD08958091B0008F7703C08091B000BA
:103DE0008F7D8093B00008950F931F93CF93DF933F
:103DF000CDB7DEB762970FB6F894DEBF0FBECDBF6A
:103E00008C01CB01F801118210821382128215827B
:103E1000148250E0BE016F5F7F4F0E94712DBE0182
:103E20006F5F7F4FC8010E94D80E62960FB6F8945C
:103E3000DEBF0FBECDBFDF91CF911F910F910895CF
:103E4000FC011182108213821282158214820C945A
:103E5000350FFC01118210821382128215821482A6
:103E60006115710551F0FB0101900020E9F73197D0
:103E7000AF01461B570B0C94B70E08951F920F927B
:103E80000FB60F9211242F933F934F935F936F932D
:103E90007F938F939F93AF93BF93EF93FF938BE0A9
:103EA00096E00E94371EFF91EF91BF91AF919F91D5
:103EB0008F917F916F915F914F913F912F910F90D3
:103EC0000FBE0F901F9018951F920F920FB60F9272
:103ED00011242F938F939F93EF93FF93E0911B06F1
:103EE000F0911C068081E0912106F091220682FD6E
:103EF00012C09081809124068F5F8F7320912506D8
:103F0000821751F0E0912406F0E0E55FF94F958FBC
:103F10008093240601C08081FF91EF919F918F9142
:103F20002F910F900FBE0F901F901895CF93DF9396
:103F3000282F30E0F901EB5DFE4F8491F901E95A39
:103F4000FE4FD491F901ED5BFE4FC491CC2391F06B
:103F500081110E94CB1EEC2FF0E0EE0FFF1FE75CFB
:103F6000FE4FA591B491EC91ED2381E090E021F416
:103F700080E002C080E090E0DF91CF9108951F9330
:103F8000CF93DF93282F30E0F901EB5DFE4F849152
:103F9000F901E95AFE4FD491F901ED5BFE4FC4914E
:103FA000CC23C9F0162F81110E94CB1EEC2FF0E01C
:103FB000EE0FFF1FEB54FF4FA591B4918FB7F8940C
:103FC000111105C09C91ED2FE095E92302C0EC9101
:103FD000ED2BEC938FBFDF91CF911F910895CF937D
:103FE000DF9390E0FC01E95AFE4F2491FC01ED5B68
:103FF000FE4F8491882361F190E0880F991FFC01A6
:10400000EE53FF4FC591D491FC01EB54FF4FA591A6
:10401000B491611109C09FB7F894888120958223DB
:104020008883EC912E230BC0623061F49FB7F89423
:104030003881822F809583238883EC912E2B2C93BB
:104040009FBF06C08FB7F894E8812E2B28838FBFBF
:10405000DF91CF9108951F93CF93DF93182FEB013A
:1040600061E00E94EF1F209711F460E004C0CF3F91
:10407000D10539F461E0812FDF91CF911F910C942C
:10408000BF1FE12FF0E0EB5DFE4FE491E330F9F06C
:1040900048F4E130B9F0E230A1F584B5806284BD26
:1040A000C8BD34C0E730E9F0E83019F1E43049F533
:1040B00080918000806280938000D0938B00C093B9
:1040C0008A0024C084B5806884BDC7BD1FC08091AC
:1040D0008000806880938000D0938900C09388001E
:1040E00015C08091B00080688093B000C093B30089
:1040F0000DC08091B00080628093B000C093B40086
:1041000005C0C038D1050CF0B5CFAFCFDF91CF914E
:104110001F9108953FB7F89480918C0590918D057B
:10412000A0918E05B0918F0526B5A89B05C02F3FA5
:1041300019F00196A11DB11D3FBFBA2FA92F982FCD
:104140008827820F911DA11DB11DBC01CD0142E048
:10415000660F771F881F991F4A95D1F708958F9290
:104160009F92AF92BF92CF92DF92EF92FF926B013C
:104170007C010E948A204B015C01C114D104E1043E
:10418000F104F1F00E948A20DC01CB018819990921
:10419000AA09BB09883E9340A105B10570F321E04F
:1041A000C21AD108E108F10888EE880E83E0981E53
:1041B000A11CB11CC114D104E104F10419F7DDCF35
:1041C000FF90EF90DF90CF90BF90AF909F908F9037
:1041D00008952FB7F89460918805709189058091B2
:1041E0008A0590918B052FBF089560938305709386
:1041F00084058093850590938605DC01CB01845D61
:104200009E4FAF4FBF4F80937F0590938005A09343
:104210008105B093820582E090E090937E058093C3
:104220007D050E94E9206093790570937A0580935B
:104230007B0590937C0508951F920F920FB60F9205
:1042400011242F933F938F939F93AF93BF938091AC
:10425000880590918905A0918A05B0918B053091D0
:10426000870523E0230F2D3720F40196A11DB11DF2
:1042700005C026E8230F0296A11DB11D20938705D6
:104280008093880590938905A0938A05B0938B0548
:1042900080918C0590918D05A0918E05B0918F0530
:1042A0000196A11DB11D80938C0590938D05A0935F
:1042B0008E05B0938F05BF91AF919F918F913F91E4
:1042C0002F910F900FBE0F901F9018951F920F9275
:1042D0000FB60F9211242F933F934F935F936F93D9
:1042E0007F938F939F93EF93FF934091FD055091A0
:1042F000FE056091FF0570910006411551056105AD
:10430000710599F08091A404E091A504F091A604B0
:104310009081892780831416150616061706D4F493
:10432000415051096109710915C0809170008D7F5C
:10433000809370009091A404E091A504F091A604EC
:104340008081282F30E0892F90E0809590958223FE
:10435000932380834093FD055093FE056093FF05F2
:1043600070930006FF91EF919F918F917F916F91D4
:104370005F914F913F912F910F900FBE0F901F9023
:1043800018951F920F920FB60F9211242F933F93FF
:104390008F939F93AF93BF93EF93FF938091010609
:1043A00090910206A0910306B0910406892B8A2BF6
:1043B0008B2B51F18091A704E091A804F091A904FE
:1043C0009081892780838091010690910206A091B7
:1043D0000306B0910406181619061A061B064CF5BA
:1043E0008091010690910206A0910306B091040607
:1043F0000197A109B1098093010690930206A09349
:104400000306B093040615C080916F008D7F8093E2
:104410006F009091A704E091A804F091A904808115
:10442000282F30E0892F90E0809590958223932368
:104430008083FF91EF91BF91AF919F918F913F91B9
:104440002F910F900FBE0F901F9018951F920F92F3
:104450000FB60F9211242F933F938F939F93AF9397
:10446000BF93EF93FF938091050690910606A0916C
:104470000706B0910806892B8A2B8B2B51F180916E
:10448000AA04E091AB04F091AC0490818927808369
:104490008091050690910606A0910706B091080646
:1044A000181619061A061B064CF580910506909100
:1044B0000606A0910706B09108060197A109B10967
:1044C0008093050690930606A0930706B09308060E
:1044D00015C080916E008D7F80936E009091AA042C
:1044E000E091AB04F091AC048081282F30E0892F5B
:1044F00090E080959095822393238083FF91EF91A4
:10450000BF91AF919F918F913F912F910F900FBECF
:104510000F901F9018953F924F925F926F927F92EB
:104520008F929F92AF92BF92CF92DF92EF92FF92C3
:104530000F931F93CF93DF93382E962E842EF9017D
:1045400084E6E816F1042CF082EBE81A87E0F80A1A
:1045500003C08EE1E80EF11CE0927605009375052C
:10456000E093740530927205909271058092700507
:10457000AE2DB0E020E833E341EE51E00E94002F81
:104580002B013C0122EB37E0FF2484E6C82ED12C1E
:10459000C0E9D1E0C901825B97408E159F05DCF42C
:1045A000C90183709927892B99F4C901B6010E942A
:1045B0000530892B31F4C901BE010E940530892BD9
:1045C00039F480E8480E81E5581E81E0681E711CB0
:1045D0002F5F3F4FDFCF8EE4E81A88EFF80AC7015C
:1045E00064E670E00E9405306C01C70160E971E08B
:1045F0000E9405305C01C1E0D0E0112783E0E82291
:10460000FF24C017D1072CF5C230D10589F4E1147D
:10461000F10471F4C114D10419F4A114B10441F4EA
:1046200080E8480E8BE3581E86E2681E711C0FC09E
:10463000DE01A252BD4FAC91B0E020E831E541E08F
:1046400050E00E94002F460E571E681E791E2196CC
:10465000D8CF292D30E0ACE3B0E00E94422F6B01AF
:104660007C01C80CD11CE11CF11C232D30E0A0E121
:10467000BEE00E94422FC60ED71EE81EF91EDF01C3
:10468000BB27119720E831E541E050E00E946030FF
:10469000DC01CB018C0D9D1DAE1DBF1DBC01CD01EC
:1046A000640D751D861D971DDF91CF911F910F9190
:1046B000FF90EF90DF90CF90BF90AF909F908F9042
:1046C0007F906F905F904F903F900C94F520CF9229
:1046D000DF92EF92FF920F931F930E94E920C09008
:1046E0007905D0907A05E0907B05F0907C058B01F0
:1046F0009C010C191D092E093F0980918305909199
:104700008405A0918505B0918605083E13402105DA
:104710003105D0F00196A11DB11D809383059093C2
:104720008405A0938505B0938605B701A60148517D
:104730005C4F6F4F7F4F4093790550937A0560939C
:104740007B0570937C05C9CF40917F055091800512
:10475000609181057091820584179507A607B707B8
:1047600088F1E0917705F0917805309759F1099536
:10477000611571058105910519F00E94F52022C08F
:104780008091830590918405A0918505B09186055F
:10479000845D9E4FAF4FBF4F80937F059093800500
:1047A000A0938105B093820581E090E020917D0582
:1047B00030917E05232B11F480E090E090937E05EC
:1047C00080937D05609183057091840580918505B6
:1047D000909186051F910F91FF90EF90DF90CF9001
:1047E00008953F924F925F926F927F928F929F9225
:1047F000AF92BF92CF92DF92EF92FF920F931F93EF
:10480000CF93DF9300D000D0CDB7DEB720910A065A
:1048100027FDAAC149835A836B837C838C0161E0A5
:10482000809109060E94EF1F30900A06832D8D7F2C
:104830004801A12CB12C09F0B7C060E072E18AE711
:1048400090E0A50194010E943B3029013A016901E1
:104850007A0121E0C21AD108E108F1088FEFC816E9
:10486000D104E104F10409F008F44CC060E472E4FE
:104870008FE090E0A50194010E943B3069017A012C
:1048800091E0C91AD108E108F108A2E03A1220C06B
:10489000BFEFCB16D104E104F10409F008F462C1C2
:1048A00060E970ED83E090E0A50194010E943B3047
:1048B00069017A01E1E0CE1AD108E108F108FFEFC1
:1048C000CF16D104E104F10409F0C0F583E065C01E
:1048D0002FEFC216D104E104F104B1F0A8F068E4AE
:1048E00078EE81E090E0A50194010E943B306901DF
:1048F0007A0181E0C81AD108E108F108332009F4EF
:10490000D9C027C181E001C082E0332091F045C0C9
:10491000D301C2012AE0B595A795979587952A9569
:10492000D1F76C017D01E1E0CE1AD108E108F10870
:1049300085E095B5987F892B85BD66C068E478EEE3
:1049400081E090E0A50194010E943B3069017A0169
:10495000B1E0CB1AD108E108F108EFEFCE16D1048F
:10496000E104F10409F008F4A3C064E274EF80E00C
:1049700090E0A50194010E943B3069017A0191E029
:10498000C91AD108E108F108AFEFCA16D104E10451
:10499000F10411F008F0B0C085E09091B100987F6B
:1049A000892B8093B10030C060E072E18AE790E02B
:1049B000A50194010E943B3069017A01F1E0CF1A10
:1049C000D108E108F108C114D10421E0E206F104A4
:1049D00088F068E478EE81E090E0A50194010E94FF
:1049E0003B3069017A0181E0C81AD108E108F10879
:1049F00093E001C091E0A1E03A1206C080918100ED
:104A0000887F892B8093810089819A81AB81BC81C9
:104A1000892B8A2B8B2B81F0D801AA0FBB1F2981F0
:104A20003A814B815C810E94002F28EE33E040E008
:104A300050E00E94193003C02FEF3FEFA90191E031
:104A40003916A1F0A2E03A1619F131108DC0C7BC99
:104A500020930506309306064093070650930806F8
:104A600080916E00826080936E007EC0D09289003B
:104A7000C0928800209301063093020640930306FB
:104A80005093040680916F00826080936F006CC029
:104A9000C092B3002093FD053093FE054093FF05BF
:104AA00050930006809170008260809370005CC01B
:104AB00084E073CF8FEFC816D104E104F104D1F084
:104AC000C8F062E17AE780E090E0A50194010E94DD
:104AD0003B3069017A01F1E0CF1AD108E108F10811
:104AE0002FEFC216D104E104F10411F008F010CF49
:104AF00084E01FCF83E01DCF62E17AE780E090E0A1
:104B0000A50194010E943B3069017A0191E0C91A24
:104B1000D108E108F108AFEFCA16D104E104F104AD
:104B2000B1F0A8F0D301C2014AE0B595A7959795D9
:104B300087954A95D1F76C017D01E1E0CE1AD10845
:104B4000E108F108332009F4F3CE87E026CF86E0B0
:104B5000DCCEBFEFCB16D104E104F10409F060F61E
:104B600084E0D3CE82E019CF0F900F900F900F907A
:104B7000DF91CF911F910F91FF90EF90DF90CF9039
:104B8000BF90AF909F908F907F906F905F904F906D
:104B90003F900895009769F0FC0101900020E9F72B
:104BA0003197AF01481B590BBC018BE096E00C9488
:104BB000C51D80E090E008950F931F93CF93DF937E
:104BC0008C01C0E0D0E0F801EC0FFD1F649166237A
:104BD00071F0E0910B06F0910C060190F081E02D50
:104BE0008BE096E00995892B11F02196ECCFCE0150
:104BF000DF91CF911F910F910895CF93DF930E9482
:104C0000DC25EC018DE293E00E94CA258C0F9D1FEC
:104C1000DF91CF9108959091DA059111FCCF813207
:104C200008F080E291E09093DA059093D9052FEF98
:104C30002093D8051092D705280F2093D60590937E
:104C4000D5059091D505906D9093D5059091D4059B
:104C5000913061F41092D4059091D5059093BB00EA
:104C60009091BC0093FDF8CF95EC01C095EE909328
:104C7000BC009091DA059130E1F39091D705981737
:104C800010F48091D705A4EBB5E02DED35E0F901E6
:104C90009E2F921B981718F49D919193F9CF109223
:104CA000DC058093DB0508952091B3059091B20552
:104CB000213208F04AC08091DA058111FCCF32E040
:104CC0003093DA0531E03093D9053FEF3093D805C2
:104CD0001092D7052093D605A2E9B5E044EB55E044
:104CE000FA013E2F341B321718F43D913193F9CF5E
:104CF0001092D5052091D505990F922B9093D5054B
:104D00009091D405913061F41092D4059091D5051D
:104D10009093BB009091BC0093FDF8CF95EC01C03F
:104D200095EE9093BC009091DA059230E1F390916A
:104D3000D8059F3F79F08091D805803241F080916D
:104D4000D805803331F084E005C081E003C082E003
:104D500001C083E0109291051092B3051092900566
:104D6000089580910507E0910607F0910707F894F0
:104D70009181982B91832281982F909529232283CA
:104D8000A7E0B0E01197F1F7218192239183A3E28C
:104D9000B0E01197F1F790817894EFECF0E0319763
:104DA000F1F7982381E009F480E0089590910507D8
:104DB000E0910607F0910707392F309580FF13C067
:104DC000F8942281832F822382838181892B81839E
:104DD000A3E2B0E01197F1F78281982B9283789447
:104DE00087ED90E012C0F8942281832F8223828382
:104DF0008181892B8183AFEFB0E01197F1F7828138
:104E0000982B928378948FE090E00197F1F70895C2
:104E10000F931F93CF93DF93082FC8E0D0E011E0EA
:104E200081E0912F902309F480E00E94D626110F93
:104E30002197B1F7F894E0910607F0910707918167
:104E400080910507809598239183E0910607F09162
:104E500007079281892382837894DF91CF911F91F4
:104E60000F91089590910507E0910607F0910707CB
:104E7000F8948181292F20958223818378948DE76E
:104E800043E050E0815021F1DA011197F1F73081D0
:104E90003923C1F3F8948281822382838181892B13
:104EA00081837894ABE7B7E01197F1F7F8948181AB
:104EB00028232183A3E1B1E01197F1F780819823A2
:104EC00081E009F080E07894E3E6F6E03197F1F7CD
:104ED0000895CF93DF93CDB7DEB7CF54D1090FB686
:104EE000F894DEBF0FBECDBF789484B5826084BDD8
:104EF00084B5816084BD85B5826085BD85B58160DE
:104F000085BD80916E00816080936E00109281005B
:104F10008091810082608093810080918100816016
:104F200080938100809180008160809380008091D7
:104F3000B10084608093B1008091B0008160809363
:104F4000B00080917A00846080937A0080917A002A
:104F5000826080937A0080917A00816080937A00E9
:104F600080917A00806880937A001092C10010923C
:104F7000DC051092DB05109291051092B30510929A
:104F8000DA0581E08093D9051092D40561E082E1D1
:104F90000E94BF1F61E083E10E94BF1F8091B900A2
:104FA0008E7F8093B9008091B9008D7F8093B90086
:104FB00088E48093B80085E48093BC00E0911B06F0
:104FC000F0911C0682E08083E0911706F0911806AC
:104FD0001082E0911906F0911A0680E18083109208
:104FE0002306E0911F06F091200686E08083E09181
:104FF0001D06F0911E06808180618083E0911D0670
:10500000F0911E06808188608083E0911D06F091FA
:105010001E06808180688083E0911D06F0911E0647
:1050200080818F7D808383E398E090939C018093BF
:105030009B0181EE97E090937401809373019093AC
:105040004C0180934B0180EF90E09093240180937A
:10505000230181E090E00E94A5138C3019F088E1D3
:1050600090E002C08CE090E090935601809355014F
:1050700080E090E00E94A513882321F081E08093D6
:105080000A0102C010920A0182E090E00E94A5137A
:105090008F3F29F410924E0110924D0105C090E00F
:1050A00090934E0180934D0183E090E00E94A51300
:1050B0008F3F29F41092500110924F0105C090E0EB
:1050C0009093500180934F0184E090E00E94A513DB
:1050D0008F3F29F4109252011092510105C090E0C7
:1050E000909352018093510186E090E00E94A513B5
:1050F0008F3F29F4109254011092530105C090E0A3
:10510000909354018093530187E090E00E94A5138F
:105110008F3F19F41092BD0406C091E0811101C0C7
:1051200090E09093BD048BE090E00E94A5138F3F28
:1051300029F4109258011092570105C090E0909305
:105140005801809357018CE090E00E94A5138F3F97
:1051500059F02091810130918201A901480F511D20
:1051600050935A01409359018DE090E00E94A5139D
:105170008F3F29F090E0909346018093450161E0D4
:1051800089E00E94EF1F61E086E00E94EF1F61E06E
:1051900083E00E94EF1F8091BE04833008F083C03B
:1051A00092E090930906E82FF0E0E154FF4FE4917C
:1051B000E0930A068F5F8093BE04E13031F1E23064
:1051C00009F44AC0E11172C014BC15BC84B58260F8
:1051D00084BD85B5816085BD8091090690E0FC01A4
:1051E000ED5BFE4FE491F0E0EE0FFF1FEB54FF4F3D
:1051F000259134913093AC042093AB04FC01E95A1F
:10520000FE4FE491E093AA0451C0109280001092E6
:10521000810080918100886080938100809181006D
:105220008160809381008091090690E0FC01ED5B34
:10523000FE4FE491F0E0EE0FFF1FEB54FF4F25917E
:1052400034913093A9042093A804FC01E95AFE4F3D
:10525000E491E093A7042AC01092B0001092B1002C
:105260008091B00082608093B0008091B100816035
:105270008093B1008091090690E0FC01ED5BFE4F48
:10528000E491F0E0EE0FFF1FEB54FF4F25913491B6
:105290003093A6042093A504FC01E95AFE4FE49143
:1052A000E093A40403C08FEF80930A068091080165
:1052B000909109010E946A19909309018093080155
:1052C00061E08AE00E94EF1F1FB7F8948091BF044D
:1052D000811127C0EDE4F1E08491E1E6F1E09491E1
:1052E000E82FF0E0EE0FFF1FEE53FF4FA591B491B2
:1052F000EC91E92321F461E08AE00E94BF1F61E0A4
:105300008AE00E94EF1F8CB580618CBD8CB58064F3
:105310008CBD61E08DE00E94EF1F61E08BE00E9498
:10532000EF1F8091BF048F5F8093BF041FBF8CB5B8
:10533000837F88608CBD8CB58C7F81608CBD8DB582
:1053400081608DBD62E08EE00E94EF1F62E080E12F
:105350000E94EF1F62E08FE00E94EF1F61E082E099
:105360000E94EF1F04E110E020E030E00093E90626
:105370001093EA062093EB063093EC064EE150E0E2
:1053800060E070E04093ED065093EE066093EF0608
:105390007093F00680ED97E0A0E0B0E08093F10616
:1053A0009093F206A093F306B093F4060093D00610
:1053B0001093D1062093D2063093D3064093D4069F
:1053C0005093D5066093D6067093D7068093D8067F
:1053D0009093D906A093DA06B093DB060093B70644
:1053E0001093B8062093B9063093BA064093BB06D3
:1053F0005093BC066093BD067093BE068093BF06B3
:105400009093C006A093C106B093C20689EF90E0C6
:105410000E94DC2525E030E042E050E06FE177E0DB
:10542000CE0101967C010E94EF0E22E030E041E0C7
:1054300050E06FE177E0CE01875B9F4F0E94EF0E57
:10544000BE01675B7F4FCE018D5B9F4F0E94201F87
:105450006BE273E0CE018D5B9F4F0E94520EB7014D
:105460000E946B0EFC0144815581608171818BE04B
:1054700096E00E94C51D8DE293E00E94CA25CE01F0
:105480008D5B9F4F0E944C0FCE01875B9F4F0E9408
:105490004C0FC7010E944C0F80E393E00E94CA2585
:1054A0008DE293E00E94CA258EEE90E00E94FD25D9
:1054B00080910801909109019093AF048093AE040C
:1054C0000E946A196FEF70E089E00E942B2068EE5D
:1054D00073E080E090E00E94AF2060E070E089E03F
:1054E0000E942B206FEF70E086E00E942B2068EE78
:1054F00073E080E090E00E94AF2060E070E086E022
:105500000E942B206FEF70E083E00E942B2068EE5A
:1055100073E080E090E00E94AF2060E070E083E004
:105520000E942B2061E473E0C7010E94291F6BE4F5
:1055300073E0CE0107960E94291F65E573E0CE0156
:105540000D960E94291F6FE573E0CE0143960E94DD
:10555000291F69E673E0CE0149960E94291F63E77F
:1055600073E0CE014F960E94291F6DE773E0CE01D4
:1055700085960E94291F67E873E0CE018B960E94F2
:10558000291F61E973E0CE01C1960E94291F6BE9D2
:1055900073E0CE01C7960E94291F6FE273E0CE012F
:1055A000CD960E94291F6FE177E0CE018D5B9F4F62
:1055B0000E94201F68E473E0CE018D5B9F4F0E9424
:1055C000520EBC01CE01CD960E94350FCE018D5BEF
:1055D0009F4F0E944C0F0E94E9202B013C01F8EEE6
:1055E0004F0EF3E05F1E611C711C912C1FEF34EF16
:1055F000C32EDD24D39446E0842E5BE3A52E5FE129
:10560000B52E8FE00E94961F892B11F49924939454
:1056100080E10E94961F892B09F4912C0E94E920B9
:10562000DC01CB0184199509A609B70996010D2C57
:10563000000C440B550B281739074A075B07F8F491
:105640000E94E9202B013C01911001C01F5F1A301C
:1056500011F038F404C020EDC22E27E0D22E01E074
:1056600002C01AE000E0B701819E600D711D112497
:105670008FEF96E00E94350F0E94A71301C001E052
:10568000C5010197F1F70111BCCF8091120781117B
:1056900004C00E94322781110BC010921007109293
:1056A00012071092110786ED90E00E94FD2567C059
:1056B00080EF0E94082701E0D12CC12C11E00E944C
:1056C000B12660968FAF60970E94B12660969FAD1D
:1056D0006097913019F48130C1F435C02D2D30E040
:1056E00098131DC080911007181738F4F901EB5F6B
:1056F000F84F8381802349F402C0181731F090E0FD
:10570000193060F41093110709C0ED2DF0E0EB5F44
:10571000F84F8381802B838391E009C0C12EF9016A
:10572000EB5FF84F2381802F809582238383892F1D
:105730000E94D6261F5F000F11F4D39401E027E0EA
:105740002D1508F0BCCF113408F4A7CFC092100774
:10575000C11003C081E0809312078091080788235D
:1057600009F49BCFA8E0B7E0E0ECF4E08D918193E1
:1057700044E0E83CF407D1F781E08093AD048CEC81
:1057800090E00E94FD258E010D5B1F4F0650110910
:10579000C8010E944C0F0E151F05C1F781E08093D0
:1057A000900588E68093B205109291051092B3059A
:1057B00061E188EA96E00E94DF0F0E94542682E0B1
:1057C00090E00E940B2688EA96E00E94930F182F23
:1057D0008BE191E00E94DC25C12E012E000CDD083A
:1057E000EE08FF08F7FE2BC0E0910B06F0910C06C7
:1057F0000190F081E02D6DE28BE096E00995222783
:105800003327A9012C193D094E095F0919A2CE01C0
:1058100081967C019AE0892E912CA12CB12CCA0191
:10582000B901A50194010E941930605DF7016293EE
:105830007F01211531054105510589F71AC0A701DE
:10584000960119A2CE0181967C018AE0882E912CC6
:10585000A12CB12CCA01B901A50194010E941930F3
:10586000605DF70162937F01211531054105510506
:1058700089F7C7010E94CA258DE293E00E94CA25DC
:1058800015501D3338F48091BD048823D9F00E944F
:10589000F21818C08CE091E00E94FD2505E010E0B0
:1058A00048EE53E060E070E088EE93E00E94F12360
:1058B00060ED77E080E090E00E94AF200150110998
:1058C00079F7E1CF0E94541A0091BB041091BC04F7
:1058D0000E94E9206B017C0181E08093BA041127CA
:1058E0008091BB049091BC040817190789F40E94A9
:1058F000541A0E94E920DC01CB018C199D09AE09E4
:10590000BF09893B9B40A105B10550F31092BA0431
:10591000E090B804F090B9040091B6041091B70477
:105920002091B4043091B5044091BB045091BC0463
:105930006091B2047091B3048091B0049091B1046D
:105940000E948B220E94E2000E94C11EFBCF8FEFBB
:1059500096E00E944C0F8FE197E00C944C0F109250
:105960000E0610920D0688EE93E0A0E0B0E0809362
:105970000F0690931006A0931106B09312062FEE17
:1059800032E030930C0620930B0625EC30E0309388
:1059900018062093170624EC30E030931A06209363
:1059A000190620EC30E030931C0620931B0621ECF6
:1059B00030E030931E0620931D0622EC30E0309339
:1059C000200620931F0626EC30E030932206209319
:1059D0002106109224061092250610922606109297
:1059E00027061092AB061092AA068093AC069093FD
:1059F000AD06A093AE06B093AF0681E093E090931E
:105A0000A9068093A8066CE174E08FE197E00E94FC
:105A1000291F10921A0760E087E00E94EF1FEEE551
:105A2000F1E0E491E0930507EAE4F1E0E491F0E0CD
:105A3000EE0FFF1FE75CFE4F85919491909307074F
:105A40008093060710921007109212071092110708
:105A5000E0E1F7E0129287E0E830F807D9F764E474
:105A600073E08FEF96E00E94291F21E040E06EE096
:105A700086EE96E00E942A1221E040E060E18DEC83
:105A800096E00E942A1221E040E06FE084EB96E06D
:105A90000C942A121F93FC0199278827BC01E894D3
:105AA00011911032E9F3193010F01E30C8F31B3297
:105AB00051F01D3249F4689406C00E94872D610F91
:105AC000711D811D911D119110531A30B0F33EF4D8
:105AD00090958095709561957F4F8F4F9F4F1F9147
