:100000000C94A7000C94CF000C94CF000C94CF005C
:100010000C94CF000C94CF000C94CF000C943E268F
:100020000C94CF000C94CF000C94CF000C948D2630
:100030000C94CF000C94CF000C94E8260C94CF00C5
:100040000C949C250C94CF000C940C260C94E62563
:100050000C94CF000C94CF000C94CF000C94CF00E4
:100060000C9443270C94CF00496E636F72726563E2
:100070007420536F6E6720466F726D6174210002A9
:10008000010053746F7020546573740054656D7073
:100090002E2073656E736F72206E6F7420666F759D
:1000A0006E642E0053746172742054657374004E34
:1000B00043533331342D384320485720322E782093
:1000C000485635313232206F72204856353232323E
:1000D000004669726D776172652076657273696F2B
:1000E0006E3A20004661756C7479205254432100A9
:1000F00000000000240027002A0000000000250066
:1001000028002B0000000008000201000003040783
:100110000000000000000000000000002300260096
:10012000290004040404040404040202020202027A
:1001300003030303030301020408102040800102AB
:10014000040810200102040810209B28832E11248B
:100150001FBECFEFD8E0DEBFCDBF27E0A4E1B4E003
:1001600001C01D92A232B207E1F714E0A0E0B1E0B5
:10017000E2E6F7E602C005900D92A431B107D9F787
:1001800010E0C6EAD0E004C02197FE010E94903141
:10019000C53AD107C9F70E9426290C94A4330C94C0
:1001A00000008CBD9DBD089580910A07E0910B076A
:1001B000F0910C07F8949181982B91832281382F2C
:1001C000309523232283A7E0B0E01197F1F79181C6
:1001D00093239183A3E2B0E01197F1F79081789493
:1001E000EFECF0E03197F1F7982381E009F480E03B
:1001F000089590910A07E0910B07F0910C07292FC1
:10020000209580FF14C0F8948281822382838181AB
:10021000892B8183A3E2B0E01197F1F78281982BBB
:100220009283789487ED90E00197F1F70895F89420
:100230008281822382838181892B8183AFEFB0E029
:100240001197F1F78281982B928378948FE090E058
:10025000EBCF0F931F93CF93DF93082FC8E0D0E02D
:1002600011E081E0902F912309F480E00E94F900D1
:10027000110F2197B1F7F894E0910B07F0910C075B
:10028000918180910A07809598239183E0910B07D3
:10029000F0910C079281892382837894DF91CF912A
:1002A0001F910F91089580910A07E0910B07F0913B
:1002B0000C07F8949181282F2095922391837894AC
:1002C0003DE743E050E0315029F1DA011197F1F7B1
:1002D00090819823C1F3F894928192239283918123
:1002E000982B91837894ABE7B7E01197F1F7F894E6
:1002F000918192239183A3E1B1E01197F1F790816D
:10030000982381E009F080E07894E3E6F6E0319705
:10031000F1F7089580E0089591E09093DE058093D1
:1003200000061092DF05109201060895833081F0D7
:1003300028F4813099F08230A9F008958730A9F02F
:100340008830C9F08430B1F4809180008F7D03C083
:10035000809180008F7780938000089584B58F7797
:1003600084BD089584B58F7DFBCF8091B0008F77D9
:100370008093B00008958091B0008F7DF9CFCF9326
:10038000DF93282F30E0F901EC5FFE4F8491F901F3
:10039000EA5CFE4FD491F901EE5DFE4FC491CC238F
:1003A000A1F081110E949601EC2FF0E0EE0FFF1FEB
:1003B000E85EFE4FA591B491EC91ED2381E090E0D1
:1003C00009F480E0DF91CF91089580E090E0FACFCA
:1003D0001F93CF93DF93282F30E0F901EC5FFE4F9E
:1003E0008491F901EA5CFE4FD491F901EE5DFE4F74
:1003F000C491CC23A9F0162F81110E949601EC2FF5
:10040000F0E0EE0FFF1FE650FF4FA591B4918FB7BC
:10041000F894EC91111108C0D095DE23DC938FBFC6
:10042000DF91CF911F910895DE2BF8CFCF93DF930B
:1004300090E0FC01EA5CFE4F24918E5D9E4FFC0132
:1004400084918823C9F090E0880F991FFC01E05146
:10045000FF4FA591B491FC01E650FF4FC591D49197
:1004600061110DC09FB7F8948C91209582238C93D5
:100470008881282328839FBFDF91CF910895623020
:1004800051F49FB7F8943C91822F809583238C93ED
:10049000E8812E2BEFCF8FB7F894EC912E2B2C9375
:1004A0008FBFEACF4F925F926F927F928F929F920F
:1004B000AF92BF92CF92DF92EF92FF920F931F9372
:1004C000CF93DF9300D000D01F92CDB7DEB720913D
:1004D0000F0627FD2CC149835A836B837C838C01D3
:1004E00061E080910E060E94160280910F068D83B6
:1004F0004801B12CA12C8D7F09F031C160E072E17F
:100500008AE790E0A50198010E94713129013A0122
:100510007A01690191E0C91AD108E108F108AFEF49
:10052000CA16D104E104F10409F00CF4C7C060E478
:1005300072E48FE090E0A50198010E947131690199
:100540007A01B1E0CB1AD108E108F1088D8182303F
:1005500009F06AC082E09FEFC916D104E104F104FA
:1005600009F00CF45EC160E970ED83E090E0A50154
:1005700098010E94713169017A01A1E0CA1AD1087B
:10058000E108F10883E0BFEFCB16D104E104F104E8
:1005900009F00CF446C168E478EE81E090E0A50132
:1005A00098010E94713169017A0181E0C81AD1086D
:1005B000E108F10884E09FEFC916D104E104F104D9
:1005C00009F00CF42EC164E274EF80E090E0A50124
:1005D00094010E94713169017A01B1E0CB1AD1080E
:1005E000E108F10885E09FEFC916D104E104F104A8
:1005F00009F008F416C162E17AE780E090E0A50115
:1006000094010E94713169017A01B1E0CB1AD108DD
:10061000E108F1088FEFC816D104E104F10411F0EC
:1006200008F0F0C086E0FDC08FEFC816D104E104E9
:10063000F10409F00CF491C068E478EE81E090E0F8
:10064000A50198010E94713169017A0191E0C91AEE
:10065000D108E108F108AD8184E0A111C4CF83E0A5
:10066000AFEFCA16D104E104F10461F15CF162E17B
:100670007AE780E090E0A50194010E947131690160
:100680007A0181E0C81AD108E108F10884E09FEFFF
:10069000C916D104E104F104A9F0A0F073016201CC
:1006A0009AE0F594E794D794C7949A95D1F7A1E08E
:1006B000CA1AD108E108F10885E004C081E0AD81E3
:1006C000A111AFC095B5987F892B85BD89819A818D
:1006D000AB81BC812FEF3FEFA901892B8A2B8B2B9C
:1006E00079F0D801AA0FBB1F29813A814B815C8127
:1006F0000E94363028EE33E040E050E00E944F3157
:100700009D81913009F45CC0923009F46BC0911165
:100710000EC0C7BC20930A0630930B0640930C060C
:1007200050930D0680916E00826080936E000F9052
:100730000F900F900F900F90DF91CF911F910F911D
:10074000FF90EF90DF90CF90BF90AF909F908F90F1
:100750007F906F905F904F90089582E0B0CF60E0FF
:1007600072E18AE790E0A50198010E947131690168
:100770007A01B1E0CB1AD108E108F10891E0C11487
:10078000D10481E0E806F10484F068E478EE81E0C9
:1007900090E0A50198010E94713169017A0191E010
:1007A000C91AD108E108F10893E0AD81A13009F040
:1007B0008DCF80918100887F892B8093810086CFA7
:1007C000D0928900C09288002093060630930706D5
:1007D000409308065093090680916F0082608093D1
:1007E0006F00A5CFC092B30020930206309303069A
:1007F00040930406509305068091700082608093B8
:10080000700095CF730162018AE0F594E794D79464
:10081000C7948A95D1F7B1E0CB1AD108E108F10865
:1008200087E09091B100987F892B8093B1004ECFE3
:100830001F93CF93DF93182FEB0161E00E94160204
:10084000209739F460E0812FDF91CF911F910C94B4
:10085000E801CF3FD10511F461E0F5CFE12FF0E0E1
:10086000EC5FFE4FE491E33031F140F4E130B1F060
:10087000E230E1F0C038D1057CF7E4CFE73029F170
:10088000E83059F1E430B1F78091800080628093C4
:100890008000D0938B00C0938A0004C084B5806828
:1008A00084BDC7BDDF91CF911F91089584B580624B
:1008B00084BDC8BDF7CF80918000806880938000A0
:1008C000D0938900C0938800EDCF8091B0008068FC
:1008D0008093B000C093B300E5CF8091B0008062F8
:1008E0008093B000C093B400DDCF3FB7F8948091FF
:1008F0008C0590918D05A0918E05B0918F0526B540
:10090000A89B05C02F3F19F00196A11DB11D3FBF47
:10091000BA2FA92F982F8827BC01CD01620F711D16
:10092000811D911D42E0660F771F881F991F4A9510
:10093000D1F708958F929F92AF92BF92CF92DF929C
:10094000EF92FF924B015C010E9475046B017C01E8
:100950000E9475046C197D098E099F09683E7340D9
:1009600081059105A8F321E0821A9108A108B10838
:1009700088EEC80E83E0D81EE11CF11C811491049E
:10098000A104B10429F7FF90EF90DF90CF90BF90C2
:10099000AF909F908F9008952FB7F894609188053D
:1009A0007091890580918A0590918B052FBF0895DC
:1009B000089508950895AF92BF92CF92DF92EF927B
:1009C000FF920F931F93CF93DF936C017B018B01F9
:1009D000040F151FEB015E01AE18BF08C017D10749
:1009E00059F06991D601ED91FC910190F081E02DD3
:1009F000C6010995892B79F7C501DF91CF911F9128
:100A00000F91FF90EF90DF90CF90BF90AF9008953F
:100A100042E050E060E173E080E196E00C94DB049A
:100A2000FC01538D448D252F30E0842F90E0821BF4
:100A3000930B541710F0CF96089501970895FC0179
:100A4000918D828D981761F0A28DAE0FBF2FB11DD1
:100A50005D968C91928D9F5F9F73928F90E0089529
:100A60008FEF9FEF0895FC01918D828D981731F0E3
:100A7000828DE80FF11D858D90E008958FEF9FEF37
:100A80000895FC01918D228D892F90E0805C9F4F0D
:100A9000821B91098F739927089580E196E00E9447
:100AA000410521E0892B09F420E0822F089580E0A0
:100AB00090E0892B29F00E944D0581110C940000D3
:100AC0000895FC01A48DA80FB92FB11DA35ABF4FE3
:100AD0002C91848D90E001968F739927848FA6893D
:100AE000B7892C93A089B1898C91837080648C9391
:100AF000938D848D981306C00288F389E02D808140
:100B00008F7D80830895EF92FF920F931F93CF9371
:100B1000DF93EC0181E0888F9B8D8C8D98131AC038
:100B2000E889F989808185FF15C09FB7F894EE891F
:100B3000FF896083E889F98980818370806480837C
:100B40009FBF81E090E0DF91CF911F910F91FF90C7
:100B5000EF900895F62E0B8D10E00F5F1F4F0F736F
:100B60001127E02E8C8D8E110CC00FB607FCFACF2A
:100B7000E889F989808185FFF5CFCE010E94610562
:100B8000F1CFEB8DEC0FFD2FF11DE35AFF4FF082FB
:100B90009FB7F8940B8FEA89FB8980818062CFCF61
:100BA0000F931F93CF93DF938C01D0E0C0E0F80147
:100BB000EC0FFD1F6491662341F080E196E00E94F6
:100BC0008305892B11F02196F2CFCE01DF91CF91D1
:100BD0001F910F910895CF93DF930E94D005EC01F0
:100BE0000E9408058C0F9D1FDF91CF910895CF9330
:100BF000DF93EC01888D8823B9F0AA89BB89E88945
:100C0000F9898C9185FD03C0808186FD0DC00FB6EA
:100C100007FCF7CF8C9185FFF2CF808185FFEDCF68
:100C2000CE010E946105E9CFDF91CF9108956093D5
:100C30005305709354058093550590935605645D54
:100C40007E4F8F4F9F4F60934F0570935005809359
:100C500051059093520582E090E090934E05809369
:100C60004D050E94CC046093490570934A0580931A
:100C70004B0590934C0508952F923F924F925F92AF
:100C80006F927F928F929F92AF92BF92CF92DF929C
:100C9000EF92FF920F931F93CF93DF93382E962EF0
:100CA000842E222E84E6E816F1040CF459C092EB4F
:100CB000E91A97E0F90AE0925D0500935C0520923D
:100CC0005B05309259059092580580925705AE2DDC
:100CD000B0E020E833E341EE51E00E9436302B01D2
:100CE0003C0122EB37E0FF24E4E6F0E0C0E9D1E08C
:100CF000C901825B97408E159F05B4F19EE4E91A05
:100D000098EFF90AC70164E670E00E943B316C017C
:100D1000C70160E971E00E943B315C01C0EED2E0A6
:100D2000E1E0F0E0112783E0E822FF24E017F1077B
:100D30000CF042C0E230F10591F5E114F10479F5CF
:100D4000C114D10419F4A114B10449F580E8480E86
:100D50008BE3581E86E2681E711C31962196E6CF01
:100D60008EE1E80EF11CA7CFC90183709927892B6A
:100D700099F4C901BF010E943B31892B31F4C901AB
:100D8000BE010E943B31892B39F490E8490E91E570
:100D9000591E91E0691E711C2F5F3F4FA9CFA8819A
:100DA000B0E020E831E541E050E00E943630460EE8
:100DB000571E681E791ED1CF292D30E0ACE3B0E07C
:100DC0000E9478306B017C01C80CD11CE11CF11C25
:100DD000232D30E0A0E1BEE00E947830C60ED71E81
:100DE000E81EF91E822D8150990BDC0120E831E5C7
:100DF00041E050E00E9496316C0D7D1D8E1D9F1DBF
:100E0000640D751D861D971DDF91CF911F910F9168
:100E1000FF90EF90DF90CF90BF90AF909F908F901A
:100E20007F906F905F904F903F902F900C9417069B
:100E3000CF92DF92EF92FF920F931F930E94CC0408
:100E40008B019C01C0904905D0904A05E0904B056C
:100E5000F0904C05609153057091540580915505B3
:100E6000909156050C191D092E093F09083E1340A3
:100E700021053105E0F0DC01CB010196A11DB11D7A
:100E80008093530590935405A0935505B093560550
:100E9000B701A60148515C4F6F4F7F4F4093490502
:100EA00050934A0560934B0570934C05C7CF1F9133
:100EB0000F91FF90EF90DF90CF9008954F925F9247
:100EC0006F927F928F929F92AF92BF92CF92DF925A
:100ED000EF92FF920F931F93CF93DF934B015C012F
:100EE0008091450590914605A0914705B091480530
:100EF00088159905AA05BB0509F4C6C08CE3C82E60
:100F0000D12CE12CF12CC501A70196010E944F3193
:100F100060935705CA01B901A70196010E944F319C
:100F200060935805C501B40120E13EE040E050E087
:100F30000E944F31CA01B90128E130E040E050E0A1
:100F40000E944F3160935905C501B40120E831E595
:100F500041E050E00E944F3169017A01CA01B901B4
:100F60006C5F7F4F8F4F9F4F27E030E040E050E0B5
:100F70000E944F316F5F60935A05412C512C320112
:100F800040E004E610E0C0E9D1E0242F30E02E5428
:100F9000384FF901E370FF273097F9F4C901B80120
:100FA0000E943B31892B31F4C901BE010E943B31C3
:100FB000892B99F48EE691E0A0E0B0E0480E591E2E
:100FC0006A1E7B1ED301C201AA27BB27C816D906F9
:100FD000EA06FB0638F04F5FD8CF8DE691E0A0E03F
:100FE000B0E0ECCF40935D05C90164E670E00E947B
:100FF0003B31EC01C90160E971E00E943B3130975F
:1010000021F42097D9F40097C9F04DE651E060E053
:1010100070E0441A550A660A770AC418D508E6082B
:10102000F708A0EEB2E020E0213069F43097E9F54E
:10103000209711F40097C9F54DE106C04EE651E046
:1010400060E070E0E6CF4C9150E070E060E031E0AD
:10105000320FC416D506E606F70640F0C41AD50AC4
:10106000E60AF70A1196232F3C30F1F62F5F209302
:101070005C05C394C0925B0580924505909246053D
:10108000A0924705B0924805DF91CF911F910F9133
:10109000FF90EF90DF90CF90BF90AF909F908F9098
:1010A0007F906F905F904F9008954CE1CDCF0E945C
:1010B00018070E945E0780915D0590E08E54984F5E
:1010C00008950E9418070E945E0780915C0590E0D9
:1010D00008950E9418070E945E0780915B0590E0CA
:1010E00008950E9418070E945E078091570590E0BE
:1010F00008950E9418070E945E078091580590E0AD
:1011000008950E9418070E945E078091590590E09B
:101110000895CF92DF92EF92FF92CF93DF93EC018D
:101120000E94CC046B017C018F850E94BF019C0151
:1011300081E02115310509F480E0898B88898111CE
:1011400005C091E0232B09F090E0998B29898A89C9
:10115000281721F0CD8ADE8AEF8AF88E8D899E8944
:10116000AF89B88DB701A601481B590B6A0B7B0BE1
:10117000DB01CA01CB80DC80ED80FE80C816D90679
:10118000EA06FB0664F43A81231749F02A832223F6
:1011900049F04B895C894F5F5F4F5C8B4B8B3A8189
:1011A000311117C0CF80D884E984FA84C816D906D3
:1011B000EA06FB0634F48B899C89998388831C8A10
:1011C0001B8A2A8BDF91CF91FF90EF90DF90CF9019
:1011D0000895CB84DC84ED84FE84C816D906EA0623
:1011E000FB067CF78B899C89919581959109E5CFC8
:1011F00020912205260F3327331F21323105ECF4CD
:101200002091D805FC0190E080E0243069F082E074
:101210000895A09122052191AC014E5F5A4FA40F71
:10122000B52FB11D2C930196861798F38091220556
:10123000680F6093220580E0089581E00895109280
:10124000D80581E08093D7051092B20561E082E174
:101250000E94E80161E083E10E94E801E9EBF0E02F
:1012600080818E7F808380818D7F808388E48093DE
:10127000B80085E48093BC000895CF93DF9391E09C
:10128000909301058823B9F0C091B800D091BA00BD
:101290008091BC008A7B8093BC0060E082E10E9468
:1012A000E80160E083E10E94E8010E941F09D093F9
:1012B000BA00C093B800DF91CF910895CF92DF922A
:1012C000EF92FF920F931F93CF93DF93D09101067C
:1012D00081E0D13208F09CC0C09100060E947504E4
:1012E0006B017C018091D80581116CC082E08093F4
:1012F000D80581E08093D7058FEF8093D6051092B3
:10130000D505D093D405A0EEB5E0E4EBF5E080E0A0
:10131000D8138DC01092B3058091B305CC0FC82BA4
:10132000C093B3058091B205813009F084C010925A
:10133000B2050E9475046B017C018091B305809316
:10134000BB008091DA059091DB05A091DC05B0919E
:10135000DD05892B8A2B8B2BA1F00E94750400914F
:10136000DA051091DB052091DC053091DD056C1963
:101370007D098E099F09061717072807390708F402
:1013800042C08091BC0083FDD8CF85EC8093BC0027
:101390000E9475046B017C018091D805823009F4AC
:1013A0004CC08091D6058F3F09F469C08091D60565
:1013B000803209F466C08091D605803309F463C099
:1013C00084E026C08091DA059091DB05A091DC05D0
:1013D000B091DD05892B8A2B8B2B09F483CF0E94DA
:1013E00075040091DA051091DB052091DC05309140
:1013F000DD056C197D098E099F0906171707280757
:10140000390708F06FCF8091D9050E943D0985E02A
:101410001092DF05109201061092DE05DF91CF9148
:101420001F910F91FF90EF90DF90CF9008959D91C5
:1014300091938F5F6DCF85EEA9CF8091DA05909162
:10144000DB05A091DC05B091DD05892B8A2B8B2B68
:1014500009F4A2CF0E9475040091DA051091DB0512
:101460002091DC053091DD056C197D098E099F09FD
:10147000061717072807390708F08ECFC4CF80E07A
:10148000C7CF82E0C5CF83E0C3CF0895E091910537
:1014900080919005E81730F4F0E0EE56FA4F808125
:1014A00090E008958FEF9FEF0895909191058091BE
:1014B00090052FEF3FEF981748F4E92FF0E0EE5634
:1014C000FA4F208130E09F5F90939105C901089504
:1014D0008091900590919105891B990B0895CF9269
:1014E000DF92EF92FF920F931F93CF93DF937C01D4
:1014F000CB018A012091DE05222389F0EB016B01EB
:10150000C40ED51ECC15DD0569F06991D701ED91AA
:10151000FC910190F081E02DC7010995F3CF642F74
:101520000E94F808C801DF91CF911F910F91FF90A1
:10153000EF90DF90CF900895CF93DF931F92CDB7B8
:10154000DEB769832091DE052223F9F020910106A0
:10155000203258F021E030E0FC013383228390E018
:1015600080E00F90DF91CF9108958091DF05E82F03
:10157000F0E0E052FA4F998190838F5F8093DF050E
:101580008093010681E090E0ECCF61E0CE0101960E
:101590000E94F808F7CF682F8DEA96E00C949C0A19
:1015A00090E080E00895CF92DF92EF92FF920F9348
:1015B0001F93CF93DF939091000591110BC08FEF94
:1015C0009FEFDF91CF911F910F91FF90EF90DF90F0
:1015D000CF9008959091FF04992389F3082FC0912B
:1015E000FE04D0E08091F60481110DC00E94CC046D
:1015F0006093F2047093F3048093F4049093F504E1
:1016000081E08093F6040E94CC04C090F204D09054
:10161000F304E090F404F090F5046C197D098E0950
:101620009F096D32714081059105B0F01091F10470
:101630000E94CC046093F2047093F3048093F4044A
:101640009093F50491E091279093F104992331F15F
:101650001092F0041092EF042091EF043091F00406
:10166000209530958091EE04282326FF1CC081E050
:101670008093ED0427FF1AC081E08093EC048091F1
:10168000F104882309F49BCF02C0D595C7950A952C
:10169000E2F7C0FF94CF80E09CE393CFD093F004B7
:1016A000C093EF04D9CF1092ED04E4CF1092EC0474
:1016B000E6CFEF92FF920F931F93CF93DF93182FF4
:1016C0008091C60481110DC00E94CC046093C204B5
:1016D0007093C3048093C4049093C50481E0809305
:1016E000C604C091C004D091C104C930D10508F02E
:1016F00075C0FE01E258F44F0C949031870B930BA8
:10170000970BA50B870B930BCA0BCC0BDD0B0E9421
:1017100053012196CA30D10509F091C01092C1043D
:101720001092C00428C08CEC0E942901F2CF84E4FE
:101730000E9429010E94CC046093C2047093C304E8
:101740008093C4049093C504E4CF0E94CC0400911C
:10175000C2041091C3042091C4043091C504601BDD
:10176000710B820B930BC4E0D0E06E3E724081059A
:10177000910508F064C06091BC047091BD04809133
:10178000BE049091BF04DF91CF911F910F91FF9004
:10179000EF9008958EEBC8CF98E0E92EF12C10E081
:1017A00001E00E94D4008111102B000F81E0E81AA3
:1017B000F108B9F71093BA04ACCF88E0E82EF12C09
:1017C00010E001E00E94D4008111102B000F21E0F5
:1017D000E21AF108B9F71093BB049BCFC930D105C9
:1017E00009F097CF6091BA047091BB046F3F760700
:1017F00011F470E060E0072E000C880B990B0E943A
:10180000032F20E030E040E85DE30E94622F1111D9
:1018100009C06093BC047093BD048093BE04909390
:10182000BF0477CF26E636E646EE5FE30E94622FDE
:1018300020E030E040E052E40E948830EACFD093CC
:10184000C104C093C00497CF0F931F938091580198
:1018500090915901892B09F449C08091A5048823EE
:10186000A9F00E94CC040091A1041091A20420913F
:10187000A3043091A404601B710B820B930B693E8F
:1018800073408105910590F11092A5040E94810892
:1018900020915201309153018217930739F50E942C
:1018A0007908209154013091550182179307F1F482
:1018B0000E947108209156013091570182179307B9
:1018C000A9F40E94CC046093A1047093A2048093B5
:1018D000A3049093A40481E08093A50480910D015A
:1018E00090910E0190937805809377051F910F9149
:1018F0000895CF93DF93EC012196FC0120812A33D8
:10190000C9F42181243609F5229630E020E06AE00E
:10191000899190ED980F9A3078F4629FA001639FAF
:10192000500D1124082E000C990BC0979A01280F16
:10193000391FEECFCE01DFCF309399042093980466
:101940002115310511F020930B0188818F3689F420
:101950008A81082E000C990B9C0120533109309389
:10196000990420939804C397059710F420930A01D3
:10197000249688818236F1F4229630E020E06AE0F5
:10198000899190ED980F9A3068F4629FA001639F4F
:10199000500D1124082E000C990BC0979A01280FA6
:1019A000391FEECF309399042093980430930901A6
:1019B000209308012091080130910901032E000CA9
:1019C000440B550B60E67AEE80E090E00E947131A6
:1019D00082E0220F331F441F551F8A95D1F72093B1
:1019E0009404309395044093960450939704CE0149
:1019F000DF91CF9108958EBD00000DB407FEFDCF9D
:101A00008EB508958F929F92AF92BF92CF92DF9240
:101A1000EF92FF920F931F93CF93DF937C01D62F0A
:101A20000E9475044B015C018091D805811167C04B
:101A3000CD2F81E08093D8058093D7059FEF9093B9
:101A4000D6051092D5059D0F9093D4058093B305CC
:101A50008091B305EE0CFF1C8E298093B305809115
:101A6000B205813009F083C01092B2050E9475045E
:101A70006B017C018091B3058093BB008091DA05F6
:101A80009091DB05A091DC05B091DD05892B8A2BB7
:101A90008B2BA1F00E9475048090DA059090DB05F5
:101AA000A090DC05B090DD056C197D098E099F09B9
:101AB00086169706A806B90608F442C08091BC00B5
:101AC00083FDD8CF85EC8093BC000E9475046B0128
:101AD0007C018091D805813009F44BC08091D505F7
:101AE0008D1710F4C091D505E4EBF5E0A2E9B5E05F
:101AF00080E08C1751F191919D938F5FFACF809187
:101B0000DA059091DB05A091DC05B091DD05892B0C
:101B10008A2B8B2B09F488CF0E9475040091DA057B
:101B20001091DB052091DC053091DD0568197909FC
:101B30008A099B09061717072807390708F074CF89
:101B40008091D9050E943D09C0E010929105C09393
:101B500090058C2FDF91CF911F910F91FF90EF9007
:101B6000DF90CF90BF90AF909F908F90089585EEBB
:101B7000AACF8091DA059091DB05A091DC05B091A8
:101B8000DD05892B8A2B8B2B09F4A3CF0E947504CA
:101B90008090DA059090DB05A090DC05B090DD0523
:101BA0006C197D098E099F0986169706A806B90645
:101BB00008F08FCFC5CFCF93C0910C018C2F0E941E
:101BC0008C0160E08DEA96E00E949C0A0E945E090A
:101BD00067E070E08C2F90E00E94020D8DEA96E0A5
:101BE0000E94550A982F92959F70CAE08F709C9F13
:101BF000800D112490E090938505809384058DEAF3
:101C000096E00E94550A982F92959F708F709C9F26
:101C1000800D112490E090937C0580937B058DEAE4
:101C200096E00E94550A982F929593708F709C9F12
:101C3000800D112490E090937A05809379058DEAC8
:101C400096E00E94550A8DEA96E00E94550A982F68
:101C500092959F708F709C9F800D112490E09093BF
:101C60007E0580937D058DEA96E00E94550A982FA7
:101C700092959F708F709C9F800D112490E090939F
:101C8000800580937F058DEA96E00E94550A982F83
:101C900092959F708F709C9F800D112490E08053CF
:101CA000984F9093820580938105CF910895FC0110
:101CB00080819181009711F00C948B2E60E070E090
:101CC000CB0108954F925F926F927F928F929F9275
:101CD000AF92BF92CF92DF92EF92FF92CF93DF93BA
:101CE000CDB7DEB72D970FB6F894DEBF0FBECDBFD0
:101CF0000E947504C090E804D090E904E090EA04E2
:101D0000F090EB046C197D098E099F096A317144CA
:101D10008105910508F457C20E9475046093E80498
:101D20007093E9048093EA049093EB0484E097E0D5
:101D30000E94570E69837A838B839C8360E08AE0DC
:101D40000E94E801FAE0CF2ED12CE12CF12C698120
:101D50007A818B819C81A70196010E947131490192
:101D60005A01660F771F64537D4FDB014D905C90E5
:101D700087E090E00E94D30A3C01C501B401A701AD
:101D800096010E947131660F771F64537D4FFB01EE
:101D90008080918087E090E00E94D30A5C01698195
:101DA0007A818B819C8124E630E040E050E00E9403
:101DB0007131CA01B901A70196010E947131660F04
:101DC000771F64537D4FDB01ED90FC9086E090E03F
:101DD0000E94D30A46205720712C612C24E1440C28
:101DE000551C661C771C2A95D1F78E219F21B0E0E7
:101DF000A0E073016201C82AD92AEA2AFB2A8A20B4
:101E00009B20B12CA12C3AE0880C991CAA1CBB1C6D
:101E10003A95D1F7C828D928EA28FB2869817A8120
:101E20008B819C8128EE33E040E050E00E947131CC
:101E300029013A018091ED04882309F491C1689445
:101E4000F6F88091EC04882309F48DC16894F7F8C2
:101E5000B0916D05BD878F2D9927AA27BB278D834C
:101E60009E83AF83B8874701AA24BB24BB27AF2D2D
:101E70009E2D8D2D89879A87AB87BC879D85992359
:101E800009F474C18C2D0E94FB0C89850E94FB0C07
:101E9000882D0E94FB0C8D810E94FB0C8AE0882E0D
:101EA000912CA12CB12CC301B201A50194010E9477
:101EB0007131660F771F64537D4FDB01CD90DC904D
:101EC00085E090E00E94D30A7C0169817A818B8150
:101ED0009C8120E137E240E050E00E947131CA016C
:101EE000B901A50194010E947131660F771F6453F7
:101EF0007D4FFB016080718084E090E00E94D30AF6
:101F0000CE20DF20F12CE12C34E1CC0CDD1CEE1CCA
:101F1000FF1C3A95D1F786219721B0E0A0E04AE076
:101F2000880F991FAA1FBB1F4A95D1F7C82AD92A23
:101F3000EA2AFB2A69817A818B819C8120EA36E832
:101F400041E050E00E947131CA01B901A50194013C
:101F50000E947131660F771F64537D4FDB01AD9096
:101F6000BC9083E090E00E94D30A8A219B21B0E0DC
:101F7000A0E0C82AD92AEA2AFB2A69817A818B81C2
:101F80009C8120E432E44FE050E00E94713129014D
:101F90003A018091ED04882309F4F3C06894F6F8BF
:101FA0008091EC04882309F4EFC06894F7F88F2D32
:101FB0009927AA27BB278D839E83AF83B8874701C4
:101FC000AA24BB24BB27AF2D9E2D8D2D89879A87F0
:101FD000AB87BC879D85992309F4D9C08C2D0E94BD
:101FE000FB0C89850E94FB0C882D0E94FB0C8D81C7
:101FF0000E94FB0C3AE0832E912CA12CB12CC30142
:10200000B201A50194010E947131660F771F6453DC
:102010007D4FDB01CD90DC9082E090E00E94D30AFE
:102020007C0169817A818B819C8120E836E948E9CD
:1020300050E00E947131CA01B901A50194010E94CA
:102040007131660F771F64537D4FFB016080718093
:1020500081E090E00E94D30ACE20DF20F12CE12C19
:1020600064E1CC0CDD1CEE1CFF1C6A95D1F78621C7
:102070009721B0E0A0E07AE0880F991FAA1FBB1F4C
:102080007A95D1F7C82AD92AEA2AFB2A69817A8166
:102090008B819C8120E031EE45EF55E00E9471314B
:1020A000CA01B901A50194010E947131660F771F21
:1020B00064537D4FDB01AD90BC9090E080E00E94C6
:1020C000D30A8A219B21B0E0A0E08C299D29AE296A
:1020D000BF292091ED046C017D01222309F462C027
:1020E0006894F6F88091EC04882309F45EC0689443
:1020F000F7F84F2C5524662477244701AA24BB24E3
:10210000BB27AF2D9E2D8D2D89839A83AB83BC83F6
:102110009D85992309F44CC08C2D0E94FB0C89816C
:102120000E94FB0C882D0E94FB0C842D0E94FB0C4E
:1021300061E08AE02D960FB6F894DEBF0FBECDBFEA
:10214000DF91CF91FF90EF90DF90CF90BF90AF9055
:102150009F908F907F906F905F904F900C94E801CC
:10216000E894F6F86ECEE894F7F872CE8D810E946E
:10217000FB0C882D0E94FB0C89850E94FB0C8C2D8A
:102180008BCEE894F6F80CCFE894F7F810CF8D8159
:102190000E94FB0C882D0E94FB0C89850E94FB0C81
:1021A0008C2D26CFE894F6F89DCFE894F7F8A1CFD0
:1021B000842D0E94FB0C882D0E94FB0C89810E94BB
:1021C000FB0C8C2DB3CF2D960FB6F894DEBF0FBE4F
:1021D000CDBFDF91CF91FF90EF90DF90CF90BF9078
:1021E000AF909F908F907F906F905F904F900895E9
:1021F0000F931F93CF93DF938C01EB01FC01808140
:1022000091810097E1F06881798161157105A9F0EC
:10221000428153812C813D814217530770F00E9407
:102220009D338C819D81F801958384831D821C825E
:10223000DF91CF911F910F9108950E944E328881B6
:102240009981F801918380838A819B819383828322
:102250008C819D8195838483198218821B821A82C6
:10226000E5CFCF93DF93EC0188819981009711F03E
:102270000E944E32198218821D821C821B821A8291
:10228000DF91CF910895FC0180819181009711F039
:102290000C944E3208950F931F93CF93DF93EC016C
:1022A00088819981009759F02A813B812617370749
:1022B00030F081E0DF91CF911F910F9108958B0154
:1022C0006F5F7F4F0E94D732009759F099838883C0
:1022D0001B830A832C813D81232B59F7FC0110823B
:1022E000E8CF80E0E7CFEF92FF920F931F93CF9359
:1022F000DF936115710541F480E0DF91CF911F916B
:102300000F91FF90EF90089541155105B1F07B01B9
:10231000EC010C811D81040F151FB8010E944B11A7
:10232000882351F3288139818C819D81B701820FE7
:10233000931F0E949D331D830C8381E0DECF0F939A
:102340001F93CF93DF9300D0CDB7DEB78C016983A5
:102350001A8241E050E0BE016F5F7F4F0E9473110F
:10236000811103C0C8010E943111C8010F900F9064
:10237000DF91CF911F910F910895CF93DF93EC01DF
:10238000FB0101900020E9F73197AF01461B570B85
:102390000E947311811103C0CE010E943111CE0140
:1023A000DF91CF910895CF93DF93EC01FB0144813E
:1023B0005581608171810E947311811103C0CE012A
:1023C0000E943111CE01DF91CF910895EF92FF92DB
:1023D0000F931F93CF93DF93EC017B018A01BA0126
:1023E0000E944B1181110BC0CE010E943111CE0110
:1023F000DF91CF911F910F91FF90EF9008951D8372
:102400000C83B701888199810E949D33F0CFFB0135
:1024100001900020E9F73197AF01461B570B0C9450
:10242000E6110F931F93CF93DF93CDB7DEB762977B
:102430000FB6F894DEBF0FBECDBF8C01CB01F80103
:102440001182108213821282158214824AE0BE0128
:102450006F5F7F4F0E94B22EBE016F5F7F4FC8013A
:102460000E94071262960FB6F894DEBF0FBECDBF72
:10247000DF91CF911F910F910895CF93DF93EC01DE
:10248000FB018617970749F060817181611571051D
:1024900041F0448155810E94E611CE01DF91CF9138
:1024A00008950E943111F9CFFC011182108213822C
:1024B0001282158214820C943D12FC01118210824A
:1024C0001382128215821482FB0101900020E9F729
:1024D0003197AF01461B570B0C94E611AF92BF9298
:1024E000CF92DF92EF92FF920F931F93CF93DF93E0
:1024F0006C015B017A0189012417350720F48F2DC7
:102500007901042F182F62E173E0C6010E945D1269
:10251000D5011496CD91DC91EC16FD06E0F40C1774
:102520001D0708F4E801D501ED91FC911197EC0F1E
:10253000FD1F108110826D917C916E0D7F1DC60173
:1025400061157105A1F00E940712F501808191814A
:10255000C80FD91F1883C601DF91CF911F910F912A
:10256000FF90EF90DF90CF90BF90AF9008950E94C2
:102570003111EBCF4F925F926F927F928F929F9229
:10258000AF92BF92CF92DF92EF92FF920F931F9381
:10259000CF93DF9300D000D000D0CDB7DEB77C0161
:1025A0004B015A018091B90481113AC081E08093B6
:1025B000B90490EB692E94E0792E27EA422E24E0AC
:1025C000522E10E000E00F5F1F4F680181E0C81A33
:1025D000D1089801A601B401CE0101960E946E12A5
:1025E000CE0101960E94570ED3016D933D01CE019D
:1025F00001960E9443119801A601B501CE010196F2
:102600000E946E12CE0101960E94570EF201619354
:102610002F01CE0101960E9443110930110599F650
:102620009091A60480EBC82E84E0D82EE7EAF4E06F
:102630008601A801D8018C919A3008F04DC08F5FB7
:102640008C930F5F1F4FDA018C918A3019F4D801F7
:1026500011971C923196B4E0093B1B0751F79F5F1D
:10266000943109F43FC09093A60462E173E0C7017E
:102670000E945D12FE0131965F01D6018D916D01C0
:102680004AE0B50190E00E94B22EF50101900020D1
:10269000E9F73197AF014A195B09B501C7010E94FB
:1026A00073110C151D0549F7C70126960FB6F8944E
:1026B000DEBF0FBECDBFDF91CF911F910F91FF9075
:1026C000EF90DF90CF90BF90AF909F908F907F90D2
:1026D0006F905F904F9008952081281709F4B1CF33
:1026E0008F5FAECF1092A6041092B904BECFCF92E6
:1026F000DF92EF92FF921F93CF93DF93CDB7DEB7B8
:102700002C970FB6F894DEBF0FBECDBF182F6AE42A
:1027100073E0CE0107960E945D1222E030E050E0A7
:1027200040E0133081F024E030E042E050E01C3023
:1027300051F026E030E0103321F0103FA9F428E0FA
:1027400030E044E050E064E077E0CE0101960E9482
:102750006E12BE016F5F7F4FCE0107960E94F81088
:10276000CE0101960E944311CE0107960E94570E9A
:102770006B01CE0107960E944311C6012C960FB63D
:10278000F894DEBF0FBECDBFDF91CF911F91FF90B8
:10279000EF90DF90CF900895EF92FF920F931F93E9
:1027A000CF93DF93CDB7DEB762970FB6F894DEBF55
:1027B0000FBECDBF7C018B0177FF03C01195019542
:1027C0001109B801C7010E941112083E83E01807E1
:1027D0000CF082C0B801CE010D960E94111260E487
:1027E00073E0CE0101960E945D12BE016F5F7F4FC4
:1027F000CE0107960E945412BE01635F7F4FCE0147
:1028000007960E94D311BC01C7010E943D12CE0160
:1028100007960E944311CE0101960E944311CE01FA
:102820000D960E944311043611050CF055C0B801F5
:10283000CE010D960E9411126FE373E0CE01019656
:102840000E945D12BE016F5F7F4FCE0107960E940E
:102850005412BE01635F7F4FCE0107960E94D311D1
:10286000BC01C7010E943D12CE0107960E94431190
:10287000CE0101960E944311CE010D960E94431194
:102880000A3011054CF5B801CE010D960E941112C7
:102890006EE373E0CE0101960E945D12BE016F5F90
:1028A0007F4FCE0107960E945412BE01635F7F4F97
:1028B000CE0107960E94D311BC01C7010E943D12B0
:1028C000CE0107960E944311CE0101960E9443114A
:1028D000CE010D960E944311C70162960FB6F8947F
:1028E000DEBF0FBECDBFDF91CF911F910F91FF9043
:1028F000EF9008950F931F93CF93DF93CDB7DEB77B
:1029000062970FB6F894DEBF0FBECDBF8C0177FF84
:1029100003C07195619571096A307105A4F5CE0106
:102920000D960E94111260E473E0CE0101960E94A0
:102930005D12BE016F5F7F4FCE0107960E94541259
:10294000BE01635F7F4FCE0107960E94D311BC0189
:10295000C8010E945412CE0107960E944311CE0175
:1029600001960E944311CE010D960E944311C801A9
:1029700062960FB6F894DEBF0FBECDBFDF91CF9148
:102980001F910F910895C8010E941112F0CF0F936B
:102990001F93CF93DF93CDB7DEB768970FB6F89448
:1029A000DEBF0FBECDBF8B018330D9F52091080764
:1029B0003091090742E050E064E077E0CE010D96E7
:1029C0000E946E12B801CE0101960E947A14BE01D7
:1029D0006F5F7F4FCE0107960E945412BE01635F66
:1029E0007F4FCE0107960E94D311BC0184E097E08F
:1029F0000E943D12CE0107960E944311CE0101961E
:102A00000E944311CE010D960E94431168960FB6A5
:102A1000F894DEBF0FBECDBFDF91CF911F910F9114
:102A200008958C3009F042C02091080730910907C1
:102A300044E050E064E077E0CE0143960E946E12DD
:102A4000B801CE010D960E947A1422E030E050E0E9
:102A500040E064E077E0CE0101960E946E12BE0174
:102A60006F5F7F4FCE0107960E945412BE01635FD5
:102A70007F4FCE0107960E94D311BE016D5E7F4F3E
:102A80000E94D311BC0184E097E00E943D12CE0168
:102A900007960E944311CE0101960E944311CE0178
:102AA0000D960E944311CE014396AECF20910807A8
:102AB0003091090746E050E0803349F0803F09F04B
:102AC000A5CF209108073091090748E050E064E065
:102AD00077E0CE0143960E946E12B801CE010D96AA
:102AE0000E947A1424E030E0B2CF0E94CC046093BC
:102AF0009D0470939E0480939F049093A004809102
:102B00009C04882309F44FC020919A0430919B04BF
:102B1000C901880F991F21313105A1F1FC01E85C41
:102B2000FE4F408151814150510951834083DC0166
:102B3000A85CBE4F6D917C911197FC01E05AFE4F4D
:102B400040815181641775073CF4FC01E857FE4F42
:102B5000408151814D935C932031310509F52091DD
:102B600058013091590121303105B9F420E8209302
:102B7000EE04885C9E4FFC01608171818091FE04AF
:102B80000C94C71440915A0150915B014C5051096B
:102B900050935B0140935A01CACF1092EE04E9CFE3
:102BA0002930310531F708950E94CC0460939D04CB
:102BB00070939E0480939F049093A00480919C0442
:102BC000882309F444C020919A0430919B04C901E0
:102BD000880F991F2131310561F1FC01E85CFE4F3E
:102BE000408151814F5F5F4F51834083DC01A85C7E
:102BF000BE4F6D917C911197FC01E857FE4F4081CB
:102C00005181461757073CF4FC01E05AFE4F4081C2
:102C100051814D935C9320313105B1F41092EE0453
:102C2000885C9E4FFC01608171818091FE040C9450
:102C3000C71440915A0150915B01445F5F4F50931C
:102C40005B0140935A01D2CF2930310549F70895ED
:102C50000F931F93CF93DF93CDB7DEB768970FB66F
:102C6000F894DEBF0FBECDBF8C0180915A019091C8
:102C70005B01489709F048C00E947108BC01CE0171
:102C800043960E947A140E947908BC01CE010D96E9
:102C90000E947A140E948108BC01CE0101960E9414
:102CA0007A14BE016F5F7F4FCE0107960E945412C7
:102CB000BE01635F7F4FCE0107960E94D311BE0114
:102CC0006D5E7F4F0E94D311BC01C8010E94541257
:102CD000CE0107960E944311CE0101960E94431136
:102CE000CE010D960E944311CE0143960E944311DE
:102CF000C80168960FB6F894DEBF0FBECDBFDF9156
:102D0000CF911F910F9108950E947108BC01CE01CF
:102D100043960E947A140E947908BC01CE010D9658
:102D20000E947A140E9418070E945E07809159053C
:102D30006CE070E0882309F4B0CF682F70E08D302C
:102D400008F4ABCF6C507109A8CF8F929F92AF92CD
:102D5000BF92CF92DF92EF92FF920F931F93CF9388
:102D6000DF93CDB7DEB72C970FB6F894DEBF0FBE5A
:102D7000CDBF8C016A017B018091E004811111C0FB
:102D80000E94CC04645B7B4F8F4F9F4F6093DC04A9
:102D90007093DD048093DE049093DF0481E08093E0
:102DA000E0048091D404811109C06BE373E08EECE0
:102DB00094E00E945D1281E08093D4040E94CC04D0
:102DC0008090DC049090DD04A090DE04B090DF04DD
:102DD000681979098A099B09693E73408105910543
:102DE00008F4FDC00E94CC046093DC047093DD0401
:102DF0008093DE049093DF0420E030E040E251E471
:102E0000C701B6010E94622F6B017C0120E030E017
:102E1000A9010E942A3120E030E040E05FE387FD15
:102E2000F7C0C701B6010E9488300E94F4307B01D0
:102E300077FF04C0EE24FF24E61AF70A5B0139E1AC
:102E4000A31A3CEFB30A80915C0190915D019B0154
:102E50002D593F4F69012A5531094901B701892B85
:102E600009F0DBC0CE0107960E94111260E473E006
:102E7000CE0101960E945D12BE01695F7F4FCE01B7
:102E800001960E94D31160E473E00E94BD11BC0161
:102E90008EEC94E00E943D12CE0101960E944311F7
:102EA000CE0107960E9443113FECA31637E0B3060C
:102EB00018F5B701CE0107960E9411126FE373E077
:102EC000CE0101960E945D12BE01695F7F4FCE0167
:102ED00001960E94D31160E473E00E94BD11BC0111
:102EE0008EEC94E00E943D12CE0101960E944311A7
:102EF000CE0107960E94431187ECC816D10418F53D
:102F0000B701CE0107960E9411126EE373E0CE0165
:102F100001960E945D12BE01695F7F4FCE0101964E
:102F20000E94D31160E473E00E94BD11BC018EECDD
:102F300094E00E943D12CE0101960E944311CE0101
:102F400007960E94431123E18216910418F5B701F8
:102F5000CE0107960E9411126DE373E0CE01019637
:102F60000E945D12BE01695F7F4FCE0101960E94F3
:102F7000D31160E473E00E94BD11BC018EEC94E0BB
:102F80000E943D12CE0101960E944311CE01079688
:102F90000E94431180915C0190915D01892B09F0A1
:102FA000D3C097E3F92E62E173E0CE0101960E944F
:102FB0005D126EEC74E0CE0101960E94D3116FE3B6
:102FC00073E00E94BD116F2D0E949F11BC018EEC19
:102FD00094E00E943D12CE0101960E9443116EECD6
:102FE00074E0C8010E945412C8012C960FB6F894E0
:102FF000DEBF0FBECDBFDF91CF911F910F91FF902C
:10300000EF90DF90CF90BF90AF909F908F900895FA
:10301000C701B6010E94873008CFCE0107960E94F3
:10302000111260E473E0CE0101960E945D12BE01B0
:10303000695F7F4FCE0101960E94D31160E473E077
:103040000E94BD11BC018EEC94E00E943D12CE01A5
:1030500001960E944311CE0107960E9443113FEC56
:10306000A31637E0B30638F5C7016AE070E00E94A6
:103070003B31CE0107960E9411126FE373E0CE013F
:1030800001960E945D12BE01695F7F4FCE010196DD
:103090000E94D3116FE373E00E94BD11BC018EEC5E
:1030A00094E00E943D12CE0101960E944311CE0190
:1030B00007960E94431187ECC816D10438F5C70162
:1030C0006AE070E00E943B31CE0107960E94111227
:1030D0006EE373E0CE0101960E945D12BE01695F4E
:1030E0007F4FCE0101960E94D3116FE373E00E94DF
:1030F000BD11BC018EEC94E00E943D12CE01019600
:103100000E944311CE0107960E94431123E18216CB
:10311000910408F03FCFC7016AE070E00E943B31A4
:10312000CE0107960E9411126DE373E0CE01019665
:103130000E945D12BE01695F7F4FCE0101960E9421
:10314000D3116FE373E017CF82E3F82E2CCF85ED18
:103150008093BC008091DA059091DB05A091DC059D
:10316000B091DD050796A11DB11D23E0B695A79589
:10317000979587952A95D1F72091BC0024FD03C02F
:103180001092D80508954091DA055091DB056091C1
:10319000DC057091DD05452B462B472B69F3009725
:1031A000A105B10541F02AE22A95F1F700C0019787
:1031B000A109B109E1CF8091D9050C943D090C9486
:1031C00028300C94203088E090E00E94E118682FAD
:1031D00070E089E00E94180489E090E00E94E11804
:1031E000682F70E086E00E9418048AE090E00E9458
:1031F000E118682F70E083E00C9418048F929F927E
:10320000AF92BF92CF92DF92EF92FF920F931F93F4
:10321000CF93DF93CDB7DEB7EC970FB6F894DEBF50
:103220000FBECDBF0E94CC0420E137E240E050E069
:103230000E944F31672B682B692B01F58091830524
:103240008823E1F00E94DB0DE0908105F09082057B
:1032500000917F051091800520917D0530917E05BC
:10326000409184055091850560917B0570917C05A6
:103270008091790590917A050E943C061092930402
:1032800010929204109291041092900410928F0464
:1032900010928E040091770510917805F8018081D5
:1032A000882309F409C10E94CC04C0901A04D0906C
:1032B0001B04E0901C04F0901D046C197D098E091C
:1032C0009F09C0901604D0901704E0901804F09065
:1032D0001904C616D706E806F90608F0EDC00E94E4
:1032E000CC044B015C0180921A0490921B04A092C2
:1032F0001C04B0921D04680130E020E04AE0F801AF
:10330000F1908F0180ED8F0D8A3070F4429FC001E3
:10331000439F900D11242F2DFF0C330B20533109A7
:10332000280F391F6F01EBCF309399042093980435
:103330006091940470919504809196049091970403
:103340002115310501F1032E000C440B550B0E9491
:10335000713120931604309317044093180450934E
:103360001904EFE9EF0DE730A0F40E2E000CFF0B6F
:10337000E454F64E0C949031461D481D3A1D3E1DF6
:10338000401D421D441D20910B0130E050E040E003
:10339000DECF10921504F6018181833241F48091D1
:1033A00015048F5F8093150486010E5F1F4FF8018F
:1033B00080818E32F1F4C0901604D0901704E09012
:1033C0001804F0901904C701B60122E030E040E093
:1033D00050E00E947131C20ED31EE41EF51EC09251
:1033E0001604D0921704E0921804F09219040F5FAB
:1033F0001F4FF801808180538A3008F04BC38093BF
:1034000014040F5F1F4FF80180818C3211F40F5F9D
:103410001F4FE0911504EE2309F44EC0C09016042E
:10342000D0901704E0901804F090190480911404CF
:103430008450990B4CE0489F9001499F300D112416
:10344000E20FF32FF11DEE0FFF1FE253FE4FB70106
:10345000A601808191810E9452020E94CC046819C9
:1034600079098A099B09C616D706E806F90620F5E8
:103470000E94CC0460931A0470931B0480931C0474
:1034800090931D0480910F06813009F408C38230A7
:1034900009F40BC3811105C080916E008D7F80936C
:1034A0006E0060E080910E060E94E80188E690E0E0
:1034B0000E94EB0510E000E010937805009377057B
:1034C0000E94CC0400918A0410918B0420918C04FA
:1034D00030918D04601B710B820B930B663071056C
:1034E00081059105E8F080910F018111E4C270E03F
:1034F00060E089E00E94180470E060E086E00E94CD
:10350000180470E060E083E00E9418040E94CC047C
:1035100060938A0470938B0480938C0490938D0441
:1035200080919A0490919B04892B21F080918904C9
:103530008111DBC180919C048111D7C18091340439
:1035400081110DC00E94CC0460933004709331044B
:10355000809332049093330481E08093340480910B
:10356000280481110DC00E94CC0460932404709340
:103570002504809326049093270481E080932804F7
:103580000E94CC0400913004109131042091320447
:1035900030913304601B710B820B930B009100017F
:1035A00010910101209102013091030106171707C4
:1035B0002807390708F04DC00E94CC0460933004FE
:1035C00070933104809332049093330480912204E9
:1035D00090912304009709F0DAC281E090E0909383
:1035E0009B0480939A0488E893E1A0E0B0E0809384
:1035F000000190930101A0930201B0930301809117
:103600002204909123048230910581F410929B044E
:1036100010929A0440E65AEE60E070E04093000198
:10362000509301016093020170930301019683306E
:1036300091050CF0CCC290932304809322048091D6
:103640008904882321F010929B0410929A0410920E
:1036500089040E94CC04009130041091310420911F
:10366000320430913304601B710B820B930B603D6D
:1036700077408105910508F07CC30E94CC0400913D
:103680002404109125042091260430912704601B06
:10369000710B820B930B653671058105910508F45A
:1036A00024C10E94CC046093240470932504809369
:1036B00026049093270480919A0490919B04209172
:1036C0006E05222309F488C2892B89F5CE0149961B
:1036D0000E94281681E020915C0130915D01232B2E
:1036E00009F480E00E94590BAB01BC01CE010196A8
:1036F0000E94A516AE01475E5F4FBE016F5F7F4F10
:10370000CE014F960E94BA12BE01615E7F4F84E0E7
:1037100097E00E94F810CE014F960E944311CE010F
:1037200001960E944311CE0149960E944311809157
:103730009A0490919B04019709F062C00E94570877
:1037400068EE73E00E943B31BC01CE018B960E9473
:103750007A140E946108BC01CE0185960E947A14F9
:103760000E946908BC01CE0149960E947A14BE01EC
:10377000675E7F4FCE014F960E945412BE016B5D73
:103780007F4FCE014F960E94D311BE01655D7F4FE2
:103790000E94D311BC01CE01C1960E945412CE01E9
:1037A00001960E942816AE014F5C5F4FBE016F5F0D
:1037B0007F4FCE01C7960E94BA12BE01695C7F4F4F
:1037C00084E097E00E94F810CE01C7960E94431152
:1037D000CE0101960E944311CE01C1960E94431171
:1037E000CE014F960E944311CE0149960E9443118B
:1037F000CE0185960E944311CE018B960E94431103
:1038000080919A0490919B04049709F06EC081E026
:1038100020915C0130915D01232B09F480E00E942E
:10382000590BAB01BC01CE01C1960E94A5160E94A6
:10383000570868EE73E00E943B31BC01CE018596CB
:103840000E947A140E946108BC01CE014F960E942A
:103850007A140E946908BC01CE0101960E947A1474
:10386000BE016F5F7F4FCE0149960E945412BE0188
:10387000615E7F4FCE0149960E94D311BE016B5D00
:103880007F4F0E94D311BC01CE018B960E9454122F
:10389000AE014F5C5F4FBE01655D7F4FCE01C796A5
:1038A0000E94BA12BE01695C7F4F84E097E00E94DB
:1038B000F810CE01C7960E944311CE018B960E944C
:1038C0004311CE0149960E944311CE0101960E94F8
:1038D0004311CE014F960E944311CE0185960E945E
:1038E0004311CE01C1960E9443110E94620E8BEEDD
:1038F00096E00E94890882ED96E00E94890889EB93
:1039000096E00E94890880919C04811135C2109232
:10391000FE048091EB069091EC06181619063CF017
:103920008091920490919304019709F062C381E021
:1039300080938904109278051092770544E650E050
:1039400060E070E088EE93E00E9452020E94CC0496
:1039500060939D0470939E0480939F049093A004B1
:1039600080919A0490919B0401968530910509F409
:1039700030C290939B0480939A0480919A04909112
:103980009B04069721F410929B0410929A042091B4
:103990009A0430919B048901000F111FF801E05F28
:1039A000FE4F80818093FE04D9011197FD01EE0F37
:1039B000FF1FE458FD4F608171816115710509F4A5
:1039C00009C3AB0141505109FA01EE0FFF1FEC5A38
:1039D000FD4F0190F081E02DAE17BF0709F0FAC24C
:1039E0006230710509F0F8C188E1E6EBF1E0DE0133
:1039F000119601900D928A95E1F780915001909176
:103A0000510183709927892B21F48DE190E09C83EB
:103A10008B8380914E0190914F010197880F991FE0
:103A2000E1E0F0E0EC0FFD1F8E0F9F1F20914C0195
:103A300030914D01FC0180819181821793070CF038
:103A4000CBC18AE090E090939B0480939A04EC961B
:103A50000FB6F894DEBF0FBECDBFDF91CF911F919F
:103A60000F91FF90EF90DF90CF90BF90AF909F901D
:103A70008F90089581E0809315048DCC83E0FBCF77
:103A800085E0F9CF86E0F7CF88E0F5CF8AE0F3CF85
:103A90008CE0F1CF80910A0180931404B4CC809122
:103AA0006F008D7F80936F00FCCC809170008D7FC4
:103AB00080937000F6CC80918605811127CD00910E
:103AC000200410912104F801EE0FFF1FE00FF11FF9
:103AD000DF01AA0FBB1FA05DBD4F8D919C9160912E
:103AE000060170910701680F791F709307016093B9
:103AF0000601DF01AA0FBB1FAE5CBD4FCD90DC906D
:103B000080917F0490918004C80ED91ED0928004C9
:103B1000C0927F04EE0FFF1FEC5CFD4FE080F18050
:103B200080917D0490917E04E80EF91EF0927E044F
:103B3000E0927D0489E00E941804B60186E00E94AC
:103B40001804B70183E00E94180480911E0490912C
:103B50001F04019690931F0480931E048F3F9105CC
:103B600051F40F5F1F4F1093210400932004109213
:103B70001F0410921E048091200490912104069746
:103B80000CF4C4CC1092210410922004BFCC0197F5
:103B900009F035CD84E090E090939B0480939A04E3
:103BA00088E893E1A0E0B0E08093000190930101E8
:103BB000A0930201B093030180916E058111B8C7F3
:103BC00082E090E0909323048093220418CD109219
:103BD00023041092220433CD892B09F062C0CE0158
:103BE000C1960E9428160E94570868EE73E00E9452
:103BF0003B31BC01CE0185960E947A140E94610877
:103C0000BC01CE014F960E947A140E946908BC0143
:103C1000CE0101960E947A14BE016F5F7F4FCE01E4
:103C200049960E945412BE01615E7F4FCE014996B3
:103C30000E94D311BE016B5D7F4F0E94D311BC0166
:103C4000CE018B960E945412AE014F5C5F4FBE01B5
:103C5000655D7F4FCE01C7960E94BA12BE01695CB6
:103C60007F4F84E097E00E94F810CE01C7960E9433
:103C70004311CE018B960E944311CE0149960E94BA
:103C80004311CE0101960E944311CE014F960E942E
:103C90004311CE0185960E944311CE01C1960E9428
:103CA000431180919A0490919B04019709F01DCED5
:103CB0000E94570868EE73E00E943B31BC01CE01C0
:103CC0008B960E947A140E946108BC01CE018596F1
:103CD0000E947A140E946908BC01CE0149960E9494
:103CE0007A14BE01675E7F4FCE014F960E94541238
:103CF000BE016B5D7F4FCE014F960E94D311BE0176
:103D0000655D7F4F0E94D311BC01CE01C1960E9418
:103D10005412CE0101960E942816AE014F5C5F4FEF
:103D2000BE016F5F7F4FCE01C7960E94BA12BE01DF
:103D3000695C7F4F84E097E00E94F810CE01C7963F
:103D40000E944311CE0101960E944311CE01C196FB
:103D50000E944311CE014F960E944311CE01499615
:103D60000E944311CE0185960E944311CE018B968D
:103D7000BACD1092B904B9CD0E94CC0400919D0433
:103D800010919E0420919F043091A004601B710B40
:103D9000820B930B61367A4E8105910508F4B9CDFB
:103DA00010929C04E0919A04F0919B04EE0FFF1F87
:103DB000EC55FD4F8081918190939B0480939A04F0
:103DC000880F991FFC01E05FFE4F80818093FE0405
:103DD000A0CD86E090E0CDCD10929C0450939B0442
:103DE00040939A04452BB9F40E9457087C010E9425
:103DF00061088C010E946908409148015091490175
:103E000060914601709147019C018091440190911D
:103E100045010E943C0680919A0490919B04019771
:103E2000F9F4E0905001F090510100914E01109191
:103E30004F0180904C0190904D010E9471085C01EF
:103E40000E9479086C010E9481089401A501B601C5
:103E50000E943C0660914A018DE090E00E94DF18CC
:103E600080919A0490919B040297C1F46091520151
:103E700082E090E00E94DF186091540183E090E0BE
:103E80000E94DF186091560184E090E00E94DF18E4
:103E90006091580186E090E00E94DF1880919A04BA
:103EA00090919B04039731F460915A0181E090E076
:103EB0000E94DF1880919A0490919B04049731F43A
:103EC00060915C018BE090E00E94DF1880919A0481
:103ED00090919B04059749F460915E018091860161
:103EE000681B8CE090E00E94DF180E94570868EE83
:103EF00073E00E943B31082F0E946108F82E0E9457
:103F00006908E82E0E947108B82E0E947908C82E10
:103F10000E948108D82E80910C010E948C0160E0E3
:103F20008DEA96E00E949C0A1AE08B2D612F0E9478
:103F30002F318295807F682F690F8DEA96E00E946D
:103F40009C0A8C2D612F0E942F318295807F682FD3
:103F5000690F8DEA96E00E949C0A8D2D612F0E94C8
:103F60002F318295807F682F690F8DEA96E00E943D
:103F70009C0A61E08DEA96E00E949C0A8E2D612FDA
:103F80000E942F318295807F682F690F8DEA96E01D
:103F90000E949C0A8F2D612F0E942F318295807F75
:103FA000682F690F8DEA96E00E949C0A802F612F8E
:103FB0000E942F318295807F682F690F8DEA96E0ED
:103FC0000E949C0A60E08DEA96E00E949C0A0E9492
:103FD0005E093DCD2331310561F029503109223090
:103FE000310538F00E947713F801E85CFE4F9183A9
:103FF00080838091EB069091EC0697FD07C080913D
:10400000920490919304019609F0F4C044E650E0C4
:1040100060E070E088EE93E00E94520280919C0480
:10402000811152C000919A0410919B040E94CC040B
:1040300060939D0470939E0480939F049093A004CA
:10404000012B09F041C00E947108BC01CE01859688
:104050000E947A140E947908BC01CE014F960E94FA
:104060007A140E948108BC01CE0101960E947A1444
:10407000BE016F5F7F4FCE0149960E945412BE0170
:10408000615E7F4FCE0149960E94D311BE016B5DE8
:104090007F4F0E94D31167E173E00E94BD11BC0104
:1040A00084E097E00E943D12CE0149960E944311A0
:1040B000CE0101960E944311CE014F960E944311FA
:1040C000CE0185960E94431180919A0490919B04A1
:1040D000019709F056C00E94690890934D018093A2
:1040E0004C010E94610890934F0180934E010E9401
:1040F0005708BC01909351018093500180914A016F
:1041000090914B01892B09F099C1CE0185960E94AF
:104110007A1460914E0170914F01CE014F960E942A
:104120007A1460914C0170914D01CE0101960E946C
:104130007A14BE016F5F7F4FCE0149960E945412E0
:10414000BE01615E7F4FCE0149960E94D311BE0130
:104150006B5D7F4F0E94D311BC0184E097E00E9409
:104160003D12CE0149960E944311CE0101960E9454
:104170004311CE014F960E944311CE0185960E94B5
:104180004311E0919A04F0919B04EE0FFF1FEC5550
:10419000FD4F2081318130939B0420939A042D3070
:1041A000310549F481E090E09093590180935801E2
:1041B00080E88093EE0480919C0491E089278093AD
:1041C0009C048901000F111FF801E05FFE4F808100
:1041D0008093FE04A901425151094230510550F02B
:1041E0002930310539F00E947713F801E85CFE4F61
:1041F000918380838091D2069091D306009709F035
:104200002EC180919004909191040197E1F481E096
:1042100080938904109278051092770544E650E067
:1042200060E070E088EE93E00E9452020E94D41594
:1042300080919C04811107C01092860560E087E0A0
:1042400090E00E94DF188091870490918804019685
:1042500009F00EC18091D406882309F409C1109297
:10426000000580919C048823F9F00E94CC04009101
:104270008304109184042091850430918604601B8E
:10428000710B820B930B673971058105910560F005
:104290000E94CC046093830470938404809385040B
:1042A000909386040E94D4158091B9069091BA0625
:1042B000009709F0E1C080918E0490918F040197DE
:1042C00071F511E01093890410927805109277052A
:1042D00044E650E060E070E088EE93E00E94520215
:1042E0000E94751580919C04811119C01093860558
:1042F00061E087E090E00E94DF186091060188E0AD
:1043000090E00E94DF1860917F0489E090E00E94B5
:10431000DF1860917D048AE090E00E94DF188091B0
:10432000810490918204019609F0AFC08091BB0690
:10433000882309F4AAC080919C041092FF0488236A
:1043400021F10E94CC040091790410917A0420910B
:104350007B0430917C04601B710B820B930B6739DB
:1043600071058105910508F449C00E94CC04609351
:10437000790470937A0480937B0490937C040E9468
:10438000751580919C04811139C08091D20690915D
:10439000D30697FD06C080919004909191040196F8
:1043A00091F444E650E060E070E088EE93E00E9413
:1043B000520281E080930F0161E090E080E00E9472
:1043C000DF180E94E3188091B9069091BA0697FD14
:1043D00006C080918E0490918F04019679F444E692
:1043E00050E060E070E088EE93E00E94520210928C
:1043F0000F0160E090E080E00E94DF18E0919A04F5
:10440000F0919B04E431F10508F021CBE65FFD4D0E
:104410000C94903149222E23262472249D24E124D9
:10442000271D271D271D11253A253A253A25271D29
:10443000271D271D271D271D9D24E124CE018596BC
:104440000E947A1460914C0170914D01CE014F96FB
:104450000E947A1460914E0170914F0166CE909344
:10446000880480938704181619060CF4D0CEC9CEA0
:1044700081E08093000518CF90938204809381049B
:10448000181619060CF41DCF16CF81E08093FF0497
:1044900078CF8091B9048111CBC00E94710820911E
:1044A0000401309105018217930709F4D0C00E94DE
:1044B0007108909305018093040100915C011091B3
:1044C0005D0181E00115110509F480E00E94590B9E
:1044D0006B017C0180914E04811111C00E94CC04BB
:1044E000645B7B4F8F4F9F4F60934A0470934B04E4
:1044F00080934C0490934D0481E080934E0480910E
:104500004204811109C062E173E08CE394E00E94EF
:104510005D1281E0809342040E94CC0480904A04A2
:1045200090904B04A0904C04B0904D046819790908
:104530008A099B09693E73408105910508F444C0CE
:104540000E94CC0460934A0470934B0480934C0403
:1045500090934D04012B09F073C017E320E030E085
:10456000A901C701B6010E942A3120E030E040E0F5
:104570005FE387FD67C0C701B6010E9488300E94D3
:10458000F43024E630E040E050E00E947131CE018A
:1045900049960E947A14BE01675E7F4FCE01019654
:1045A0000E945412612FCE0101960E949F11BC01FE
:1045B0008CE394E00E943D12CE0101960E944311CB
:1045C000CE0149960E9443116CE374E0CE0101963E
:1045D0000E945412CE014F960E942816BE01615EC1
:1045E0007F4FCE0149960E945412BE016F5F7F4FEC
:1045F000CE0149960E94D311BC01CE0185960E943E
:104600005412CE0149960E944311CE014F960E944A
:104610004311CE0101960E944311BE016B5D7F4F95
:1046200084E097E00E94F810CE0185960E94431125
:104630000E94710880FD7CC180EC8093EE047AC1F9
:1046400012E38CCFC701B6010E94873098CF64E097
:1046500077E0CE0185960E945412DFCF8091B90495
:104660008111E1C080917104811111C00E94CC04BC
:1046700067517C4F8F4F9F4F60936D0470936E0412
:1046800080936F049093700481E080937104809113
:104690006504811144C00E94570868EE73E00E94CF
:1046A0003B31BC01CE0101960E947A140E94610840
:1046B000BC01CE0149960E947A140E946908BC018F
:1046C000CE0185960E947A14BE016B5D7F4FCE01AC
:1046D0004F960E945412BE01675E7F4FCE014F96E7
:1046E0000E94D311BE016F5F7F4F0E94D311BC01A6
:1046F0008FE594E00E94541281E080936504CE011E
:104700004F960E944311CE0185960E944311CE011F
:1047100049960E944311CE0101960E9443110091D7
:104720004A0110914B0180915704811105C00093FB
:10473000560481E0809357040E94CC04C0906D041D
:10474000D0906E04E0906F04F09070046C197D09B5
:104750008E099F09693E73408105910530F480916F
:1047600056048017110609F44DC00E94CC046093D2
:104770006D0470936E0480936F0490937004012B0A
:1047800009F053C00E945708BC01CE0101960E9457
:104790007A140E946108BC01CE0149960E947A14E5
:1047A0000E946908BC01CE0185960E947A14BE0160
:1047B0006B5D7F4FCE014F960E945412BE01675E23
:1047C0007F4FCE014F960E94D311BE016F5F7F4F86
:1047D0000E94D31169E30E949F11BC018FE594E010
:1047E0000E943D12CE014F960E944311CE01859644
:1047F0000E944311CE0149960E944311CE010196B9
:104800000E9443116FE574E0CE0101960E9454129C
:10481000BE016F5F7F4F84E097E00E94F810CE01E9
:1048200001960E94431180E408CF0E945708BC0102
:10483000CE0101960E947A140E946908BC01CE0143
:1048400049960E947A140E946108ACCF609156018B
:1048500070915701CE0185960E947A14609154019F
:1048600070915501CE014F960E947A1460915201C9
:1048700070915301CE0101960E947A14BE016F5FC0
:104880007F4FCE0149960E945412BE01615E7F4F58
:10489000CE0149960E94D311BE016B5D7F4F0E94ED
:1048A000D31167E173E00E94BD11BC0184E097E081
:1048B0000E943D12CE0149960E944311CE010196FD
:1048C0000E944311CE014F960E944311CE0185965E
:1048D0000E9443118091580190915901019741F52F
:1048E00080E8ABCE60915A0170915B01CE01499690
:1048F0000E9411126FE373E0CE0101960E945D12D7
:10490000BE01675E7F4FCE0101960E94D31165E123
:1049100073E00E94BD11BC0184E097E00E943D124B
:10492000CE0101960E944311CE0149960E94431187
:104930001092EE040E94240C8AC88091B90481115F
:1049400024C081E020915C0130915D01232B09F4AA
:1049500080E00E94590BAB01BC01CE0101960E9480
:10496000A516BE016F5F7F4F84E097E00E94F810AC
:10497000CE0101960E94431180915C0190915D01EE
:10498000892BD1F480E48093EE0481E020915C01D6
:1049900030915D01232B09F480E00E94590B1091A6
:1049A000EE0420E030E0A9010E94FC2E87FF07C042
:1049B00010681093EE044BC81092EE04E6CF1F77F8
:1049C000F8CF60915E0170915F01CE0101960E9467
:1049D0007A14BE016F5F7F4FCE0149960E94541238
:1049E00063E173E0CE0149960E94BD11BC0184E0F1
:1049F00097E00E943D12CE0149960E944311CE01DC
:104A000001960E94431180915E0190915F0197FD94
:104A100003C01092EE041BC880E88093EE040C944F
:104A2000271D80914A0190914B01892BA1F46BE1E4
:104A300073E084E097E00E94071283E090E0909397
:104A40002501809324018CE090E0909327018093CE
:104A500026010C94271D65E273E084E097E00E9434
:104A600007128CE090E0909325018093240183E06D
:104A700090E0EBCF609150017091510180914A011B
:104A800090914B01892B09F042C0CE0185960E947E
:104A9000CC1360914E0170914F01CE014F960E9450
:104AA0007A1460914C0170914D01CE0101960E94E3
:104AB0007A14BE016F5F7F4FCE0149960E94541257
:104AC000BE01615E7F4FCE0149960E94D311BE01A7
:104AD0006B5D7F4F0E94D31169E173E00E94BD11AD
:104AE000BC0184E097E00E943D12CE0149960E94ED
:104AF0004311CE0101960E944311CE014F960E94B0
:104B00004311CE0185960E9443110C94271DCE01BE
:104B100085960E94CC1360914C0170914D01CE019D
:104B20004F960E947A1460914E0170914F01BDCF53
:104B300081E090E00C94161B1F920F920FB60F921B
:104B400011242F933F938F939F93AF93BF938091A3
:104B5000880590918905A0918A05B0918B053091C7
:104B6000870523E0230F2D3758F50196A11DB11DB0
:104B7000209387058093880590938905A0938A05E3
:104B8000B0938B0580918C0590918D05A0918E0539
:104B9000B0918F050196A11DB11D80938C05909356
:104BA0008D05A0938E05B0938F05BF91AF919F9116
:104BB0008F913F912F910F900FBE0F901F901895DE
:104BC00026E8230F0296A11DB11DD2CF1F920F928E
:104BD0000FB60F9211242F933F934F935F936F93D0
:104BE0007F938F939F93AF93BF93EF93FF9380E156
:104BF00096E00E946105FF91EF91BF91AF919F9167
:104C00008F917F916F915F914F913F912F910F9075
:104C10000FBE0F901F9018951F920F920FB60F9214
:104C200011242F938F939F93EF93FF93E09120068E
:104C3000F09121068081E0912606F091270682FD01
:104C40001BC09081809129068F5F8F7320912A0667
:104C5000821741F0E0912906F0E0E05FF94F958F6F
:104C600080932906FF91EF919F918F912F910F9043
:104C70000FBE0F901F9018958081F4CF1F920F9256
:104C80000FB60F9211242F933F938F939F93AF935F
:104C9000BF93EF93FF938091020690910306A0913A
:104CA0000406B09105060097A105B10531F13091D8
:104CB0006205E0916305F09164052081232720833C
:104CC000181619061A061B061CF40197A109B1094A
:104CD0008093020690930306A0930406B093050602
:104CE000FF91EF91BF91AF919F918F913F912F9144
:104CF0000F900FBE0F901F901895209170002D7F80
:104D00002093700020916205E0916305F0916405A5
:104D10003081209523232083DBCF1F920F920FB683
:104D20000F9211248F939F93AF93BF93EF93FF93B1
:104D30008091060690910706A0910806B091090699
:104D4000892B8A2B8B2BA1F190916505E09166054B
:104D5000F091670580818927808380910606909174
:104D60000706A0910806B0910906181619061A063A
:104D70001B069CF48091060690910706A0910806F8
:104D8000B09109060197A109B10980930606909395
:104D90000706A0930806B0930906FF91EF91BF9113
:104DA000AF919F918F910F900FBE0F901F9018950C
:104DB00080916F008D7F80936F0080916505E091F9
:104DC0006605F09167059081809589238083E5CF02
:104DD0001F920F920FB60F9211248F939F93AF9350
:104DE000BF93EF93FF9380910A0690910B06A091D9
:104DF0000C06B0910D06892B8A2B8B2BA1F190917B
:104E00006805E0916905F0916A05808189278083B2
:104E100080910A0690910B06A0910C06B0910D06A8
:104E2000181619061A061B069CF480910A06909122
:104E30000B06A0910C06B0910D060197A109B109CE
:104E400080930A0690930B06A0930C06B0930D0670
:104E5000FF91EF91BF91AF919F918F910F900FBEF6
:104E60000F901F90189580916E008D7F80936E003B
:104E700080916805E0916905F0916A0590818095BF
:104E800089238083E5CF1F920F920FB60F921124D2
:104E90002F933F934F935F936F937F938F939F9342
:104EA000AF93BF93EF93FF938091B900887F8036D3
:104EB00009F44AC0F0F5883209F4A7C018F580312A
:104EC00009F49BC0B8F4882309F4F9C0883009F4C8
:104ED00094C0FF91EF91BF91AF919F918F917F917E
:104EE0006F915F914F913F912F910F900FBE0F9057
:104EF0001F901895883109F488C0803251F780934B
:104F0000D60514C0803409F49DC040F48033B9F351
:104F10008833F9F68093D60585ECB0C0803509F466
:104F200085C0883509F496C0883499F60E94A71880
:104F3000D0CF883909F48CC038F5883729F050F47F
:104F4000883611F0803729F683E08093D8051092D7
:104F5000440557C0883809F47BC0803919F080387F
:104F600009F0B7CF80914405803208F071C0E0911C
:104F7000440581E08E0F809344058091BB00F0E0F2
:104F8000EC5DFA4F80833DC0803B39F0E0F4803A1D
:104F900009F479C0883A09F09CCF84E08093D80561
:104FA0001092230510922205E0916005F0916105B1
:104FB00009958091220581110FC081E0809322051F
:104FC0001092020509C0803C09F4A6CF883C09F480
:104FD000A3CF883B09F07DCFE091230581E08E0FC0
:104FE00080932305F0E0EE5FFA4F80818093BB0051
:104FF000909123058091220529C08091B30580936B
:10500000BB0085EC8093BC0064CF9091D505809166
:10501000D405981758F5E091D50581E08E0F80935F
:10502000D505F0E0EC54FA4F8081E9CFE091D50549
:1050300081E08E0F8093D5058091BB00F0E0EC54A9
:10504000FA4F80839091D5058091D4059817C8F2C6
:1050500085E8D8CFE091D50581E08E0F8093D50506
:105060008091BB00F0E0EC54FA4F80838091D7052B
:1050700081115CCF81E08093B20584EA8093BC000B
:105080001092D80526CF85EC8093BC001092D805ED
:1050900080914405803230F4E0914405F0E0EC5D0D
:1050A000FA4F10826091440570E0E0915E05F09146
:1050B0005F0584E295E00995109244050ACF1092AD
:1050C000D60534CFCF93DF93EC01862F6F87188AF4
:1050D00091E0998B9A8B1C8A1B8A198218821A82FA
:1050E0001D8A1E8A1F8A188E44E150E060E070E03D
:1050F0004B835C836D837E834AEF50E060E070E019
:105100004F83588769877A8748EE53E060E070E004
:105110004B875C876D877E8760E00E9416028889D6
:10512000811106C061E08F85DF91CF910C94E80179
:10513000DF91CF910895E0E1F6E01382128288EECC
:1051400093E0A0E0B0E084839583A683B78320EF4B
:1051500032E03183208325EC30E03587248724EC4E
:1051600030E03787268720EC30E0318B208B21EC34
:1051700030E0338B228B22EC30E0358B248B26EC15
:1051800030E0378B268B118E128E138E148EEDEA43
:10519000F6E01382128284839583A683B78382E02C
:1051A00093E0918380836FE273E088E197E00E944F
:1051B0005D1260E087E00E941602EDE3F1E0E49109
:1051C000AAE0B7E0EC93E9E2F1E0E491F0E0EE0F61
:1051D000FF1FE85EFE4F8591949112969C938E93EB
:1051E00011971B961C921B971D961C921D971C963F
:1051F0001C921C971A961C921A9719961C92199732
:1052000018961C92189717961C92179716961C9230
:10521000169715961C92159714961C921497139630
:105220001C926BE373E084E097E00E945D126EE0F5
:105230008BEE96E00E94622860E182ED96E00E948B
:1052400062286FE089EB96E00C946228CF93DF939D
:10525000CDB7DEB7CE54D1090FB6F894DEBF0FBE7E
:10526000CDBF789484B5826084BD84B5816084BDEF
:1052700085B5826085BD85B5816085BD80916E00F4
:10528000816080936E001092810080918100826025
:105290008093810080918100816080938100809162
:1052A00080008160809380008091B1008460809351
:1052B000B1008091B00081608093B00080917A004D
:1052C000846080937A0080917A00826080937A0073
:1052D00080917A00816080937A0080917A00806862
:1052E00080937A001092C10010929105109290055F
:1052F0001092DF05109201060E941F0988ED94E0CC
:10530000909361058093600589ED94E090935F052B
:1053100080935E05E0912006F091210682E0808373
:10532000E0911C06F0911D061082E0911E06F0919E
:105330001F0680E1808310922806E0912406F091F8
:10534000250686E08083E0912206F0912306808185
:1053500080618083E0912206F0912306808188603D
:105360008083E0912206F09123068081806880830B
:10537000E0912206F091230680818F7D808383E374
:1053800098E09093A1018093A00181EE97E0909323
:10539000790180937801909351018093500180EFBF
:1053A00090E0909329018093280181E090E00E9491
:1053B000E1188C3009F4A2C188E190E090935B0180
:1053C00080935A0190E080E00E94E118882309F45C
:1053D00098C181E080930F0182E090E00E94E11883
:1053E0008F3F09F091C1109253011092520183E056
:1053F00090E00E94E1188F3F09F08CC11092550196
:105400001092540184E090E00E94E1188F3F09F06F
:1054100087C1109257011092560186E090E00E94D9
:10542000E1188F3F09F082C1109259011092580182
:1054300087E090E00E94E1188F3F09F07DC1109253
:1054400086058BE090E00E94E1188F3F09F07BC158
:1054500010925D0110925C018CE090E00E94E118D6
:105460008F3F59F02091860130918701820F932F51
:10547000911D90935F0180935E018DE090E00E940A
:10548000E1188F3F29F090E090934B0180934A01FF
:1054900061E089E00E94160261E086E00E94160247
:1054A00061E083E00E94160280916B05833008F072
:1054B000BFC192E090930E06E82FF0E0E158FF4F55
:1054C000E491E0930F068F5F80936B05E13009F460
:1054D00061C108F43EC1E23009F483C180910D013D
:1054E00090910E010E94790C90930E0180930D0112
:1054F00061E08AE00E94160262E088E00E941602E3
:1055000088E00E94BF0121E0892B09F020E0209370
:105510006D051FB7F89480916C05811127C0ECE2EE
:10552000F1E08491E0E4F1E09491E82FF0E0EE0FF7
:10553000FF1FE051FF4FA591B491EC91E92321F4B5
:1055400061E08AE00E94E80161E08AE00E941602C0
:105550008CB580618CBD8CB580648CBD61E08DE0C4
:105560000E94160261E08BE00E94160280916C0599
:105570008F5F80936C051FBF80916D05882309F4B0
:105580005BC189E791E00E94D10062E08EE00E9459
:10559000160262E080E10E94160262E08FE00E9443
:1055A000160261E082E00E94160204E110E020E0B1
:1055B00030E00093EE061093EF062093F006309350
:1055C000F1064EE150E060E070E04093F206509347
:1055D000F3066093F4067093F50680ED97E0A0E083
:1055E000B0E08093F6069093F706A093F806B09388
:1055F000F9060093D5061093D6062093D70630936C
:10560000D8064093D9065093DA066093DB06709370
:10561000DC068093DD069093DE06A093DF06B09350
:10562000E0060093BC061093BD062093BE0630939F
:10563000BF064093C0065093C1066093C2067093A4
:10564000C3068093C4069093C506A093C606B09384
:10565000C70681ED90E00E94D00525E030E042E0F1
:1056600050E068E177E0CE0101967C010E946E1265
:1056700022E030E041E050E068E177E0CE01875B76
:105680009F4F0E946E12BE01675B7F4FCE018D5B04
:105690009F4F0E94541266E373E0CE018D5B9F4FD3
:1056A0000E94BD11B7010E94D311FC0144815581B4
:1056B0006081718180E196E00E94DB040E94080510
:1056C000CE018D5B9F4F0E944311CE01875B9F4FA0
:1056D0000E944311C7010E9443110FEA10E042E209
:1056E000D42EDA94DD2009F4A9C0F801649180E198
:1056F00096E00E9483050F5F1F4FF3CF8CE090E090
:105700005DCE10920F0168CE90E09093530180938C
:1057100052016DCE90E0909355018093540172CE6A
:1057200090E0909357018093560177CE90E090934C
:105730005901809358017CCE91E0811101C090E025
:10574000909386057ECE90E090935D0180935C01FE
:1057500083CE14BC15BC84B5826084BD85B58160E0
:1057600085BD80910E0690E0FC01EE5DFE4FE49158
:10577000F0E0EE0FFF1FE650FF4F2591349130937C
:105780006A0520936905FC01EA5CFE4FE491E09311
:105790006805A4CE10928000109281008091810053
:1057A0008860809381008091810081608093810076
:1057B00080910E0690E0FC01EE5DFE4FE491F0E07A
:1057C000EE0FFF1FE650FF4F259134913093670590
:1057D00020936605FC01EA5CFE4FE491E0936505C9
:1057E0007DCE1092B0001092B1008091B000826026
:1057F0008093B0008091B10081608093B10080916E
:105800000E0690E0FC01EE5DFE4FE491F0E0EE0F3D
:10581000FF1FE650FF4F259134913093640520938C
:105820006305FC01EA5CFE4FE491E093620556CE0D
:105830008FEF80930F0652CE89E5A4CE0E94080513
:1058400084EA90E00E94EB0580910D0190910E0199
:1058500090937805809377050E94790C6FEF70E044
:1058600089E00E94180468EE73E080E090E00E94F6
:105870009A0470E060E089E00E9418046FEF70E025
:1058800086E00E94180468EE73E080E090E00E94D9
:105890009A0470E060E086E00E9418046FEF70E008
:1058A00083E00E94180468EE73E080E090E00E94BC
:1058B0009A0470E060E083E00E94180468E373E0FB
:1058C000C7010E945D1262E473E0CE0107960E9458
:1058D0005D126CE473E0CE010D960E945D1266E5E8
:1058E00073E0CE0143960E945D1260E673E0CE0144
:1058F00049960E945D126AE673E0CE014F960E94BF
:105900005D1264E773E0CE0185960E945D126EE73A
:1059100073E0CE018B960E945D1268E873E0CE01C1
:10592000C1960E945D1262E973E0CE01C7960E94A3
:105930005D1262E173E0CE01CD960E945D1268E1D6
:1059400077E0CE018D5B9F4F0E9454126FE373E0AE
:10595000CE018D5B9F4F0E94BD11BC01CE01CD9643
:105960000E943D12CE018D5B9F4F0E9443110E9409
:10597000CC042B013C01F8EE4F0EF3E05F1E611CDE
:10598000711C912C1FEF94EFC92EDD24D39426E0D7
:10599000822E3BE3A32E3FE1B32E8FE00E94BF0196
:1059A000892B11F49924939480E10E94BF01892BE3
:1059B00009F4912C0E94CC04641975098609970991
:1059C00096010D2C000C440B550B01E026173707F0
:1059D00048075907C0F40E94CC042B013C019110E8
:1059E00001C01F5F1A3009F4D5C008F0D8C001E02B
:1059F000B701189D600D711D112484E097E00E948D
:105A00003D120E94620EC5010197F1F70111C5CF49
:105A1000C0901707C11004C00E9453018111C2C079
:105A20001092150710921707109216078CE890E055
:105A30000E94EB0582E890E00E94EB058E010D5B71
:105A40001F4F06501109C8010E944311E016F106CC
:105A5000C1F710910C01812F0E948C0181E190E02F
:105A60000E94CB0A0E945E0962E070E0812F90E004
:105A70000E94020D8DEA96E00E94550A855000E0D2
:105A8000883320F082E580930C0101E010910C0135
:105A9000812F0E948C0188E290E00E94CB0A0E9434
:105AA0005E0961E070E0812F90E00E94020D8DEAB6
:105AB00096E00E94550A181619060CF4D5C001305C
:105AC00009F0D2C084EE90E00E94EB0505E010E002
:105AD00048EE53E060E070E088EE93E00E945202EE
