:100000000C9420020C9451020C9451020C94510255
:100010000C9451020C9451020C9451020C94510214
:100020000C9451020C9451020C9451020C94510204
:100030000C9451020C94612E0C9451020C945102B8
:100040000C9451020C94B42E0C9451020C94510255
:100050000C9451020C94132F0C9451020C94972C75
:100060000C9451020C946B2D0C94412D0C94510264
:100070000C9451020C9451020C9451020C945102B4
:100080000C9451020C9451020C9451020C945102A4
:100090000C940B2D0C94E12C0C9451020C94722FA7
:1000A0000C9451020C9451020C9451020C94510284
:1000B0000C9451020C9451020C9451020C94A12DF9
:1000C0000C9451020C9451020C9451020C94510264
:1000D0000C9451020C9451020C9451020C94510254
:1000E0000C9451020C9415070C948D240C9451031C
:1000F0000C9491240C946D030C9436030C94FE0C18
:100100000C94A0060C9451070C9444030C942706FD
:100110000C94CA0C0C9413070C940D2C0C945B03D8
:100120000C9495240C9489240C9455060C94670E19
:100130000C9412070C94232B0C9471030C9410064E
:100140000C9469060C9463030C9496060C94550366
:100150000C94A20D0C941D080C9477030C944B0383
:100160000C947B030C942B2A0C948F240C945B0E20
:100170000C94B10E0C9469030C946B0E0C94B70C98
:100180000C94DE2B0C943C030C945F030C943B0604
:100190000C9470240C94AA060C94D10C0C9446294F
:1001A0000C941D060C94A80C0C9482060C94430627
:1001B0000C944B060C945F060C94A00E0C948C06C9
:1001C0000C94A70C0C94352C0C94B5370C949724F4
:1001D0000C9478060C9431060C94B5070C946507C2
:1001E0000C9442070C94CF300C9493240C94180672
:1001F0000C949E0E0C9440030C949A2B0C94730751
:100200000C946F2B0C94790E0C9476030C94480389
:100210005570646174696E672074696D652E2E2E49
:1002200000496E636F727265637420536F6E67204E
:10023000466F726D61742100416C6C20617474654D
:100240006D707473207765726520756E7375636366
:1002500065737366756C2E00417474656D707420DF
:10026000746F2073796E63207769746820475053E8
:100270002E0044617465206F722054696D65206E94
:100280006F7420696E2072616E6765000201005311
:10029000746F7020546573740054656D702E2073F4
:1002A000656E736F72206E6F7420666F756E642E4C
:1002B00000475053204E4F54206465746563746545
:1002C000642100475053206465746563746564005D
:1002D00053746172742054657374004E4353333108
:1002E000342D384320485720322E78204856353157
:1002F0003232206F722048563532323200466972EF
:100300006D776172652076657273696F6E3A200051
:100310004661756C7479205254432100000021001D
:10032000240027002A002D003000330001010000C6
:10033000040107010A0100002200250028002B000B
:100340002E003100340002010000050108010B01FC
:1003500000000A0B02090C0D0E080703040100003F
:10036000000000000000000000000000000000008D
:10037000000000000000000000000000121110004A
:10038000000000000000000000000000000000006D
:1003900000000000000000002000230026002900CB
:1003A0002C002F00320000010000030106010901AA
:1003B00005050505070508080808020202020A0AE1
:1003C00008080404040401010101010101010303FF
:1003D000030303030303040707070C0C0C0C0C0CAA
:1003E0000C0C0202020206060606060606060B0BA7
:1003F0000B0B0B0B0B0B01021020200808102040E8
:1004000010204080020102010804020101020408D8
:100410001020408080402010080402018004020166
:1004200080402010080402010804020101020408AF
:10043000102040800102040810204080CF30B537E2
:1004400011241FBECFEFD1E2DEBFCDBF00E00CBF55
:100450002AE0A6E2B5E001C01D92A834B207E1F798
:1004600015E0A0E0B2E0ECEDF9E700E00BBF02C060
:1004700007900D92A632B107D9F712E0CFE1D2E092
:1004800000E006C021970109802FFE010E949B3ADF
:10049000CE31D10780E00807A9F70E94BE310C9445
:1004A000DC3C0C9400008CBD9DBD08958091FD093D
:1004B000E091FE09F091FF09F8949181982B9183C6
:1004C0002281382F309523232283A7E0B0E01197B3
:1004D000F1F7918193239183A3E2B0E01197F1F7B3
:1004E00090817894EFECF0E03197F1F7982381E078
:1004F00009F480E008959091FD09E091FE09F091E2
:10050000FF09292F209580FF14C0F894828182234F
:1005100082838181892B8183A3E2B0E01197F1F777
:100520008281982B9283789487ED90E00197F1F780
:100530000895F8948281822382838181892B81832B
:10054000AFEFB0E01197F1F78281982B9283789406
:100550008FE090E0EBCF0F931F93CF93DF93082FA3
:10056000C8E0D0E011E081E0902F912309F480E011
:100570000E947B02110F2197B1F7F894E091FE09D8
:10058000F091FF0991818091FD09809598239183D5
:10059000E091FE09F091FF0992818923828378948A
:1005A000DF91CF911F910F9108958091FD09E09106
:1005B000FE09F091FF09F8949181282F209592234C
:1005C000918378943DE743E050E0315029F1DA011E
:1005D0001197F1F790819823C1F3F89492819223B7
:1005E00092839181982B91837894ABE7B7E0119730
:1005F000F1F7F894918192239183A3E1B1E01197EF
:10060000F1F79081982381E009F080E07894E3E6A7
:10061000F6E03197F1F7089580E0089591E0909326
:1006200062078093840710926307109285070895EC
:100630008150823108F05AC0E82FF0E08827EC5D45
:10064000FC4F8F4F0C949B3A4403480336033C0302
:10065000400376034B03510355035B035F036303BE
:1006600069036D037603710377037B038091800038
:100670008F77809380000895809180008F7DF9CFDF
:1006800080918000877FF5CF84B58F7784BD0895F2
:1006900084B58F7DFBCF8091B0008F778093B000C1
:1006A00008958091B0008F7DF9CF809190008F7771
:1006B000809390000895809190008F7DF9CF809174
:1006C0009000877FF5CF8091A0008F778093A00066
:1006D00008958091A0008F7DF9CF8091A000877F41
:1006E000F5CF809120018F7780932001089580912C
:1006F00020018F7DF9CF80912001877FF5CFCF93A7
:10070000DF93282F30E0F901E05BFC4F8491F90181
:10071000EA50FC4FD491F901E055FC4FC491CC2331
:10072000A1F081110E941803EC2FF0E0EE0FFF1FE3
:10073000EA56FC4FA591B491EC91ED2381E090E055
:1007400009F480E0DF91CF91089580E090E0FACF46
:100750001F93CF93DF93282F30E0F901E05BFC4F2C
:100760008491F901EA50FC4FD491F901E055FC4F16
:10077000C491CC23A9F0162F81110E941803EC2FED
:10078000F0E0EE0FFF1FEA5CFC4FA591B4918FB72C
:10079000F894EC91111108C0D095DE23DC938FBF43
:1007A000DF91CF911F910895DE2BF8CFCF93DF9388
:1007B00090E0FC01EA50FC4F249180559C4FFC01D5
:1007C00084918823C9F090E0880F991FFC01E45EB2
:1007D000FC4FA591B491FC01EA5CFC4FC591D4910A
:1007E00061110DC09FB7F8948C91209582238C9352
:1007F0008881282328839FBFDF91CF91089562309D
:1008000051F49FB7F8943C91822F809583238C9369
:10081000E8812E2BEFCF8FB7F894EC912E2B2C93F1
:100820008FBFEACF4F925F926F927F928F929F928B
:10083000AF92BF92CF92DF92EF92FF920F931F93EE
:10084000CF93DF9300D01F921F92CDB7DEB72091D8
:10085000930727FD2CC149835A836B837C838C01CA
:1008600061E0809192070E94D603809193078D8367
:100870004801B12CA12C8D7F09F031C160E072E1FB
:100880008AE790E0A50198010E947C3A29013A018B
:100890007A01690191E0C91AD108E108F108AFEFC6
:1008A000CA16D104E104F10409F00CF4C7C060E4F5
:1008B00072E48FE090E0A50198010E947C3A690102
:1008C0007A01B1E0CB1AD108E108F1088D818230BC
:1008D00009F06AC082E09FEFC916D104E104F10477
:1008E00009F00CF45EC160E970ED83E090E0A501D1
:1008F00098010E947C3A69017A01A1E0CA1AD108E4
:10090000E108F10883E0BFEFCB16D104E104F10464
:1009100009F00CF446C168E478EE81E090E0A501AE
:1009200098010E947C3A69017A0181E0C81AD108D5
:10093000E108F10884E09FEFC916D104E104F10455
:1009400009F00CF42EC164E274EF80E090E0A501A0
:1009500094010E947C3A69017A01B1E0CB1AD10876
:10096000E108F10885E09FEFC916D104E104F10424
:1009700009F008F416C162E17AE780E090E0A50191
:1009800094010E947C3A69017A01B1E0CB1AD10846
:10099000E108F1088FEFC816D104E104F10411F069
:1009A00008F0F0C086E0FDC08FEFC816D104E10466
:1009B000F10409F00CF491C068E478EE81E090E075
:1009C000A50198010E947C3A69017A0191E0C91A57
:1009D000D108E108F108AD8184E0A111C4CF83E022
:1009E000AFEFCA16D104E104F10461F15CF162E1F8
:1009F0007AE780E090E0A50194010E947C3A6901C9
:100A00007A0181E0C81AD108E108F10884E09FEF7B
:100A1000C916D104E104F104A9F0A0F07301620148
:100A20009AE0F594E794D794C7949A95D1F7A1E00A
:100A3000CA1AD108E108F10885E004C081E0AD815F
:100A4000A111AFC095B5987F892B85BD89819A8109
:100A5000AB81BC812FEF3FEFA901892B8A2B8B2B18
:100A600079F0D801AA0FBB1F29813A814B815C81A3
:100A70000E94683928EE33E040E050E00E945A3A84
:100A80009D81913009F45CC0923009F46BC09111E2
:100A90000EC0C7BC20938E0730938F0740939007FA
:100AA0005093910780916E00826080936E000F904A
:100AB0000F900F900F900F90DF91CF911F910F919A
:100AC000FF90EF90DF90CF90BF90AF909F908F906E
:100AD0007F906F905F904F90089582E0B0CF60E07C
:100AE00072E18AE790E0A50198010E947C3A6901D1
:100AF0007A01B1E0CB1AD108E108F10891E0C11404
:100B0000D10481E0E806F10484F068E478EE81E045
:100B100090E0A50198010E947C3A69017A0191E078
:100B2000C91AD108E108F10893E0AD81A13009F0BC
:100B30008DCF80918100887F892B8093810086CF23
:100B4000D0928900C092880020938A0730938B0747
:100B500040938C0750938D0780916F008260809343
:100B60006F00A5CFC092B30020938607309387070C
:100B7000409388075093890780917000826080932A
:100B8000700095CF730162018AE0F594E794D794E1
:100B9000C7948A95D1F7B1E0CB1AD108E108F108E2
:100BA00087E09091B100987F892B8093B1004ECF60
:100BB0001F93CF93DF93182FEB0161E00E94D603C0
:100BC000209739F460E0812FDF91CF911F910C9431
:100BD000A803CF3FD10511F461E0F5CFE12FF0E09C
:100BE000E05BFC4FE491E150E23108F0B3C0F0E08B
:100BF0008827E250FA4F8F4F0C949B3A1006180644
:100C00001D0627063106AA063B0643064B06550677
:100C10005F06690678068206AA068C069606A00676
:100C200084B5806884BDC7BDDF91CF911F910895C1
:100C300084B5806284BDC8BDF7CF80918000806894
:100C400080938000D0938900C0938800EDCF80917D
:100C50008000806280938000D0938B00C0938A00D4
:100C6000E3CF80918000886080938000D0938D00D6
:100C7000C0938C00D9CF8091B00080688093B00081
:100C8000C093B300D1CF8091B00080628093B00058
:100C9000C093B400C9CF8091900080688093900089
:100CA000D0939900C0939800BFCF8091900080624C
:100CB00080939000D0939B00C0939A00B5CF809111
:100CC0009000886080939000D0939D00C0939C001A
:100CD000ABCF8091A00080688093A0008091A0009D
:100CE0008F7B8093A000D093A900C093A8009CCFD5
:100CF0008091A00080628093A000D093AB00C0934D
:100D0000AA0092CF8091A00088608093A000D09329
:100D1000AD00C093AC0088CF8091200180688093A3
:100D20002001D0932901C09328017ECF809120011A
:100D3000806280932001D0932B01C0932A0174CF4D
:100D400080912001886080932001D0932D01C09371
:100D50002C016ACFC038D1050CF03ECF33CF3FB75E
:100D6000F8948091100790911107A0911207B0910B
:100D7000130726B5A89B05C02F3F19F00196A11DAA
:100D8000B11D3FBFBA2FA92F982F8827BC01CD01D5
:100D9000620F711D811D911D42E0660F771F881F34
:100DA000991F4A95D1F708958F929F92AF92BF9263
:100DB000CF92DF92EF92FF924B015C010E94AF064F
:100DC0006B017C010E94AF066C197D098E099F0999
:100DD000683E734081059105A8F321E0821A9108CD
:100DE000A108B10888EEC80E83E0D81EE11CF11CF2
:100DF00081149104A104B10429F7FF90EF90DF90D2
:100E0000CF90BF90AF909F908F9008952FB7F89498
:100E100060910C0770910D0780910E0790910F075C
:100E20002FBF0895089508950895AF92BF92CF926D
:100E3000DF92EF92FF920F931F93CF93DF936C019A
:100E40007B018B01040F151FEB015E01AE18BF087B
:100E5000C017D10759F06991D601ED91FC9101902D
:100E6000F081E02DC6011995892B79F7C501DF9135
:100E7000CF911F910F91FF90EF90DF90CF90BF9097
:100E8000AF900895FC01538D448D252F30E0842FC1
:100E900090E0821B930B541710F0CF9608950197A2
:100EA0000895FC01918D828D981761F0A28DAE0F8F
:100EB000BF2FB11D5D968C91928D9F5F9F73928F16
:100EC00090E008958FEF9FEF0895FC01918D828D42
:100ED000981731F0828DE80FF11D858D90E008950F
:100EE0008FEF9FEF0895FC01918D228D892F90E067
:100EF000805C9F4F821B91098F739927089584E925
:100F000097E00E94730721E0892B09F420E0822FEB
:100F1000089581E398E00E94730721E0892B09F48A
:100F200020E0822F0895FC01A48DA80FB92FB11DD8
:100F3000A35ABF4F2C91848D90E001968F7399270F
:100F4000848FA689B7892C93A089B1898C918370ED
:100F500080648C93938D848D981306C00288F389E6
:100F6000E02D80818F7D80830895EF92FF920F9313
:100F70001F93CF93DF93EC0181E0888F9B8D8C8D45
:100F800098131AC0E889F989808185FF15C09FB739
:100F9000F894EE89FF896083E889F98980818370FC
:100FA000806480839FBF81E090E0DF91CF911F91AB
:100FB0000F91FF90EF900895F62E0B8D10E00F5FCC
:100FC0001F4F0F731127E02E8C8D8E110CC00FB6A2
:100FD00007FCFACFE889F989808185FFF5CFCE013A
:100FE0000E949307F1CFEB8DEC0FFD2FF11DE35A1B
:100FF000FF4FF0829FB7F8940B8FEA89FB898081BD
:101000008062CFCF0F931F93CF93DF938C01D0E0FB
:10101000C0E0F801EC0FFD1F6491662341F081E30D
:1010200098E00E94B507892B11F02196F2CFCE01EE
:10103000DF91CF911F910F910895CF93DF93EC0132
:10104000888D8823B9F0AA89BB89E889F9898C91B0
:1010500085FD03C0808186FD0DC00FB607FCF7CF6C
:101060008C9185FFF2CF808185FFEDCFCE010E946C
:101070009307E9CFDF91CF91089580E090E0892B2D
:1010800029F00E94890781110E94000080E090E011
:10109000892B29F00E947F0781110E94000080E0C7
:1010A00090E0892B49F080E090E0892B29F00E94A4
:1010B000000081110E94000080E090E0892B49F03F
:1010C00080E090E0892B29F00E94000081110C94AF
:1010D000000008956093D7067093D8068093D906D0
:1010E0009093DA06645D7E4F8F4F9F4F6093D306D7
:1010F0007093D4068093D5069093D60682E090E054
:101100009093D2068093D1060E9406076093CD0685
:101110007093CE068093CF069093D0060895CF9219
:10112000DF92EF92FF920F931F930E9406078B01AD
:101130009C01C090CD06D090CE06E090CF06F090F6
:10114000D0066091D7067091D8068091D90690910B
:10115000DA060C191D092E093F09083E1340210526
:101160003105E0F0DC01CB010196A11DB11D80939A
:10117000D7069093D806A093D906B093DA06B701A4
:10118000A60148515C4F6F4F7F4F4093CD0650935F
:10119000CE066093CF067093D006C7CF1F910F91F4
:1011A000FF90EF90DF90CF9008954F925F926F92F3
:1011B0007F928F929F92AF92BF92CF92DF92EF92E7
:1011C000FF920F931F93CF93DF93FC011681A12F02
:1011D000B0E020E833E341EE51E00E9468394B0172
:1011E0005C01C2EBD7E09D0104E610E080E9E82E47
:1011F000FF24F394CE01825B9740821793079CF102
:101200004580512C2E54384FC90164E670E00E948D
:10121000463A7C01C90160E971E00E94463A6C01DE
:1012200000EE13E0C1E0D0E0390183E068227724CA
:10123000C415D5050CF040C0C230D10571F561145C
:10124000710459F5E114F10419F4C114D10429F51C
:10125000B0E88B0EBBE39B1EB6E2AB1EB11C219621
:101260000F5F1F4FE5CFCE0183709927892B99F42B
:10127000CE01B8010E94463A892B31F4CE01B70164
:101280000E94463A892B39F4A0E88A0EA1E59A1EFD
:10129000A1E0AA1EB11C2196ADCFD8018C91A82F38
:1012A000B0E020E831E541E050E00E946839860E68
:1012B000971EA81EB91ED3CF228130E0A0E1BEE068
:1012C0000E9473396B017C01218130E0ACE3B0E016
:1012D0000E947339C60ED71EE81EF91E8081C80E03
:1012E000D11CE11CF11CA481A150BB0B20E831E50D
:1012F00041E050E00E94AA3A6C0D7D1D8E1D9F1D9D
:10130000680D791D8A1D9B1DDF91CF911F910F9153
:10131000FF90EF90DF90CF90BF90AF909F908F9015
:101320007F906F905F904F900895EF92FF920F9390
:1013300094E6E916F104CCF092EBE91A97E0F90A89
:10134000E092E1060093E0062093DF068093DD063D
:101350006093DC064093DB068BED96E00E94D50897
:101360000F91FF90EF900C946A089EE1E90EF11C3A
:10137000E7CF6F927F928F929F92AF92BF92CF9260
:10138000DF92EF92FF920F931F93CF93DF936B0146
:101390007C01EA018CE3882E912CA12CB12CC70191
:1013A000A50194010E945A3A6883CA01B901A501B6
:1013B00094010E945A3A6983C701B60120E13EE0D8
:1013C00040E050E00E945A3ACA01B90128E130E0F9
:1013D00040E050E00E945A3A6A83C701B60120E813
:1013E00031E541E050E00E945A3A69017A01CA01B0
:1013F000B9016C5F7F4F8F4F9F4F27E030E040E097
:1014000050E00E945A3A6F5F6B83812C912C5401FB
:1014100040E094E6692E712C00E911E0242F30E0C1
:101420002E54384FF901E370FF273097F9F4C901C2
:10143000B3010E94463A892B31F4C901B8010E94D8
:10144000463A892B99F48EE691E0A0E0B0E0880E50
:10145000991EAA1EBB1ED501C401AA27BB27C81608
:10146000D906EA06FB0638F04F5FD8CF8DE691E04B
:10147000A0E0B0E0ECCF4E83C90164E670E00E94CA
:10148000463A8C01C90160E971E00E94463A309702
:1014900029F401151105E1F40097D1F04DE651E072
:1014A00060E070E0841A950AA60AB70AC818D9083D
:1014B000EA08FB08A0EEB3E020E0213071F4309799
:1014C00091F50115110511F4009769F54DE106C07C
:1014D0004EE651E060E070E0E5CF4C9150E070E006
:1014E00060E031E0320FC416D506E606F70640F09C
:1014F000C41AD50AE60AF70A1196232F3C30E9F6FA
:101500002F5F2D83C394CC82DF91CF911F910F91D8
:10151000FF90EF90DF90CF90BF90AF909F908F9013
:101520007F906F9008954CE1D9CFCF92DF92EF92E8
:10153000FF92C090C906D090CA06E090CB06F0900A
:10154000CC06C616D706E806F90671F06B017C01D9
:101550004BED56E00E94B909C092C906D092CA0666
:10156000E092CB06F092CC06FF90EF90DF90CF9008
:1015700008950E948F080E94950A8091E10690E0EC
:101580008E54984F08950E948F080E94950A80916A
:10159000E00690E008950E948F080E94950A8091CD
:1015A000DF0690E008950E948F080E94950A8091BE
:1015B000DB0690E008950E948F080E94950A8091B2
:1015C000DC0690E008950E948F080E94950A8091A1
:1015D000DD0690E00895CF92DF92EF92FF92CF93D5
:1015E000DF93EC010E9406076B017C018F850E944E
:1015F0007F039C0181E02115310509F480E0898B8E
:101600008889811105C091E0232B09F090E0998B26
:1016100029898A89281721F0CD8ADE8AEF8AF88EF7
:101620008D899E89AF89B88DB701A601481B590BDA
:101630006A0B7B0BDB01CA01CB80DC80ED80FE8076
:10164000C816D906EA06FB0664F43A81231749F066
:101650002A83222349F04B895C894F5F5F4F5C8B63
:101660004B8B3A81311117C0CF80D884E984FA843A
:10167000C816D906EA06FB0634F48B899C8999833F
:1016800088831C8A1B8A2A8BDF91CF91FF90EF9071
:10169000DF90CF900895CB84DC84ED84FE84C8165F
:1016A000D906EA06FB067CF78B899C899195819582
:1016B0009109E5CF2091A606260F3327331F21324B
:1016C0003105ECF420915C07FC0190E080E02430CF
:1016D00069F082E00895A091A6062191AC014A57D5
:1016E000594FA40FB52FB11D2C930196861798F36F
:1016F0008091A606680F6093A60680E0089581E0B9
:10170000089510925C0781E080935B071092360782
:1017100061E084E10E94A80361E085E10E94A803E2
:10172000E9EBF0E080818E7F808380818D7F8083F4
:1017300088E48093B80085E48093BC000895CF933B
:10174000DF9391E0909385068823B9F0C091B800AB
:10175000D091BA008091BC008A7B8093BC0060E08D
:1017600084E10E94A80360E085E10E94A8030E9432
:10177000810BD093BA00C093B800DF91CF91089548
:10178000CF92DF92EF92FF920F931F93CF93DF934D
:10179000D091850781E0D13208F09CC0C0918407C8
:1017A0000E94AF066B017C0180915C0781116CC0C7
:1017B00082E080935C0781E080935B078FEF8093EA
:1017C0005A0710925907D0935807A4E6B7E0E8E308
:1017D000F7E080E0D8138DC010923707809137076B
:1017E000CC0FC82BC093370780913607813009F0A2
:1017F00084C0109236070E94AF066B017C01809175
:1018000037078093BB0080915E0790915F07A0919E
:101810006007B0916107892B8A2B8B2BA1F00E9466
:10182000AF0600915E0710915F072091600730912D
:1018300061076C197D098E099F090617170728078C
:10184000390708F442C08091BC0083FDD8CF85ECF5
:101850008093BC000E94AF066B017C0180915C0705
:10186000823009F44CC080915A078F3F09F469C057
:1018700080915A07803209F466C080915A078033FC
:1018800009F463C084E026C080915E0790915F07F1
:10189000A0916007B0916107892B8A2B8B2B09F4EB
:1018A00083CF0E94AF0600915E0710915F072091E1
:1018B0006007309161076C197D098E099F09061731
:1018C00017072807390708F06FCF80915D070E943E
:1018D0009F0B85E0109263071092850710926207B4
:1018E000DF91CF911F910F91FF90EF90DF90CF90FC
:1018F00008959D9191938F5F6DCF85EEA9CF8091D3
:101900005E0790915F07A0916007B0916107892BF6
:101910008A2B8B2B09F4A2CF0E94AF0600915E07A1
:1019200010915F0720916007309161076C197D0964
:101930008E099F09061717072807390708F08ECF69
:10194000C4CF80E0C7CF82E0C5CF83E0C3CF089586
:10195000E091150780911407E81730F4F0E0EA5E93
:10196000F84F808190E008958FEF9FEF0895909158
:101970001507809114072FEF3FEF981748F4E92FD0
:10198000F0E0EA5EF84F208130E09F5F909315070A
:10199000C90108958091140790911507891B990B2F
:1019A0000895CF92DF92EF92FF920F931F93CF9300
:1019B000DF937C01CB018A0120916207222389F009
:1019C000EB016B01C40ED51ECC15DD0569F06991E4
:1019D000D701ED91FC910190F081E02DC70119959F
:1019E000F3CF642F0E945A0BC801DF91CF911F9152
:1019F0000F91FF90EF90DF90CF900895CF93DF93FA
:101A00001F92CDB7DEB76983209162072223F9F0D8
:101A100020918507203258F021E030E0FC0133832B
:101A2000228390E080E00F90DF91CF910895809124
:101A30006307E82FF0E0EC59F84F998190838F5FAE
:101A4000809363078093850781E090E0ECCF61E0AD
:101A5000CE0101960E945A0BF7CF682F8EEC98E0CA
:101A60000C94FE0CDF92EF92FF920F931F93CF9393
:101A7000DF93182FF62ED42ED22F8091AF020E9422
:101A80000E0360E08EEC98E00E94FE0CCAE08D2D03
:101A90006C2F0E943A3A8295807F682F690F8EECF6
:101AA00098E00E94FE0C8F2D6C2F0E943A3A82958E
:101AB000807F682F690F8EEC98E00E94FE0C812FCA
:101AC0006C2F0E943A3A8295807F682F690F8EECC6
:101AD00098E00E94FE0C61E08EEC98E00E94FE0C03
:101AE0008D2F6C2F0E943A3A8295807F682F690F64
:101AF0008EEC98E00E94FE0C802F6C2F0E943A3AE8
:101B00008295807F682F690F8EEC98E00E94FE0C12
:101B10008E2D6C2F0E943A3A8295807F682F690F34
:101B20008EEC98E00E94FE0C60E08EEC98E00E9443
:101B3000FE0CDF91CF911F910F91FF90EF90DF90FE
:101B40000C94C00B90E080E00895CF92DF92EF926A
:101B5000FF920F931F93CF93DF939091840691117F
:101B60000BC08FEF9FEFDF91CF911F910F91FF90EF
:101B7000EF90DF90CF90089590918306992389F399
:101B8000082FC0918206D0E080917A0681110DC0A5
:101B90000E94060760937606709377068093780616
:101BA0009093790681E080937A060E940607C090A0
:101BB0007606D0907706E0907806F09079066C195A
:101BC0007D098E099F096D32714081059105B0F044
:101BD000109175060E94060760937606709377064B
:101BE000809378069093790691E0912790937506FB
:101BF000992331F1109274061092730620917306A6
:101C0000309174062095309580917206282326FF26
:101C10001CC081E08093710627FF1AC081E0809389
:101C2000700680917506882309F49BCF02C0D59574
:101C3000C7950A95E2F7C0FF94CF80E09CE393CF6D
:101C4000D0937406C0937306D9CF10927106E4CF77
:101C500010927006E6CFEF92FF920F931F93CF93EF
:101C6000DF93182F80914A0681110DC00E9406074C
:101C70006093460670934706809348069093490602
:101C800081E080934A06C0914406D0914506C93050
:101C9000D10508F077C0FE018827EE5AF14F8F4F2B
:101CA0000C949B3A5B0E670E6B0E790E5B0E670E03
:101CB0009E0EA00EB10E0E94D5022196CA30D1050B
:101CC00009F091C0109245061092440628C08CEC91
:101CD0000E94AB02F2CF84E40E94AB020E9406078E
:101CE0006093460670934706809348069093490692
:101CF000E4CF0E9406070091460610914706209106
:101D0000480630914906601B710B820B930BC4E0AF
:101D1000D0E06E3E72408105910508F064C060918C
:101D20004006709141068091420690914306DF91F2
:101D3000CF911F910F91FF90EF9008958EEBC8CF38
:101D400098E0E92EF12C10E001E00E94560281118A
:101D5000102B000F81E0E81AF108B9F710933E0646
:101D6000ACCF88E0E82EF12C10E001E00E94560292
:101D70008111102B000F21E0E21AF108B9F710933E
:101D80003F069BCFC930D10509F097CF60913E0641
:101D900070913F066F3F760711F470E060E0072E08
:101DA000000C880B990B0E94353820E030E040E8A9
:101DB0005DE30E949438111109C06093400670934E
:101DC0004106809342069093430677CF26E636E697
:101DD00046EE5FE30E94943820E030E040E052E4B9
:101DE0000E948339EACFD0934506C093440697CF2B
:101DF0000F931F938091570290915802892B09F4F9
:101E000049C0809129068823A9F00E940607009105
:101E10002506109126062091270630912806601B82
:101E2000710B820B930B693E73408105910590F114
:101E3000109229060E94E30A209151023091520229
:101E40008217930739F50E94DB0A209153023091E3
:101E5000540282179307F1F40E94D30A209155028D
:101E60003091560282179307A9F40E9406076093E7
:101E7000250670932606809327069093280681E016
:101E80008093290680910C0290910D029093FC069C
:101E90008093FB061F910F910895CF93DF93EC0180
:101EA0002196FC0120812A33C9F42181243609F5C9
:101EB000229630E020E06AE0899190ED980F9A3008
:101EC00078F4629FA001639F500D1124082E000C2E
:101ED000990BC0979A01280F391FEECFCE01DFCFA3
:101EE00030931D0620931C062115310511F0209317
:101EF0000B0288818F3689F48A81082E000C990B99
:101F00009C012053310930931D0620931C06C39772
:101F1000059710F420930A02249688818236F1F402
:101F2000229630E020E06AE0899190ED980F9A3097
:101F300068F4629FA001639F500D1124082E000CCD
:101F4000990BC0979A01280F391FEECF30931D06C9
:101F500020931C0630930902209308022091080266
:101F600030910902032E000C440B550B60E67AEE0B
:101F700080E090E00E947C3A82E0220F331F441FF1
:101F8000551F8A95D1F72093180630931906409370
:101F90001A0650931B06CE01DF91CF910895CF9280
:101FA000DF92EF92FF920F931F93CF93DF93EC0199
:101FB0008B010E940607CE80DF80E884F984AB01A4
:101FC000BC014C195D096E097F0988819981092E30
:101FD000000CAA0BBB0B84179507A607B707A0F444
:101FE0008A85882389F01A868D811C821D82823021
:101FF00060F181E090E0DF91CF911F910F91FF9010
:10200000EF90DF90CF9008958B859C858017910786
:10201000C9F481E08C838D818F5F8D830E940607D8
:102020006E837F838887998781E08A872D818A8163
:102030009B81281719064CF01C821D821A868FEF8F
:102040009FEFD9CF8C81811103C090E080E0D3CF86
:102050000F3F1F4FD1F7DFCF8EBD00000DB407FE3D
:10206000FDCF8EB508958F929F92AF92BF92CF927F
:10207000DF92EF92FF920F931F93CF93DF937C0138
:10208000D62F0E94AF064B015C0180915C07811145
:1020900067C0CD2F81E080935C0780935B079FEF43
:1020A00090935A07109259079D0F90935807809369
:1020B000370780913707EE0CFF1C8E298093370776
:1020C00080913607813009F083C0109236070E9454
:1020D000AF066B017C01809137078093BB00809134
:1020E0005E0790915F07A0916007B0916107892B0F
:1020F0008A2B8B2BA1F00E94AF0680905E079090F8
:102100005F07A0906007B09061076C197D098E0988
:102110009F0986169706A806B90608F442C0809162
:10212000BC0083FDD8CF85EC8093BC000E94AF0635
:102130006B017C0180915C07813009F44BC0809178
:1021400059078D1710F4C0915907E8E3F7E0A6E1AD
:10215000B7E080E08C1751F191919D938F5FFACF9A
:1021600080915E0790915F07A0916007B091610731
:10217000892B8A2B8B2B09F488CF0E94AF06009104
:102180005E0710915F072091600730916107681921
:1021900079098A099B09061717072807390708F0E4
:1021A00074CF80915D070E949F0BC0E010921507CD
:1021B000C09314078C2FDF91CF911F910F91FF9047
:1021C000EF90DF90CF90BF90AF909F908F90089549
:1021D00085EEAACF80915E0790915F07A09160077E
:1021E000B0916107892B8A2B8B2B09F4A3CF0E9416
:1021F000AF0680905E0790905F07A0906007B09058
:1022000061076C197D098E099F0986169706A80635
:10221000B90608F08FCFC5CFCF93C091AF028C2FF6
:102220000E940E0360E08EEC98E00E94FE0C0E947B
:10223000C00B67E070E08C2F90E00E9433108EECB2
:1022400098E00E94B70C982F92959F70CAE08F700B
:102250009C9F800D112490E09093090780930807BC
:102260008EEC98E00E94B70C982F92959F708F701B
:102270009C9F800D112490E0909300078093FF06AF
:102280008EEC98E00E94B70C982F929593708F7007
:102290009C9F800D112490E09093FE068093FD0694
:1022A0008EEC98E00E94B70C8EEC98E00E94B70C80
:1022B000982F92959F708F709C9F800D112490E0B5
:1022C00090930207809301078EEC98E00E94B70C70
:1022D000982F92959F708F709C9F800D112490E095
:1022E00090930407809303078EEC98E00E94B70C4C
:1022F000982F92959F708F709C9F800D112490E075
:102300008053984F9093060780930507CF910895C7
:10231000FC0101900020E9F73197AF01481B590BF0
:10232000BC0181E398E00C941507CF93DF930E94E2
:102330000208EC0180E194E00E9488118C0F9D1F3F
:10234000DF91CF9108958F929F92AF92BF920F939A
:102350001F93CF93DF93CDB7DEB7A1970FB6F89455
:10236000DEBF0FBECDBF19A2423008F44AE08E0195
:102370000F5D1F4F842E912CB12CA12CA50194012F
:102380000E945A3AE62FB901CA01EA30F4F4E05D3E
:10239000D801EE938D01232B242B252B79F790E088
:1023A00080E0109719F0CD010E948811A1960FB618
:1023B000F894DEBF0FBECDBFDF91CF911F910F917B
:1023C000BF90AF909F908F900895E95CE1CFCF933D
:1023D000DF93682F70E090E080E04AE00E94A31154
:1023E000EC0180E194E00E9488118C0F9D1FDF9129
:1023F000CF910895FC0180819181009711F00C9498
:10240000BD3760E070E0CB0108954F925F926F920C
:102410007F928F929F92AF92BF92CF92DF92EF9274
:10242000FF92CF93DF93CDB7DEB72D970FB6F89419
:10243000DEBF0FBECDBF0E94AF06C0906C06D0902D
:102440006D06E0906E06F0906F066C197D098E099E
:102450009F096A3171448105910508F457C20E94B1
:10246000AF0660936C0670936D0680936E06909332
:102470006F0687EF99E00E94FA1169837A838B8354
:102480009C8360E08AE00E94A803FAE0CF2ED12C62
:10249000E12CF12C69817A818B819C81A7019601C5
:1024A0000E947C3A49015A01660F771F64537C4FA2
:1024B000DB014D905C9087E090E00E94A50D3C010F
:1024C000C501B401A70196010E947C3A660F771FEF
:1024D00064537C4FFB018080918087E090E00E94F4
:1024E000A50D5C0169817A818B819C8124E630E0B5
:1024F00040E050E00E947C3ACA01B901A701960170
:102500000E947C3A660F771F64537C4FDB01ED908D
:10251000FC9086E090E00E94A50D46205720712C8B
:10252000612C24E1440C551C661C771C2A95D1F7BC
:102530008E219F21B0E0A0E073016201C82AD92A50
:10254000EA2AFB2A8A209B20B12CA12C3AE0880C95
:10255000991CAA1CBB1C3A95D1F7C828D928EA288F
:10256000FB2869817A818B819C8128EE33E040E0F1
:1025700050E00E947C3A29013A018091710688233B
:1025800009F491C16894F6F880917006882309F4E3
:102590008DC16894F7F8B091F106BD878F2D99270A
:1025A000AA27BB278D839E83AF83B8874701AA24C0
:1025B000BB24BB27AF2D9E2D8D2D89879A87AB8796
:1025C000BC879D85992309F474C18C2D0E942C1021
:1025D00089850E942C10882D0E942C108D810E94CC
:1025E0002C108AE0882E912CA12CB12CC301B201B1
:1025F000A50194010E947C3A660F771F64537C4FBB
:10260000DB01CD90DC9085E090E00E94A50D7C017F
:1026100069817A818B819C8120E137E240E050E042
:102620000E947C3ACA01B901A50194010E947C3A3A
:10263000660F771F64537C4FFB016080718084E0DC
:1026400090E00E94A50DCE20DF20F12CE12C34E19A
:10265000CC0CDD1CEE1CFF1C3A95D1F7862197218E
:10266000B0E0A0E04AE0880F991FAA1FBB1F4A955F
:10267000D1F7C82AD92AEA2AFB2A69817A818B8173
:102680009C8120EA36E841E050E00E947C3ACA0191
:10269000B901A50194010E947C3A660F771F64532B
:1026A0007C4FDB01AD90BC9083E090E00E94A50DD3
:1026B0008A219B21B0E0A0E0C82AD92AEA2AFB2A75
:1026C00069817A818B819C8120E432E44FE050E083
:1026D0000E947C3A29013A0180917106882309F40D
:1026E000F3C06894F6F880917006882309F4EFC06F
:1026F0006894F7F88F2D9927AA27BB278D839E838F
:10270000AF83B8874701AA24BB24BB27AF2D9E2DDA
:102710008D2D89879A87AB87BC879D85992309F47E
:10272000D9C08C2D0E942C1089850E942C10882DD8
:102730000E942C108D810E942C103AE0832E912C47
:10274000A12CB12CC301B201A50194010E947C3AD5
:10275000660F771F64537C4FDB01CD90DC9082E0E5
:1027600090E00E94A50D7C0169817A818B819C811A
:1027700020E836E948E950E00E947C3ACA01B901F4
:10278000A50194010E947C3A660F771F64537C4F29
:10279000FB016080718081E090E00E94A50DCE2059
:1027A000DF20F12CE12C64E1CC0CDD1CEE1CFF1CC5
:1027B0006A95D1F786219721B0E0A0E07AE0880FF2
:1027C000991FAA1FBB1F7A95D1F7C82AD92AEA2ACE
:1027D000FB2A69817A818B819C8120E031EE45EF73
:1027E00055E00E947C3ACA01B901A50194010E94FA
:1027F0007C3A660F771F64537C4FDB01AD90BC9031
:1028000090E080E00E94A50D8A219B21B0E0A0E02D
:102810008C299D29AE29BF29209171066C017D016B
:10282000222309F462C06894F6F880917006882328
:1028300009F45EC06894F7F84F2C55246624772479
:102840004701AA24BB24BB27AF2D9E2D8D2D898344
:102850009A83AB83BC839D85992309F44CC08C2D4E
:102860000E942C1089810E942C10882D0E942C100F
:10287000842D0E942C1061E08AE02D960FB6F8940A
:10288000DEBF0FBECDBFDF91CF91FF90EF90DF9005
:10289000CF90BF90AF909F908F907F906F905F9000
:1028A0004F900C94A803E894F6F86ECEE894F7F8ED
:1028B00072CE8D810E942C10882D0E942C1089854B
:1028C0000E942C108C2D8BCEE894F6F80CCFE89457
:1028D000F7F810CF8D810E942C10882D0E942C10AB
:1028E00089850E942C108C2D26CFE894F6F89DCF78
:1028F000E894F7F8A1CF842D0E942C10882D0E9417
:102900002C1089810E942C108C2DB3CF2D960FB6E0
:10291000F894DEBF0FBECDBFDF91CF91FF90EF9057
:10292000DF90CF90BF90AF909F908F907F906F90EF
:102930005F904F9008950F931F93CF93DF938C0177
:10294000EB01FC01808191810097E1F06881798140
:1029500061157105A9F0428153812C813D81421797
:10296000530770F00E94D53C8C819D81F8019583BE
:1029700084831D821C82DF91CF911F910F91089556
:102980000E94623B88819981F801918380838A81CA
:102990009B81938382838C819D819583848319821B
:1029A00018821B821A82E5CFCF93DF93EC018881D6
:1029B0009981009711F00E94623B198218821D8252
:1029C0001C821B821A82DF91CF910895FC018081C5
:1029D0009181009711F00C94623B08950F931F931F
:1029E000CF93DF93EC0188819981009759F02A8178
:1029F0003B812617370730F081E0DF91CF911F919F
:102A00000F9108958B016F5F7F4F0E94EB3B009702
:102A100059F0998388831B830A832C813D81232B62
:102A200059F7FC011082E8CF80E0E7CFEF92FF92E8
:102A30000F931F93CF93DF936115710541F480E0ED
:102A4000DF91CF911F910F91FF90EF900895411565
:102A50005105B1F07B01EC010C811D81040F151FA4
:102A6000B8010E94EE14882351F3288139818C81AA
:102A70009D81B701820F931F0E94D53C1D830C835B
:102A800081E0DECF0F931F93CF93DF931F921F92AE
:102A9000CDB7DEB78C0169831A8241E050E0BE01F8
:102AA0006F5F7F4F0E941615811103C0C8010E94FD
:102AB000D414C8010F900F90DF91CF911F910F9107
:102AC0000895CF93DF93EC01FB0101900020E9F71B
:102AD0003197AF01461B570B0E941615811103C099
:102AE000CE010E94D414CE01DF91CF910895CF93EF
:102AF000DF93EC01FB0144815581608171810E946B
:102B00001615811103C0CE010E94D414CE01DF91AD
:102B1000CF910895EF92FF920F931F93CF93DF937E
:102B2000EC017B018A01BA010E94EE1481110BC0F5
:102B3000CE010E94D414CE01DF91CF911F910F914D
:102B4000FF90EF9008951D830C83B70188819981D0
:102B50000E94D53CF0CFFB0101900020E9F73197AE
:102B6000AF01461B570B0C948A150F931F93CF93FD
:102B7000DF93CDB7DEB762970FB6F894DEBF0FBE16
:102B8000CDBF8C01CB01F801118210821382128219
:102B9000158214824AE0BE016F5F7F4F0E94E437C6
:102BA000BE016F5F7F4FC8010E94AB1562960FB6E2
:102BB000F894DEBF0FBECDBFDF91CF911F910F9173
:102BC0000895CF93DF93EC01FB018617970749F037
:102BD000608171816115710541F0448155810E94C8
:102BE0008A15CE01DF91CF9108950E94D414F9CFB8
:102BF000FC011182108213821282158214820C94BD
:102C0000E115FC0111821082138212821582148256
:102C1000FB0101900020E9F73197AF01461B570BEC
:102C20000C948A15AF92BF92CF92DF92EF92FF92EF
:102C30000F931F93CF93DF936C015B017A0189019E
:102C40002417350720F48F2D7901042F182F62E106
:102C500074E0C6010E940116D5011496CD91DC9155
:102C6000EC16FD06E0F40C171D0708F4E801D50189
:102C7000ED91FC911197EC0FFD1F108110826D9169
:102C80007C916E0D7F1DC60161157105A1F00E943A
:102C9000AB15F50180819181C80FD91F1883C6013A
:102CA000DF91CF911F910F91FF90EF90DF90CF9028
:102CB000BF90AF9008950E94D414EBCF4F925F92D3
:102CC0006F927F928F929F92AF92BF92CF92DF923C
:102CD000EF92FF920F931F93CF93DF9300D000D01A
:102CE000CDB7DEB77C014B015A0180913D068111C1
:102CF0003AC081E080933D0694E3692E96E0792EF8
:102D00002BE2422E26E0522E10E000E00F5F1F4F14
:102D1000680181E0C81AD1089801A601B401CE016A
:102D200001960E941216CE0101960E94FA11D3015B
:102D30006D933D01CE0101960E94E6149801A60113
:102D4000B501CE0101960E941216CE0101960E9495
:102D5000FA11F20161932F01CE0101960E94E6144F
:102D60000930110599F690912A0684E3C82E86E071
:102D7000D82EEBE2F6E08601A801D8018C919A30BA
:102D800008F04DC08F5F8C930F5F1F4FDA018C915D
:102D90008A3019F4D80111971C923196B6E00D33A0
:102DA0001B0751F79F5F943109F43FC090932A06A7
:102DB00062E174E0C7010E940116FE0131965F01D5
:102DC000D6018D916D014AE0B50190E00E94E43793
:102DD000F50101900020E9F73197AF014A195B092D
:102DE000B501C7010E9416150C151D0549F7C7014D
:102DF00026960FB6F894DEBF0FBECDBFDF91CF9100
:102E00001F910F91FF90EF90DF90CF90BF90AF9008
:102E10009F908F907F906F905F904F90089520814A
:102E2000281709F4B1CF8F5FAECF10922A06109207
:102E30003D06BECFCF92DF92EF92FF921F93CF93CA
:102E4000DF93CDB7DEB72C970FB6F894DEBF0FBE79
:102E5000CDBF182F6CE574E0CE0107960E940116D5
:102E600022E030E050E040E0133081F024E030E038
:102E700042E050E01C3051F026E030E0103321F009
:102E8000103FA9F428E030E044E050E067EF79E03B
:102E9000CE0101960E941216BE016F5F7F4FCE01D8
:102EA00007960E949B14CE0101960E94E614CE0163
:102EB00007960E94FA116B01CE0107960E94E61454
:102EC000C6012C960FB6F894DEBF0FBECDBFDF91C2
:102ED000CF911F91FF90EF90DF90CF900895EF92E8
:102EE000FF920F931F93CF93DF93CDB7DEB7629717
:102EF0000FB6F894DEBF0FBECDBF7C018B0177FF0C
:102F000003C0119501951109B801C7010E94B515BB
:102F1000083E83E018070CF082C0B801CE010D9680
:102F20000E94B51562E574E0CE0101960E9401167B
:102F3000BE016F5F7F4FCE0107960E94F815BE015C
:102F4000635F7F4FCE0107960E947715BC01C701D2
:102F50000E94E115CE0107960E94E614CE0101966B
:102F60000E94E614CE010D960E94E6140436110567
:102F70000CF055C0B801CE010D960E94B51561E563
:102F800074E0CE0101960E940116BE016F5F7F4F73
:102F9000CE0107960E94F815BE01635F7F4FCE01F8
:102FA00007960E947715BC01C7010E94E115CE016A
:102FB00007960E94E614CE0101960E94E614CE0107
:102FC0000D960E94E6140A3011054CF5B801CE01A9
:102FD0000D960E94B51560E574E0CE0101960E9441
:102FE0000116BE016F5F7F4FCE0107960E94F81554
:102FF000BE01635F7F4FCE0107960E947715BC012B
:10300000C7010E94E115CE0107960E94E614CE0189
:1030100001960E94E614CE010D960E94E614C701A7
:1030200062960FB6F894DEBF0FBECDBFDF91CF9191
:103030001F910F91FF90EF9008950F931F93CF93DF
:10304000DF93CDB7DEB762970FB6F894DEBF0FBE41
:10305000CDBF8C0177FF03C07195619571096A300E
:103060007105A4F5CE010D960E94B51562E574E0D8
:10307000CE0101960E940116BE016F5F7F4FCE0107
:1030800007960E94F815BE01635F7F4FCE01079639
:103090000E947715BC01C8010E94F815CE01079661
:1030A0000E94E614CE0101960E94E614CE010D9610
:1030B0000E94E614C80162960FB6F894DEBF0FBEF8
:1030C000CDBFDF91CF911F910F910895C8010E944C
:1030D000B515F0CF0F931F93CF93DF93CDB7DEB726
:1030E00068970FB6F894DEBF0FBECDBF8B0183305B
:1030F000D9F52091FB093091FC0942E050E067EFDF
:1031000079E0CE010D960E941216B801CE0101960B
:103110000E941D18BE016F5F7F4FCE0107960E946F
:10312000F815BE01635F7F4FCE0107960E947715A9
:10313000BC0187EF99E00E94E115CE0107960E943D
:10314000E614CE0101960E94E614CE010D960E946F
:10315000E61468960FB6F894DEBF0FBECDBFDF91C0
:10316000CF911F910F9108958C3009F042C02091AA
:10317000FB093091FC0944E050E067EF79E0CE01B3
:1031800043960E941216B801CE010D960E941D189A
:1031900022E030E050E040E067EF79E0CE010196B8
:1031A0000E941216BE016F5F7F4FCE0107960E94EC
:1031B000F815BE01635F7F4FCE0107960E94771519
:1031C000BE016D5E7F4F0E947715BC0187EF99E0CD
:1031D0000E94E115CE0107960E94E614CE010196E9
:1031E0000E94E614CE010D960E94E614CE0143968D
:1031F000AECF2091FB093091FC0946E050E08033CE
:1032000049F0803F09F0A5CF2091FB093091FC09DE
:1032100048E050E067EF79E0CE0143960E94121635
:10322000B801CE010D960E941D1824E030E0B2CF07
:103230000E9406076093210670932206809323065E
:103240009093240680912006882309F44FC0209192
:103250001E0630911F06C901880F991F21313105C3
:10326000A1F1FC01E95CFD4F4081518141505109C0
:1032700051834083DC01A95CBD4F6D917C91119716
:10328000FC01E15AFD4F40815181641775073CF400
:10329000FC01E957FD4F408151814D935C932031F2
:1032A000310509F52091570230915802213031053E
:1032B000B9F420E820937206895C9D4FFC0160817F
:1032C0007181809182060C946A1840915902509144
:1032D0005A024C50510950935A0240935902CACF96
:1032E00010927206E9CF2930310531F708950E9416
:1032F000060760932106709322068093230690931D
:10330000240680912006882309F444C020911E06DB
:1033100030911F06C901880F991F2131310561F1D4
:10332000FC01E95CFD4F408151814F5F5F4F51834C
:103330004083DC01A95CBD4F6D917C911197FC012C
:10334000E957FD4F40815181461757073CF4FC0176
:10335000E15AFD4F408151814D935C9320313105FD
:10336000B1F410927206895C9D4FFC0160817181FD
:10337000809182060C946A184091590250915A0229
:10338000445F5F4F50935A0240935902D2CF293085
:10339000310549F708950F931F93CF93DF93CDB76E
:1033A000DEB768970FB6F894DEBF0FBECDBF8C01B5
:1033B0008091590290915A02489709F048C00E94A2
:1033C000D30ABC01CE0143960E941D180E94DB0A5D
:1033D000BC01CE010D960E941D180E94E30ABC019B
:1033E000CE0101960E941D18BE016F5F7F4FCE0176
:1033F00007960E94F815BE01635F7F4FCE010796C6
:103400000E947715BE016D5E7F4F0E947715BC014B
:10341000C8010E94F815CE0107960E94E614CE015D
:1034200001960E94E614CE010D960E94E614CE018C
:1034300043960E94E614C80168960FB6F894DEBF62
:103440000FBECDBFDF91CF911F910F9108950E94C4
:10345000D30ABC01CE0143960E941D180E94DB0ACC
:10346000BC01CE010D960E941D180E948F080E947B
:10347000950A8091DD066CE070E0882309F4B0CFF6
:10348000682F70E08D3008F4ABCF6C507109A8CF75
:103490008F929F92AF92BF92CF92DF92EF92FF9264
:1034A0000F931F93CF93DF93CDB7DEB72C970FB653
:1034B000F894DEBF0FBECDBF8C016A017B01809105
:1034C0006406811111C00E940607645B7B4F8F4F19
:1034D0009F4F60936006709361068093620690939D
:1034E000630681E08093640680915806811109C0CB
:1034F0006DE474E082E596E00E94011681E080931D
:1035000058060E9406078090600690906106A09081
:103510006206B0906306681979098A099B09693EB9
:1035200073408105910508F4FDC00E940607609371
:10353000600670936106809362069093630620E0B4
:1035400030E040E251E4C701B6010E9494386B01BB
:103550007C0120E030E0A9010E94253A20E030E023
:1035600040E05FE387FDF7C0C701B6010E948339E1
:103570000E94EF397B0177FF04C0EE24FF24E61A96
:10358000F70A5B0139E1A31A3CEFB30A80915B02B1
:1035900090915C029B012D593F4F69012A553109D9
:1035A0004901B701892B09F0DBC0CE0107960E94C3
:1035B000B51562E574E0CE0101960E940116BE01C8
:1035C000695F7F4FCE0101960E94771562E574E036
:1035D0000E946115BC0182E596E00E94E115CE01D2
:1035E00001960E94E614CE0107960E94E6143FEC75
:1035F000A31637E0B30618F5B701CE0107960E946F
:10360000B51561E574E0CE0101960E940116BE0178
:10361000695F7F4FCE0101960E94771562E574E0E5
:103620000E946115BC0182E596E00E94E115CE0181
:1036300001960E94E614CE0107960E94E61487ECDC
:10364000C816D10418F5B701CE0107960E94B5152A
:1036500060E574E0CE0101960E940116BE01695F2B
:103660007F4FCE0101960E94771562E574E00E94BB
:103670006115BC0182E596E00E94E115CE0101963C
:103680000E94E614CE0107960E94E61423E18216FA
:10369000910418F5B701CE0107960E94B5156FE4A5
:1036A00074E0CE0101960E940116BE01695F7F4F52
:1036B000CE0101960E94771562E574E00E946115C3
:1036C000BC0182E596E00E94E115CE0101960E94C0
:1036D000E614CE0107960E94E61480915B02909159
:1036E0005C02892B09F0D3C097E3F92E62E174E004
:1036F000CE0101960E94011662E576E0CE010196A8
:103700000E94771561E574E00E9461156F2D0E949B
:103710004215BC0182E596E00E94E115CE010196BA
:103720000E94E61462E576E0C8010E94F815C8011F
:103730002C960FB6F894DEBF0FBECDBFDF91CF91B0
:103740001F910F91FF90EF90DF90CF90BF90AF90BF
:103750009F908F900895C701B6010E94823908CFCB
:10376000CE0107960E94B51562E574E0CE01019680
:103770000E940116BE01695F7F4FCE0101960E9433
:10378000771562E574E00E946115BC0182E596E060
:103790000E94E115CE0101960E94E614CE01079623
:1037A0000E94E6143FECA31637E0B30638F5C701D4
:1037B0006AE070E00E94463ACE0107960E94B51575
:1037C00061E574E0CE0101960E940116BE01695FB9
:1037D0007F4FCE0101960E94771561E574E00E944B
:1037E0006115BC0182E596E00E94E115CE010196CB
:1037F0000E94E614CE0107960E94E61487ECC816D4
:10380000D10438F5C7016AE070E00E94463ACE0163
:1038100007960E94B51560E574E0CE0101960E94FE
:103820000116BE01695F7F4FCE0101960E94771598
:1038300061E574E00E946115BC0182E596E00E949A
:10384000E115CE0101960E94E614CE0107960E9472
:10385000E61423E18216910408F03FCFC7016AE025
:1038600070E00E94463ACE0107960E94B5156FE4BB
:1038700074E0CE0101960E940116BE01695F7F4F80
:10388000CE0101960E94771561E574E017CF82E3BF
:10389000F82E2CCF85ED8093BC0080915E0790912F
:1038A0005F07A0916007B09161070796A11DB11D48
:1038B00023E0B695A795979587952A95D1F72091FE
:1038C000BC0024FD03C010925C07089540915E0780
:1038D00050915F076091600770916107452B462BFF
:1038E000472B69F30097A105B10541F02AE22A951B
:1038F000F1F700C00197A109B109E1CF80915D07FF
:103900000C949F0B0C945A390C94523988E090E037
:103910000E94841C682F70E089E00E94D80589E02D
:1039200090E00E94841C682F70E086E00E94D80519
:103930008AE090E00E94841C682F70E083E00C9481
:10394000D8052F923F924F925F926F927F928F9203
:103950009F92AF92BF92CF92DF92EF92FF920F931E
:103960001F93CF93DF93CDB7DEB7EE970FB6F894E2
:10397000DEBF0FBECDBF0E94060720E137E240E068
:1039800050E00E945A3A672B682B692B01F5809111
:1039900007078823E1F00E940C11E0900507F090E2
:1039A0000607009103071091040720910107309149
:1039B000020740910807509109076091FF06709136
:1039C00000078091FD069091FE060E9495090E94D5
:1039D000060760931406709315068093160690935D
:1039E00017060091100610911106209112063091D1
:1039F0001306601B710B820B930B61367A4E8105A7
:103A00009105E0F180910F06811107C088E592E0F1
:103A10000E94951181E080930F0684E997E00E944F
:103A20007307892B59F184E997E00E94510790911F
:103A30007E05E92FF0E0E55DFA4F80839F5F9235C8
:103A400009F40CC190937E058A30C1F4E0917E05A3
:103A5000F0E0E55DFA4F108210927E05ECE2F5E0B1
:103A600021E030E040E05191C90101965A3209F459
:103A7000F8C045279C0183359105A9F7809114066C
:103A800090911506A0911606B09117064091100668
:103A90005091110660911206709113068C019D01E0
:103AA000041B150B260B370BB901A801413C544DE3
:103AB0006140710570F08093100690931106A093F9
:103AC0001206B093130688E392E00E9495111092BB
:103AD0000F0610920306109204061092050610922B
:103AE000060681EE98E090930A06809309060091FD
:103AF000DE0810E010930C0600930B068091AB09D2
:103B000090E090930E0680930D068091DA08853040
:103B1000B1F58091DE088A3108F4B7C28091E108DE
:103B20009091E208843F914008F080C2109208060C
:103B3000109207068FEF9FEFDC01809303069093AE
:103B40000406A0930506B09306068BE090E09093E0
:103B500000068093FF056091030670910406809132
:103B600005069091060640E10E94A31180E194E0D1
:103B70000E94881182E08093DA081092DE0860913A
:103B800003067091040681E39AE00E94CF0F9093A0
:103B9000FE058093FD05609103067091040684E2A2
:103BA0009AE00E94CF0F9093FC058093FB056091F3
:103BB00003067091040687E19AE00E94CF0F90936C
:103BC000FA058093F9050091FB061091FC06F801B7
:103BD0008081882309F4C3C30E940607C09085052D
:103BE000D0908605E0908705F09088056C197D09D6
:103BF0008E099F09C0908105D0908205E0908305D1
:103C0000F0908405C616D706E806F90608F0A7C3A3
:103C10000E9406074B015C01809285059092860503
:103C2000A0928705B0928805780130E020E04AE054
:103C3000F801D1908F0180ED8D0D8A3008F0C5C25A
:103C4000429FC001439F900D11242D2DDD0C330B9D
:103C500020533109280F391F7F01EACF10927E05CA
:103C6000F3CE855D9A4FFC01808181340CF087533F
:103C70008295807F255D3A4FF901928191349CF1C4
:103C80009753890F4813FACE80912B05843209F09F
:103C9000F5CE80912E05823509F0F0CE80912F056A
:103CA0008D3409F0EBCE80913005833409F0E6CEF7
:103CB000A7E3B5E090E080E0ECE0F0E02D912C325D
:103CC00009F093C101968130910579F42C9121344A
:103CD00009F48BC183E194E00E94881180E194E0B3
:103CE0000E948811CBCE9053CCCF8830910509F03B
:103CF0007CC1EF5FA090320590903305B090340501
:103D0000609035057090360540903705F0E0E55D30
:103D1000FA4FC080D1808281082E000C990BC09789
:103D20001AE0189F7001199FF00C11248381E80E8E
:103D3000F11C87FDFA9400E3E01AF1080481558034
:103D40004CE050E061E070E0C7010E94A737882393
:103D500009F494CE8C2DCC0C990BC097189F900130
:103D6000199F300D1124C9018D0D911DD7FC9A9515
:103D70006C0190E3C91AD1084FE150E061E070E0B6
:103D8000C6010E94A737882309F478CE8A2DAA0C91
:103D9000990BC097189F9001199F300D1124F901BC
:103DA000E90DF11D97FCFA954F01F0E38F1A910888
:103DB00047E150E070E060E0C4010E94A73788232B
:103DC00009F45CCE8B2DBB0C990BC097189F50014A
:103DD000199FB00C1124A60CB11C67FCBA9420E307
:103DE000A21AB1084BE350E070E060E0C5010E9408
:103DF000A737882309F442CE872D770C990BC097FB
:103E0000189F3001199F700C1124640C711C47FC21
:103E10007A9430E3631A71084BE350E070E060E09D
:103E2000C3010E94A737882309F428CE202F000F52
:103E3000330B20533109129FC001139F900D1124A1
:103E40008C010053184F050D111D57FC1A95005396
:103E50001109063E87E01807C4F46982AA828B82A2
:103E6000CD82EE82025B0F83CE0101960E94D508BF
:103E700086519B4DAE014F5F5F4F0E94B9090F8184
:103E800010E00E54184FEE80CD8046EF57E062EE02
:103E900077E0C8010E94A737882309F4EFCD80920C
:103EA0000B0AA0920C0A60920D0AC0920E0AE092D0
:103EB0000F0A1093110A0093100A0E9406076B0163
:103EC0007C01C092130AD092140AE092150AF09273
:103ED000160A80912A0581118FC00E9406076C196D
:103EE0007D098E099F09693B7B408105910508F09A
:103EF000C5CD80E192E00E94951180910B0A0E944D
:103F0000E71180910C0A0E94E71180910D0A0E942E
:103F1000E7118091100A9091110A18EEC12E13E05A
:103F2000D12EB6010E94463A7C0100910F0A10E0A2
:103F300020910E0A30E040910D0A50E060910C0A89
:103F400070E080910B0A90E00E949509A0915D02BB
:103F5000B0915E0220E13EE00E94A33A0091D706B4
:103F60001091D8062091D9063091DA06DC01CB01F8
:103F7000800F911FA21FB31F8093D7069093D8067E
:103F8000A093D906B093DA060E948F084BED56E055
:103F90000E94B9090E94B90A4C010E94C30A082F65
:103FA0000E94CB0AB82E0E94D30AF82E0E94DB0A88
:103FB000182F0E94E30A382FC401B6010E94463A26
:103FC000E82E2B2D4F2D612F832F0E94320D81E083
:103FD00080932A050E9406076093260570932705A3
:103FE000809328059093290549CD3196E335F10555
:103FF00009F064CEE0E07ECE0E940607009126051F
:10400000109127052091280530912905601B710B1F
:10401000820B930B613477478B41910518F0109216
:104020002A052CCD81E080932A0528CD8091E308D4
:104030009091E40885974B9740F5EAEDF8E082E02F
:1040400090E040E050E0BA01DC0111962091DE08DA
:104050002A171B0609F00CF48EC0238534852750DF
:1040600031092730310508F085C025853685235173
:1040700031092F30310508F470C0258536852A5066
:1040800031092930310508F470C0063011050CF4EF
:1040900071CD8AED98E09EAF8DAF43E0242E312C98
:1040A00055ECC52E5DE9D52E5CE1E52E51E8F52EE7
:1040B000201631060CF078C0EDADFEAD6585768535
:1040C000A184B28490E080E00E9433382B013C014F
:1040D000B50190E080E00E9433384B015C012DEC8B
:1040E0003CEC4CE45FE30E9494389B01AC01C301BB
:1040F000B2010E942E38F0E0E0E087FD14C02DEC04
:104100003CEC4CE45FE3C301B2010E9494389B0194
:10411000AC01C501B4010E942E38E2E0F0E087FD59
:1041200002C0E1E0F0E0A701960163E971E080E000
:1041300091E00E942A3A6F01FF0FEE08FF08C626A1
:10414000D726E826F926FFEF2F1A3F0A2DAD3EAD00
:104150002E5F3F4F3EAF2DAFABCF440F551F661FB5
:10416000771F4160029634966FCF440F551F661F2C
:10417000771FF8CFCD010197959587959093080605
:10418000809307060C972CF41092080610920706ED
:104190007CCF40930306509304066093050670930A
:1041A000060684E090E0D3CCC0920306D0920406C9
:1041B000E0920506F092060680E290E090930806F1
:1041C000809307068FEF9FEFC2CC30931D0620939C
:1041D0001C06609118067091190680911A0690913C
:1041E0001B062115310511F1032E000C440B550B54
:1041F0000E947C3A20938105309382054093830589
:1042000050938405EFE9ED0DE730B0F40E2E000C6D
:10421000FF0B8827E15FFE4D8F4F0C949B3A95244E
:10422000972489248D248F249124932420910B0298
:1042300030E050E040E0DCCF10928005F701818152
:10424000833241F4809180058F5F809380058701E0
:104250000E5F1F4FF80180818E32F1F4C09081050E
:10426000D0908205E0908305F0908405C701B601E7
:1042700022E030E040E050E00E947C3AC20ED31EC3
:10428000E41EF51EC0928105D0928205E09283055E
:10429000F09284050F5F1F4FF801808180538A30B0
:1042A00008F047C380937F050F5F1F4FF80180819F
:1042B0008C3211F40F5F1F4FE0918005EE2309F45B
:1042C0004EC0C0908105D0908205E0908305F090AB
:1042D000840580917F058450990B4CE0489F9001A4
:1042E000499F300D1124E20FF32FF11DEE0FFF1F38
:1042F000E253FD4FB701A601808191810E94120413
:104300000E940607681979098A099B09C616D7060B
:10431000E806F90620F50E9406076093850570936C
:104320008605809387059093880580919307813057
:1043300009F404C3823009F407C3811105C08091D8
:104340006E008D7F80936E0060E0809192070E94E6
:10435000A80381E292E00E94951110E000E0109322
:10436000FC060093FB060E9406070091F5051091DC
:10437000F6052091F7053091F805601B710B820B53
:10438000930B6630710581059105E8F080910E026E
:104390008111E0C270E060E089E00E94D80570E021
:1043A00060E086E00E94D80570E060E083E00E9453
:1043B000D8050E9406076093F5057093F605809373
:1043C000F7059093F80580911E0690911F06892BA2
:1043D00021F08091F4058111DBC1809120068111CB
:1043E000D7C180919F0581110DC00E94060760937F
:1043F0009B0570939C0580939D0590939E0581E09D
:1044000080939F058091930581110DC00E9406073E
:1044100060938F057093900580939105909392051A
:1044200081E0809393050E94060700919B051091FF
:104430009C0520919D0530919E05601B710B820BA0
:10444000930B009100021091010220910202309121
:104450000302061717072807390708F04DC00E9406
:10446000060760939B0570939C0580939D05909330
:104470009E0580918D0590918E05009709F0D6C21A
:1044800081E090E090931F0680931E0688E893E1F8
:10449000A0E0B0E08093000290930102A09302029A
:1044A000B093030280918D0590918E058230910525
:1044B00081F410921F0610921E0640E65AEE60E04C
:1044C00070E04093000250930102609302027093E7
:1044D00003020196833091050CF0C8C290938E05BB
:1044E00080938D058091F405882321F010921F069A
:1044F00010921E061092F4050E94060700919B057B
:1045000010919C0520919D0530919E05601B710BBB
:10451000820B930B603D77408105910508F078C3CD
:104520000E94060700918F0510919005209191053A
:1045300030919205601B710B820B930B65367105F0
:104540008105910508F424C10E94060760938F0538
:1045500070939005809391059093920580911E062B
:1045600090911F062091F206222309F484C2892B20
:1045700089F5CE0149960E94CB1981E020915B021A
:1045800030915C02232B09F480E00E942B0EAB01DA
:10459000BC01CE0101960E94481AAE01475E5F4FF2
:1045A000BE016F5F7F4FCE014F960E945E16BE0127
:1045B000615E7F4F87EF99E00E949B14CE014F967A
:1045C0000E94E614CE0101960E94E614CE0149969F
:1045D0000E94E61480911E0690911F06019709F033
:1045E00062C00E94B90A68EE73E00E94463ABC01BC
:1045F000CE018B960E941D180E94C30ABC01CE01F9
:1046000085960E941D180E94CB0ABC01CE014996D6
:104610000E941D18BE01675E7F4FCE014F960E941B
:10462000F815BE016B5D7F4FCE014F960E94771546
:10463000BE01655D7F4F0E947715BC01CE01C1961A
:104640000E94F815CE0101960E94CB19AE014F5C75
:104650005F4FBE016F5F7F4FCE01C7960E945E160F
:10466000BE01695C7F4F87EF99E00E949B14CE01E9
:10467000C7960E94E614CE0101960E94E614CE0170
:10468000C1960E94E614CE014F960E94E614CE0118
:1046900049960E94E614CE0185960E94E614CE014A
:1046A0008B960E94E61480911E0690911F06049737
:1046B00009F06EC081E020915B0230915C02232BF7
:1046C00009F480E00E942B0EAB01BC01CE01C19623
:1046D0000E94481A0E94B90A68EE73E00E94463AA6
:1046E000BC01CE0185960E941D180E94C30ABC0120
:1046F000CE014F960E941D180E94CB0ABC01CE012C
:1047000001960E941D18BE016F5F7F4FCE01499632
:104710000E94F815BE01615E7F4FCE0149960E944E
:104720007715BE016B5D7F4F0E947715BC01CE01EE
:104730008B960E94F815AE014F5C5F4FBE01655D20
:104740007F4FCE01C7960E945E16BE01695C7F4F07
:1047500087EF99E00E949B14CE01C7960E94E61451
:10476000CE018B960E94E614CE0149960E94E61473
:10477000CE0101960E94E614CE014F960E94E614E7
:10478000CE0185960E94E614CE01C1960E94E614E1
:104790000E9405128EED99E00E94EB0A85EC99E0EB
:1047A0000E94EB0A8CEA99E00E94EB0A80912006B5
:1047B000811131C2109282068091DE099091DF0949
:1047C000181619063CF08091FD059091FE050197A1
:1047D00009F00AC381E08093F4051092FC06109260
:1047E000FB0644E650E060E070E088EE93E00E9453
:1047F00012040E940607609321067093220680939C
:1048000023069093240680911E0690911F06019620
:104810008630910509F42CC290931F0680931E06E2
:1048200020911E0630911F068901000F111FF8010B
:10483000E15FFD4F808180938206D9011197FD01D0
:10484000EE0FFF1FE458FC4F608171816115710507
:1048500009F4BBC2AB0141505109FA01EE0FFF1F31
:10486000EC5AFC4F0190F081E02DAE17BF0709F024
:10487000ACC26230710509F000C288E1E6EBF2E0FB
:10488000DE01119601900D928A95E1F780914F0219
:104890009091500283709927892B21F48DE190E04B
:1048A0009C838B8380914D0290914E020197880FDB
:1048B000991F21E030E02C0F3D1F820F931F2091A4
:1048C0004B0230914C02FC01808191818217930749
:1048D0000CF0D3C18AE090E090931F0680931E06EF
:1048E000EE960FB6F894DEBF0FBECDBFDF91CF912D
:1048F0001F910F91FF90EF90DF90CF90BF90AF90FE
:104900009F908F907F906F905F904F903F902F90EF
:10491000089581E08093800591CC83E0FBCF85E012
:10492000F9CF86E0F7CF88E0F5CF8AE0F3CF8CE0CF
:10493000F1CF80910A0280937F05B8CC80916F00FF
:104940008D7F80936F0000CD809170008D7F80936C
:104950007000FACC80910A0781112BCD00918B0554
:1049600010918C05F801EE0FFF1FE00FF11FDF0122
:10497000AA0FBB1FA05DBC4F8D919C916091060258
:1049800070910702680F791F709307026093060207
:10499000DF01AA0FBB1FAE5CBC4FCD90DC908091B5
:1049A000EA059091EB05C80ED91ED092EB05C09296
:1049B000EA05EE0FFF1FEC5CFC4FE080F180809178
:1049C000E8059091E905E80EF91EF092E905E092FC
:1049D000E80589E00E94D805B60186E00E94D80566
:1049E000B70183E00E94D8058091890590918A05DE
:1049F000019690938A05809389058F3F910551F424
:104A00000F5F1F4F10938C0500938B0510928A0542
:104A10001092890580918B0590918C0506970CF476
:104A2000C8CC10928C0510928B05C3CC019709F06D
:104A300039CD84E090E090931F0680931E0688E8AD
:104A400093E1A0E0B0E08093000290930102A09374
:104A50000202B09303028091F206811164C782E0E2
:104A600090E090938E0580938D051CCD10928E055D
:104A700010928D0537CD892B09F062C0CE01C19609
:104A80000E94CB190E94B90A68EE73E00E94463A70
:104A9000BC01CE0185960E941D180E94C30ABC016C
:104AA000CE014F960E941D180E94CB0ABC01CE0178
:104AB00001960E941D18BE016F5F7F4FCE0149967F
:104AC0000E94F815BE01615E7F4FCE0149960E949B
:104AD0007715BE016B5D7F4F0E947715BC01CE013B
:104AE0008B960E94F815AE014F5C5F4FBE01655D6D
:104AF0007F4FCE01C7960E945E16BE01695C7F4F54
:104B000087EF99E00E949B14CE01C7960E94E6149D
:104B1000CE018B960E94E614CE0149960E94E614BF
:104B2000CE0101960E94E614CE014F960E94E61433
:104B3000CE0185960E94E614CE01C1960E94E6142D
:104B400080911E0690911F06019709F021CE0E94C8
:104B5000B90A68EE73E00E94463ABC01CE018B961A
:104B60000E941D180E94C30ABC01CE0185960E94B6
:104B70001D180E94CB0ABC01CE0149960E941D1847
:104B8000BE01675E7F4FCE014F960E94F815BE01B1
:104B90006B5D7F4FCE014F960E947715BE01655D1C
:104BA0007F4F0E947715BC01CE01C1960E94F81577
:104BB000CE0101960E94CB19AE014F5C5F4FBE0142
:104BC0006F5F7F4FCE01C7960E945E16BE01695C83
:104BD0007F4F87EF99E00E949B14CE01C7960E94F9
:104BE000E614CE0101960E94E614CE01C1960E9401
:104BF000E614CE014F960E94E614CE0149960E941B
:104C0000E614CE0185960E94E614CE018B96BECDA9
:104C100010923D06BDCD0E9406070091210610911D
:104C200022062091230630912406601B710B820B13
:104C3000930B61367A4E8105910508F4BDCD109233
:104C40002006E0911E06F0911F06EE0FFF1FEC55A7
:104C5000FC4F8081918190931F0680931E06880FE0
:104C6000991FFC01E15FFD4F808180938206A4CDF6
:104C700010921F0610921E06D3CD1092200650935C
:104C80001F0640931E06452BB9F40E94B90A7C0109
:104C90000E94C30A8C010E94CB0A409147025091A6
:104CA000480260914502709146029C018091430246
:104CB000909144020E94950980911E0690911F06D2
:104CC0000197F9F4E0904F02F090500200914D02EC
:104CD00010914E0280904B0290904C020E94D30A99
:104CE0005C010E94DB0A6C010E94E30A9401A501A9
:104CF000B6010E949509609149028DE090E00E9402
:104D0000821C80911E0690911F060297C1F460914B
:104D1000510282E090E00E94821C6091530283E085
:104D200090E00E94821C6091550284E090E00E9415
:104D3000821C6091570286E090E00E94821C809164
:104D40001E0690911F06039731F46091590281E08D
:104D500090E00E94821C80911E0690911F0604978D
:104D600031F460915B028BE090E00E94821C8091A4
:104D70001E0690911F06059749F460915D0280918F
:104D80008502681B8CE090E00E94821C0E94B90A98
:104D90005C010E94C30A082F0E94CB0AD82E0E94F1
:104DA000D30AF82E0E94DB0A182F0E94E30A382F3C
:104DB000C50168EE73E00E94463AE82E2D2D4F2D76
:104DC000612F832F0E94320D8BCD2331310561F08D
:104DD000295031092230310538F00E941A17F801A4
:104DE000E95CFD4F918380838091DE099091DF091A
:104DF00097FD07C08091FD059091FE05019609F091
:104E0000F4C044E650E060E070E088EE93E00E9479
:104E1000120480912006811152C000911E0610914B
:104E20001F060E9406076093210670932206809356
:104E3000230690932406012B09F041C00E94D30A57
:104E4000BC01CE0185960E941D180E94DB0ABC01A0
:104E5000CE014F960E941D180E94E30ABC01CE01AC
:104E600001960E941D18BE016F5F7F4FCE014996CB
:104E70000E94F815BE01615E7F4FCE0149960E94E7
:104E80007715BE016B5D7F4F0E94771569E274E074
:104E90000E946115BC0187EF99E00E94E115CE01E7
:104EA00049960E94E614CE0101960E94E614CE01B6
:104EB0004F960E94E614CE0185960E94E6148091DA
:104EC0001E0690911F06019709F056C00E94CB0A5A
:104ED00090934C0280934B020E94C30A90934E021F
:104EE00080934D020E94B90ABC01909350028093B6
:104EF0004F028091490290914A02892B09F09BC18F
:104F0000CE0185960E941D1860914D0270914E024F
:104F1000CE014F960E941D1860914B0270914C0279
:104F2000CE0101960E941D18BE016F5F7F4FCE011A
:104F300049960E94F815BE01615E7F4FCE014996E9
:104F40000E947715BE016B5D7F4F0E947715BC01F3
:104F500087EF99E00E94E115CE0149960E94E61480
:104F6000CE0101960E94E614CE014F960E94E614EF
:104F7000CE0185960E94E614E0911E06F0911F0670
:104F8000EE0FFF1FEC55FC4F2081318130931F063F
:104F900020931E062D30310549F481E090E0909376
:104FA00058028093570280E8809372068091200611
:104FB00091E08927809320068901000F111FF801D5
:104FC000E15FFD4F808180938206A9014251510922
:104FD0004230510550F02930310539F00E941A173E
:104FE000F801E95CFD4F918380838091C509909120
:104FF000C609009709F030C18091FB059091FC052E
:105000000197E1F481E08093F4051092FC06109280
:10501000FB0644E650E060E070E088EE93E00E941A
:1050200012040E94771980912006811107C0109206
:105030000A0760E087E090E00E94821C8091F20500
:105040009091F305019609F010C18091C70988235A
:1050500009F40BC110928406809120068823F9F090
:105060000E9406070091EE051091EF052091F005D2
:105070003091F105601B710B820B930B6739710541
:105080008105910560F00E9406076093EE0570931C
:10509000EF058093F0059093F1050E9477198091B8
:1050A000AC099091AD09009709F0E3C08091F90532
:1050B0009091FA05019771F511E01093F4051092A3
:1050C000FC061092FB0644E650E060E070E088EEDB
:1050D00093E00E9412040E94181980912006811109
:1050E00019C010930A0761E087E090E00E94821CDB
:1050F0006091060288E090E00E94821C6091EA05BF
:1051000089E090E00E94821C6091E8058AE090E0CE
:105110000E94821C8091EC059091ED05019609F0AA
:10512000B1C08091AE09882309F4ACC080912006FB
:1051300010928306882321F10E9406070091E4055E
:105140001091E5052091E6053091E705601B710B94
:10515000820B930B673971058105910508F449C0ED
:105160000E9406076093E4057093E5058093E605C9
:105170009093E7050E94181980912006811139C08B
:105180008091C5099091C60997FD06C08091FB05E5
:105190009091FC05019691F444E650E060E070E0E7
:1051A00088EE93E00E94120481E080930E0261E099
:1051B00090E080E00E94821C0E94861C8091AC09D5
:1051C0009091AD0997FD06C08091F9059091FA057F
:1051D000019679F444E650E060E070E088EE93E0F8
:1051E0000E94120410920E0260E090E080E00E94A3
:1051F000821CE0911E06F0911F06E431F10508F0D3
:105200006FCB8827E95FF64D8F4F0C949B3A462968
:105210002B2A232B6F2B9A2BDE2B702470247024C7
:105220000D2C352C352C352C7024702470247024D2
:1052300070249A2BDE2BCE0185960E941D1860915A
:105240004B0270914C02CE014F960E941D18609146
:105250004D0270914E0264CE9093F3058093F20557
:10526000181619060CF4CECEC7CE81E080938406C2
:1052700016CF9093ED058093EC05181619060CF4E3
:105280001BCF14CF81E08093830676CF80913D06BB
:105290008111CBC00E94D30A2091040230910502F3
:1052A0008217930709F4D0C00E94D30A9093050295
:1052B0008093040200915B0210915C0281E0011571
:1052C000110509F480E00E942B0E6B017C01809196
:1052D000B905811111C00E940607645B7B4F8F4F97
:1052E0009F4F6093B5057093B6058093B705909373
:1052F000B80581E08093B9058091AD05811109C0A1
:1053000062E174E087EA95E00E94011681E08093F3
:10531000AD050E9406078090B5059090B605A09057
:10532000B705B090B805681979098A099B09693EE3
:1053300073408105910508F444C00E9406076093FC
:10534000B5057093B6058093B7059093B805012B0A
:1053500009F073C017E320E030E0A901C701B601EE
:105360000E94253A20E030E040E05FE387FD67C01F
:10537000C701B6010E9483390E94EF3924E630E06C
:1053800040E050E00E947C3ACE0149960E941D18F0
:10539000BE01675E7F4FCE0101960E94F815612F16
:1053A000CE0101960E944215BC0187EA95E00E9459
:1053B000E115CE0101960E94E614CE0149960E94A5
:1053C000E61467EA75E0CE0101960E94F815CE0159
:1053D0004F960E94CB19BE01615E7F4FCE01499668
:1053E0000E94F815BE016F5F7F4FCE0149960E9463
:1053F0007715BC01CE0185960E94F815CE0149961D
:105400000E94E614CE014F960E94E614CE0101964A
:105410000E94E614BE016B5D7F4F87EF99E00E940A
:105420009B14CE0185960E94E6140E94D30A80FD4B
:105430007CC180EC809372067AC112E38CCFC701E5
:10544000B6010E94823998CF67EF79E0CE01859648
:105450000E94F815DFCF80913D068111E1C0809157
:10546000DC05811111C00E94060767517C4F8F4FE8
:105470009F4F6093D8057093D9058093DA05909378
:10548000DB0581E08093DC058091D005811144C06B
:105490000E94B90A68EE73E00E94463ABC01CE0150
:1054A00001960E941D180E94C30ABC01CE014996B4
:1054B0000E941D180E94CB0ABC01CE0185960E9455
:1054C0001D18BE016B5D7F4FCE014F960E94F815EF
:1054D000BE01675E7F4FCE014F960E947715BE01D9
:1054E0006F5F7F4F0E947715BC018AEC95E00E94A8
:1054F000F81581E08093D005CE014F960E94E61406
:10550000CE0185960E94E614CE0149960E94E614CB
:10551000CE0101960E94E6140091490210914A02C0
:105520008091C205811105C00093C10581E080937F
:10553000C2050E940607C090D805D090D905E0901A
:10554000DA05F090DB056C197D098E099F09693E2B
:1055500073408105910530F48091C10580171106D3
:1055600009F44DC00E9406076093D8057093D905D1
:105570008093DA059093DB05012B09F053C00E945C
:10558000B90ABC01CE0101960E941D180E94C30AEF
:10559000BC01CE0149960E941D180E94CB0ABC0195
:1055A000CE0185960E941D18BE016B5D7F4FCE0116
:1055B0004F960E94F815BE01675E7F4FCE014F9651
:1055C0000E947715BE016F5F7F4F0E94771569E3D8
:1055D0000E944215BC018AEC95E00E94E115CE01C3
:1055E0004F960E94E614CE0185960E94E614CE01E5
:1055F00049960E94E614CE0101960E94E6146AECD8
:1056000075E0CE0101960E94F815BE016F5F7F4FD5
:1056100087EF99E00E949B14CE0101960E94E61448
:1056200080E408CF0E94B90ABC01CE0101960E9415
:105630001D180E94CB0ABC01CE0149960E941D187C
:105640000E94C30AACCF6091550270915602CE0100
:1056500085960E941D186091530270915402CE01EC
:105660004F960E941D186091510270915202CE0116
:1056700001960E941D18BE016F5F7F4FCE014996B3
:105680000E94F815BE01615E7F4FCE0149960E94CF
:105690007715BE016B5D7F4F0E94771569E274E05C
:1056A0000E946115BC0187EF99E00E94E115CE01CF
:1056B00049960E94E614CE0101960E94E614CE019E
:1056C0004F960E94E614CE0185960E94E6148091C2
:1056D000570290915802019741F580E8ABCE609156
:1056E000590270915A02CE0149960E94B51561E5A2
:1056F00074E0CE0101960E940116BE01675E7F4FE5
:10570000CE0101960E94771567E274E00E94611550
:10571000BC0187EF99E00E94E115CE0101960E943D
:10572000E614CE0149960E94E614109272060E9479
:10573000F80ED6C880913D06811124C081E02091E9
:105740005B0230915C02232B09F480E00E942B0E57
:10575000AB01BC01CE0101960E94481ABE016F5FE9
:105760007F4F87EF99E00E949B14CE0101960E9423
:10577000E61480915B0290915C02892BD1F480E465
:105780008093720681E020915B0230915C02232BB2
:1057900009F480E00E942B0E1091720620E030E0A8
:1057A000A9010E942E3887FF07C010681093720667
:1057B00097C810927206E6CF1F77F8CF60915D020E
:1057C00070915E02CE0101960E941D18BE016F5FAE
:1057D0007F4FCE0149960E94F81565E274E0CE0134
:1057E00049960E946115BC0187EF99E00E94E1157E
:1057F000CE0149960E94E614CE0101960E94E6145D
:1058000080915D0290915E0297FD03C01092720636
:1058100067C880E88093720663C8809149029091BE
:105820004A02892B99F46DE274E087EF99E00E94B7
:10583000AB1583E090E090932402809323028CE0E8
:1058400090E090932602809325024AC867E374E0B3
:1058500087EF99E00E94AB158CE090E090932402D2
:105860008093230283E090E0ECCF60914F0270912F
:1058700050028091490290914A02892B09F042C05E
:10588000CE0185960E946F1760914D0270914E0275
:10589000CE014F960E941D1860914B0270914C02F0
:1058A000CE0101960E941D18BE016F5F7F4FCE0191
:1058B00049960E94F815BE01615E7F4FCE01499660
:1058C0000E947715BE016B5D7F4F0E9477156BE2DA
:1058D00074E00E946115BC0187EF99E00E94E11518
:1058E000CE0149960E94E614CE0101960E94E6146C
:1058F000CE014F960E94E614CE0185960E94E614D2
:105900000C947024CE0185960E946F1760914B0213
:1059100070914C02CE014F960E941D1860914D026D
:1059200070914E02BDCF81E090E00C9469221F92ED
:105930000F920FB60F9211242F933F938F939F9343
:10594000AF93BF9380910C0790910D07A0910E0724
:10595000B0910F0730910B0723E0230F2D3758F537
:105960000196A11DB11D20930B0780930C07909306
:105970000D07A0930E07B0930F0780911007909129
:105980001107A0911207B09113070196A11DB11D37
:105990008093100790931107A0931207B0931307F9
:1059A000BF91AF919F918F913F912F910F900FBE1B
:1059B0000F901F90189526E8230F0296A11DB11D88
:1059C000D2CF1F920F920FB60F9211240BB60F92E7
:1059D0002F933F934F935F936F937F938F939F93F7
:1059E000AF93BF93EF93FF9384E997E00E949307EF
:1059F000FF91EF91BF91AF919F918F917F916F91A7
:105A00005F914F913F912F910F900BBE0F900FBE62
:105A10000F901F9018951F920F920FB60F9211249E
:105A20000BB60F922F938F939F93EF93FF93E09179
:105A3000A407F091A5078081E091AA07F091AB0738
:105A400082FD1DC090818091AD078F5F8F73209183
:105A5000AE07821741F0E091AD07F0E0EC56F84F49
:105A6000958F8093AD07FF91EF919F918F912F912B
:105A70000F900BBE0F900FBE0F901F901895808156
:105A8000F2CF1F920F920FB60F9211240BB60F9206
:105A90002F933F934F935F936F937F938F939F9336
:105AA000AF93BF93EF93FF9381E398E00E94930736
:105AB000FF91EF91BF91AF919F918F917F916F91E6
:105AC0005F914F913F912F910F900BBE0F900FBEA2
:105AD0000F901F9018951F920F920FB60F921124DE
