:020000040000FA
:100000000C9419020C944A020C944A020C944A0271
:100010000C944A020C944A020C944A020C944A0230
:100020000C944A020C944A020C944A020C944A0220
:100030000C944A020C94A02D0C944A020C944A028F
:100040000C944A020C94F32D0C944A020C944A022C
:100050000C944A020C94522E0C944A020C94962C46
:100060000C944A020C94602C0C94362C0C944A028A
:100070000C944A020C944A020C944A020C944A02D0
:100080000C944A020C944A020C944A020C944A02C0
:100090000C94002C0C94D62B0C944A020C94B12E88
:1000A0000C944A020C944A020C944A020C944A02A0
:1000B0000C944A020C944A020C944A020C94E02CD0
:1000C0000C944A020C944A020C944A020C944A0280
:1000D0000C944A020C944A020C944A020C944A0270
:1000E0000C944A020C94840D0C948B080C943208E6
:1000F0000C946A290C9466050C94E5030C948B050A
:100100000C946D080C946A0D0C94ED040C943A0850
:100110000C9465080C94AE2A0C94AE080C94D02371
:100120000C946D050C9477050C947D0D0C943F0890
:100130000C94D6230C9485040C94CE230C94A40820
:100140000C94C2080C945A0D0C9462050C94E303B1
:100150000C9421040C94C8230C949D050C947708EE
:100160000C94CC230C94B8080C941D2B0C94AF2346
:100170000C9412040C94B10D0C9481080C9473052A
:100180000C9498050C94622A0C9493050C945805D1
:100190000C947D050C94D2230C948F050C94D92AD1
:1001A0000C94A6360C94CC080C9481050C949905FB
:1001B0000C94560E0C94742B0C949A080C940E30DC
:1001C0000C945E050C9435040C9453080C946A0549
:1001D0000C944C2B0C94D4230C9443040C94E20305
:1001E0000C9485050C9485280C945B0D0C945D088B
:1001F0000C9449085570646174696E672074696D68
:10020000652E2E2E00496E636F72726563742053E3
:100210006F6E6720466F726D61742100416C6C20B7
:10022000617474656D707473207765726520756E86
:100230007375636365737366756C2E0041747465C2
:100240006D707420746F2073796E632077697468A1
:10025000204750532E0044617465206F722054690A
:100260006D65206E6F7420696E2072616E67650027
:1002700000000A0B02090C0D0E0807030401000020
:10028000000000000000000000000000000000006E
:10029000000000000000000000000000121110002B
:1002A000000000000000000000000000000000004E
:1002B00000000000000000002200250028002B00A4
:1002C0002E003100340002010000050108010B017D
:1002D00002010000002100240027002A002D003028
:1002E00000330001010000040107010A0153746F8B
:1002F0007020546573740054656D702E2073656EA4
:10030000736F72206E6F7420666F756E642E004777
:100310005053204E4F5420646574656374656421A6
:1003200000475053206465746563746564005374BA
:100330006172742054657374004E43533331342D0D
:10034000384320485720322E7820485635313232F3
:10035000206F7220485635323232004669726D770E
:100360006172652076657273696F6E3A200046612E
:10037000756C747920445333323331210044533344
:100380003233315F543D0000002000230026002955
:10039000002C002F003200000100000301060109BB
:1003A0000105050505070508080808020202020AFA
:1003B0000A08080404040401010101010101010308
:1003C00003030303030303040707070C0C0C0C0CC3
:1003D0000C0C0C0202020206060606060606060BB6
:1003E0000B0B0B0B0B0B0B0102102020080810202D
:1003F00040102040800201020108040201010204B1
:10040000081020408080402010080402018004026F
:1004100001804020100804020108040201010204C6
:1004200008102040800102040810204080000E3097
:10043000A63611241FBECFEFD1E2DEBFCDBF00E054
:100440000CBF2AE0A2E1B5E001C01D92A032B207C4
:10045000E1F715E0A0E0B2E0EEEBF7E700E00BBF5C
:1004600002C007900D92A231B107D9F712E0C8E19E
:10047000D2E000E006C021970109802FFE010E9412
:100480008C39C731D10780E00807A9F70E94FD30F9
:100490000C94CD3B0C9400008CBD9DBD08958F92B3
:1004A0009F92AF92BF92CF92DF92EF92FF920F9303
:1004B0001F93CF93DF936B017C018CE3882E912CEB
:1004C000A12CB12CC701A50194010E944B39609366
:1004D0005707CA01B901A50194010E944B396093E5
:1004E0005807C701B60120E13EE040E050E00E941D
:1004F0004B39CA01B90128E130E040E050E00E94E8
:100500004B3960935907C701B60120E831E541E056
:1005100050E00E944B3969017A01CA01B9016C5F50
:100520007F4F8F4F9F4F27E030E040E050E00E9428
:100530004B396F5F60935A07812C912C540140E036
:10054000C4E6D0E000E911E0242F30E02E54384F0B
:10055000F901E370FF273097F9F4C901BE010E9449
:100560003739892B31F4C901B8010E943739892BF9
:1005700099F48EE691E0A0E0B0E0880E991EAA1EE4
:10058000BB1ED501C401AA27BB27C816D906EA0697
:10059000FB0638F04F5FD8CF8DE691E0A0E0B0E0E9
:1005A000ECCF40935D07C90164E670E00E943739E3
:1005B000EC01C90160E971E00E943739309721F4FC
:1005C0002097D9F40097C9F04DE651E060E070E063
:1005D000841A950AA60AB70AC818D908EA08FB08B7
:1005E000AFEDB3E020E0213069F4309789F5209732
:1005F00011F4009769F54DE106C04EE651E060E068
:1006000070E0E6CF4C9150E070E060E031E0320FF6
:10061000C416D506E606F70640F0C41AD50AE60A5F
:10062000F70A1196232F3C30F1F62F5F20935C07D9
:10063000C394C0925B07DF91CF911F910F91FF9000
:10064000EF90DF90CF90BF90AF909F908F900895E4
:100650004CE1D9CF8091D509E091D609F091D70925
:10066000F8949181982B91832281382F3095232300
:100670002283A7E0B0E01197F1F791819323918352
:10068000A3E2B0E01197F1F790817894EFECF0E0FD
:100690003197F1F7982381E009F480E00895909173
:1006A000D509E091D609F091D709292F209580FF2F
:1006B00014C0F8948281822382838181892B818373
:1006C000A3E2B0E01197F1F78281982B928378949E
:1006D00087ED90E00197F1F70895F89482818223E5
:1006E00082838181892B8183AFEFB0E01197F1F78D
:1006F0008281982B928378948FE090E0EBCF0F93D8
:100700001F93CF93DF93082FC8E0D0E011E081E082
:10071000902F912309F480E00E944F03110F21973D
:10072000B1F7F894E091D609F091D70991818091C1
:10073000D509809598239183E091D609F091D70946
:100740009281892382837894DF91CF911F910F91B9
:1007500008958091D509E091D609F091D709F894D0
:100760009181282F20959223918378943DE743E04F
:1007700050E0315029F1DA011197F1F79081982377
:10078000C1F3F8949281922392839181982B918363
:100790007894ABE7B7E01197F1F7F8949181922341
:1007A0009183A3E1B1E01197F1F79081982381E063
:1007B00009F080E07894E3E6F6E03197F1F70895E8
:1007C00080E00895089508950895AF92BF92CF9262
:1007D000DF92EF92FF920F931F93CF93DF936C0101
:1007E0007B018B01040F151FEB015E01AE18BF08E2
:1007F000C017D10759F06991D601ED91FC91019094
:10080000F081E02DC6011995892B79F7C501DF919B
:10081000CF911F910F91FF90EF90DF90CF90BF90FD
:10082000AF900895FC01538D448D252F30E0842F27
:1008300090E0821B930B541710F0CF960895019708
:100840000895FC01918D828D981761F0A28DAE0FF5
:10085000BF2FB11D5D968C91928D9F5F9F73928F7C
:1008600090E008958FEF9FEF0895FC01918D828DA8
:10087000981731F0828DE80FF11D858D90E0089575
:100880008FEF9FEF0895FC01918D228D892F90E0CD
:10089000805C9F4F821B91098F73992708958CE686
:1008A00097E00E94430421E0892B09F420E0822F85
:1008B000089589E098E00E94430421E0892B09F41F
:1008C00020E0822F0895FC01A48DA80FB92FB11D3F
:1008D000A35ABF4F2C91848D90E001968F73992776
:1008E000848FA689B7892C93A089B1898C91837054
:1008F00080648C93938D848D981306C00288F3894D
:10090000E02D80818F7D80830895EF92FF920F9379
:100910001F93CF93DF93EC0181E0888F9B8D8C8DAB
:1009200098131AC0E889F989808185FF15C09FB79F
:10093000F894EE89FF896083E889F9898081837062
:10094000806480839FBF81E090E0DF91CF911F9111
:100950000F91FF90EF900895F62E0B8D10E00F5F32
:100960001F4F0F731127E02E8C8D8E110CC00FB608
:1009700007FCFACFE889F989808185FFF5CFCE01A0
:100980000E946304F1CFEB8DEC0FFD2FF11DE35AB4
:10099000FF4FF0829FB7F8940B8FEA89FB89808123
:1009A0008062CFCF0F931F93CF93DF938C01D0E062
:1009B000C0E0F801EC0FFD1F6491662341F089E06F
:1009C00098E00E948504892B11F02196F2CFCE0188
:1009D000DF91CF911F910F910895CF93DF93EC0199
:1009E000888D8823B9F0AA89BB89E889F9898C9117
:1009F00085FD03C0808186FD0DC00FB607FCF7CFD3
:100A00008C9185FFF2CF808185FFEDCFCE010E94D2
:100A10006304E9CFDF91CF91089580E090E0892BC6
:100A200029F00E94590481110E94000080E090E0AA
:100A3000892B29F00E944F0481110E94000080E060
:100A400090E0892B49F080E090E0892B29F00E940A
:100A5000000081110E94000080E090E0892B49F0A5
:100A600080E090E0892B29F00E94000081110C9415
:100A7000000008958150823108F05AC0E82FF0E05C
:100A80008827EA5BFA4F8F4F0C948C3966056A050C
:100A900058055E05620598056D05730577057D05AA
:100AA000810585058B058F059805930599059D059D
:100AB000809180008F7780938000089580918000DE
:100AC0008F7DF9CF80918000877FF5CF84B58F77B8
:100AD00084BD089584B58F7DFBCF8091B0008F7762
:100AE0008093B00008958091B0008F7DF9CF809100
:100AF00090008F77809390000895809190008F7D73
:100B0000F9CF80919000877FF5CF8091A0008F77FB
:100B10008093A00008958091A0008F7DF9CF8091EF
:100B2000A000877FF5CF809120018F7780932001EF
:100B30000895809120018F7DF9CF80912001877FDA
:100B4000F5CFCF93DF93282F30E0F901E059FD4F27
:100B50008491F901E951FC4FD491F901EF55FC4F13
:100B6000C491CC23A1F081110E943A05EC2FF0E052
:100B7000EE0FFF1FE957FC4FA591B491EC91ED23C7
:100B800081E090E009F480E0DF91CF91089580E06A
:100B900090E0FACF1F93CF93DF93282F30E0F90135
:100BA000E059FD4F8491F901E951FC4FD491F901CD
:100BB000EF55FC4FC491CC23A9F0162F81110E9450
:100BC0003A05EC2FF0E0EE0FFF1FEA54FD4FA59120
:100BD000B4918FB7F894EC91111108C0D095DE2331
:100BE000DC938FBFDF91CF911F910895DE2BF8CF5B
:100BF000CF93DF9390E0FC01E951FC4F24918F5596
:100C00009C4FFC0184918823C9F090E0880F991FC4
:100C1000FC01ED52FD4FA591B491FC01EA54FD4F4A
:100C2000C591D49161110DC09FB7F8948C91209516
:100C300082238C938881282328839FBFDF91CF91C3
:100C40000895623051F49FB7F8943C91822F8095BB
:100C500083238C93E8812E2BEFCF8FB7F894EC9100
:100C60002E2B2C938FBFEACF4F925F926F927F9281
:100C70008F929F92AF92BF92CF92DF92EF92FF92AC
:100C80000F931F93CF93DF9300D01F921F92CDB786
:100C9000DEB720916B0727FD2CC149835A836B83F4
:100CA0007C838C0161E080916A070E94F805809145
:100CB0006B078D834801B12CA12C8D7F09F031C1C8
:100CC00060E072E18AE790E0A50198010E946D3929
:100CD00029013A017A01690191E0C91AD108E108B4
:100CE000F108AFEFCA16D104E104F10409F00CF4E5
:100CF000C7C060E472E48FE090E0A50198010E9413
:100D00006D3969017A01B1E0CB1AD108E108F10827
:100D10008D81823009F06AC082E09FEFC916D1044C
:100D2000E104F10409F00CF45EC160E970ED83E0C8
:100D300090E0A50198010E946D3969017A01A1E056
:100D4000CA1AD108E108F10883E0BFEFCB16D1043D
:100D5000E104F10409F00CF446C168E478EE81E0A6
:100D600090E0A50198010E946D3969017A0181E046
:100D7000C81AD108E108F10884E09FEFC916D10430
:100D8000E104F10409F00CF42EC164E274EF80E098
:100D900090E0A50194010E946D3969017A01B1E0EA
:100DA000CB1AD108E108F10885E09FEFC916D104FC
:100DB000E104F10409F008F416C162E17AE780E089
:100DC00090E0A50194010E946D3969017A01B1E0BA
:100DD000CB1AD108E108F1088FEFC816D104E1045D
:100DE000F10411F008F0F0C086E0FDC08FEFC816E6
:100DF000D104E104F10409F00CF491C068E478EE48
:100E000081E090E0A50198010E946D3969017A01A5
:100E100091E0C91AD108E108F108AD8184E0A1117F
:100E2000C4CF83E0AFEFCA16D104E104F10461F14D
:100E30005CF162E17AE780E090E0A50194010E9414
:100E40006D3969017A0181E0C81AD108E108F10819
:100E500084E09FEFC916D104E104F104A9F0A0F0E9
:100E6000730162019AE0F594E794D794C7949A9538
:100E7000D1F7A1E0CA1AD108E108F10885E004C061
:100E800081E0AD81A111AFC095B5987F892B85BD5B
:100E900089819A81AB81BC812FEF3FEFA901892B1A
:100EA0008A2B8B2B79F0D801AA0FBB1F29813A819D
:100EB0004B815C810E94593828EE33E040E050E0DD
:100EC0000E944B399D81913009F45CC0923009F445
:100ED0006BC091110EC0C7BC2093660730936707A3
:100EE000409368075093690780916E0082608093F9
:100EF0006E000F900F900F900F900F90DF91CF9199
:100F00001F910F91FF90EF90DF90CF90BF90AF9027
:100F10009F908F907F906F905F904F90089582E0A8
:100F2000B0CF60E072E18AE790E0A50198010E94ED
:100F30006D3969017A01B1E0CB1AD108E108F108F5
:100F400091E0C114D10481E0E806F10484F068E482
:100F500078EE81E090E0A50198010E946D39690169
:100F60007A0191E0C91AD108E108F10893E0AD8156
:100F7000A13009F08DCF80918100887F892B8093EB
:100F8000810086CFD0928900C092880020936207AA
:100F900030936307409364075093650780916F0017
:100FA000826080936F00A5CFC092B30020935E074C
:100FB00030935F0740936007509361078091700002
:100FC00082608093700095CF730162018AE0F5948E
:100FD000E794D794C7948A95D1F7B1E0CB1AD1089A
:100FE000E108F10887E09091B100987F892B809308
:100FF000B1004ECF1F93CF93DF93182FEB0161E029
:101000000E94F805209739F460E0812FDF91CF919D
:101010001F910C94CA05CF3FD10511F461E0F5CFC3
:10102000E12FF0E0E059FD4FE491E150E23108F0AA
:10103000B3C0F0E08827E05EF74F8F4F0C948C39F7
:1010400032083A083F0849085308CC085D0865088B
:101050006D08770881088B089A08A408CC08AE08A8
:10106000B808C20884B5806884BDC7BDDF91CF9140
:101070001F91089584B5806284BDC8BDF7CF80916B
:101080008000806880938000D0938900C09388009E
:10109000EDCF80918000806280938000D0938B00A0
:1010A000C0938A00E3CF80918000886080938000A5
:1010B000D0938D00C0938C00D9CF8091B000806810
:1010C0008093B000C093B300D1CF8091B000806214
:1010D0008093B000C093B400C9CF80919000806825
:1010E00080939000D0939900C0939800BFCF8091D7
:1010F0009000806280939000D0939B00C0939A00F0
:10110000B5CF80919000886080939000D0939D002F
:10111000C0939C00ABCF8091A00080688093A0001A
:101120008091A0008F7B8093A000D093A900C093F2
:10113000A8009CCF8091A00080628093A000D093F3
:10114000AB00C093AA0092CF8091A00088608093EA
:10115000A000D093AD00C093AC0088CF8091200157
:10116000806880932001D0932901C09328017ECF0D
:1011700080912001806280932001D0932B01C09345
:101180002A0174CF80912001886080932001D09340
:101190002D01C0932C016ACFC038D1050CF03ECF91
:1011A00033CF3FB7F8948091B8069091B906A091DB
:1011B000BA06B091BB0626B5A89B05C02F3F19F013
:1011C0000196A11DB11D3FBFBA2FA92F982F8827C7
:1011D000BC01CD01620F711D811D911D42E0660FA2
:1011E000771F881F991F4A95D1F708958F929F9274
:1011F000AF92BF92CF92DF92EF92FF924B015C01D0
:101200000E94D1086B017C010E94D1086C197D09F4
:101210008E099F09683E734081059105A8F321E07E
:10122000821A9108A108B10888EEC80E83E0D81E82
:10123000E11CF11C81149104A104B10429F7FF9071
:10124000EF90DF90CF90BF90AF909F908F900895D8
:101250002FB7F8946091B4067091B5068091B606E8
:101260009091B7062FBF08956093AF067093B006B4
:101270008093B1069093B206645D7E4F8F4F9F4F6F
:101280006093AB067093AC068093AD069093AE0668
:1012900082E090E09093AA068093A9060E94280914
:1012A0006093A5067093A6068093A7069093A80660
:1012B00008952F923F924F925F926F927F928F92FA
:1012C0009F92AF92BF92CF92DF92EF92FF920F93D5
:1012D0001F93CF93DF93382E962E842E222E84E6F2
:1012E000E816F1040CF459C092EBE91A97E0F90AF8
:1012F000E0925D0700935C0720925B0730925907EC
:101300009092580780925707AE2DB0E020E833E363
:1013100041EE51E00E9459382B013C0122EB37E0AD
:10132000FF24E4E6F0E0C0E9D1E0C901825B974028
:101330008E159F05B4F19EE4E91A98EFF90AC701EA
:1013400064E670E00E9437396C01C70160E971E022
:101350000E9437395C01CFEDD3E0E1E0F0E01127E6
:1013600083E0E822FF24E017F1070CF042C0E230EE
:10137000F10591F5E114F10479F5C114D10419F4E2
:10138000A114B10449F580E8480E8BE3581E86E2AB
:10139000681E711C31962196E6CF8EE1E80EF11C95
:1013A000A7CFC90183709927892B99F4C901BF017F
:1013B0000E943739892B31F4C901BE010E943739A7
:1013C000892B39F490E8490E91E5591E91E0691E88
:1013D000711C2F5F3F4FA9CFA881B0E020E831E515
:1013E00041E050E00E945938460E571E681E791E93
:1013F000D1CF292D30E0ACE3B0E00E9464386B011E
:101400007C01C80CD11CE11CF11C232D30E0A0E1B3
:10141000BEE00E946438C60ED71EE81EF91E822D5B
:101420008150990BDC0120E831E541E050E00E9459
:101430009B396C0D7D1D8E1D9F1D640D751D861DB8
:10144000971DDF91CF911F910F91FF90EF90DF904B
:10145000CF90BF90AF909F908F907F906F905F9054
:101460004F903F902F900C943409CF92DF92EF92DF
:10147000FF920F931F930E9428098B019C01C0903B
:10148000A506D090A606E090A706F090A806609169
:10149000AF067091B0068091B1069091B2060C191A
:1014A0001D092E093F09083E134021053105E0F0D2
:1014B000DC01CB010196A11DB11D8093AF06909375
:1014C000B006A093B106B093B206B701A601485189
:1014D0005C4F6F4F7F4F4093A5065093A6066093D5
:1014E000A7067093A806C7CF1F910F91FF90EF90AA
:1014F000DF90CF900895CF92DF92EF92FF92C0904D
:10150000A106D090A206E090A306F090A406C6160D
:10151000D706E806F90661F06B017C010E944F02D4
:10152000C092A106D092A206E092A306F092A40671
:10153000FF90EF90DF90CF9008950E94350A0E94AF
:101540007B0A80915D0790E08E54984F08950E9429
:10155000350A0E947B0A80915C0790E008950E9402
:10156000350A0E947B0A80915B0790E008950E94F3
:10157000350A0E947B0A8091570790E008950E94E7
:10158000350A0E947B0A8091580790E008950E94D6
:10159000350A0E947B0A8091590790E00895CF9206
:1015A000DF92EF92FF92CF93DF93EC010E94280924
:1015B0006B017C018F850E94A1059C0181E02115B2
:1015C000310509F480E0898B8889811105C091E09B
:1015D000232B09F090E0998B29898A89281721F01B
:1015E000CD8ADE8AEF8AF88E8D899E89AF89B88D83
:1015F000B701A601481B590B6A0B7B0BDB01CA0123
:10160000CB80DC80ED80FE80C816D906EA06FB069A
:1016100064F43A81231749F02A83222349F04B8945
:101620005C894F5F5F4F5C8B4B8B3A81311117C0E8
:10163000CF80D884E984FA84C816D906EA06FB0666
:1016400034F48B899C89998388831C8A1B8A2A8B12
:10165000DF91CF91FF90EF90DF90CF900895CB84F2
:10166000DC84ED84FE84C816D906EA06FB067CF706
:101670008B899C89919581959109E5CF20917E0672
:10168000260F3327331F21323105ECF420912D072B
:10169000FC0190E080E0243069F082E00895A091A0
:1016A0007E062191AC01425A594FA40FB52FB11DAE
:1016B0002C930196861798F380917E06680F6093AD
:1016C0007E0680E0089581E0089510922D0781E064
:1016D00080932C071092070761E084E10E94CA05FD
:1016E00061E085E10E94CA05E9EBF0E080818E7F30
:1016F000808380818D7F808388E48093B80085E437
:101700008093BC000895CF93DF9391E090935D06A2
:101710008823B9F0C091B800D091BA008091BC0084
:101720008A7B8093BC0060E084E10E94CA0560E08F
:1017300085E10E94CA050E94650BD093BA00C09350
:10174000B800DF91CF910895CF92DF92EF92FF9290
:101750000F931F93CF93DF93D091560781E0D1323F
:1017600008F09CC0C09155070E94D1086B017C0114
:1017700080912D0781116CC082E080932D0781E05C
:1017800080932C078FEF80932B0710922A07D0931A
:101790002907A5E3B7E0E9E0F7E080E0D8138DC0C2
:1017A0001092080780910807CC0FC82BC093080738
:1017B00080910707813009F084C0109207070E94CA
:1017C000D1086B017C01809108078093BB00809158
:1017D0002F0790913007A0913107B0913207892BE4
:1017E0008A2B8B2BA1F00E94D10800912F0710911A
:1017F000300720913107309132076C197D098E092D
:101800009F09061717072807390708F442C0809177
:10181000BC0083FDD8CF85EC8093BC000E94D1082A
:101820006B017C0180912D07823009F44CC08091BE
:101830002B078F3F09F469C080912B07803209F490
:1018400066C080912B07803309F463C084E026C012
:1018500080912F0790913007A0913107B091320706
:10186000892B8A2B8B2B09F483CF0E94D1080091FE
:101870002F071091300720913107309132076C19F2
:101880007D098E099F09061717072807390708F0F1
:101890006FCF80912E070E94830B85E01092340752
:1018A0001092560710923307DF91CF911F910F913D
:1018B000FF90EF90DF90CF9008959D9191938F5F6F
:1018C0006DCF85EEA9CF80912F0790913007A09121
:1018D0003107B0913207892B8A2B8B2B09F4A2CFC9
:1018E0000E94D10800912F071091300720913107F5
:1018F000309132076C197D098E099F090617170769
:101900002807390708F08ECFC4CF80E0C7CF82E028
:10191000C5CF83E0C3CFCF92DF92EF92FF920F93B8
:101920001F93CF93DF93D82FC62F613208F098C052
:101930000E94D1086B017C0180912D0781116BC041
:1019400081E080932D0780932C079FEF90932B07C6
:1019500010922A079C0F9093290780930807809183
:101960000807DD0FD82BD093080780910707813037
:1019700009F078C0109207070E94D1086B017C0122
:10198000809108078093BB0080912F0790913007CA
:10199000A0913107B0913207892B8A2B8B2BA1F0B4
:1019A0000E94D10800912F07109130072091310734
:1019B000309132076C197D098E099F0906171707A8
:1019C0002807390708F448C08091BC0083FDD8CFB0
:1019D00085EC8093BC000E94D1086B017C01809152
:1019E0002D07813009F440C080912A078C1710F42C
:1019F000C0912A07E9E0F7E0A7EEB6E080E08C139B
:101A000055C08C2FDF91CF911F910F91FF90EF90D8
:101A1000DF90CF90089580912F0790913007A0918B
:101A20003107B0913207892B8A2B8B2B09F484CF95
:101A30000E94D10800912F071091300720913107A3
:101A4000309132076C197D098E099F090617170717
:101A50002807390708F070CF80912E070E94830B6A
:101A6000C0E0CFCF85EEB5CF80912F0790913007A2
:101A7000A0913107B0913207892B8A2B8B2B09F467
:101A8000AECF0E94D10800912F071091300720910E
:101A90003107309132076C197D098E099F090617AD
:101AA00017072807390708F09ACFD6CF91919D9351
:101AB0008F5FA5CF0895E091D8068091D706E817EB
:101AC00030F4F0E0E951F94F808190E008958FEF14
:101AD0009FEF08959091D8068091D7062FEF3FEFA2
:101AE000981748F4E92FF0E0E951F94F208130E0F0
:101AF0009F5F9093D806C90108958091D706909171
:101B0000D806891B990B0895CF92DF92EF92FF922E
:101B10000F931F93CF93DF937C01CB018A01209118
:101B20003307222389F0EB016B01C40ED51ECC15BF
:101B3000DD0569F06991D701ED91FC910190F0818B
:101B4000E02DC7011995F3CF642F0E943E0BC80109
:101B5000DF91CF911F910F91FF90EF90DF90CF9089
:101B60000895CF93DF931F92CDB7DEB7698320919D
:101B700033072223F9F020915607203258F021E054
:101B800030E0FC013383228390E080E00F90DF910E
:101B9000CF91089580913407E82FF0E0EB5CF84F87
:101BA000998190838F5F809334078093560781E0FB
:101BB00090E0ECCF61E0CE0101960E943E0BF7CFA2
:101BC000DF92EF92FF920F931F93CF93DF93182F23
:101BD000F62ED42ED22F81E08093330788E68093AF
:101BE0005507109234071092560760E086EA98E095
:101BF0000E94B10DCAE08D2D6C2F0E942B39829569
:101C0000807F682F690F86EA98E00E94B10D8F2DC2
:101C10006C2F0E942B398295807F682F690F86EA8E
:101C200098E00E94B10D812F6C2F0E942B39829574
:101C3000807F682F690F86EA98E00E94B10D61E00D
:101C400086EA98E00E94B10D8D2F6C2F0E942B39EF
:101C50008295807F682F690F86EA98E00E94B10D17
:101C6000802F6C2F0E942B398295807F682F690FFF
:101C700086EA98E00E94B10D8E2D6C2F0E942B39C0
:101C80008295807F682F690F86EA98E00E94B10DE7
:101C900060E086EA98E00E94B10DDF91CF911F913C
:101CA0000F91FF90EF90DF900C94A40B90E080E0F8
:101CB0000895CF92DF92EF92FF920F931F93CF93ED
:101CC000DF9390915C0691110BC08FEF9FEFDF9136
:101CD000CF911F910F91FF90EF90DF90CF900895DB
:101CE00090915B06992389F3082FC0915A06D0E0A2
:101CF0008091520681110DC00E94280960934E0602
:101D000070934F06809350069093510681E0809324
:101D100052060E942809C0904E06D0904F06E090CF
:101D20005006F09051066C197D098E099F096D329D
:101D3000714081059105B0F010914D060E9428096F
:101D400060934E0670934F06809350069093510611
:101D500091E0912790934D06992331F110924C0612
:101D600010924B0620914B0630914C0620953095F1
:101D700080914A06282326FF1CC081E080934906F3
:101D800027FF1AC081E08093480680914D06882382
:101D900009F49BCF02C0D595C7950A95E2F7C0FF1D
:101DA00094CF80E09CE393CFD0934C06C0934B0636
:101DB000D9CF10924906E4CF10924806E6CFEF92B1
:101DC000FF920F931F93CF93DF93E82E0E94A903F6
:101DD0008CEC0E947F0384E40E947F030E94A9038D
:101DE0008CEC0E947F038EEB0E947F0308E010E0E2
:101DF000D0E0C1E00E942A038111DC2BCC0F0150FE
:101E00001109C1F708E010E0C0E0FF24F3940E943C
:101E10002A038111CF29FF0C01501109C1F77C2F32
:101E20006D2F6F3F760711F470E060E0072E000C15
:101E3000880B990B0E94263720E030E040E85DE3F4
:101E40000E948537EE2061F026E636E646EE5FE337
:101E50000E94853720E030E040E052E40E94743870
:101E6000DF91CF911F910F91FF90EF9008950F9305
:101E70001F938091570290915802892B09F449C011
:101E8000809115068823A9F00E9428090091110667
:101E9000109112062091130630911406601B710BED
:101EA000820B930B693E73408105910590F110926E
:101EB00015060E94C70A20915102309152028217E2
:101EC000930739F50E94BF0A2091530230915402C2
:101ED00082179307F1F40E94B70A209155023091BE
:101EE000560282179307A9F40E94280960931106ED
:101EF00070931206809313069093140681E08093EA
:101F0000150680910C0290910D029093D606809355
:101F1000D5061F910F910895CF93DF93EC01219681
:101F2000FC0120812A33C9F42181243609F5229647
:101F300030E020E06AE0899190ED980F9A3078F4D3
:101F4000629FA001639F500D1124082E000C990B75
:101F5000C0979A01280F391FEECFCE01DFCF309303
:101F60000906209308062115310511F020930B0274
:101F700088818F3689F48A81082E000C990B9C0188
:101F8000205331093093090620930806C39705971B
:101F900010F420930A02249688818236F1F4229666
:101FA00030E020E06AE0899190ED980F9A3068F473
:101FB000629FA001639F500D1124082E000C990B05
:101FC000C0979A01280F391FEECF3093090620934E
:101FD00008063093090220930802209108023091EC
:101FE0000902032E000C440B550B60E67AEE80E0EC
:101FF00090E00E946D3982E0220F331F441F551F6D
:102000008A95D1F72093040630930506409306067F
:1020100050930706CE01DF91CF910895CF92DF92C2
:10202000EF92FF920F931F93CF93DF93EC018B01FD
:102030000E942809CE80DF80E884F984AB01BC01CE
:102040004C195D096E097F0988819981092E000C60
:10205000AA0BBB0B84179507A607B707A0F48A85C0
:10206000882389F01A868D811C821D82823060F15E
:1020700081E090E0DF91CF911F910F91FF90EF9061
:10208000DF90CF9008958B859C8580179107C9F4C8
:1020900081E08C838D818F5F8D830E9428096E8300
:1020A0007F838887998781E08A872D818A819B81B8
:1020B000281719064CF01C821D821A868FEF9FEF9D
:1020C000D9CF8C81811103C090E080E0D3CF0F3F46
:1020D0001F4FD1F7DFCF8EBD00000DB407FEFDCF3F
:1020E0008EB50895CF9381E08093330788E680937F
:1020F0005507109234071092560760E086EA98E080
:102100000E94B10D0E94A40B67E088E60E948B0C30
:102110001092D8068093D70686EA98E00E946A0D4E
:10212000982F92959F70CAE08F709C9F800D11240C
:1021300090E09093E5068093E40686EA98E00E949A
:102140006A0D982F92959F708F709C9F800D11241F
:1021500090E09093DC068093DB0686EA98E00E948C
:102160006A0D982F929593708F709C9F800D11240B
:1021700090E09093DA068093D90686EA98E00E9470
:102180006A0D86EA98E00E946A0D982F92959F70DA
:102190008F709C9F800D112490E09093DE068093B9
:1021A000DD0686EA98E00E946A0D982F92959F704E
:1021B0008F709C9F800D112490E09093E006809397
:1021C000DF0686EA98E00E946A0D982F92959F702C
:1021D0008F709C9F800D112490E08053984F9093B6
:1021E000E2068093E106CF9108958F929F92AF927D
:1021F000BF920F931F93CF93DF93CDB7DEB7A19715
:102200000FB6F894DEBF0FBECDBF19A2423008F45E
:102210004AE08E010F5D1F4F842E912CB12CA12C12
:10222000A50194010E944B39E62FB901CA01EA3099
:1022300044F5E05DD801EE938D01232B242B252B53
:1022400079F790E080E0109769F0FD01019000209F
:10225000E9F73197AF014A1B5B0BBD0189E098E0BC
:102260000E94E503A1960FB6F894DEBF0FBECDBF66
:10227000DF91CF911F910F91BF90AF909F908F9062
:102280000895E95CD7CF42E050E06FE074E089E068
:1022900098E00C94E503CF93DF930E94D204EC0105
:1022A0000E9443118C0F9D1FDF91CF910895CF9312
:1022B000DF93682F70E090E080E04AE00E94F51024
:1022C000EC010E9443118C0F9D1FDF91CF91089567
:1022D000FC0180819181009711F00C94AE3660E092
:1022E00070E0CB0108954F925F926F927F928F9230
:1022F0009F92AF92BF92CF92DF92EF92FF92CF93D5
:10230000DF93CDB7DEB72D970FB6F894DEBF0FBEC3
:10231000CDBF0E94D108C0904406D0904506E09001
:102320004606F09047066C197D098E099F096A31AF
:1023300071448105910508F457C20E94D108609349
:1023400044067093450680934606909347068FECAB
:1023500099E00E94681169837A838B839C8360E093
:102360008AE00E94CA05FAE0CF2ED12CE12CF12C94
:1023700069817A818B819C81A70196010E946D39C8
:1023800049015A01660F771F65537C4FDB014D9061
:102390005C9087E090E00E94590E3C01C501B401B9
:1023A000A70196010E946D39660F771F65537C4F18
:1023B000FB018080918087E090E00E94590E5C01D3
:1023C00069817A818B819C8124E630E040E050E095
:1023D0000E946D39CA01B901A70196010E946D39A9
:1023E000660F771F65537C4FDB01ED90FC9086E014
:1023F00090E00E94590E46205720712C612C24E158
:10240000440C551C661C771C2A95D1F78E219F2100
:10241000B0E0A0E073016201C82AD92AEA2AFB2AA7
:102420008A209B20B12CA12C3AE0880C991CAA1C74
:10243000BB1C3A95D1F7C828D928EA28FB2869811E
:102440007A818B819C8128EE33E040E050E00E944D
:102450006D3929013A0180914906882309F491C117
:102460006894F6F880914806882309F48DC1689431
:10247000F7F8B091CB06BD878F2D9927AA27BB27E8
:102480008D839E83AF83B8874701AA24BB24BB27D3
:10249000AF2D9E2D8D2D89879A87AB87BC879D8513
:1024A000992309F474C18C2D0E946B1089850E94B8
:1024B0006B10882D0E946B108D810E946B108AE03A
:1024C000882E912CA12CB12CC301B201A50194013D
:1024D0000E946D39660F771F65537C4FDB01CD90ED
:1024E000DC9085E090E00E94590E7C0169817A8140
:1024F0008B819C8120E137E240E050E00E946D3901
:10250000CA01B901A50194010E946D39660F771FB8
:1025100065537C4FFB016080718084E090E00E94F5
:10252000590ECE20DF20F12CE12C34E1CC0CDD1C47
:10253000EE1CFF1C3A95D1F786219721B0E0A0E070
:102540004AE0880F991FAA1FBB1F4A95D1F7C82AD6
:10255000D92AEA2AFB2A69817A818B819C8120EA27
:1025600036E841E050E00E946D39CA01B901A50189
:1025700094010E946D39660F771F65537C4FDB0114
:10258000AD90BC9083E090E00E94590E8A219B217F
:10259000B0E0A0E0C82AD92AEA2AFB2A69817A8118
:1025A0008B819C8120E432E44FE050E00E946D3941
:1025B00029013A0180914906882309F4F3C06894FF
:1025C000F6F880914806882309F4EFC06894F7F87C
:1025D0008F2D9927AA27BB278D839E83AF83B8872A
:1025E0004701AA24BB24BB27AF2D9E2D8D2D8987A3
:1025F0009A87AB87BC879D85992309F4D9C08C2D18
:102600000E946B1089850E946B10882D0E946B10B0
:102610008D810E946B103AE0832E912CA12CB12C5D
:10262000C301B201A50194010E946D39660F771FA5
:1026300065537C4FDB01CD90DC9082E090E00E94FE
:10264000590E7C0169817A818B819C8120E836E971
:1026500048E950E00E946D39CA01B901A501940111
:102660000E946D39660F771F65537C4FFB016080B8
:10267000718081E090E00E94590ECE20DF20F12C85
:10268000E12C64E1CC0CDD1CEE1CFF1C6A95D1F73B
:1026900086219721B0E0A0E07AE0880F991FAA1F59
:1026A000BB1F7A95D1F7C82AD92AEA2AFB2A698161
:1026B0007A818B819C8120E031EE45EF55E00E94CC
:1026C0006D39CA01B901A50194010E946D39660FE7
:1026D000771F65537C4FDB01AD90BC9090E080E0AC
:1026E0000E94590E8A219B21B0E0A0E08C299D29EF
:1026F000AE29BF29209149066C017D01222309F4EE
:1027000062C06894F6F880914806882309F45EC098
:102710006894F7F84F2C5524662477244701AA249F
:10272000BB24BB27AF2D9E2D8D2D89839A83AB8330
:10273000BC839D85992309F44CC08C2D0E946B109D
:1027400089810E946B10882D0E946B10842D0E943D
:102750006B1061E08AE02D960FB6F894DEBF0FBED5
:10276000CDBFDF91CF91FF90EF90DF90CF90BF90E2
:10277000AF909F908F907F906F905F904F900C9450
:10278000CA05E894F6F86ECEE894F7F872CE8D811B
:102790000E946B10882D0E946B1089850E946B101F
:1027A0008C2D8BCEE894F6F80CCFE894F7F810CF88
:1027B0008D810E946B10882D0E946B1089850E946C
:1027C0006B108C2D26CFE894F6F89DCFE894F7F89F
:1027D000A1CF842D0E946B10882D0E946B108981DF
:1027E0000E946B108C2DB3CF2D960FB6F894DEBFE0
:1027F0000FBECDBFDF91CF91FF90EF90DF90CF90D4
:10280000BF90AF909F908F907F906F905F904F9010
:1028100008950F931F93CF93DF938C01EB01FC017D
:10282000808191810097E1F068817981611571055E
:10283000A9F0428153812C813D814217530770F0EA
:102840000E94C63B8C819D81F801958384831D8203
:102850001C82DF91CF911F910F9108950E94533AEE
:1028600088819981F801918380838A819B819383F8
:1028700082838C819D8195838483198218821B8237
:102880001A82E5CFCF93DF93EC018881998100977D
:1028900011F00E94533A198218821D821C821B82F9
:1028A0001A82DF91CF910895FC0180819181009778
:1028B00011F00C94533A08950F931F93CF93DF9325
:1028C000EC0188819981009759F02A813B81261774
:1028D000370730F081E0DF91CF911F910F9108957C
:1028E0008B016F5F7F4F0E94DC3A009759F099830C
:1028F00088831B830A832C813D81232B59F7FC019C
:102900001082E8CF80E0E7CFEF92FF920F931F9302
:10291000CF93DF936115710541F480E0DF91CF9192
:102920001F910F91FF90EF90089541155105B1F05F
:102930007B01EC010C811D81040F151FB8010E9461
:102940005C14882351F3288139818C819D81B701E2
:10295000820F931F0E94C63B1D830C8381E0DECF54
:102960000F931F93CF93DF931F921F92CDB7DEB7C4
:102970008C0169831A8241E050E0BE016F5F7F4F96
:102980000E948414811103C0C8010E944214C8012E
:102990000F900F90DF91CF911F910F910895CF93DA
:1029A000DF93EC01FB0101900020E9F73197AF01C3
:1029B000461B570B0E948414811103C0CE010E9454
:1029C0004214CE01DF91CF910895CF93DF93EC01B4
:1029D000FB0144815581608171810E9484148111C1
:1029E00003C0CE010E944214CE01DF91CF91089521
:1029F000EF92FF920F931F93CF93DF93EC017B0134
:102A00008A01BA010E945C1481110BC0CE010E94A0
:102A10004214CE01DF91CF911F910F91FF90EF9063
:102A200008951D830C83B701888199810E94C63B5C
:102A3000F0CFFB0101900020E9F73197AF01461B71
:102A4000570B0C94F8140F931F93CF93DF93CDB7CC
:102A5000DEB762970FB6F894DEBF0FBECDBF8C0114
:102A6000CB01F80111821082138212821582148226
:102A70004AE0BE016F5F7F4F0E94D536BE016F5F97
:102A80007F4FC8010E94191562960FB6F894DEBFF9
:102A90000FBECDBFDF91CF911F910F910895CF93BE
:102AA000DF93EC01FB018617970749F06081718184
:102AB0006115710541F0448155810E94F814CE01E1
:102AC000DF91CF9108950E944214F9CFFC01118249
:102AD000108213821282158214820C944F15FC010D
:102AE000118210821382128215821482FB010190DE
:102AF0000020E9F73197AF01461B570B0C94F814EF
:102B0000AF92BF92CF92DF92EF92FF920F931F93FB
:102B1000CF93DF936C015B017A018901241735079C
:102B200020F48F2D7901042F182F61E174E0C60184
:102B30000E946F15D5011496CD91DC91EC16FD061F
:102B4000E0F40C171D0708F4E801D501ED91FC91A4
:102B50001197EC0FFD1F108110826D917C916E0D0D
:102B60007F1DC60161157105A1F00E941915F501BF
:102B700080819181C80FD91F1883C601DF91CF9141
:102B80001F910F91FF90EF90DF90CF90BF90AF908B
:102B900008950E944214EBCF4F925F926F927F9202
:102BA0008F929F92AF92BF92CF92DF92EF92FF925D
:102BB0000F931F93CF93DF9300D000D0CDB7DEB734
:102BC0007C014B015A018091290681113AC081E0B4
:102BD0008093290690E2692E96E0792E27E1422E15
:102BE00026E0522E10E000E00F5F1F4F680181E0E9
:102BF000C81AD1089801A601B401CE0101960E941D
:102C00008015CE0101960E946811D3016D933D019C
:102C1000CE0101960E9454149801A601B501CE017F
:102C200001960E948015CE0101960E946811F20162
:102C300061932F01CE0101960E94541409301105B1
:102C400099F69091160680E2C82E86E0D82EE7E12C
:102C5000F6E08601A801D8018C919A3008F04DC0A9
:102C60008F5F8C930F5F1F4FDA018C918A3019F4BC
:102C7000D80111971C923196B6E009321B0751F723
:102C80009F5F943109F43FC09093160661E174E0B0
:102C9000C7010E946F15FE0131965F01D6018D912B
:102CA0006D014AE0B50190E00E94D536F501019032
:102CB0000020E9F73197AF014A195B09B501C70157
:102CC0000E9484140C151D0549F7C70126960FB6FE
:102CD000F894DEBF0FBECDBFDF91CF911F910F9152
:102CE000FF90EF90DF90CF90BF90AF909F908F902C
:102CF0007F906F905F904F9008952081281709F47E
:102D0000B1CF8F5FAECF1092160610922906BECFBC
:102D1000CF92DF92EF92FF921F93CF93DF93CDB7C5
:102D2000DEB72C970FB6F894DEBF0FBECDBF182FBD
:102D300069E474E0CE0107960E946F1522E030E04E
:102D400050E040E0133081F024E030E042E050E019
:102D50001C3051F026E030E0103321F0103FA9F490
:102D600028E030E044E050E06FEC79E0CE010196DD
:102D70000E948015BE016F5F7F4FCE0107960E94B3
:102D80000914CE0101960E945414CE0107960E94A8
:102D900068116B01CE0107960E945414C6012C964F
:102DA0000FB6F894DEBF0FBECDBFDF91CF911F915C
:102DB000FF90EF90DF90CF900895EF92FF920F93E6
:102DC0001F93CF93DF93CDB7DEB762970FB6F8941A
:102DD000DEBF0FBECDBF7C018B0177FF03C0119515
:102DE00001951109B801C7010E942315083E83E02F
:102DF00018070CF082C0B801CE010D960E94231571
:102E00006FE374E0CE0101960E946F15BE016F5F03
:102E10007F4FCE0107960E946615BE01635F7F4F0C
:102E2000CE0107960E94E514BC01C7010E944F1510
:102E3000CE0107960E945414CE0101960E945414AC
:102E4000CE010D960E945414043611050CF055C0A5
:102E5000B801CE010D960E9423156EE374E0CE01F9
:102E600001960E946F15BE016F5F7F4FCE010796DE
:102E70000E946615BE01635F7F4FCE0107960E94D8
:102E8000E514BC01C7010E944F15CE0107960E94B0
:102E90005414CE0101960E945414CE010D960E9446
:102EA00054140A3011054CF5B801CE010D960E945C
:102EB00023156DE374E0CE0101960E946F15BE01EB
:102EC0006F5F7F4FCE0107960E946615BE01635F5C
:102ED0007F4FCE0107960E94E514BC01C7010E94F6
:102EE0004F15CE0107960E945414CE0101960E9400
:102EF0005414CE010D960E945414C70162960FB669
:102F0000F894DEBF0FBECDBFDF91CF911F910F911F
:102F1000FF90EF9008950F931F93CF93DF93CDB75A
:102F2000DEB762970FB6F894DEBF0FBECDBF8C013F
:102F300077FF03C07195619571096A307105A4F539
:102F4000CE010D960E9423156FE374E0CE01019629
:102F50000E946F15BE016F5F7F4FCE0107960E94E2
:102F60006615BE01635F7F4FCE0107960E94E51490
:102F7000BC01C8010E946615CE0107960E94541438
:102F8000CE0101960E945414CE010D960E94541455
:102F9000C80162960FB6F894DEBF0FBECDBFDF91B9
:102FA000CF911F910F910895C8010E942315F0CF72
:102FB0000F931F93CF93DF93CDB7DEB768970FB60C
:102FC000F894DEBF0FBECDBF8B018330D9F52091C1
:102FD000D3093091D40942E050E06FEC79E0CE01A2
:102FE0000D960E948015B801CE0101960E948B17A4
:102FF000BE016F5F7F4FCE0107960E946615BE012E
:10300000635F7F4FCE0107960E94E514BC018FECF1
:1030100099E00E944F15CE0107960E945414CE01EC
:1030200001960E945414CE010D960E945414689685
:103030000FB6F894DEBF0FBECDBFDF91CF911F91C9
:103040000F9108958C3009F042C02091D30930913E
:10305000D40944E050E06FEC79E0CE0143960E9441
:103060008015B801CE010D960E948B1722E030E04A
:1030700050E040E06FEC79E0CE0101960E948015AF
:10308000BE016F5F7F4FCE0107960E946615BE019D
:10309000635F7F4FCE0107960E94E514BE016D5E0F
:1030A0007F4F0E94E514BC018FEC99E00E944F1500
:1030B000CE0107960E945414CE0101960E9454142A
:1030C000CE010D960E945414CE014396AECF2091AE
:1030D000D3093091D40946E050E0803349F0803F75
:1030E00009F0A5CF2091D3093091D40948E050E0F0
:1030F0006FEC79E0CE0143960E948015B801CE01B5
:103100000D960E948B1724E030E0B2CF0E94280970
:1031100060930D0670930E0680930F069093100631
:1031200080910C06882309F44FC020910A06309143
:103130000B06C901880F991F21313105A1F1FC014E
:10314000E95CFD4F408151814150510951834083D9
:10315000DC01A95CBD4F6D917C911197FC01E15A96
:10316000FD4F40815181641775073CF4FC01E9571C
:10317000FD4F408151814D935C932031310509F51C
:10318000209157023091580221303105B9F420E8DE
:1031900020934A06895C9D4FFC016081718180917A
:1031A0005A060C94D8174091590250915A024C502B
:1031B000510950935A0240935902CACF10924A06BD
:1031C000E9CF2930310531F708950E94280960932D
:1031D0000D0670930E0680930F0690931006809153
:1031E0000C06882309F444C020910A0630910B068E
:1031F000C901880F991F2131310561F1FC01E95C9A
:10320000FD4F408151814F5F5F4F51834083DC010F
:10321000A95CBD4F6D917C911197FC01E957FD4F61
:1032200040815181461757073CF4FC01E15AFD4F9C
:10323000408151814D935C9320313105B1F410925E
:103240004A06895C9D4FFC016081718180915A061C
:103250000C94D8174091590250915A02445F5F4F25
:1032600050935A0240935902D2CF2930310549F781
:1032700008950F931F93CF93DF93CDB7DEB7689771
:103280000FB6F894DEBF0FBECDBF8C0180915902FE
:1032900090915A02489709F048C00E94B70ABC01B1
:1032A000CE0143960E948B170E94BF0ABC01CE013B
:1032B0000D960E948B170E94C70ABC01CE01019691
:1032C0000E948B17BE016F5F7F4FCE0107960E9451
:1032D0006615BE01635F7F4FCE0107960E94E5141D
:1032E000BE016D5E7F4F0E94E514BC01C8010E94C3
:1032F0006615CE0107960E945414CE0101960E94D5
:103300005414CE010D960E945414CE0143960E948F
:103310005414C80168960FB6F894DEBF0FBECDBF37
:10332000DF91CF911F910F9108950E94B70ABC01C0
:10333000CE0143960E948B170E94BF0ABC01CE01AA
:103340000D960E948B170E94350A0E947B0A80917D
:1033500059076CE070E0882309F4B0CF682F70E063
:103360008D3008F4ABCF6C507109A8CF8F929F922B
:10337000AF92BF92CF92DF92EF92FF920F931F9383
:10338000CF93DF93CDB7DEB72C970FB6F894DEBF9F
:103390000FBECDBF8C016A017B0180913C0681117B
:1033A00011C00E942809645B7B4F8F4F9F4F609331
:1033B00038067093390680933A0690933B0681E075
:1033C00080933C0680913006811109C06AE374E065
:1033D0008AE296E00E946F1581E0809330060E9499
:1033E00028098090380690903906A0903A06B0904F
:1033F0003B06681979098A099B09693E7340810572
:10340000910508F4FDC00E94280960933806709366
:10341000390680933A0690933B0620E030E040E284
:1034200051E4C701B6010E9485376B017C0120E0A1
:1034300030E0A9010E94163920E030E040E05FE36F
:1034400087FDF7C0C701B6010E9474380E94E038BA
:103450007B0177FF04C0EE24FF24E61AF70A5B0124
:1034600039E1A31A3CEFB30A80915B0290915C02B0
:103470009B012D593F4F69012A5531094901B70177
:10348000892B09F0DBC0CE0107960E9423156FE35C
:1034900074E0CE0101960E946F15BE01695F7F4FF7
:1034A000CE0101960E94E5146FE374E00E94CF14F0
:1034B000BC018AE296E00E944F15CE0101960E945F
:1034C0005414CE0107960E9454143FECA31637E023
:1034D000B30618F5B701CE0107960E9423156EE3D7
:1034E00074E0CE0101960E946F15BE01695F7F4FA7
:1034F000CE0101960E94E5146FE374E00E94CF14A0
:10350000BC018AE296E00E944F15CE0101960E940E
:103510005414CE0107960E94541487ECC816D104A7
:1035200018F5B701CE0107960E9423156DE374E0EC
:10353000CE0101960E946F15BE01695F7F4FCE01DB
:1035400001960E94E5146FE374E00E94CF14BC0161
:103550008AE296E00E944F15CE0101960E94541413
:10356000CE0107960E94541423E18216910418F5A7
:10357000B701CE0107960E9423156CE374E0CE01DB
:1035800001960E946F15BE01695F7F4FCE010196C3
:103590000E94E5146FE374E00E94CF14BC018AE23C
:1035A00096E00E944F15CE0101960E945414CE0160
:1035B00007960E94541480915B0290915C02892BC3
:1035C00009F0D3C097E3F92E61E174E0CE010196D2
:1035D0000E946F156AE276E0CE0101960E94E51422
:1035E0006EE374E00E94CF146F2D0E94B014BC01F2
:1035F0008AE296E00E944F15CE0101960E94541473
:103600006AE276E0C8010E946615C8012C960FB6E2
:10361000F894DEBF0FBECDBFDF91CF911F910F9108
:10362000FF90EF90DF90CF90BF90AF909F908F90E2
:103630000895C701B6010E94733808CFCE010796DE
:103640000E9423156FE374E0CE0101960E946F156E
:10365000BE01695F7F4FCE0101960E94E5146FE3C2
:1036600074E00E94CF14BC018AE296E00E944F15DC
:10367000CE0101960E945414CE0107960E94541464
:103680003FECA31637E0B30638F5C7016AE070E0F7
:103690000E943739CE0107960E9423156EE374E02D
:1036A000CE0101960E946F15BE01695F7F4FCE016A
:1036B00001960E94E5146EE374E00E94CF14BC01F1
:1036C0008AE296E00E944F15CE0101960E945414A2
:1036D000CE0107960E94541487ECC816D10438F521
:1036E000C7016AE070E00E943739CE0107960E9458
:1036F00023156DE374E0CE0101960E946F15BE01A3
:10370000695F7F4FCE0101960E94E5146EE374E07D
:103710000E94CF14BC018AE296E00E944F15CE01B0
:1037200001960E945414CE0107960E94541423E17E
:103730008216910408F03FCFC7016AE070E00E9452
:103740003739CE0107960E9423156CE374E0CE0151
:1037500001960E946F15BE01695F7F4FCE010196F1
:103760000E94E5146EE374E017CF82E3F82E2CCFAD
:1037700085ED8093BC0080912F0790913007A09138
:103780003107B09132070796A11DB11D23E0B69510
:10379000A795979587952A95D1F72091BC0024FD90
:1037A00003C010922D07089540912F0750913007C4
:1037B0006091310770913207452B462B472B69F3F7
:1037C0000097A105B10541F025E32A95F1F7000026
:1037D0000197A109B109E1CF80912E070C94830BC9
:1037E0000C944B380C94433888E090E00E94F21B14
:1037F000682F70E089E00E94FA0789E090E00E945B
:10380000F21B682F70E086E00E94FA078AE090E0E1
:103810000E94F21B682F70E083E00C94FA072F924D
:103820003F924F925F926F927F928F929F92AF9250
:10383000BF92CF92DF92EF92FF920F931F93CF939D
:10384000DF93CDB7DEB7EE970FB6F894DEBF0FBEAD
:10385000CDBF0E94280920E137E240E050E00E94FD
:103860004B39672B682B692B01F58091E306882380
:10387000E1F00E947210E090E106F090E206009103
:10388000DF061091E0062091DD063091DE064091C2
:10389000E4065091E5066091DB067091DC068091AC
:1038A000D9069091DA060E9459090E94280960936E
:1038B0000006709301068093020690930306009120
:1038C000FC051091FD052091FE053091FF05601B60
:1038D000710B820B930B61367A4E81059105E0F1F5
:1038E0008091FB05811107C08CE392E00E944B118F
:1038F00081E08093FB058CE697E00E944304892BCE
:1039000059F18CE697E00E94210490916A05E92F15
:10391000F0E0E95EFA4F80839F5F923509F40AC1B7
:1039200090936A058A30C1F4E0916A05F0E0E95E9F
:10393000FA4F108210926A05E8E1F5E021E030E0EC
:1039400040E05191C90101965A3209F4F6C0452769
:103950009C0183359105A9F780910006909101069D
:10396000A0910206B09103064091FC055091FD051F
:103970006091FE057091FF058C019D01041B150BE4
:10398000260B370BB901A801413C544D614071052C
:1039900070F08093FC059093FD05A093FE05B09315
:1039A000FF058CE192E00E944B111092FB051092F2
:1039B000EF051092F0051092F1051092F20589EBD7
:1039C00098E09093F6058093F5050091B60810E015
:1039D0001093F8050093F7058091830990E0909388
:1039E000FA058093F9058091B2088530A1F58091A0
:1039F000B6088A3108F488C28091B9089091BA0853
:103A0000843F914008F051C21092F4051092F305E2
:103A10008FEF9FEFDC018093EF059093F005A0936B
:103A2000F105B093F2058BE090E09093EC05809364
:103A3000EB056091EF057091F0058091F105909193
:103A4000F20540E10E94F5100E94431182E080934C
:103A5000B2081092B6086091EF057091F00589E008
:103A60009AE00E940E109093EA058093E905609118
:103A7000EF057091F0058CEF99E00E940E10909385
:103A8000E8058093E7056091EF057091F0058FEEF2
:103A900099E00E940E109093E6058093E505009151
:103AA000D5061091D606F8018081882309F496C3C3
:103AB0000E942809C0907105D0907205E0907305AE
:103AC000F09074056C197D098E099F09C0906D05F1
:103AD000D0906E05E0906F05F0907005C616D70681
:103AE000E806F90608F07AC30E9428094B015C0138
:103AF0008092710590927205A0927305B092740540
:103B0000780130E020E04AE0F801D1908F0180EDAB
:103B10008D0D8A3008F098C2429FC001439F900DDE
:103B200011242D2DDD0C330B20533109280F391FA3
:103B30007F01EACF10926A05F5CE895E9A4FFC01AB
:103B4000808181340CF087538295807F295E3A4FC3
:103B5000F901928191340CF485C19753890F481370
:103B6000FBCE80911705843209F0F6CE80911A05BC
:103B7000823509F0F1CE80911B058D3409F0ECCE31
:103B800080911C05833409F0E7CEA0901E0590902B
:103B90001F05B090200540902105C090220550904F
:103BA0002305A3E2B5E090E080E0ECE0F0E02D91A9
:103BB0002C3209F059C101968830910509F054C1A1
:103BC000EF5FF0E0E95EFA4FE080F1807280838081
:103BD0008481082E000C990BC0970AE0D02ED89E45
:103BE0008001D99E100D11240053184F8581080FB4
:103BF000111D87FD1A950053110946EF57E062EE3B
:103C000077E0C8010E949836882309F4A5CE872D55
:103C1000770C990BC097D89E3001D99E700C112457
:103C2000680C711C87FC7A94F0E36F1A71084CE001
:103C300050E061E070E0C3010E949836882309F4E7
:103C40008BCE8E2DEE0C990BC097D89E9001D99EED
:103C5000300D1124C9018F0D911DF7FC9A957C013F
:103C600090E3E91AF1084FE150E061E070E0C7012C
:103C70000E949836882309F46FCE8A2DAA0C990BDE
:103C8000C097D89E9001D99E300D1124F901E90DFD
:103C9000F11D97FCFA954F01F0E38F1A910847E167
:103CA00050E070E060E0C4010E949836882309F477
:103CB00053CE8B2DBB0C990BC097D89E5001D99E2B
:103CC000B00C1124A40CB11C47FCBA9420E3A21A36
:103CD000B1084BE350E070E060E0C5010E94983607
:103CE000882309F439CE8C2DCC0C990BC097D89E23
:103CF0009001D99E300D11246901C50CD11C57FCCF
:103D0000DA9430E3C31AD1084BE350E070E060E08E
:103D1000C6010E949836882309F41ECE8092E309DA
:103D2000A092E409C092E509E092E6096092E709F1
:103D30001093E9090093E8090E9428096B017C01AE
:103D4000C092EB09D092EC09E092ED09F092EE09F5
:103D50008091160581118FC00E9428096C197D0978
:103D60008E099F09693B7B408105910508F0F4CDE0
:103D700084EF91E00E944B118091E3090E9457115A
:103D80008091E4090E9457118091E5090E94571122
:103D90008091E8099091E90918EEC12E13E0D12E27
:103DA000B6010E9437397C010091E70910E02091AB
:103DB000E60930E04091E50950E06091E40970E0E7
:103DC0008091E30990E00E945909A0915D02B091B1
:103DD0005E0220E13EE00E9494390091AF0610910E
:103DE000B0062091B1063091B206DC01CB01800F04
:103DF000911FA21FB31F8093AF069093B006A093AC
:103E0000B106B093B2060E94350A0E944F020E948A
:103E10009D0A4C010E94A70A082F0E94AF0AB82EE3
:103E20000E94B70AF82E0E94BF0A182F0E94C70AE4
:103E3000382FC401B6010E943739E82E2B2D4F2DA3
:103E4000612F832F0E94E00D81E0809316050E9470
:103E500028096093120570931305809314059093BD
:103E600015057ACD90537ACE3196E335F10509F0F8
:103E70009ECEE0E0A6CE0E94280900911205109186
:103E800013052091140530911505601B710B820BF1
:103E9000930B613477478B41910518F0109216050A
:103EA0005BCD81E08093160557CD8091BB08909142
:103EB000BC0885974B9740F5E2EBF8E082E090E094
:103EC00040E050E0BA01DC0111962091B6082A17B3
:103ED0001B0609F00CF48EC0238534852750310968
:103EE0002730310508F085C02585368523513109F5
:103EF0002F30310508F470C0258536852A503109E8
:103F00002930310508F470C0063011050CF49ECD3F
:103F100082EB98E09EAF8DAF43E0242E312C55EC20
:103F2000C52E5DE9D52E5CE1E52E51E8F52E201673
:103F300031060CF078C0EDADFEAD65857685A184C7
:103F4000B28490E080E00E9424372B013C01B5014F
:103F500090E080E00E9424374B015C012DEC3CECAA
:103F60004CE45FE30E9485379B01AC01C301B201C1
:103F70000E941F37F0E0E0E087FD14C02DEC3CEC20
:103F80004CE45FE3C301B2010E9485379B01AC01A1
:103F9000C501B4010E941F37E2E0F0E087FD02C0D6
:103FA000E1E0F0E0A701960163E971E080E091E0D3
:103FB0000E941B396F01FF0FEE08FF08C626D726A7
:103FC000E826F926FFEF2F1A3F0A2DAD3EAD2E5FF2
:103FD0003F4F3EAF2DAFABCF440F551F661F771F2E
:103FE0004160029634966FCF440F551F661F771FAE
:103FF000F8CFCD010197959587959093F40580931F
:10400000F3050C972CF41092F4051092F3057CCF75
:104010004093EF055093F0056093F1057093F2051E
:1040200084E090E002CDC092EF05D092F005E092DE
:10403000F105F092F20580E290E09093F405809310
:10404000F3058FEF9FEFF1CC30930906209308061C
:10405000609104067091050680910606909107060E
:104060002115310511F1032E000C440B550B0E9454
:104070006D3920936D0530936E0540936F05509315
:104080007005EFE9ED0DE730B0F40E2E000CFF0BDC
:104090008827E25BFF4D8F4F0C948C39D423D623B5
:1040A000C823CC23CE23D023D22320910B0230E08F
:1040B00050E040E0DCCF10926C05F7018181833243
:1040C00041F480916C058F5F80936C0587010E5FD2
:1040D0001F4FF80180818E32F1F4C0906D05D090B1
:1040E0006E05E0906F05F0907005C701B60122E003
:1040F00030E040E050E00E946D39C20ED31EE41E55
:10410000F51EC0926D05D0926E05E0926F05F0929B
:1041100070050F5F1F4FF801808180538A3008F0CF
:1041200047C380936B050F5F1F4FF80180818C326E
:1041300011F40F5F1F4FE0916C05EE2309F44EC0A0
:10414000C0906D05D0906E05E0906F05F090700501
:1041500080916B058450990B4CE0489F9001499FDA
:10416000300D1124E20FF32FF11DEE0FFF1FE3536B
:10417000FD4FB701A601808191810E9434060E9403
:104180002809681979098A099B09C616D706E8061D
:10419000F90620F50E942809609371057093720555
:1041A000809373059093740580916B07813009F4B7
:1041B00004C3823009F407C3811105C080916E00E9
:1041C0008D7F80936E0060E080916A070E94CA052F
:1041D00085E092E00E944B1110E000E01093D606BB
:1041E0000093D5060E9428090091E1051091E2058F
:1041F0002091E3053091E405601B710B820B930B5A
:104200006630710581059105E8F080910E028111FB
:10421000E0C270E060E089E00E94FA0770E060E0D0
:1042200086E00E94FA0770E060E083E00E94FA07EF
:104230000E9428096093E1057093E2058093E305ED
:104240009093E40580910A0690910B06892B21F04A
:104250008091E0058111DBC180910C068111D7C1ED
:1042600080918B0581110DC00E94280960938705FC
:10427000709388058093890590938A0581E08093E7
:104280008B0580917F0581110DC00E9428096093E4
:104290007B0570937C0580937D0590937E0581E07E
:1042A00080937F050E942809009187051091880559
:1042B0002091890530918A05601B710B820B930B4D
:1042C000009100021091010220910202309103023C
:1042D000061717072807390708F04DC00E9428095C
:1042E00060938705709388058093890590938A056C
:1042F0008091790590917A05009709F0D6C281E006
:1043000090E090930B0680930A0688E893E1A0E082
:10431000B0E08093000290930102A0930202B09358
:1043200003028091790590917A058230910581F49C
:1043300010920B0610920A0640E65AEE60E070E01A
:1043400040930002509301026093020270930302B3
:104350000196833091050CF0C8C290937A05809342
:1043600079058091E005882321F010920B061092C8
:104370000A061092E0050E94280900918705109115
:1043800088052091890530918A05601B710B820B8D
:10439000930B603D77408105910508F078C30E943A
:1043A000280900917B0510917C0520917D053091B5
:1043B0007E05601B710B820B930B653671058105C1
:1043C000910508F424C10E94280960937B0570932D
:1043D0007C0580937D0590937E0580910A069091DF
:1043E0000B062091CC06222309F484C2892B89F57F
:1043F000CE0149960E94391981E020915B023091EB
:104400005C02232B09F480E00E94DF0EAB01BC01AB
:10441000CE0101960E94B619AE01475E5F4FBE0104
:104420006F5F7F4FCE014F960E94CC15BE01615E3B
:104430007F4F8FEC99E00E940914CE014F960E94A5
:104440005414CE0101960E945414CE0149960E9444
:10445000541480910A0690910B06019709F062C0EE
:104460000E949D0A68EE73E00E943739BC01CE01BC
:104470008B960E948B170E94A70ABC01CE018596DD
:104480000E948B170E94AF0ABC01CE0149960E9480
:104490008B17BE01675E7F4FCE014F960E94661557
:1044A000BE016B5D7F4FCE014F960E94E514BE01A9
:1044B000655D7F4F0E94E514BC01CE01C1960E944C
:1044C0006615CE0101960E943919AE014F5C5F4F0F
:1044D000BE016F5F7F4FCE01C7960E94CC15BE0113
:1044E000695C7F4F8FEC99E00E940914CE01C7965A
:1044F0000E945414CE0101960E945414CE01C1961C
:104500000E945414CE014F960E945414CE01499635
:104510000E945414CE0185960E945414CE018B96AD
:104520000E94541480910A0690910B06049709F09A
:104530006EC081E020915B0230915C02232B09F474
:1045400080E00E94DF0EAB01BC01CE01C1960E944B
:10455000B6190E949D0A68EE73E00E943739BC01CB
:10456000CE0185960E948B170E94A70ABC01CE013E
:104570004F960E948B170E94AF0ABC01CE01019694
:104580000E948B17BE016F5F7F4FCE0149960E943C
:104590006615BE01615E7F4FCE0149960E94E5140B
:1045A000BE016B5D7F4F0E94E514BC01CE018B966E
:1045B0000E946615AE014F5C5F4FBE01655D7F4F87
:1045C000CE01C7960E94CC15BE01695C7F4F8FEC6F
:1045D00099E00E940914CE01C7960E945414CE019E
:1045E0008B960E945414CE0149960E945414CE0119
:1045F00001960E945414CE014F960E945414CE018D
:1046000085960E945414CE01C1960E9454140E94B3
:10461000731186EB99E00E94CF0A8DE999E00E9420
:10462000CF0A84E899E00E94CF0A80910C0681119C
:1046300031C210925A068091B6099091B7091816A6
:1046400019063CF08091E9059091EA05019709F07F
:104650000AC381E08093E0051092D6061092D50639
:1046600044E650E060E070E088EE93E00E9434069B
:104670000E94280960930D0670930E0680930F0622
:104680009093100680910A0690910B060196863051
:10469000910509F42CC290930B0680930A06209191
:1046A0000A0630910B068901000F111FF801E15F26
:1046B000FD4F808180935A06D9011197FD01EE0FBD
:1046C000FF1FE558FC4F608171816115710509F488
:1046D000BBC2AB0141505109FA01EE0FFF1FED5A69
:1046E000FC4F0190F081E02DAE17BF0709F0ACC27E
:1046F0006230710509F000C288E1E5EBF2E0DE010D
:10470000119601900D928A95E1F780914F02909158
:10471000500283709927892B21F48DE190E09C83CE
:104720008B8380914D0290914E020197880F991FC3
:1047300021E030E02C0F3D1F820F931F20914B0290
:1047400030914C02FC0180819181821793070CF01B
:10475000D3C18AE090E090930B0680930A06EE9610
:104760000FB6F894DEBF0FBECDBFDF91CF911F9182
:104770000F91FF90EF90DF90CF90BF90AF909F9000
:104780008F907F906F905F904F903F902F90089503
:1047900081E080936C0591CC83E0FBCF85E0F9CF7D
:1047A00086E0F7CF88E0F5CF8AE0F3CF8CE0F1CF59
:1047B00080910A0280936B05B8CC80916F008D7F49
:1047C00080936F0000CD809170008D7F809370008A
:1047D000FACC8091E60681112BCD009177051091DE
:1047E0007805F801EE0FFF1FE00FF11FDF01AA0FA0
:1047F000BB1FA15DBC4F8D919C9160910602709191
:104800000702680F791F7093070260930602DF01A9
:10481000AA0FBB1FAF5CBC4FCD90DC908091D6053A
:104820009091D705C80ED91ED092D705C092D60553
:10483000EE0FFF1FED5CFC4FE080F1808091D4050E
:104840009091D505E80EF91EF092D505E092D405B9
:1048500089E00E94FA07B60186E00E94FA07B701D4
:1048600083E00E94FA078091750590917605019684
:1048700090937605809375058F3F910551F40F5FF6
:104880001F4F1093780500937705109276051092CC
:104890007505809177059091780506970CF4C8CC42
:1048A0001092780510927705C3CC019709F039CDA5
:1048B00084E090E090930B0680930A0688E893E1E9
:1048C000A0E0B0E08093000290930102A093020266
:1048D000B09303028091CC06811164C782E090E01E
:1048E00090937A05809379051CCD10927A051092E9
:1048F000790537CD892B09F062C0CE01C1960E949F
:1049000039190E949D0A68EE73E00E943739BC0194
:10491000CE0185960E948B170E94A70ABC01CE018A
:104920004F960E948B170E94AF0ABC01CE010196E0
:104930000E948B17BE016F5F7F4FCE0149960E9488
:104940006615BE01615E7F4FCE0149960E94E51457
:10495000BE016B5D7F4F0E94E514BC01CE018B96BA
:104960000E946615AE014F5C5F4FBE01655D7F4FD3
:10497000CE01C7960E94CC15BE01695C7F4F8FECBB
:1049800099E00E940914CE01C7960E945414CE01EA
:104990008B960E945414CE0149960E945414CE0165
:1049A00001960E945414CE014F960E945414CE01D9
:1049B00085960E945414CE01C1960E945414809191
:1049C0000A0690910B06019709F021CE0E949D0ADC
:1049D00068EE73E00E943739BC01CE018B960E94CD
:1049E0008B170E94A70ABC01CE0185960E948B17E7
:1049F0000E94AF0ABC01CE0149960E948B17BE01EE
:104A0000675E7F4FCE014F960E946615BE016B5DBB
:104A10007F4FCE014F960E94E514BE01655D7F4F2A
:104A20000E94E514BC01CE01C1960E946615CE011C
:104A300001960E943919AE014F5C5F4FBE016F5F56
:104A40007F4FCE01C7960E94CC15BE01695C7F4F97
:104A50008FEC99E00E940914CE01C7960E9454146D
:104A6000CE0101960E945414CE01C1960E945414A6
:104A7000CE014F960E945414CE0149960E945414C0
:104A8000CE0185960E945414CE018B96BECD109215
:104A90002906BDCD0E94280900910D0610910E0631
:104AA00020910F0630911006601B710B820B930B47
:104AB00061367A4E8105910508F4BDCD10920C0641
:104AC000E0910A06F0910B06EE0FFF1FED55FC4F2B
:104AD0008081918190930B0680930A06880F991F1D
:104AE000FC01E15FFD4F808180935A06A4CD1092B6
:104AF0000B0610920A06D3CD10920C0650930B06AB
:104B000040930A06452BB9F40E949D0A7C010E943D
:104B1000A70A8C010E94AF0A4091470250914802B7
:104B200060914502709146029C01809143029091F0
:104B300044020E94590980910A0690910B06019740
:104B4000F9F4E0904F02F090500200914D02109164
:104B50004E0280904B0290904C020E94B70A5C017A
:104B60000E94BF0A6C010E94C70A9401A501B60108
:104B70000E945909609149028DE090E00E94F01B6B
:104B800080910A0690910B060297C1F46091510240
:104B900082E090E00E94F01B6091530283E090E07D
:104BA0000E94F01B6091550284E090E00E94F01B8F
:104BB0006091570286E090E00E94F01B80910A0607
:104BC00090910B06039731F46091590281E090E0D7
:104BD0000E94F01B80910A0690910B06049731F415
:104BE00060915B028BE090E00E94F01B80910A06CE
:104BF00090910B06059749F460915D0280918502C2
:104C0000681B8CE090E00E94F01B0E949D0A5C01F2
:104C10000E94A70A082F0E94AF0AD82E0E94B70A46
:104C2000F82E0E94BF0A182F0E94C70A382FC5010C
:104C300068EE73E00E943739E82E2D2D4F2D612F3D
:104C4000832F0E94E00D8BCD2331310561F0295077
:104C500031092230310538F00E948816F801E95CEC
:104C6000FD4F918380838091B6099091B70997FD9C
:104C700007C08091E9059091EA05019609F0F4C01A
:104C800044E650E060E070E088EE93E00E94340675
:104C900080910C06811152C000910A0610910B06FA
:104CA0000E94280960930D0670930E0680930F06EC
:104CB00090931006012B09F041C00E94B70ABC0175
:104CC000CE0185960E948B170E94BF0ABC01CE01BF
:104CD0004F960E948B170E94C70ABC01CE01019615
:104CE0000E948B17BE016F5F7F4FCE0149960E94D5
:104CF0006615BE01615E7F4FCE0149960E94E514A4
:104D0000BE016B5D7F4F0E94E51466E174E00E9476
:104D1000CF14BC018FEC99E00E944F15CE0149964B
:104D20000E945414CE0101960E945414CE014F9655
:104D30000E945414CE0185960E94541480910A0654
:104D400090910B06019709F056C00E94AF0A90930C
:104D50004C0280934B020E94A70A90934E028093CC
:104D60004D020E949D0ABC019093500280934F0215
:104D70008091490290914A02892B09F09BC1CE0192
:104D800085960E948B1760914D0270914E02CE0164
:104D90004F960E948B1760914B0270914C02CE018E
:104DA00001960E948B17BE016F5F7F4FCE0149961F
:104DB0000E946615BE01615E7F4FCE0149960E943A
:104DC000E514BE016B5D7F4F0E94E514BC018FECC2
:104DD00099E00E944F15CE0149960E945414CE01CD
:104DE00001960E945414CE014F960E945414CE0195
:104DF00085960E945414E0910A06F0910B06EE0F7E
:104E0000FF1FED55FC4F2081318130930B0620931D
:104E10000A062D30310549F481E090E09093580264
:104E20008093570280E880934A0680910C0691E0B7
:104E3000892780930C068901000F111FF801E15F9B
:104E4000FD4F808180935A06A90142515109423099
:104E5000510550F02930310539F00E948816F801CB
:104E6000E95CFD4F9183808380919D0990919E091B
:104E7000009709F030C18091E7059091E80501970E
:104E8000E1F481E08093E0051092D6061092D506F9
:104E900044E650E060E070E088EE93E00E94340663
:104EA0000E94E51880910C06811107C01092E60659
:104EB00060E087E090E00E94F01B8091DE05909119
:104EC000DF05019609F010C180919F09882309F43C
:104ED0000BC110925C0680910C068823F9F00E94A9
:104EE00028090091DA051091DB052091DC0530914D
:104EF000DD05601B710B820B930B67397105810512
:104F0000910560F00E9428096093DA057093DB0533
:104F10008093DC059093DD050E94E518809184095B
:104F200090918509009709F0E3C08091E505909183
:104F3000E605019771F511E01093E0051092D60691
:104F40001092D50644E650E060E070E088EE93E011
:104F50000E9434060E94861880910C06811119C0A7
:104F60001093E60661E087E090E00E94F01B6091FC
:104F7000060288E090E00E94F01B6091D60589E06F
:104F800090E00E94F01B6091D4058AE090E00E94BE
:104F9000F01B8091D8059091D905019609F0B1C018
:104FA00080918609882309F4ACC080910C06109288
:104FB0005B06882321F10E9428090091D0051091F9
:104FC000D1052091D2053091D305601B710B820B66
:104FD000930B673971058105910508F449C00E945A
:104FE00028096093D0057093D1058093D2059093E2
:104FF000D3050E94861880910C06811139C08091DA
:105000009D0990919E0997FD06C08091E7059091BA
:10501000E805019691F444E650E060E070E088EE27
:1050200093E00E94340681E080930E0261E090E0FC
:1050300080E00E94F01B0E94F41B809184099091F3
:10504000850997FD06C08091E5059091E6050196DA
:1050500079F444E650E060E070E088EE93E00E946E
:10506000340610920E0260E090E080E00E94F01B97
:10507000E0910A06F0910B06E431F10508F06FCBE0
:105080008827EA5BF74D8F4F0C948C3985286A2965
:10509000622AAE2AD92A1D2BAF23AF23AF234C2B74
:1050A000742B742B742BAF23AF23AF23AF23AF2309
:1050B000D92A1D2BCE0185960E948B1760914B0239
:1050C00070914C02CE014F960E948B1760914D0259
:1050D00070914E0264CE9093DF058093DE05181622
:1050E00019060CF4CECEC7CE81E080935C0616CFB5
:1050F0009093D9058093D805181619060CF41BCF88
:1051000014CF81E080935B0676CF809129068111D0
:10511000CBC00E94B70A2091040230910502821789
:10512000930709F4D0C00E94B70A909305028093B8
:10513000040200915B0210915C0281E001151105EF
:1051400009F480E00E94DF0E6B017C018091A505CF
:10515000811111C00E942809645B7B4F8F4F9F4FC4
:105160006093A1057093A2058093A3059093A40575
:1051700081E08093A50580919905811109C061E1C5
:1051800074E083E995E00E946F1581E080939905B2
:105190000E9428098090A1059090A205A090A305E7
:1051A000B090A405681979098A099B09693E734082
:1051B0008105910508F444C00E9428096093A10567
:1051C0007093A2058093A3059093A405012B09F089
:1051D00073C017E320E030E0A901C701B6010E94C7
:1051E000163920E030E040E05FE387FD67C0C7018B
:1051F000B6010E9474380E94E03824E630E040E0B6
:1052000050E00E946D39CE0149960E948B17BE0175
:10521000675E7F4FCE0101960E946615612FCE0119
:1052200001960E94B014BC0183E995E00E944F15DD
:10523000CE0101960E945414CE0149960E94541446
:1052400063E975E0CE0101960E946615CE014F9686
:105250000E943919BE01615E7F4FCE0149960E94BE
:105260006615BE016F5F7F4FCE0149960E94E5141F
:10527000BC01CE0185960E946615CE0149960E941A
:105280005414CE014F960E945414CE0101960E94F0
:105290005414BE016B5D7F4F8FEC99E00E9409149E
:1052A000CE0185960E9454140E94B70A80FD7CC1ED
:1052B00080EC80934A067AC112E38CCFC701B60115
:1052C0000E94733898CF6FEC79E0CE0185960E94EA
:1052D0006615DFCF809129068111E1C08091C80554
:1052E000811111C00E94280967517C4F8F4F9F4F39
:1052F0006093C4057093C5058093C6059093C70558
:1053000081E08093C8058091BC05811144C00E9452
:105310009D0A68EE73E00E943739BC01CE01019608
:105320000E948B170E94A70ABC01CE0149960E94D9
:105330008B170E94AF0ABC01CE0185960E948B1785
:10534000BE016B5D7F4FCE014F960E946615BE0178
:10535000675E7F4FCE014F960E94E514BE016F5FDE
:105360007F4F0E94E514BC0186EB95E00E94661514
:1053700081E08093BC05CE014F960E945414CE016B
:1053800085960E945414CE0149960E945414CE0171
:1053900001960E9454140091490210914A02809192
:1053A000AE05811105C00093AD0581E08093AE0587
:1053B0000E942809C090C405D090C505E090C6059C
:1053C000F090C7056C197D098E099F09693E7340ED
:1053D0008105910530F48091AD058017110609F41F
:1053E0004DC00E9428096093C4057093C505809341
:1053F000C6059093C705012B09F053C00E949D0A72
:10540000BC01CE0101960E948B170E94A70ABC0125
:10541000CE0149960E948B170E94AF0ABC01CE01B3
:1054200085960E948B17BE016B5D7F4FCE014F9614
:105430000E946615BE01675E7F4FCE014F960E94A7
:10544000E514BE016F5F7F4F0E94E51469E30E947F
:10545000B014BC0186EB95E00E944F15CE014F962B
:105460000E945414CE0185960E945414CE01499690
:105470000E945414CE0101960E94541466EB75E00C
:10548000CE0101960E946615BE016F5F7F4F8FECC3
:1054900099E00E940914CE0101960E94541480E400
:1054A00008CF0E949D0ABC01CE0101960E948B1775
:1054B0000E94AF0ABC01CE0149960E948B170E9440
:1054C000A70AACCF6091550270915602CE01859625
:1054D0000E948B176091530270915402CE014F9637
:1054E0000E948B176091510270915202CE01019679
:1054F0000E948B17BE016F5F7F4FCE0149960E94BD
:105500006615BE01615E7F4FCE0149960E94E5148B
:10551000BE016B5D7F4F0E94E51466E174E00E945E
:10552000CF14BC018FEC99E00E944F15CE01499633
:105530000E945414CE0101960E945414CE014F963D
:105540000E945414CE0185960E94541480915702F3
:1055500090915802019741F580E8ABCE60915902D5
:1055600070915A02CE0149960E9423156EE374E0B1
:10557000CE0101960E946F15BE01675E7F4FCE017E
:1055800001960E94E51464E174E00E94CF14BC010E
:105590008FEC99E00E944F15CE0101960E945414A1
:1055A000CE0149960E94541410924A060E94370F69
:1055B000D6C880912906811124C081E020915B0228
:1055C00030915C02232B09F480E00E94DF0EAB01D6
:1055D000BC01CE0101960E94B619BE016F5F7F4FDC
:1055E0008FEC99E00E940914CE0101960E94541498
:1055F00080915B0290915C02892BD1F480E48093CE
:105600004A0681E020915B0230915C02232B09F471
:1056100080E00E94DF0E10914A0620E030E0A901F0
:105620000E941F3787FF07C0106810934A0697C86B
:1056300010924A06E6CF1F77F8CF60915D02709115
:105640005E02CE0101960E948B17BE016F5F7F4FF5
:10565000CE0149960E94661562E174E0CE0149963A
:105660000E94CF14BC018FEC99E00E944F15CE012F
:1056700049960E945414CE0101960E9454148091C0
:105680005D0290915E0297FD03C010924A0667C8C2
:1056900080E880934A0663C88091490290914A024B
:1056A000892B99F46AE174E08FEC99E00E94191556
:1056B00083E090E090932402809323028CE090E0BA
:1056C00090932602809325024AC864E274E08FEC2E
:1056D00099E00E9419158CE090E090932402809349
:1056E000230283E090E0ECCF60914F027091500272
:1056F0008091490290914A02892B09F042C0CE0163
:1057000085960E94DD1660914D0270914E02CE0189
:105710004F960E948B1760914B0270914C02CE0104
:1057200001960E948B17BE016F5F7F4FCE01499695
:105730000E946615BE01615E7F4FCE0149960E94B0
:10574000E514BE016B5D7F4F0E94E51468E174E0D3
:105750000E94CF14BC018FEC99E00E944F15CE013E
:1057600049960E945414CE0101960E945414CE0111
:105770004F960E945414CE0185960E9454140C94A6
:10578000AF23CE0185960E94DD1660914B02709189
:105790004C02CE014F960E948B1760914D02709182
:1057A0004E02BDCF81E090E00C94A8211F920F9291
:1057B0000FB60F9211240BB60F922F933F934F9376
:1057C0005F936F937F938F939F93AF93BF93EF9369
:1057D000FF938CE697E00E946304FF91EF91BF91E5
:1057E000AF919F918F917F916F915F914F913F9179
:1057F0002F910F900BBE0F900FBE0F901F9018951A
:105800001F920F920FB60F9211240BB60F922F9387
:105810008F939F93EF93FF93E0917C07F0917D0727
:105820008081E0918207F091830782FD1DC0908105
:10583000809185078F5F8F7320918607821741F0D3
:10584000E0918507F0E0E459F84F958F8093850744
:10585000FF91EF919F918F912F910F900BBE0F9021
:105860000FBE0F901F9018958081F2CF1F920F925C
:105870000FB60F9211240BB60F922F933F934F93B5
:105880005F936F937F938F939F93AF93BF93EF93A8
:10589000FF9389E098E00E946304FF91EF91BF912C
:1058A000AF919F918F917F916F915F914F913F91B8
:1058B0002F910F900BBE0F900FBE0F901F90189559
:1058C0001F920F920FB60F9211240BB60F922F93C7
:1058D0008F939F93EF93FF93E0911908F0911A082B
:1058E0008081E0911F08F091200882FD1DC0908109
:1058F000809122088F5F8F7320912308821741F0D7
:10590000E0912208F0E0E75FF74F958F809322083F
:10591000FF91EF919F918F912F910F900BBE0F9060
:105920000FBE0F901F9018958081F2CF1F920F929B
:105930000FB60F9211242F933F938F939F93AF93A2
:10594000BF938091B4069091B506A091B606B09130
:10595000B7063091B30623E0230F2D3758F5019693
:10596000A11DB11D2093B3068093B4069093B50694
:10597000A093B606B093B7068091B8069091B90689
:10598000A091BA06B091BB060196A11DB11D8093EE
:10599000B8069093B906A093BA06B093BB06BF9120
:1059A000AF919F918F913F912F910F900FBE0F90CC
:1059B0001F90189526E8230F0296A11DB11DD2CF86
:1059C0001F920F920FB60F9211240BB60F922F93C6
:1059D0003F934F935F936F937F938F939F93AF9377
:1059E000BF93EF93FF938091B3080E94A10520918C
:1059F000B7083091B8082F5F3F4F3093B808209315
:105A0000B7089091B608953618F096E09093B208D2
:105A10009091B208943009F466C0B8F49230F1F075
:105A2000933009F444C09091B508992309F46BC0F0
:105A300081117CC08091B408882309F463C08091EF
:105A4000B40861E00E94CA055EC0953009F457C0F1
:105A5000963049F791E0909383094FC08111E3CFCD
:105A60002091B7083091B8082436310528F41092F7
:105A7000B8081092B708D7CF109283091092B608D1
:105A8000E091B60891E09E0F9093B608F0E0209167
:105A9000B7083091B808EE0FFF1FEE54F74F30876C
:105AA00027831092B8081092B70893E019C081308C
:105AB00009F0B9CFE091B60891E09E0F9093B60837
:105AC000F0E02091B7083091B808EE0FFF1FEE54B8
:105AD000F74F308727831092B8081092B70894E0E8
