:100000007CC10000ABC10000A9C10000A7C1000075
:10001000A5C10000A3C10000A1C100009FC1000054
:100020009DC100009BC1000099C1000097C1000064
:1000300095C100000C94702091C100008FC1000098
:100040008DC100000C94CF2089C1000087C1000041
:1000500085C100000C94382181C100000C946A1FF6
:100060007DC100000C94581D0C942F1D77C1000019
:1000700075C1000073C1000071C100006FC10000B4
:100080006DC100006BC1000069C1000067C10000C4
:100090000C94061D0C94DD1C61C100000C945C15D1
:1000A0005DC100005BC1000059C1000057C10000E4
:1000B00055C1000053C1000051C100000C94B41F91
:1000C0004DC100004BC1000049C1000047C1000004
:1000D00045C1000043C1000041C100003FC1000014
:1000E0003DC10000A504A7049B049D049F04A10436
:1000F000A304EA0BD10CBE0D0C0E3B0E8A0EF710BA
:10010000F710F710BD0EE30EE30EE30EF710F71035
:10011000F710F710F7103B0E8A0EFC1BFF1BEE1BAF
:10012000F21BF81B361C031C071C0D1C111C151C94
:100130001B1C1F1C231C361C291C2D1C311C3B1E88
:10014000401E451E4F1E591ED21E631E6B1E731E7F
:100150007D1E871E911EA01EAA1ED21EB41EBE1E8C
:10016000C81E496E636F727265637420536F6E6749
:1001700020466F726D617421000000220025002866
:10018000002B002E003100340002010000050108A0
:10019000010B0102010000002100240027002A00B9
:1001A0002D003000330001010000040107010A01A5
:1001B00053746F7020546573740054656D702E20F5
:1001C00073656E736F72206E6F7420666F756E64E8
:1001D0002E00537461727420546573740046697202
:1001E0006D776172652076657273696F6E3A200073
:1001F0004661756C747920445333323331210044A5
:1002000053333233315F543D0000000A0B02090CB6
:100210000D0E0807030401000000000000000000AC
:1002200000000000000000000000000000000000CE
:10023000000000000012111000000000000000008B
:1002400000000000000000000000000000000000AE
:100250000020002300260029002C002F003200007F
:100260000100000301060109010505050507050850
:10027000080808020202020A0A0808040404040129
:10028000010101010101010303030303030303044B
:100290000707070C0C0C0C0C0C0C0C0202020206DB
:1002A000060606060606060B0B0B0B0B0B0B0B01CB
:1002B0000210202008081020401020408002010277
:1002C000010804020101020408102040808040203F
:1002D000100804020180040201804020100804027A
:1002E00001080402010102040810204080010204F8
:1002F0000810204080000633FE3211241FBECFEFCD
:10030000D1E2DEBFCDBF00E00CBF2AE0A6E2B5E03F
:1003100001C01D92AB32B207E1F715E0A0E0B2E0F8
:10032000E0EBF2E700E00BBF02C007900D92A632AF
:10033000B107D9F711E0CCE7D1E000E006C0219782
:100340000109802FFE010E940037CB37D10780E0E2
:100350000807A9F70E94742D0C94473951CE2F92AB
:100360003F924F925F926F927F928F929F92AF9245
:10037000BF92CF92DF92EF92FF920F931F93CF9392
:10038000DF93CDB7DEB7C054D1090FB6F894DEBF06
:100390000FBECDBF0E94381F20E137E240E050E0A1
:1003A0000E94C236672B682B692B29F480912506A1
:1003B00081110C943B0F8CE497E00E94081B892B61
:1003C00009F445C08CE497E00E94E61A9091790503
:1003D000E92FF0E0EA5DFA4F80839F5F923519F0D4
:1003E0009093790502C0109279058A3081F5E091E9
:1003F0007905F0E0EA5DFA4F10821092790581E00C
:1004000090E020E0FC01EA5DFA4F30813A3231F0B1
:100410002327019683359105A9F719C0818181347D
:100420000CF087538295807F9281913414F097531A
:1004300001C09053890F82130AC08091260584322F
:1004400031F480912905823511F40C94590F0E94E2
:10045000381F21E137E240E050E00E94C236672BAE
:10046000682B692B09F0A6C080917E05811187C099
:100470000E94381F0091CB091091CC092091CD0921
:100480003091CE09DC01CB01801B910BA20BB30B89
:10049000893B9B40A105B10508F08CC08091C8093B
:1004A0009091C909F8EECF2EF3E0DF2EB6010E943D
:1004B000AF367C010091C70910E02091C60930E0F9
:1004C0004091C50950E06091C40970E08091C30972
:1004D00090E00E94A1214091590250915A0220E1DE
:1004E0003EE0429FC001439F900D529F900D11240A
:1004F000092E000CAA0BBB0B4091B1065091B2061D
:100500006091B3067091B406840F951FA61FB71FA4
:100510008093B1069093B206A093B306B093B4064D
:100520000E947A147C010E948314082F0E948A146E
:1005300021968FAF21970E9491148FAF0E9498143B
:10054000182F0E949F14382FC701B6010E94AF36A2
:10055000E82E21962FAD21974FAD612F832F0E945A
:10056000B82681E080937E050E94381F60937A054B
:1005700070937B0580937C0590937D051BC00E9442
:10058000381F00917A0510917B0520917C053091F0
:100590007D05DC01CB01801B910BA20BB30B8134D9
:1005A0009747AB41B10518F010927E0503C081E07A
:1005B00080937E05109203061092040610920506A1
:1005C0001092060689E998E090930A06809309063E
:1005D00080919608282E312C30920C0620920B0622
:1005E0008091630990E090930E0680930D068091B0
:1005F0009208853009F0F2C0809196088A3108F49B
:100600006BC08091990890919A08843F914090F432
:1006100010920806109207068FEF9FEFDC0180937F
:10062000030690930406A0930506B09306068BE09C
:1006300090E03EC080919B0890919C0885974B97D5
:1006400008F04AC0EFE9F8E082E090E040E050E0D6
:10065000BA018C010F5F1F4F2091960830E00217FE
:10066000130774F49F0122503109D9012D913C9157
:10067000275031092730310510F40C943310C8018C
:1006800001979595879590930806809307060C9798
:100690002CF410920806109207061EC04093030621
:1006A00050930406609305067093060684E090E07C
:1006B000909300068093FF056091030670910406F5
:1006C000809105069091060640E10E941B258EE26E
:1006D00094E00E94DC247DC0B6E02B1631040CF4BB
:1006E00078C00FE918E0E3E0F0E0FEAFEDAF55ECC5
:1006F000C52E5DE9D52E5CE1E52E51E8F52E8DADD8
:100700009EAD821593050CF053C0D8016D917C917C
:10071000F8013497A080B18080E090E00E94B63468
:100720002B013C01B50180E090E00E94B6344B0102
:100730005C012DEC3CEC4CE45FE30E9417359B011F
:10074000AC01C301B2010E94B23487FD17C02DEC89
:100750003CEC4CE45FE3C301B2010E9417359B01FE
:10076000AC01C501B4010E94B234E82F880FFF0B21
:10077000EE27FF0FEE1FFF27319602C0E0E0F0E00A
:10078000A701960163E971E080E091E00E94943650
:100790006F01FF0FEE08FF08C626D726E826F926C8
:1007A000EDADFEAD3196FEAFEDAF0E5F1F4FA7CFA3
:1007B000C0920306D0920406E0920506F092060667
:1007C00080E290E090930806809307068FEF9FEFFA
:1007D0006FCF82E080939208109296086091030692
:1007E0007091040689EE99E00E940B2D9093FE050E
:1007F0008093FD0560910306709104068CED99E0ED
:100800000E940B2D9093FC058093FB0560910306DD
:10081000709104068FEC99E00E940B2D9093FA05DD
:100820008093F9050091190610911A06D8018C9150
:10083000882309F435C10E94381FC0908505D090E7
:100840008605E0908705F0908805DC01CB018C19C6
:100850009D09AE09BF09C0908105D0908205E09046
:100860008305F0908405C816D906EA06FB0608F051
:1008700017C10E94381F6B017C016093850570933E
:10088000860580938705909388051092020A10923E
:10089000010AA8016AE08A01FA01B0804F5F5F4F48
:1008A00080ED8B0D2091010A3091020A8A3080F48C
:1008B000629FF001639FF00D11248B2DBB0C990BEF
:1008C000C0978E0F9F1F9093020A8093010AE3CF77
:1008D0006091FD097091FE098091FF099091000AD5
:1008E0002115310529F0032E000C440B550B05C0D2
:1008F0002091AE0230E040E050E00E94E4362093C8
:1009000081053093820540938305509384058B2D98
:10091000BB0C990BAA0BBB0BFC01E156F109E730AC
:10092000F10530F48827EE58FF4F8F4F0C940037B5
:10093000109280050FC081E00BC083E009C085E004
:1009400007C086E005C088E003C08AE001C08CE0F3
:1009500080938005D80111968C91833219F00F5F36
:100960001F4F07C0809180058F5F809380050E5FC9
:100970001F4FF80180818E3201F5809081059090A3
:100980008205A0908305B0908405C501B40122E0E2
:1009900030E040E050E00E94E436D501C401820F0F
:1009A000931FA41FB51F8093810590938205A09388
:1009B0008305B09384050F5F1F4FD8018C9180533E
:1009C0008A3028F480937F050F5F1F4F04C0809109
:1009D000AD0280937F0580917F05F80190819C3264
:1009E00011F40F5F1F4F20918005222309F458C096
:1009F0008090810590908205A0908305B090840539
:100A000090E004973CE0389FF001399FF00D1124ED
:100A1000E20FF11DEE0FFF1FE353FD4FB501A401DF
:100A2000808191810E9404230E94381FDC01CB0148
:100A30008C199D09AE09BF0988169906AA06BB063E
:100A400078F50E94381F6093850570938605809322
:100A500087059093880580914B07813051F0823053
:100A600071F0811111C080916E008D7F80936E00B6
:100A70000BC080916F008D7F80936F0005C08091C7
:100A800070008D7F8093700060E080914A070E9423
:100A9000A91D82E691E00E940F2590E080E002C04F
:100AA000902F812F9093190680931A060E94381F69
:100AB0000091F5051091F6052091F7053091F805A4
:100AC000DC01CB01801B910BA20BB30B0697A10598
:100AD000B10508F489C080910A02811110C060E05C
:100AE00070E089E00E94141E60E070E086E00E94E1
:100AF000141E60E070E083E00E94141E6BC08091C1
:100B00002806811167C000918B0510918C05C801E2
:100B1000880F991F800F911FFC01EE0FFF1FE15DF1
:100B2000FC4F609106027091070220813181620FB3
:100B3000731F7093070260930602FC01EE0FFF1F04
:100B4000EF5CFC4FC090EA05D090EB05208131812D
:100B5000C20ED31ED092EB05C092EA05880F991FF2
:100B6000FC01ED5CFC4FE090E805F090E905808128
:100B70009181E80EF91EF092E905E092E80589E01E
:100B80000E94141EB60186E00E94141EB70183E085
:100B90000E94141E8091890590918A050196909378
:100BA0008A05809389058F3F910551F4C80101960C
:100BB00090938C0580938B0510928A05109289057D
:100BC00080918B0590918C05069724F010928C05EE
:100BD00010928B050E94381F6093F5057093F605FF
:100BE0008093F7059093F8058091030A9091040A89
:100BF000892B21F08091F4058111D3C28091050ADF
:100C00008111CFC280919F0581110DC00E94381FB4
:100C100060939B0570939C0580939D0590939E0522
:100C200081E080939F058091930581110DC00E9402
:100C3000381F60938F057093900580939105909372
:100C4000920581E0809393050E94381F00919B05D7
:100C500010919C0520919D0530919E05DC01CB01F2
:100C6000801B910BA20BB30B0091000210910102AB
:100C70002091020230910302081719072A073B0747
:100C800008F06FC00E94381F60939B0570939C050D
:100C900080939D0590939E0580918D0590918E0582
:100CA000009799F481E090E09093040A8093030AFE
:100CB00088E893E1A0E0B0E0809300029093010205
:100CC000A0930202B09303021EC00197E1F484E0F6
:100CD00090E09093040A8093030A88E893E1A0E0EF
:100CE000B0E08093000290930102A0930202B093BF
:100CF000030280911806811106C082E090E0909373
:100D00008E0580938D0580918D0590918E058230A2
:100D1000910581F41092040A1092030A40E65AEEFB
:100D200060E070E040930002509301026093020281
:100D3000709303020196833091052CF490938E05F5
:100D400080938D0504C010928E0510928D058091C0
:100D5000F405882321F01092040A1092030A1092DD
:100D6000F4050E94381F00919B0510919C0520916D
:100D70009D0530919E05DC01CB01801B910BA20BE0
:100D8000B30B803D9740A105B10508F008C20E9451
:100D9000381F00918F051091900520919105309199
:100DA0009205DC01CB01801B910BA20BB30B8536A6
:100DB0009105A105B10508F4F4C10E94381F6093A4
:100DC0008F057093900580939105909392052091E3
:100DD00018068091030A9091040A222309F410C195
:100DE000892B89F5CE0149960E94952C81E02091AE
:100DF000570230915802232B09F480E00E94E72724
:100E0000AB01BC01CE0101960E94AE18AE01475E57
:100E10005F4FBE016F5F7F4FCE014F960E94392812
:100E2000BE01615E7F4F8FEA99E00E940712CE01FA
:100E30004F960E948F1CCE0101960E948F1CCE01FE
:100E400049960E948F1C8091030A9091040A019791
:100E500009F062C00E947A1468EE73E00E94AF3617
:100E6000BC01CE018B960E94472C0E948314BC01CA
:100E7000CE0185960E94472C0E948A14BC01CE01A7
:100E800049960E94472CBE01675E7F4FCE014F9668
:100E90000E94C01CBE016B5D7F4FCE014F960E9429
:100EA0008211BE01655D7F4F0E948211BC01CE019F
:100EB000C1960E94C01CCE0101960E94952CAE01E5
:100EC0004F5C5F4FBE016F5F7F4FCE01C7960E94A0
:100ED0003928BE01695C7F4F8FEA99E00E940712B2
:100EE000CE01C7960E948F1CCE0101960E948F1CD6
:100EF000CE01C1960E948F1CCE014F960E948F1C7E
:100F0000CE0149960E948F1CCE0185960E948F1CAF
:100F1000CE018B960E948F1C8091030A9091040A47
:100F2000049709F03EC181E02091570230915802A8
:100F3000232B09F480E00E94E727AB01BC01CE011E
:100F4000C1960E94AE180E947A1468EE73E00E9467
:100F5000AF36BC01CE0185960E94472C0E948314B7
:100F6000BC01CE014F960E94472C0E948A14BC01FE
:100F7000CE0101960E94472CBE016F5F7F4FCE01CC
:100F800049960E94C01CBE01615E7F4FCE0149960A
:100F90000E948211BE016B5D7F4F0E948211BC01D5
:100FA000CE018B960E94C01CAE014F5C5F4FBE010C
:100FB000655D7F4FCE01C7960E943928BE01695CEE
:100FC0007F4F8FEA99E00E940712CE01C7960E94D8
:100FD0008F1CCE018B960E948F1CCE0149960E94D9
:100FE0008F1CCE0101960E948F1CCE014F960E944D
:100FF0008F1CCE0185960E948F1CCE01C196CCC05D
:10100000892B09F062C0CE01C1960E94952C0E94E6
:101010007A1468EE73E00E94AF36BC01CE0185966B
:101020000E94472C0E948314BC01CE014F960E945F
:10103000472C0E948A14BC01CE0101960E94472CC5
:10104000BE016F5F7F4FCE0149960E94C01CBE015A
:10105000615E7F4FCE0149960E948211BE016B5D99
:101060007F4F0E948211BC01CE018B960E94C01C52
:10107000AE014F5C5F4FBE01655D7F4FCE01C796ED
:101080000E943928BE01695C7F4F8FEA99E00E9477
:101090000712CE01C7960E948F1CCE018B960E942C
:1010A0008F1CCE0149960E948F1CCE0101960E9492
:1010B0008F1CCE014F960E948F1CCE0185960E94F8
:1010C0008F1CCE01C1960E948F1C8091030A9091C3
:1010D000040A019709F065C00E947A1468EE73E073
:1010E0000E94AF36BC01CE018B960E94472C0E9415
:1010F0008314BC01CE0185960E94472C0E948A145D
:10110000BC01CE0149960E94472CBE01675E7F4F0D
:10111000CE014F960E94C01CBE016B5D7F4FCE0179
:101120004F960E948211BE01655D7F4F0E94821121
:10113000BC01CE01C1960E94C01CCE0101960E9446
:10114000952CAE014F5C5F4FBE016F5F7F4FCE01AC
:10115000C7960E943928BE01695C7F4F8FEA99E0EB
:101160000E940712CE01C7960E948F1CCE010196E5
:101170000E948F1CCE01C1960E948F1CCE014F96FB
:101180000E948F1CCE0149960E948F1CCE0185962D
:101190000E948F1CCE018B960E948F1C02C0109261
:1011A0000C0A0E94911686E999E00E94A6148DE728
:1011B00099E00E94A61484E699E00E94A61480910A
:1011C000050A811103C0109234062DC00E94381FF9
:1011D0000091060A1091070A2091080A3091090A25
:1011E000DC01CB01801B910BA20BB30B81369A4E15
:1011F000A105B105C0F01092050AE091030AF09133
:10120000040AEE0FFF1FED55FC4F808191819093F2
:10121000040A8093030A880F991FFC01E55FFD4FC4
:1012200080818093340680919609909197091816D1
:1012300019063CF08091FD059091FE05019709F09B
:1012400098C081E08093F40510921A061092190656
:1012500044E650E060E070E088EE93E00E940423F2
:101260000E94381F6093060A7093070A8093080A49
:101270009093090A8091030A9091040A019686309E
:10128000910529F09093040A8093030A04C01092F8
:10129000040A1092030A2091030A3091040A89017A
:1012A000000F111FF801E55FFD4F80818093340628
:1012B000D9011197FD01EE0FFF1FE558FC4F60812A
:1012C00071816115710509F445C0AB0141505109A7
:1012D000FA01EE0FFF1FED5AFC4F0190F081E02D57
:1012E000EA17FB07B9F56230710509F0DAC688E143
:1012F000E5EBF2E0DE01119601900D928A95E1F79F
:1013000080914B0290914C0283709927892B21F494
:101310008DE190E09C838B832091470230914802BD
:10132000E0914902F0914A023197EE0FFF1F81E0F0
:1013300090E08C0F9D1FE80FF91F8081918182172B
:1013400093070CF0AEC68AE090E09093040A809375
:10135000030A4DC72331310561F02950310922308C
:10136000310538F00E94AC2AF801ED5CFD4F918305
:101370008083809196099091970997FD07C080918D
:10138000FD059091FE05019609F0FDC044E650E090
:1013900060E070E088EE93E00E9404238091050AEB
:1013A00081114EC00E94381F6093060A7093070A8D
:1013B0008093080A9093090A8091030A9091040A85
:1013C000892B09F03DC00E949114BC01CE01859685
:1013D0000E94472C0E949814BC01CE014F960E9497
:1013E000472C0E949F14BC01CE0101960E94472CFD
:1013F000BE016F5F7F4FCE0149960E94C01CBE01A7
:10140000615E7F4FCE0149967DD7BE016B5D7F4FF8
:1014100079D766E174E05ED7BC018FEA99E0E0D746
:10142000CE0149960E948F1CCE0101960E948F1C0E
:10143000CE014F960E948F1CCE0185960E948F1C74
:101440008091030A9091040A019709F063C00E94F9
:101450008A1490934802809347020E9483149093C9
:101460004A02809349020E947A14BC0190934C0274
:1014700080934B028091450290914602892B89F41A
:10148000CE0185960E94472C6091490270914A02D4
:10149000CE014F960E94472C6091470270914802FE
:1014A00010C0CE0185960E94472C60914702709132
:1014B0004802CE014F960E94472C609149027091DC
:1014C0004A02CE0101960E94472CBE016F5F7F4FFA
:1014D000CE0149960E94C01CBE01615E7F4FCE01C5
:1014E000499610D7BE016B5D7F4F0CD7BC018FEAC8
:1014F00099E076D7CE0149960E948F1CCE010196C5
:101500000E948F1CCE014F960E948F1CCE018596A3
:101510000E948F1CE091030AF091040AEE0FFF1F56
:10152000ED55FC4F208131813093040A2093030A4A
:101530002D30310549F481E090E09093540280937E
:10154000530280E8809333069091050A81E0892751
:101550008093050A8901000F111FF801E55FFD4F17
:10156000808180933406A9014251510942305105CE
:1015700050F02930310539F00E94AC2AF801ED5CB9
:10158000FD4F9183808380917D0990917E09009722
:1015900039F48091FB059091FC05019721F507C076
:1015A0009093F3058093F2051816190694F781E0DD
:1015B0008093F40510921A061092190644E650E042
:1015C00060E070E088EE93E00E9404230E94C72947
:1015D0008091050A811107C01092280660E087E01B
:1015E00090E00E948D168091F2059091F30501968E
:1015F00061F580917F09882341F110923606809130
:10160000050A882329F10E94381F0091EE051091E8
:10161000EF052091F0053091F105DC01CB01801B35
:10162000910BA20BB30B87399105A105B10580F091
:101630000E94381F6093EE057093EF058093F005CC
:101640009093F1050E94C72903C081E0809336067C
:101650008091640990916509009739F48091F905AA
:101660009091FA050197B1F507C09093ED0580932D
:10167000EC051816190694F711E01093F405109272
:101680001A061092190644E650E060E070E088EE19
:1016900093E00E9404230E9468298091050A811129
:1016A00019C01093280661E087E090E00E948D1633
:1016B0006091060288E090E00E948D166091EA0534
:1016C00089E090E00E948D166091E8058AE090E044
:1016D0000E948D168091EC059091ED05019661F5C3
:1016E00080916609882341F1109235068091050AA0
:1016F000882329F10E94381F0091E4051091E50527
:101700002091E6053091E705DC01CB01801B910BB0
:10171000A20BB30B87399105A105B10580F00E949A
:10172000381F6093E4057093E5058093E605909378
:10173000E7050E94682903C081E080933506809107
:10174000050A811139C080917D0990917E0997FD2C
:1017500006C08091FB059091FC05019691F444E64A
:1017600050E060E070E088EE93E00E94042381E0A6
:1017700080930A0261E080E090E00E948D160E9452
:10178000F028809164099091650997FD06C08091C9
:10179000F9059091FA05019679F444E650E060E08D
:1017A00070E088EE93E00E94042310920A0260E049
:1017B00080E090E00E948D16E091030AF091040A07
:1017C000E431F10508F013C58827E758FF4F8F4F24
:1017D0000C94003780910C0A8111DBC00E94911497
:1017E00020910402309105028217930709F4C1C0C9
:1017F0000E949114909305028093040281E020914D
:10180000570230915802232B09F480E00E94E72709
:101810006B017C018091B905811113C00E94381FB2
:10182000DC01CB01845B9B4FAF4FBF4F8093B5056D
:101830009093B605A093B705B093B80581E0809367
:10184000B9058091AD05811109C060E374E087EAB4
:1018500095E00E94C91C81E08093AD050E94381F6D
:101860000091B5051091B6052091B7053091B805E6
:10187000DC01CB01801B910BA20BB30B893E934083
:10188000A105B10508F44CC00E94381F6093B5054E
:101890007093B6058093B7059093B8058091570271
:1018A00090915802892B11F012E301C017E320E058
:1018B00030E0A901C701B6010E94903620E030E077
:1018C00040E05FE387FD05C0C701B6010E94FB351C
:1018D00004C0C701B6010E94FA350E945F3624E6B3
:1018E00030E040E050E00E94E436CE0149960E948C
:1018F000472CBE01675E7F4FCE0101960E94C01C3F
:10190000612FCE010196C8D4BC0187EA95E068D565
:10191000CE0101960E948F1CCE0149960E948F1C19
:1019200067EA75E0CE0101960E94C01CCE014F9679
:101930000E94952CBE01615E7F4FCE0149960E94A8
:10194000C01CBE016F5F7F4FCE014996DBD4BC0146
:10195000CE0185960E94C01CCE0149960E948F1C24
:10196000CE014F960E948F1CCE0101960E948F1CC3
:1019700006C06FEA79E0CE0185960E94C01CBE01C8
:101980006B5D7F4F8FEA99E042D5CE0185960E942C
:101990008F1CC7D780FD02C080ECE7C010923306D1
:1019A000E6C080910C0A8111DFC08091DC058111B5
:1019B00013C00E94381FDC01CB0187519C4FAF4FF1
:1019C000BF4F8093D8059093D905A093DA05B093C3
:1019D000DB0581E08093DC058091D00581113FC05B
:1019E00089D768EE73E00E94AF36BC01CE01019644
:1019F0000E94472C88D7BC01CE0149960E94472CF3
:101A000089D7BC01CE0185960E94472CBE016B5D33
:101A10007F4FCE014F960E94C01CBE01675E7F4F74
:101A2000CE014F966FD4BE016F5F7F4F6BD4BC0168
:101A30008AEC95E00E94C01C81E08093D005CE0125
:101A40004F960E948F1CCE0185960E948F1CCE015E
:101A500049960E948F1CCE0101960E948F1C809196
:101A6000C205811107C0809145028093C10581E0C4
:101A70008093C2050E94381F0091D8051091D905A6
:101A80002091DA053091DB05DC01CB01801B910B45
:101A9000A20BB30B893E9340A105B10558F4809188
:101AA000C10590E0209145023091460282179307CC
:101AB00009F44AC00E94381F6093D8057093D90575
:101AC0008093DA059093DB05809145029091460260
:101AD000892B09F07EC30ED7BC01CE0101960E946E
:101AE000472C11D7BC01CE0149960E94472C12D732
:101AF000BC01CE0185960E94472CBE016B5D7F4FD5
:101B0000CE014F960E94C01CBE01675E7F4FCE0182
:101B10004F96F8D3BE016F5F7F4FF4D369E3BCD318
:101B2000BC018AEC95E05CD4CE014F960E948F1CDC
:101B3000CE0185960E948F1CCE0149960E948F1C73
:101B4000CE0101960E948F1C6AEC75E0CE010196D1
:101B50000E94C01CBE016F5F7F4F8FEA99E057D48F
:101B6000CE0101960E948F1C80E4809333060E9470
:101B70000B2910920B0A10920A0A39C36091510284
:101B800070915202CE0185960E94472C60914F02BF
:101B900070915002CE014F960E94472C60914D02E9
:101BA00070914E02CE0101960E94472CBE016F5FDC
:101BB0007F4FCE0149960E94C01CBE01615E7F4FDF
:101BC000CE0149969FD3BE016B5D7F4F9BD366E1EB
:101BD00074E080D3BC018FEA99E002D4CE0149962B
:101BE0000E948F1CCE0101960E948F1CCE014F9641
:101BF0000E948F1CCE0185960E948F1C10920B0AAA
:101C000010920A0A8091530290915402019771F543
:101C100080E8809333062CC0609155027091560283
:101C20004AE0CE0149960E94941C6BE474E0CE0118
:101C300001960E94C91CBE01675E7F4FCE010196CE
:101C400061D364E174E046D3BC018FEA99E0C8D364
:101C5000CE0101960E948F1CCE0149960E948F1CD6
:101C600083E390E090930B0A80930A0A1092330664
:101C70000E940B29BCC280910C0A811132C081E004
:101C80002091570230915802232B09F480E00E94E2
:101C9000E727AB01BC01CE0101960E94AE18BE0140
:101CA0006F5F7F4F8FEA99E0B2D3CE0101960E9419
:101CB0008F1C8091570290915802892B51F481E337
:101CC00090E090930B0A80930A0A80E48093330695
:101CD00008C083E290E090930B0A80930A0A109266
:101CE000330681E02091570230915802232B09F4EA
:101CF00080E00E94E72720E030E0A9010E94B23492
:101D00009091330687FF02C0906801C09F7790933F
:101D100033066DC26091590270915A02CE0101964C
:101D20000E94472CBE016F5F7F4FCE0149960E94F3
:101D3000C01C62E174E0CE014996CCD2BC018FEAAE
:101D400099E04ED3CE0149960E948F1CCE01019698
:101D50000E948F1C8FE090E090930B0A80930A0AF8
:101D60008091590290915A0297FD03C01092330658
:101D70003EC280E8809333063AC28091450290913A
:101D80004602892B71F46AE174E08FEA99E0CCD2C3
:101D900083E090E09093200280931F028CE090E01B
:101DA0000DC064E274E08FEA99E0BED28CE090E06E
:101DB0009093200280931F0283E090E09093220290
:101DC0008093210214C28091450290914602609155
:101DD0004B0270914C02892B89F4CE0185960E94AA
:101DE000952B6091490270914A02CE014F960E9454
:101DF000472C609147027091480210C0CE01859631
:101E00000E94952B6091470270914802CE014F9637
:101E10000E94472C6091490270914A02CE010196BE
:101E20000E94472CBE016F5F7F4FCE0149960E94F2
:101E3000C01CBE01615E7F4FCE01499663D2BE01D8
:101E40006B5D7F4F5FD268E174E044D2BC018FEAE2
:101E500099E0C6D2CE0149960E948F1CCE01019610
:101E60000E948F1CCE014F960E948F1CCE0185963A
:101E70000E948F1CBCC10E94052BE0902306F090AD
:101E80002406009121061091220620911F06309110
:101E90002006409126065091270660911D067091FC
:101EA0001E0680911B0690911C060E94A1210C9495
:101EB000DB0180912A058D3411F00C94270280916A
:101EC0002B05833411F00C94270250912D051091AD
:101ED0002E05B0902F05A0903005E0903105F090D0
:101EE000320580E090E0ECE0F0E09F012A5D3A4F9F
:101EF000D9012C912C3231F401968830910511F4DE
:101F0000EF5F05C03196E335F10579F7E0E0F0E0E9
:101F1000EA5DFA4F208101813281D3806481062EEF
:101F2000000C770B605371094AE0469FC001479F40
:101F3000900D11248053984F6581860F911D67FD88
:101F40009A95BC01625178406531710510F00C948E
:101F50002702E32F330FFF0BF0974E9FB0014F9FE7
:101F6000700D11246D0D711DD7FC7A95FB01F19751
:101F70003C9710F00C942702E22F220FFF0BF097F2
:101F80004E9F90014F9F300D1124200F311D07FDF2
:101F90003A95F901F1977F9710F00C942702C52E1E
:101FA000550FDD08B0E3CB1AD1084C9DF0014D9DD3
:101FB000F00D11246F01C10ED11C17FDDA948601BA
:101FC000005311090831110510F00C942702CB2C95
:101FD000BB0CDD0850E3C51AD1084C9DF0014D9DA6
:101FE000F00D1124DF01AA0DB11DA7FCBA95D09701
:101FF000AC33B10510F00C942702CE2CEE0CDD08AA
:10200000E0E3CE1AD1084C9DF0014D9DF00D112456
:10201000AF014F0D511DF7FC5A95405351094C33F8
:10202000510510F00C9427020093C309A093C40932
:102030004093C509205331092093C60960537109A3
:102040006093C709C0979093C9098093C8090E94FB
:10205000381F6093CB097093CC098093CD0990937E
:10206000CE090C94270220813181235131092F3070
:10207000310548F4440F551F661F771F41600296D3
:1020800034960C942903208131812A50310929305A
:10209000310510F00C946C03440F551F661F771F19
:1020A000EECF1092050A5093040A4093030A452B81
:1020B000A1F420D47C0127D48C012CD49C01409124
:1020C000430250914402609141027091420280911A
:1020D0003F02909140020E94A1218091030A9091B9
:1020E000040A0197D9F4E0904B02F0904C02009161
:1020F000490210914A02809047029090480211D400
:102100005C0116D46C011BD49401A501B6010E9498
:10211000A121609145028DE090E0FFD58091030AF6
:102120009091040A0297A1F460914D0282E090E040
:10213000F4D560914F0283E090E0EFD560915102B9
:1021400084E090E0EAD56091530286E090E0E5D526
:102150008091030A9091040A039729F46091550233
:1021600081E090E0DAD58091030A9091040A049707
:1021700029F4609157028BE090E0CFD58091030A5B
:102180009091040A059741F460915902809181026F
:10219000681B8CE090E0C1D5ADD37C01B4D3082F8F
:1021A000B9D321968FAF2197BCD38FAFC1D3182F4E
:1021B000C6D3382FC70168EE73E00E94AF36E82E11
:1021C00021962FAD21974FAD612F832F0E94B82606
:1021D0000EC090D3BC01CE0101960E94472C9AD329
:1021E000BC01CE0149960E94472C8DD381CCC05CA6
:1021F000DF4F0FB6F894DEBF0FBECDBFDF91CF919A
:102200001F910F91FF90EF90DF90CF90BF90AF9014
:102210009F908F907F906F905F904F903F902F9006
:1022200008950E943339FC0180819181009711F05B
:102230000C943A3460E070E0CB010895EF92FF9285
:102240000F931F93CF93DF93FC0124813581611598
:10225000710511F480E019C041155105A9F07B0109
:10226000EC018A01020F131FB8010E94371C88235A
:1022700089F3288139818C819D81B701820F931F59
:102280000E9440391D830C8381E0DF91CF911F9123
:102290000F91FF90EF9008950F931F93CF93DF93CB
:1022A0001F921F92CDB7DEB78C0169831A8241E07D
:1022B00050E0BE016F5F7F4FC1DF811103C0C801D5
:1022C0000E945E1CC8010F900F90DF91CF911F916B
:1022D0000F910895CF93DF93EC016115710559F0CB
:1022E000FB0101900020E9F73197AF01461B570B26
:1022F000A5DF811103C0CE010E945E1CCE01DF91DB
:10230000CF910895CF93DF93EC01FB014481558178
:102310006081718193DF811103C0CE010E945E1C38
:10232000CE01DF91CF910895CF93DF93EC0161153A
:10233000710559F0FB0101900020E9F73197AF01D9
:10234000461B570B0E94701C02C00E945E1CCE01EF
:10235000DF91CF910895BF92CF92DF92EF92FF92DB
:102360000F931F93CF93DF937C016B018A01E901E7
:102370002417350720F4812F8901C42FD82F60E35B
:1023800074E0C7010E94C91CD60114968D919C91DE
:10239000159708171907C8F48C179D0708F4EC0166
:1023A000D601ED91FC911197EC0FFD1FB0801082CA
:1023B0004D915C91BA01600F711FC701B5DFD60165
:1023C000ED91FC91EC0FFD1FB082C701DF91CF9121
:1023D0001F910F91FF90EF90DF90CF90BF900895E5
:1023E000CF93DF93EC01FB018617970761F06081C3
:1023F00071816115710529F0448155810E94701C1D
:1024000002C00E945E1CCE01DF91CF9108950F9310
:102410001F93CF93DF938C01EB01FC0180819181AD
:102420000097B1F0688179816115710579F0428179
:1024300053812C813D814217530740F00E9440395F
:102440008C819D81F8019583848313C00E94B737E6
:1024500088819981F801918380838A819B8193830C
:1024600082838C819D8195838483198218821B824B
:102470001A821D821C82DF91CF911F910F910895C6
:1024800085ED8093BC008091BC0084FDFCCF109250
:102490001B07089540918806262F30E0240F311D38
:1024A00021323105DCF420911B072430C9F4FC01F2
:1024B00080E090E0861758F4309188062191DC0185
:1024C000AA59B94FA30FB11D2C930196F3CF809158
:1024D0008806680F6093880680E0089581E008957B
:1024E00082E008950895E0911D0780911C07E81788
:1024F00030F4F0E0E25EF84F808190E008958FEFD5
:102500009FEF089590911D0780911C07981750F434
:10251000E92FF0E0E25EF84F208130E09F5F90937A
:102520001D0702C02FEF3FEFC901089580911C07DE
:1025300090E020911D07821B91090895CF92DF92B0
:10254000EF92FF920F931F93CF93DF937C01262F7F
:10255000972F8A018091D106882391F0C62FD72F1B
:102560006E01C40ED51ECC15DD0569F06991D70149
:10257000ED91FC910190F081E02DC7011995F3CF09
:10258000642F822F87DFC801DF91CF911F910F91B8
:10259000FF90EF90DF90CF900895CF93DF931F923D
:1025A000CDB7DEB769832091D1062223D1F02091E7
:1025B000F406203240F021E030E0FC013383228336
:1025C00080E090E014C08091D206E82FF0E0ED5258
:1025D000F94F998190838F5F8093D2068093F406A0
:1025E00004C061E0CE01019655DF81E090E00F90DC
:1025F000DF91CF910895089580E090E00895CF9203
:10260000DF92EF92FF921F93CF93DF939091360664
:10261000911103C08FEF9FEF72C0909135069923FF
:10262000C9F3182FC0913406D0E080915E06811165
:102630000DC00E94381F60935A0670935B0680930A
:102640005C0690935D0681E080935E060E94381FD1
:10265000C0905A06D0905B06E0905C06F0905D0654
:10266000DC01CB018C199D09AE09BF098D32914067
:10267000A105B105D8F00E94381F60935A067093E7
:102680005B0680935C0690935D068091590691E00D
:10269000982790935906992329F010925806109282
:1026A000570604C0D0935806C0935706209157068A
:1026B00030915806209530954091330650E0242300
:1026C000352326FF04C081E08093560602C0109295
:1026D000560627FF04C081E08093550602C0109281
:1026E000550680915906882309F494CF02C0D595E8
:1026F000C7951A95E2F7C0FF8DCF80E09CE3DF918C
:10270000CF911F91FF90EF90DF90CF9008954F925F
:102710005F926F927F928F929F92AF92BF92CF9271
:10272000DF92EF92FF920F931F93CF93DF934B01B2
:102730005C018091AD069091AE06A091AF06B0917C
:10274000B00688169906AA06BB0609F4C2C08CE337
:10275000C82ED12CE12CF12CC501B401A7019601A2
:102760000E94C2366093B506CA01B901A70196015D
:102770000E94C2366093B606CA01B90128E130E072
:1027800040E050E00E94C23669017A016093B706CA
:10279000CA01B9016C5F7F4F8F4F9F4F27E030E038
:1027A00040E050E00E94C2366F5F6093B806412C53
:1027B000512C320140E004E610E0C0E9D1E0242FC2
:1027C00030E02E54384FF901E370FF27309789F439
:1027D000C901B8010E94AF36892B31F4C901BE018D
:1027E0000E94AF36892B29F48EE691E0A0E0B0E09C
:1027F00004C08DE691E0A0E0B0E0480E591E6A1ECC
:102800007B1ED301C201AA27BB27C816D906EA0638
:10281000FB0610F04F5FD3CF4093BB06309799F47F
:10282000C90164E670E00E94AF36892B39F4C90112
:1028300060E971E00E94AF36892B29F48EE691E0C1
:10284000A0E0B0E004C08DE691E0A0E0B0E0481A5E
:10285000590A6A0A7B0AC418D508E608F708C901AC
:1028600064E670E00E94AF36EC01C90160E971E0F6
:102870000E94AF36AFEDB3E020E0213039F430975D
:1028800049F4209729F4009729F402C04C9103C021
:102890004DE101C04CE150E060E070E0C416D506A7
:1028A000E606F70640F0C41AD50AE60AF70A2F5FD3
:1028B00011962C3011F72F5F2093BA06C394C09263
:1028C000B9068092AD069092AE06A092AF06B09285
:1028D000B006DF91CF911F910F91FF90EF90DF90A5
:1028E000CF90BF90AF909F908F907F906F905F90B0
:1028F0004F9008950E947C220ADF8091BB0690E0F1
:102900008E54984F08950E947C2201DF8091BA0670
:1029100090E008950E947C22FADE8091B90690E052
:1029200008950E947C22F3DE8091B50690E0089520
:102930000E947C22ECDE8091B60690E008950E9411
:102940007C22E5DE8091B70690E00895CF92DF9279
:10295000EF92FF92CF93DF93EC010E94381F6B013F
:102960007C018F850E94811D21E0892B09F420E0E4
:10297000298B8889811103C081E08227898B29896D
:102980008A89281721F0CD8ADE8AEF8AF88E8D8910
:102990009E89AF89B88DB701A601481B590B6A0BF8
:1029A0007B0BDB01CA01CB80DC80ED80FE80C4168E
:1029B000D506E606F70664F43A81231749F02A8320
:1029C000222331F04B895C894F5F5F4F5C8B4B8BCF
:1029D0003A8131110CC0CF80D884E984FA84C816BA
:1029E000D906EA06FB06ACF48B899C890EC0CB8421
:1029F000DC84ED84FE84C816D906EA06FB064CF496
:102A00008B899C89919581959109998388831C8AEA
:102A10001B8A2A8BDF91CF91FF90EF90DF90CF90B0
:102A200008950F931F93CF93DF931F92CDB7DEB717
:102A30008C01862FF8016787408B91E04927418BF5
:102A4000428B148A138A118210821282158A168A86
:102A5000178A108E44E150E060E070E043835483B5
:102A6000658376834AEF50E060E070E047835087EB
:102A70006187728748EE53E060E070E043875487D7
:102A80006587768760E029830E94D81DF8018089D8
:102A9000298181110BC0222349F061E087850F90C5
:102AA000DF91CF911F910F910C94A91D0F90DF9191
:102AB000CF911F910F9108951F920F920FB60F9211
:102AC00011240BB60F922F933F934F935F936F9305
:102AD0007F938F939F93AF93BF93EF93FF938091D7
:102AE000B900887F803609F49CC068F5883209F403
:102AF0005BC090F4803109F454C038F4882309F4A1
:102B0000F6C0883009F44DC0F5C0883109F44CC0D6
:102B1000803209F45DC0EEC0803409F468C048F426
:102B2000803309F455C0883309F0E4C08093190755
:102B3000D8C0803509F44FC0883509F45DC08834A9
:102B400009F0D8C0D6C0883909F4C7C0A8F48837BE
:102B500009F467C038F4883609F463C0803709F493
:102B600060C0C8C0883809F4B8C0803909F45FC0B3
:102B7000803809F0BFC05BC0803B09F486C038F4E0
:102B8000803A09F466C0883A09F47FC0B3C0803C3B
:102B900009F4A7C0883C09F4A4C0883B09F48AC0A2
:102BA000A9C08091160710C090911807809117074F
:102BB000981770F5E091180781E08E0F8093180741
:102BC000F0E0EB50F94F80818093BB0085EC86C02C
:102BD000809319078EC0E091180781E08E0F8093D3
:102BE00018078091BB00F0E0EB50F94F8083909183
:102BF0001807809117076EC0E091180781E08E0FCB
:102C0000809318078091BB00F0E0EB50F94F808370
:102C100080911A0781116DC081E08093150784EAC5
:102C200061C083E080931B071092AC06CFCF8091E8
:102C3000AC06803208F051C0E091AC0681E08E0F06
:102C40008093AC068091BB00F0E0E457F94F80839D
:102C5000BDCF85EC8093BC0010921B078091AC0621
:102C6000803230F4E091AC06F0E0E457F94F108286
:102C70006091AC0670E0E0918A06F0918B068CE8DA
:102C800096E019951092AC0635C084E080931B073E
:102C90001092890610928806E0918606F0918706C8
:102CA000199580918806811105C081E0809388067E
:102CB00010926606E091890681E08E0F8093890666
:102CC000F0E0EA59F94F80818093BB00909189062A
:102CD00080918806981708F479CF85E88093BC0026
:102CE00009C085EC8093BC0010921B0703C01092B2
:102CF0001907C6DBFF91EF91BF91AF919F918F9123
:102D00007F916F915F914F913F912F910F900BBEEB
:102D10000F900FBE0F901F9018950C94D3350C9404
:102D2000CB352F923F924F925F926F927F928F920C
:102D30009F92AF92BF92CF92DF92EF92FF920F934A
:102D40001F93CF93DF9300D01F92CDB7DEB70E94C1
:102D5000DB1E0091510610915206209153063091CE
:102D60005406DC01CB01801B910BA20BB30B8A3103
:102D70009144A105B10508F4DAC10E94DB1E6093FD
:102D800051067093520680935306909354068FEA2F
:102D900099E049DA6B017C0160E08AE0DAD68AE0EA
:102DA000482E512C612C712CC701B601A301920150
:102DB0000E94E436CB01880F991FFC01E553FC4FBC
:102DC000C080D18087E090E029833A834B835C8385
:102DD00016DC1C0129813A814B815C81CA01B90151
:102DE000A30192010E94E436660F771FFB01E553B1
:102DF000FC4FA080B18087E090E029833A834B8329
:102E00005C83FDDB7C0129813A814B815C81CA01B5
:102E1000B901A30192010E94E43629013A01660F2B
:102E2000771FFB01E553FC4F0081118186E090E0A4
:102E3000E6DB45018E209F20A12CB12CAAE0880C56
:102E4000991CAA1CBB1CAA95D1F780239123AC0125
:102E500060E070E0D501C401842B952BA62BB72B25
:102E6000C220D320A60160E070E014E1440F551F9A
:102E7000661F771F1A95D1F76C017D01C42AD52AE8
:102E8000E62AF72A80915606882319F06894F6F806
:102E900002C0E894F6F880915506882319F06894EA
:102EA000F7F802C0E894F7F88F2D0E946D2D8E2D53
:102EB0000E946D2D8D2D0E946D2D8C2D0E946D2DEB
:102EC0008AE0882E912CA12CB12CC301B201A5015E
:102ED00094010E94E436CB01880F991FFC01E55351
:102EE000FC4F0081118185E090E029833A834B8378
:102EF0005C8385DB6C0129813A814B815C81CA014D
:102F0000B901A50194010E94E436660F771FFB0109
:102F1000E553FC4F6080718084E090E029833A8320
:102F20004B835C836CDBC022D122E12CF12CF4E1D9
:102F3000CC0CDD1CEE1CFF1CFA95D1F786219721E5
:102F4000A0E0B0E01AE0880F991FAA1FBB1F1A95D6
:102F5000D1F7C82AD92AEA2AFB2A29813A814B814A
:102F60005C81CA01B901A50194010E94E436660F93
:102F7000771FFB01E553FC4F0081118183E090E056
:102F800029833A834B835C833ADB80239123A0E03F
:102F9000B0E0C82AD92AEA2AFB2A8091560629815C
:102FA0003A814B815C81882319F06894F6F802C05D
:102FB000E894F6F880915506882319F06894F7F89C
:102FC00002C0E894F7F88F2D29833A834B835C8302
:102FD0000E946D2D8E2D0E946D2D8D2D0E946D2DC8
:102FE0008C2D0E946D2D8AE0482E512C612C712C65
:102FF00029813A814B815C81CA01B901A301920107
:103000000E94E436CB01880F991FFC01E553FC4F69
:103010000081118182E090E029833A834B835C83B5
:10302000EEDA6C0129813A814B815C81CA01B901D8
:10303000A30192010E94E436660F771FFB01E5535E
:10304000FC4FA080B18081E090E029833A834B83DC
:103050005C83D5DAC022D122E12CF12CF4E1CC0C36
:10306000DD1CEE1CFF1CFA95D1F78A219B21A0E004
:10307000B0E01AE0880F991FAA1FBB1F1A95D1F75D
:10308000C82AD92AEA2AFB2A29813A814B815C8104
:10309000CA01B901A30192010E94E436660F771FAD
:1030A000FB01E553FC4F0081118180E090E0A7DA3D
:1030B00080239123A0E0B0E0C82AD92AEA2AFB2A7B
:1030C00080915606882319F06894F6F802C0E894B7
:1030D000F6F880915506882319F06894F7F802C035
:1030E000E894F7F88F2D0E946D2D8E2D0E946D2D86
:1030F0008D2D0E946D2D8C2D0E946D2D61E08AE03A
:103100000F900F900F900F90DF91CF911F910F9123
:10311000FF90EF90DF90CF90BF90AF909F908F90F7
:103120007F906F905F904F903F902F9012C50F90BF
:103130000F900F900F90DF91CF911F910F91FF9003
:10314000EF90DF90CF90BF90AF909F908F907F9047
:103150006F905F904F903F902F9008958F929F9225
:10316000AF92BF92CF92DF92EF92FF920F931F9395
:10317000CF93DF93CDB7DEB72D970FB6F894DEBFB0
:103180000FBECDBF8C016A017B0180914906811180
:1031900012C06ED6DC01CB01845B9B4FAF4FBF4F9B
:1031A0008093450690934606A0934706B093480641
:1031B00081E08093490680913D06811108C067E453
:1031C00074E087E396E0E5D381E080933D0650D636
:1031D0008090450690904606A0904706B09048061D
:1031E000DC01CB0188199909AA09BB09893E9340E2
:1031F000A105B10508F47EC13BD6609345067093E6
:103200004606809347069093480620E030E040E26F
:1032100051E4C701B6010E9417356B017C0120E023
:1032200030E0A9010E94903620E030E040E05FE30A
:1032300087FD05C0C701B6010E94FB3504C0C70168
:10324000B6010E94FA350E945F3680915702909134
:1032500058029B0129513C4F4901245833405901E0
:103260002A55310969017B01892B09F081C077FF5B
:1032700003C0F194E194F1084AE0B701CE0107964A
:1032800053D36CE474E0CE01019683D3BE01695F31
:103290007F4FCE01019636D86CE474E01BD8BC0198
:1032A00087E396E09DD8CE01019639D3CE010796EB
:1032B00036D33FEC831637E09306F0F44AE0B701CB
:1032C000CE01079631D36BE474E0CE01019661D351
:1032D000BE01695F7F4FCE01019614D86CE474E0A3
:1032E0000E946A11BC0187E396E07AD8CE0101966C
:1032F00016D3CE01079613D387ECA816B104F8F4C1
:103300004AE0B701CE0107960FD36AE474E0CE011C
:1033100001963FD3BE01695F7F4FCE0101960E94A7
:1033200082116CE474E00E946A11BC0187E396E0AC
:1033300057D8CE010196F3D2CE010796F0D223E101
:10334000C216D10408F0B1C04AE0B701CE01079619
:10335000EBD269E474E0CE0101961BD3BE01695F34
:103360007F4FCE0101960E9482116CE474E090C000
:1033700077FF03C0F194E194F1084AE0B701CE0170
:103380000796D2D26CE474E0CE01019602D3BE015E
:10339000695F7F4FCE0101960E9482116CE474E058
:1033A0000E946A11BC0187E396E01AD8CE0101960B
:1033B000B6D2CE010796B3D23FEC831637E0930620
:1033C00020F5C7016AE070E00E94AF364AE0CE0106
:1033D0000796AAD26BE474E0CE010196DAD2BE0160
:1033E000695F7F4FCE0101960E9482116BE474E009
:1033F0000E946A11BC0187E396E00E94F011CE01A1
:1034000001968DD2CE0107968AD287ECA816B10418
:1034100020F5C7016AE070E00E94AF364AE0CE01B5
:10342000079682D26AE474E0CE010196B2D2BE0160
:10343000695F7F4FCE0101960E9482116BE474E0B8
:103440000E946A11BC0187E396E00E94F011CE0150
:10345000019665D2CE01079662D223E1C216D1044D
:1034600020F5C7016AE070E00E94AF364AE0CE0165
:1034700007965AD269E474E0CE0101968AD2BE0161
:10348000695F7F4FCE0101960E9482116BE474E068
:103490000E946A11BC0187E396E00E94F011CE0100
:1034A00001963DD2CE0107963AD280915702909173
:1034B0005802892B11F022E301C027E360E374E096
:1034C000CE0101962D8765D267E376E0CE010196A5
:1034D0000E9482116BE474E00E946A112D85622FB4
:1034E0000E944C11BC0187E396E00E94F011CE01CE
:1034F000019615D267E376E0C80142D2C8012D9645
:103500000FB6F894DEBF0FBECDBFDF91CF911F91F4
:103510000F91FF90EF90DF90CF90BF90AF909F9072
:103520008F9008950895CF92DF92EF92FF920F93BC
:103530001F93CF93DF936C017A018B01C0E0D0E041
:10354000CE15DF0589F0D8016D918D01D601ED9181
:10355000FC910190F081E02DC6011995892B11F4A1
:103560007E0102C02196ECCFC701DF91CF911F9160
:103570000F91FF90EF90DF90CF900895FC01A0890C
:10358000B1898C91A689B78982FD0FC09C91818DEC
:103590008F5F8F73228D821749F0218DDF01A20F7B
:1035A000B11D5D969C93818F08958C910895FC01C7
:1035B000538D448D252F30E0842F90E0821B930B98
:1035C000541710F0CF96089501970895FC01918D3E
:1035D000828D981761F0828DDF01A80FB11D5D9675
:1035E0008C91928D9F5F9F73928F90E008958FEFE3
:1035F0009FEF0895FC01918D828D981731F0828D97
:10360000E80FF11D858D90E008958FEF9FEF0895ED
:10361000FC01918D228D892F90E0805C9F4F821B51
:1036200091098F73992708958CE497E0F1DF21E0E9
:10363000892B09F420E0822F089589EE97E0E8DFD6
:1036400021E0892B09F420E0822F0895FC01848D6C
:10365000DF01A80FB11DA35ABF4F2C91848D90E0BC
:1036600001968F739927848FA689B7892C93A08997
:10367000B1898C9180648C93938D848D981306C04E
:103680000288F389E02D80818F7D80830895EF92F9
:10369000FF920F931F93CF93DF93EC0181E0888F0C
:1036A0009B8D8C8D981305C0E889F989808185FDF3
:1036B00023C0F62E0B8D10E00F5F1F4F0F731127E5
:1036C000E02E8C8DE8120BC00FB607FCFACFE8890C
:1036D000F989808185FFF5CFCE01B8DFF2CF8B8DE0
:1036E000FE01E80FF11DE35AFF4FF0820B8FEA89CC
:1036F000FB898081806207C0EE89FF896083E88949
:10370000F98980818064808381E090E0DF91CF91AE
:103710001F910F91FF90EF900895CF93DF93EC01ED
:10372000888D8823C1F0EA89FB89808185FD05C0E9
:10373000A889B9898C9186FD0EC00FB607FCF5CF1C
:10374000808185FFF2CFA889B9898C9185FFEDCF63
:10375000CE017CDFE8CFDF91CF91089580E090E04B
:10376000892B19F06ADF811120C080E090E0892B5D
:1037700019F05ADF81111CC080E090E0892B41F0E4
:1037800080E090E0892B21F00E940000811113C09D
:1037900080E090E0892BA1F080E090E0892B81F01F
:1037A0000E94000081110AC008950E940000DDCF30
:1037B0000E940000E1CF0E940000EACF0C940000BC
:1037C000089590E0FC013197E231F10508F04EC018
:1037D0008827E357FF4F8F4F0C940037809180006C
:1037E0008F7703C0809180008F7D80938000089543
:1037F00080918000877FF9CF84B58F7702C084B530
:103800008F7D84BD08958091B0008F7703C0809133
:10381000B0008F7D8093B0000895809190008F77E5
:1038200007C0809190008F7D03C080919000877FBA
:103830008093900008958091A0008F7707C08091B9
:10384000A0008F7D03C08091A000877F8093A0009F
:103850000895809120018F7707C0809120018F7D8E
:1038600003C080912001877F8093200108950F93EA
:103870001F93CF93DF93EC0188819981009729F002
:103880002A813B812617370788F48B016F5F7F4FB2
:103890000E944F38009761F0998388831B830A83C5
:1038A0002C813D81232B11F4FC01108281E001C0A9
:1038B00080E0DF91CF911F910F910895CF93DF9317
:1038C000EC0188819981009711F00E94B737198225
:1038D00018821D821C821B821A82DF91CF9108956B
:1038E000EF92FF920F931F93CF93DF93EC017B0135
:1038F0008A01BA01BCDF811103C0CE01DFDF07C03E
:103900001D830C83B701888199810E944039CE01C3
:10391000DF91CF911F910F91FF90EF900895FC01DF
:10392000808191810C94B7370F931F93CF93DF93CE
:10393000CDB7DEB762970FB6F894DEBF0FBECDBF2E
:103940008C01CB01F8011182108213821282158240
:10395000148250E0BE016F5F7F4F0E946034BE0151
:103960006F5F7F4FC8010E94941162960FB6F89462
:10397000DEBF0FBECDBFDF91CF911F910F91089594
:10398000FC011182108213821282158214820C941F
:10399000F011FC01118210821382128215821482AE
:1039A0006115710549F0FB0101900020E9F731979D
:1039B000AF01461B570B94CF08951F920F920FB67D
:1039C0000F9211240BB60F922F933F934F935F9357
:1039D0006F937F938F939F93AF93BF93EF93FF93D7
:1039E0008CE497E033DEFF91EF91BF91AF919F910F
:1039F0008F917F916F915F914F913F912F910F9098
:103A00000BBE0F900FBE0F901F9018951F920F9234
:103A10000FB60F9211240BB60F922F933F934F9333
:103A20005F936F937F938F939F93AF93BF93EF9326
:103A3000FF938CE497E0A2DDFF91EF91BF91AF91EE
:103A40009F918F917F916F915F914F913F912F91B6
:103A50000F900BBE0F900FBE0F901F9018951F92E6
:103A60000F920FB60F9211240BB60F922F933F9324
:103A70004F935F936F937F938F939F93AF93BF9376
:103A8000EF93FF9389EE97E0E1DDFF91EF91BF9116
:103A9000AF919F918F917F916F915F914F913F91E6
:103AA0002F910F900BBE0F900FBE0F901F90189587
:103AB0001F920F920FB60F9211240BB60F922F93F5
:103AC0003F934F935F936F937F938F939F93AF93A6
:103AD000BF93EF93FF9389EE97E050DDFF91EF9155
:103AE000BF91AF919F918F917F916F915F914F9116
:103AF0003F912F910F900BBE0F900FBE0F901F9014
:103B00001895CF93DF93282F30E0F901E75FFD4F41
:103B10008491F901E155FD4FD491F901E759FD4F29
:103B2000C491CC2389F081114CDEEC2FF0E0EE0F34
:103B3000FF1FE15BFD4FA591B491EC91ED2381E076
:103B400090E021F480E002C080E090E0DF91CF912E
:103B500008951F93CF93DF93282F30E0F901E75F9B
:103B6000FD4F8491F901E155FD4FD491F901E759D9
:103B7000FD4FC491CC23C1F0162F811122DEEC2F12
:103B8000F0E0EE0FFF1FE758FE4FA591B4918FB7FD
:103B9000F894111105C09C91ED2FE095E92302C026
:103BA000EC91ED2BEC938FBFDF91CF911F91089596
:103BB000CF93DF9390E0FC01E155FD4F2491FC0190
:103BC000E759FD4F8491882361F190E0880F991F98
:103BD000FC01EA56FE4FC591D491FC01E758FE4F17
:103BE000A591B491611109C09FB7F894888120957F
:103BF00082238883EC912E230BC0623061F49FB73F
:103C0000F8943881822F809583238883EC912E2B22
:103C10002C939FBF06C08FB7F894E8812E2B288382
:103C20008FBFDF91CF9108951F93CF93DF93182F0C
:103C3000EB0161E0BDDF209711F460E004C0CF3FED
:103C4000D10531F461E0812FDF91CF911F9181CFB8
:103C5000E12FF0E0E75FFD4FE4914E2F50E0FA01D5
:103C60003197E231F10508F09DC08827E156FF4FFA
:103C70008F4F0C94003784B5806884BDC7BD97C052
:103C800084B5806284BDC8BD92C080918000806888
:103C900080938000D0938900C093880088C0809171
:103CA0008000806280938000D0938B00C0938A0054
:103CB0007EC080918000886080938000D0938D00CA
:103CC000C0938C0074C08091B00080688093B00075
:103CD000C093B3006CC08091B00080628093B0004C
:103CE000C093B40064C0809190008068809390007D
:103CF000D0939900C09398005AC080919000806240
:103D000080939000D0939B00C0939A0050C0809104
:103D10009000886080939000D0939D00C0939C0099
:103D200046C08091A00080688093A0008091A00090
:103D30008F7B8093A000D093A900C093A80037C0C8
:103D40008091A00080628093A000D093AB00C093CC
:103D5000AA002DC08091A00088608093A000D0931D
:103D6000AD00C093AC0023C0809120018068809397
:103D70002001D0932901C093280119C0809120010E
:103D8000806280932001D0932B01C0932A010FC041
:103D900080912001886080932001D0932D01C093F1
:103DA0002C0105C0C038D1050CF04CCF46CFDF91B7
:103DB000CF911F9108953FB7F8948091CD069091CF
:103DC000CE06A091CF06B091D00626B5A89B05C01F
:103DD0002F3F19F00196A11DB11D3FBFBA2FA92F8A
:103DE000982F8827820F911DA11DB11DBC01CD0107
:103DF00042E0660F771F881F991F4A95D1F70895F3
:103E00008F929F92AF92BF92CF92DF92EF92FF92EA
:103E10006B017C01D0DF4B015C01C114D104E104D2
:103E2000F104E9F0C8DFDC01CB0188199909AA097E
:103E3000BB09883E9340A105B10578F321E0C21A81
:103E4000D108E108F10888EE880E83E0981EA11CD5
:103E5000B11CC114D104E104F10421F7DECFFF90BD
:103E6000EF90DF90CF90BF90AF909F908F9008958C
:103E70002FB7F8946091C9067091CA068091CB065D
:103E80009091CC062FBF08956093B1067093B2064F
:103E90008093B3069093B406DC01CB01845D9E4F02
:103EA000AF4FBF4F8093C4069093C506A093C6063C
:103EB000B093C70682E090E09093C3068093C20659
:103EC000D7DF6093BE067093BF068093C0069093C1
:103ED000C10608951F920F920FB60F9211242F93CF
:103EE0003F938F939F93AF93BF938091C906909117
:103EF000CA06A091CB06B091CC063091C80623E04B
:103F0000230F2D3720F40196A11DB11D05C026E811
:103F1000230F0296A11DB11D2093C8068093C906E8
:103F20009093CA06A093CB06B093CC068091CD06A1
:103F30009091CE06A091CF06B091D0060196A11D1A
:103F4000B11D8093CD069093CE06A093CF06B0937B
:103F5000D006BF91AF919F918F913F912F910F907C
:103F60000FBE0F901F9018951F920F920FB60F92D1
:103F700011240BB60F922F933F934F935F936F9340
:103F80007F938F939F93AF93BF93EF93FF93809112
:103F90009308B7DD20919708309198082F5F3F4F25
:103FA000309398082093970890919608953618F0CA
:103FB00096E090939208909192089430C9F128F479
:103FC000923069F09330D1F05EC0953009F451C061
:103FD000963009F058C091E09093630951C0811167
:103FE00052C020919708309198082436310508F482
:103FF00042C010926309109296081CC0813009F0EB
:1040000042C0E091960891E09E0F90939608F0E0F0
:104010002091970830919808EE0FFF1FEE56F74F4A
:1040200030872783109298081092970894E029C04F
:10403000811117C0E091960891E09E0F9093960829
:10404000F0E02091970830919808EE0FFF1FEE5690
:10405000F74F30872783109298081092970893E0C3
:1040600010C020919708309198082536310558F0F6
:1040700007C0811108C0109298081092970803C0D9
:1040800095E090939208909195089923B1F0811151
:104090000AC080919408882321F08091940861E0FF
:1040A00009C02F9A0AC080919408882329F0809132
:1040B000940860E04EDD01C02F98FF91EF91BF9111
:1040C000AF919F918F917F916F915F914F913F91B0
:1040D0002F910F900BBE0F900FBE0F901F90189551
:1040E0001F920F920FB60F9211240BB60F922F93BF
:1040F0003F934F935F936F937F938F939F93EF9330
:10410000FF9340913E0750913F07609140077091A7
:104110004107411551056105710599F080910F0620
:10412000E0911006F0911106908189278083141682
:10413000150616061706D4F4415051096109710994
:1041400015C0809170008D7F8093700090910F0654
:10415000E0911006F09111068081282F30E0892F20
:1041600090E08095909582239323808340933E072F
:1041700050933F076093400770934107FF91EF9181
:104180009F918F917F916F915F914F913F912F916F
:104190000F900BBE0F900FBE0F901F9018951F929F
:1041A0000F920FB60F9211240BB60F922F933F93DD
:1041B0008F939F93AF93BF93EF93FF9380914207A9
:1041C00090914307A0914407B0914507892B8A2B12
:1041D0008B2B51F180911206E0911306F091140699
:1041E0009081892780838091420790914307A09115
:1041F0004407B0914507181619061A061B064CF518
:104200008091420790914307A0914407B0914507E0
:104210000197A109B1098093420790934307A093A6
:104220004407B093450715C080916F008D7F809340
:104230006F0090911206E0911306F09114068081B0
:10424000282F30E0892F90E080959095822393234A
:104250008083FF91EF91BF91AF919F918F913F919B
:104260002F910F900BBE0F900FBE0F901F901895BF
:104270001F920F920FB60F9211240BB60F922F932D
:104280003F938F939F93AF93BF93EF93FF9380914F
:10429000460790914707A0914807B0914907892B9D
:1042A0008A2B8B2B51F180911506E0911606F09127
:1042B0001706908189278083809146079091470750
:1042C000A0914807B0914907181619061A061B064F
:1042D0004CF58091460790914707A0914807B0910F
:1042E00049070197A109B1098093460790934707B1
:1042F000A0934807B093490715C080916E008D7F49
:1043000080936E0090911506E0911606F0911706C5
:104310008081282F30E0892F90E08095909582232E
:1043200093238083FF91EF91BF91AF919F918F91E4
:104330003F912F910F900BBE0F900FBE0F901F90CB
:1043400018953F924F925F926F927F928F929F92B9
:10435000AF92BF92CF92DF92EF92FF920F931F9393
:10436000CF93DF93382E962E842EF90184E6E8163B
:10437000F1042CF082EBE81A87E0F80A03C08EE122
:10438000E80EF11CE092BB060093BA06E093B90672
:104390003092B7069092B6068092B506AE2DB0E088
:1043A00020E833E341EE51E00E94E1352B013C016E
:1043B00022EB37E0FF2484E6C82ED12CC0E9D1E0FF
:1043C000C901825B97408E159F05DCF4C90183709B
:1043D0009927892B99F4C901B6010E94AF36892B20
:1043E00031F4C901BE010E94AF36892B39F480E84F
:1043F000480E81E5581E81E0681E711C2F5F3F4FFB
:10440000DFCF8EE4E81A88EFF80AC70164E670E0AF
:104410000E94AF366C01C70160E971E00E94AF36BF
:104420005C01C1E0D0E0112783E0E822FF24C0173F
:10443000D1072CF5C230D10589F4E114F10471F4EF
:10444000C114D10419F4A114B10441F480E8480E58
:104450008BE3581E86E2681E711C0FC0DE01A2525B
:10446000BC4FAC91B0E020E831E541E050E00E9463
:10447000E135460E571E681E791E2196D8CF292D8C
:1044800030E0ACE3B0E00E94EB356B017C01C80C7E
:10449000D11CE11CF11C232D30E0A0E1BEE00E9404
:1044A000EB35C60ED71EE81EF91EDF01BB2711979C
:1044B00020E831E541E050E00E940837DC01CB0103
:1044C0008C0D9D1DAE1DBF1DBC01CD01640D751D64
:1044D000861D971DDF91CF911F910F91FF90EF9057
:1044E000DF90CF90BF90AF909F908F907F906F9014
:1044F0005F904F903F90C8CCCF92DF92EF92FF92A7
:104500000F931F93B5DCC090BE06D090BF06E0901D
:10451000C006F090C1068B019C010C191D092E09E3
:104520003F098091B1069091B206A091B306B09177
:10453000B406083E134021053105D0F00196A11DB7
:10454000B11D8093B1069093B206A093B306B093C9
:10455000B406B701A60148515C4F6F4F7F4F40939F
:10456000BE065093BF066093C0067093C106CACFC3
:104570004091C4065091C5066091C6067091C70669
:1045800084179507A607B70780F1E091BC06F09164
:10459000BD06309751F11995611571058105910599
:1045A00011F072DC22C08091B1069091B206A09108
:1045B000B306B091B406845D9E4FAF4FBF4F80935A
:1045C000C4069093C506A093C606B093C70681E0C3
:1045D00090E02091C2063091C306232B11F480E0B5
:1045E00090E09093C3068093C2066091B1067091EB
:1045F000B2068091B3069091B4061F910F91FF907F
:10460000EF90DF90CF9008953F924F925F926F921C
:104610007F928F929F92AF92BF92CF92DF92EF9252
:10462000FF920F931F93CF93DF9300D01F92CDB7CC
:10463000DEB720914B0727FDA9C149835A836B83BD
:104640007C838C0161E080914A07B2DA30904B079D
:10465000832D8D7F4801A12CB12C09F0B7C060E0FB
:1046600072E18AE790E0A50194010E94E4362901F5
:104670003A0169017A0121E0C21AD108E108F10882
:104680008FEFC816D104E104F10409F008F44CC01E
:1046900060E472E48FE090E0A50194010E94E436AA
:1046A00069017A0191E0C91AD108E108F108A2E094
:1046B0003A1220C0BFEFCB16D104E104F10409F097
:1046C00008F462C160E970ED83E090E0A501940117
:1046D0000E94E43669017A01E1E0CE1AD108E108CE
:1046E000F108FFEFCF16D104E104F10409F0C0F5A1
:1046F00083E065C02FEFC216D104E104F104B1F0EC
:10470000A8F068E478EE81E090E0A50194010E94B1
:10471000E43669017A0181E0C81AD108E108F1089C
:10472000332009F4D9C027C181E001C082E03320E1
:1047300091F045C0D301C2012AE0B595A7959795A0
:1047400087952A95D1F76C017D01E1E0CE1AD10859
:10475000E108F10885E095B5987F892B85BD66C095
:1047600068E478EE81E090E0A50194010E94E436CF
:1047700069017A01B1E0CB1AD108E108F108EFEF45
:10478000CE16D104E104F10409F008F4A3C064E2F8
:1047900074EF80E090E0A50194010E94E436690185
:1047A0007A0191E0C91AD108E108F108AFEFCA1601
:1047B000D104E104F10411F008F0B0C085E090915B
:1047C000B100987F892B8093B10030C060E072E126
:1047D0008AE790E0A50194010E94E43669017A011C
:1047E000F1E0CF1AD108E108F108C114D10421E0A9
:1047F000E206F10488F068E478EE81E090E0A5013B
:1048000094010E94E43669017A0181E0C81AD10856
:10481000E108F10893E001C091E0A1E03A1206C07E
:1048200080918100887F892B8093810089819A8182
:10483000AB81BC81892B8A2B8B2B81F0D801AA0FED
:10484000BB1F29813A814B815C810E94E13528EEB2
:1048500033E040E050E00E94C23603C02FEF3FEF4C
:10486000A90191E03916A1F0A2E03A1619F1311030
:104870008DC0C7BC20934607309347074093480735
:104880005093490780916E00826080936E007EC0D5
:10489000D0928900C092880020934207309343074A
:1048A000409344075093450780916F008260809346
:1048B0006F006CC0C092B30020933E0730933F0757
:1048C000409340075093410780917000826080932D
:1048D00070005CC084E073CF8FEFC816D104E10490
:1048E000F104D1F0C8F062E17AE780E090E0A50140
:1048F00094010E94E43669017A01F1E0CF1AD108EF
:10490000E108F1082FEFC216D104E104F10411F01F
:1049100008F010CF84E01FCF83E01DCF62E17AE77B
:1049200080E090E0A50194010E94E43669017A01DB
:1049300091E0C91AD108E108F108AFEFCA16D10415
:10494000E104F104B1F0A8F0D301C2014AE0B59549
:10495000A795979587954A95D1F76C017D01E1E080
:10496000CE1AD108E108F108332009F4F3CE87E02C
:1049700026CF86E0DCCEBFEFCB16D104E104F104F4
:1049800009F060F684E0D3CE82E019CF0F900F904B
:104990000F900F90DF91CF911F910F91FF90EF90AB
:1049A000DF90CF90BF90AF909F908F907F906F904F
:1049B0005F904F903F900895009769F0FC0101903F
:1049C0000020E9F73197AF01481B590BBC0189EE74
:1049D00097E00C94931A80E090E008950F931F9352
:1049E000CF93DF938C01C0E0D0E0F801EC0FFD1F06
:1049F0006491662371F0E091E907F091EA07019074
:104A0000F081E02D89EE97E01995892B11F0219620
:104A1000ECCFCE01DF91CF911F910F910895CF93ED
:104A2000DF93DCDFEC018EE294E0C6DF8C0F9D1F8C
:104A3000DF91CF9108958F929F92AF92BF920F9383
:104A40001F93CF93DF93CDB7DEB7A1970FB6F8943E
:104A5000DEBF0FBECDBF19A2423008F44AE08E017E
:104A60000F5D1F4F842E912CA12CB12CA501940118
:104A70000E94C236E62FB901CA0101501109EA307D
:104A800014F4E05D01C0E95CD801EC93232B242BE6
:104A9000252B61F7C80190DFA1960FB6F894DEBF11
:104AA0000FBECDBFDF91CF911F910F91BF90AF90FF
:104AB0009F908F90089590911B079111FCCF8132A8
:104AC00008F080E291E090931B0790931A072FEF74
:104AD0002093190710921807280F20931707909317
:104AE000160790911607906D9093160790911507F1
:104AF000913061F410921507909116079093BB00C6
:104B00009091BC0093FDF8CF95EC01C095EE909389
:104B1000BC0090911B079130E1F390911807981712
:104B200010F480911807A5EFB6E02EE137E0F90107
:104B30009E2F921B981718F49D919193F9CF109284
:104B40001D0780931C0708952091F4069091F306A9
:104B5000213208F04AC080911B078111FCCF32E05E
:104B600030931B0731E030931A073FEF309319075A
:104B70001092180720931707A3EDB6E045EF56E013
:104B8000FA013E2F341B321718F43D913193F9CFBF
:104B90001092160720911607990F922B90931607E3
:104BA00090911507913061F41092150790911607B6
:104BB0009093BB009091BC0093FDF8CF95EC01C0A1
:104BC00095EE9093BC0090911B079230E1F3909189
:104BD00019079F3F79F080911907803241F0809149
:104BE0001907803331F084E005C081E003C082E022
:104BF00001C083E01092D2061092F4061092D10602
:104C000008958091B509E091B609F091B709F8943B
:104C10009181982B91832281982F9095292322832B
:104C2000A7E0B0E01197F1F7218192239183A3E2ED
:104C3000B0E01197F1F790817894EFECF0E03197C4
:104C4000F1F7982381E009F480E008959091B50987
:104C5000E091B609F091B709392F309580FF13C064
:104C6000F8942281832F822382838181892B8183FF
:104C7000A3E2B0E01197F1F78281982B92837894A8
:104C800087ED90E012C0F8942281832F82238283E3
:104C90008181892B8183AFEFB0E01197F1F7828199
:104CA000982B928378948FE090E00197F1F7089524
:104CB0000F931F93CF93DF93082FC8E0D0E011E04C
:104CC00081E0912F902309F480E0C0DF110F21973C
:104CD000B9F7F894E091B609F091B7099181809104
:104CE000B509809598239183E091B609F091B709B1
:104CF0009281892382837894DF91CF911F910F91C4
:104D000008959091B509E091B609F091B709F8942A
:104D10008181292F20958223818378948DE743E038
:104D200050E0815021F1DA011197F1F730813923F8
:104D3000C1F3F8948281822382838181892B8183CC
:104D40007894ABE7B7E01197F1F7F89481812823C5
:104D50002183A3E1B1E01197F1F78081982381E0ED
:104D600009F080E07894E3E6F6E03197F1F70895F2
:104D7000DF92EF92FF920F931F93CF93DF931F92D7
:104D80001F92CDB7DEB7F82E162F81E08093D106A3
:104D900088E68093F3061092D2061092F40660E043
:104DA00086E898E02A8349830E94CD128AE0D82EB3
:104DB0004981842F6D2D0E94A336692F30E1839F96
:104DC000600D112486E898E00E94CD12812F6D2D90
:104DD0000E94A336692F30E1839F600D112486E87D
:104DE00098E00E94CD128F2D6D2D0E94A336692F61
:104DF00030E1839F600D112486E898E00E94CD1277
:104E000061E086E898E00E94CD122A81822F6D2D04
:104E10000E94A336692F20E1829F600D112486E84D
:104E200098E00E94CD12802F6D2D0E94A336692F2D
:104E300030E1839F600D112486E898E00E94CD1236
:104E40008E2D6D2D0E94A336692F20E1829F600D6B
:104E5000112486E898E00E94CD1260E086E898E090
:104E60000E94CD120F900F90DF91CF911F910F9163
:104E7000FF90EF90DF9068CE0F931F93CF93DF9357
:104E8000CDB7DEB768970FB6F894DEBF0FBECDBFC3
:104E90008B01833071F52091B3093091B40942E060
:104EA00050E06FEA79E0CE010D960E94AB11B80197
:104EB000CE010196ECD4BE016F5F7F4FCE01079605
:104EC0000E94C01CBE01635F7F4FCE0107960E9407
:104ED0008211BC018FEA99E00E94F011CE01079681
:104EE0000E948F1CCE0101960E948F1CCE010D9650
:104EF00061C08C3099F42091B3093091B40944E039
:104F000050E06FEA79E0CE0143960E94AB11B80100
:104F1000CE010D96BCD422E030E01EC0803339F4BF
:104F20002091B3093091B40946E050E009C0803FB8
:104F300009F042C02091B3093091B40948E050E033
:104F40006FEA79E0CE0143960E94AB11B801CE0121
:104F50000D969DD424E030E040E050E06FEA79E027
:104F6000CE0101960E94AB11BE016F5F7F4FCE0153
:104F700007960E94C01CBE01635F7F4FCE0107965B
:104F80000E948211BE016D5E7F4F0E948211BC01A2
:104F90008FEA99E00E94F011CE0107960E948F1CC3
:104FA000CE0101960E948F1CCE010D960E948F1C8F
:104FB000CE0143960E948F1C68960FB6F894DEBF10
:104FC0000FBECDBFDF91CF911F910F910895EF924A
:104FD000FF920F931F93CF93DF93E82E92DE8CEC1A
:104FE00067DE84E465DE8DDE8CEC62DE8EEB60DEF7
:104FF00008E010E0D1E0C0E004DE8111CD2BDD0F30
:1050000001501109C9F708E010E0FF24F394D0E043
:10501000F8DD8111DF29FF0C01501109C9F76C2F50
:1050200070E07D2B6F3F8FEF780711F460E070E048
:10503000072E000C880B990B0E94B83420E030E05A
:1050400040E85DE30E941735EE2061F026E636E683
:1050500046EE5FE30E94173520E030E040E052E486
:105060000E94FB35DF91CF911F910F91FF90EF9040
:1050700008954F925F926F927F928F929F92AF921C
:10508000BF92CF92DF92EF92FF920F931F93CF9335
:10509000DF9300D000D0CDB7DEB77C014B015A01C1
:1050A00080910C0A882341F08091140A0EE11AE0E5
:1050B000A5E1BAE0F8014CC081E080930C0A10929F
:1050C0000B0A10920A0A8EE1682E8AE0782E95E18A
:1050D000492E9AE0592E00E010E00F5F1F4F680143
:1050E00081E0C81AD1089801A601B401CE01019649
:1050F0000E94AB11CE0101960E941311F30161933E
:105100003F01CE0101960E948F1C9801A601B501B6
:10511000CE0101960E94AB11CE0101960E9413119F
:10512000F20161932F01CE0101960E948F1C09307C
:10513000110599F6B9CF2C9192130DC090819A3038
:1051400009F41082319611969AE0E732F90731F0AE
:1051500090818A3080F79F5F9083F0CF8F5F84319A
:1051600019F08093140A04C01092140A10920C0AC9
:1051700060E374E0C7010E94C91CFE0131966F0113
:10518000F80181918F014AE0B60190E00E946A34F3
:10519000F60101900020E9F73197AF014C195D0944
:1051A000B601C7010E941E11FAE007321F0741F73E
:1051B000C70126960FB6F894DEBF0FBECDBFDF91B4
:1051C000CF911F910F91FF90EF90DF90CF90BF9004
:1051D000AF909F908F907F906F905F904F900895C9
:1051E00088E090E00E948F16682F70E089E00E94AE
:1051F000141E89E090E00E948F16682F70E086E010
:105200000E94141E8AE090E00E948F16682F70E0C2
:1052100083E00C94141E0F931F938091530290917E
:105220005402892B09F451C08091130A8823A9F0F4
:105230000E94381F00910F0A1091100A2091110A44
:105240003091120ADC01CB01801B910BA20BB30B36
:10525000893E9340A105B105A8F58091130A8111FB
:1052600034C00E949F1420914D0230914E0282174B
:10527000930759F50E94981420914F0230915002E3
:105280008217930711F50E949114209151023091D9
:10529000520282179307C9F40E94381F60930F0AC5
:1052A0007093100A8093110A9093120A81E0809300
:1052B000130A809108029091090290931A06809334
:1052C000190603C01092130AC8CF1F910F910895B9
:1052D0000E94381F6093060A7093070A8093080A99
:1052E0009093090A8091050A882309F44FC0209100
:1052F000030A3091040AC901880F991F2131310531
:1053000051F0FC01ED5CFD4F40815181415051094C
:10531000518340830AC040915502509156024C502F
:1053200051095093560240935502DC01AD5CBD4FCC
:105330006D917C911197FC01E55AFD4F408151819F
:10534000641775073CF4FC01ED57FD4F4081518116
:105350004D935C932031310571F4209153023091CB
:1053600054022130310521F420E82093330606C091
:105370001092330603C02930310541F0FC01ED5C89
:10538000FD4F608171818091340676CD08950E9431
:10539000381F6093060A7093070A8093080A909357
:1053A000090A8091050A882309F444C02091030A60
:1053B0003091040AC901880F991F2131310551F03C
:1053C000FC01ED5CFD4F408151814F5F5F4F518388
:1053D00040830AC04091550250915602445F5F4F8E
:1053E0005093560240935502DC01AD5CBD4F6D9168
:1053F0007C911197FC01ED57FD4F4081518146177B
:1054000057073CF4FC01E55AFD4F408151814D9313
:105410005C932031310519F41092330603C0293012
:10542000310541F0FC01ED5CFD4F6081718180919F
:10543000340622CD0895CF93DF93EC0101962881A5
:105440002A33D9F78981843639F51092020A1092ED
:10545000010A23964AE0FE018881219690ED980F7B
:105460002091010A3091020A9A3080F4429FB001E3
:10547000439F700D1124082E000C990BC097860FC6
:10548000971F9093020A8093010AE5CF1216130624
:1054900014F42093AE02EF01219688818F3689F4AF
:1054A0008A81082E000C990B9C01205331093093FE
:1054B000020A2093010AC397059710F42093AD02C6
:1054C00024968881823629F51092020A1092010AE8
:1054D000FE0132964AE0819190ED980F2091010AE9
:1054E0003091020A9A3080F4429FB001439F700DC0
:1054F0001124082E000C990BC097860F971F9093CC
:10550000020A8093010AE7CF3093AC022093AB02EA
:10551000EF012091AB023091AC02032E000C440B42
:10552000550B60E67AEE80E090E00E94E436DA0106
:10553000C90122E0880F991FAA1FBB1F2A95D1F726
:105540008093FD099093FE09A093FF09B093000A90
:10555000CE01DF91CF910895CF92DF92EF92FF922B
:105560001F93CF93DF93CDB7DEB72C970FB6F89488
:10557000DEBF0FBECDBF182F66E574E0CE010196E9
:105580000E94C91C133029F422E030E040E050E0D2
:1055900012C01C3029F424E030E042E050E00BC09F
:1055A000103319F426E030E004C0103FA9F428E0DD
:1055B00030E044E050E06FEA79E0CE0107960E94C7
:1055C000AB11BE01695F7F4FCE0101960E940712A9
:1055D000CE0107960E948F1CCE0101960E941311E6
:1055E0006B017C01CE0101960E948F1CC6012C9696
:1055F0000FB6F894DEBF0FBECDBFDF91CF911F91E4
:10560000FF90EF90DF90CF90089581E08093D106D6
:1056100088E68093F3061092D2061092F40660E0BA
:1056200086E898E00E94CD128FDA87E090E043DAB6
:1056300086E898E00E948212982F92959F708F7052
:105640002AE0929F800D112490E09093270680938A
:10565000260686E898E00E948212982F92959F7005
:105660008F702AE0929F800D112490E090931E0687
:1056700080931D0686E898E00E948212982F9695E6
:10568000969596959670292F220F220F920F8F7064
:10569000890F90E090931C0680931B0686E898E0A3
:1056A0000E948212982F92959F708F702AE0929F8D
:1056B000800D112490E090930E0A80930D0A86E8E5
:1056C00098E00E948212982F92959F708F702AE026
:1056D000929F800D112490E09093200680931F06E6
:1056E00086E898E00E948212982F92959F708F70A2
:1056F0002AE0929F800D112490E0909322068093DF
:10570000210686E898E00E948212982F92959F7059
:105710008F702AE0929F800D112490E08053984F63
:1057200090932406809323060895EF92FF920F939F
:105730001F93CF93DF93CDB7DEB762970FB6F89480
:10574000DEBF0FBECDBF7C018B0177FF03C011957B
:10575000019511094AE0B801C7010E94941C083E56
:1057600083E018070CF085C04AE0B801CE010D9621
:105770000E94941C6CE474E0CE0101960E94C91C46
:10578000BE016F5F7F4FCE0107960E94C01CBE0115
:10579000635F7F4FCE0107960E948211BC01C70153
:1057A0000E94F011CE0107960E948F1CCE01019637
:1057B0000E948F1CCE010D960E948F1C043611058D
:1057C0000CF057C04AE0B801CE010D960E94941C1F
:1057D0006BE474E0CE0101960E94C91CBE016F5FAC
:1057E0007F4FCE0107960E94C01CBE01635F7F4FB2
:1057F000CE0107960E948211BC01C7010E94F011E0
:10580000CE0107960E948F1CCE0101960E948F1C2C
:10581000CE010D960E948F1C0A30110554F54AE006
:10582000B801CE010D960E94941C6AE474E0CE018A
:1058300001960E94C91CBE016F5F7F4FCE01079683
:105840000E94C01CBE01635F7F4FCE0107960E947D
:105850008211BC01C7010E94F011CE0107960E947F
:105860008F1CCE0101960E948F1CCE010D960E94C6
:105870008F1CC70162960FB6F894DEBF0FBECDBF76
:10588000DF91CF911F910F91FF90EF9008950F93AB
:105890001F93CF93DF93CDB7DEB762970FB6F8941F
:1058A000DEBF0FBECDBF8C0177FF03C07195619540
:1058B00071094AE06A3071054CF5CE010D960E94DF
:1058C000941C6CE474E0CE0101960E94C91CBE01D8
:1058D0006F5F7F4FCE0107960E94C01CBE01635FC1
:1058E0007F4FCE0107960E948211BC01C8010E9421
:1058F000C01CCE0107960E948F1CCE0101960E940B
:105900008F1CCE010D960E948F1C03C0C8010E94FF
:10591000941CC80162960FB6F894DEBF0FBECDBFCF
:10592000DF91CF911F910F9108950F931F93CF9304
:10593000DF93CDB7DEB768970FB6F894DEBF0FBE22
:10594000CDBF8C018091550290915602489781F409
:105950000E949114BC01CE01439699DF0E949814D5
:10596000BC01CE010D9693DF0E949F14BC011DC0A7
:105970000E949114BC01CE01439689DF0E949814C5
:10598000BC01CE010D9683DF0E947C220E9487130A
:105990008091B706882339F0682F70E08D3028F0A9
:1059A0006C50710902C06CE070E0CE0101966FDFAF
:1059B000BE016F5F7F4FCE0107960E94C01CBE01E3
:1059C000635F7F4FCE0107960E948211BE016D5E1C
:1059D0007F4F0E948211BC01C8010E94C01CCE01F1
:1059E00007960E948F1CCE0101960E948F1CCE014B
:1059F0000D960E948F1CCE0143960E948F1CC801F9
:105A000068960FB6F894DEBF0FBECDBFDF91CF9181
:105A10001F910F910895CF92DF92EF92FF920F9313
:105A20001F93CF93DF93EC018B010E94381FCE8030
:105A3000DF80E884F984AB01BC014C195D096E0973
:105A40007F0988819981092E000CAA0BBB0B841752
:105A50009507A607B70718F48A85811129C08B8599
:105A60009C850817190719F481E08C8309C08C8183
:105A7000811103C080E090E027C00F3F1F4FD1F796
:105A80008D818F5F8D830E94381F6E837F8388870F
:105A9000998781E08A878D8190E02A813B818217F6
:105AA000930744F31C821D821A868FEF9FEF0CC070
:105AB0001A868D81823028F01C821D8281E090E060
:105AC00003C01C821D82D6CFDF91CF911F910F9111
:105AD000FF90EF90DF90CF9008958EBD00000DB441
