:100000000C94AB000C94D3000C94D3000C94D3004C
:100010000C94D3000C94D3000C94D3000C94521184
:100020000C94D3000C94D3000C94D3000C94AD1119
:100030000C94D3000C94D3000C9412120C94D300A3
:100040000C9408110C94D3000C948A0F0C94640F38
:100050000C94D3000C94D3000C94D3000C94D300D4
:100060000C94B8150C94D300970199018D018F0160
:10007000910193019501F108220A1C0B6E0BA00B54
:10008000F00BE20DE20DE20D250C4D0C4D0C4D0C6C
:10009000E20DE20DE20DE20DE20DA00BF00B496E58
:1000A000636F727265637420536F6E6720466F7260
:1000B0006D617421000000000800020100000304CB
:1000C00007000000000000000000000000250028DC
:1000D000002B0002010000000000240027002A007D
:1000E00053746F7020546573740054656D702E20C6
:1000F00073656E736F72206E6F7420666F756E64B9
:100100002E005374617274205465737400466972D2
:100110006D776172652076657273696F6E3A200043
:100120000000000023002600290004040404040445
:100130000404020202020202030303030303010296
:100140000408102040800102040810200102040865
:1001500010202E2C772711241FBECFEFD8E0DEBF52
:10016000CDBF27E0A8E2B4E001C01D92AE33B207D4
:10017000E1F714E0A0E0B1E0E8E2F4E602C00590A7
:100180000D92A832B107D9F710E0CAEAD0E004C056
:100190002197FE010E94D92FC93AD107C9F70E94C1
:1001A0007F270C9407320C9400008F929F92AF929D
:1001B000BF92CF92DF92EF92FF920F931F93CF9354
:1001C000DF93CDB7DEB7EC970FB6F894DEBF0FBE66
:1001D000CDBF0E94D51020E137E240E050E00E9400
:1001E000982F672B682B692B29F48091B705811113
:1001F0000C94A90C1092B8041092B7041092B60493
:100200001092B5041092B4041092B3040091AB059F
:100210001091AC05F8018081882309F432C10E9455
:10022000D510C0902E04D0902F04E0903004F090B0
:100230003104DC01CB018C199D09AE09BF09C090C6
:100240002A04D0902B04E0902C04F0902D04C816C2
:10025000D906EA06FB0608F014C10E94D5106B010E
:100260007C0160932E0470932F048093300490934C
:1002700031041092490510924805A8016AE08A01EC
:10028000FA01B0804F5F5F4F80ED8B0D20914805E4
:10029000309149058A3080F4629FF001639FF00D30
:1002A00011248B2DBB0C990BC0978E0F9F1F909321
:1002B000490580934805E3CF609144057091450559
:1002C00080914605909147052115310529F0032EAF
:1002D000000C440B550B05C02091090130E040E0B3
:1002E00050E00E94BA2F20932A0430932B044093AD
:1002F0002C0450932D048B2DBB0C990BAA0BBB0B1C
:10030000FC01E156F109E730F10520F4EC5CFF4F08
:100310000C94D92F109229040FC081E00BC083E008
:1003200009C085E007C086E005C088E003C08AE018
:1003300001C08CE080932904F8018181833219F097
:100340000F5F1F4F07C0809129048F5F809329049E
:100350000E5F1F4FF80180818E3201F580902A04D4
:1003600090902B04A0902C04B0902D04C501B401F2
:1003700022E030E040E050E00E94BA2FD501C401F5
:10038000820F931FA41FB51F80932A0490932B0400
:10039000A0932C04B0932D040F5F1F4FF8018081B0
:1003A00080538A3028F4809328040F5F1F4F04C0C5
:1003B000809108018093280480912804F80190819D
:1003C0009C3211F40F5F1F4F20912904222309F45E
:1003D00058C080902A0490902B04A0902C04B090D8
:1003E0002D0490E004973CE0389FF001399FF00D18
:1003F0001124E20FF11DEE0FFF1FE553FE4FB50173
:10040000A401808191810E9477210E94D510DC0196
:10041000CB018C199D09AE09BF0988169906AA0659
:10042000BB0678F50E94D51060932E0470932F04BC
:10043000809330049093310480911D06813051F0F7
:10044000823071F0811111C080916E008D7F809398
:100450006E000BC080916F008D7F80936F0005C090
:10046000809170008D7F8093700060E080911C0609
:100470000E94E50F8EE990E00E94712390E080E0F9
:1004800002C0902F812F9093AB058093AC050E9402
:10049000D5100091AF041091B0042091B1043091B7
:1004A000B204DC01CB01801B910BA20BB30B0697AE
:1004B000A105B10508F489C080910C01811110C01B
:1004C00060E070E089E00E94511060E070E086E03A
:1004D0000E94511060E070E083E00E9451106BC0F8
:1004E0008091BA05811167C00091340410913504E0
:1004F000C801880F991F800F911FFC01EE0FFF1F8D
:10050000E35DFD4F6091040170910501208131810F
:10051000620F731F7093050160930401FC01EE0FDD
:10052000FF1FE15DFD4FC090A404D090A504208181
:100530003181C20ED31ED092A504C092A404880FAC
:10054000991FFC01EF5CFD4FE090A204F090A30422
:1005500080819181E80EF91EF092A304E092A2043A
:1005600089E00E945110B60186E00E945110B70147
:1005700083E00E94511080913204909133040196DF
:1005800090933304809332048F3F910551F4C80156
:1005900001969093350480933404109233041092A2
:1005A00032048091340490913504069724F010921F
:1005B0003504109234040E94D5106093AF047093F8
:1005C000B0048093B1049093B20480914A05909155
:1005D0004B05892B21F08091AE048111D3C280910B
:1005E0004C058111CFC28091480481110DC00E9439
:1005F000D51060934404709345048093460490930F
:10060000470481E08093480480913C0481110DC02F
:100610000E94D510609338047093390480933A0493
:1006200090933B0481E080933C040E94D51000919C
:100630004404109145042091460430914704DC01A4
:10064000CB01801B910BA20BB30B00910001109109
:1006500001012091020130910301081719072A07AF
:100660003B0708F06FC00E94D5106093440470935C
:1006700045048093460490934704809136049091FA
:100680003704009799F481E090E090934B058093B4
:100690004A0588E893E1A0E0B0E0809300019093E0
:1006A0000101A0930201B09303011EC00197E1F480
:1006B00084E090E090934B0580934A0588E893E1AD
:1006C000A0E0B0E08093000190930101A0930201AB
:1006D000B09303018091AA05811106C082E090E0E9
:1006E00090933704809336048091360490913704B8
:1006F0008230910581F410924B0510924A0540E634
:100700005AEE60E070E04093000150930101609365
:100710000201709303010196833091052CF49093AC
:1007200037048093360404C01092370410923604C4
:100730008091AE04882321F010924B0510924A0557
:100740001092AE040E94D51000914404109145040B
:100750002091460430914704DC01CB01801B910BB2
:10076000A20BB30B803D9740A105B10508F008C26C
:100770000E94D510009138041091390420913A0458
:1007800030913B04DC01CB01801B910BA20BB30B1E
:1007900085369105A105B10508F4F4C10E94D51074
:1007A000609338047093390480933A0490933B0427
:1007B0002091AA0580914A0590914B05222309F4C6
:1007C00010C1892B89F5CE0149960E94FC2681E053
:1007D0002091590130915A01232B09F480E00E94A5
:1007E000EA1CAB01BC01CE0101960E94F01AAE01D9
:1007F000475E5F4FBE016F5F7F4FCE014F960E94F5
:10080000441DBE01615E7F4F82E197E00E94782027
:10081000CE014F960E944621CE0101960E944621AC
:10082000CE0149960E94462180914A0590914B0540
:10083000019709F062C00E94D01468EE73E00E9434
:10084000842FBC01CE018B960E94AE260E94DA1442
:10085000BC01CE0185960E94AE260E94E214BC0126
:10086000CE0149960E94AE26BE01675E7F4FCE0143
:100870004F960E94460FBE016B5D7F4FCE014F9693
:100880000E946520BE01655D7F4F0E946520BC010E
:10089000CE01C1960E94460FCE0101960E94FC2611
:1008A000AE014F5C5F4FBE016F5F7F4FCE01C796B9
:1008B0000E94441DBE01695C7F4F82E197E00E9467
:1008C0007820CE01C7960E944621CE0101960E9453
:1008D0004621CE01C1960E944621CE014F960E942C
:1008E0004621CE0149960E944621CE0185960E945E
:1008F0004621CE018B960E94462180914A05909117
:100900004B05049709F03EC181E0209159013091D7
:100910005A01232B09F480E00E94EA1CAB01BC01C0
:10092000CE01C1960E94F01A0E94D01468EE73E0C6
:100930000E94842FBC01CE0185960E94AE260E94A3
:10094000DA14BC01CE014F960E94AE260E94E2143A
:10095000BC01CE0101960E94AE26BE016F5F7F4FA3
:10096000CE0149960E94460FBE01615E7F4FCE01C7
:1009700049960E946520BE016B5D7F4F0E946520F5
:10098000BC01CE018B960E94460FAE014F5C5F4FBB
:10099000BE01655D7F4FCE01C7960E94441DBE011A
:1009A000695C7F4F82E197E00E947820CE01C79674
:1009B0000E944621CE018B960E944621CE01499687
:1009C0000E944621CE0101960E944621CE014F96FB
:1009D0000E944621CE0185960E944621CE01C196F5
:1009E000CCC0892B09F062C0CE01C1960E94FC26C2
:1009F0000E94D01468EE73E00E94842FBC01CE01E7
:100A000085960E94AE260E94DA14BC01CE014F9654
:100A10000E94AE260E94E214BC01CE0101960E9403
:100A2000AE26BE016F5F7F4FCE0149960E94460FF2
:100A3000BE01615E7F4FCE0149960E946520BE01D6
:100A40006B5D7F4F0E946520BC01CE018B960E949A
:100A5000460FAE014F5C5F4FBE01655D7F4FCE011B
:100A6000C7960E94441DBE01695C7F4F82E197E0FA
:100A70000E947820CE01C7960E944621CE018B9617
:100A80000E944621CE0149960E944621CE01019640
:100A90000E944621CE014F960E944621CE018596A6
:100AA0000E944621CE01C1960E94462180914A05AE
:100AB00090914B05019709F065C00E94D01468EE33
:100AC00073E00E94842FBC01CE018B960E94AE265B
:100AD0000E94DA14BC01CE0185960E94AE260E94C7
:100AE000E214BC01CE0149960E94AE26BE01675EAB
:100AF0007F4FCE014F960E94460FBE016B5D7F4F28
:100B0000CE014F960E946520BE01655D7F4F0E9419
:100B10006520BC01CE01C1960E94460FCE01019610
:100B20000E94FC26AE014F5C5F4FBE016F5F7F4F9E
:100B3000CE01C7960E94441DBE01695C7F4F82E1D1
:100B400097E00E947820CE01C7960E944621CE01F0
:100B500001960E944621CE01C1960E944621CE01F7
:100B60004F960E944621CE0149960E944621CE0111
:100B700085960E944621CE018B960E94462102C096
:100B8000109253050E94C71889EF96E00E94021543
:100B900080EE96E00E94021587EC96E00E94021516
:100BA00080914C05811103C0109255052DC00E9403
:100BB000D51000914D0510914E0520914F053091B3
:100BC0005005DC01CB01801B910BA20BB30B8136CE
:100BD0009A4EA105B105C0F010924C05E0914A056E
:100BE000F0914B05EE0FFF1FEF55FD4F8081918176
:100BF00090934B0580934A05880F991FFC01E35F92
:100C0000FE4F8081809355058091F9069091FA06F8
:100C1000181619063CF08091B7049091B80401971A
:100C200009F0A5C081E08093AE041092AC0510924B
:100C3000AB0544E650E060E070E088EE93E00E948F
:100C400077210E94D51060934D0570934E058093D7
:100C50004F059093500580914A0590914B059C015A
:100C60002F5F3F4F2530310529F030934B052093FE
:100C70004A0505C0029690934B0580934A058091E2
:100C80004A0590914B05069721F410924B0510925E
:100C90004A0520914A0530914B058901000F111F2B
:100CA000F801E35FFE4F808180935505D9011197CC
:100CB000FD01EE0FFF1FE758FD4F60817181611547
:100CC000710509F445C0AB0141505109FA01EE0F1D
:100CD000FF1FEF5AFD4F0190F081E02DEA17FB074F
:100CE000B9F56230710509F052C688E1E3EBF1E035
:100CF000DE01119601900D928A95E1F780914D01E8
:100D000090914E0183709927892B21F48DE190E019
:100D10009C838B832091490130914A01E0914B01E2
:100D2000F0914C013197EE0FFF1F81E090E08C0FA6
:100D30009D1FE80FF91F80819181821793070CF0A6
:100D400026C68AE090E090934B0580934A053AC707
:100D50002331310561F0295031092230310538F055
:100D60000E94D024F801EB5CFE4F91838083809138
:100D7000F9069091FA0697FD07C08091B70490910B
:100D8000B804019609F008C144E650E060E070E064
:100D900088EE93E00E94772180914C05811152C02A
:100DA0000E94D51060934D0570934E0580934F05BA
:100DB0009093500580914A0590914B05892B09F03D
:100DC00041C00E94EA14BC01CE0185960E94AE2665
:100DD0000E94F214BC01CE014F960E94AE260E94E2
:100DE000FA14BC01CE0101960E94AE26BE016F5FCF
:100DF0007F4FCE0149960E94460FBE01615E7F4F34
:100E0000CE0149960E946520BE016B5D7F4F0E9416
:100E1000652064E173E00E944C20BC0182E197E010
:100E20000E942F21CE0149960E944621CE010196B3
:100E30000E944621CE014F960E944621CE01859602
:100E40000E94462180914A0590914B05019709F037
:100E50006AC00E94E21490934A01809349010E9463
:100E6000DA1490934C0180934B010E94D01468EEE9
:100E700073E00E94842FBC0190934E0180934D013A
:100E80008091470190914801892B89F4CE01859684
:100E90000E94AE2660914B0170914C01CE014F969D
:100EA0000E94AE266091490170914A0110C0CE01A6
:100EB00085960E94AE266091490170914A01CE014B
:100EC0004F960E94AE2660914B0170914C01CE016D
:100ED00001960E94AE26BE016F5F7F4FCE014996FC
:100EE0000E94460FBE01615E7F4FCE0149960E946F
:100EF0006520BE016B5D7F4F0E946520BC0182E1D1
:100F000097E00E942F21CE0149960E944621CE01F2
:100F100001960E944621CE014F960E944621CE01A5
:100F200085960E944621E0914A05F0914B05EE0F0F
:100F3000FF1FEF55FD4F2081318130934B052093EA
:100F40004A052D30310549F481E090E09093560137
:100F50008093550180E88093540590914C0581E081
:100F6000892780934C058901000F111FF801E35F69
:100F7000FE4F808180935505A901425151094230AD
:100F8000510550F02930310539F00E94D024F80184
:100F9000EB5CFE4F918380838091E0069091E106A7
:100FA000009739F48091B5049091B604019721F52A
:100FB00007C09093AD048093AC041816190694F7FB
:100FC00081E08093AE041092AC051092AB0544E62C
:100FD00050E060E070E088EE93E00E9477210E948C
:100FE000D41E80914C05811107C01092BA0560E0B3
:100FF00087E090E00E94C3188091AC049091AD040A
:10100000019661F58091E206882341F1109257051F
:1010100080914C05882329F10E94D5100091A804E5
:101020001091A9042091AA043091AB04DC01CB01FA
:10103000801B910BA20BB30B87399105A105B1055C
:1010400080F00E94D5106093A8047093A904809347
:10105000AA049093AB040E94D41E03C081E0809345
:1010600057058091C7069091C806009739F4809182
:10107000B3049091B4040197B1F507C09093A7040D
:101080008093A6041816190694F711E01093AE0485
:101090001092AC051092AB0544E650E060E070E0C1
:1010A00088EE93E00E9477210E94741E80914C0587
:1010B000811119C01093BA0561E087E090E00E94A9
:1010C000C3186091040188E090E00E94C318609109
:1010D000A40489E090E00E94C3186091A2048AE011
:1010E00090E00E94C3188091A6049091A7040196F5
:1010F00061F58091C906882341F1109256058091CF
:101100004C05882329F10E94D51000919E0410916E
:101110009F042091A0043091A104DC01CB01801B2D
:10112000910BA20BB30B87399105A105B10580F096
:101130000E94D51060939E0470939F048093A00436
:101140009093A1040E94741E03C081E08093560511
:1011500080914C05811139C08091E0069091E106A3
:1011600097FD06C08091B5049091B604019691F464
:1011700044E650E060E070E088EE93E00E94772162
:1011800081E080930C0161E080E090E00E94C31850
:101190000E94FC1D8091C7069091C80697FD06C06D
:1011A0008091B3049091B404019679F444E650E040
:1011B00060E070E088EE93E00E94772110920C01CD
:1011C00060E080E090E00E94C318E0914A05F09151
:1011D0004B05E431F10508F0F5C4E55CFF4F0C94D4
:1011E000D92F809153058111EFC00E94D510009135
:1011F0006A0410916B0420916C0430916D04DC0141
:10120000CB01801B910BA20BB30B893E9340A10530
:10121000B10508F4C8C00E94D51060936A047093A9
:101220006B0480936C0490936D0481E020915901CC
:1012300030915A01232B09F480E00E94EA1C6B01D3
:101240007C0180916204811113C00E94D510DC01E1
:10125000CB01845B9B4FAF4FBF4F80935E04909355
:101260005F04A0936004B093610481E08093620402
:1012700080915604811109C060E373E080E594E039
:101280000E944F0F81E0809356040E94D510009178
:101290005E0410915F042091600430916104DC01D0
:1012A000CB01801B910BA20BB30B893E9340A10590
:1012B000B10508F44EC00E94D51060935E0470938F
:1012C0005F04809360049093610480915901909130
:1012D0005A01892B11F012E301C017E320E030E03E
:1012E000A901C701B6010E94732F20E030E040E061
:1012F0005FE387FD05C0C701B6010E94D12E04C07F
:10130000C701B6010E94D02E0E943D2F24E630E096
:1013100040E050E00E94BA2FCE0149960E94AE26CE
:10132000BE01675E7F4FCE0101960E94460F612F7E
:10133000CE0101960E942E20BC0180E594E00E941F
:101340002F21CE0101960E944621CE0149960E948E
:10135000462160E574E0CE0101960E94460FCE0161
:101360004F960E94FC26BE01615E7F4FCE014996DA
:101370000E94460FBE016F5F7F4FCE0149960E94CB
:101380006520BC01CE0185960E94460FCE0149968C
:101390000E944621CE014F960E944621CE01019621
:1013A0000E94462106C062E177E0CE0185960E9448
:1013B000460FBE016B5D7F4F82E197E00E9478206F
:1013C000CE0185960E9446218091730481110DC043
:1013D0000E94D51060936F04709370048093710421
:1013E0009093720481E0809373040E94D510009161
:1013F0006F04109170042091710430917204DC012B
:10140000CB01801B910BA20BB30B893E9340A1052E
:10141000B10508F40AC10E94D51060936F0470935F
:101420007004809371049093720490916E0481E033
:10143000892780936E04882311F080ECF4C0109209
:101440005405F3C0809153058111ECC0809196043E
:10145000811113C00E94D510DC01CB0187519C4F34
:10146000AF4FBF4F8093920490939304A093940442
:10147000B093950481E08093960480918A04811151
:1014800044C00E94D01468EE73E00E94842FBC0117
:10149000CE0101960E94AE260E94DA14BC01CE0154
:1014A00049960E94AE260E94E214BC01CE018596A8
:1014B0000E94AE26BE016B5D7F4FCE014F960E940B
:1014C000460FBE01675E7F4FCE014F960E9465209A
:1014D000BE016F5F7F4F0E946520BC0184E894E0ED
:1014E0000E94460F81E080938A04CE014F960E94AD
:1014F0004621CE0185960E944621CE0149960E9442
:101500004621CE0101960E94462180917C048111E2
:1015100007C08091470180937B0481E080937C0425
:101520000E94D5100091920410919304209194048C
:1015300030919504DC01CB01801B910BA20BB30B06
:10154000893E9340A105B10558F480917B0490E059
:1015500020914701309148018217930709F451C047
:101560000E94D51060939204709393048093940426
:10157000909395048091470190914801892B09F03F
:1015800010C30E94D014BC01CE0101960E94AE2669
:101590000E94DA14BC01CE0149960E94AE260E9438
:1015A000E214BC01CE0185960E94AE26BE016B5DA1
:1015B0007F4FCE014F960E94460FBE01675E7F4F60
:1015C000CE014F960E946520BE016F5F7F4F0E9443
:1015D000652069E30E942E20BC0184E894E00E940B
:1015E0002F21CE014F960E944621CE0185960E9462
:1015F0004621CE0149960E944621CE0101960E94C5
:10160000462164E874E0CE0101960E94460FBE01B7
:101610006F5F7F4F82E197E00E947820CE010196B4
:101620000E94462180E4809354050E94171E109268
:10163000520510925105C6C2609153017091540138
:10164000CE0185960E94AE266091510170915201A3
:10165000CE014F960E94AE2660914F0170915001CD
:10166000CE0101960E94AE26BE016F5F7F4FCE0174
:1016700049960E94460FBE01615E7F4FCE0149969A
:101680000E946520BE016B5D7F4F0E94652064E172
:1016900073E00E944C20BC0182E197E00E942F2160
:1016A000CE0149960E944621CE0101960E94462114
:1016B000CE014F960E944621CE0185960E9446217A
:1016C000109252051092510580915501909156014A
:1016D000019789F580E8809354052FC060915701E8
:1016E000709158014AE0CE0149960E944B216DE469
:1016F00073E0CE0101960E944F0FBE01675E7F4FDF
:10170000CE0101960E94652062E173E00E944C20A8
:10171000BC0182E197E00E942F21CE0101960E9438
:101720004621CE0149960E94462183E390E09093A2
:10173000520580935105109254050E94171E42C213
:1017400080915305811133C081E02091590130917E
:101750005A01232B09F480E00E94EA1CAB01BC0172
:10176000CE0101960E94F01ABE016F5F7F4F82E1A9
:1017700097E00E947820CE0101960E944621809138
:10178000590190915A01892B51F481E390E0909393
:1017900052058093510580E48093540508C083E28C
:1017A00090E090935205809351051092540581E08A
:1017B0002091590130915A01232B09F480E00E94B5
:1017C000EA1C20E030E0A9010E94452D90915405CB
:1017D00087FF02C0906801C09F7790935405F2C1C3
:1017E00060915B0170915C01CE0101960E94AE2672
:1017F000BE016F5F7F4FCE0149960E94460F60E1A8
:1018000073E0CE0149960E944C20BC0182E197E032
:101810000E942F21CE0149960E944621CE010196B9
:101820000E9446218FE090E09093520580935105ED
:1018300080915B0190915C0197FD03C0109254056B
:10184000C1C180E880935405BDC18091470190914A
:101850004801892B79F468E173E082E197E00E9406
:10186000D22083E090E090932201809321018CE0CC
:1018700090E00EC062E273E082E197E00E94D22025
:101880008CE090E0909322018093210183E090E02E
:10189000909324018093230195C1809147019091F9
:1018A000480160914D0170914E01892B89F4CE0160
:1018B00085960E94FC2560914B0170914C01CE01F0
:1018C0004F960E94AE266091490170914A0110C066
:1018D000CE0185960E94FC256091490170914A01D4
:1018E000CE014F960E94AE2660914B0170914C0143
:1018F000CE0101960E94AE26BE016F5F7F4FCE01E2
:1019000049960E94460FBE01615E7F4FCE01499607
:101910000E946520BE016B5D7F4F0E94652066E1DD
:1019200073E00E944C20BC0182E197E00E942F21CD
:10193000CE0149960E944621CE0101960E94462181
:10194000CE014F960E944621CE0185960E944621E7
:1019500039C10E942925E090B505F090B6050091A7
:10196000B3051091B4052091B1053091B2054091B5
:10197000B8055091B9056091AF057091B00580919F
:10198000AD059091AE050E9477120C94FA0010926A
:101990004C0550934B0540934A05452BB9F40E94E2
:1019A000D0147C010E94DA148C010E94E2149C0184
:1019B000409145015091460160914301709144016D
:1019C00080914101909142010E94771280914A05D5
:1019D00090914B050197F9F4E0904D01F0904E0184
:1019E00000914B0110914C018090490190904A0167
:1019F0000E94EA145C010E94F2146C010E94FA1425
:101A00009401A501B6010E947712609147018DE013
:101A100090E00E94C31880914A0590914B0502976F
:101A2000C1F460914F0182E090E00E94C318609180
:101A3000510183E090E00E94C3186091530184E05B
:101A400090E00E94C3186091550186E090E00E94EA
:101A5000C31880914A0590914B05039731F460912A
:101A6000570181E090E00E94C31880914A0590914F
:101A70004B05049731F4609159018BE090E00E948E
:101A8000C31880914A0590914B05059749F46091E0
:101A90005B0180918301681B8CE090E00E94C31879
:101AA0000E94D01468EE73E00E94842F082F0E94D9
:101AB000DA14F82E0E94E214E82E0E94EA14B82EDE
:101AC0000E94F214C82E0E94FA14D82E81E080934E
:101AD000EC0588E680930E061092ED0510920F0635
:101AE00060E08BEB96E00E945E171AE08B2D612F71
:101AF0000E94782F692FE0E18E9F600D11248BEBFF
:101B000096E00E945E178C2D612F0E94782F692F1E
:101B1000F0E18F9F600D11248BEB96E00E945E1721
:101B20008D2D612F0E94782F692F20E1829F600DFB
:101B300011248BEB96E00E945E1761E08BEB96E040
:101B40000E945E178E2D612F0E94782F692FE0E191
:101B50008E9F600D11248BEB96E00E945E178F2DF7
:101B6000612F0E94782F692FF0E18F9F600D112463
:101B70008BEB96E00E945E17802F612F0E94782FDA
:101B8000692F20E1829F600D11248BEB96E00E946B
:101B90005E1760E08BEB96E00E945E170E94732454
:101BA00011C00E94D014BC01CE0101960E94AE2645
:101BB0000E94E214BC01CE0149960E94AE260E940A
:101BC000DA14EFCCEC960FB6F894DEBF0FBECDBFA3
:101BD000DF91CF911F910F91FF90EF90DF90CF9009
:101BE000BF90AF909F908F9008958EBD00000DB470
:101BF00007FEFDCF8EB508950895CF92DF92EF9244
:101C0000FF920F931F93CF93DF936C017A018B01A7
:101C1000C0E0D0E0CE15DF0589F0D8016D918D01CF
:101C2000D601ED91FC910190F081E02DC60109955E
:101C3000892B11F47E0102C02196ECCFC701DF9100
:101C4000CF911F910F91FF90EF90DF90CF9008956B
:101C5000FC01538D448D252F30E0842F90E0821BB2
:101C6000930B541710F0CF96089501970895FC0137
:101C7000918D828D981761F0828DDF01A80FB11DC3
:101C80005D968C91928D9F5F9F73928F90E00895E7
:101C90008FEF9FEF0895FC01918D828D981731F0A1
:101CA000828DE80FF11D858D90E008958FEF9FEFF5
:101CB0000895FC01918D228D892F90E0805C9F4FCB
:101CC000821B91098F73992708958EE196E00E94F7
:101CD000590E21E0892B09F420E0822F0895FC01A0
:101CE000848DDF01A80FB11DA35ABF4F2C91848DA5
:101CF00090E001968F739927848FA689B7892C93DA
:101D0000A089B1898C9180648C93938D848D981374
:101D100006C00288F389E02D80818F7D808308953D
:101D2000EF92FF920F931F93CF93DF93EC0181E02B
:101D3000888F9B8D8C8D981305C0E889F9898081E7
:101D400085FD24C0F62E0B8D10E00F5F1F4F0F7323
:101D50001127E02E8C8DE8120CC00FB607FCFACFCD
:101D6000E889F989808185FFF5CFCE010E946F0E49
:101D7000F1CF8B8DFE01E80FF11DE35AFF4FF0828A
:101D80000B8FEA89FB898081806207C0EE89FF8919
:101D90006083E889F98980818064808381E090E0B4
:101DA000DF91CF911F910F91FF90EF900895CF9306
:101DB000DF93EC01888D8823C9F0EA89FB89808153
:101DC00085FD05C0A889B9898C9186FD0FC00FB625
:101DD00007FCF5CF808185FFF2CFA889B9898C9166
:101DE00085FFEDCFCE010E946F0EE7CFDF91CF913F
:101DF000089580E090E0892B29F00E94650E811102
:101E00000C9400000895833081F028F4813099F01B
:101E10008230A1F008958730A9F08830B9F084307D
:101E2000D1F4809180008F7D03C0809180008F77F6
:101E300080938000089584B58F7702C084B58F7D2C
:101E400084BD08958091B0008F7703C08091B00069
:101E50008F7D8093B000089585ED8093BC008091C4
:101E6000BC0084FDFCCF1092EB0508950895E0912D
:101E7000A00580919F05E81730F4F0E0E754FB4F90
:101E8000808190E008958FEF9FEF0895FC0111820B
:101E9000108213821282158214820C942F21FC016D
:101EA00011821082138212821582148261157105CB
:101EB00051F0FB0101900020E9F73197AF01461B7B
:101EC000570B0C94B12008951F920F920FB60F92EA
:101ED00011242F933F934F935F936F937F938F932F
:101EE0009F93AF93BF93EF93FF938EE196E00E9491
:101EF0006F0EFF91EF91BF91AF919F918F917F9165
:101F00006F915F914F913F912F910F900FBE0F9066
:101F10001F9018951F920F920FB60F9211242F93B6
:101F20008F939F93EF93FF93E0912E06F0912F06EE
:101F30008081E0913406F091350682FD12C09081D7
:101F4000809137068F5F8F7320913806821751F08A
:101F5000E0913706F0E0E25EF94F958F8093370607
:101F600001C08081FF91EF919F918F912F910F90F0
:101F70000FBE0F901F901895CF93DF93282F30E05E
:101F8000F901EB54FF4F8491F901E25CFE4FD491CB
:101F9000F901E65DFE4FC491CC2391F081110E94BE
:101FA000030FEC2FF0E0EE0FFF1FE05EFE4FA59158
:101FB000B491EC91ED2381E090E021F480E002C047
:101FC00080E090E0DF91CF9108951F93CF93DF934E
:101FD000282F30E0F901EB54FF4F8491F901E25CC6
:101FE000FE4FD491F901E65DFE4FC491CC23C9F0B8
:101FF000162F81110E94030FEC2FF0E0EE0FFF1F50
:10200000E753FF4FA591B4918FB7F894111105C014
:102010009C91ED2FE095E92302C0EC91ED2BEC9320
:102020008FBFDF91CF911F910895CF93DF9390E001
:10203000FC01E25CFE4F2491FC01E65DFE4F8491C1
:10204000882361F190E0880F991FFC01EA52FF4F4D
:10205000C591D491FC01E753FF4FA591B491611153
:1020600009C09FB7F8948881209582238883EC91DA
:102070002E230BC0623061F49FB7F8943881822F11
:10208000809583238883EC912E2B2C939FBF06C0D1
:102090008FB7F894E8812E2B28838FBFDF91CF91E3
:1020A00008951F93CF93DF93182FEB0161E00E94F7
:1020B0001510209711F460E004C0CF3FD10539F42A
:1020C00061E0812FDF91CF911F910C94E50FE12FFB
:1020D000F0E0EB54FF4FE491E330F9F048F4E130E5
:1020E000B9F0E230A1F584B5806284BDC8BD34C0CA
:1020F000E730E9F0E83019F1E43049F580918000EB
:10210000806280938000D0938B00C0938A0024C0AB
:1021100084B5806884BDC7BD1FC080918000806881
:1021200080938000D0938900C093880015C080916F
:10213000B00080688093B000C093B3000DC0809160
:10214000B00080628093B000C093B40005C0C03876
:10215000D1050CF0B5CFAFCFDF91CF911F9108958E
:102160003FB7F8948091400590914105A0914205B8
:10217000B091430526B5A89B05C02F3F19F00196E5
:10218000A11DB11D3FBFBA2FA92F982F8827820FFD
:10219000911DA11DB11DBC01CD0142E0660F771F4D
:1021A000881F991F4A95D1F708952FB7F894609129
:1021B0003C0570913D0580913E0590913F052FBFF4
:1021C000089560933705709338058093390590938F
:1021D0003A05DC01CB01845D9E4FAF4FBF4F80932A
:1021E000330590933405A0933505B093360582E00E
:1021F00090E090933205809331050E94D510609352
:102200002D0570932E0580932F059093300508952A
:102210001F920F920FB60F9211242F933F938F931B
:102220009F93AF93BF9380913C0590913D05A09102
:102230003E05B0913F0530913B0523E0230F2D373C
:1022400020F40196A11DB11D05C026E8230F0296BA
:10225000A11DB11D20933B0580933C0590933D0546
:10226000A0933E05B0933F058091400590914105B4
:10227000A0914205B09143050196A11DB11D809327
:10228000400590934105A0934205B0934305BF914B
:10229000AF919F918F913F912F910F900FBE0F9013
:1022A0001F9018951F920F920FB60F9211242F9323
:1022B0003F934F935F936F937F938F939F93EF938E
:1022C000FF93409110065091110660911206709193
:1022D0001306411551056105710599F08091A1051D
:1022E000E091A205F091A3059081892780831416BF
:1022F000150616061706D4F44150510961097109F3
:1023000015C0809170008D7F809370009091A10521
:10231000E091A205F091A3058081282F30E0892F5C
:1023200090E08095909582239323808340931006BC
:10233000509311066093120670931306FF91EF916C
:102340009F918F917F916F915F914F913F912F91CD
:102350000F900FBE0F901F9018951F920F920FB6FF
:102360000F9211242F933F938F939F93AF93BF931B
:10237000EF93FF938091140690911506A091160695
:10238000B0911706892B8A2B8B2B51F18091A405D4
:10239000E091A505F091A605908189278083809121
:1023A000140690911506A0911606B09117061816FE
:1023B00019061A061B064CF5809114069091150615
:1023C000A0911606B09117060197A109B109809353
:1023D000140690931506A0931606B093170615C021
:1023E00080916F008D7F80936F009091A405E091A4
:1023F000A505F091A6058081282F30E0892F90E077
:1024000080959095822393238083FF91EF91BF91D4
:10241000AF919F918F913F912F910F900FBE0F9091
:102420001F9018951F920F920FB60F9211242F93A1
:102430003F938F939F93AF93BF93EF93FF938091BD
:10244000180690911906A0911A06B0911B06892BC7
:102450008A2B8B2B51F18091A705E091A805F09173
:10246000A90590818927808380911806909119068B
:10247000A0911A06B0911B06181619061A061B061B
:102480004CF58091180690911906A0911A06B0910A
:102490001B060197A109B1098093180690931906AC
:1024A000A0931A06B0931B0615C080916E008D7F15
:1024B00080936E009091A705E091A805F091A90581
:1024C0008081282F30E0892F90E08095909582239D
:1024D00093238083FF91EF91BF91AF919F918F9153
:1024E0003F912F910F900FBE0F901F9018953F9224
:1024F0004F925F926F927F928F929F92AF92BF9214
:10250000CF92DF92EF92FF920F931F93CF93DF93BF
:10251000382E962E842EF90184E6E816F1042CF06C
:1025200082EBE81A87E0F80A03C08EE1E80EF11C9E
:10253000E092DF040093DE04E093DD043092DB04DC
:102540009092DA048092D904AE2DB0E020E833E313
:1025500041EE51E00E947F2E2B013C0122EB37E03F
:10256000FF2484E6C82ED12CC0E9D1E0C901825BEA
:1025700097408E159F05DCF4C90183709927892B3C
:1025800099F4C901B6010E94842F892B31F4C90145
:10259000BE010E94842F892B39F480E8480E81E522
:1025A000581E81E0681E711C2F5F3F4FDFCF8EE405
:1025B000E81A88EFF80AC70164E670E00E94842FE9
:1025C0006C01C70160E971E00E94842F5C01C1E0E9
:1025D000D0E0112783E0E822FF24C017D1072CF5B3
:1025E000C230D10589F4E114F10471F4C114D104AD
:1025F00019F4A114B10441F480E8480E8BE3581E8D
:1026000086E2681E711C0FC0DE01A853BD4FAC915D
:10261000B0E020E831E541E050E00E947F2E460E18
:10262000571E681E791E2196D8CF292D30E0ACE3C5
:10263000B0E00E94C12E6B017C01C80CD11CE11CD2
:10264000F11C232D30E0A0E1BEE00E94C12EC60E99
:10265000D71EE81EF91EDF01BB27119720E831E5E0
:1026600041E050E00E94DF2FDC01CB018C0D9D1D6D
:10267000AE1DBF1DBC01CD01640D751D861D971DCE
:10268000DF91CF911F910F91FF90EF90DF90CF904E
:10269000BF90AF909F908F907F906F905F904F9082
:1026A0003F900C94E110CF92DF92EF92FF920F9344
:1026B0001F930E94D510C0902D05D0902E05E0905C
:1026C0002F05F09030058B019C010C191D092E0976
:1026D0003F098091370590913805A0913905B09157
:1026E0003A05083E134021053105D0F00196A11DA1
:1026F000B11D8093370590933805A0933905B093A9
:102700003A05B701A60148515C4F6F4F7F4F409388
:102710002D0550932E0560932F0570933005C9CF7A
:10272000409133055091340560913505709136051F
:1027300084179507A607B70788F1E0912B05F0915C
:102740002C05309759F109956115710581059105A1
:1027500019F00E94E11022C0809137059091380550
:10276000A0913905B0913A05845D9E4FAF4FBF4FA0
:102770008093330590933405A0933505B0933605C7
:1027800081E090E02091310530913205232B11F446
:1027900080E090E090933205809331056091370599
:1027A000709138058091390590913A051F910F91EC
:1027B000FF90EF90DF90CF9008954F925F926F92CD
:1027C0007F928F929F92AF92BF92CF92DF92EF92C1
:1027D000FF920F931F93CF93DF934B015C01809186
:1027E000270590912805A0912905B0912A05881602
:1027F0009906AA06BB0609F4C2C08CE3C82ED12CE8
:10280000E12CF12CC501B401A70196010E94982F7B
:102810006093D904CA01B901A70196010E94982FBB
:102820006093DA04CA01B90128E130E040E050E0E9
:102830000E94982F69017A016093DB04CA01B901F3
:102840006C5F7F4F8F4F9F4F27E030E040E050E0BC
:102850000E94982F6F5F6093DC04412C512C320151
:1028600040E004E610E0C0E9D1E0242F30E02E542F
:10287000384FF901E370FF27309789F4C901B80197
:102880000E94842F892B31F4C901BE010E94842F3C
:10289000892B29F48EE691E0A0E0B0E004C08DE63B
:1028A00091E0A0E0B0E0480E591E6A1E7B1ED301E5
:1028B000C201AA27BB27C816D906EA06FB0610F0F4
:1028C0004F5FD3CF4093DF04309799F4C90164E69A
:1028D00070E00E94842F892B39F4C90160E971E00E
:1028E0000E94842F892B29F48EE691E0A0E0B0E0CD
:1028F00004C08DE691E0A0E0B0E0481A590A6A0AE7
:102900007B0AC418D508E608F708C90164E670E038
:102910000E94842FEC01C90160E971E00E94842FBC
:10292000A9ECB2E020E0213039F4309749F4209747
:1029300029F4009729F402C04C9103C04DE101C075
:102940004CE150E060E070E0C416D506E606F706FC
:1029500040F0C41AD50AE60AF70A2F5F11962C3008
:1029600011F72F5F2093DE04C394C092DD048092A0
:10297000270590922805A0922905B0922A05DF919B
:10298000CF911F910F91FF90EF90DF90CF90BF906C
:10299000AF909F908F907F906F905F904F90089531
:1029A0000E9453130E94DD138091DF0490E08E5447
:1029B000984F08950E9453130E94DD138091DE0406
:1029C00090E008950E9453130E94DD138091DD046E
:1029D00090E008950E9453130E94DD138091D90462
:1029E00090E008950E9453130E94DD138091DA0451
:1029F00090E008950E9453130E94DD138091DB0440
:102A000090E00895CF92DF92EF92FF92CF93DF9301
:102A1000EC010E94D5106B017C018F850E94BC0FD8
:102A200021E0892B09F420E0298B8889811103C0DA
:102A300081E08227898B29898A89281721F0CD8A0C
:102A4000DE8AEF8AF88E8D899E89AF89B88DB701AD
:102A5000A601481B590B6A0B7B0BDB01CA01CB801B
:102A6000DC80ED80FE80C416D506E606F70664F429
:102A70003A81231749F02A83222331F04B895C895C
:102A80004F5F5F4F5C8B4B8B3A8131110CC0CF8015
:102A9000D884E984FA84C816D906EA06FB06ACF4A1
:102AA0008B899C890EC0CB84DC84ED84FE84C8169F
:102AB000D906EA06FB064CF48B899C899195819591
:102AC0009109998388831C8A1B8A2A8BDF91CF9175
:102AD000FF90EF90DF90CF9008950F931F93CF93C7
:102AE000DF931F92CDB7DEB78C01862FF801678781
:102AF000408B91E04927418B428B148A138A1182C3
:102B000010821282158A168A178A108E44E150E0CC
:102B100060E070E043835483658376834AEF50E03E
:102B200060E070E0478350876187728748EE53E02A
:102B300060E070E0438754876587768760E029838B
:102B40000E941510F8018089298181110BC0222370
:102B500049F061E087850F90DF91CF911F910F9130
:102B60000C94E50F0F90DF91CF911F910F91089575
:102B70001F920F920FB60F9211242F933F934F93F2
:102B80005F936F937F938F939F93AF93BF93EF93D5
:102B9000FF938091B900887F803609F49CC068F566
:102BA000883209F45BC090F4803109F454C038F4E1
:102BB000882309F4F6C0883009F44DC0F6C0883186
:102BC00009F44CC0803209F45DC0EFC0803409F4D0
:102BD00068C048F4803309F455C0883309F0E5C073
:102BE0008093E905D8C0803509F44FC0883509F4D1
:102BF0005DC0883409F0D9C0D6C0883909F4C7C08F
:102C0000A8F4883709F467C038F4883609F463C03B
:102C1000803709F460C0C9C0883809F4B8C0803969
:102C200009F45FC0803809F0C0C05BC0803B09F484
:102C300086C038F4803A09F466C0883A09F47FC047
:102C4000B4C0803C09F4A7C0883C09F4A4C0883B08
:102C500009F48AC0AAC08091C60510C09091E80509
:102C60008091E705981770F5E091E80581E08E0FF7
:102C70008093E805F0E0E953FA4F80818093BB0030
:102C800085EC86C08093E9058EC0E091E80581E07F
:102C90008E0F8093E8058091BB00F0E0E953FA4F76
:102CA00080839091E8058091E7056EC0E091E8058A
:102CB00081E08E0F8093E8058091BB00F0E0E9533E
:102CC000FA4F80838091EA0581116DC081E0809385
:102CD000C50584EA61C083E08093EB051092260568
:102CE000CFCF80912605803208F051C0E0912605B3
:102CF00081E08E0F809326058091BB00F0E0EA5FB3
:102D0000FA4F8083BDCF85EC8093BC001092EB0519
:102D100080912605803230F4E0912605F0E0EA5FEC
:102D2000FA4F10826091260570E0E0910405F09161
:102D3000050586E095E009951092260536C084E0E9
:102D40008093EB051092030510920205E0910005B7
:102D5000F0910105099580910205811105C081E07E
:102D6000809302051092E004E091030581E08E0F4C
:102D700080930305F0E0E052FB4F80818093BB001D
:102D80009091030580910205981708F479CF85E8A2
:102D90008093BC000AC085EC8093BC001092EB05C8
:102DA00004C01092E9050E942C0FFF91EF91BF9192
:102DB000AF919F918F917F916F915F914F913F91D3
:102DC0002F910F900FBE0F901F9018954091020504
:102DD000262F30E0240F311D21323105DCF4209103
:102DE000EB052430C9F4FC0180E090E0861758F42C
:102DF000309102052191DC01A052BB4FA30FB11D00
:102E00002C930196F3CF80910205680F6093020521
:102E100080E0089581E0089582E008959091A005F2
:102E200080919F05981750F4E92FF0E0E754FB4F8D
:102E3000208130E09F5F9093A00502C02FEF3FEF0D
:102E4000C901089580919F0590E02091A005821B03
:102E500091090895089580E090E00895CF92DF925F
:102E6000EF92FF920F931F93CF93DF937C01262F56
:102E7000972F8A018091EC05882391F0C62FD72FD8
:102E80006E01C40ED51ECC15DD0571F06991D70118
:102E9000ED91FC910190F081E02DC7010995F3CFF0
:102EA000642F822F0E94E616C801DF91CF911F91F7
:102EB0000F91FF90EF90DF90CF900895CF93DF9325
:102EC0001F92CDB7DEB769832091EC052223D1F0A4
:102ED00020910F06203240F021E030E0FC013383E6
:102EE000228380E090E015C08091ED05E82FF0E0AE
:102EF000E251FA4F998190838F5F8093ED05809323
:102F00000F0605C061E0CE0101960E94E61681E041
:102F100090E00F90DF91CF910895CF92DF92EF92E2
:102F2000FF921F93CF93DF9390915705911103C0A8
:102F30008FEF9FEF72C0909156059923C9F3182F18
:102F4000C0915505D0E08091970581110DC00E9478
:102F5000D510609393057093940580939505909395
:102F6000960581E0809397050E94D510C090930547
:102F7000D0909405E0909505F0909605DC01CB018A
:102F80008C199D09AE09BF098D329140A105B1058B
:102F9000D8F00E94D51060939305709394058093A8
:102FA0009505909396058091920591E098279093CE
:102FB0009205992329F0109291051092900504C072
:102FC000D0939105C0939005209190053091910583
:102FD000209530954091540550E02423352326FF59
:102FE00004C081E080938F0502C010928F0527FFF7
:102FF00004C081E080938E0502C010928E058091FE
:103000009205882309F494CF02C0D595C7951A95E7
:10301000E2F7C0FF8DCF80E09CE3DF91CF911F915D
:10302000FF90EF90DF90CF9008950F931F93CF9371
:10303000DF93CDB7DEB768970FB6F894DEBF0FBE4B
:10304000CDBF8B01833079F520911607309117079A
:1030500042E050E062E177E0CE010D960E94E92067
:10306000B801CE0101960E94AE26BE016F5F7F4F70
:10307000CE0107960E94460FBE01635F7F4FCE01CF
:1030800007960E946520BC0182E197E00E942F21F3
:10309000CE0107960E944621CE0101960E9446214C
:1030A000CE010D9663C08C30A1F4209116073091AB
:1030B000170744E050E062E177E0CE0143960E94BA
:1030C000E920B801CE010D960E94AE2622E030E044
:1030D0001FC0803339F4209116073091170746E05E
:1030E00050E009C0803F09F043C02091160730919D
:1030F000170748E050E062E177E0CE0143960E9476
:10310000E920B801CE010D960E94AE2624E030E001
:1031100040E050E062E177E0CE0101960E94E920B4
:10312000BE016F5F7F4FCE0107960E94460FBE0122
:10313000635F7F4FCE0107960E946520BE016D5EE2
:103140007F4F0E946520BC0182E197E00E942F2101
:10315000CE0107960E944621CE0101960E9446218B
:10316000CE010D960E944621CE0143960E94462133
:1031700068960FB6F894DEBF0FBECDBFDF91CF913A
:103180001F910F9108950C94712E0C94692E2F921B
:103190003F924F925F926F927F928F929F92AF92E7
:1031A000BF92CF92DF92EF92FF920F931F93CF9334
:1031B000DF9300D000D0CDB7DEB70E94B0100091F1
:1031C0008A0510918B0520918C0530918D05DC01CD
:1031D000CB01801B910BA20BB30B8A319144A1054B
:1031E000B10508F4E6C10E94B01060938A0570939F
:1031F0008B0580938C0590938D0582E197E00E946A
:10320000F51F6B017C0160E08AE00E94E50F8AE017
:10321000482E512C612C712CC701B601A3019201DB
:103220000E94BA2FCB01880F991FFC01E852FD4F75
:10323000C080D18087E090E029833A834B835C8310
:103240000E948D171C0129813A814B815C81CA0142
:10325000B901A30192010E94BA2F660F771FFB01EB
:10326000E852FD4FA080B18087E090E029833A8347
:103270004B835C830E948D177C0129813A814B81AD
:103280005C81CA01B901A30192010E94BA2F2901F0
:103290003A01660F771FFB01E852FD4F0081118153
:1032A00086E090E00E948D1745018E209F20A12C82
:1032B000B12CAAE0880C991CAA1CBB1CAA95D1F7BA
:1032C00080239123AC0160E070E0D501C401842B20
:1032D000952BA62BB72BC220D320A60160E070E06F
:1032E00014E1440F551F661F771F1A95D1F76C0123
:1032F0007D01C42AD52AE62AF72A80918F058823E2
:1033000019F06894F6F802C0E894F6F880918E05FA
:10331000882319F06894F7F802C0E894F7F88F2D25
:103320000E94F50D8E2D0E94F50D8D2D0E94F50D3C
:103330008C2D0E94F50D8AE0882E912CA12CB12CA9
:10334000C301B201A50194010E94BA2FCB01880FDD
:10335000991FFC01E852FD4F0081118185E090E04A
:1033600029833A834B835C830E948D176C012981EA
:103370003A814B815C81CA01B901A50194010E9487
:10338000BA2F660F771FFB01E852FD4F60807180F6
:1033900084E090E029833A834B835C830E948D17FD
:1033A000C022D122E12CF12CF4E1CC0CDD1CEE1C6E
:1033B000FF1CFA95D1F786219721A0E0B0E01AE032
:1033C000880F991FAA1FBB1F1A95D1F7C82AD92A9F
:1033D000EA2AFB2A29813A814B815C81CA01B90121
:1033E000A50194010E94BA2F660F771FFB01E852D6
:1033F000FD4F0081118183E090E029833A834B8364
:103400005C830E948D1780239123A0E0B0E0C82A3E
:10341000D92AEA2AFB2A80918F0529813A814B819A
:103420005C81882319F06894F6F802C0E894F6F8F5
:1034300080918E05882319F06894F7F802C0E8940B
:10344000F7F88F2D29833A834B835C830E94F50D17
:103450008E2D0E94F50D8D2D0E94F50D8C2D0E9454
:10346000F50D8AE0482E512C612C712C29813A816E
:103470004B815C81CA01B901A30192010E94BA2F5C
:10348000CB01880F991FFC01E852FD4F008111818B
:1034900082E090E029833A834B835C830E948D17FE
:1034A0006C0129813A814B815C81CA01B901A30178
:1034B00092010E94BA2F660F771FFB01E852FD4F61
:1034C000A080B18081E090E029833A834B835C83C4
:1034D0000E948D17C022D122E12CF12CF4E1CC0CFA
:1034E000DD1CEE1CFF1CFA95D1F78A219B21A0E080
:1034F000B0E01AE0880F991FAA1FBB1F1A95D1F7D9
:10350000C82AD92AEA2AFB2A29813A814B815C817F
:10351000CA01B901A30192010E94BA2F660F771F59
:10352000FB01E852FD4F0081118180E090E00E9494
:103530008D1780239123A0E0B0E0C82AD92AEA2A77
:10354000FB2A80918F05882319F06894F6F802C051
:10355000E894F6F880918E05882319F06894F7F8BE
:1035600002C0E894F7F88F2D0E94F50D8E2D0E9471
:10357000F50D8D2D0E94F50D8C2D0E94F50D61E04D
:103580008AE00F900F900F900F90DF91CF911F91D5
:103590000F91FF90EF90DF90CF90BF90AF909F90F2
:1035A0008F907F906F905F904F903F902F900C94F2
:1035B000E50F0F900F900F900F90DF91CF911F911B
:1035C0000F91FF90EF90DF90CF90BF90AF909F90C2
:1035D0008F907F906F905F904F903F902F900895C5
:1035E0008F929F92AF92BF92CF92DF92EF92FF9213
:1035F0000F931F93CF93DF93CDB7DEB72D970FB601
:10360000F894DEBF0FBECDBF8C016A017B018091B3
:103610008205811113C00E94D510DC01CB01845BAF
:103620009B4FAF4FBF4F80937E0590937F05A09334
:103630008005B093810581E08093820580917605B5
:10364000811109C069E473E080E795E00E944F0FA3
:1036500081E0809376050E94D51060937E0570937B
:103660007F05809380059093810520E030E040E263
:1036700051E4C701B6010E94AB2D6B017C0120E033
:1036800030E0A9010E94732F20E030E040E05FE3CA
:1036900087FD05C0C701B6010E94D12E04C0C70135
:1036A000B6010E94D02E0E943D2F80915901909129
:1036B0005A019B0129513C4F49012458334059017B
:1036C0002A55310969017B01892B09F095C077FFE3
:1036D00003C0F194E194F1084AE0B701CE010796E6
:1036E0000E944B216EE473E0CE0101960E944F0FC1
:1036F000BE01695F7F4FCE0101960E9465206EE496
:1037000073E00E944C20BC0180E795E00E942F21CD
:10371000CE0101960E944621CE0107960E944621C5
:103720003FEC831637E0930620F54AE0B701CE015F
:1037300007960E944B216DE473E0CE0101960E9432
:103740004F0FBE01695F7F4FCE0101960E94652039
:103750006EE473E00E944C20BC0180E795E00E947B
:103760002F21CE0101960E944621CE0107960E948C
:10377000462187ECA816B10420F54AE0B701CE0136
:1037800007960E944B216CE473E0CE0101960E94E3
:103790004F0FBE01695F7F4FCE0101960E946520E9
:1037A0006EE473E00E944C20BC0180E795E00E942B
:1037B0002F21CE0101960E944621CE0107960E943C
:1037C000462123E1C216D10408F0C4C04AE0B70183
:1037D000CE0107960E944B216BE473E0CE01019667
:1037E0000E944F0FBE01695F7F4FCE0101960E947C
:1037F00065206EE473E09FC077FF03C0F194E1940D
:10380000F1084AE0B701CE0107960E944B216EE411
:1038100073E0CE0101960E944F0FBE01695F7F4F9A
:10382000CE0101960E9465206EE473E00E944C2058
:10383000BC0180E795E00E942F21CE0101960E94F5
:103840004621CE0107960E9446213FEC831637E0C1
:10385000930640F5C7016AE070E00E94842F4AE0B9
:10386000CE0107960E944B216DE473E0CE010196D4
:103870000E944F0FBE01695F7F4FCE0101960E94EB
:1038800065206DE473E00E944C20BC0180E795E068
:103890000E942F21CE0101960E944621CE0107965B
:1038A0000E94462187ECA816B10440F5C7016AE0E2
:1038B00070E00E94842F4AE0CE0107960E944B21BF
:1038C0006CE473E0CE0101960E944F0FBE01695F68
:1038D0007F4FCE0101960E9465206DE473E00E9447
:1038E0004C20BC0180E795E00E942F21CE0101967B
:1038F0000E944621CE0107960E94462123E1C2166E
:10390000D10440F5C7016AE070E00E94842F4AE0CC
:10391000CE0107960E944B216BE473E0CE01019625
:103920000E944F0FBE01695F7F4FCE0101960E943A
:1039300065206DE473E00E944C20BC0180E795E0B7
:103940000E942F21CE0101960E944621CE010796AA
:103950000E9446218091590190915A01892B11F0C2
:1039600022E301C027E360E373E0CE0101962D87D7
:103970000E944F0F60E775E0CE0101960E9465201E
:103980006DE473E00E944C202D85622F0E942E2052
:10399000BC0180E795E00E942F21CE0101960E9494
:1039A000462160E775E0C8010E94460FC8012D96C8
:1039B0000FB6F894DEBF0FBECDBFDF91CF911F9140
:1039C0000F91FF90EF90DF90CF90BF90AF909F90BE
:1039D0008F900895EF92FF920F931F93CF93DF93F1
:1039E000E82E0E9404248CEC0E94DA2384E40E94D6
:1039F000DA230E9404248CEC0E94DA238EEB0E94CE
:103A0000DA2308E010E0D1E0C0E00E9483238111B6
:103A1000CD2BDD0F01501109C1F708E010E0FF24A4
:103A2000F394D0E00E9483238111DF29FF0C015021
:103A30001109C1F76C2F70E07D2B6F3F8FEF780776
:103A400011F460E070E0072E000C880B990B0E94C7
:103A50004C2D20E030E040E85DE30E94AB2DEE20ED
:103A600061F026E636E646EE5FE30E94AB2D20E0ED
:103A700030E040E052E40E94D12EDF91CF911F91BF
:103A80000F91FF90EF9008954F925F926F927F9207
:103A90008F929F92AF92BF92CF92DF92EF92FF925E
:103AA0000F931F93CF93DF9300D000D000D0CDB7FA
:103AB000DEB77C014B015A0180915305882341F008
:103AC00080915D0507E615E0AEE5B5E0F8014CC074
:103AD00081E080935305109252051092510587E6BC
:103AE000682E85E0782E9EE5492E95E0592E00E05F
:103AF00010E00F5F1F4F680181E0C81AD1089801DC
:103B0000A601B401CE0101960E94E920CE010196E2
:103B10000E94F51FF30161933F01CE0101960E94BF
:103B200046219801A601B501CE0101960E94E92027
:103B3000CE0101960E94F51FF20161932F01CE0183
:103B400001960E9446210930110599F6B9CF2C91B2
:103B500092130DC090819A3009F41082319611961B
:103B600095E0E037F90731F090818A3080F79F5F68
:103B70009083F0CF8F5F843119F080935D0504C08E
:103B800010925D051092530560E373E0C7010E9437
:103B90004F0FFE0131966F01F80181918F014AE0CC
:103BA000B60190E00E94FB2CF60101900020E9F79D
:103BB0003197AF014C195D09B601C7010E94002081
:103BC000F5E000371F0741F7C70126960FB6F894B6
:103BD000DEBF0FBECDBFDF91CF911F910F91FF9040
:103BE000EF90DF90CF90BF90AF909F908F907F909D
:103BF0006F905F904F90089588E090E00E94C51804
:103C0000682F70E089E00E94511089E090E00E94E6
:103C1000C518682F70E086E00E9451108AE090E09D
:103C20000E94C518682F70E083E00C9451100F9328
:103C30001F938091550190915601892B09F451C031
:103C400080915C058823A9F00E94D5100091580549
:103C50001091590520915A0530915B05DC01CB018B
:103C6000801B910BA20BB30B893E9340A105B105BC
:103C7000A8F580915C05811134C00E94FA1420914E
:103C80004F01309150018217930759F50E94F214A9
:103C900020915101309152018217930711F50E9432
:103CA000EA14209153013091540182179307C9F40B
:103CB0000E94D510609358057093590580935A055A
:103CC00090935B0581E080935C0580910A0190915F
:103CD0000B019093AC058093AB0503C010925C057B
:103CE000C8CF1F910F9108950E94D51060934D0584
:103CF00070934E0580934F059093500580914C052D
:103D0000882309F450C020914A0530914B05C90120
:103D1000880F991F2131310551F0FC01EB5CFE4FFA
:103D20004081518141505109518340830AC04091E3
:103D30005701509158014C505109509358014093EC
:103D40005701DC01AB5CBE4F6D917C911197FC017A
:103D5000E35AFE4F40815181641775073CF4FC0122
:103D6000EB57FE4F408151814D935C9320313105DB
:103D700071F420915501309156012130310521F423
:103D800020E82093540506C01092540503C0293042
:103D9000310549F0FC01EB5CFE4F6081718180913F
:103DA00055050C94151808950E94D51060934D0583
:103DB00070934E0580934F059093500580914C056C
:103DC000882309F445C020914A0530914B05C9016B
:103DD000880F991F2131310551F0FC01EB5CFE4F3A
:103DE000408151814F5F5F4F518340830AC04091B2
:103DF000570150915801445F5F4F509358014093D1
:103E00005701DC01AB5CBE4F6D917C911197FC01B9
:103E1000EB57FE4F40815181461757073CF4FC0198
:103E2000E35AFE4F408151814D935C93203131051F
:103E300019F41092540503C02930310549F0FC01F2
:103E4000EB5CFE4F60817181809155050C941518D3
:103E50000895CF93DF93EC01019628812A33D9F797
:103E60008981843639F510924905109248052396C8
:103E70004AE0FE018881219690ED980F2091480537
:103E8000309149059A3080F4429FB001439F700DF4
:103E90001124082E000C990BC097860F971F909342
:103EA000490580934805E5CF1216130614F42093B4
:103EB0000901EF01219688818F3689F48A81082EC5
:103EC000000C990B9C012053310930934905209334
:103ED0004805C397059710F420930801249688811C
:103EE000823629F51092490510924805FE01329656
:103EF0004AE0819190ED980F209148053091490555
:103F00009A3080F4429FB001439F700D1124082E17
:103F1000000C990BC097860F971F909349058093CB
:103F20004805E7CF3093070120930601EF01209168
:103F3000060130910701032E000C440B550B60E67F
:103F40007AEE80E090E00E94BA2FDA01C90122E007
:103F5000880F991FAA1FBB1F2A95D1F7809344058C
:103F600090934505A0934605B0934705CE01DF9198
:103F7000CF9108950E94F231CF93DF93EC018881B5
:103F80009981009711F00E949030198218821D8249
:103F90001C821B821A82DF91CF9108950F931F9389
:103FA000CF93DF93EC0188819981009729F02A81D2
:103FB0003B812617370788F48B016F5F7F4F0E9484
:103FC0002831009761F0998388831B830A832C81B1
:103FD0003D81232B11F4FC01108281E001C080E0BF
:103FE000DF91CF911F910F910895FC018081918104
:103FF000009711F00C94C92C60E070E0CB0108959B
:10400000EF92FF920F931F93CF93DF93FC012481D4
:1040100035816115710511F480E019C04115510514
:10402000A9F07B01EC018A01020F131FB8010E9465
:10403000CE1F882389F3288139818C819D81B70126
:10404000820F931F0E9400321D830C8381E0DF9159
:10405000CF911F910F91FF90EF9008950F931F93B1
:10406000CF93DF9300D0CDB7DEB78C0169831A827E
:1040700041E050E0BE016F5F7F4F0E940020811140
:1040800003C0C8010E94BC1FC8010F900F90DF91B0
:10409000CF911F910F910895CF93DF93EC0161159C
:1040A000710561F0FB0101900020E9F73197AF0144
:1040B000461B570B0E940020811103C0CE010E94B5
:1040C000BC1FCE01DF91CF910895CF93DF93EC0118
:1040D000FB0144815581608171810E940020811122
:1040E00003C0CE010E94BC1FCE01DF91CF91089585
:1040F0000F931F93CF93DF938C01EB01FC01808121
:1041000091810097B1F0688179816115710579F02D
:10411000428153812C813D814217530740F00E9418
:1041200000328C819D81F8019583848313C00E94A5
:10413000903088819981F801918380838A819B8165
:10414000938382838C819D819583848319821882D5
:104150001B821A821D821C82DF91CF911F910F91C9
:104160000895EF92FF920F931F93CF93DF93EC018B
:104170007B018A01BA010E94CE1F811104C0CE01C9
:104180000E94BC1F07C01D830C83B70188819981E1
:104190000E940032CE01DF91CF911F910F91FF90CD
:1041A000EF900895CF93DF93EC016115710559F0FD
:1041B000FB0101900020E9F73197AF01461B570B37
:1041C0000E94B12002C00E94BC1FCE01DF91CF919E
:1041D0000895BF92CF92DF92EF92FF920F931F93B9
:1041E000CF93DF937C016B018A01E9012417350726
:1041F00020F4812F8901C42FD82F60E373E0C70119
:104200000E944F0FD60114968D919C911597081717
:104210001907D0F48C179D0708F4EC01D601ED9135
:10422000FC911197EC0FFD1FB08010824D915C91B5
:10423000BA01600F711FC7010E94D220D601ED9113
:10424000FC91EC0FFD1FB082C701DF91CF911F9150
:104250000F91FF90EF90DF90CF90BF900895CF9394
:10426000DF93EC01FB018617970761F06081718194
:104270006115710529F0448155810E94B12002C069
:104280000E94BC1FCE01DF91CF910895FC01808177
:1042900091810C9490300F931F93CF93DF93CDB700
:1042A000DEB762970FB6F894DEBF0FBECDBF8C01AC
:1042B000CB01F801118210821382128215821482BE
:1042C00050E0BE016F5F7F4F0E94F02CBE016F5F18
:1042D0007F4FC8010E94D22062960FB6F894DEBFCD
:1042E0000FBECDBFDF91CF911F910F9108953F92E7
:1042F0004F925F926F927F928F929F92AF92BF92F6
:10430000CF92DF92EF92FF920F931F93CF93DF93A1
:1043100000D000D0CDB7DEB720911D0627FDAAC181
:1043200049835A836B837C838C0161E080911C06F6
:104330000E94151030901D06832D8D7F4801A12C01
:10434000B12C09F0B7C060E072E18AE790E0A50106
:1043500094010E94BA2F29013A0169017A0121E0F2
:10436000C21AD108E108F1088FEFC816D104E104A0
:10437000F10409F008F44CC060E472E48FE090E0CE
:10438000A50194010E94BA2F69017A0191E0C91A2E
:10439000D108E108F108A2E03A1220C0BFEFCB1625
:1043A000D104E104F10409F008F462C160E970EDA0
:1043B00083E090E0A50194010E94BA2F69017A017F
:1043C000E1E0CE1AD108E108F108FFEFCF16D104E1
:1043D000E104F10409F0C0F583E065C02FEFC216D7
:1043E000D104E104F104B1F0A8F068E478EE81E0D2
:1043F00090E0A50194010E94BA2F69017A0181E041
:10440000C81AD108E108F108332009F4D9C027C13E
:1044100081E001C082E0332091F045C0D301C201A8
:104420002AE0B595A795979587952A95D1F76C01C0
:104430007D01E1E0CE1AD108E108F10885E095B5EB
:10444000987F892B85BD66C068E478EE81E090E0B6
:10445000A50194010E94BA2F69017A01B1E0CB1A3B
:10446000D108E108F108EFEFCE16D104E104F10420
:1044700009F008F4A3C064E274EF80E090E0A501C5
:1044800094010E94BA2F69017A0191E0C91AD108FA
:10449000E108F108AFEFCA16D104E104F10411F00C
:1044A00008F0B0C085E09091B100987F892B80938F
:1044B000B10030C060E072E18AE790E0A5019401AC
:1044C0000E94BA2F69017A01F1E0CF1AD108E10800
:1044D000F108C114D10421E0E206F10488F068E497
:1044E00078EE81E090E0A50194010E94BA2F690165
:1044F0007A0181E0C81AD108E108F10893E001C00F
:1045000091E0A1E03A1206C080918100887F892B5A
:104510008093810089819A81AB81BC81892B8A2B10
:104520008B2B81F0D801AA0FBB1F29813A814B81C7
:104530005C810E947F2E28EE33E040E050E00E9434
:10454000982F03C02FEF3FEFA90191E03916A1F09A
:10455000A2E03A1619F131108DC0C7BC209318069D
:104560003093190640931A0650931B0680916E00F3
:10457000826080936E007EC0D0928900C0928800D5
:104580002093140630931506409316065093170691
:1045900080916F00826080936F006CC0C092B30006
:1045A0002093100630931106409312065093130681
:1045B000809170008260809370005CC084E073CF53
:1045C0008FEFC816D104E104F104D1F0C8F062E124
:1045D0007AE780E090E0A50194010E94BA2F69017A
:1045E0007A01F1E0CF1AD108E108F1082FEFC216E5
:1045F000D104E104F10411F008F010CF84E01FCFE2
:1046000083E01DCF62E17AE780E090E0A5019401AC
:104610000E94BA2F69017A0191E0C91AD108E10814
:10462000F108AFEFCA16D104E104F104B1F0A8F02B
:10463000D301C2014AE0B595A795979587954A950C
:10464000D1F76C017D01E1E0CE1AD108E108F10853
:10465000332009F4F3CE87E026CF86E0DCCEBFEF2F
:10466000CB16D104E104F10409F060F684E0D3CE66
:1046700082E019CF0F900F900F900F90DF91CF91A4
:104680001F910F91FF90EF90DF90CF90BF90AF9070
:104690009F908F907F906F905F904F903F90089584
:1046A0000F931F93CF93DF938C01C0E0D0E0F8010C
:1046B000EC0FFD1F6491662371F0E0911E06F091EE
:1046C0001F060190F081E02D8EE196E00995892B7F
:1046D00011F02196ECCFCE01DF91CF911F910F9178
:1046E0000895CF93DF930E945023EC0142E050E005
:1046F0006EE273E08EE196E00E94FD0D8C0F9D1F2F
:10470000DF91CF91089580911807E0911907F091FA
:104710001A07F8949181982B91832281982F909574
:1047200029232283A7E0B0E01197F1F7218192239A
:104730009183A3E2B0E01197F1F790817894EFECC8
:10474000F0E03197F1F7982381E009F480E00895D3
:1047500090911807E0911907F0911A07392F3095B9
:1047600080FF13C0F8942281832F8223828381816A
:10477000892B8183A3E2B0E01197F1F78281982B16
:104780009283789487ED90E012C0F8942281832F71
:10479000822382838181892B8183AFEFB0E01197DF
:1047A000F1F78281982B928378948FE090E00197C3
:1047B000F1F708950F931F93CF93DF93082FC8E06D
:1047C000D0E011E081E0912F902309F480E00E9475
:1047D000A823110F2197B1F7F894E0911907F091F0
:1047E0001A07918180911807809598239183E09111
:1047F0001907F0911A079281892382837894DF91B7
:10480000CF911F910F91089590911807E09119078A
:10481000F0911A07F8948181292F209582238183B2
:1048200078948DE743E050E0815021F1DA0111974F
:10483000F1F730813923C1F3F89482818223828396
:104840008181892B81837894ABE7B7E01197F1F7E9
:10485000F894818128232183A3E1B1E01197F1F736
:104860008081982381E009F080E07894E3E6F6E027
:104870003197F1F708958F929F92AF92BF92CF92A6
:10488000DF92EF92FF920E94B0104B015C0188EE24
:10489000C82E83E0D82EE12CF12C0E94B010DC0150
:1048A000CB0188199909AA09BB09883E9340A10543
:1048B000B10558F021E0C21AD108E108F10888EEEC
:1048C000880E83E0981EA11CB11CC114D104E10420
:1048D000F10419F7FF90EF90DF90CF90BF90AF9069
:1048E0009F908F90089520910F0690910E0621328F
:1048F00008F04AC08091EB058111FCCF32E0309383
:10490000EB0531E03093EA053FEF3093E905109273
:10491000E8052093E705AEEEB5E047EC55E0FA0177
:104920003E2F341B321718F43D913193F9CF10927A
:10493000C6052091C605990F922B9093C6059091BC
:10494000C505913061F41092C5059091C60590930C
:10495000BB009091BC0093FDF8CF95EC01C095EEA3
:104960009093BC009091EB059230E1F39091E905B2
:104970009F3F79F08091E905803241F08091E9050F
:10498000803331F084E005C081E003C082E001C0E3
:1049900083E01092ED0510920F061092EC05089539
:1049A000CF92DF92EF92FF921F93CF93DF93CDB719
:1049B000DEB72C970FB6F894DEBF0FBECDBF182F11
:1049C00068E573E0CE0101960E944F0F133029F481
:1049D00022E030E040E050E012C01C3029F424E036
:1049E00030E042E050E00BC0103319F426E030E034
:1049F00004C0103FA9F428E030E044E050E062E158
:104A000077E0CE0107960E94E920BE01695F7F4FE3
:104A1000CE0101960E947820CE0107960E94462181
:104A2000CE0101960E94F51F6B017C01CE0101961B
:104A30000E944621C6012C960FB6F894DEBF0FBE29
:104A4000CDBFDF91CF911F91FF90EF90DF90CF907E
:104A5000089581E08093EC0588E680930E0610921D
:104A6000ED0510920F0660E08BEB96E00E945E175A
:104A70000E9473248091EB058111FCCF81E080932B
:104A8000EB058093EA059FEF9093E9051092E80506
:104A900096E09093E7058093C6058091C605806DEA
:104AA0008093C6058091C505813061F41092C505DB
:104AB0008091C6058093BB008091BC0083FDF8CF38
:104AC00085EC01C085EE8093BC008091EB058130C0
:104AD000E1F38091E805873018F48091E80501C082
:104AE00087E0A7ECB5E029EB34E0F9019E2F921B9B
:104AF000981718F49D919193F9CF1092A005809387
:104B00009F058BEB96E00E940E17982F92959F7051
:104B10008F702AE0929F800D112490E09093B90548
:104B20008093B8058BEB96E00E940E17982F929514
:104B30009F708F702AE0929F800D112490E09093D7
:104B4000B0058093AF058BEB96E00E940E17982F6F
:104B50009695969596959670292F220F220F920F73
:104B60008F70890F90E09093AE058093AD058BEB2D
:104B700096E00E940E17982F92959F708F702AE0F2
:104B8000929F800D112490E090933907809338070D
:104B90008BEB96E00E940E17982F92959F708F7066
:104BA0002AE0929F800D112490E09093B2058093AB
:104BB000B1058BEB96E00E940E17982F92959F708F
:104BC0008F702AE0929F800D112490E09093B4059D
:104BD0008093B3058BEB96E00E940E17982F929569
:104BE0009F708F702AE0929F800D112490E0909327
:104BF000B6058093B5050895EF92FF920F931F932A
:104C0000CF93DF93CDB7DEB762970FB6F894DEBFD0
:104C10000FBECDBF7C018B0177FF03C011950195BD
:104C200011094AE0B801C7010E944B21083E83E008
:104C300018070CF085C04AE0B801CE010D960E941D
:104C40004B216EE473E0CE0101960E944F0FBE012E
:104C50006F5F7F4FCE0107960E94460FBE01635FD4
:104C60007F4FCE0107960E946520BC01C7010E94BC
:104C70002F21CE0107960E944621CE0101960E9467
:104C80004621CE010D960E944621043611050CF0F6
:104C900057C04AE0B801CE010D960E944B216DE449
:104CA00073E0CE0101960E944F0FBE016F5F7F4FF0
:104CB000CE0107960E94460FBE01635F7F4FCE0173
:104CC00007960E946520BC01C7010E942F21CE01DA
:104CD00007960E944621CE0101960E944621CE01F0
:104CE0000D960E9446210A30110554F54AE0B8019C
:104CF000CE010D960E944B216CE473E0CE0101962B
:104D00000E944F0FBE016F5F7F4FCE0107960E943A
:104D1000460FBE01635F7F4FCE0107960E9465205C
:104D2000BC01C7010E942F21CE0107960E94462197
:104D3000CE0101960E944621CE010D960E94462189
:104D4000C70162960FB6F894DEBF0FBECDBFDF91EC
:104D5000CF911F910F91FF90EF9008950F931F93A4
:104D6000CF93DF93CDB7DEB762970FB6F894DEBF6F
:104D70000FBECDBF8C0177FF03C07195619571099E
:104D80004AE06A3071054CF5CE010D960E944B2128
:104D90006EE473E0CE0101960E944F0FBE016F5F7B
:104DA0007F4FCE0107960E94460FBE01635F7F4F83
:104DB000CE0107960E946520BC01C8010E94460FE3
:104DC000CE0107960E944621CE0101960E944621FF
:104DD000CE010D960E94462103C0C8010E944B21BE
:104DE000C80162960FB6F894DEBF0FBECDBFDF914B
:104DF000CF911F910F9108950F931F93CF93DF933E
:104E0000CDB7DEB768970FB6F894DEBF0FBECDBF43
:104E10008C018091570190915801489791F40E941C
:104E2000EA14BC01CE0143960E94AE260E94F21401
:104E3000BC01CE010D960E94AE260E94FA14BC0160
:104E40001FC00E94EA14BC01CE0143960E94AE2608
:104E50000E94F214BC01CE010D960E94AE260E9463
:104E600053130E94DD138091DB04882339F0682FEF
:104E700070E08D3028F06C50710902C06CE070E079
:104E8000CE0101960E94AE26BE016F5F7F4FCE011C
:104E900007960E94460FBE01635F7F4FCE010796C3
:104EA0000E946520BE016D5E7F4F0E946520BC019F
:104EB000C8010E94460FCE0107960E944621CE01EE
:104EC00001960E944621CE010D960E944621CE01F8
:104ED00043960E944621C80168960FB6F894DEBF3B
:104EE0000FBECDBFDF91CF911F910F91089582E149
:104EF00097E00E94462182E397E00C944621CF93ED
:104F0000DF93CDB7DEB7CF54D1090FB6F894DEBF2B
:104F10000FBECDBF789484B5826084BD84B58160B6
:104F200084BD85B5826085BD85B5816085BD809174
:104F30006E00816080936E001092810080918100EC
:104F400082608093810080918100816080938100E4
:104F5000809180008160809380008091B1008460A6
:104F60008093B1008091B00081608093B000809107
:104F70007A00846080937A0080917A0082608093C6
:104F80007A0080917A00816080937A0080917A0023
:104F9000806880937A001092C1001092A005109250
:104FA0009F051092ED0510920F061092EB0581E01F
:104FB0008093EA051092C50561E082E10E94E50F49
:104FC00061E083E10E94E50F8091B9008E7F8093BC
:104FD000B9008091B9008D7F8093B90088E48093F7
:104FE000B80085E48093BC00E0912E06F0912F0676
:104FF00082E08083E0912A06F0912B061082E091F6
:105000002C06F0912D0680E1808310923606E09107
:105010003206F091330686E08083E0913006F0910D
:105020003106808180618083E0913006F091310605
:10503000808188608083E0913006F0913106808124
:1050400080688083E0913006F091310680818F7D09
:10505000808383E398E090939E0180939D0181EE8D
:1050600097E0909376018093750190934E01809321
:105070004D0180EF90E0909326018093250181E01F
:1050800090E00E94C5188C3019F088E190E002C0D1
:105090008CE090E0909358018093570180E090E07D
:1050A0000E94C518882321F081E080930C0102C082
:1050B00010920C0182E090E00E94C5188F3F29F405
:1050C0001092500110924F0105C090E09093500152
:1050D00080934F0183E090E00E94C5188F3F29F430
:1050E000109252011092510105C090E0909352012C
:1050F0008093510184E090E00E94C5188F3F29F40D
:10510000109254011092530105C090E09093540105
:105110008093530186E090E00E94C5188F3F29F4E8
:10512000109256011092550105C090E090935601DF
:105130008093550187E090E00E94C5188F3F19F4D5
:105140001092BA0506C091E0811101C090E09093E1
:10515000BA058BE090E00E94C5188F3F29F41092A9
:105160005A011092590105C090E090935A01809322
:1051700059018CE090E00E94C5188F3F59F02091B2
:10518000830130918401A901480F511D50935C01A6
:1051900040935B018DE090E00E94C5188F3F29F09D
:1051A00090E0909348018093470161E089E00E947C
:1051B000151061E086E00E94151061E083E00E9416
:1051C00015108091BB05833008F083C092E0909366
:1051D0001C06E82FF0E0ED52FF4FE491E0931D062E
:1051E0008F5F8093BB05E13031F1E23009F44AC0B2
:1051F000E11172C014BC15BC84B5826084BD85B554
:10520000816085BD80911C0690E0FC01E65DFE4F4B
:10521000E491F0E0EE0FFF1FE753FF4F259134912B
:105220003093A9052093A805FC01E25CFE4FE491B0
:10523000E093A70551C010928000109281008091E8
:1052400081008860809381008091810081608093DB
:10525000810080911C0690E0FC01E65DFE4FE49128
:10526000F0E0EE0FFF1FE753FF4F2591349130938D
:10527000A6052093A505FC01E25CFE4FE491E093B6
:10528000A4052AC01092B0001092B1008091B00025
:1052900082608093B0008091B10081608093B10002
:1052A00080911C0690E0FC01E65DFE4FE491F0E089
:1052B000EE0FFF1FE753FF4F259134913093A30565
:1052C0002093A205FC01E25CFE4FE491E093A1056E
:1052D00003C08FEF80931D0680910A0190910B010E
:1052E0000E94291F90930B0180930A0161E08AE0DC
:1052F0000E9415101FB7F8948091BC05811127C03A
:10530000E4E3F1E08491E8E4F1E09491E82FF0E047
:10531000EE0FFF1FEA52FF4FA591B491EC91E923E4
:1053200021F461E08AE00E94E50F61E08AE00E94DA
:1053300015108CB580618CBD8CB580648CBD61E02E
:105340008DE00E94151061E08BE00E9415108091A5
:10535000BC058F5F8093BC051FBF8CB5837F8860C1
:105360008CBD8CB58C7F81608CBD8DB581608DBD11
:1053700062E08EE00E94151062E080E10E9415104C
:1053800062E08FE00E94151061E082E00E9415103B
:1053900004E110E020E030E00093FC061093FD06ED
:1053A0002093FE063093FF064EE150E060E070E08F
:1053B000409300075093010760930207709303071F
:1053C00080ED97E0A0E0B0E080930407909305079C
:1053D000A0930607B09307070093E3061093E40633
:1053E0002093E5063093E6064093E7065093E806DF
:1053F0006093E9067093EA068093EB069093EC06BF
:10540000A093ED06B093EE060093CA061093CB0668
:105410002093CC063093CD064093CE065093CF0612
:105420006093D0067093D1068093D2069093D306F2
:10543000A093D406B093D5068DE091E00E9450234E
:1054400025E030E042E050E062E377E0CE010196F3
:105450007C010E94E92022E030E041E050E062E37C
:1054600077E0CE01875B9F4F0E94E920BE01675B1A
:105470007F4FCE018D5B9F4F0E94460F6CE273E021
:10548000CE018D5B9F4F0E944C20B7010E9465208A
:10549000FC0144815581608171818EE196E00E941A
:1054A000FD0D42E050E06EE273E08EE196E00E9476
:1054B000FD0DCE018D5B9F4F0E944621CE01875B83
:1054C0009F4F0E944621C7010E94462144E150E0BF
:1054D00061E373E08EE196E00E94FD0D42E050E052
:1054E0006EE273E08EE196E00E94FD0D82E091E0B5
:1054F0000E94712380910A0190910B019093AC0559
:105500008093AB050E94291F6FEF70E089E00E9435
:1055100051100E943B2460E070E089E00E9451102D
:105520006FEF70E086E00E9451100E943B2460E023
:1055300070E086E00E9451106FEF70E083E00E94FF
:1055400051100E943B2460E070E083E00E94511003
:1055500066E473E0C7010E944F0F60E573E0CE017F
:1055600007960E944F0F6AE573E0CE010D960E94E8
:105570004F0F64E673E0CE0143960E944F0F6EE634
:1055800073E0CE0149960E944F0F68E773E0CE01A9
:105590004F960E944F0F62E873E0CE0185960E94FD
:1055A0004F0F6CE873E0CE018B960E944F0F66E9B7
:1055B00073E0CE01C1960E944F0F60EA73E0CE0106
:1055C000C7960E944F0F60E373E0CE01CD960E9414
:1055D0004F0F62E377E0CE018D5B9F4F0E94460F35
:1055E0006DE473E0CE018D5B9F4F0E944C20BC01A7
:1055F000CE01CD960E942F21CE018D5B9F4F0E9440
:1056000046210E94D5102B013C01F8EE4F0EF3E02D
:105610005F1E611C711C912C1FEF94EFC92EDD24BD
:10562000D39426E0822E3BE3A32E3FE1B32E8FE0FE
:105630000E94BC0F892B11F49924939480E10E945D
:10564000BC0F892B09F4912C0E94D510DC01CB01F1
:1056500084199509A609B70996010D2C000C440B75
:10566000550B281739074A075B07F8F40E94D51035
:105670002B013C01911001C01F5F1A3011F038F46A
:1056800004C080EDC82E87E0D82E01E002C01AE0E9
:1056900000E0B701819E600D711D112482E197E049
:1056A0000E942F210E94C71801C001E0C501019787
:1056B000F1F70111BCCF80912507811104C00E9430
:1056C000042481110BC01092230710922507109219
:1056D00024078AEE90E00E94712367C080EF0E9449
:1056E000DA2301E0D12CC12C11E00E9483236096C3
:1056F0008FAF60970E94832360969FAD6097913033
:1057000019F48130C1F435C02D2D30E098131DC03F
:1057100080912307181738F4F901E85EF84F838168
:10572000802349F402C0181731F090E0193060F47A
:105730001093240709C0ED2DF0E0E85EF84F838157
:10574000802B838391E009C0C12EF901E85EF84FF8
:105750002381802F809582238383892F0E94A82311
:105760001F5F000F11F4D39401E027E02D1508F01E
:10577000BCCF113408F4A7CFC0922307C11003C0D7
:1057800081E08093250780911B07882309F49BCF34
:10579000ABE1B7E0EDEBF5E08D91819345E0E53CC1
:1057A000F407D1F781E08093AA0580EE90E00E9493
:1057B00071238E010D5B1F4F06501109C8010E9415
:1057C00046210E151F05C1F78091BA0581110E946F
:1057D000FC1D0E9429250091B8051091B9050E9471
:1057E000D5106B017C0181E08093B7051127809172
:1057F000B8059091B9050817190789F40E94292561
:105800000E94D510DC01CB018C199D09AE09BF099E
:10581000893B9B40A105B10550F31092B705E0907C
:10582000B505F090B6050091B3051091B40520912F
:10583000B1053091B2054091B8055091B90560911C
:10584000AF057091B0058091AD059091AE050E94B5
:1058500077120E94D5000E94F90EFBCF109221060C
:105860001092200688EE93E0A0E0B0E0809322063C
:1058700090932306A0932406B093250620EF32E0F0
:1058800030931F0620931E0625EC30E030932B0644
:1058900020932A0624EC30E030932D0620932C062A
:1058A00020EC30E030932F0620932E0621EC30E0E0
:1058B000309331062093300622EC30E030933306EB
:1058C0002093320626EC30E03093350620933406E0
:1058D00010923706109238061092390610923A0646
:1058E0001092BE061092BD068093BF069093C0062C
:1058F000A093C106B093C20682E093E09093BC06E9
:105900008093BB0661E274E082E397E00E944F0F50
:1059100010922D0760E087E00E941510E5E4F1E0A9
:10592000E491E0931807E1E3F1E0E491F0E0EE0F99
:10593000FF1FE05EFE4F8591949190931A0780932C
:105940001907109223071092250710922407E3E20B
:10595000F7E0129287E0EB31F807D9F769E473E0DA
:1059600082E197E00E944F0F21E040E06EE089EF76
:1059700096E00E946D1521E040E060E180EE96E047
:105980000E946D1521E040E06FE087EC96E00C94FA
:105990006D151F93FC0199278827BC01E89411918C
:1059A0001032E9F3193010F01E30C8F31B3251F0F9
:1059B0001D3249F4689406C00E94062D610F711DC6
:1059C000811D911D119110531A30B0F33EF4909542
:1059D0008095709561957F4F8F4F9F4F1F910895D0
:1059E0004532510520F4423010F00C94FB2CFB01A1
:1059F0001082CB010895BB274A3031F4992322F459
:105A0000BDE2909581959F4F0C941C2D592F482FE6
:105A1000372F262F660F771F881F991F660F771F56
:105A2000881F991F620F731F841F951F660F771FB2
:105A3000881F991F0895BB27FB015527AA27880FA8
:105A4000991FAA1FA41710F0A41B83955051B9F7F2
:105A5000A05DAA3308F0A95DA193009779F7B11171
:105A6000B1931192CB010C94352DDC01FC01672F11
:105A700071917723E1F7329704C07C916D93708325
:105A80006291AE17BF07C8F308950E94872D08F4EE
:105A900081E00895E89409C097FB3EF490958095C5
:105AA000709561957F4F8F4F9F4F9923A9F0F92FE4
:105AB00096E9BB279395F695879577956795B79562
:105AC000F111F8CFFAF4BB0F11F460FF1BC06F5F48
:105AD0007F4F8F4F9F4F16C0882311F096E911C05A
