:100000006FC100009EC100009CC100009AC10000A9
:1000100098C1000096C1000094C1000092C1000088
:1000200090C100008EC100008CC100008AC1000098
:1000300088C100000C94DE1384C1000082C100005E
:1000400080C100000C943D147CC100007AC1000006
:1000500078C100000C94A61474C100000C94102AFE
:1000600070C100000C945C280C9433286AC1000015
:1000700068C1000066C1000064C1000062C10000E8
:1000800060C100005EC100005CC100005AC10000F8
:100090000C940A280C94E12754C100000C944218D7
:1000A00050C100004EC100004CC100004AC1000018
:1000B00048C1000046C1000044C100000C94201358
:1000C00040C100003EC100003CC100003AC1000038
:1000D00038C1000036C1000034C1000032C1000048
:1000E00030C10000C304C504B904BB04BD04BF048F
:1000F000C1041B0C4C0D460E980ECA0E1A0F981117
:10010000981198114F0F770F770F770F981198115B
:10011000981198119811CA0E1A0F88278B277A27E1
:100120007E278427C2278F27932799279D27A127DA
:10013000A727AB27AF27C227B527B927BD273F2958
:100140004429492953295D29D62967296F29772907
:1001500081298B299529A429AE29D629B829C22914
:10016000CC29496E636F727265637420536F6E673A
:1001700020466F726D617421000000220025002866
:10018000002B002E003100340002010000050108A0
:10019000010B0102010000002100240027002A00B9
:1001A0002D003000330001010000040107010A01A5
:1001B00053746F7020546573740054656D702E20F5
:1001C00073656E736F72206E6F7420666F756E64E8
:1001D0002E00537461727420546573740046697202
:1001E0006D776172652076657273696F6E3A200073
:1001F000000020002300260029002C002F003200E0
:1002000000010000030106010901050505050705B8
:1002100008080808020202020A0A08080404040482
:1002200001010101010101010303030303030303AE
:10023000040707070C0C0C0C0C0C0C0C020202023D
:1002400006060606060606060B0B0B0B0B0B0B0B26
:1002500001021020200808102040102040800201D8
:1002600002010804020101020408102040808040BD
:1002700020100804020180040201804020100804BC
:10028000020108040201010204081020408001025A
:1002900004081020408000000A0B02090C0D0E0813
:1002A000070304010000000000000000000000003F
:1002B000000000000000000000000000000000003E
:1002C00000001211100000000000000000000000FB
:1002D0000000000000000000000000009332822DAA
:1002E00011241FBECFEFD1E2DEBFCDBF00E00CBFB7
:1002F0002AE0A8E2B5E001C01D92AE33B207E1F7F3
:1003000015E0A0E0B2E0EAECF1E700E00BBF02C0CC
:1003100007900D92A832B107D9F711E0CFE6D1E0EE
:1003200000E006C021970109802FFE010E948D3652
:10033000CE36D10780E00807A9F70E948A2D0C94D9
:10034000D4385ECE2F923F924F925F926F927F92FF
:100350008F929F92AF92BF92CF92DF92EF92FF92D5
:100360000F931F93CF93DF93CDB7DEB7C954D10955
:100370000FB6F894DEBF0FBECDBF0E94042A20E165
:1003800037E240E050E00E944F36672B682B692B24
:1003900029F48091D50681110C94D30F8EE797E054
:1003A0000E949426892B09F445C08EE797E00E94AD
:1003B000722690917B05E92FF0E0E85DFA4F80838B
:1003C0009F5F923519F090937B0502C010927B05D8
:1003D0008A3081F5E0917B05F0E0E85DFA4F10820C
:1003E00010927B0581E090E020E0FC01E85DFA4F8F
:1003F00030813A3231F02327019683359105A9F7F0
:1004000019C0818181340CF087538295807F92815D
:10041000913414F0975301C09053890F82130AC08E
:1004200080912805843231F480912B05823511F4B6
:100430000C94F00F0E94042A21E137E240E050E0E2
:100440000E944F36672B682B692B09F0AAC0809158
:10045000800581118BC00E94042A0091FD09109132
:10046000FE092091FF093091000ADC01CB01801BBD
:10047000910BA20BB30B893B9B40A105B10508F082
:1004800090C08091FA099091FB0908EEC02E03E01C
:10049000D02EB6010E943C367C010091F90910E093
:1004A0002091F80930E04091F70950E06091F60999
:1004B00070E08091F50990E00E940F15409157027D
:1004C0005091580220E13EE0429FC001439F900DB1
:1004D000529F900D1124092E000CAA0BBB0B4091CA
:1004E0004606509147066091480670914906840F70
:1004F000951FA61FB71F8093460690934706A093AB
:100500004806B09349060E9466177C010E946E1748
:10051000082F0E9474172A968FAF2A970E947A1785
:1005200029968FAF29970E948017182F0E9486174F
:10053000382FC701B6010E943C36E82E2A962FAD0F
:100540002A9729964FAD2997612F832F0E94972CC8
:1005500081E0809380050E94042A60937C0570935B
:100560007D0580937E0590937F051BC00E94042A21
:1005700000917C0510917D0520917E0530917F05CD
:10058000DC01CB01801B910BA20BB30B813497478D
:10059000AB41B10518F01092800503C081E0809353
:1005A00080051092160610921706109218061092E7
:1005B00019068BEC98E090931D0680931C068091A1
:1005C000C808282E312C30921F0620921E068091DA
:1005D000950990E090932106809320068091C408AD
:1005E000853009F019C18091C8088A3108F467C0C4
:1005F0008091CB089091CC08843F914090F4109268
:100600001B0610921A068FEF9FEFDC0180931606EF
:1006100090931706A0931806B09319068BE090E00C
:100620003EC08091CD089091CE0885974B9708F0F9
:1006300046C0E1EDF8E082E090E040E050E0BA0131
:100640008C010F5F1F4F2091C80830E0021713077D
:1006500074F49F0122503109D9012D913C9127500A
:1006600031092730310510F40C94CA10C8010197E4
:100670009595879590931B0680931A060C972CF4FA
:1006800010921B0610921A061AC040931606509339
:100690001706609318067093190684E090E0909313
:1006A00013068093120600911606109117062091EA
:1006B00018063091190619A2CE01819685C0B6E0C0
:1006C0002B1631040CF4A3C001ED18E0E3E0F0E0D8
:1006D0002896FFAFEEAF2897B5ECCB2EBDE9DB2E09
:1006E000BCE1EB2EB1E8FB2E28968EAD9FAD28978E
:1006F000821593050CF057C0D8016D917C91F801DB
:100700003497A080B18080E090E00E9443342B01B8
:100710003C01B50180E090E00E9443344B015C0154
:100720002DEC3CEC4CE45FE30E94A4349B01AC0153
:10073000C301B2010E943F3487FD17C02DEC3CEC91
:100740004CE45FE3C301B2010E94A4349B01AC01FD
:10075000C501B4010E943F34E82F880FFF0BEE273C
:10076000FF0FEE1FFF27319602C0E0E0F0E0A70187
:10077000960163E971E080E091E00E9421366F010B
:10078000FF0FEE08FF08C626D726E826F92628968A
:10079000EEADFFAD289731962896FFAFEEAF2897C4
:1007A0000E5F1F4FA1CFC0921606D0921706E0929F
:1007B0001806F092190680E290E090931B06809351
:1007C0001A068FEF9FEF6BCFB901A8014F70552725
:1007D00066277727E4E03695279517950795EA95DC
:1007E000D1F701974A3051056105710510F4405D5C
:1007F00001C0495CDC014C9301151105210531054F
:1008000019F70E9496248FE094E00E94962482E0DB
:100810008093C4081092C80860911606709117065C
:100820008BE19AE00E941B2D909311068093100695
:1008300060911606709117068EE09AE00E941B2DBB
:1008400090930F0680930E0660911606709117061E
:1008500081E09AE00E941B2D90930D0680930C0678
:100860000091C9061091CA06F8018081882309F415
:1008700034C10E94042AC0908705D0908805E0907A
:100880008905F0908A05DC01CB018C199D09AE0920
:10089000BF09C0908305D0908405E0908505F09055
:1008A0008605C816D906EA06FB0608F016C10E949E
:1008B000042A6B017C0160938705709388058093FF
:1008C000890590938A051092E8061092E706A80120
:1008D0006AE08A01DA01BC904F5F5F4F80ED8B0DBB
:1008E0002091E7063091E8068A3080F4629FF0019B
:1008F000639FF00D11248B2DBB0C990BC0978E0FAD
:100900009F1F9093E8068093E706E3CF6091E3068C
:100910007091E4068091E5069091E6062115310577
:1009200029F0032E000C440B550B05C02091AC029E
:1009300030E040E050E00E94713620938305309310
:10094000840540938505509386058B2DBB0C990B30
:10095000AA0BBB0BFC01E156F109E730F10530F4BD
:100960008827EE58FF4F8F4F0C948D3610928205DA
:100970000FC081E00BC083E009C085E007C086E0BE
:1009800005C088E003C08AE001C08CE08093820546
:10099000F8018181833219F00F5F1F4F07C08091EA
:1009A00082058F5F809382050E5F1F4FD8018C9167
:1009B0008E3201F58090830590908405A090850586
:1009C000B0908605C501B40122E030E040E050E07F
:1009D0000E947136D501C401820F931FA41FB51F59
:1009E0008093830590938405A0938505B093860535
:1009F0000F5F1F4FF801808180538A3028F4809365
:100A000081050F5F1F4F04C08091AB028093810569
:100A100080918105D8019C919C3211F40F5F1F4F8A
:100A200020918205222309F458C08090830590907C
:100A30008405A0908505B090860590E004973CE081
:100A4000389FF001399FF00D1124E20FF11DEE0FD8
:100A5000FF1FE553FD4FB501A401808191810E94E4
:100A6000BE220E94042ADC01CB018C199D09AE092B
:100A7000BF0988169906AA06BB0678F50E94042AC3
:100A800060938705709388058093890590938A0504
:100A900080917D07813051F0823071F0811111C059
:100AA00080916E008D7F80936E000BC080916F00EF
:100AB0008D7F80936F0005C0809170008D7F809343
:100AC000700060E080917C070E94AD2882E691E092
:100AD0000E94C82490E080E002C0902F812F909364
:100AE000C9068093CA060E94042A00910806109144
:100AF000090620910A0630910B06DC01CB01801B10
:100B0000910BA20BB30B0697A105B10508F489C0A0
:100B100080910802811110C060E070E089E00E94BD
:100B2000182960E070E086E00E94182960E070E01B
:100B300083E00E9418296BC08091D806811167C09C
:100B400000918D0510918E05C801880F991F800FA7
:100B5000911FFC01EE0FFF1FE35DFC4F609104024B
:100B60007091050220813181620F731F709305021D
:100B700060930402FC01EE0FFF1FE15DFC4FC0908B
:100B8000FD05D090FE0520813181C20ED31ED0928A
:100B9000FE05C092FD05880F991FFC01EF5CFC4F1C
:100BA000E090FB05F090FC0580819181E80EF91E34
:100BB000F092FC05E092FB0589E00E941829B6013D
:100BC00086E00E941829B70183E00E9418298091CD
:100BD0008B0590918C05019690938C0580938B05E5
:100BE0008F3F910551F4C801019690938E05809333
:100BF0008D0510928C0510928B0580918D0590913A
:100C00008E05069724F010928E0510928D050E9495
:100C1000042A609308067093090680930A0690934D
:100C20000B068091E9069091EA06892B21F08091CC
:100C300007068111DBC28091EB068111D7C280913A
:100C4000A10581110DC00E94042A60939D05709337
:100C50009E0580939F059093A00581E08093A10558
:100C60008091950581110DC00E94042A6093910521
:100C700070939205809393059093940581E08093FF
:100C800095050E94042A00919D0510919E052091D2
:100C90009F053091A005DC01CB01801B910BA20BBD
:100CA000B30B0091000210910102209102023091D9
:100CB0000302081719072A073B0708F06FC00E94B4
:100CC000042A60939D0570939E0580939F059093E1
:100CD000A00580918F0590919005009799F481E08F
:100CE00090E09093EA068093E90688E893E1A0E01B
:100CF000B0E08093000290930102A0930202B093AF
:100D000003021EC00197E1F484E090E09093EA06AC
:100D10008093E90688E893E1A0E0B0E080930002C8
:100D200090930102A0930202B09303028091C8063F
:100D3000811106C082E090E09093900580938F052A
:100D400080918F05909190058230910581F41092E9
:100D5000EA061092E90640E65AEE60E070E0409341
:100D60000002509301026093020270930302019605
:100D7000833091052CF49093900580938F0504C0E7
:100D80001092900510928F0580910706882321F01C
:100D90001092EA061092E906109207060E94042AB1
:100DA00000919D0510919E0520919F053091A00511
:100DB000DC01CB01801B910BA20BB30B803D974054
:100DC000A105B10508F010C20E94042A0091910506
:100DD000109192052091930530919405DC01CB018F
:100DE000801B910BA20BB30B85369105A105B105B4
:100DF00008F4FCC10E94042A609391057093920547
:100E000080939305909394052091C8068091E906FC
:100E10009091EA06222309F414C1892B89F5CE01A9
:100E200082960E94232C81E0209155023091560237
:100E3000232B09F480E00E94B11FAB01BC01CE015D
:100E400001960E94E81DAE014E5D5F4FBE016F5FCF
:100E50007F4FCE0188960E940320BE01685D7F4FC0
:100E600081EE99E00E94521CCE0188960E94191DC5
:100E7000CE0101960E94191DCE0182960E94191D75
:100E80008091E9069091EA06019709F064C00E94FA
:100E9000661768EE73E00E943C36BC01CE01C49632
:100EA0000E94D82B0E946E17BC01CE018E960E9424
:100EB000D82B0E947417BC01CE0182960E94D82BB9
:100EC000BE016E5D7F4FCE0188960E94C327BE0192
:100ED000625D7F4FCE0188960E94411CBE016C5C12
:100EE0007F4F0E94411CBC01CE01CA960E94C327BD
:100EF000CE0101960E94232CAE01465C5F4FBE01DD
:100F00006F5F7F4FCE01805C9F4F0E940320BE0128
:100F1000605C7F4F81EE99E00E94521CCE01805CA4
:100F20009F4F0E94191DCE0101960E94191DCE01EE
:100F3000CA960E94191DCE0188960E94191DCE01E5
:100F400082960E94191DCE018E960E94191DCE0117
:100F5000C4960E94191D8091E9069091EA060497B3
:100F600009F044C181E02091550230915602232BB3
:100F700009F480E00E94B11FAB01BC01CE01CA960A
:100F80000E94E81D0E94661768EE73E00E943C36DE
:100F9000BC01CE018E960E94D82B0E946E17BC0118
:100FA000CE0188960E94D82B0E947417BC01CE01F6
:100FB00001960E94D82BBE016F5F7F4FCE018296B3
:100FC0000E94C327BE01685D7F4FCE0182960E94BA
:100FD000411CBE01625D7F4F0E94411CBC01CE01DD
:100FE000C4960E94C327AE01465C5F4FBE016C5C95
:100FF0007F4FCE01805C9F4F0E940320BE01605C4A
:101000007F4F81EE99E00E94521CCE01805C9F4F81
:101010000E94191DCE01C4960E94191DCE01829610
:101020000E94191DCE0101960E94191DCE018896BD
:101030000E94191DCE018E960E94191DCE01CA96DE
:10104000D0C0892B09F064C0CE01CA960E94232C1F
:101050000E94661768EE73E00E943C36BC01CE0128
:101060008E960E94D82B0E946E17BC01CE018896E6
:101070000E94D82B0E947417BC01CE0101960E94D9
:10108000D82BBE016F5F7F4FCE0182960E94C3278F
:10109000BE01685D7F4FCE0182960E94411CBE0159
:1010A000625D7F4F0E94411CBC01CE01C4960E942C
:1010B000C327AE01465C5F4FBE016C5C7F4FCE0123
:1010C000805C9F4F0E940320BE01605C7F4F81EED9
:1010D00099E00E94521CCE01805C9F4F0E94191D16
:1010E000CE01C4960E94191DCE0182960E94191D40
:1010F000CE0101960E94191DCE0188960E94191DED
:10110000CE018E960E94191DCE01CA960E94191D0D
:101110008091E9069091EA06019709F067C00E9464
:10112000661768EE73E00E943C36BC01CE01C4969F
:101130000E94D82B0E946E17BC01CE018E960E9491
:10114000D82B0E947417BC01CE0182960E94D82B26
:10115000BE016E5D7F4FCE0188960E94C327BE01FF
:10116000625D7F4FCE0188960E94411CBE016C5C7F
:101170007F4F0E94411CBC01CE01CA960E94C3272A
:10118000CE0101960E94232CAE01465C5F4FBE014A
:101190006F5F7F4FCE01805C9F4F0E940320BE0196
:1011A000605C7F4F81EE99E00E94521CCE01805C12
:1011B0009F4F0E94191DCE0101960E94191DCE015C
:1011C000CA960E94191DCE0188960E94191DCE0153
:1011D00082960E94191DCE018E960E94191DCE0185
:1011E000C4960E94191D02C01092F2060E9477193F
:1011F00088EC99E00E948C178FEA99E00E948C1786
:1012000086E999E00E948C178091EB06811103C05A
:10121000109223062DC00E94042A0091EC06109122
:10122000ED062091EE063091EF06DC01CB01801B2C
:10123000910BA20BB30B81369A4EA105B105C0F0FC
:101240001092EB06E091E906F091EA06EE0FFF1F1F
:10125000EF55FC4F808191819093EA068093E906D7
:10126000880F991FFC01E75FFD4F80818093230663
:101270008091C8099091C909181619063CF080910F
:10128000100690911106019709F099C081E08093B2
:1012900007061092CA061092C90644E650E060E0C4
:1012A00070E088EE93E00E94BE220E94042A6093C0
:1012B000EC067093ED068093EE069093EF06809116
:1012C000E9069091EA0601968630910529F09093FF
:1012D000EA068093E90604C01092EA061092E90635
:1012E0002091E9063091EA068901000F111FF801EB
:1012F000E75FFD4F808180932306D9011197FD019F
:10130000EE0FFF1FE758FC4F608171816115710579
:1013100009F446C0AB0141505109FA01EE0FFF1F1D
:10132000EF5AFC4F0190F081E02DEA17FB07C1F561
:101330006230710509F04CC788E1E3EBF2E0DE01B1
:10134000119601900D928A95E1F780914902909152
:101350004A0283709927892B21F48DE190E09C83C8
:101360008B832091450230914602E0914702F09133
:1013700048023197EE0FFF1FCC24C394D12CCC0E22
:10138000DD1EEC0DFD1D80819181821793070CF00D
:101390001FC78AE090E09093EA068093E906C8C7E9
:1013A0002331310561F0295031092230310538F0FF
:1013B0000E946B22F801EF5CFD4F91838083809146
:1013C000C8099091C90997FD07C0809110069091B6
:1013D0001106019609F008C144E650E060E070E0B3
:1013E00088EE93E00E94BE228091EB06811152C0EC
:1013F0000E94042A6093EC067093ED068093EE063B
:101400009093EF068091E9069091EA06892B09F006
:1014100041C00E947A17BC01CE018E960E94D82B43
:101420000E948017BC01CE0188960E94D82B0E9492
:101430008617BC01CE0101960E94D82BBE016F5FBA
:101440007F4FCE0182960E94C327BE01685D7F4F09
:10145000CE0182960E94411CBE01625D7F4F0E94B8
:10146000411C66E174E00E942A1CBC0181EE99E0F7
:101470000E94041DCE0182960E94191DCE01019684
:101480000E94191DCE0188960E94191DCE018E96CC
:101490000E94191D8091E9069091EA06019709F0D2
:1014A0006AC00E94741790934602809345020E947E
:1014B0006E1790934802809347020E94661768EE69
:1014C00073E00E943C36BC0190934A02809349022B
:1014D0008091430290914402892B89F4CE018E962B
:1014E0000E94D82B6091470270914802CE018896E5
:1014F0000E94D82B609145027091460210C0CE0127
:101500008E960E94D82B6091450270914602CE01C2
:1015100088960E94D82B6091470270914802CE01B4
:1015200001960E94D82BBE016F5F7F4FCE0182963D
:101530000E94C327BE01685D7F4FCE0182960E9444
:10154000411CBE01625D7F4F0E94411CBC0181EEC7
:1015500099E00E94041DCE0182960E94191DCE01C1
:1015600001960E94191DCE0188960E94191DCE0178
:101570008E960E94191DE091E906F091EA06EE0FA1
:10158000FF1FEF55FC4F208131813093EA062093F5
:10159000E9062D30310549F481E090E09093520244
:1015A0008093510280E8809322069091EB0681E0BF
:1015B00089278093EB068901000F111FF801E75F6F
:1015C000FD4F808180932306A90142515109423089
:1015D000510550F02930310539F00E946B22F80195
:1015E000EF5CFD4F918380838091AF099091B009AA
:1015F000009739F480910E0690910F06019721F51E
:1016000007C090930606809305061816190694F7EE
:1016100081E0809307061092CA061092C90644E63C
:1016200050E060E070E088EE93E00E94BE220E94ED
:1016300086218091EB06811107C01092D80660E0E8
:1016400087E090E00E94731980910506909106064C
:10165000019661F58091B109882341F11092250628
:101660008091EB06882329F10E94042A009101064B
:10167000109102062091030630910406DC01CB0193
:10168000801B910BA20BB30B87399105A105B10506
:1016900080F00E94042A60930106709302068093F2
:1016A0000306909304060E94862103C081E0809384
:1016B00025068091960990919709009739F48091B9
:1016C0000C0690910D060197B1F507C090930006A6
:1016D0008093FF051816190694F711E0109307067A
:1016E0001092CA061092C90644E650E060E070E02D
:1016F00088EE93E00E94BE220E9427218091EB0693
:10170000811119C01093D80661E087E090E00E9433
:1017100073196091040288E090E00E94731960914F
:10172000FD0589E090E00E9473196091FB058AE055
:1017300090E00E9473198091FF0590910006019638
:1017400061F580919809882341F1109224068091D7
:10175000EB06882329F10E94042A0091F7051091D5
:10176000F8052091F9053091FA05DC01CB01801BC9
:10177000910BA20BB30B87399105A105B10580F040
:101780000E94042A6093F7057093F8058093F90589
:101790009093FA050E94272103C081E080932406DC
:1017A0008091EB06811139C08091AF099091B00909
:1017B00097FD06C080910E0690910F06019691F458
:1017C00044E650E060E070E088EE93E00E94BE22C4
:1017D00081E08093080261E080E090E00E9473194C
:1017E0000E94B220809196099091970997FD06C0BA
:1017F00080910C0690910D06019679F444E650E034
:1018000060E070E088EE93E00E94BE221092080231
:1018100060E080E090E00E947319E091E906F091A9
:10182000EA06E431F10508F083C58827E758FF4F41
:101830008F4F0C948D368091F2068111EFC00E947B
:10184000042A0091C3051091C4052091C50530916B
:10185000C605DC01CB01801B910BA20BB30B893EAB
:101860009340A105B10508F4C8C00E94042A609302
:10187000C3057093C4058093C5059093C60581E0A8
:101880002091550230915602232B09F480E00E94EA
:10189000B11F6B017C018091BB05811113C00E94B7
:1018A000042ADC01CB01845B9B4FAF4FBF4F809379
:1018B000B7059093B805A093B905B093BA0581E038
:1018C0008093BB058091AF05811109C061E174E08F
:1018D00089EA95E00E94CC2781E08093AF050E94C1
:1018E000042A0091B7051091B8052091B9053091EF
:1018F000BA05DC01CB01801B910BA20BB30B893E17
:101900009340A105B10508F44EC00E94042A6093DB
:10191000B7057093B8058093B9059093BA05809187
:10192000550290915602892B11F012E301C017E382
:1019300020E030E0A901C701B6010E941D3620E079
:1019400030E040E05FE387FD05C0C701B6010E94BB
:10195000883504C0C701B6010E9487350E94EC3566
:1019600024E630E040E050E00E947136CE018296DD
:101970000E94D82BBE016E5D7F4FCE0101960E9462
:10198000C327612FCE0101960E940D1CBC0189EA7C
:1019900095E00E94041DCE0101960E94191DCE0102
:1019A00082960E94191D69EA75E0CE0101960E9497
:1019B000C327CE0188960E94232CBE01685D7F4F0D
:1019C000CE0182960E94C327BE016F5F7F4FCE017A
:1019D00082960E94411CBC01CE018E960E94C327B4
:1019E000CE0182960E94191DCE0188960E94191D73
:1019F000CE0101960E94191D06C061EE79E0CE016C
:101A00008E960E94C327BE01625D7F4F81EE99E0F2
:101A10000E94521CCE018E960E94191D8091CC0509
:101A200081110DC00E94042A6093C8057093C905F6
:101A30008093CA059093CB0581E08093CC050E94EA
:101A4000042A0091C8051091C9052091CA0530915A
:101A5000CB05DC01CB01801B910BA20BB30B893EA4
:101A60009340A105B10508F40AC10E94042A6093BD
:101A7000C8057093C9058093CA059093CB059091D2
:101A8000C70581E089278093C705882311F080EC82
:101A9000F4C010922206F3C08091F2068111ECC0CE
:101AA0008091EF05811113C00E94042ADC01CB0153
:101AB00087519C4FAF4FBF4F8093EB059093EC0540
:101AC000A093ED05B093EE0581E08093EF05809142
:101AD000E305811144C00E94661768EE73E00E941E
:101AE0003C36BC01CE0101960E94D82B0E946E1795
:101AF000BC01CE0182960E94D82B0E947417BC01B3
:101B0000CE018E960E94D82BBE01625D7F4FCE0122
:101B100088960E94C327BE016E5D7F4FCE018896D6
:101B20000E94411CBE016F5F7F4F0E94411CBC019F
:101B30008DED95E00E94C32781E08093E305CE01FF
:101B400088960E94191DCE018E960E94191DCE0105
:101B500082960E94191DCE0101960E94191D809146
:101B6000D505811107C0809143028093D40581E09F
:101B70008093D5050E94042A0091EB051091EC0595
:101B80002091ED053091EE05DC01CB01801B910B1E
:101B9000A20BB30B893E9340A105B10558F4809187
:101BA000D40590E0209143023091440282179307BC
:101BB00009F451C00E94042A6093EB057093EC0570
:101BC0008093ED059093EE0580914302909144023D
:101BD000892B09F09FC30E946617BC01CE010196B4
:101BE0000E94D82B0E946E17BC01CE0182960E94E3
:101BF000D82B0E947417BC01CE018E960E94D82B60
:101C0000BE01625D7F4FCE0188960E94C327BE0150
:101C10006E5D7F4FCE0188960E94411CBE016F5FB2
:101C20007F4F0E94411C69E30E940D1CBC018DED99
:101C300095E00E94041DCE0188960E94191DCE01D8
:101C40008E960E94191DCE0182960E94191DCE010A
:101C500001960E94191D6DED75E0CE0101960E945E
:101C6000C327BE016F5F7F4F81EE99E00E94521C37
:101C7000CE0101960E94191D80E4809322060E94E5
:101C8000CA201092F1061092F00652C360914F02E2
:101C900070915002CE018E960E94D82B60914D0219
:101CA00070914E02CE0188960E94D82B60914B0213
:101CB00070914C02CE0101960E94D82BBE016F5F3D
:101CC0007F4FCE0182960E94C327BE01685D7F4F81
:101CD000CE0182960E94411CBE01625D7F4F0E9430
:101CE000411C66E174E00E942A1CBC0181EE99E06F
:101CF0000E94041DCE0182960E94191DCE010196FC
:101D00000E94191DCE0188960E94191DCE018E9643
:101D10000E94191D1092F1061092F0068091510256
:101D200090915202019789F580E8809322062FC096
:101D300060915302709154024AE0CE0182960E9453
:101D40001E1D6CE474E0CE0101960E94CC27BE01FA
:101D50006E5D7F4FCE0101960E94411C64E174E0EC
:101D60000E942A1CBC0181EE99E00E94041DCE0154
:101D700001960E94191DCE0182960E94191D83E3CF
:101D800090E09093F1068093F006109222060E9454
:101D9000CA20CEC28091F206811133C081E0209129
:101DA000550230915602232B09F480E00E94B11FA6
:101DB000AB01BC01CE0101960E94E81DBE016F5F20
:101DC0007F4F81EE99E00E94521CCE0101960E9445
:101DD000191D8091550290915602892B51F481E38F
:101DE00090E09093F1068093F00680E480932206C1
:101DF00008C083E290E09093F1068093F006109281
:101E0000220681E02091550230915602232B09F4DD
:101E100080E00E94B11F20E030E0A9010E943F3421
:101E20009091220687FF02C0906801C09F7790932F
:101E300022067EC26091570270915802CE0101962F
:101E40000E94D82BBE016F5F7F4FCE0182960E9409
:101E5000C32762E174E0CE0182960E942A1CBC0175
:101E600081EE99E00E94041DCE0182960E94191D08
:101E7000CE0101960E94191D8FE090E09093F1062B
:101E80008093F006809157029091580297FD03C00D
:101E9000109222064DC280E88093220649C28091AA
:101EA000430290914402892B79F46AE174E081EE57
:101EB00099E00E94AA1C83E090E090931E02809318
:101EC0001D028CE090E00EC064E274E081EE99E0C7
:101ED0000E94AA1C8CE090E090931E0280931D0249
:101EE00083E090E09093200280931F0221C28091B2
:101EF0004302909144026091490270914A02892BF9
:101F000089F4CE018E960E942C2B6091470270912D
:101F10004802CE0188960E94D82B609145027091AC
:101F2000460210C0CE018E960E942C2B6091450275
:101F300070914602CE0188960E94D82B609147028C
:101F400070914802CE0101960E94D82BBE016F5FAE
:101F50007F4FCE0182960E94C327BE01685D7F4FEE
:101F6000CE0182960E94411CBE01625D7F4F0E949D
:101F7000411C68E174E00E942A1CBC0181EE99E0DA
:101F80000E94041DCE0182960E94191DCE01019669
:101F90000E94191DCE0188960E94191DCE018E96B1
:101FA0000E94191DC5C10E945A2AE090D306F090E4
:101FB000D4060091D1061091D2062091CF0630911F
:101FC000D0064091D6065091D7066091CD0670910B
:101FD000CE068091CB069091CC0621D50C94CE01F3
:101FE00080912C058D3411F00C941A0280912D05EE
:101FF000833411F00C941A0250912F051091300582
:10200000B0903105A0903205E0903305F090340592
:1020100080E090E0ECE0F0E09F01285D3A4FD901CC
:102020002C912C3231F401968830910511F4EF5F38
:1020300005C03196E335F10579F7E0E0F0E0E85DC1
:10204000FA4F208101813281D3806481062E000CF9
:10205000770B605371094AE0469FC001479F900D7E
:1020600011248053984F6581860F911D67FD9A95C5
:10207000BC01625178406531710510F00C941A0270
:10208000E32F330FFF0BF0974E9FB0014F9F700D62
:1020900011246D0D711DD7FC7A95FB01F1973C97CA
:1020A00010F00C941A02E22F220FFF0BF0974E9FB4
:1020B00090014F9F300D1124200F311D07FD3A95DF
:1020C000F901F1977F9710F00C941A02C52E550F65
:1020D000DD08B0E3CB1AD1084C9DF0014D9DF00D09
:1020E00011246F01C10ED11C17FDDA948601005333
:1020F00011090831110510F00C941A02CB2CBB0CFD
:10210000DD0850E3C51AD1084C9DF0014D9DF00D3E
:102110001124DF01AA0DB11DA7FCBA95D097AC33ED
:10212000B10510F00C941A02CE2CEE0CDD08E0E3A1
:10213000CE1AD1084C9DF0014D9DF00D1124AF0138
:102140004F0D511DF7FC5A95405351094C33510521
:1021500010F00C941A020093F509A093F60940932D
:10216000F709205331092093F809605371096093EE
:10217000F909C0979093FB098093FA090E94042AF9
:102180006093FD097093FE098093FF099093000A04
:102190000C941A0220813181235131092F303105ED
:1021A00048F4440F551F661F771F4160029634960E
:1021B0000C942003208131812A50310929303105C6
:1021C00010F00C945F03440F551F661F771FEECF6E
:1021D0001092EB065093EA064093E906452B99F4DA
:1021E00075D67C017BD68C017FD69C014091410243
:1021F0005091420260913F027091400280913D02F5
:1022000090913E020CD48091E9069091EA060197E4
:10221000D9F4E0904902F0904A02009147021091EF
:102220004802809045029090460264D65C0168D6D0
:102230006C016CD69401A501B601F1D36091430203
:102240008DE090E00E9473198091E9069091EA0672
:102250000297C1F460914B0282E090E00E947319F2
:1022600060914D0283E090E00E94731960914F02EB
:1022700084E090E00E9473196091510286E090E042
:102280000E9473198091E9069091EA06039731F450
:102290006091530281E090E00E9473198091E906F9
:1022A0009091EA06049731F4609155028BE090E03A
:1022B0000E9473198091E9069091EA06059749F406
:1022C0006091570280917F02681B8CE090E00E9431
:1022D0007319FCD57C0102D6082F06D62A968FAF3B
:1022E0002A9708D629968FAF29970AD6182F0ED687
:1022F000382FC70168EE73E00E943C36E82E2A961C
:102300002FAD2A9729964FAD2997612F832F0E94D1
:10231000972C0EC0DBD5BC01CE0101960E94D82BB4
:10232000E3D5BC01CE0182960E94D82BD7D563CCD1
:10233000C75BDF4F0FB6F894DEBF0FBECDBFDF9196
:10234000CF911F910F91FF90EF90DF90CF90BF90B2
:10235000AF909F908F907F906F905F904F903F9045
:102360002F90089585ED8093BC008091BC0084FD82
:10237000FCCF10924B07089540918806262F30E03D
:10238000240F311D21323105DCF420914B0724301C
:10239000C9F4FC0180E090E0861758F4309188067B
:1023A0002191DC01AA59B94FA30FB11D2C930196BD
:1023B000F3CF80918806680F6093880680E00895C7
:1023C00081E0089582E008950895E091BE0680912D
:1023D000BD06E81730F4F0E0EA5DF94F808190E047
:1023E00008958FEF9FEF08959091BE068091BD06EE
:1023F000981750F4E92FF0E0EA5DF94F208130E0C2
:102400009F5F9093BE0602C02FEF3FEFC901089572
:102410008091BD0690E02091BE06821B910908952F
:10242000CF92DF92EF92FF920F931F93CF93DF93A0
:102430007C01262F972F8A0180914C07882391F0E9
:10244000C62FD72F6E01C40ED51ECC15DD0569F041
:102450006991D701ED91FC910190F081E02DC701C8
:102460001995F3CF642F822F87DFC801DF91CF91B9
:102470001F910F91FF90EF90DF90CF900895CF9331
:10248000DF931F92CDB7DEB7698320914C072223DB
:10249000D1F020916F07203240F021E030E0FC01C4
:1024A0003383228380E090E014C080914D07E82FB1
:1024B000F0E0E25BF84F998190838F5F80934D0746
:1024C00080936F0704C061E0CE01019655DF81E083
:1024D00090E00F90DF91CF910895089580E090E013
:1024E000089560934606709347068093480690933C
:1024F0004906DC01CB01845D9E4FAF4FBF4F8093F7
:10250000B9069093BA06A093BB06B093BC0682E0CE
:1025100090E09093B8068093B7060E94042A6093D7
:10252000B3067093B4068093B5069093B6060895EB
:10253000CF92DF92EF92FF921F93CF93DF93909110
:102540002506911103C08FEF9FEF72C09091240672
:102550009923C9F3182FC0912306D0E080915E061D
:1025600081110DC00E94042A60935A0670935B0685
:1025700080935C0690935D0681E080935E060E94E6
:10258000042AC0905A06D0905B06E0905C06F0905A
:102590005D06DC01CB018C199D09AE09BF098D32A6
:1025A0009140A105B105D8F00E94042A60935A0613
:1025B00070935B0680935C0690935D06809159064C
:1025C00091E0982790935906992329F01092580684
:1025D0001092570604C0D0935806C0935706209116
:1025E000570630915806209530954091220650E0CC
:1025F0002423352326FF04C081E08093560602C0C1
:102600001092560627FF04C081E08093550602C051
:102610001092550680915906882309F494CF02C080
:10262000D595C7951A95E2F7C0FF8DCF80E09CE362
:10263000DF91CF911F91FF90EF90DF90CF900895A1
:102640001F920F920FB60F9211240BB60F922F9379
:102650003F934F935F936F937F938F939F93AF932A
:10266000BF93EF93FF938091C5080E948528209126
:10267000C9083091CA082F5F3F4F3093CA08209392
:10268000C9089091C808953618F096E09093C40850
:102690009091C4089430C9F128F4923069F09330D5
:1026A000D1F05EC0953009F451C0963009F058C0A1
:1026B00091E09093950951C0811152C02091C908B1
:1026C0003091CA082436310508F442C010929509A9
:1026D0001092C8081CC0813009F042C0E091C808BF
:1026E00091E09E0F9093C808F0E02091C9083091C6
:1026F000CA08EE0FFF1FEC53F74F30872783109265
:10270000CA081092C90894E029C0811117C0E0914D
:10271000C80891E09E0F9093C808F0E02091C90886
:102720003091CA08EE0FFF1FEC53F74F3087278315
:102730001092CA081092C90893E010C02091C908ED
:102740003091CA082536310558F007C0811108C0FC
:102750001092CA081092C90803C095E09093C4086B
:102760009091C7089923B9F081110AC08091C608D9
:10277000882321F08091C60861E009C02F9A0BC020
:102780008091C608882331F08091C60860E00E94DD
:10279000AD2801C02F98FF91EF91BF91AF919F910C
:1027A0008F917F916F915F914F913F912F910F90FA
:1027B0000BBE0F900FBE0F901F9018951F920F9297
:1027C0000FB60F9211240BB60F922F933F934F9396
:1027D0005F936F937F938F939F93EF93FF934091BA
:1027E00070075091710760917207709173074115DE
:1027F00051056105710599F08091BF06E091C00611
:10280000F091C1069081892780831416150616065B
:102810001706D4F4415051096109710915C080911E
:1028200070008D7F809370009091BF06E091C0068C
:10283000F091C1068081282F30E0892F90E08095AB
:102840009095822393238083409370075093710760
:102850006093720770937307FF91EF919F918F912F
:102860007F916F915F914F913F912F910F900BBE90
:102870000F900FBE0F901F9018951F920F920FB6DA
:102880000F9211240BB60F922F933F938F939F9328
:10289000AF93BF93EF93FF93809174079091750767
:1028A000A0917607B0917707892B8A2B8B2B51F15A
:1028B0008091C206E091C306F091C40690818927F9
:1028C00080838091740790917507A0917607B091ED
:1028D0007707181619061A061B064CF5809174071F
:1028E00090917507A0917607B09177070197A1099C
:1028F000B1098093740790937507A0937607B093FE
:10290000770715C080916F008D7F80936F00909145
:10291000C206E091C306F091C4068081282F30E002
:10292000892F90E080959095822393238083FF9157
:10293000EF91BF91AF919F918F913F912F910F9008
:102940000BBE0F900FBE0F901F9018951F920F9205
:102950000FB60F9211240BB60F922F933F938F93C4
:102960009F93AF93BF93EF93FF93809178079091DC
:102970007907A0917A07B0917B07892B8A2B8B2B43
:1029800051F18091C506E091C606F091C70690818D
:10299000892780838091780790917907A0917A07A1
:1029A000B0917B07181619061A061B064CF5809184
:1029B000780790917907A0917A07B0917B070197EA
:1029C000A109B1098093780790937907A0937A07BA
:1029D000B0937B0715C080916E008D7F80936E0051
:1029E0009091C506E091C606F091C7068081282F18
:1029F00030E0892F90E08095909582239323808307
:102A0000FF91EF91BF91AF919F918F913F912F9146
:102A10000F900BBE0F900FBE0F901F9018953F9216
:102A20004F925F926F927F928F929F92AF92BF92DE
:102A3000CF92DF92EF92FF920F931F93CF93DF938A
:102A4000382E962E842EF90184E6E816F1042CF037
:102A500082EBE81A87E0F80A03C08EE1E80EF11C69
:102A6000E092500600934F06E0934E0630924C06DB
:102A700090924B0680924A06AE2DB0E020E833E3F8
:102A800041EE51E00E946E352B013C0122EB37E014
:102A9000FF2484E6C82ED12CC0E9D1E0C901825BB5
:102AA00097408E159F05DCF4C90183709927892B07
:102AB00099F4C901B6010E943C36892B31F4C90151
:102AC000BE010E943C36892B39F480E8480E81E52E
:102AD000581E81E0681E711C2F5F3F4FDFCF8EE4D0
:102AE000E81A88EFF80AC70164E670E00E943C36F5
:102AF0006C01C70160E971E00E943C365C01C1E0F5
:102B0000D0E0112783E0E822FF24C017D1072CF57D
:102B1000C230D10589F4E114F10471F4C114D10477
:102B200019F4A114B10441F480E8480E8BE3581E57
:102B300086E2681E711C0FC0DE01A452BC4FAC912E
:102B4000B0E020E831E541E050E00E946E35460EED
:102B5000571E681E791E2196D8CF292D30E0ACE390
:102B6000B0E00E9478356B017C01C80CD11CE11CDF
:102B7000F11C232D30E0A0E1BEE00E947835C60EA6
:102B8000D71EE81EF91EDF01BB27119720E831E5AB
:102B900041E050E00E949536DC01CB018C0D9D1D7B
:102BA000AE1DBF1DBC01CD01640D751D861D971D99
:102BB000DF91CF911F910F91FF90EF90DF90CF9019
:102BC000BF90AF909F908F907F906F905F904F904D
:102BD0003F9087CCCF92DF92EF92FF920F931F939B
:102BE0000E94042AC090B306D090B406E090B506C7
:102BF000F090B6068B019C010C191D092E093F09A6
:102C00008091460690914706A0914806B0914906EA
:102C1000083E134021053105D0F00196A11DB11DDC
:102C20008093460690934706A0934806B0934906C2
:102C3000B701A60148515C4F6F4F7F4F4093B306D9
:102C40005093B4066093B5067093B606C9CF409111
:102C5000B9065091BA066091BB067091BC06841704
:102C60009507A607B70780F1E091B106F091B2068B
:102C7000309751F11995611571058105910511F094
:102C800030DC22C08091460690914706A09148060C
:102C9000B0914906845D9E4FAF4FBF4F8093B906F8
:102CA0009093BA06A093BB06B093BC0681E090E077
:102CB0002091B7063091B806232B11F480E090E004
:102CC0009093B8068093B7066091460670914706C8
:102CD00080914806909149061F910F91FF90EF90C7
:102CE000DF90CF9008954F925F926F927F928F9274
:102CF0009F92AF92BF92CF92DF92EF92FF920F938B
:102D00001F93CF93DF934B015C018091AD069091AF
:102D1000AE06A091AF06B091B00688169906AA0635
:102D2000BB0609F4C2C08CE3C82ED12CE12CF12CD7
:102D3000C501B401A70196010E944F3660934A066F
:102D4000CA01B901A70196010E944F3660934B0654
:102D5000CA01B90128E130E040E050E00E944F365E
:102D600069017A0160934C06CA01B9016C5F7F4F1B
:102D70008F4F9F4F27E030E040E050E00E944F36F9
:102D80006F5F60934D06412C512C320140E004E608
:102D900010E0C0E9D1E0242F30E02E54384FF90183
:102DA000E370FF27309789F4C901B8010E943C36CF
:102DB000892B31F4C901BE010E943C36892B29F4CC
:102DC0008EE691E0A0E0B0E004C08DE691E0A0E0E6
:102DD000B0E0480E591E6A1E7B1ED301C201AA270D
:102DE000BB27C816D906EA06FB0610F04F5FD3CF03
:102DF00040935006309799F4C90164E670E00E9450
:102E00003C36892B39F4C90160E971E00E943C36F7
:102E1000892B29F48EE691E0A0E0B0E004C08DE6B5
:102E200091E0A0E0B0E0481A590A6A0A7B0AC41887
:102E3000D508E608F708C90164E670E00E943C3650
:102E4000EC01C90160E971E00E943C36ADEDB3E0F0
:102E500020E0213039F4309749F4209729F4009785
:102E600029F402C04C9103C04DE101C04CE150E097
:102E700060E070E0C416D506E606F70640F0C41A16
:102E8000D50AE60AF70A2F5F11962C3011F72F5F4B
:102E900020934F06C394C0924E068092AD06909246
:102EA000AE06A092AF06B092B006DF91CF911F910F
:102EB0000F91FF90EF90DF90CF90BF90AF909F90D9
:102EC0008F907F906F905F904F90089583DE0BDF1F
:102ED0008091500690E08E54984F08957BDE03DF7A
:102EE00080914F0690E0089575DEFDDE80914E06DC
:102EF00090E008956FDEF7DE80914A0690E0089535
:102F000069DEF1DE80914B0690E0089563DEEBDE32
:102F100080914C0690E00895CF92DF92EF92FF925D
:102F2000CF93DF93EC010E94042A6B017C018F8513
:102F30000E94852821E0892B09F420E0298B8889CB
:102F4000811103C081E08227898B29898A8928170A
:102F500021F0CD8ADE8AEF8AF88E8D899E89AF892D
:102F6000B88DB701A601481B590B6A0B7B0BDB011F
:102F7000CA01CB80DC80ED80FE80C416D506E60653
:102F8000F70664F43A81231749F02A83222331F0AB
:102F90004B895C894F5F5F4F5C8B4B8B3A81311162
:102FA0000CC0CF80D884E984FA84C816D906EA0612
:102FB000FB06ACF48B899C890EC0CB84DC84ED8449
:102FC000FE84C816D906EA06FB064CF48B899C8958
:102FD000919581959109998388831C8A1B8A2A8BF4
:102FE000DF91CF91FF90EF90DF90CF9008950F93F6
:102FF0001F93CF93DF931F92CDB7DEB78C01862F3F
:10300000F8016787408B91E04927418B428B148AF6
:10301000138A118210821282158A168A178A108EDC
:1030200044E150E060E070E043835483658376833D
:103030004AEF50E060E070E0478350876187728715
:1030400048EE53E060E070E04387548765877687F9
:1030500060E029830E94DC28F801808929818111A0
:103060000BC0222349F061E087850F90DF91CF915B
:103070001F910F910C94AD280F90DF91CF911F916C
:103080000F9108951F920F920FB60F9211240BB655
:103090000F922F933F934F935F936F937F938F93F1
:1030A0009F93AF93BF93EF93FF938091B900887F75
:1030B000803609F49CC068F5883209F45BC090F44E
:1030C000803109F454C038F4882309F4F6C08830FC
:1030D00009F44DC0F5C0883109F44CC0803209F4C0
:1030E0005DC0EEC0803409F468C048F4803309F450
:1030F00055C0883309F0E4C080934907D8C08035B3
:1031000009F44FC0883509F45DC0883409F0D8C08F
:10311000D6C0883909F4C7C0A8F4883709F467C055
:1031200038F4883609F463C0803709F460C0C8C039
:10313000883809F4B8C0803909F45FC0803809F0D4
:10314000BFC05BC0803B09F486C038F4803A09F404
:1031500066C0883A09F47FC0B3C0803C09F4A7C0B8
:10316000883C09F4A4C0883B09F48AC0A9C08091B6
:10317000260710C09091480780914707981770F56F
:10318000E091480781E08E0F80934807F0E0E95D09
:10319000F84F80818093BB0085EC86C080934907FF
:1031A0008EC0E091480781E08E0F809348078091A0
:1031B000BB00F0E0E95DF84F808390914807809173
:1031C00047076EC0E091480781E08E0F8093480763
:1031D0008091BB00F0E0E95DF84F808380914A0761
:1031E00081116DC081E08093250784EA61C083E08E
:1031F00080934B071092AC06CFCF8091AC06803203
:1032000008F051C0E091AC0681E08E0F8093AC06CF
:103210008091BB00F0E0E457F94F8083BDCF85EC8F
:103220008093BC0010924B078091AC06803230F442
:10323000E091AC06F0E0E457F94F10826091AC06E3
:1032400070E0E0918A06F0918B068CE896E0199583
:103250001092AC0635C084E080934B07109289062B
:1032600010928806E0918606F09187061995809164
:103270008806811105C081E0809388061092660659
:10328000E091890681E08E0F80938906F0E0EA598B
:10329000F94F80818093BB009091890680918806C8
:1032A000981708F479CF85E88093BC0009C085ECB5
:1032B0008093BC0010924B0703C01092490752D86C
:1032C000FF91EF91BF91AF919F918F917F916F91FE
:1032D0005F914F913F912F910F900BBE0F900FBEBA
:1032E0000F901F9018950C9460350C9458352F92C0
:1032F0003F924F925F926F927F928F929F92AF9286
:10330000BF92CF92DF92EF92FF920F931F93CF93D2
:10331000DF9300D01F92CDB7DEB70E94DF29009166
:103320005106109152062091530630915406DC014B
:10333000CB01801B910BA20BB30B8A319144A105E9
:10334000B10508F4E0C10E94DF2960935106709333
:103350005206809353069093540681EE99E025D24D
:103360006B017C0160E08AE00E94AD288AE0482E73
:10337000512C612C712CC701B601A30192010E944E
:103380007136CB01880F991FFC01E753FC4FC080B9
:10339000D18087E090E029833A834B835C83C8D84F
:1033A0001C0129813A814B815C81CA01B901A301C9
:1033B00092010E947136660F771FFB01E753FC4FA5
:1033C000A080B18087E090E029833A834B835C83BF
:1033D000AFD87C0129813A814B815C81CA01B90156
:1033E000A30192010E94713629013A01660F771FED
:1033F000FB01E753FC4F0081118186E090E098D8F3
:1034000045018E209F20A12CB12CAAE0880C991C8C
:10341000AA1CBB1CAA95D1F780239123AC0160E0C4
:1034200070E0D501C401842B952BA62BB72BC220AD
:10343000D320A60160E070E014E1440F551F661F21
:10344000771F1A95D1F76C017D01C42AD52AE62A87
:10345000F72A80915606882319F06894F6F802C07E
:10346000E894F6F880915506882319F06894F7F8E7
:1034700002C0E894F7F88F2D0E947B2D8E2D0E94BC
:103480007B2D8D2D0E947B2D8C2D0E947B2D8AE023
:10349000882E912CA12CB12CC301B201A50194015D
:1034A0000E947136CB01880F991FFC01E753FC4F36
:1034B0000081118185E090E029833A834B835C830E
:1034C00037D86C0129813A814B815C81CA01B901ED
:1034D000A50194010E947136660F771FFB01E75327
:1034E000FC4F6080718084E090E029833A834B83B5
:1034F0005C831ED8C022D122E12CF12CF4E1CC0C4B
:10350000DD1CEE1CFF1CFA95D1F786219721A0E067
:10351000B0E01AE0880F991FAA1FBB1F1A95D1F7B8
:10352000C82AD92AEA2AFB2A29813A814B815C815F
:10353000CA01B901A50194010E947136660F771F77
:10354000FB01E753FC4F0081118183E090E0298368
:103550003A834B835C830E94981280239123A0E0DE
:10356000B0E0C82AD92AEA2AFB2A80915606298186
:103570003A814B815C81882319F06894F6F802C087
:10358000E894F6F880915506882319F06894F7F8C6
:1035900002C0E894F7F88F2D29833A834B835C832C
:1035A0000E947B2D8E2D0E947B2D8D2D0E947B2DC8
:1035B0008C2D0E947B2D8AE0482E512C612C712C81
:1035C00029813A814B815C81CA01B901A301920131
:1035D0000E947136CB01880F991FFC01E753FC4F05
:1035E0000081118182E090E029833A834B835C83E0
:1035F0000E9498126C0129813A814B815C81CA0139
:10360000B901A30192010E947136660F771FFB0179
:10361000E753FC4FA080B18081E090E029833A839A
:103620004B835C830E949812C022D122E12CF12CA2
:10363000F4E1CC0CDD1CEE1CFF1CFA95D1F78A21BD
:103640009B21A0E0B0E01AE0880F991FAA1FBB1FC2
:103650001A95D1F7C82AD92AEA2AFB2A29813A8160
:103660004B815C81CA01B901A30192010E947136AC
:10367000660F771FFB01E753FC4F0081118180E04B
:1036800090E00E94981280239123A0E0B0E0C82A25
:10369000D92AEA2AFB2A80915606882319F06894D1
:1036A000F6F802C0E894F6F880915506882319F0E0
:1036B0006894F7F802C0E894F7F88F2D0E947B2DEC
:1036C0008E2D0E947B2D8D2D0E947B2D8C2D0E9496
:1036D0007B2D61E08AE00F900F900F900F90DF91AB
:1036E000CF911F910F91FF90EF90DF90CF90BF90FF
:1036F000AF909F908F907F906F905F904F903F9092
:103700002F900C94AD280F900F900F900F90DF9199
:10371000CF911F910F91FF90EF90DF90CF90BF90CE
:10372000AF909F908F907F906F905F904F903F9061
:103730002F9008950E94C038CF93DF93EC018881C9
:103740009981009711F00E944437198218821D82D6
:103750001C821B821A82DF91CF9108950F931F93D1
:10376000CF93DF93EC0188819981009729F02A811A
:103770003B812617370788F48B016F5F7F4F0E94CC
:10378000DC37009761F0998388831B830A832C813F
:103790003D81232B11F4FC01108281E001C080E007
:1037A000DF91CF911F910F910895FC01808191814C
:1037B000009711F00C94C73360E070E0CB010895DE
:1037C000EF92FF920F931F93CF93DF93FC0124811D
:1037D00035816115710511F480E018C0411551055E
:1037E000A1F07B01EC018A01020F131FB801B6DFC3
:1037F000882391F3288139818C819D81B701820FC3
:10380000931F0E94CD381D830C8381E0DF91CF91FF
:103810001F910F91FF90EF9008950F931F93CF93F7
:10382000DF931F921F92CDB7DEB78C0169831A8296
:1038300041E050E0BE016F5F7F4FC2DF811102C0E7
:10384000C8017ADFC8010F900F90DF91CF911F91CF
:103850000F910895CF93DF93EC016115710559F035
:10386000FB0101900020E9F73197AF01461B570B90
:10387000A7DF811102C0CE015FDFCE01DF91CF91C2
:103880000895CF93DF93EC01FB0144815581608162
:10389000718196DF811102C0CE014EDFCE01DF9132
:1038A000CF9108950F931F93CF93DF938C01EB017A
:1038B000FC01808191810097B1F068817981611567
:1038C000710579F0428153812C813D814217530764
:1038D00040F00E94CD388C819D81F80195838483CE
:1038E00013C00E94443788819981F80191838083B5
:1038F0008A819B81938382838C819D81958384833C
:10390000198218821B821A821D821C82DF91CF913C
:103910001F910F910895EF92FF920F931F93CF93F2
:10392000DF93EC017B018A01BA0118DF811103C02A
:10393000CE0102DF07C01D830C83B7018881998106
:103940000E94CD38CE01DF91CF911F910F91FF9052
:10395000EF900895CF93DF93EC016115710551F05D
:10396000FB0101900020E9F73197AF01461B570B8F
:10397000D2DF01C0E1DECE01DF91CF910895BF9289
:10398000CF92DF92EF92FF920F931F93CF93DF932B
:103990007C016B018A01E9012417350720F4812F8E
:1039A0008901C42FD82F61E174E0C7010E94CC27A0
:1039B000D60114968D919C91159708171907C8F494
:1039C0008C179D0708F4EC01D601ED91FC9111973D
:1039D000EC0FFD1FB08010824D915C91BA01600F19
:1039E000711FC701B7DFD601ED91FC91EC0FFD1FF0
:1039F000B082C701DF91CF911F910F91FF90EF909F
:103A0000DF90CF90BF900895CF93DF93EC01FB013F
:103A10008617970751F0608171816115710521F05A
:103A20004481558178DF01C087DECE01DF91CF91DF
:103A30000895FC01808191810C9444370F931F936A
:103A4000CF93DF93CDB7DEB762970FB6F894DEBFA2
:103A50000FBECDBF8C01CB01F80111821082138201
:103A600012821582148250E0BE016F5F7F4F0E9468
:103A7000ED33BE016F5F7F4FC8016CDF62960FB6FA
:103A8000F894DEBF0FBECDBFDF91CF911F910F9194
:103A900008950F931F93CF93DF93CDB7DEB7689749
:103AA0000FB6F894DEBF0FBECDBF8B01833051F54A
:103AB0002091E5093091E60942E050E061EE79E0BD
:103AC000CE010D965CDFB801CE0101960E94D82B85
:103AD000BE016F5F7F4FCE0107960E94C327BE01D4
:103AE000635F7F4FCE010796CCDEBC0181EE99E08B
:103AF0008BDFCE0107969DDFCE0101969ADFCE01C6
:103B00000D965AC08C3099F42091E5093091E60960
:103B100044E050E061EE79E0CE01439630DFB80139
:103B2000CE010D960E94D82B22E030E01EC08033DB
:103B300039F42091E5093091E60946E050E009C0EA
:103B4000803F09F03AC02091E5093091E60948E04C
:103B500050E061EE79E0CE01439611DFB801CE016D
:103B60000D960E94D82B24E030E040E050E061EE5A
:103B700079E0CE01019603DFBE016F5F7F4FCE017A
:103B800007960E94C327BE01635F7F4FCE01079651
:103B900078DEBE016D5E7F4F74DEBC0181EE99E080
:103BA00033DFCE01079645DFCE01019642DFCE011D
:103BB0000D963FDFCE0143963CDF68960FB6F89432
:103BC000DEBF0FBECDBFDF91CF911F910F91089542
:103BD0008F929F92AF92BF92CF92DF92EF92FF921D
:103BE0000F931F93CF93DF93CDB7DEB72D970FB60B
:103BF000F894DEBF0FBECDBF8C016A017B018091BE
:103C00001D07811113C00E94042ADC01CB01845BD3
:103C10009B4FAF4FBF4F8093190790931A07A09304
:103C20001B07B0931C0781E080931D07809111074B
:103C3000811109C068E474E08BE097E00E94CC2712
:103C400081E0809311070E94042A60931907709302
:103C50001A0780931B0790931C0720E030E040E296
:103C600051E4C701B6010E94A4346B017C0120E03D
:103C700030E0A9010E941D3620E030E040E05FE323
:103C800087FD05C0C701B6010E94883504C0C70181
:103C9000B6010E9487350E94EC35809155029091C3
:103CA00056029B0129513C4F490124583340590188
:103CB0002A55310969017B01892B09F081C077FF01
:103CC00003C0F194E194F1084AE0B701CE010796F0
:103CD000B5DE6DE474E0CE0101960E94CC27BE01F2
:103CE000695F7F4FCE010196CCDD6DE474E0B2DDFB
:103CF000BC018BE097E088DECE0101969ADECE0112
:103D0000079697DE3FEC831637E09306F0F44AE01F
:103D1000B701CE01079692DE6CE474E0CE01019605
:103D20000E94CC27BE01695F7F4FCE010196A9DDBD
:103D30006DE474E08FDDBC018BE097E065DECE01C1
:103D4000019677DECE01079674DE87ECA816B104E3
:103D5000F0F44AE0B701CE01079670DE6BE474E040
:103D6000CE0101960E94CC27BE01695F7F4FCE0134
:103D7000019687DD6DE474E06DDDBC018BE097E0BA
:103D800043DECE01019655DECE01079652DE23E1D9
:103D9000C216D10408F0AAC04AE0B701CE010796C6
:103DA0004DDE6AE474E0CE0101960E94CC27BE018C
:103DB000695F7F4FCE01019664DD6DE474E08BC0D6
:103DC00077FF03C0F194E194F1084AE0B701CE0116
:103DD000079634DE6DE474E0CE0101960E94CC2794
:103DE000BE01695F7F4FCE0101964BDD6DE474E04B
:103DF00031DDBC018BE097E007DECE01019619DED4
:103E0000CE01079616DE3FEC831637E0930610F5D9
:103E1000C7016AE070E00E943C364AE0CE01079696
:103E20000DDE6CE474E0CE0101960E94CC27BE0149
:103E3000695F7F4FCE01019624DD6CE474E00ADDFA
:103E4000BC018BE097E0E0DDCE010196F2DDCE0112
:103E50000796EFDD87ECA816B10410F5C7016AE0FC
:103E600070E00E943C364AE0CE010796E7DD6BE445
:103E700074E0CE0101960E94CC27BE01695F7F4F9E
:103E8000CE010196FEDC6CE474E0E4DCBC018BE066
:103E900097E0BADDCE010196CCDDCE010796C9DDF3
:103EA00023E1C216D10410F5C7016AE070E00E9458
:103EB0003C364AE0CE010796C1DD6AE474E0CE01EB
:103EC00001960E94CC27BE01695F7F4FCE0101960B
:103ED000D8DC6CE474E0BEDCBC018BE097E094DDE0
:103EE000CE010196A6DDCE010796A3DD8091550295
:103EF00090915602892B11F022E301C027E361E182
:103F000074E0CE0101962D870E94CC276BE077E00C
:103F1000CE010196B6DC6CE474E09CDC2D85622F4A
:103F20007CDCBC018BE097E06FDDCE01019681DD8A
:103F30006BE077E0C8010E94C327C8012D960FB639
:103F4000F894DEBF0FBECDBFDF91CF911F910F91CF
:103F5000FF90EF90DF90CF90BF90AF909F908F90A9
:103F60000895EF92FF920F931F93CF93DF93E82E64
:103F70009BD58CEC70D584E46ED596D58CEC6BD546
:103F80008EEB69D508E010E0D1E0C0E00DD58111DD
:103F9000CD2BDD0F01501109C9F708E010E0FF2417
:103FA000F394D0E001D58111DF29FF0C01501109F4
:103FB000C9F76C2F70E07D2B6F3F8FEF780711F4FE
:103FC00060E070E0072E000C880B990B0E944534CE
:103FD00020E030E040E85DE30E94A434EE2061F090
:103FE00026E636E646EE5FE30E94A43420E030E0A9
:103FF00040E052E40E948835DF91CF911F910F91EC
:10400000FF90EF9008954F925F926F927F928F9200
:104010009F92AF92BF92CF92DF92EF92FF920F9357
:104020001F93CF93DF9300D000D0CDB7DEB77C01D4
:104030004B015A018091F206882341F08091F806E5
:1040400002E017E0A9EFB6E0F80146C081E08093F6
:10405000F2061092F1061092F00682E0682E87E0D8
:10406000782E99EF492E96E0592E00E010E00F5F70
:104070001F4F680181E0C81AD1089801A601B40158
:10408000CE0101967CDCCE0101968FDBF3016193BA
:104090003F01CE010196CDDC9801A601B501CE010C
:1040A00001966DDCCE01019680DBF20161932F0158
:1040B000CE010196BEDC09301105C9F6BFCF2C91A7
:1040C00092130DC090819A3009F4108231961196A6
:1040D00097E0EB30F90731F090818A3080F79F5FED
:1040E0009083F0CF8F5F843119F08093F80604C07D
:1040F0001092F8061092F20661E174E0C7014CD705
:10410000FE0131966F01F80181918F014AE0B601FD
:1041100090E00E94F733F60101900020E9F7319713
:10412000AF014C195D09B601C7014ADBF7E00B305E
:104130001F0749F7C70126960FB6F894DEBF0FBEDA
:10414000CDBFDF91CF911F910F91FF90EF90DF9046
:10415000CF90BF90AF909F908F907F906F905F9027
:104160004F90089588E090E0C0D8682F70E089E013
:104170000E94182989E090E0B8D8682F70E086E0A6
:104180000E9418298AE090E0B0D8682F70E083E0A0
:104190000C9418290F931F93809151029091520211
:1041A000892B09F451C08091F7068823A9F00E9459
:1041B000042A0091F3061091F4062091F50630913F
:1041C000F606DC01CB01801B910BA20BB30B893EE1
:1041D0009340A105B105A8F58091F706811134C07F
:1041E0000E94861720914B0230914C028217930750
:1041F00059F50E94801720914D0230914E0282178E
:10420000930711F50E947A1720914F0230915002C6
:1042100082179307C9F40E94042A6093F3067093EF
:10422000F4068093F5069093F60681E08093F706F6
:1042300080910602909107029093CA068093C90666
:1042400003C01092F706C8CF1F910F9108950E94E6
:10425000042A6093EC067093ED068093EE0690932B
:10426000EF068091EB06882309F44FC02091E90600
:104270003091EA06C901880F991F2131310551F0AB
:10428000FC01EF5CFD4F4081518141505109518348
:1042900040830AC040915302509154024C5051093E
:1042A0005093540240935302DC01AF5CBD4F6D91BB
:1042B0007C911197FC01E75AFD4F408151816417B1
:1042C00075073CF4FC01EF57FD4F408151814D9340
:1042D0005C932031310571F42091510230915202EA
:1042E0002130310521F420E82093220606C01092E7
:1042F000220603C02930310541F0FC01EF5CFD4F7F
:104300006081718180912306C4CB08950E94042AA4
:104310006093EC067093ED068093EE069093EF06A3
:104320008091EB06882309F444C02091E90630917E
:10433000EA06C901880F991F2131310551F0FC01AE
:10434000EF5CFD4F408151814F5F5F4F5183408350
:104350000AC04091530250915402445F5F4F509302
:10436000540240935302DC01AF5CBD4F6D917C91D0
:104370001197FC01EF57FD4F4081518146175707B8
:104380003CF4FC01E75AFD4F408151814D935C9311
:104390002031310519F41092220603C0293031056D
:1043A00041F0FC01EF5CFD4F60817181809123063B
:1043B00070CB0895CF93DF93EC01019628812A33C7
:1043C000D9F78981843639F51092E8061092E7060C
:1043D00023964AE0FE018881219690ED980F209166
:1043E000E7063091E8069A3080F4429FB001439F7F
:1043F000700D1124082E000C990BC097860F971F83
:104400009093E8068093E706E5CF1216130614F49E
:104410002093AC02EF01219688818F3689F48A813E
:10442000082E000C990B9C01205331093093E806AB
:104430002093E706C397059710F42093AB022496C8
:104440008881823629F51092E8061092E706FE016F
:1044500032964AE0819190ED980F2091E7063091D5
:10446000E8069A3080F4429FB001439F700D1124FA
:10447000082E000C990BC097860F971F9093E806A3
:104480008093E706E7CF3093AA022093A902EF01B9
:104490002091A9023091AA02032E000C440B550B67
:1044A00060E67AEE80E090E00E947136DA01C901A0
:1044B00022E0880F991FAA1FBB1F2A95D1F780936E
:1044C000E3069093E406A093E506B093E606CE01DA
:1044D000DF91CF910895CF92DF92EF92FF921F93D9
:1044E000CF93DF93CDB7DEB72C970FB6F894DEBF2E
:1044F0000FBECDBF182F67E574E0CE0101964CD5F5
:10450000133029F422E030E040E050E012C01C30CB
:1045100029F424E030E042E050E00BC0103319F4FD
:1045200026E030E004C0103F91F428E030E044E0A1
:1045300050E061EE79E0CE01079621DABE01695FB5
:104540007F4FCE010196AED9CE01079672DACE0129
:1045500001962BD96B017C01CE0101966ADAC60166
:104560002C960FB6F894DEBF0FBECDBFDF91CF9172
:104570001F91FF90EF90DF90CF9008953F924F9260
:104580005F926F927F928F929F92AF92BF92CF92E3
:10459000DF92EF92FF920F931F93CF93DF9300D0A0
:1045A0001F92CDB7DEB720917D0727FDA9C14983B2
:1045B0005A836B837C838C0161E080917C07FCD5FE
:1045C00030907D07832D8D7F4801A12CB12C09F0FF
:1045D000B7C060E072E18AE790E0A50194010E9413
:1045E000713629013A0169017A0121E0C21AD10824
:1045F000E108F1088FEFC816D104E104F10409F0D5
:1046000008F44CC060E472E48FE090E0A5019401EE
:104610000E94713669017A0191E0C91AD108E10856
:10462000F108A2E03A1220C0BFEFCB16D104E1049A
:10463000F10409F008F462C160E970ED83E090E0F4
:10464000A50194010E94713669017A01E1E0CE1A58
:10465000D108E108F108FFEFCF16D104E104F1041D
:1046600009F0C0F583E065C02FEFC216D104E10464
:10467000F104B1F0A8F068E478EE81E090E0A501E3
:1046800094010E94713669017A0181E0C81AD1084B
:10469000E108F108332009F4D9C027C181E001C045
:1046A00082E0332091F045C0D301C2012AE0B595E4
:1046B000A795979587952A95D1F76C017D01E1E043
:1046C000CE1AD108E108F10885E095B5987F892BCD
:1046D00085BD66C068E478EE81E090E0A5019401B4
:1046E0000E94713669017A01B1E0CB1AD108E10864
:1046F000F108EFEFCE16D104E104F10409F008F45B
:10470000A3C064E274EF80E090E0A50194010E94F0
:10471000713669017A0191E0C91AD108E108F108FE
:10472000AFEFCA16D104E104F10411F008F0B0C0F3
:1047300085E09091B100987F892B8093B10030C0C3
:1047400060E072E18AE790E0A50194010E94713671
:1047500069017A01F1E0CF1AD108E108F108C1142A
:10476000D10421E0E206F10488F068E478EE81E00B
:1047700090E0A50194010E94713669017A0181E0FF
:10478000C81AD108E108F10893E001C091E0A1E066
:104790003A1206C080918100887F892B8093810026
:1047A00089819A81AB81BC81892B8A2B8B2B81F0EB
:1047B000D801AA0FBB1F29813A814B815C810E94DD
:1047C0006E3528EE33E040E050E00E944F3603C0E3
:1047D0002FEF3FEFA90191E03916A1F0A2E03A16C0
:1047E00019F131108DC0C7BC209378073093790739
:1047F00040937A0750937B0780916E00826080938C
:104800006E007EC0D0928900C09288002093740709
:1048100030937507409376075093770780916F0028
:10482000826080936F006CC0C092B30020937007C9
:104830003093710740937207509373078091700013
:104840008260809370005CC084E073CF8FEFC816E5
:10485000D104E104F104D1F0C8F062E17AE780E02C
:1048600090E0A50194010E94713669017A01F1E09E
:10487000CF1AD108E108F1082FEFC216D104E104E4
:10488000F10411F008F010CF84E01FCF83E01DCFBA
:1048900062E17AE780E090E0A50194010E94713620
:1048A00069017A0191E0C91AD108E108F108AFEF76
:1048B000CA16D104E104F104B1F0A8F0D301C20199
:1048C0004AE0B595A795979587954A95D1F76C01DC
:1048D0007D01E1E0CE1AD108E108F108332009F4A6
:1048E000F3CE87E026CF86E0DCCEBFEFCB16D10437
:1048F000E104F10409F060F684E0D3CE82E019CF40
:104900000F900F900F900F90DF91CF911F910F910B
:10491000FF90EF90DF90CF90BF90AF909F908F90DF
:104920007F906F905F904F903F900895009761F057
:10493000FC0101900020E9F73197AF01481B590BAA
:10494000BC018BE198E07BC180E090E008950F937B
:104950001F93CF93DF938C01C0E0D0E0F801EC0F00
:10496000FD1F6491662371F0E0911B08F0911C0813
:104970000190F081E02D8BE198E01995892B11F0E1
:104980002196ECCFCE01DF91CF911F910F91089529
:10499000CF93DF93DCDFEC018FE094E0C7DF8C0F77
:1049A0009D1FDF91CF9108958091E709E091E8097B
:1049B000F091E909F8949181982B91832281982FA5
:1049C000909529232283A7E0B0E01197F1F7218188
:1049D00092239183A3E2B0E01197F1F7908178944C
:1049E000EFECF0E03197F1F7982381E009F480E0F3
:1049F00008959091E709E091E809F091E909392FCC
:104A0000309580FF13C0F8942281832F8223828304
:104A10008181892B8183A3E2B0E01197F1F7828134
:104A2000982B9283789487ED90E012C0F8942281BD
:104A3000832F822382838181892B8183AFEFB0E032
:104A40001197F1F78281982B928378948FE090E010
:104A50000197F1F708950F931F93CF93DF93082FDA
:104A6000C8E0D0E011E081E0912F902309F480E0CC
:104A7000C0DF110F2197B9F7F894E091E809F091A0
:104A8000E90991818091E709809598239183E091CC
:104A9000E809F091E9099281892382837894DF9172
:104AA000CF911F910F9108959091E709E091E80946
:104AB000F091E909F8948181292F2095822381833F
:104AC00078948DE743E050E0815021F1DA011197AD
:104AD000F1F730813923C1F3F894828182238283F4
:104AE0008181892B81837894ABE7B7E01197F1F747
:104AF000F894818128232183A3E1B1E01197F1F794
:104B00008081982381E009F080E07894E3E6F6E084
:104B10003197F1F708958F929F92AF92BF92CF9203
:104B2000DF92EF92FF924BD44B015C0188EEC82ECE
:104B300083E0D82EE12CF12C42D4DC01CB01881982
:104B40009909AA09BB09883E9340A105B10558F00F
:104B500021E0C21AD108E108F10888EE880E83E04E
:104B6000981EA11CB11CC114D104E104F10421F769
:104B7000FF90EF90DF90CF90BF90AF909F908F907D
:104B8000089520916F0790916E07213208F04AC076
:104B900080914B078111FCCF32E030934B0731E01D
:104BA00030934A073FEF309349071092480720930C
:104BB0004707AEE4B7E047E257E0FA013E2F341B67
:104BC000321718F43D913193F9CF109226072091B6
:104BD0002607990F922B90932607909125079130E5
:104BE00061F410922507909126079093BB00909155
:104BF000BC0093FDF8CF95EC01C095EE9093BC00FE
:104C000090914B079230E1F3909149079F3F79F0E3
:104C100080914907803241F080914907803331F01B
:104C200084E005C081E003C082E001C083E010920F
:104C30004D0710926F0710924C0708950895CF9278
:104C4000DF92EF92FF920F931F93CF93DF936C014C
:104C50007A018B01C0E0D0E0CE15DF0589F0D801E4
:104C60006D918D01D601ED91FC910190F081E02DC7
:104C7000C6011995892B11F47E0102C02196ECCF53
:104C8000C701DF91CF911F910F91FF90EF90DF90BF
:104C9000CF900895FC01A089B1898C91A689B7892C
:104CA00082FD0FC09C91818D8F5F8F73228D821743
:104CB00049F0218DDF01A20FB11D5D969C93818F7C
:104CC00008958C910895FC01538D448D252F30E07B
:104CD000842F90E0821B930B541710F0CF96089509
:104CE00001970895FC01918D828D981761F0828D56
:104CF000DF01A80FB11D5D968C91928D9F5F9F7310
:104D0000928F90E008958FEF9FEF0895FC01918DB1
:104D1000828D981731F0828DE80FF11D858D90E01E
:104D200008958FEF9FEF0895FC01918D228D892FBB
:104D300090E0805C9F4F821B91098F7399270895A3
:104D40008EE797E0F1DF21E0892B09F420E0822F44
:104D500008958BE198E0E8DF21E0892B09F420E059
:104D6000822F0895FC01848DDF01A80FB11DA35A85
:104D7000BF4F2C91848D90E001968F739927848F7B
:104D8000A689B7892C93A089B1898C9180648C9372
:104D9000938D848D981306C00288F389E02D80815D
:104DA0008F7D80830895EF92FF920F931F93CF938F
:104DB000DF93EC0181E0888F9B8D8C8D981305C06B
:104DC000E889F989808185FD23C0F62E0B8D10E0DE
:104DD0000F5F1F4F0F731127E02E8C8DE8120BC051
:104DE0000FB607FCFACFE889F989808185FFF5CFF6
:104DF000CE01B8DFF2CF8B8DFE01E80FF11DE35A33
:104E0000FF4FF0820B8FEA89FB898081806207C0A7
:104E1000EE89FF896083E889F989808180648083D5
:104E200081E090E0DF91CF911F910F91FF90EF9083
:104E30000895CF93DF93EC01888D8823C1F0EA8930
:104E4000FB89808185FD05C0A889B9898C9186FD83
:104E50000EC00FB607FCF5CF808185FFF2CFA88981
:104E6000B9898C9185FFEDCFCE017CDFE8CFDF9152
:104E7000CF91089580E090E0892B19F06ADF8111CD
:104E800020C080E090E0892B19F05ADF81111CC00E
:104E900080E090E0892B41F080E090E0892B21F0C8
:104EA0000E940000811113C080E090E0892BA1F0E6
:104EB00080E090E0892B81F00E94000081110AC0FF
:104EC00008950E940000DDCF0E940000E1CF0E9403
:104ED0000000EACF0C940000089590E0FC013197A7
:104EE000E231F10508F04EC08827E357FF4F8F4F9E
:104EF0000C948D36809180008F7703C08091800064
:104F00008F7D80938000089580918000877FF9CF06
:104F100084B58F7702C084B58F7D84BD089580915C
:104F2000B0008F7703C08091B0008F7D8093B00078
:104F30000895809190008F7707C0809190008F7DB9
:104F400003C080919000877F8093900008958091A6
:104F5000A0008F7707C08091A0008F7D03C0809153
:104F6000A000877F8093A0000895809120018F7713
:104F700007C0809120018F7D03C080912001877F31
:104F8000809320010895FC01118210821382128205
:104F9000158214820C94041DFC011182108213826C
:104FA0001282158214826115710551F0FB01019086
:104FB0000020E9F73197AF01461B570B0C948B1C6F
:104FC00008951F920F920FB60F9211240BB60F92F5
:104FD0002F933F934F935F936F937F938F939F9301
:104FE000AF93BF93EF93FF938EE797E0BBDEFF9104
:104FF000EF91BF91AF919F918F917F916F915F9151
:105000004F913F912F910F900BBE0F900FBE0F90BD
:105010001F9018951F920F920FB60F9211240BB686
:105020000F922F933F934F935F936F937F938F9341
:105030009F93AF93BF93EF93FF938EE797E02ADEA2
:10504000FF91EF91BF91AF919F918F917F916F9160
:105050005F914F913F912F910F900BBE0F900FBE1C
:105060000F901F9018951F920F920FB60F92112458
:105070000BB60F922F933F934F935F936F937F9352
:105080008F939F93AF93BF93EF93FF938BE198E040
:1050900069DEFF91EF91BF91AF919F918F917F91C9
:1050A0006F915F914F913F912F910F900BBE0F9099
:1050B0000FBE0F901F9018951F920F920FB60F9270
:1050C00011240BB60F922F933F934F935F936F93DF
:1050D0007F938F939F93AF93BF93EF93FF938BE156
:1050E00098E0D8DDFF91EF91BF91AF919F918F91A3
:1050F0007F916F915F914F913F912F910F900BBED8
:105100000F900FBE0F901F901895CF93DF93282F0D
:1051100030E0F901EA56FD4F8491F901E05BFD4F63
:10512000D491F901E65FFD4FC491CC2389F0811140
:10513000D4DEEC2FF0E0EE0FFF1FE051FE4FA59103
:10514000B491EC91ED2381E090E021F480E002C085
:1051500080E090E0DF91CF9108951F93CF93DF938C
:10516000282F30E0F901EA56FD4F8491F901E05B08
:10517000FD4FD491F901E65FFD4FC491CC23C1F0FE
:10518000162F8111AADEEC2FF0E0EE0FFF1FE7587B
:10519000FE4FA591B4918FB7F894111105C09C9161
:1051A000ED2FE095E92302C0EC91ED2BEC938FBF3E
:1051B000DF91CF911F910895CF93DF9390E0FC0191
:1051C000E05BFD4F2491FC01E65FFD4F8491882355
:1051D00061F190E0880F991FFC01EA56FE4FC591DE
:1051E000D491FC01E758FE4FA591B491611109C01B
:1051F0009FB7F8948881209582238883EC912E2391
:105200000BC0623061F49FB7F8943881822F80958B
:1052100083238883EC912E2B2C939FBF06C08FB7DE
:10522000F894E8812E2B28838FBFDF91CF910895CA
:105230001F93CF93DF93182FEB0161E0BDDF209721
:1052400011F460E004C0CF3FD10531F461E0812F5B
:10525000DF91CF911F9181CFE12FF0E0EA56FD4F12
:10526000E4914E2F50E0FA013197E231F10508F058
:105270009DC08827E156FF4F8F4F0C948D3684B523
:10528000806884BDC7BD97C084B5806284BDC8BD39
:1052900092C080918000806880938000D0938900C4
:1052A000C093880088C080918000806280938000D5
:1052B000D0938B00C0938A007EC08091800088606C
:1052C00080938000D0938D00C0938C0074C0809137
:1052D000B00080688093B000C093B3006CC0809130
:1052E000B00080628093B000C093B40064C080912D
:1052F0009000806880939000D0939900C0939800AC
:105300005AC080919000806280939000D0939B005F
:10531000C0939A0050C08091900088608093900064
:10532000D0939D00C0939C0046C08091A0008068EF
:105330008093A0008091A0008F7B8093A000D093E9
:10534000A900C093A80037C08091A000806280931C
:10535000A000D093AB00C093AA002DC08091A00004
:1053600088608093A000D093AD00C093AC0023C0B0
:1053700080912001806880932001D0932901C093FF
:10538000280119C080912001806280932001D09370
:105390002B01C0932A010FC0809120018860809367
:1053A0002001D0932D01C0932C0105C0C038D10538
:1053B0000CF04CCF46CFDF91CF911F9108953FB7AE
:1053C000F8948091340A9091350AA091360AB091F0
:1053D000370A26B5A89B05C02F3F19F00196A11DDD
:1053E000B11D3FBFBA2FA92F982F8827820F911D7B
:1053F000A11DB11DBC01CD0142E0660F771F881FC2
:10540000991F4A95D1F708952FB7F8946091300A03
:105410007091310A8091320A9091330A2FBF08951A
:105420001F920F920FB60F9211242F933F938F93D9
:105430009F93AF93BF938091300A9091310AA091CE
:10544000320AB091330A30912F0A23E0230F2D370F
:1054500020F40196A11DB11D05C026E8230F029678
:10546000A11DB11D20932F0A8093300A9093310A19
:10547000A093320AB093330A8091340A9091350A8E
:10548000A091360AB091370A0196A11DB11D8093F3
:10549000340A9093350AA093360AB093370ABF9125
:1054A000AF919F918F913F912F910F900FBE0F90D1
:1054B0001F90189581E080934C0788E680936E07D3
:1054C00010924D0710926F0760E088EB98E00E9401
:1054D0003F1257DB80914B078111FCCF81E0809315
:1054E0004B0780934A079FEF909349071092480714
:1054F00096E0909347078093260780912607806D5A
:105500008093260780912507813061F4109225074A
:10551000809126078093BB008091BC0083FDF8CF6B
:1055200085EC01C085EE8093BC0080914B078130F3
:10553000E1F380914807873018F48091480701C053
:1055400087E0A7E2B7E026E236E0F9019E2F921B42
:10555000981718F49D919193F9CF1092BE068093FD
:10556000BD0688EB98E00E94F411982F92959F70E9
:105570008F702AE0929F800D112490E09093D706BF
:105580008093D60688EB98E00E94F411982F9295AC
:105590009F708F702AE0929F800D112490E090936D
:1055A000CE068093CD0688EB98E00E94F411982FE8
:1055B0009695969596959670292F220F220F920F09
:1055C0008F70890F90E09093CC068093CB0688EB88
:1055D00098E00E94F411982F92959F708F702AE0A6
:1055E000929F800D112490E09093390A8093380A9D
:1055F00088EB98E00E94F411982F92959F708F701D
:105600002AE0929F800D112490E09093D006809321
:10561000CF0688EB98E00E94F411982F92959F7026
:105620008F702AE0929F800D112490E09093D20613
:105630008093D10688EB98E00E94F411982F929500
:105640009F708F702AE0929F800D112490E09093BC
:10565000D4068093D3060895EF92FF920F931F9381
:10566000CF93DF93CDB7DEB762970FB6F894DEBF66
:105670000FBECDBF7C018B0177FF03C01195019553
:1056800011094AE0B801C7010E941E1D083E83E0CF
:1056900018070CF07FC04AE0B801CE010D960E94B9
:1056A0001E1D6DE474E0CE01019676DCBE016F5FD5
:1056B0007F4FCE01079667DCBE01635F7F4FCE014F
:1056C00007960E94411CBC01C7010E94041DCE0127
:1056D00007960E94191DCE0101960E94191DCE0148
:1056E0000D960E94191D043611050CF053C04AE0B6
:1056F000B801CE010D960E941E1D6CE474E0CE012F
:1057000001964ADCBE016F5F7F4FCE0107963BDCFE
:10571000BE01635F7F4FCE0107960E94411CBC0112
:10572000C7010E94041DCE0107960E94191DCE01DB
:1057300001960E94191DCE010D960E94191D0A3076
:10574000110544F54AE0B801CE010D960E941E1DD8
:105750006BE474E0CE0101961FDCBE016F5F7F4FEA
:10576000CE01079610DCBE01635F7F4FCE01079626
:105770000E94411CBC01C7010E94041DCE01079676
:105780000E94191DCE0101960E94191DCE010D9691
:105790000E94191DC70162960FB6F894DEBF0FBEB6
:1057A000CDBFDF91CF911F910F91FF90EF900895A2
:1057B0000F931F93CF93DF93CDB7DEB762970FB6EA
:1057C000F894DEBF0FBECDBF8C0177FF03C071958B
:1057D000619571094AE06A30710534F5CE010D9684
:1057E0000E941E1D6DE474E0CE010196D5DBBE0162
:1057F0006F5F7F4FCE010796C6DBBE01635F7F4FB1
:10580000CE0107960E94411CBC01C801BCDBCE0141
:1058100007960E94191DCE0101960E94191DCE0106
:105820000D960E94191D03C0C8010E941E1DC801CB
:1058300062960FB6F894DEBF0FBECDBFDF91CF9159
:105840001F910F9108950F931F93CF93DF93CDB7BF
:10585000DEB768970FB6F894DEBF0FBECDBF8C01E0
:105860008091530290915402489781F40E947A17D4
:10587000BC01CE0143969CDF0E948017BC01CE0183
:105880000D9696DF0E948617BC011DC00E947A17F4
:10589000BC01CE0143968CDF0E948017BC01CE0173
:1058A0000D9686DF0E94EA150E94731680914C06C1
:1058B000882339F0682F70E08D3028F06C50710922
:1058C00002C06CE070E0CE01019672DFBE016F5F36
:1058D0007F4FCE01079657DBBE01635F7F4FCE013E
:1058E00007960E94411CBE016D5E7F4F0E94411CC5
:1058F000BC01C80148DBCE0107960E94191DCE01EC
:1059000001960E94191DCE010D960E94191DCE010F
:1059100043960E94191DC80168960FB6F894DEBF21
:105920000FBECDBFDF91CF911F910F910895DF92F0
:10593000EF92FF920F931F93CF93DF931F921F92CB
:10594000CDB7DEB7F82E162F81E080934C0788E69E
:1059500080936E0710924D0710926F0760E088EBFE
:1059600098E02A8349830E943F128AE0D82E498119
:10597000842F6D2D0E943036692F30E1839F600D9A
:10598000112488EB98E00E943F12812F6D2D0E9418
:105990003036692F30E1839F600D112488EB98E049
:1059A0000E943F128F2D6D2D0E943036692F30E1FD
:1059B000839F600D112488EB98E00E943F1261E004
:1059C00088EB98E00E943F122A81822F6D2D0E9461
:1059D0003036692F20E1829F600D112488EB98E01A
:1059E0000E943F12802F6D2D0E943036692F30E1CA
:1059F000839F600D112488EB98E00E943F128E2D4A
:105A00006D2D0E943036692F20E1829F600D112498
:105A100088EB98E00E943F1260E088EB98E00E94DB
:105A20003F120F900F90DF91CF911F910F91FF9038
:105A3000EF90DF90A6C8CF92DF92EF92FF920F9384
:105A40001F93CF93DF93EC018B01DEDCCE80DF80F0
:105A5000E884F984AB01BC014C195D096E097F092A
:105A600088819981092E000CAA0BBB0B841795071E
:105A7000A607B70718F48A85811128C08B859C85F5
:105A80000817190719F481E08C8309C08C818111F2
:105A900003C080E090E026C00F3F1F4FD1F78D81FB
:105AA0008F5F8D83B1DC6E837F838887998781E0E8
:105AB0008A878D8190E02A813B81821793074CF37E
:105AC0001C821D821A868FEF9FEF0CC01A868D8173
:105AD000823028F01C821D8281E090E003C01C828D
