:100000000C9422020C9453020C9453020C9453024D
:100010000C9453020C9453020C9453020C9453020C
:100020000C9453020C9453020C9453020C945302FC
:100030000C9453020C94272F0C9453020C945302EB
:100040000C9453020C947A2F0C9453020C94530288
:100050000C9453020C94D92F0C9453020C945D2DE4
:100060000C9453020C94312E0C94072E0C945302D2
:100070000C9453020C9453020C9453020C945302AC
:100080000C9453020C9453020C9453020C9453029C
:100090000C94D12D0C94A72D0C9453020C94383051
:1000A0000C9453020C9453020C9453020C9453027C
:1000B0000C9453020C9453020C9453020C94672E2C
:1000C0000C9453020C9453020C9453020C9453025C
:1000D0000C9453020C9453020C9453020C9453024C
:1000E0000C9453020C949E2C0C946D0E0C944603AD
:1000F0000C94FD2B0C9495310C941F060C94B92A8A
:100100000C948F240C94A20E0C9461060C948B24F6
:100110000C9438030C9491240C9429060C94000D33
:100120000C948D240C94AA0C0C9483240C941A0621
:100130000C94D4290C946D2C0C9417070C94CC0CB3
:100140000C9498060C9414070C9444070C945307D1
:100150000C948E060C9415070C943D060C947903B0
:100160000C947B0E0C9489240C9445060C946F031C
:100170000C9473030C94B7070C94282C0C94AC06C5
:100180000C946B030C9461030C94A00E0C94570315
:100190000C944D060C946A240C9453030C94D30CC9
:1001A0000C9475070C94252D0C94C72C0C94780393
:1001B0000C9467070C9484060C94690E0C945D0EE5
:1001C0000C944A030C941F080C946B060C94330691
:1001D0000C943E030C947D030C94B12B0C944203BD
:1001E0000C94B30E0C9465030C9491380C94A206F5
:1001F0000C9457060C9487240C94A90C0C944D0372
:100200000C94B90C0C945D030C9412060C94A40D80
:100210000C947A065570646174696E672074696D18
:10022000652E2E2E00496E636F72726563742053C3
:100230006F6E6720466F726D61742100416C6C2097
:10024000617474656D707473207765726520756E66
:100250007375636365737366756C2E0041747465A2
:100260006D707420746F2073796E63207769746881
:10027000204750532E0044617465206F72205469EA
:100280006D65206E6F7420696E2072616E67650007
:1002900002010053746F7020546573740054656DCF
:1002A000702E2073656E736F72206E6F7420666F90
:1002B000756E642E00475053204E4F542064657471
:1002C00065637465642100475053206465746563F9
:1002D0007465640053746172742054657374004EC5
:1002E00043533331342D384320485720322E782061
:1002F000485635313232206F72204856353232320C
:10030000004669726D776172652076657273696FF8
:100310006E3A20004661756C747920525443210076
:1003200000002100240027002A002D0030003300A7
:1003300001010000040107010A010000220025005C
:1003400028002B002E0031003400020100000501BE
:1003500008010B0100000A0B02090C0D0E0807032F
:100360000401000000000000000000000000000088
:10037000000000000000000000000000000000007D
:10038000121110000000000000000000000000003A
:10039000000000000000000000000000200023001A
:1003A000260029002C002F0032000001000003016C
:1003B00006010901050505050705080808080202E8
:1003C00002020A0A080804040404010101010101EF
:1003D00001010303030303030303040707070C0CD2
:1003E0000C0C0C0C0C0C0202020206060606060699
:1003F00006060B0B0B0B0B0B0B0B0102102020083E
:10040000081020401020408002010201080402016F
:1004100001020408102040808040201008040201DE
:100420008004020180402010080402010804020137
:1004300001020408102040800102040810204080BE
:100440009531913811241FBECFEFD1E2DEBFCDBF71
:1004500000E00CBF2AE0A6E5B5E001C01D92A3387C
:10046000B207E1F715E0A0E0B2E0E4E9FBE700E065
:100470000BBF02C007900D92A635B107D9F712E065
:10048000C1E2D2E000E006C021970109802FFE0101
:100490000E94773BC032D10780E00807A9F70E948D
:1004A00084320C94B83D0C9400008CBD9DBD089521
:1004B0008091380AE091390AF0913A0AF8949181D2
:1004C000982B91832281382F309523232283A7E014
:1004D000B0E01197F1F7918193239183A3E2B0E00B
:1004E0001197F1F790817894EFECF0E03197F1F704
:1004F000982381E009F480E008959091380AE09112
:10050000390AF0913A0A292F209580FF14C0F894F7
:100510008281822382838181892B8183A3E2B0E05F
:100520001197F1F78281982B9283789487ED90E070
:100530000197F1F70895F894828182238283818163
:10054000892B8183AFEFB0E01197F1F78281982B6F
:10055000928378948FE090E0EBCF0F931F93CF932B
:10056000DF93082FC8E0D0E011E081E0902F9123C5
:1005700009F480E00E947D02110F2197B1F7F894F1
:10058000E091390AF0913A0A91818091380A809578
:1005900098239183E091390AF0913A0A9281892354
:1005A00082837894DF91CF911F910F91089580916C
:1005B000380AE091390AF0913A0AF8949181282F8B
:1005C00020959223918378943DE743E050E03150A9
:1005D00029F1DA011197F1F790819823C1F3F8948A
:1005E0009281922392839181982B91837894ABE7A7
:1005F000B7E01197F1F7F894918192239183A3E1E9
:10060000B1E01197F1F79081982381E009F080E043
:100610007894E3E6F6E03197F1F7089580E00895E5
:1006200091E090939D078093BF0710929E071092D0
:10063000C00708958150823108F05AC0E82FF0E0D9
:100640008827EA5DFC4F8F4F0C94773B46034A03A3
:1006500038033E03420378034D03530357035D03FE
:10066000610365036B036F037803730379037D03F1
:10067000809180008F778093800008958091800022
:100680008F7DF9CF80918000877FF5CF84B58F77FC
:1006900084BD089584B58F7DFBCF8091B0008F77A6
:1006A0008093B00008958091B0008F7DF9CF809144
:1006B00090008F77809390000895809190008F7DB7
:1006C000F9CF80919000877FF5CF8091A0008F7740
:1006D0008093A00008958091A0008F7DF9CF809134
:1006E000A000877FF5CF809120018F778093200134
:1006F0000895809120018F7DF9CF80912001877F1F
:10070000F5CFCF93DF93282F30E0F901EC5AFC4F5F
:100710008491F901E650FC4FD491F901EC54FC4F5F
:10072000C491CC23A1F081110E941A03EC2FF0E0B8
:10073000EE0FFF1FE656FC4FA591B491EC91ED230F
:1007400081E090E009F480E0DF91CF91089580E0AE
:1007500090E0FACF1F93CF93DF93282F30E0F90179
:10076000EC5AFC4F8491F901E650FC4FD491F90109
:10077000EC54FC4FC491CC23A9F0162F81110E9498
:100780001A03EC2FF0E0EE0FFF1FE65CFC4FA59183
:10079000B4918FB7F894EC91111108C0D095DE2375
:1007A000DC938FBFDF91CF911F910895DE2BF8CF9F
:1007B000CF93DF9390E0FC01E650FC4F24918C54E2
:1007C0009C4FFC0184918823C9F090E0880F991F09
:1007D000FC01E05EFC4FA591B491FC01E65CFC4F8E
:1007E000C591D49161110DC09FB7F8948C9120955B
:1007F00082238C938881282328839FBFDF91CF9108
:100800000895623051F49FB7F8943C91822F8095FF
:1008100083238C93E8812E2BEFCF8FB7F894EC9144
:100820002E2B2C938FBFEACF4F925F926F927F92C5
:100830008F929F92AF92BF92CF92DF92EF92FF92F0
:100840000F931F93CF93DF9300D01F921F92CDB7CA
:10085000DEB72091CE0727FD2CC149835A836B83D5
:100860007C838C0161E08091CD070E94D803809148
:10087000CE078D834801B12CA12C8D7F09F031C1A9
:1008800060E072E18AE790E0A50198010E94583B80
:1008900029013A017A01690191E0C91AD108E108F8
:1008A000F108AFEFCA16D104E104F10409F00CF429
:1008B000C7C060E472E48FE090E0A50198010E9457
:1008C000583B69017A01B1E0CB1AD108E108F1087F
:1008D0008D81823009F06AC082E09FEFC916D10491
:1008E000E104F10409F00CF45EC160E970ED83E00D
:1008F00090E0A50198010E94583B69017A01A1E0AE
:10090000CA1AD108E108F10883E0BFEFCB16D10481
:10091000E104F10409F00CF446C168E478EE81E0EA
:1009200090E0A50198010E94583B69017A0181E09D
:10093000C81AD108E108F10884E09FEFC916D10474
:10094000E104F10409F00CF42EC164E274EF80E0DC
:1009500090E0A50194010E94583B69017A01B1E041
:10096000CB1AD108E108F10885E09FEFC916D10440
:10097000E104F10409F008F416C162E17AE780E0CD
:1009800090E0A50194010E94583B69017A01B1E011
:10099000CB1AD108E108F1088FEFC816D104E104A1
:1009A000F10411F008F0F0C086E0FDC08FEFC8162A
:1009B000D104E104F10409F00CF491C068E478EE8C
:1009C00081E090E0A50198010E94583B69017A01FD
:1009D00091E0C91AD108E108F108AD8184E0A111C4
:1009E000C4CF83E0AFEFCA16D104E104F10461F192
:1009F0005CF162E17AE780E090E0A50194010E9459
:100A0000583B69017A0181E0C81AD108E108F10870
:100A100084E09FEFC916D104E104F104A9F0A0F02D
:100A2000730162019AE0F594E794D794C7949A957C
:100A3000D1F7A1E0CA1AD108E108F10885E004C0A5
:100A400081E0AD81A111AFC095B5987F892B85BD9F
:100A500089819A81AB81BC812FEF3FEFA901892B5E
:100A60008A2B8B2B79F0D801AA0FBB1F29813A81E1
:100A70004B815C810E94443A28EE33E040E050E034
:100A80000E94363B9D81913009F45CC0923009F49C
:100A90006BC091110EC0C7BC2093C9073093CA0721
:100AA0004093CB075093CC0780916E008260809377
:100AB0006E000F900F900F900F900F90DF91CF91DD
:100AC0001F910F91FF90EF90DF90CF90BF90AF906C
:100AD0009F908F907F906F905F904F90089582E0ED
:100AE000B0CF60E072E18AE790E0A50198010E9432
:100AF000583B69017A01B1E0CB1AD108E108F1084D
:100B000091E0C114D10481E0E806F10484F068E4C6
:100B100078EE81E090E0A50198010E94583B6901C0
:100B20007A0191E0C91AD108E108F10893E0AD819A
:100B3000A13009F08DCF80918100887F892B80932F
:100B4000810086CFD0928900C09288002093C5078B
:100B50003093C6074093C7075093C80780916F0032
:100B6000826080936F00A5CFC092B3002093C1072D
:100B70003093C2074093C3075093C407809170001D
:100B800082608093700095CF730162018AE0F594D2
:100B9000E794D794C7948A95D1F7B1E0CB1AD108DE
:100BA000E108F10887E09091B100987F892B80934C
:100BB000B1004ECF1F93CF93DF93182FEB0161E06D
:100BC0000E94D803209739F460E0812FDF91CF9104
:100BD0001F910C94AA03CF3FD10511F461E0F5CF2A
:100BE000E12FF0E0EC5AFC4FE491E150E23108F0E3
:100BF000B3C0F0E08827E050FA4F8F4F0C94773B5A
:100C000012061A061F0629063306AC063D064506DF
:100C10004D06570661066B067A068406AC068E06FC
:100C20009806A20684B5806884BDC7BDDF91CF91C8
:100C30001F91089584B5806284BDC8BDF7CF8091AF
:100C40008000806880938000D0938900C0938800E2
:100C5000EDCF80918000806280938000D0938B00E4
:100C6000C0938A00E3CF80918000886080938000E9
:100C7000D0938D00C0938C00D9CF8091B000806854
:100C80008093B000C093B300D1CF8091B000806258
:100C90008093B000C093B400C9CF80919000806869
:100CA00080939000D0939900C0939800BFCF80911B
:100CB0009000806280939000D0939B00C0939A0034
:100CC000B5CF80919000886080939000D0939D0074
:100CD000C0939C00ABCF8091A00080688093A0005F
:100CE0008091A0008F7B8093A000D093A900C09337
:100CF000A8009CCF8091A00080628093A000D09338
:100D0000AB00C093AA0092CF8091A000886080932E
:100D1000A000D093AD00C093AC0088CF809120019B
:100D2000806880932001D0932901C09328017ECF51
:100D300080912001806280932001D0932B01C09389
:100D40002A0174CF80912001886080932001D09384
:100D50002D01C0932C016ACFC038D1050CF03ECFD5
:100D600033CF3FB7F89480914B0790914C07A091F7
:100D70004D07B0914E0726B5A89B05C02F3F19F02F
:100D80000196A11DB11D3FBFBA2FA92F982F88270B
:100D9000BC01CD01620F711D811D911D42E0660FE6
:100DA000771F881F991F4A95D1F708958F929F92B8
:100DB000AF92BF92CF92DF92EF92FF924B015C0114
:100DC0000E94B1066B017C010E94B1066C197D097D
:100DD0008E099F09683E734081059105A8F321E0C3
:100DE000821A9108A108B10888EEC80E83E0D81EC7
:100DF000E11CF11C81149104A104B10429F7FF90B6
:100E0000EF90DF90CF90BF90AF909F908F9008951C
:100E10002FB7F89460914707709148078091490770
:100E200090914A072FBF0895089508950895AF92AD
:100E3000BF92CF92DF92EF92FF920F931F93CF93C7
:100E4000DF936C017B018B01040F151FEB015E0129
:100E5000AE18BF08C017D10759F06991D601ED91BE
:100E6000FC910190F081E02DC6011995892B79F74D
:100E7000C501DF91CF911F910F91FF90EF90DF900F
:100E8000CF90BF90AF900895FC01538D448D252FD6
:100E900030E0842F90E0821B930B541710F0CF9614
:100EA000089501970895FC01918D828D981761F046
:100EB000A28DAE0FBF2FB11D5D968C91928D9F5F5D
:100EC0009F73928F90E008958FEF9FEF0895FC013C
:100ED000918D828D981731F0828DE80FF11D858DEF
:100EE00090E008958FEF9FEF0895FC01918D228D82
:100EF000892F90E0805C9F4F821B91098F73992707
:100F000008958FEC97E00E94750721E0892B09F482
:100F100020E0822F08958CE698E00E94750721E07A
:100F2000892B09F420E0822F0895FC01A48DA80FDD
:100F3000B92FB11DA35ABF4F2C91848D90E001961B
:100F40008F739927848FA689B7892C93A089B1893B
:100F50008C91837080648C93938D848D981306C0DC
:100F60000288F389E02D80818F7D80830895EF9240
:100F7000FF920F931F93CF93DF93EC0181E0888F53
:100F80009B8D8C8D98131AC0E889F989808185FF23
:100F900015C09FB7F894EE89FF896083E889F989C5
:100FA00080818370806480839FBF81E090E0DF91C7
:100FB000CF911F910F91FF90EF900895F62E0B8D1A
:100FC00010E00F5F1F4F0F731127E02E8C8D8E11D5
:100FD0000CC00FB607FCFACFE889F989808185FF3C
:100FE000F5CFCE010E949507F1CFEB8DEC0FFD2FD1
:100FF000F11DE35AFF4FF0829FB7F8940B8FEA89F7
:10100000FB8980818062CFCF0F931F93CF93DF93B3
:101010008C01D0E0C0E0F801EC0FFD1F6491662365
:1010200041F08CE698E00E94B707892B11F02196D9
:10103000F2CFCE01DF91CF911F910F910895CF9301
:10104000DF93EC01888D8823B9F0AA89BB89E889F0
:10105000F9898C9185FD03C0808186FD0DC00FB696
:1010600007FCF7CF8C9185FFF2CF808185FFEDCF14
:10107000CE010E949507E9CFDF91CF91089580E0DE
:1010800090E0892B29F00E948B0781110E940000BB
:1010900080E090E0892B29F00E94810781110E9455
:1010A000000080E090E0892B49F080E090E0892BFF
:1010B00029F00E94000081110E94000080E090E071
:1010C000892B49F080E090E0892B29F00E940000F4
:1010D00081110C9400000895609312077093130718
:1010E0008093140790931507645D7E4F8F4F9F4F39
:1010F00060930E0770930F0780931007909311076A
:1011000082E090E090930D0780930C070E940807FF
:10111000609308077093090780930A0790930B0761
:101120000895CF92DF92EF92FF920F931F930E9448
:1011300008078B019C01C0900807D0900907E09038
:101140000A07F0900B0760911207709113078091C6
:101150001407909115070C191D092E093F09083E27
:10116000134021053105E0F0DC01CB010196A11D02
:10117000B11D8093120790931307A0931407B093A7
:101180001507B701A60148515C4F6F4F7F4F409341
:1011900008075093090760930A0770930B07C7CF9E
:1011A0001F910F91FF90EF90DF90CF9008954F9295
:1011B0005F926F927F928F929F92AF92BF92CF92E7
:1011C000DF92EF92FF920F931F93CF93DF93FC0177
:1011D0001681A12FB0E020E833E341EE51E00E94F8
:1011E000443A4B015C01C2EBD7E09D0104E610E0FC
:1011F00080E9E82EFF24F394CE01825B97408217AA
:1012000093079CF14580512C2E54384FC90164E658
:1012100070E00E94223B7C01C90160E971E00E94FC
:10122000223B6C010AE014E0C1E0D0E0390183E028
:1012300068227724C415D5050CF040C0C230D10512
:1012400071F56114710459F5E114F10419F4C11434
:10125000D10429F5B0E88B0EBBE39B1EB6E2AB1EB2
:10126000B11C21960F5F1F4FE5CFCE0183709927E8
:10127000892B99F4CE01B8010E94223B892B31F4CD
:10128000CE01B7010E94223B892B39F4A0E88A0ED7
:10129000A1E59A1EA1E0AA1EB11C2196ADCFD801EE
:1012A0008C91A82FB0E020E831E541E050E00E94A9
:1012B000443A860E971EA81EB91ED3CF228130E075
:1012C000A0E1BEE00E944F3A6B017C01218130E039
:1012D000ACE3B0E00E944F3AC60ED71EE81EF91EDE
:1012E0008081C80ED11CE11CF11CA481A150BB0B54
:1012F00020E831E541E050E00E94863B6C0D7D1D09
:101300008E1D9F1D680D791D8A1D9B1DDF91CF913C
:101310001F910F91FF90EF90DF90CF90BF90AF9013
:101320009F908F907F906F905F904F900895EF9275
:10133000FF920F9394E6E916F104CCF092EBE91AD0
:1013400097E0F90AE0921C0700931B0720931A0705
:1013500080931807609317074093160786E197E07C
:101360000E94D7080F91FF90EF900C946C089EE1BB
:10137000E90EF11CE7CF6F927F928F929F92AF920E
:10138000BF92CF92DF92EF92FF920F931F93CF9372
:10139000DF936B017C01EA018CE3882E912CA12C58
:1013A000B12CC701A50194010E94363B6883CA0194
:1013B000B901A50194010E94363B6983C701B601BA
:1013C00020E13EE040E050E00E94363BCA01B90116
:1013D00028E130E040E050E00E94363B6A83C701DC
:1013E000B60120E831E541E050E00E94363B69015A
:1013F0007A01CA01B9016C5F7F4F8F4F9F4F27E081
:1014000030E040E050E00E94363B6F5F6B83812C00
:10141000912C540140E094E6692E712C00E911E012
:10142000242F30E02E54384FF901E370FF27309716
:10143000F9F4C901B3010E94223B892B31F4C9019F
:10144000B8010E94223B892B99F48EE691E0A0E03E
:10145000B0E0880E991EAA1EBB1ED501C401AA27A2
:10146000BB27C816D906EA06FB0638F04F5FD8CF6F
:101470008DE691E0A0E0B0E0ECCF4E83C90164E6D8
:1014800070E00E94223B8C01C90160E971E00E947A
:10149000223B309729F401151105E1F40097D1F0B2
:1014A0004DE651E060E070E0841A950AA60AB70A9A
:1014B000C818D908EA08FB08AAE0B4E020E0213007
:1014C00071F4309791F50115110511F4009769F544
:1014D0004DE106C04EE651E060E070E0E5CF4C9192
:1014E00050E070E060E031E0320FC416D506E60649
:1014F000F70640F0C41AD50AE60AF70A1196232F18
:101500003C30E9F62F5F2D83C394CC82DF91CF91DD
:101510001F910F91FF90EF90DF90CF90BF90AF9011
:101520009F908F907F906F9008954CE1D9CFCF928C
:10153000DF92EF92FF92C0900407D0900507E090F1
:101540000607F0900707C616D706E806F90671F0F9
:101550006B017C0146E157E00E94BB09C092040781
:10156000D0920507E0920607F0920707FF90EF90F0
:10157000DF90CF9008950E9491080E94970A809171
:101580001C0790E08E54984F08950E9491080E9485
:10159000970A80911B0790E008950E9491080E948D
:1015A000970A80911A0790E008950E9491080E947E
:1015B000970A8091160790E008950E9491080E9472
:1015C000970A8091170790E008950E9491080E9461
:1015D000970A8091180790E00895CF92DF92EF92DA
:1015E000FF92CF93DF93EC010E9408076B017C010F
:1015F0008F850E9481039C0181E02115310509F44A
:1016000080E0898B8889811105C091E0232B09F046
:1016100090E0998B29898A89281721F0CD8ADE8A62
:10162000EF8AF88E8D899E89AF89B88DB701A601A2
:10163000481B590B6A0B7B0BDB01CA01CB80DC809A
:10164000ED80FE80C816D906EA06FB0664F43A81EE
:10165000231749F02A83222349F04B895C894F5F85
:101660005F4F5C8B4B8B3A81311117C0CF80D88490
:10167000E984FA84C816D906EA06FB0634F48B8995
:101680009C89998388831C8A1B8A2A8BDF91CF913E
:10169000FF90EF90DF90CF900895CB84DC84ED84B1
:1016A000FE84C816D906EA06FB067CF78B899C895E
:1016B000919581959109E5CF2091E106260F332779
:1016C000331F21323105ECF420919707FC0190E0A3
:1016D00080E0243069F082E00895A091E106219134
:1016E000AC014F53594FA40FB52FB11D2C93019648
:1016F000861798F38091E106680F6093E10680E019
:10170000089581E008951092970781E080939607ED
:101710001092710761E084E10E94AA0361E085E113
:101720000E94AA03E9EBF0E080818E7F80838081B4
:101730008D7F808388E48093B80085E48093BC002B
:101740000895CF93DF9391E09093C0068823B9F07A
:10175000C091B800D091BA008091BC008A7B809380
:10176000BC0060E084E10E94AA0360E085E10E9481
:10177000AA030E94830BD093BA00C093B800DF91F4
:10178000CF910895CF92DF92EF92FF920F931F9324
:10179000CF93DF93D091C00781E0D13208F09CC095
:1017A000C091BF070E94B1066B017C018091970731
:1017B00081116CC082E08093970781E08093960747
:1017C0008FEF8093950710929407D0939307AFE91A
:1017D000B7E0E3E7F7E080E0D8138DC0109272071E
:1017E00080917207CC0FC82BC0937207809171074C
:1017F000813009F084C0109271070E94B1066B011C
:101800007C01809172078093BB0080919907909131
:101810009A07A0919B07B0919C07892B8A2B8B2B51
:10182000A1F00E94B1060091990710919A072091AA
:101830009B0730919C076C197D098E099F0906173B
:1018400017072807390708F442C08091BC0083FDC0
:10185000D8CF85EC8093BC000E94B1066B017C015F
:1018600080919707823009F44CC0809195078F3F93
:1018700009F469C080919507803209F466C08091AF
:101880009507803309F463C084E026C080919907EE
:1018900090919A07A0919B07B0919C07892B8A2B66
:1018A0008B2B09F483CF0E94B10600919907109108
:1018B0009A0720919B0730919C076C197D098E092E
:1018C0009F09061717072807390708F06FCF80917F
:1018D00098070E94A10B85E010929E071092C00706
:1018E00010929D07DF91CF911F910F91FF90EF9084
:1018F000DF90CF9008959D9191938F5F6DCF85EE8E
:10190000A9CF8091990790919A07A0919B07B091D8
:101910009C07892B8A2B8B2B09F4A2CF0E94B1063E
:101920000091990710919A0720919B0730919C078D
:101930006C197D098E099F090617170728073907B3
:1019400008F08ECFC4CF80E0C7CF82E0C5CF83E060
:10195000C3CF0895E091500780914F07E81730F406
:10196000F0E0EF5AF84F808190E008958FEF9FEFFD
:1019700008959091500780914F072FEF3FEF9817F0
:1019800048F4E92FF0E0EF5AF84F208130E09F5FF4
:1019900090935007C901089580914F079091500787
:1019A000891B990B0895CF92DF92EF92FF920F93CC
:1019B0001F93CF93DF937C01CB018A0120919D0778
:1019C000222389F0EB016B01C40ED51ECC15DD0579
:1019D00069F06991D701ED91FC910190F081E02DC2
:1019E000C7011995F3CF642F0E945C0BC801DF91EA
:1019F000CF911F910F91FF90EF90DF90CF900895BE
:101A0000CF93DF931F92CDB7DEB7698320919D07F7
:101A10002223F9F02091C007203258F021E030E075
:101A2000FC013383228390E080E00F90DF91CF911F
:101A3000089580919E07E82FF0E0E156F84F9981D4
:101A400090838F5F80939E078093C00781E090E032
:101A5000ECCF61E0CE0101960E945C0BF7CF682FBE
:101A600089E099E00C94000DDF92EF92FF920F93C2
:101A70001F93CF93DF93182FF62ED42ED22F809161
:101A8000C7020E94100360E089E099E00E94000D07
:101A9000CAE08D2D6C2F0E94163B8295807F682FA7
:101AA000690F89E099E00E94000D8F2D6C2F0E9434
:101AB000163B8295807F682F690F89E099E00E942C
:101AC000000D812F6C2F0E94163B8295807F682F1E
:101AD000690F89E099E00E94000D61E089E099E0DA
:101AE0000E94000D8D2F6C2F0E94163B8295807FE7
:101AF000682F690F89E099E00E94000D802F6C2FFC
:101B00000E94163B8295807F682F690F89E099E0DB
:101B10000E94000D8E2D6C2F0E94163B8295807FB7
:101B2000682F690F89E099E00E94000D60E089E06C
:101B300099E00E94000DDF91CF911F910F91FF90CE
:101B4000EF90DF900C94C20B90E080E00895CF926C
:101B5000DF92EF92FF920F931F93CF93DF939091B9
:101B6000BF0691110BC08FEF9FEFDF91CF911F91B7
:101B70000F91FF90EF90DF90CF9008959091BE0667
:101B8000992389F3082FC091BD06D0E08091B50656
:101B900081110DC00E9408076093B1067093B206D0
:101BA0008093B3069093B40681E08093B5060E94BB
:101BB0000807C090B106D090B206E090B306F0904E
:101BC000B4066C197D098E099F096D32714081053B
:101BD0009105B0F01091B0060E9408076093B1061D
:101BE0007093B2068093B3069093B40691E0912768
:101BF0009093B006992331F11092AF061092AE0681
:101C00002091AE063091AF06209530958091AD06BB
:101C1000282326FF1CC081E08093AC0627FF1AC052
:101C200081E08093AB068091B006882309F49BCFB6
:101C300002C0D595C7950A95E2F7C0FF94CF80E022
:101C40009CE393CFD093AF06C093AE06D9CF10924A
:101C5000AC06E4CF1092AB06E6CFEF92FF920F9363
:101C60001F93CF93DF93182F8091830681110DC0AE
:101C70000E94080760937F06709380068093810618
:101C80009093820681E080938306C0917D06D09177
:101C90007E06C930D10508F077C0FE018827EC5ACE
:101CA000F14F8F4F0C94773B5D0E690E6D0E7B0EDE
:101CB0005D0E690EA00EA20EB30E0E94D7022196F1
:101CC000CA30D10509F091C010927E0610927D06AF
:101CD00028C08CEC0E94AD02F2CF84E40E94AD02D9
:101CE0000E94080760937F067093800680938106A8
:101CF00090938206E4CF0E94080700917F0610911E
:101D000080062091810630918206601B710B820B48
:101D1000930BC4E0D0E06E3E72408105910508F05F
:101D200064C06091790670917A0680917B069091EB
:101D30007C06DF91CF911F910F91FF90EF90089556
:101D40008EEBC8CF98E0E92EF12C10E001E00E9464
:101D500058028111102B000F81E0E81AF108B9F741
:101D600010937706ACCF88E0E82EF12C10E001E06C
:101D70000E9458028111102B000F21E0E21AF10895
:101D8000B9F7109378069BCFC930D10509F097CFEA
:101D900060917706709178066F3F760711F470E0D6
:101DA00060E0072E000C880B990B0E94113920E08F
:101DB00030E040E85DE30E947039111109C0609382
:101DC000790670937A0680937B0690937C0677CF92
:101DD00026E636E646EE5FE30E94703920E030E00A
:101DE00040E052E40E945F3AEACFD0937E06C0936F
:101DF0007D0697CFCF93DF93EC012196FC012081E4
:101E00002A33C9F42181243609F5229630E020E0F6
:101E10006AE0899190ED980F9A3078F4629FA00162
:101E2000639F500D1124082E000C990BC0979A0146
:101E3000280F391FEECFCE01DFCF30935606209307
:101E400055062115310511F020930B0288818F363C
:101E500089F48A81082E000C990B9C0120533109CA
:101E60003093560620935506C397059710F4209398
:101E70000A02249688818236F1F4229630E020E02E
:101E80006AE0899190ED980F9A3068F4629FA00102
:101E9000639F500D1124082E000C990BC0979A01D6
:101EA000280F391FEECF30935606209355063093F6
:101EB0000902209308022091080230910902032EA2
:101EC000000C440B550B60E67AEE80E090E00E9437
:101ED000583B82E0220F331F441F551F8A95D1F7CC
:101EE0002093510630935206409353065093540664
:101EF000CE01DF91CF910895CF92DF92EF92FF92C2
:101F00000F931F93CF93DF93EC018B010E9408077F
:101F1000CE80DF80E884F984AB01BC014C195D09F7
:101F20006E097F0988819981092E000CAA0BBB0BD1
:101F300084179507A607B707A0F48A85882389F038
:101F40001A868D811C821D82823060F181E090E0D2
:101F5000DF91CF911F910F91FF90EF90DF90CF9085
:101F600008958B859C8580179107C9F481E08C8347
:101F70008D818F5F8D830E9408076E837F838887A2
:101F8000998781E08A872D818A819B81281719068C
:101F90004CF01C821D821A868FEF9FEFD9CF8C8167
:101FA000811103C090E080E0D3CF0F3F1F4FD1F7E6
:101FB000DFCF8EBD00000DB407FEFDCF8EB50895B6
:101FC0008F929F92AF92BF92CF92DF92EF92FF9249
:101FD0000F931F93CF93DF937C01D62F0E94B106FE
:101FE0004B015C0180919707811167C0CD2F81E083
:101FF00080939707809396079FEF90939507109291
:1020000094079D0F909393078093720780917207B6
:10201000EE0CFF1C8E29809372078091710781302E
:1020200009F083C0109271070E94B1066B017C0118
:10203000809172078093BB008091990790919A07D5
:10204000A0919B07B0919C07892B8A2B8B2BA1F029
:102050000E94B1068090990790909A07A0909B07E4
:10206000B0909C076C197D098E099F09861697060A
:10207000A806B90608F442C08091BC0083FDD8CF01
:1020800085EC8093BC000E94B1066B017C018091BD
:102090009707813009F44BC0809194078D1710F495
:1020A000C0919407E3E7F7E0A1E5B7E080E08C1783
:1020B00051F191919D938F5FFACF80919907909103
:1020C0009A07A0919B07B0919C07892B8A2B8B2B99
:1020D00009F488CF0E94B1060091990710919A07E0
:1020E00020919B0730919C07681979098A099B09FF
:1020F000061717072807390708F074CF809198074B
:102100000E94A10BC0E010925007C0934F078C2F84
:10211000DF91CF911F910F91FF90EF90DF90CF90C3
:10212000BF90AF909F908F90089585EEAACF809139
:10213000990790919A07A0919B07B0919C07892BD2
:102140008A2B8B2B09F4A3CF0E94B10680909907AC
:1021500090909A07A0909B07B0909C076C197D09FE
:102160008E099F0986169706A806B90608F08FCF34
:10217000C5CFCF93C091C7028C2F0E94100360E09F
:1021800089E099E00E94000D0E94C20B67E070E0B8
:102190008C2F90E00E94E00F89E099E00E94B90C3A
:1021A000982F92959F70CAE08F709C9F800D11248C
:1021B00090E0909344078093430789E099E00E9460
:1021C000B90C982F92959F708F709C9F800D112451
:1021D00090E090933B0780933A0789E099E00E9452
:1021E000B90C982F929593708F709C9F800D11243D
:1021F00090E0909339078093380789E099E00E9436
:10220000B90C89E099E00E94B90C982F92959F70C3
:102210008F709C9F800D112490E090933D078093D8
:102220003C0789E099E00E94B90C982F92959F7025
:102230008F709C9F800D112490E090933F078093B6
:102240003E0789E099E00E94B90C982F92959F7003
:102250008F709C9F800D112490E08053984F909335
:10226000410780934007CF910895FC010190002021
:10227000E9F73197AF01481B590BBC018CE698E098
:102280000C941707CF93DF930E940408EC018AE3B4
:1022900094E00E9435118C0F9D1FDF91CF9108951E
:1022A0008F929F92AF92BF920F931F93CF93DF9322
:1022B000CDB7DEB7A1970FB6F894DEBF0FBECDBF86
:1022C00019A2423008F44AE08E010F5D1F4F842EA0
:1022D000912CB12CA12CA50194010E94363BE62F34
:1022E000B901CA01EA30F4F4E05DD801EE938D0142
:1022F000232B242B252B79F790E080E0109719F001
:10230000CD010E943511A1960FB6F894DEBF0FBE25
:10231000CDBFDF91CF911F910F91BF90AF909F9054
:102320008F900895E95CE1CFCF93DF93682F70E041
:1023300090E080E04AE00E945011EC018AE394E0D2
:102340000E9435118C0F9D1FDF91CF910895FC01E4
:1023500080819181009711F00C94993860E070E0D1
:10236000CB0108954F925F926F927F928F929F92CE
:10237000AF92BF92CF92DF92EF92FF92CF93DF9313
:10238000CDB7DEB72D970FB6F894DEBF0FBECDBF29
:102390000E94B106C090A706D090A806E090A906BA
:1023A000F090AA066C197D098E099F096A31714463
:1023B0008105910508F478C20E94B1066093A706D2
:1023C0007093A8068093A9069093AA068091A6060A
:1023D0008823A1F180E00E94D90F80E00E94D90FEC
:1023E00080E00E94D90F80E00E94D90F80E00E9417
:1023F000D90F80E00E94D90F80E00E94D90F80E0C1
:102400000E94D90F61E08AE00E94AA0360E08AE09E
:102410002D960FB6F894DEBF0FBECDBFDF91CF91E2
:10242000FF90EF90DF90CF90BF90AF909F908F90F4
:102430007F906F905F904F900C94AA0382E39AE094
:102440000E94A71169837A838B839C8360E08AE072
:102450000E94AA03FAE0CF2ED12CE12CF12C698145
:102460007A818B819C81A70196010E94583B49018A
:102470005A01660F771F6A507C4FDB014D905C90CC
:1024800087E090E00E94A70D3C01C501B401A701BF
:1024900096010E94583B660F771F6A507C4FFB01E4
:1024A0008080918087E090E00E94A70D5C016981A7
:1024B0007A818B819C8124E630E040E050E00E94EC
:1024C000583BCA01B901A70196010E94583B660F0B
:1024D000771F6A507C4FDB01ED90FC9086E090E026
:1024E0000E94A70D46205720712C612C24E1440C3A
:1024F000551C661C771C2A95D1F78E219F21B0E0D0
:10250000A0E073016201C82AD92AEA2AFB2A8A209C
:102510009B20B12CA12C3AE0880C991CAA1CBB1C56
:102520003A95D1F7C828D928EA28FB2869817A8109
:102530008B819C8128EE33E040E050E00E94583BC4
:1025400029013A018091AC06882309F47AC1689484
:10255000F6F88091AB06882309F476C16894F7F801
:10256000B0912C07BD878F2D9927AA27BB278D8374
:102570009E83AF83B8874701AA24BB24BB27AF2D16
:102580009E2D8D2D89879A87AB87BC879D85992342
:1025900009F45DC18C2D0E94D90F89850E94D90F45
:1025A000882D0E94D90F8D810E94D90F8AE0882E34
:1025B000912CA12CB12CC301B201A50194010E9460
:1025C000583B660F771F6A507C4FDB01CD90DC9043
:1025D00085E090E00E94A70D7C0169817A818B8162
:1025E0009C8120E137E240E050E00E94583BCA0164
:1025F000B901A50194010E94583B660F771F6A50EC
:102600007C4FFB016080718084E090E00E94A70D08
:10261000CE20DF20F12CE12C34E1CC0CDD1CEE1CB3
:10262000FF1C3A95D1F786219721B0E0A0E04AE05F
:10263000880F991FAA1FBB1F4A95D1F7C82AD92A0C
:10264000EA2AFB2A69817A818B819C8120EA36E81B
:1026500041E050E00E94583BCA01B901A501940134
:102660000E94583B660F771F6A507C4FDB01AD908C
:10267000BC9083E090E00E94A70D8A219B21B0E0EE
:10268000A0E0C82AD92AEA2AFB2A69817A818B81AB
:102690009C8120E432E44FE050E00E94583B290145
:1026A0003A018091AC06882309F4DCC06894F6F8FE
:1026B0008091AB06882309F4D8C06894F7F88F2D71
:1026C0009927AA27BB278D839E83AF83B8874701AD
:1026D000AA24BB24BB27AF2D9E2D8D2D89879A87D9
:1026E000AB87BC879D85992309F4C2C08C2D0E94BD
:1026F000D90F89850E94D90F882D0E94D90F8D810D
:102700000E94D90F3AE0832E912CA12CB12CC30149
:10271000B201A50194010E94583B660F771F6A50D1
:102720007C4FDB01CD90DC9082E090E00E94A70D11
:102730007C0169817A818B819C8120E836E948E9B6
:1027400050E00E94583BCA01B901A50194010E94C2
:10275000583B660F771F6A507C4FFB016080718089
:1027600081E090E00E94A70DCE20DF20F12CE12C2B
:1027700064E1CC0CDD1CEE1CFF1C6A95D1F78621B0
:102780009721B0E0A0E07AE0880F991FAA1FBB1F35
:102790007A95D1F7C82AD92AEA2AFB2A69817A814F
:1027A0008B819C8120E031EE45EF55E00E94583B43
:1027B000CA01B901A50194010E94583B660F771F19
:1027C0006A507C4FDB01AD90BC9090E080E00E94AD
:1027D000A70D8A219B21B0E0A0E08C299D29AE297C
:1027E000BF292091AC066C017D01222309F44BC066
:1027F0006894F6F88091AB06882309F447C0689482
:10280000F7F84F2C5524662477244701AA24BB24CB
:10281000BB27AF2D9E2D8D2D89839A83AB83BC83DF
:102820009D859923B1F18C2D0E94D90F89810E9439
:10283000D90F882D0E94D90F842D0E94D90F61E0F5
:10284000E6CDE894F6F885CEE894F7F889CE8D8148
:102850000E94D90F882D0E94D90F89850E94D90F17
:102860008C2DA2CEE894F6F823CFE894F7F827CF82
:102870008D810E94D90F882D0E94D90F89850E94D1
:10288000D90F8C2D3DCFE894F6F8B4CFE894F7F843
:10289000B8CF842D0E94D90F882D0E94D90F89812D
:1028A0000E94D90F8C2DC9CF2D960FB6F894DEBF9C
:1028B0000FBECDBFDF91CF91FF90EF90DF90CF9013
:1028C000BF90AF909F908F907F906F905F904F9050
:1028D00008950F931F93CF93DF938C01EB01FC01BD
:1028E000808191810097E1F068817981611571059E
:1028F000A9F0428153812C813D814217530770F02A
:102900000E94B13D8C819D81F801958384831D8255
:102910001C82DF91CF911F910F9108950E943E3C40
:1029200088819981F801918380838A819B81938337
:1029300082838C819D8195838483198218821B8276
:102940001A82E5CFCF93DF93EC01888199810097BC
:1029500011F00E943E3C198218821D821C821B824B
:102960001A82DF91CF910895FC01808191810097B7
:1029700011F00C943E3C08950F931F93CF93DF9377
:10298000EC0188819981009759F02A813B812617B3
:10299000370730F081E0DF91CF911F910F910895BB
:1029A0008B016F5F7F4F0E94C73C009759F099835E
:1029B00088831B830A832C813D81232B59F7FC01DB
:1029C0001082E8CF80E0E7CFEF92FF920F931F9342
:1029D000CF93DF936115710541F480E0DF91CF91D2
:1029E0001F910F91FF90EF90089541155105B1F09F
:1029F0007B01EC010C811D81040F151FB8010E94A1
:102A0000BC14882351F3288139818C819D81B701C1
:102A1000820F931F0E94B13D1D830C8381E0DECFA6
:102A20000F931F93CF93DF931F921F92CDB7DEB703
:102A30008C0169831A8241E050E0BE016F5F7F4FD5
:102A40000E94E414811103C0C8010E94A214C801AD
:102A50000F900F90DF91CF911F910F910895CF9319
:102A6000DF93EC01FB0101900020E9F73197AF0102
:102A7000461B570B0E94E414811103C0CE010E9433
:102A8000A214CE01DF91CF910895CF93DF93EC0193
:102A9000FB0144815581608171810E94E4148111A0
:102AA00003C0CE010E94A214CE01DF91CF91089500
:102AB000EF92FF920F931F93CF93DF93EC017B0173
:102AC0008A01BA010E94BC1481110BC0CE010E9480
:102AD000A214CE01DF91CF911F910F91FF90EF9043
:102AE00008951D830C83B701888199810E94B13DAF
:102AF000F0CFFB0101900020E9F73197AF01461BB1
:102B0000570B0C9458150F931F93CF93DF93CDB7AA
:102B1000DEB762970FB6F894DEBF0FBECDBF8C0153
:102B2000CB01F80111821082138212821582148265
:102B30004AE0BE016F5F7F4F0E94C038BE016F5FE9
:102B40007F4FC8010E94791562960FB6F894DEBFD8
:102B50000FBECDBFDF91CF911F910F910895CF93FD
:102B6000DF93EC01FB018617970749F060817181C3
:102B70006115710541F0448155810E945815CE01BF
:102B8000DF91CF9108950E94A214F9CFFC01118228
:102B9000108213821282158214820C94AF15FC01EC
:102BA000118210821382128215821482FB0101901D
:102BB0000020E9F73197AF01461B570B0C945815CD
:102BC000AF92BF92CF92DF92EF92FF920F931F933B
:102BD000CF93DF936C015B017A01890124173507DC
:102BE00020F48F2D7901042F182F6CE374E0C601B7
:102BF0000E94CF15D5011496CD91DC91EC16FD06FF
:102C0000E0F40C171D0708F4E801D501ED91FC91E3
:102C10001197EC0FFD1F108110826D917C916E0D4C
:102C20007F1DC60161157105A1F00E947915F5019E
:102C300080819181C80FD91F1883C601DF91CF9180
:102C40001F910F91FF90EF90DF90CF90BF90AF90CA
:102C500008950E94A214EBCF4F925F926F927F92E1
:102C60008F929F92AF92BF92CF92DF92EF92FF929C
:102C70000F931F93CF93DF9300D000D0CDB7DEB773
:102C80007C014B015A018091760681113AC081E0A6
:102C9000809376069DE6692E96E0792E24E6422EF4
:102CA00026E0522E10E000E00F5F1F4F680181E028
:102CB000C81AD1089801A601B401CE0101960E945C
:102CC000E015CE0101960E94A711D3016D933D013D
:102CD000CE0101960E94B4149801A601B501CE015F
:102CE00001960E94E015CE0101960E94A711F20103
:102CF00061932F01CE0101960E94B4140930110591
:102D000099F6909163068DE6C82E86E0D82EE4E60B
:102D1000F6E08601A801D8018C919A3008F04DC0E8
:102D20008F5F8C930F5F1F4FDA018C918A3019F4FB
:102D3000D80111971C923196B6E006371B0751F760
:102D40009F5F943109F43FC0909363066CE374E095
:102D5000C7010E94CF15FE0131965F01D6018D910A
:102D60006D014AE0B50190E00E94C038F501019084
:102D70000020E9F73197AF014A195B09B501C70196
:102D80000E94E4140C151D0549F7C70126960FB6DD
:102D9000F894DEBF0FBECDBFDF91CF911F910F9191
:102DA000FF90EF90DF90CF90BF90AF909F908F906B
:102DB0007F906F905F904F9008952081281709F4BD
:102DC000B1CF8F5FAECF1092630610927606BECF62
:102DD000CF92DF92EF92FF921F93CF93DF93CDB705
:102DE000DEB72C970FB6F894DEBF0FBECDBF182FFD
:102DF0006CE874E0CE0107960E94CF1522E030E027
:102E000050E040E0133081F024E030E042E050E058
:102E10001C3051F026E030E0103321F0103FA9F4CF
:102E200028E030E044E050E062E37AE0CE01019631
:102E30000E94E015BE016F5F7F4FCE0107960E9492
:102E40006914CE0101960E94B414CE0107960E9427
:102E5000A7116B01CE0107960E94B414C6012C96EF
:102E60000FB6F894DEBF0FBECDBFDF91CF911F919B
:102E7000FF90EF90DF90CF900895EF92FF920F9325
:102E80001F93CF93DF93CDB7DEB762970FB6F89459
:102E9000DEBF0FBECDBF7C018B0177FF03C0119554
:102EA00001951109B801C7010E948315083E83E00E
:102EB00018070CF082C0B801CE010D960E94831550
:102EC00062E874E0CE0101960E94CF15BE016F5FEB
:102ED0007F4FCE0107960E94C615BE01635F7F4FEC
:102EE000CE0107960E944515BC01C7010E94AF158F
:102EF000CE0107960E94B414CE0101960E94B4142C
:102F0000CE010D960E94B414043611050CF055C084
:102F1000B801CE010D960E94831561E874E0CE01E0
:102F200001960E94CF15BE016F5F7F4FCE010796BD
:102F30000E94C615BE01635F7F4FCE0107960E94B7
:102F40004515BC01C7010E94AF15CE0107960E942E
:102F5000B414CE0101960E94B414CE010D960E94C5
:102F6000B4140A3011054CF5B801CE010D960E943B
:102F7000831560E874E0CE0101960E94CF15BE0172
:102F80006F5F7F4FCE0107960E94C615BE01635F3B
:102F90007F4FCE0107960E944515BC01C7010E94D4
:102FA000AF15CE0107960E94B414CE0101960E947F
:102FB000B414CE010D960E94B414C70162960FB6E8
:102FC000F894DEBF0FBECDBFDF91CF911F910F915F
:102FD000FF90EF9008950F931F93CF93DF93CDB79A
:102FE000DEB762970FB6F894DEBF0FBECDBF8C017F
:102FF00077FF03C07195619571096A307105A4F579
:10300000CE010D960E94831562E874E0CE01019610
:103010000E94CF15BE016F5F7F4FCE0107960E94C1
:10302000C615BE01635F7F4FCE0107960E9445150E
:10303000BC01C8010E94C615CE0107960E94B414B7
:10304000CE0101960E94B414CE010D960E94B414D4
:10305000C80162960FB6F894DEBF0FBECDBFDF91F8
:10306000CF911F910F910895C8010E948315F0CF51
:103070000F931F93CF93DF93CDB7DEB768970FB64B
:10308000F894DEBF0FBECDBF8B018330D9F5209100
:10309000360A3091370A42E050E062E37AE0CE012E
:1030A0000D960E94E015B801CE0101960E94EB1723
:1030B000BE016F5F7F4FCE0107960E94C615BE010D
:1030C000635F7F4FCE0107960E944515BC0182E3E6
:1030D0009AE00E94AF15CE0107960E94B414CE016B
:1030E00001960E94B414CE010D960E94B414689605
:1030F0000FB6F894DEBF0FBECDBFDF91CF911F9109
:103100000F9108958C3009F042C02091360A309119
:10311000370A44E050E062E37AE0CE0143960E9431
:10312000E015B801CE010D960E94EB1722E030E0C9
:1031300050E040E062E37AE0CE0101960E94E015A3
:10314000BE016F5F7F4FCE0107960E94C615BE017C
:10315000635F7F4FCE0107960E944515BE016D5EED
:103160007F4F0E944515BC0182E39AE00E94AF1593
:10317000CE0107960E94B414CE0101960E94B414A9
:10318000CE010D960E94B414CE014396AECF20918D
:10319000360A3091370A46E050E0803349F0803FEC
:1031A00009F0A5CF2091360A3091370A48E050E067
:1031B00062E37AE0CE0143960E94E015B801CE01A9
:1031C0000D960E94EB1724E030E0B2CF0E94080772
:1031D00060935A0670935B0680935C0690935D063D
:1031E00080915906882309F44FC0209157063091E9
:1031F0005806C901880F991F22313105A1F1FC0140
:10320000E35CFD4F4081518141505109518340831E
:10321000DC01A35CBD4F6D917C911197FC01E559D8
:10322000FD4F40815181641775073CF4FC01E7565E
:10323000FD4F408151814D935C932131310509F55A
:1032400020915F023091600221303105B9F420E80D
:103250002093AD06835C9D4FFC016081718180915C
:10326000BD060C94381840916102509162024C5096
:1032700051095093620240936102CACF1092AD0689
:10328000E9CF2A30310531F708950E94080760938D
:103290005A0670935B0680935C0690935D0680915E
:1032A0005906882309F444C02091570630915806E6
:1032B000C901880F991F2231310561F1FC01E35CDE
:1032C000FD4F408151814F5F5F4F51834083DC014F
:1032D000A35CBD4F6D917C911197FC01E756FD4FAA
:1032E00040815181461757073CF4FC01E559FD4FD9
:1032F000408151814D935C9321313105B1F410929D
:10330000AD06835C9D4FFC01608171818091BD069B
:103310000C9438184091610250916202445F5F4FF3
:103320005093620240936102D2CF2A30310549F7AF
:1033300008950F931F93CF93DF93CDB7DEB76897B0
:103340000FB6F894DEBF0FBECDBF8C018091610235
:1033500090916202489709F048C00E94D50ABC01CA
:10336000CE0143960E94EB170E94DD0ABC01CE01FC
:103370000D960E94EB170E94E50ABC01CE01019652
:103380000E94EB17BE016F5F7F4FCE0107960E9430
:10339000C615BE01635F7F4FCE0107960E9445159B
:1033A000BE016D5E7F4F0E944515BC01C8010E94A1
:1033B000C615CE0107960E94B414CE0101960E9454
:1033C000B414CE010D960E94B414CE0143960E940F
:1033D000B414C80168960FB6F894DEBF0FBECDBF17
:1033E000DF91CF911F910F9108950E94D50ABC01E2
:1033F000CE0143960E94EB170E94DD0ABC01CE016C
:103400000D960E94EB170E9491080E94970A8091E6
:1034100018076CE070E0882309F4B0CF682F70E0E3
:103420008D3008F4ABCF6C507109A8CF8F929F926A
:10343000AF92BF92CF92DF92EF92FF920F931F93C2
:10344000CF93DF93CDB7DEB72C970FB6F894DEBFDE
:103450000FBECDBF8C016A017B0180919D06811159
:1034600011C00E940807645B7B4F8F4F9F4F609392
:10347000990670939A0680939B0690939C0681E030
:1034800080939D0680919106811109C06DE774E0DB
:103490008BE896E00E94CF1581E0809391060E9410
:1034A00008078090990690909A06A0909B06B0908D
:1034B0009C06681979098A099B09693E7340810550
:1034C000910508F4FDC00E94080760939906709367
:1034D0009A0680939B0690939C0620E030E040E2A1
:1034E00051E4C701B6010E9470396B017C0120E0F4
:1034F00030E0A9010E94013B20E030E040E05FE3C2
:1035000087FDF7C0C701B6010E945F3A0E94CB3A1F
:103510007B0177FF04C0EE24FF24E61AF70A5B0163
:1035200039E1A31A3CEFB30A8091630290916402DF
:103530009B012D593F4F69012A5531094901B701B6
:10354000892B09F0DBC0CE0107960E94831562E843
:1035500074E0CE0101960E94CF15BE01695F7F4FD6
:10356000CE0101960E94451562E874E00E942F1575
:10357000BC018BE896E00E94AF15CE0101960E9437
:10358000B414CE0107960E94B4143FECA31637E0A2
:10359000B30618F5B701CE0107960E94831561E8BE
:1035A00074E0CE0101960E94CF15BE01695F7F4F86
:1035B000CE0101960E94451562E874E00E942F1525
:1035C000BC018BE896E00E94AF15CE0101960E94E7
:1035D000B414CE0107960E94B41487ECC816D10427
:1035E00018F5B701CE0107960E94831560E874E0D4
:1035F000CE0101960E94CF15BE01695F7F4FCE01BB
:1036000001960E94451562E874E00E942F15BC01E6
:103610008BE896E00E94AF15CE0101960E94B4148B
:10362000CE0107960E94B41423E18216910418F586
:10363000B701CE0107960E9483156FE774E0CE01B3
:1036400001960E94CF15BE01695F7F4FCE010196A2
:103650000E94451562E874E00E942F15BC018BE8BA
:1036600096E00E94AF15CE0101960E94B414CE01DF
:1036700007960E94B4148091630290916402892B92
:1036800009F0D3C094E3F92E6CE374E0CE01019607
:103690000E94CF156BE876E0CE0101960E94451599
:1036A00061E874E00E942F156F2D0E941015BC0177
:1036B0008BE896E00E94AF15CE0101960E94B414EB
:1036C0006BE876E0C8010E94C615C8012C960FB6BB
:1036D000F894DEBF0FBECDBFDF91CF911F910F9148
:1036E000FF90EF90DF90CF90BF90AF909F908F9022
:1036F0000895C701B6010E945E3A08CFCE01079631
:103700000E94831562E874E0CE0101960E94CF15F5
:10371000BE01695F7F4FCE0101960E94451562E8A8
:1037200074E00E942F15BC018BE896E00E94AF1553
:10373000CE0101960E94B414CE0107960E94B414E3
:103740003FECA31637E0B30638F5C7016AE070E036
:103750000E94223BCE0107960E94831561E874E027
:10376000CE0101960E94CF15BE01695F7F4FCE0149
:1037700001960E94451561E874E00E942F15BC0176
:103780008BE896E00E94AF15CE0101960E94B4141A
:10379000CE0107960E94B41487ECC816D10438F500
:1037A000C7016AE070E00E94223BCE0107960E94AA
:1037B000831560E874E0CE0101960E94CF15BE012A
:1037C000695F7F4FCE0101960E94451561E874E064
:1037D0000E942F15BC018BE896E00E94AF15CE0128
:1037E00001960E94B414CE0107960E94B41423E1FE
:1037F0008216910408F03FCFC7016AE070E00E9492
:10380000223BCE0107960E9483156FE774E0CE013C
:1038100001960E94CF15BE01695F7F4FCE010196D0
:103820000E94451561E874E017CF81E3F82E2CCF94
:1038300085ED8093BC008091990790919A07A091A3
:103840009B07B0919C070796A11DB11D23E0B6957B
:10385000A795979587952A95D1F72091BC0024FDCF
:1038600003C01092970708954091990750919A07C5
:1038700060919B0770919C07452B462B472B69F362
:103880000097A105B10541F02AE22A95F1F700C0A1
:103890000197A109B109E1CF809198070C94A10B80
:1038A0000C94363A0C942E3A88E090E00E94521C18
:1038B000682F70E089E00E94DA0589E090E00E94BC
:1038C000521C682F70E086E00E94DA058AE090E0E2
:1038D0000E94521C682F70E083E00C94DA058091FE
:1038E000A606882341F01092A6068091A506809333
:1038F0000E020C94541C08950F931F9380915F0245
:1039000090916002892B09F44BC080916206882354
:10391000A9F00E94080700915E0610915F062091B1
:10392000600630916106601B710B820B930B693E40
:10393000734081059105A0F1109262060E94E50A8C
:103940002091590230915A028217930749F50E943B
:10395000DD0A20915B0230915C028217930701F52A
:103960000E94D50A20915D0230915E028217930772
:10397000B9F40E946F1C0E94080760935E06709362
:103980005F06809360069093610681E080936206F3
:1039900080910C0290910D02909337078093360727
:1039A0001F910F9108952F923F924F925F926F92C5
:1039B0007F928F929F92AF92BF92CF92DF92EF92BF
:1039C000FF920F931F93CF93DF93CDB7DEB7EE97A0
:1039D0000FB6F894DEBF0FBECDBF809157058111A1
:1039E00007C00E94E50A8093560581E08093570541
:1039F00080915906811129C00091560510E00E945E
:103A0000E50A0817190709F10E94E50A809356058F
:103A10000E94E50A2091670230916802821793079D
:103A200049F481E08093A60680910E028093A5065A
:103A300010920E020E94E50A2091690230916A02FA
:103A40008217930711F40E946F1C0E94080720E15F
:103A500037E240E050E00E94363B672B682B692B31
:103A600001F5809142078823E1F00E94B910E090AF
:103A70004007F090410700913E0710913F072091C9
:103A80003C0730913D0740914307509144076091B6
:103A90003A0770913B0780913807909139070E944F
:103AA00097090E94080760934D0670934E06809315
:103AB0004F06909350060091490610914A062091B6
:103AC0004B0630914C06601B710B820B930B6136D9
:103AD0007A4E81059105E0F180914806811107C079
:103AE0008CE592E00E94421181E0809348068FECC1
:103AF00097E00E947507892B59F18FEC97E00E949F
:103B000053079091B705E92FF0E0EC59FA4F808305
:103B10009F5F923509F40CC19093B7058A30C1F4C8
:103B2000E091B705F0E0EC59FA4F10821092B7051A
:103B3000E5E6F5E021E030E040E05191C901019671
:103B40005A3209F4F8C045279C0183359105A9F73D
:103B500080914D0690914E06A0914F06B09150066F
:103B60004091490650914A0660914B0670914C066F
:103B70008C019D01041B150B260B370BB901A80105
:103B8000413C544D6140710570F08093490690931B
:103B90004A06A0934B06B0934C068CE392E00E9439
:103BA00042111092480610923C0610923D06109267
:103BB0003E0610923F068CE199E090934306809375
:103BC00042060091190910E010934506009344063F
:103BD0008091E60990E09093470680934606809195
:103BE00015098530B1F5809119098A3108F4B7C2F9
:103BF00080911C0990911D09843F914008F080C27A
:103C000010924106109240068FEF9FEFDC018093E7
:103C10003C0690933D06A0933E06B0933F068BE092
:103C200090E0909339068093380660913C0670913D
:103C30003D0680913E0690913F0640E10E94501162
:103C40008AE394E00E94351182E080931509109276
:103C5000190960913C0670913D068CE69AE00E943D
:103C60007C0F909337068093360660913C067091E6
:103C70003D068FE59AE00E947C0F90933506809375
:103C8000340660913C0670913D0682E59AE00E9400
:103C90007C0F909333068093320600913607109183
:103CA0003707F8018081882309F4C3C30E940807FD
:103CB000C090BE05D090BF05E090C005F090C10552
:103CC0006C197D098E099F09C090BA05D090BB057B
:103CD000E090BC05F090BD05C616D706E806F906CB
:103CE00008F0A7C30E9408074B015C018092BE0543
:103CF0009092BF05A092C005B092C105780130E056
:103D000020E04AE0F801D1908F0180ED8D0D8A30DE
:103D100008F0C5C2429FC001439F900D11242D2D74
:103D2000DD0C330B20533109280F391F7F01EACFF7
:103D30001092B705F3CE8C599A4FFC0180818134E3
:103D40000CF087538295807F2C593A4FF90192816C
:103D500091349CF19753890F4813FACE80916405F2
:103D6000843209F0F5CE80916705823509F0F0CEF6
:103D7000809168058D3409F0EBCE8091690583341C
:103D800009F0E6CEA0E7B5E090E080E0ECE0F0E0FE
:103D90002D912C3209F093C101968130910579F46F
:103DA0002C91213409F48BC18DE394E00E943511EC
:103DB0008AE394E00E943511CBCE9053CCCF88306B
:103DC000910509F07CC1EF5FA0906B0590906C05A8
:103DD000B0906D0560906E0570906F054090700515
:103DE000F0E0EC59FA4FC080D1808281082E000C9F
:103DF000990BC0971AE0189F7001199FF00C1124BD
:103E00008381E80EF11C87FDFA9400E3E01AF108C3
:103E1000048155804CE050E061E070E0C7010E94F1
:103E20008338882309F494CE8C2DCC0C990BC09741
:103E3000189F9001199F300D1124C9018D0D911DFE
:103E4000D7FC9A956C0190E3C91AD1084FE150E074
:103E500061E070E0C6010E948338882309F478CEBF
:103E60008A2DAA0C990BC097189F9001199F300DAD
:103E70001124F901E90DF11D97FCFA954F01F0E3CA
:103E80008F1A910847E150E070E060E0C4010E94A1
:103E90008338882309F45CCE8B2DBB0C990BC0971B
:103EA000189F5001199FB00C1124A60CB11C67FC7F
:103EB000BA9420E3A21AB1084BE350E070E060E04E
:103EC000C5010E948338882309F442CE872D770CE0
:103ED000990BC097189F3001199F700C1124640C26
:103EE000711C47FC7A9430E3631A71084BE350E08D
:103EF00070E060E0C3010E948338882309F428CE73
:103F0000202F000F330B20533109129FC001139F44
:103F1000900D11248C010053184F050D111D57FCF5
:103F20001A9500531109063E87E01807C4F4698208
:103F3000AA828B82CD82EE82025B0F83CE01019634
:103F40000E94D70886519B4DAE014F5F5F4F0E9484
:103F5000BB090F8110E00E54184FEE80CD8046EF64
:103F600057E062EE77E0C8010E948338882309F4A5
:103F7000EFCD8092460AA092470A6092480AC0920A
:103F8000490AE0924A0A10934C0A00934B0A0E9495
:103F900008076B017C01C0924E0AD0924F0AE09252
:103FA000500AF092510A8091630581118FC00E94DE
:103FB00008076C197D098E099F09693B7B408105C3
:103FC000910508F0C5CD84E192E00E9442118091F4
:103FD000460A0E9494118091470A0E949411809190
:103FE000480A0E94941180914B0A90914C0A18EE55
:103FF000C12E13E0D12EB6010E94223B7C0100911C
:104000004A0A10E02091490A30E04091480A50E005
:104010006091470A70E08091460A90E00E949709FB
:10402000A0916502B091660220E13EE00E947F3BD4
:104030000091120710911307209114073091150772
:10404000DC01CB01800F911FA21FB31F80931207C9
:1040500090931307A0931407B09315070E9491083B
:1040600046E157E00E94BB090E94BB0A4C010E9436
:10407000C50A082F0E94CD0AB82E0E94D50AF82E34
:104080000E94DD0A182F0E94E50A382FC401B601EC
:104090000E94223BE82E2B2D4F2D612F832F0E9453
:1040A000340D81E0809363050E94080760935F05EB
:1040B00070936005809361059093620549CD3196B8
:1040C000E335F10509F064CEE0E07ECE0E940807FA
:1040D00000915F05109160052091610530916205A6
:1040E000601B710B820B930B613477478B419105F9
:1040F00018F0109263052CCD81E08093630528CDE4
:1041000080911E0990911F0985974B9740F5E5E135
:10411000F9E082E090E040E050E0BA01DC01119665
:10412000209119092A171B0609F00CF48EC023856B
:104130003485275031092730310508F085C02585A1
:104140003685235131092F30310508F470C025859B
:1041500036852A5031092930310508F470C00630FF
:1041600011050CF471CD85E199E09EAF8DAF43E070
:10417000242E312C55ECC52E5DE9D52E5CE1E52EC3
:1041800051E8F52E201631060CF078C0EDADFEADED
:1041900065857685A184B28490E080E00E940F3925
:1041A0002B013C01B50190E080E00E940F394B01EA
:1041B0005C012DEC3CEC4CE45FE30E9470399B0108
:1041C000AC01C301B2010E940A39F0E0E0E087FDD2
:1041D00014C02DEC3CEC4CE45FE3C301B2010E943F
:1041E00070399B01AC01C501B4010E940A39E2E0BB
:1041F000F0E087FD02C0E1E0F0E0A701960163E98D
:1042000071E080E091E00E94063B6F01FF0FEE0835
:10421000FF08C626D726E826F926FFEF2F1A3F0A01
:104220002DAD3EAD2E5F3F4F3EAF2DAFABCF440F18
:10423000551F661F771F4160029634966FCF440F5B
:10424000551F661F771FF8CFCD010197959587956C
:1042500090934106809340060C972CF410924106EF
:10426000109240067CCF40933C0650933D066093ED
:104270003E0670933F0684E090E0D3CCC0923C06AB
:10428000D0923D06E0923E06F0923F0680E290E03A
:1042900090934106809340068FEF9FEFC2CC3093FE
:1042A00056062093550660915106709152068091F2
:1042B0005306909154062115310511F1032E000C7F
:1042C000440B550B0E94583B2093BA053093BB0515
:1042D0004093BC055093BD05EFE9ED0DE730B0F418
:1042E0000E2E000CFF0B8827E758FE4D8F4F0C94C5
:1042F000773B8F2491248324872489248B248D2445
:1043000020910B0230E050E040E0DCCF1092B90584
:10431000F7018181833241F48091B9058F5F8093E9
:10432000B90587010E5F1F4FF80180818E32F1F4CD
:10433000C090BA05D090BB05E090BC05F090BD05DB
:10434000C701B60122E030E040E050E00E94583B57
:10435000C20ED31EE41EF51EC092BA05D092BB0554
:10436000E092BC05F092BD050F5F1F4FF801808100
:1043700080538A3008F0D7C28093B8050F5F1F4F73
:10438000F80180818C3211F40F5F1F4FE091B90565
:10439000EE2309F44EC0C090BA05D090BB05E09062
:1043A000BC05F090BD058091B8058450990B4CE098
:1043B000489F9001499F300D1124E20FF32FF11D0A
:1043C000EE0FFF1FEA51FD4FB701A60180819181D9
:1043D0000E9414040E940807681979098A099B0938
:1043E000C616D706E806F90620F50E94080760936E
:1043F000BE057093BF058093C0059093C105809161
:10440000CE07813009F494C2823009F497C2811139
:1044100005C080916E008D7F80936E0060E080917A
:10442000CD070E94AA0385E292E00E94421110E0AB
:1044300000E010933707009336070E9408070091A9
:104440002E0610912F062091300630913106601B08
:10445000710B820B930B6630710581059105E8F0B5
:1044600080910E02811170C270E060E089E00E94CC
:10447000DA0570E060E086E00E94DA0570E060E056
:1044800083E00E94DA050E94080760932E0670936D
:104490002F068093300690933106809157069091B5
:1044A0005806892B21F080912D068111DBC1809166
:1044B00059068111D7C18091D80581110DC00E9484
:1044C00008076093D4057093D5058093D605909323
:1044D000D70581E08093D8058091CC0581110DC06E
:1044E0000E9408076093C8057093C9058093CA05A8
:1044F0009093CB0581E08093CC050E940807009142
:10450000D4051091D5052091D6053091D705601BB3
:10451000710B820B930B009100021091010220910C
:10452000020230910302061717072807390708F01F
:104530004DC00E9408076093D4057093D505809301
:10454000D6059093D7058091C6059091C705009731
:1045500009F066C281E090E0909358068093570678
:1045600088E893E1A0E0B0E080930002909301021C
:10457000A0930202B09303028091C6059091C705F3
:104580008230910581F4109258061092570640E649
:104590005AEE60E070E04093000250930102609395
:1045A0000202709303020196833091050CF059C208
:1045B0009093C7058093C60580912D06882321F02E
:1045C000109258061092570610922D060E94080766
:1045D0000091D4051091D5052091D6053091D705CD
:1045E000601B710B820B930B603D77408105910539
:1045F00008F009C30E9408070091C8051091C90579
:104600002091CA053091CB05601B710B820B930B77
:10461000653671058105910508F424C10E940807DB
:104620006093C8057093C9058093CA059093CB0524
:10463000809157069091580620912D07222309F466
:1046400015C2892B89F5CE0149960E94991981E0FE
:104650002091630230916402232B09F480E00E94D0
:104660002D0EAB01BC01CE0101960E94161AAE01BF
:10467000475E5F4FBE016F5F7F4FCE014F960E9436
:104680002C16BE01615E7F4F82E39AE00E9469149E
:10469000CE014F960E94B414CE0101960E94B4142C
:1046A000CE0149960E94B414809157069091580605
:1046B000019709F062C00E94BB0A68EE73E00E9495
:1046C000223BBC01CE018B960E94EB170E94C50ACB
:1046D000BC01CE0185960E94EB170E94CD0ABC0159
:1046E000CE0149960E94EB17BE01675E7F4FCE0157
:1046F0004F960E94C615BE016B5D7F4FCE014F964F
:104700000E944515BE01655D7F4F0E944515BC01A5
:10471000CE01C1960E94C615CE0101960E9499193C
:10472000AE014F5C5F4FBE016F5F7F4FCE01C796FA
:104730000E942C16BE01695C7F4F82E39AE00E94C2
:104740006914CE01C7960E94B414CE0101960E944E
:10475000B414CE01C1960E94B414CE014F960E94AB
:10476000B414CE0149960E94B414CE0185960E94DD
:10477000B414CE018B960E94B41480915706909188
:104780005806049709F06EC081E0209163023091D1
:104790006402232B09F480E00E942D0EAB01BC01C2
:1047A000CE01C1960E94161A0E94BB0A68EE73E001
:1047B0000E94223BBC01CE0185960E94EB170E940D
:1047C000C50ABC01CE014F960E94EB170E94CD0A8C
:1047D000BC01CE0101960E94EB17BE016F5F7F4FB7
:1047E000CE0149960E94C615BE01615E7F4FCE0183
:1047F00049960E944515BE016B5D7F4F0E9445158D
:10480000BC01CE018B960E94C615AE014F5C5F4F76
:10481000BE01655D7F4FCE01C7960E942C16BE017A
:10482000695C7F4F82E39AE00E946914CE01C796CB
:104830000E94B414CE018B960E94B414CE01499606
:104840000E94B414CE0101960E94B414CE014F967A
:104850000E94B414CE0185960E94B414CE01C19674
:104860000E94B4140E94B21189E19AE00E94ED0AFC
:1048700080E09AE00E94ED0A87EE99E00E94ED0A3E
:10488000809159068111C2C11092BD068091190A0A
:1048900090911A0A181619063CF0809136069091EC
:1048A0003706019709F023C381E080932D0610920B
:1048B00037071092360744E650E060E070E088EE7B
:1048C00093E00E9414048091A606882309F4CBC1CA
:1048D0000E946F1CEE960FB6F894DEBF0FBECDBFE0
:1048E000DF91CF911F910F91FF90EF90DF90CF90CC
:1048F000BF90AF909F908F907F906F905F904F9000
:104900003F902F90089581E08093B90501CD83E019
:10491000FBCF85E0F9CF86E0F7CF88E0F5CF8AE0DE
:10492000F3CF8CE0F1CF80910A028093B80528CDB7
:1049300080916F008D7F80936F0070CD80917000AB
:104940008D7F809370006ACD8091450781119BCD4A
:104950000091C4051091C505F801EE0FFF1FE00F8F
:10496000F11FDF01AA0FBB1FA85BBC4F8D919C916B
:104970006091060270910702680F791F7093070219
:1049800060930602DF01AA0FBB1FA65BBC4FCD9050
:10499000DC908091230690912406C80ED91ED092F7
:1049A0002406C0922306EE0FFF1FE45BFC4FE0805D
:1049B000F1808091210690912206E80EF91EF09276
:1049C0002206E092210689E00E94DA05B60186E01F
:1049D0000E94DA05B70183E00E94DA058091C205E2
:1049E0009091C30501969093C3058093C2058F3FB4
:1049F000910551F40F5F1F4F1093C5050093C40537
:104A00001092C3051092C2058091C4059091C5050E
:104A100006970CF438CD1092C5051092C40533CD1D
:104A2000019709F0A9CD84E090E090935806809317
:104A3000570688E893E1A0E0B0E0809300029093ED
:104A40000102A0930202B093030280912D0781110D
:104A50000C94592D82E090E09093C7058093C60591
:104A60008BCD1092C7051092C605A6CD892B09F0F3
:104A700062C0CE01C1960E9499190E94BB0A68EEDD
:104A800073E00E94223BBC01CE0185960E94EB1789
:104A90000E94C50ABC01CE014F960E94EB170E94EE
:104AA000CD0ABC01CE0101960E94EB17BE016F5FDB
:104AB0007F4FCE0149960E94C615BE01615E7F4FB1
:104AC000CE0149960E944515BE016B5D7F4F0E9445
:104AD0004515BC01CE018B960E94C615AE014F5CF8
:104AE0005F4FBE01655D7F4FCE01C7960E942C16B9
:104AF000BE01695C7F4F82E39AE00E946914CE0197
:104B0000C7960E94B414CE018B960E94B414CE01B5
:104B100049960E94B414CE0101960E94B414CE01AD
:104B20004F960E94B414CE0185960E94B414CE0113
:104B3000C1960E94B414809157069091580601972F
:104B400009F090CE0E94BB0A68EE73E00E94223BFF
:104B5000BC01CE018B960E94EB170E94C50ABC01D6
:104B6000CE0185960E94EB170E94CD0ABC01CE01B2
:104B700049960E94EB17BE01675E7F4FCE014F96AC
:104B80000E94C615BE016B5D7F4FCE014F960E94FD
:104B90004515BE01655D7F4F0E944515BC01CE01E4
:104BA000C1960E94C615CE0101960E949919AE01C8
:104BB0004F5C5F4FBE016F5F7F4FCE01C7960E9473
:104BC0002C16BE01695C7F4F82E39AE00E94691453
:104BD000CE01C7960E94B414CE0101960E94B4146F
:104BE000CE01C1960E94B414CE014F960E94B41417
:104BF000CE0149960E94B414CE0185960E94B41449
:104C0000CE018B962DCE109276062CCE0E940807F0
:104C100000915A0610915B0620915C0630915D066A
:104C2000601B710B820B930B61367A4E81059105E7
:104C300008F42CCE10925906E0915706F0915806D0
:104C4000EE0FFF1FE853FC4F80819181909358062F
:104C500080935706880F991FFC01E15FFD4F80810B
:104C60008093BD0613CE0E94080760935A06709386
:104C70005B0680935C0690935D0680915706909149
:104C8000580601968730910509F463C09093580641
:104C90008093570620915706309158068901000FDE
:104CA000111FF801E15FFD4F80818093BD06D9019E
:104CB0001197FD01EE0FFF1FE656FC4F60817181D9
:104CC0006115710509F404C1AB0141505109FA01A4
:104CD000EE0FFF1FE459FC4F0190F081E02DAE175D
:104CE000BF0709F0F5C062307105C1F588E1EEEC4F
:104CF000F2E0DE01119601900D928A95E1F7809124
:104D000057029091580283709927892B21F48DE1E5
:104D100090E09C838B83809155029091560201977D
:104D2000880F991F21E030E02C0F3D1F820F931F49
:104D30002091530230915402FC01808191818217AD
:104D4000930764F48BE090E09093580680935706A5
:104D5000C1CD10925806109257069CCF109259065A
:104D60005093580640935706452BB9F40E94BB0A4E
:104D70007C010E94C50A8C010E94CD0A40914F021D
:104D80005091500260914D0270914E029C018091B1
:104D90004B0290914C020E94970980915706909186
:104DA00058060197F9F4E0905702F09058020091EC
:104DB00055021091560280905302909054020E9426
:104DC000D50A5C010E94DD0A6C010E94E50A94018B
:104DD000A501B6010E949709609151028DE090E013
:104DE0000E94501C80915706909158060297C1F47A
:104DF0006091590282E090E00E94501C60915B0239
:104E000083E090E00E94501C60915D0284E090E09D
:104E10000E94501C60915F0286E090E00E94501C4E
:104E20008091570690915806039731F46091610282
:104E300081E090E00E94501C8091570690915806A6
:104E4000049731F4609163028BE090E00E94501C63
:104E50008091570690915806059749F46091650234
:104E600080919302681B8CE090E00E94501C80911E
:104E7000570690915806069761F4609167028EE09C
:104E800090E00E94501C609169028FE090E00E94C7
:104E9000501C0E94BB0A5C010E94C50A082F0E9498
:104EA000CD0AD82E0E94D50AF82E0E94DD0A182FAE
:104EB0000E94E50A382FC50168EE73E00E94223B8C
:104EC000E82E2D2D4F2D612F832F0E94340D02CD02
:104ED0002431310561F02A5031092230310538F092
:104EE0000E94E816F801E35CFD4F91838083809176
:104EF000190A90911A0A97FD07C080913606909181
:104F00003706019609F0F4C044E650E060E070E036
:104F100088EE93E00E94140480915906811152C0DA
:104F200000915706109158060E94080760935A0690
:104F300070935B0680935C0690935D06012B09F0ED
:104F400041C00E94D50ABC01CE0185960E94EB1794
:104F50000E94DD0ABC01CE014F960E94EB170E9411
:104F6000E50ABC01CE0101960E94EB17BE016F5FFE
:104F70007F4FCE0149960E94C615BE01615E7F4FEC
:104F8000CE0149960E944515BE016B5D7F4F0E9480
:104F9000451563E574E00E942F15BC0182E39AE099
:104FA0000E94AF15CE0149960E94B414CE0101961D
:104FB0000E94B414CE014F960E94B414CE0185967F
:104FC0000E94B4148091570690915806019709F0F9
:104FD00056C00E94CD0A90935402809353020E94BF
:104FE000C50A90935602809355020E94BB0ABC01E9
:104FF00090935802809357028091510290915202EF
:10500000892B09F0A6C1CE0185960E94EB1760910D
:10501000550270915602CE014F960E94EB17609197
:10502000530270915402CE0101960E94EB17BE010B
:105030006F5F7F4FCE0149960E94C615BE01615E2B
:105040007F4FCE0149960E944515BE016B5D7F4F93
:105050000E944515BC0182E39AE00E94AF15CE0183
:1050600049960E94B414CE0101960E94B414CE0158
:105070004F960E94B414CE0185960E94B414E0911C
:105080005706F0915806EE0FFF1FE853FC4F2081A2
:10509000318130935806209357062E30310549F45C
:1050A00081E090E09093600280935F0280E88093BB
:1050B000AD068091590691E08927809359068901B0
:1050C000000F111FF801E15FFD4F80818093BD0645
:1050D000A901435151094230510550F02A303105A0
:1050E00039F00E94E816F801E35CFD4F918380835C
:1050F0008091000A9091010A009709F03BC18091CC
:10510000340690913506019701F581E080932D06D4
:10511000109237071092360744E650E060E070E0E6
:1051200088EE93E00E9414048091A6068111D0CBF2
:105130000E94451980915906811107C010924507B8
:1051400060E087E090E00E94501C80912B069091D7
:105150002C06019609F017C18091020A882309F4F0
:1051600012C11092BF06809159068823F9F00E945F
:1051700008070091270610912806209129063091F2
:105180002A06601B710B820B930B67397105810531
:10519000910560F00E940807609327067093280627
:1051A0008093290690932A060E9445198091E70969
:1051B0009091E809009709F0EAC080913206909139
:1051C0003306019791F511E010932D0610923707E1
:1051D0001092360744E650E060E070E088EE93E01D
:1051E0000E9414048091A606811172CB0E94E618D9
:1051F00080915906811119C01093450761E087E03D
:1052000090E00E94501C6091060288E090E00E94AD
:10521000501C6091230689E090E00E94501C609130
:1052200021068AE090E00E94501C80912506909112
:105230002606019609F0B4C08091E909882309F493
:10524000AFC0809159061092BE06882321F10E94BA
:10525000080700911D0610911E0620911F0630912F
:105260002006601B710B820B930B6739710581055A
:10527000910508F449C00E94080760931D067093C9
:105280001E0680931F06909320060E94E6188091C8
:105290005906811139C08091000A9091010A97FD49
:1052A00006C08091340690913506019691F444E64B
:1052B00050E060E070E088EE93E00E94140481E02A
:1052C00080930E0261E090E080E00E94501C0E94FA
:1052D000541C8091E7099091E80997FD06C08091E0
:1052E000320690913306019679F444E650E060E08E
:1052F00070E088EE93E00E94140410920E0260E0C9
:1053000090E080E00E94501CE0915706F091580612
:10531000E731F10508F0DECA8827EE56F64D8F4FCB
:105320000C94773BD429B92AB12BFD2B282C6D2C5A
:10533000252D6A246A246A249E2CC72CC72CC72CCE
:105340006A246A246A246A246A24282C6D2C252D58
:10535000252DCE0185960E94EB1760915302709126
:105360005402CE014F960E94EB1760915502709146
:10537000560259CE90932C0680932B0618161906C8
:105380000CF4C3CEBCCE81E08093BF060FCF9093C8
:10539000260680932506181619060CF414CF0DCF97
:1053A00081E08093BE0673CF809176068111CBC0D9
:1053B0000E94D50A209104023091050282179307BA
:1053C00009F4D0C00E94D50A90930502809304028C
:1053D000009163021091640281E00115110509F446
:1053E00080E00E942D0E6B017C018091F2058111FD
:1053F00011C00E940807645B7B4F8F4F9F4F6093E3
:10540000EE057093EF058093F0059093F10581E030
:105410008093F2058091E605811109C06CE374E088
:1054200080EE95E00E94CF1581E08093E6050E9412
:1054300008078090EE059090EF05A090F005B090E1
:10544000F105681979098A099B09693E734081054C
:10545000910508F444C00E9408076093EE0570931C
:10546000EF058093F0059093F105012B09F073C0CF
:1054700014E320E030E0A901C701B6010E94013B1E
:1054800020E030E040E05FE387FD67C0C701B60180
:105490000E945F3A0E94CB3A24E630E040E050E0C0
:1054A0000E94583BCE0149960E94EB17BE01675EF1
:1054B0007F4FCE0101960E94C615612FCE01019645
:1054C0000E941015BC0180EE95E00E94AF15CE0140
:1054D00001960E94B414CE0149960E94B41460EE65
:1054E00075E0CE0101960E94C615CE014F960E942E
:1054F0009919BE01615E7F4FCE0149960E94C61583
:10550000BE016F5F7F4FCE0149960E944515BC01D9
:10551000CE0185960E94C615CE0149960E94B4140C
:10552000CE014F960E94B414CE0101960E94B4148D
:10553000BE016B5D7F4F82E39AE00E946914CE0149
:1055400085960E94B4140E94D50A80FD7CC180EC2F
:105550008093AD067AC111E38CCFC701B6010E94DA
:105560005E3A98CF62E37AE0CE0185960E94C61536
:10557000DFCF809176068111E1C0809115068111FF
:1055800011C00E94080767517C4F8F4F9F4F609357
:10559000110670931206809313069093140681E00F
:1055A0008093150680910906811144C00E94BB0AB0
:1055B00068EE73E00E94223BBC01CE0101960E947E
:1055C000EB170E94C50ABC01CE0149960E94EB1759
:1055D0000E94CD0ABC01CE0185960E94EB17BE0148
:1055E0006B5D7F4FCE014F960E94C615BE01675E70
:1055F0007F4FCE014F960E944515BE016F5F7F4FD2
:105600000E944515BC0183E096E00E94C61581E02A
:1056100080930906CE014F960E94B414CE01859660
:105620000E94B414CE0149960E94B414CE01019692
:105630000E94B41400915102109152028091FB0516
:10564000811105C00093FA0581E08093FB050E945B
:105650000807C0901106D0901206E0901306F09053
:1056600014066C197D098E099F09693E73408105F6
:10567000910530F48091FA058017110609F44DC0A8
:105680000E94080760931106709312068093130618
:1056900090931406012B09F053C00E94BB0ABC0171
:1056A000CE0101960E94EB170E94C50ABC01CE01F3
:1056B00049960E94EB170E94CD0ABC01CE01859647
:1056C0000E94EB17BE016B5D7F4FCE014F960E948B
:1056D000C615BE01675E7F4FCE014F960E944515ED
:1056E000BE016F5F7F4F0E94451569E30E94101550
:1056F000BC0183E096E00E94AF15CE014F960E9458
:10570000B414CE0185960E94B414CE0149960E942D
:10571000B414CE0101960E94B41463E076E0CE0189
:1057200001960E94C615BE016F5F7F4F82E39AE02B
:105730000E946914CE0101960E94B41480E408CF3F
:105740000E94BB0ABC01CE0101960E94EB170E9489
:10575000CD0ABC01CE0149960E94EB170E94C50AF2
:10576000ACCF60915D0270915E02CE0185960E9481
:10577000EB1760915B0270915C02CE014F960E9424
:10578000EB176091590270915A02CE0101960E9466
:10579000EB17BE016F5F7F4FCE0149960E94C61581
:1057A000BE01615E7F4FCE0149960E944515BE0144
:1057B0006B5D7F4F0E94451563E574E00E942F15D5
:1057C000BC0182E39AE00E94AF15CE0149960E9487
:1057D000B414CE0101960E94B414CE014F960E94DB
:1057E000B414CE0185960E94B41480915F0290910A
:1057F0006002019741F580E8ABCE60916102709143
:105800006202CE0149960E94831561E874E0CE01E0
:1058100001960E94CF15BE01675E7F4FCE010196B3
:105820000E94451561E574E00E942F15BC0182E3DA
:105830009AE00E94AF15CE0101960E94B414CE01E9
:1058400049960E94B4141092AD060E947C1C42C876
:1058500080917606811124C081E02091630230910D
:105860006402232B09F480E00E942D0EAB01BC01E1
:10587000CE0101960E94161ABE016F5F7F4F82E330
:105880009AE00E946914CE0101960E94B41480919E
:10589000630290916402892BD9F480E48093AD0671
:1058A00081E02091630230916402232B09F480E0AF
:1058B0000E942D0E1091AD0620E030E0A9010E945B
:1058C0000A3987FF08C010681093AD060C946A244B
:1058D0001092AD06E5CF1F77F7CF6091650270910A
:1058E0006602CE0101960E94EB17BE016F5F7F4FEB
:1058F000CE0149960E94C6156FE474E0CE01499628
:105900000E942F15BC0182E39AE00E94AF15CE01E0
:1059100049960E94B414CE0101960E94B41480915D
:1059200065029091660297FD04C01092AD060C943A
:105930006A2480E88093AD060C946A248091510219
:1059400090915202892BA1F467E574E082E39AE01A
:105950000E94791583E090E09093260280932502BF
:105960008CE090E090932802809327020C946A24A4
:1059700061E674E082E39AE00E9479158CE090E0A1
:10598000909326028093250283E090E0EBCF609114
:105990005702709158028091510290915202892BC6
:1059A00009F042C0CE0185960E943D1760915502D4
:1059B00070915602CE014F960E94EB1760915302F0
:1059C00070915402CE0101960E94EB17BE016F5FE9
:1059D0007F4FCE0149960E94C615BE01615E7F4F82
:1059E000CE0149960E944515BE016B5D7F4F0E9416
:1059F000451565E574E00E942F15BC0182E39AE02D
:105A00000E94AF15CE0149960E94B414CE010196B2
:105A10000E94B414CE014F960E94B414CE01859614
:105A20000E94B4140C946A24CE0185960E943D17FE
:105A30006091530270915402CE014F960E94EB1771
:105A40006091550270915602BDCF609169027091CC
:105A50006A02CE014F960E94EB1760916702709127
:105A60006802CE0101960E94EB17BE016F5F7F4F67
:105A7000CE0149960E94C615BE01615E7F4FCE01E0
:105A800049960E9445156BE674E00E942F15BC01F3
:105A900082E39AE00E94AF15CE0149960E94B414A9
:105AA000CE0101960E94B414CE014F960E94B41408
:105AB0003CCF81E090E00C94D3221F920F920FB65E
:105AC0000F9211242F933F938F939F93AF93BF9384
:105AD0008091470790914807A0914907B0914A07E4
